{
  "address": "0x4a5D0AE5329C5a481b1bE2B3F0535d1e4ece4c7C",
  "abi": [
    {
      "anonymous": false,
      "inputs": [
        {
          "indexed": true,
          "internalType": "address",
          "name": "account",
          "type": "address"
        },
        {
          "indexed": true,
          "internalType": "address",
          "name": "operator",
          "type": "address"
        },
        {
          "indexed": false,
          "internalType": "bool",
          "name": "approved",
          "type": "bool"
        }
      ],
      "name": "ApprovalForAll",
      "type": "event"
    },
    {
      "anonymous": false,
      "inputs": [
        {
          "indexed": true,
          "internalType": "uint256",
          "name": "tokenID",
          "type": "uint256"
        },
        {
          "indexed": true,
          "internalType": "address",
          "name": "to",
          "type": "address"
        },
        {
          "indexed": true,
          "internalType": "address",
          "name": "dividendToken",
          "type": "address"
        },
        {
          "indexed": false,
          "internalType": "uint256",
          "name": "weiAmount",
          "type": "uint256"
        }
      ],
      "name": "DividendWithdrawn",
      "type": "event"
    },
    {
      "anonymous": false,
      "inputs": [
        {
          "indexed": true,
          "internalType": "uint256",
          "name": "tokenID",
          "type": "uint256"
        },
        {
          "indexed": true,
          "internalType": "address",
          "name": "from",
          "type": "address"
        },
        {
          "indexed": true,
          "internalType": "address",
          "name": "dividendToken",
          "type": "address"
        },
        {
          "indexed": false,
          "internalType": "uint256",
          "name": "weiAmount",
          "type": "uint256"
        }
      ],
      "name": "DividendsDistributed",
      "type": "event"
    },
    {
      "anonymous": false,
      "inputs": [
        {
          "indexed": true,
          "internalType": "bytes32",
          "name": "role",
          "type": "bytes32"
        },
        {
          "indexed": true,
          "internalType": "bytes32",
          "name": "previousAdminRole",
          "type": "bytes32"
        },
        {
          "indexed": true,
          "internalType": "bytes32",
          "name": "newAdminRole",
          "type": "bytes32"
        }
      ],
      "name": "RoleAdminChanged",
      "type": "event"
    },
    {
      "anonymous": false,
      "inputs": [
        {
          "indexed": true,
          "internalType": "bytes32",
          "name": "role",
          "type": "bytes32"
        },
        {
          "indexed": true,
          "internalType": "address",
          "name": "account",
          "type": "address"
        },
        {
          "indexed": true,
          "internalType": "address",
          "name": "sender",
          "type": "address"
        }
      ],
      "name": "RoleGranted",
      "type": "event"
    },
    {
      "anonymous": false,
      "inputs": [
        {
          "indexed": true,
          "internalType": "bytes32",
          "name": "role",
          "type": "bytes32"
        },
        {
          "indexed": true,
          "internalType": "address",
          "name": "account",
          "type": "address"
        },
        {
          "indexed": true,
          "internalType": "address",
          "name": "sender",
          "type": "address"
        }
      ],
      "name": "RoleRevoked",
      "type": "event"
    },
    {
      "anonymous": false,
      "inputs": [
        {
          "indexed": true,
          "internalType": "address",
          "name": "operator",
          "type": "address"
        },
        {
          "indexed": true,
          "internalType": "address",
          "name": "from",
          "type": "address"
        },
        {
          "indexed": true,
          "internalType": "address",
          "name": "to",
          "type": "address"
        },
        {
          "indexed": false,
          "internalType": "uint256[]",
          "name": "ids",
          "type": "uint256[]"
        },
        {
          "indexed": false,
          "internalType": "uint256[]",
          "name": "values",
          "type": "uint256[]"
        }
      ],
      "name": "TransferBatch",
      "type": "event"
    },
    {
      "anonymous": false,
      "inputs": [
        {
          "indexed": true,
          "internalType": "address",
          "name": "operator",
          "type": "address"
        },
        {
          "indexed": true,
          "internalType": "address",
          "name": "from",
          "type": "address"
        },
        {
          "indexed": true,
          "internalType": "address",
          "name": "to",
          "type": "address"
        },
        {
          "indexed": false,
          "internalType": "uint256",
          "name": "id",
          "type": "uint256"
        },
        {
          "indexed": false,
          "internalType": "uint256",
          "name": "value",
          "type": "uint256"
        }
      ],
      "name": "TransferSingle",
      "type": "event"
    },
    {
      "anonymous": false,
      "inputs": [
        {
          "indexed": false,
          "internalType": "string",
          "name": "value",
          "type": "string"
        },
        {
          "indexed": true,
          "internalType": "uint256",
          "name": "id",
          "type": "uint256"
        }
      ],
      "name": "URI",
      "type": "event"
    },
    {
      "inputs": [],
      "name": "DEFAULT_ADMIN_ROLE",
      "outputs": [
        {
          "internalType": "bytes32",
          "name": "",
          "type": "bytes32"
        }
      ],
      "stateMutability": "view",
      "type": "function"
    },
    {
      "inputs": [],
      "name": "DIVIDEND_ROLE",
      "outputs": [
        {
          "internalType": "bytes32",
          "name": "",
          "type": "bytes32"
        }
      ],
      "stateMutability": "view",
      "type": "function"
    },
    {
      "inputs": [],
      "name": "METADATA_ROLE",
      "outputs": [
        {
          "internalType": "bytes32",
          "name": "",
          "type": "bytes32"
        }
      ],
      "stateMutability": "view",
      "type": "function"
    },
    {
      "inputs": [],
      "name": "MINTER_BURNER_ROLE",
      "outputs": [
        {
          "internalType": "bytes32",
          "name": "",
          "type": "bytes32"
        }
      ],
      "stateMutability": "view",
      "type": "function"
    },
    {
      "inputs": [
        {
          "internalType": "uint256",
          "name": "tokenID",
          "type": "uint256"
        },
        {
          "internalType": "address",
          "name": "dividendToken",
          "type": "address"
        },
        {
          "internalType": "address",
          "name": "_owner",
          "type": "address"
        }
      ],
      "name": "accumulativeDividendOf",
      "outputs": [
        {
          "internalType": "uint256",
          "name": "",
          "type": "uint256"
        }
      ],
      "stateMutability": "view",
      "type": "function"
    },
    {
      "inputs": [
        {
          "internalType": "address",
          "name": "account",
          "type": "address"
        },
        {
          "internalType": "uint256",
          "name": "id",
          "type": "uint256"
        }
      ],
      "name": "balanceOf",
      "outputs": [
        {
          "internalType": "uint256",
          "name": "",
          "type": "uint256"
        }
      ],
      "stateMutability": "view",
      "type": "function"
    },
    {
      "inputs": [
        {
          "internalType": "address[]",
          "name": "accounts",
          "type": "address[]"
        },
        {
          "internalType": "uint256[]",
          "name": "ids",
          "type": "uint256[]"
        }
      ],
      "name": "balanceOfBatch",
      "outputs": [
        {
          "internalType": "uint256[]",
          "name": "",
          "type": "uint256[]"
        }
      ],
      "stateMutability": "view",
      "type": "function"
    },
    {
      "inputs": [],
      "name": "baseName",
      "outputs": [
        {
          "internalType": "string",
          "name": "",
          "type": "string"
        }
      ],
      "stateMutability": "view",
      "type": "function"
    },
    {
      "inputs": [],
      "name": "baseSymbol",
      "outputs": [
        {
          "internalType": "string",
          "name": "",
          "type": "string"
        }
      ],
      "stateMutability": "view",
      "type": "function"
    },
    {
      "inputs": [
        {
          "internalType": "address",
          "name": "account",
          "type": "address"
        },
        {
          "internalType": "uint256",
          "name": "id",
          "type": "uint256"
        },
        {
          "internalType": "uint256",
          "name": "amount",
          "type": "uint256"
        }
      ],
      "name": "burn",
      "outputs": [],
      "stateMutability": "nonpayable",
      "type": "function"
    },
    {
      "inputs": [
        {
          "internalType": "address",
          "name": "account",
          "type": "address"
        },
        {
          "internalType": "uint256[]",
          "name": "ids",
          "type": "uint256[]"
        },
        {
          "internalType": "uint256[]",
          "name": "amounts",
          "type": "uint256[]"
        }
      ],
      "name": "burnBatch",
      "outputs": [],
      "stateMutability": "nonpayable",
      "type": "function"
    },
    {
      "inputs": [],
      "name": "decimals",
      "outputs": [
        {
          "internalType": "uint8",
          "name": "",
          "type": "uint8"
        }
      ],
      "stateMutability": "view",
      "type": "function"
    },
    {
      "inputs": [
        {
          "internalType": "uint256",
          "name": "tokenID",
          "type": "uint256"
        }
      ],
      "name": "deployWrapper",
      "outputs": [
        {
          "internalType": "address",
          "name": "wrapperAddress",
          "type": "address"
        }
      ],
      "stateMutability": "nonpayable",
      "type": "function"
    },
    {
      "inputs": [],
      "name": "deployWrapperOnMint",
      "outputs": [
        {
          "internalType": "bool",
          "name": "",
          "type": "bool"
        }
      ],
      "stateMutability": "view",
      "type": "function"
    },
    {
      "inputs": [
        {
          "internalType": "uint256",
          "name": "tokenID",
          "type": "uint256"
        },
        {
          "internalType": "address",
          "name": "dividendToken",
          "type": "address"
        },
        {
          "internalType": "uint256",
          "name": "amount",
          "type": "uint256"
        }
      ],
      "name": "distributeDividends",
      "outputs": [],
      "stateMutability": "nonpayable",
      "type": "function"
    },
    {
      "inputs": [
        {
          "internalType": "uint256",
          "name": "tokenID",
          "type": "uint256"
        },
        {
          "internalType": "address",
          "name": "dividendToken",
          "type": "address"
        },
        {
          "internalType": "address",
          "name": "_owner",
          "type": "address"
        }
      ],
      "name": "dividendOf",
      "outputs": [
        {
          "internalType": "uint256",
          "name": "",
          "type": "uint256"
        }
      ],
      "stateMutability": "view",
      "type": "function"
    },
    {
      "inputs": [
        {
          "internalType": "uint256",
          "name": "",
          "type": "uint256"
        }
      ],
      "name": "dividendTokenDataList",
      "outputs": [
        {
          "internalType": "address",
          "name": "dividendToken",
          "type": "address"
        }
      ],
      "stateMutability": "view",
      "type": "function"
    },
    {
      "inputs": [],
      "name": "dividendTokenDataListLength",
      "outputs": [
        {
          "internalType": "uint256",
          "name": "",
          "type": "uint256"
        }
      ],
      "stateMutability": "view",
      "type": "function"
    },
    {
      "inputs": [
        {
          "internalType": "address",
          "name": "",
          "type": "address"
        }
      ],
      "name": "dividendTokenToDataID",
      "outputs": [
        {
          "internalType": "uint256",
          "name": "",
          "type": "uint256"
        }
      ],
      "stateMutability": "view",
      "type": "function"
    },
    {
      "inputs": [
        {
          "internalType": "bytes32",
          "name": "role",
          "type": "bytes32"
        }
      ],
      "name": "getRoleAdmin",
      "outputs": [
        {
          "internalType": "bytes32",
          "name": "",
          "type": "bytes32"
        }
      ],
      "stateMutability": "view",
      "type": "function"
    },
    {
      "inputs": [
        {
          "internalType": "bytes32",
          "name": "role",
          "type": "bytes32"
        },
        {
          "internalType": "address",
          "name": "account",
          "type": "address"
        }
      ],
      "name": "grantRole",
      "outputs": [],
      "stateMutability": "nonpayable",
      "type": "function"
    },
    {
      "inputs": [
        {
          "internalType": "bytes32",
          "name": "role",
          "type": "bytes32"
        },
        {
          "internalType": "address",
          "name": "account",
          "type": "address"
        }
      ],
      "name": "hasRole",
      "outputs": [
        {
          "internalType": "bool",
          "name": "",
          "type": "bool"
        }
      ],
      "stateMutability": "view",
      "type": "function"
    },
    {
      "inputs": [
        {
          "internalType": "address",
          "name": "admin",
          "type": "address"
        },
        {
          "internalType": "string",
          "name": "uri",
          "type": "string"
        },
        {
          "internalType": "address[]",
          "name": "dividendTokens",
          "type": "address[]"
        },
        {
          "internalType": "address",
          "name": "_wrapperTemplate",
          "type": "address"
        },
        {
          "internalType": "bool",
          "name": "_deployWrapperOnMint",
          "type": "bool"
        },
        {
          "internalType": "string",
          "name": "_baseName",
          "type": "string"
        },
        {
          "internalType": "string",
          "name": "_baseSymbol",
          "type": "string"
        },
        {
          "internalType": "uint8",
          "name": "_decimals",
          "type": "uint8"
        }
      ],
      "name": "initialize",
      "outputs": [],
      "stateMutability": "nonpayable",
      "type": "function"
    },
    {
      "inputs": [
        {
          "internalType": "address",
          "name": "account",
          "type": "address"
        },
        {
          "internalType": "address",
          "name": "operator",
          "type": "address"
        }
      ],
      "name": "isApprovedForAll",
      "outputs": [
        {
          "internalType": "bool",
          "name": "",
          "type": "bool"
        }
      ],
      "stateMutability": "view",
      "type": "function"
    },
    {
      "inputs": [
        {
          "internalType": "address",
          "name": "to",
          "type": "address"
        },
        {
          "internalType": "uint256",
          "name": "id",
          "type": "uint256"
        },
        {
          "internalType": "uint256",
          "name": "amount",
          "type": "uint256"
        }
      ],
      "name": "mint",
      "outputs": [],
      "stateMutability": "nonpayable",
      "type": "function"
    },
    {
      "inputs": [
        {
          "internalType": "address",
          "name": "to",
          "type": "address"
        },
        {
          "internalType": "uint256[]",
          "name": "ids",
          "type": "uint256[]"
        },
        {
          "internalType": "uint256[]",
          "name": "amounts",
          "type": "uint256[]"
        }
      ],
      "name": "mintBatch",
      "outputs": [],
      "stateMutability": "nonpayable",
      "type": "function"
    },
    {
      "inputs": [
        {
          "internalType": "address",
          "name": "dividendToken",
          "type": "address"
        }
      ],
      "name": "registerDividendToken",
      "outputs": [],
      "stateMutability": "nonpayable",
      "type": "function"
    },
    {
      "inputs": [
        {
          "internalType": "bytes32",
          "name": "role",
          "type": "bytes32"
        },
        {
          "internalType": "address",
          "name": "account",
          "type": "address"
        }
      ],
      "name": "renounceRole",
      "outputs": [],
      "stateMutability": "nonpayable",
      "type": "function"
    },
    {
      "inputs": [
        {
          "internalType": "bytes32",
          "name": "role",
          "type": "bytes32"
        },
        {
          "internalType": "address",
          "name": "account",
          "type": "address"
        }
      ],
      "name": "revokeRole",
      "outputs": [],
      "stateMutability": "nonpayable",
      "type": "function"
    },
    {
      "inputs": [
        {
          "internalType": "address",
          "name": "from",
          "type": "address"
        },
        {
          "internalType": "address",
          "name": "to",
          "type": "address"
        },
        {
          "internalType": "uint256[]",
          "name": "ids",
          "type": "uint256[]"
        },
        {
          "internalType": "uint256[]",
          "name": "amounts",
          "type": "uint256[]"
        },
        {
          "internalType": "bytes",
          "name": "data",
          "type": "bytes"
        }
      ],
      "name": "safeBatchTransferFrom",
      "outputs": [],
      "stateMutability": "nonpayable",
      "type": "function"
    },
    {
      "inputs": [
        {
          "internalType": "address",
          "name": "from",
          "type": "address"
        },
        {
          "internalType": "address",
          "name": "to",
          "type": "address"
        },
        {
          "internalType": "uint256",
          "name": "id",
          "type": "uint256"
        },
        {
          "internalType": "uint256",
          "name": "amount",
          "type": "uint256"
        },
        {
          "internalType": "bytes",
          "name": "data",
          "type": "bytes"
        }
      ],
      "name": "safeTransferFrom",
      "outputs": [],
      "stateMutability": "nonpayable",
      "type": "function"
    },
    {
      "inputs": [
        {
          "internalType": "address",
          "name": "operator",
          "type": "address"
        },
        {
          "internalType": "bool",
          "name": "approved",
          "type": "bool"
        }
      ],
      "name": "setApprovalForAll",
      "outputs": [],
      "stateMutability": "nonpayable",
      "type": "function"
    },
    {
      "inputs": [
        {
          "internalType": "string",
          "name": "newValue",
          "type": "string"
        }
      ],
      "name": "setBaseName",
      "outputs": [],
      "stateMutability": "nonpayable",
      "type": "function"
    },
    {
      "inputs": [
        {
          "internalType": "string",
          "name": "newValue",
          "type": "string"
        }
      ],
      "name": "setBaseSymbol",
      "outputs": [],
      "stateMutability": "nonpayable",
      "type": "function"
    },
    {
      "inputs": [
        {
          "internalType": "bool",
          "name": "newValue",
          "type": "bool"
        }
      ],
      "name": "setDeployWrapperOnMint",
      "outputs": [],
      "stateMutability": "nonpayable",
      "type": "function"
    },
    {
      "inputs": [
        {
          "internalType": "string",
          "name": "newuri",
          "type": "string"
        }
      ],
      "name": "setURI",
      "outputs": [],
      "stateMutability": "nonpayable",
      "type": "function"
    },
    {
      "inputs": [
        {
          "internalType": "bytes4",
          "name": "interfaceId",
          "type": "bytes4"
        }
      ],
      "name": "supportsInterface",
      "outputs": [
        {
          "internalType": "bool",
          "name": "",
          "type": "bool"
        }
      ],
      "stateMutability": "view",
      "type": "function"
    },
    {
      "inputs": [
        {
          "internalType": "uint256",
          "name": "",
          "type": "uint256"
        }
      ],
      "name": "tokenIDToWrapper",
      "outputs": [
        {
          "internalType": "address",
          "name": "",
          "type": "address"
        }
      ],
      "stateMutability": "view",
      "type": "function"
    },
    {
      "inputs": [
        {
          "internalType": "uint256",
          "name": "id",
          "type": "uint256"
        }
      ],
      "name": "totalSupply",
      "outputs": [
        {
          "internalType": "uint256",
          "name": "",
          "type": "uint256"
        }
      ],
      "stateMutability": "view",
      "type": "function"
    },
    {
      "inputs": [
        {
          "internalType": "uint256[]",
          "name": "ids",
          "type": "uint256[]"
        }
      ],
      "name": "totalSupplyBatch",
      "outputs": [
        {
          "internalType": "uint256[]",
          "name": "totalSupplies",
          "type": "uint256[]"
        }
      ],
      "stateMutability": "view",
      "type": "function"
    },
    {
      "inputs": [
        {
          "internalType": "uint256",
          "name": "",
          "type": "uint256"
        }
      ],
      "name": "uri",
      "outputs": [
        {
          "internalType": "string",
          "name": "",
          "type": "string"
        }
      ],
      "stateMutability": "view",
      "type": "function"
    },
    {
      "inputs": [
        {
          "internalType": "uint256",
          "name": "tokenID",
          "type": "uint256"
        },
        {
          "internalType": "address",
          "name": "dividendToken",
          "type": "address"
        }
      ],
      "name": "withdrawDividend",
      "outputs": [],
      "stateMutability": "nonpayable",
      "type": "function"
    },
    {
      "inputs": [
        {
          "internalType": "uint256",
          "name": "tokenID",
          "type": "uint256"
        },
        {
          "internalType": "address",
          "name": "dividendToken",
          "type": "address"
        },
        {
          "internalType": "address",
          "name": "user",
          "type": "address"
        }
      ],
      "name": "withdrawDividendFor",
      "outputs": [],
      "stateMutability": "nonpayable",
      "type": "function"
    },
    {
      "inputs": [
        {
          "internalType": "uint256",
          "name": "tokenID",
          "type": "uint256"
        },
        {
          "internalType": "address",
          "name": "dividendToken",
          "type": "address"
        },
        {
          "internalType": "address",
          "name": "_owner",
          "type": "address"
        }
      ],
      "name": "withdrawnDividendOf",
      "outputs": [
        {
          "internalType": "uint256",
          "name": "",
          "type": "uint256"
        }
      ],
      "stateMutability": "view",
      "type": "function"
    },
    {
      "inputs": [],
      "name": "wrapperTemplate",
      "outputs": [
        {
          "internalType": "address",
          "name": "",
          "type": "address"
        }
      ],
      "stateMutability": "view",
      "type": "function"
    },
    {
      "inputs": [
        {
          "internalType": "address",
          "name": "from",
          "type": "address"
        },
        {
          "internalType": "address",
          "name": "to",
          "type": "address"
        },
        {
          "internalType": "uint256",
          "name": "tokenID",
          "type": "uint256"
        },
        {
          "internalType": "uint256",
          "name": "amount",
          "type": "uint256"
        }
      ],
      "name": "wrapperTransfer",
      "outputs": [],
      "stateMutability": "nonpayable",
      "type": "function"
    }
  ],
  "transactionHash": "0x1b119b4bac2c85fef50e6e140176218942af77139f39e73053ca791d1e665696",
  "args": [],
  "solcInputHash": "72b8713e537a9cce07bd9768569f56f0",
  "bytecode": "0x608060405234801561001057600080fd5b50614cd4806100206000396000f3fe608060405234801561001057600080fd5b50600436106102895760003560e01c806377954ac21161015c578063b7b424e8116100ce578063e0507fac11610087578063e0507fac1461061d578063e985e9c514610630578063f242432a1461066c578063f3491f2b1461067f578063f4a1400214610694578063f5298aca146106a757600080fd5b8063b7b424e81461059c578063bd85b039146105af578063c8262c6c146105cf578063d2eb949b146105e4578063d547741f146105f7578063d81d0a151461060a57600080fd5b806391d148541161012057806391d14854146105345780639285a1e11461054757806398f192e31461055a578063a217fddf1461056e578063a22cb46514610576578063a4ed80511461058957600080fd5b806377954ac2146104dd5780637f9678b2146104f057806380583be714610510578063814d05f01461051857806381d792ef1461052b57600080fd5b80632f2ff15d116102005780634e1273f4116101b95780634e1273f41461044657806358b37b9b14610466578063590b07ec1461047957806366300d73146104a25780636b20c454146104b557806372c32860146104c857600080fd5b80632f2ff15d14610396578063313ce567146103a95780633627fda8146103c957806336568abe146103dc57806338841782146103ef57806348ab4f4b1461040457600080fd5b80631503063311610252578063150306331461031f578063156e29f6146103275780631b2121aa1461033a578063248a9ca31461034d5780632578f786146103705780632eb2c2d61461038357600080fd5b8062fdd58e1461028e57806301ffc9a7146102b457806302b171e2146102d757806302fe5305146102ea5780630e89341c146102ff575b600080fd5b6102a161029c36600461400d565b6106ba565b6040519081526020015b60405180910390f35b6102c76102c23660046141e3565b610753565b60405190151581526020016102ab565b6102a16102e536600461424e565b610764565b6102fd6102f836600461421b565b61077b565b005b61031261030d3660046141a9565b61083a565b6040516102ab9190614595565b6103126108ce565b6102fd610335366004614036565b61095d565b6102fd61034836600461421b565b6109b1565b6102a161035b3660046141a9565b60009081526097602052604090206001015490565b6102fd61037e366004614171565b6109f2565b6102fd610391366004613d1a565b610a45565b6102fd6103a43660046141c1565b610adc565b610131546103b79060ff1681565b60405160ff90911681526020016102ab565b6102fd6103d73660046141c1565b610b02565b6102fd6103ea3660046141c1565b610b0d565b6102a1600080516020614c5f83398151915281565b61042e6104123660046141a9565b61012d602052600090815260409020546001600160a01b031681565b6040516001600160a01b0390911681526020016102ab565b610459610454366004614068565b610b87565b6040516102ab919061455d565b61042e6104743660046141a9565b610ce8565b61042e6104873660046141a9565b60fb602052600090815260409020546001600160a01b031681565b6102a16104b036600461424e565b610cf3565b6102fd6104c3366004613e62565b610d52565b6102a1600080516020614c7f83398151915281565b6104596104eb366004614132565b610df4565b6102a16104fe366004613cce565b60fd6020526000908152604090205481565b610312610ed1565b6102fd61052636600461424e565b610edf565b6102a160fc5481565b6102c76105423660046141c1565b610f1e565b6102fd610555366004613dbf565b610f49565b61012e5461042e906001600160a01b031681565b6102a1600081565b6102fd610584366004613edf565b610fd2565b6102fd610597366004613cce565b6110a9565b6102fd6105aa366004614289565b6110e6565b6102a16105bd3660046141a9565b600090815260c9602052604090205490565b6102a1600080516020614c3f83398151915281565b6102fd6105f236600461421b565b611125565b6102fd6106053660046141c1565b611166565b6102fd610618366004613e62565b61118c565b6102fd61062b366004613f15565b61123c565b6102c761063e366004613ce8565b6001600160a01b03918216600090815260666020908152604080832093909416825291909152205460ff1690565b6102fd61067a366004613e00565b6112f8565b61012e546102c790600160a01b900460ff1681565b6102a16106a236600461424e565b61137f565b6102fd6106b5366004614036565b611431565b60006001600160a01b03831661072b5760405162461bcd60e51b815260206004820152602b60248201527f455243313135353a2062616c616e636520717565727920666f7220746865207a60448201526a65726f206164647265737360a81b60648201526084015b60405180910390fd5b5060009081526065602090815260408083206001600160a01b03949094168352929052205490565b600061075e82611470565b92915050565b6000610771848484611495565b90505b9392505050565b610793600080516020614c5f83398151915233610f1e565b6107f75760405162461bcd60e51b815260206004820152602f60248201527f45524331313535426173653a206d7573742068617665206d657461646174612060448201526e726f6c6520746f207365742055524960881b6064820152608401610722565b61083682828080601f01602080910402602001604051908101604052809392919081815260200183838082843760009201919091525061150292505050565b5050565b60606067805461084990614aa1565b80601f016020809104026020016040519081016040528092919081815260200182805461087590614aa1565b80156108c25780601f10610897576101008083540402835291602001916108c2565b820191906000526020600020905b8154815290600101906020018083116108a557829003601f168201915b50505050509050919050565b61012f80546108dc90614aa1565b80601f016020809104026020016040519081016040528092919081815260200182805461090890614aa1565b80156109555780601f1061092a57610100808354040283529160200191610955565b820191906000526020600020905b81548152906001019060200180831161093857829003601f168201915b505050505081565b610975600080516020614c7f83398151915233610f1e565b6109915760405162461bcd60e51b8152600401610722906146c9565b6109ac83838360405180602001604052806000815250611515565b505050565b6109c9600080516020614c5f83398151915233610f1e565b6109e55760405162461bcd60e51b815260040161072290614914565b6109ac61012f8383613a28565b610a0a600080516020614c5f83398151915233610f1e565b610a265760405162461bcd60e51b815260040161072290614914565b61012e8054911515600160a01b0260ff60a01b19909216919091179055565b6001600160a01b038516331480610a615750610a61853361063e565b610ac85760405162461bcd60e51b815260206004820152603260248201527f455243313135353a207472616e736665722063616c6c6572206973206e6f74206044820152711bdddb995c881b9bdc88185c1c1c9bdd995960721b6064820152608401610722565b610ad585858585856115ed565b5050505050565b600082815260976020526040902060010154610af88133611801565b6109ac8383611865565b6108368282336118eb565b6001600160a01b0381163314610b7d5760405162461bcd60e51b815260206004820152602f60248201527f416363657373436f6e74726f6c3a2063616e206f6e6c792072656e6f756e636560448201526e103937b632b9903337b91039b2b63360891b6064820152608401610722565b61083682826119de565b60608151835114610bec5760405162461bcd60e51b815260206004820152602960248201527f455243313135353a206163636f756e747320616e6420696473206c656e677468604482015268040dad2e6dac2e8c6d60bb1b6064820152608401610722565b600083516001600160401b03811115610c1557634e487b7160e01b600052604160045260246000fd5b604051908082528060200260200182016040528015610c3e578160200160208202803683370190505b50905060005b8451811015610ce057610ca5858281518110610c7057634e487b7160e01b600052603260045260246000fd5b6020026020010151858381518110610c9857634e487b7160e01b600052603260045260246000fd5b60200260200101516106ba565b828281518110610cc557634e487b7160e01b600052603260045260246000fd5b6020908102919091010152610cd981614b08565b9050610c44565b509392505050565b600061075e82611a45565b6001600160a01b038216600090815260fd602052604081205480610d1b576000915050610774565b600090815260fb6020908152604080832087845260030182528083206001600160a01b038616845290915290205490509392505050565b610d6a600080516020614c7f83398151915233610f1e565b610d865760405162461bcd60e51b81526004016107229061483a565b610ad58585858080602002602001604051908101604052809392919081815260200183836020028082843760009201919091525050604080516020808902828101820190935288825290935088925087918291850190849080828437600092019190915250611b8092505050565b6060816001600160401b03811115610e1c57634e487b7160e01b600052604160045260246000fd5b604051908082528060200260200182016040528015610e45578160200160208202803683370190505b50905060005b82811015610eca5760c96000858584818110610e7757634e487b7160e01b600052603260045260246000fd5b90506020020135815260200190815260200160002054828281518110610ead57634e487b7160e01b600052603260045260246000fd5b602090810291909101015280610ec281614b08565b915050610e4b565b5092915050565b61013080546108dc90614aa1565b610ef7600080516020614c3f83398151915233610f1e565b610f135760405162461bcd60e51b81526004016107229061467f565b6109ac8383836118eb565b60009182526097602090815260408084206001600160a01b0393909316845291905290205460ff1690565b600082815261012d60205260409020546001600160a01b03163314610fb05760405162461bcd60e51b815260206004820181905260248201527f5772617070656445524331313535546f6b656e3a206e6f7420777261707065726044820152606401610722565b610fcc8484848460405180602001604052806000815250611d3a565b50505050565b336001600160a01b038316141561103d5760405162461bcd60e51b815260206004820152602960248201527f455243313135353a2073657474696e6720617070726f76616c20737461747573604482015268103337b91039b2b63360b91b6064820152608401610722565b3360008181526066602090815260408083206001600160a01b03871680855290835292819020805460ff191686151590811790915590519081529192917f17307eab39ab6107e8899845ad3d59bd9653f200f220920489ca2b5937696c31910160405180910390a35050565b6110c1600080516020614c3f83398151915233610f1e565b6110dd5760405162461bcd60e51b81526004016107229061467f565b61083681611e64565b6110fe600080516020614c3f83398151915233610f1e565b61111a5760405162461bcd60e51b81526004016107229061467f565b6109ac838383611f33565b61113d600080516020614c5f83398151915233610f1e565b6111595760405162461bcd60e51b815260040161072290614914565b6109ac6101308383613a28565b6000828152609760205260409020600101546111828133611801565b6109ac83836119de565b6111a4600080516020614c7f83398151915233610f1e565b6111c05760405162461bcd60e51b8152600401610722906146c9565b610ad58585858080602002602001604051908101604052809392919081815260200183836020028082843760009201919091525050604080516020808902828101820190935288825290935088925087918291850190849080828437600092018290525060408051602081019091529081529250612047915050565b600054610100900460ff1680611255575060005460ff16155b6112715760405162461bcd60e51b81526004016107229061475f565b600054610100900460ff16158015611293576000805461ffff19166101011790555b6112d98b8b8b8b8b808060200260200160405190810160405280939291908181526020018383602002808284376000920191909152508d92508c91508b90508a8a6121be565b80156112eb576000805461ff00191690555b5050505050505050505050565b6001600160a01b0385163314806113145750611314853361063e565b6113725760405162461bcd60e51b815260206004820152602960248201527f455243313135353a2063616c6c6572206973206e6f74206f776e6572206e6f7260448201526808185c1c1c9bdd995960ba1b6064820152608401610722565b610ad58585858585611d3a565b6001600160a01b038216600090815260fd6020526040812054806113a7576000915050610774565b600081815260fb602090815260408083208884526002810183528184206001600160a01b038816855290925290912054600160801b9061141d9061140e6113ee888b6106ba565b60008b815260018701602052604090205461140991906149e9565b612292565b611418919061497c565b6122fc565b61142791906149d5565b9695505050505050565b611449600080516020614c7f83398151915233610f1e565b6114655760405162461bcd60e51b81526004016107229061483a565b6109ac83838361234e565b60006001600160e01b03198216637965db0b60e01b148061075e575061075e8261245b565b6001600160a01b038216600090815260fd6020526040812054806114bd576000915050610774565b600081815260fb602090815260408083208884526003810183528184206001600160a01b0388168552909252909120546114f887878761137f565b6114279190614a47565b8051610836906067906020840190613aa8565b6001600160a01b03841661153b5760405162461bcd60e51b8152600401610722906148d3565b3361155b8160008761154c886124ab565b611555886124ab565b87612504565b60008481526065602090815260408083206001600160a01b03891684529091528120805485929061158d9084906149bd565b909155505060408051858152602081018590526001600160a01b0380881692600092918516917fc3d58168c5ae7397731d063d5bbf3d657854427343f4c083240f7aacaa2d0f62910160405180910390a4610ad581600087878787612512565b815183511461160e5760405162461bcd60e51b81526004016107229061488b565b6001600160a01b0384166116345760405162461bcd60e51b81526004016107229061471a565b33611643818787878787612504565b60005b845181101561179357600085828151811061167157634e487b7160e01b600052603260045260246000fd5b60200260200101519050600085838151811061169d57634e487b7160e01b600052603260045260246000fd5b60209081029190910181015160008481526065835260408082206001600160a01b038e1683529093529190912054909150818110156116ee5760405162461bcd60e51b8152600401610722906147f0565b6116f88282614a47565b6065600085815260200190815260200160002060008c6001600160a01b03166001600160a01b0316815260200190815260200160002081905550816065600085815260200190815260200160002060008b6001600160a01b03166001600160a01b03168152602001908152602001600020600082825461177891906149bd565b925050819055505050508061178c90614b08565b9050611646565b50846001600160a01b0316866001600160a01b0316826001600160a01b03167f4a39dc06d4c0dbc64b70af90fd698a233a518aa5d07e595d983b8c0526c8f7fb87876040516117e3929190614570565b60405180910390a46117f9818787878787612696565b505050505050565b61180b8282610f1e565b61083657611823816001600160a01b03166014612760565b61182e836020612760565b60405160200161183f929190614401565b60408051601f198184030181529082905262461bcd60e51b825261072291600401614595565b61186f8282610f1e565b6108365760008281526097602090815260408083206001600160a01b03851684529091529020805460ff191660011790556118a73390565b6001600160a01b0316816001600160a01b0316837f2f8788117e7eff1d82e926ec794901d17c78024a50270940304540a733656f0d60405160405180910390a45050565b60006118f8848484611495565b90508015610fcc576001600160a01b038316600090815260fd6020526040902054806119365760405162461bcd60e51b8152600401610722906145f0565b600081815260fb602090815260408083208884526003810183528184206001600160a01b038816855290925282208054919285926119759084906149bd565b92505081905550846001600160a01b0316846001600160a01b0316877f56f5c15e9cca112839303eda856edf8986e092fc839520408e38e9e662b8d27e866040516119c291815260200190565b60405180910390a46117f96001600160a01b0386168585612941565b6119e88282610f1e565b156108365760008281526097602090815260408083206001600160a01b0385168085529252808320805460ff1916905551339285917ff6391f5c32d9c69d2a47ea670b442974b53935d1edc7fd64eb21e047a839171b9190a45050565b600081815261012d60205260409020546001600160a01b031680611b7b5761012e54600090611a7c906001600160a01b03166129a4565b90506000611a8984612a3c565b9050600061012f82604051602001611aa292919061435b565b6040516020818303038152906040529050600061013083604051602001611aca92919061435b565b60408051601f19818403018152908290526101315463be88368d60e01b83529092506001600160a01b0386169163be88368d91611b179130918b918891889160ff9091169060040161450e565b600060405180830381600087803b158015611b3157600080fd5b505af1158015611b45573d6000803e3d6000fd5b505050600087815261012d6020526040902080546001600160a01b0319166001600160a01b039690961695909517909455505050505b919050565b6001600160a01b038316611ba65760405162461bcd60e51b8152600401610722906147ad565b8051825114611bc75760405162461bcd60e51b81526004016107229061488b565b6000339050611bea81856000868660405180602001604052806000815250612504565b60005b8351811015611cdb576000848281518110611c1857634e487b7160e01b600052603260045260246000fd5b602002602001015190506000848381518110611c4457634e487b7160e01b600052603260045260246000fd5b60209081029190910181015160008481526065835260408082206001600160a01b038c168352909352919091205490915081811015611c955760405162461bcd60e51b81526004016107229061463b565b611c9f8282614a47565b60009384526065602090815260408086206001600160a01b038c1687529091529093209290925550819050611cd381614b08565b915050611bed565b5060006001600160a01b0316846001600160a01b0316826001600160a01b03167f4a39dc06d4c0dbc64b70af90fd698a233a518aa5d07e595d983b8c0526c8f7fb8686604051611d2c929190614570565b60405180910390a450505050565b6001600160a01b038416611d605760405162461bcd60e51b81526004016107229061471a565b33611d7081878761154c886124ab565b60008481526065602090815260408083206001600160a01b038a16845290915290205483811015611db35760405162461bcd60e51b8152600401610722906147f0565b611dbd8482614a47565b60008681526065602090815260408083206001600160a01b038c81168552925280832093909355881681529081208054869290611dfb9084906149bd565b909155505060408051868152602081018690526001600160a01b03808916928a821692918616917fc3d58168c5ae7397731d063d5bbf3d657854427343f4c083240f7aacaa2d0f62910160405180910390a4611e5b828888888888612512565b50505050505050565b6001600160a01b038116600090815260fd602052604081205415611edb5760405162461bcd60e51b815260206004820152602860248201527f455243313135354469766964656e64546f6b656e3a20616c726561647920726560448201526719da5cdd195c995960c21b6064820152608401610722565b60fc8054906000611eeb83614b08565b909155505060fc54600081815260fb6020908152604080832080546001600160a01b039097166001600160a01b03199097168717905594825260fd9052929092208290555090565b600083815260c9602052604090205480611f4c57600080fd5b60008211611f5957600080fd5b6001600160a01b038316600090815260fd602052604090205480611f8f5760405162461bcd60e51b8152600401610722906145f0565b600081815260fb6020526040902082611fac600160801b866149e9565b611fb691906149d5565b600087815260018301602052604081208054909190611fd69084906149bd565b90915550611ff190506001600160a01b038616333087612b5d565b846001600160a01b0316336001600160a01b0316877f8e19c486d7cf157228582812303b4763c49b90104252be0a955a3efb25f46ada8760405161203791815260200190565b60405180910390a4505050505050565b6001600160a01b03841661206d5760405162461bcd60e51b8152600401610722906148d3565b815183511461208e5760405162461bcd60e51b81526004016107229061488b565b3361209e81600087878787612504565b60005b8451811015612156578381815181106120ca57634e487b7160e01b600052603260045260246000fd5b6020026020010151606560008784815181106120f657634e487b7160e01b600052603260045260246000fd5b602002602001015181526020019081526020016000206000886001600160a01b03166001600160a01b03168152602001908152602001600020600082825461213e91906149bd565b9091555081905061214e81614b08565b9150506120a1565b50846001600160a01b031660006001600160a01b0316826001600160a01b03167f4a39dc06d4c0dbc64b70af90fd698a233a518aa5d07e595d983b8c0526c8f7fb87876040516121a7929190614570565b60405180910390a4610ad581600087878787612696565b600054610100900460ff16806121d7575060005460ff16155b6121f35760405162461bcd60e51b81526004016107229061475f565b600054610100900460ff16158015612215576000805461ffff19166101011790555b6122558a8a8a8080601f016020809104026020016040519081016040528093929190818152602001838380828437600092019190915250612b9592505050565b61225e87612c14565b61226b8686868686612d67565b6122748a612e39565b8015612286576000805461ff00191690555b50505050505050505050565b6000600160ff1b82106122f85760405162461bcd60e51b815260206004820152602860248201527f53616665436173743a2076616c756520646f65736e27742066697420696e2061604482015267371034b73a191a9b60c11b6064820152608401610722565b5090565b6000808212156122f85760405162461bcd60e51b815260206004820181905260248201527f53616665436173743a2076616c7565206d75737420626520706f7369746976656044820152606401610722565b6001600160a01b0383166123745760405162461bcd60e51b8152600401610722906147ad565b336123a381856000612385876124ab565b61238e876124ab565b60405180602001604052806000815250612504565b60008381526065602090815260408083206001600160a01b0388168452909152902054828110156123e65760405162461bcd60e51b81526004016107229061463b565b6123f08382614a47565b60008581526065602090815260408083206001600160a01b038a811680865291845282852095909555815189815292830188905292938616917fc3d58168c5ae7397731d063d5bbf3d657854427343f4c083240f7aacaa2d0f62910160405180910390a45050505050565b60006001600160e01b03198216636cdb3d1360e11b148061248c57506001600160e01b031982166303a24d0760e21b145b8061075e57506301ffc9a760e01b6001600160e01b031983161461075e565b604080516001808252818301909252606091600091906020808301908036833701905050905082816000815181106124f357634e487b7160e01b600052603260045260246000fd5b602090810291909101015292915050565b6117f9868686868686612ed5565b6001600160a01b0384163b151580156125365750612534868686868686613071565b155b156117f95760405163f23a6e6160e01b81526001600160a01b0385169063f23a6e619061256f90899089908890889088906004016144d4565b602060405180830381600087803b15801561258957600080fd5b505af19250505080156125b9575060408051601f3d908101601f191682019092526125b6918101906141ff565b60015b612666576125c5614b79565b806308c379a014156125ff57506125da614b91565b806125e55750612601565b8060405162461bcd60e51b81526004016107229190614595565b505b60405162461bcd60e51b815260206004820152603460248201527f455243313135353a207472616e7366657220746f206e6f6e20455243313135356044820152732932b1b2b4bb32b91034b6b83632b6b2b73a32b960611b6064820152608401610722565b6001600160e01b0319811663f23a6e6160e01b14611e5b5760405162461bcd60e51b8152600401610722906145a8565b6001600160a01b0384163b156117f95760405163bc197c8160e01b81526001600160a01b0385169063bc197c81906126da9089908990889088908890600401614476565b602060405180830381600087803b1580156126f457600080fd5b505af1925050508015612724575060408051601f3d908101601f19168201909252612721918101906141ff565b60015b612730576125c5614b79565b6001600160e01b0319811663bc197c8160e01b14611e5b5760405162461bcd60e51b8152600401610722906145a8565b6060600061276f8360026149e9565b61277a9060026149bd565b6001600160401b0381111561279f57634e487b7160e01b600052604160045260246000fd5b6040519080825280601f01601f1916602001820160405280156127c9576020820181803683370190505b509050600360fc1b816000815181106127f257634e487b7160e01b600052603260045260246000fd5b60200101906001600160f81b031916908160001a905350600f60fb1b8160018151811061282f57634e487b7160e01b600052603260045260246000fd5b60200101906001600160f81b031916908160001a90535060006128538460026149e9565b61285e9060016149bd565b90505b60018111156128f2576f181899199a1a9b1b9c1cb0b131b232b360811b85600f16601081106128a057634e487b7160e01b600052603260045260246000fd5b1a60f81b8282815181106128c457634e487b7160e01b600052603260045260246000fd5b60200101906001600160f81b031916908160001a90535060049490941c936128eb81614a8a565b9050612861565b5083156107745760405162461bcd60e51b815260206004820181905260248201527f537472696e67733a20686578206c656e67746820696e73756666696369656e746044820152606401610722565b6040516001600160a01b0383166024820152604481018290526109ac90849063a9059cbb60e01b906064015b60408051601f198184030181529190526020810180516001600160e01b03166001600160e01b03199093169290921790915261308c565b6000604051733d602d80600a3d3981f3363d3d373d3d3d363d7360601b81528260601b60148201526e5af43d82803e903d91602b57fd5bf360881b60288201526037816000f09150506001600160a01b038116611b7b5760405162461bcd60e51b8152602060048201526016602482015275115490cc4c4d8dce8818dc99585d194819985a5b195960521b6044820152606401610722565b606081612a605750506040805180820190915260018152600360fc1b602082015290565b8160005b8115612a8a5780612a7481614b08565b9150612a839050600a836149d5565b9150612a64565b6000816001600160401b03811115612ab257634e487b7160e01b600052604160045260246000fd5b6040519080825280601f01601f191660200182016040528015612adc576020820181803683370190505b5090505b8415612b5557612af1600183614a47565b9150612afe600a86614b23565b612b099060306149bd565b60f81b818381518110612b2c57634e487b7160e01b600052603260045260246000fd5b60200101906001600160f81b031916908160001a905350612b4e600a866149d5565b9450612ae0565b949350505050565b6040516001600160a01b0380851660248301528316604482015260648101829052610fcc9085906323b872dd60e01b9060840161296d565b600054610100900460ff1680612bae575060005460ff16155b612bca5760405162461bcd60e51b81526004016107229061475f565b600054610100900460ff16158015612bec576000805461ffff19166101011790555b612bf58261315e565b612bfe836131ce565b80156109ac576000805461ff0019169055505050565b600054610100900460ff1680612c2d575060005460ff16155b612c495760405162461bcd60e51b81526004016107229061475f565b600054610100900460ff16158015612c6b576000805461ffff19166101011790555b815160fc5560005b8251811015612d5157828181518110612c9c57634e487b7160e01b600052603260045260246000fd5b602002602001015160fb6000836001612cb591906149bd565b8152602081019190915260400160002080546001600160a01b0319166001600160a01b0392909216919091179055612cee8160016149bd565b60fd6000858481518110612d1257634e487b7160e01b600052603260045260246000fd5b60200260200101516001600160a01b03166001600160a01b03168152602001908152602001600020819055508080612d4990614b08565b915050612c73565b508015610836576000805461ff00191690555050565b600054610100900460ff1680612d80575060005460ff16155b612d9c5760405162461bcd60e51b81526004016107229061475f565b600054610100900460ff16158015612dbe576000805461ffff19166101011790555b61012e8054861515600160a01b026001600160a81b03199091166001600160a01b038916171790558351612dfa9061012f906020870190613aa8565b508251612e0f90610130906020860190613aa8565b50610131805460ff191660ff841617905580156117f9576000805461ff0019169055505050505050565b600054610100900460ff1680612e52575060005460ff16155b612e6e5760405162461bcd60e51b81526004016107229061475f565b600054610100900460ff16158015612e90576000805461ffff19166101011790555b612ea8600080516020614c3f83398151915283613285565b612ec0600080516020614c3f8339815191528061328f565b8015610836576000805461ff00191690555050565b612ee38686868686866132e3565b6001600160a01b038516612f555761012e54600160a01b900460ff1615612f555760005b8351811015612f5357612f40848281518110612f3357634e487b7160e01b600052603260045260246000fd5b6020026020010151611a45565b5080612f4b81614b08565b915050612f07565b505b60005b8351811015611e5b57600061012d6000868481518110612f8857634e487b7160e01b600052603260045260246000fd5b6020908102919091018101518252810191909152604001600020546001600160a01b03169050801561305e576000819050806001600160a01b031663a6d49dca8989888781518110612fea57634e487b7160e01b600052603260045260246000fd5b60209081029190910101516040516001600160e01b031960e086901b1681526001600160a01b0393841660048201529290911660248301526044820152606401600060405180830381600087803b15801561304457600080fd5b505af1158015613058573d6000803e3d6000fd5b50505050505b508061306981614b08565b915050612f58565b6000613081878787878787613678565b979650505050505050565b60006130e1826040518060400160405280602081526020017f5361666545524332303a206c6f772d6c6576656c2063616c6c206661696c6564815250856001600160a01b03166136b69092919063ffffffff16565b8051909150156109ac57808060200190518101906130ff919061418d565b6109ac5760405162461bcd60e51b815260206004820152602a60248201527f5361666545524332303a204552433230206f7065726174696f6e20646964206e6044820152691bdd081cdd58d8d9595960b21b6064820152608401610722565b600054610100900460ff1680613177575060005460ff16155b6131935760405162461bcd60e51b81526004016107229061475f565b600054610100900460ff161580156131b5576000805461ffff19166101011790555b6131bd6136c5565b6131c56136c5565b612ec082613731565b600054610100900460ff16806131e7575060005460ff16155b6132035760405162461bcd60e51b81526004016107229061475f565b600054610100900460ff16158015613225576000805461ffff19166101011790555b61323d600080516020614c5f83398151915283613285565b613255600080516020614c7f83398151915283613285565b61326d600080516020614c5f8339815191528061328f565b612ec0600080516020614c7f8339815191528061328f565b6108368282611865565b600082815260976020526040902060010154819060405184907fbd79b86ffe0ab8e8776151514217cd7cacd52c909f66475c3af44e129f0b00ff90600090a460009182526097602052604090912060010155565b6132f1868686868686613791565b6001600160a01b03851661340b5760005b835181101561340557600084828151811061332d57634e487b7160e01b600052603260045260246000fd5b60200260200101519050600084838151811061335957634e487b7160e01b600052603260045260246000fd5b602002602001015190506000600190505b60fc5481116133ef57600081815260fb6020908152604080832086845260018101909252909120546133a1906114099085906149e9565b600085815260028301602090815260408083206001600160a01b038e168452909152812080549091906133d5908490614a08565b909155508291506133e7905081614b08565b91505061336a565b50505080806133fd90614b08565b915050613302565b506117f9565b6001600160a01b03841661351f5760005b835181101561340557600084828151811061344757634e487b7160e01b600052603260045260246000fd5b60200260200101519050600084838151811061347357634e487b7160e01b600052603260045260246000fd5b602002602001015190506000600190505b60fc54811161350957600081815260fb6020908152604080832086845260018101909252909120546134bb906114099085906149e9565b600085815260028301602090815260408083206001600160a01b038f168452909152812080549091906134ef90849061497c565b90915550829150613501905081614b08565b915050613484565b505050808061351790614b08565b91505061341c565b60005b8351811015611e5b57600084828151811061354d57634e487b7160e01b600052603260045260246000fd5b60200260200101519050600084838151811061357957634e487b7160e01b600052603260045260246000fd5b602002602001015190506000600190505b60fc54811161366257600081815260fb60209081526040808320868452600181019092528220549091906135c3906114099086906149e9565b90508082600201600087815260200190815260200160002060008d6001600160a01b03166001600160a01b03168152602001908152602001600020600082825461360d919061497c565b9091555050600085815260028301602090815260408083206001600160a01b038e16845290915281208054839290613646908490614a08565b925050819055505050808061365a90614b08565b91505061358a565b505050808061367090614b08565b915050613522565b600083815261012d60205260408120546001600160a01b031680156136ac576001600160a01b038881169116149050611427565b6000915050611427565b606061077184846000856138d7565b600054610100900460ff16806136de575060005460ff16155b6136fa5760405162461bcd60e51b81526004016107229061475f565b600054610100900460ff1615801561371c576000805461ffff19166101011790555b801561372e576000805461ff00191690555b50565b600054610100900460ff168061374a575060005460ff16155b6137665760405162461bcd60e51b81526004016107229061475f565b600054610100900460ff16158015613788576000805461ffff19166101011790555b612ec082611502565b6001600160a01b0385166138345760005b8351811015613405578281815181106137cb57634e487b7160e01b600052603260045260246000fd5b602002602001015160c960008684815181106137f757634e487b7160e01b600052603260045260246000fd5b60200260200101518152602001908152602001600020600082825461381c91906149bd565b9091555081905061382c81614b08565b9150506137a2565b6001600160a01b0384166117f95760005b8351811015611e5b5782818151811061386e57634e487b7160e01b600052603260045260246000fd5b602002602001015160c9600086848151811061389a57634e487b7160e01b600052603260045260246000fd5b6020026020010151815260200190815260200160002060008282546138bf9190614a47565b909155508190506138cf81614b08565b915050613845565b6060824710156139385760405162461bcd60e51b815260206004820152602660248201527f416464726573733a20696e73756666696369656e742062616c616e636520666f6044820152651c8818d85b1b60d21b6064820152608401610722565b843b6139865760405162461bcd60e51b815260206004820152601d60248201527f416464726573733a2063616c6c20746f206e6f6e2d636f6e74726163740000006044820152606401610722565b600080866001600160a01b031685876040516139a2919061433f565b60006040518083038185875af1925050503d80600081146139df576040519150601f19603f3d011682016040523d82523d6000602084013e6139e4565b606091505b5091509150613081828286606083156139fe575081610774565b825115613a0e5782518084602001fd5b8160405162461bcd60e51b81526004016107229190614595565b828054613a3490614aa1565b90600052602060002090601f016020900481019282613a565760008555613a9c565b82601f10613a6f5782800160ff19823516178555613a9c565b82800160010185558215613a9c579182015b82811115613a9c578235825591602001919060010190613a81565b506122f8929150613b1c565b828054613ab490614aa1565b90600052602060002090601f016020900481019282613ad65760008555613a9c565b82601f10613aef57805160ff1916838001178555613a9c565b82800160010185558215613a9c579182015b82811115613a9c578251825591602001919060010190613b01565b5b808211156122f85760008155600101613b1d565b80356001600160a01b0381168114611b7b57600080fd5b60008083601f840112613b59578182fd5b5081356001600160401b03811115613b6f578182fd5b6020830191508360208260051b8501011115613b8a57600080fd5b9250929050565b600082601f830112613ba1578081fd5b81356020613bae82614959565b604051613bbb8282614adc565b8381528281019150858301600585901b87018401881015613bda578586fd5b855b85811015613bf857813584529284019290840190600101613bdc565b5090979650505050505050565b8035611b7b81614c1a565b600082601f830112613c20578081fd5b81356001600160401b03811115613c3957613c39614b63565b604051613c50601f8301601f191660200182614adc565b818152846020838601011115613c64578283fd5b816020850160208301379081016020019190915292915050565b60008083601f840112613c8f578182fd5b5081356001600160401b03811115613ca5578182fd5b602083019150836020828501011115613b8a57600080fd5b803560ff81168114611b7b57600080fd5b600060208284031215613cdf578081fd5b61077482613b31565b60008060408385031215613cfa578081fd5b613d0383613b31565b9150613d1160208401613b31565b90509250929050565b600080600080600060a08688031215613d31578081fd5b613d3a86613b31565b9450613d4860208701613b31565b935060408601356001600160401b0380821115613d63578283fd5b613d6f89838a01613b91565b94506060880135915080821115613d84578283fd5b613d9089838a01613b91565b93506080880135915080821115613da5578283fd5b50613db288828901613c10565b9150509295509295909350565b60008060008060808587031215613dd4578384fd5b613ddd85613b31565b9350613deb60208601613b31565b93969395505050506040820135916060013590565b600080600080600060a08688031215613e17578081fd5b613e2086613b31565b9450613e2e60208701613b31565b9350604086013592506060860135915060808601356001600160401b03811115613e56578182fd5b613db288828901613c10565b600080600080600060608688031215613e79578283fd5b613e8286613b31565b945060208601356001600160401b0380821115613e9d578485fd5b613ea989838a01613b48565b90965094506040880135915080821115613ec1578283fd5b50613ece88828901613b48565b969995985093965092949392505050565b60008060408385031215613ef1578182fd5b613efa83613b31565b91506020830135613f0a81614c1a565b809150509250929050565b6000806000806000806000806000806101008b8d031215613f34578788fd5b613f3d8b613b31565b995060208b01356001600160401b0380821115613f5857898afd5b613f648e838f01613c7e565b909b50995060408d0135915080821115613f7c578687fd5b613f888e838f01613b48565b9099509750879150613f9c60608e01613b31565b9650613faa60808e01613c05565b955060a08d0135915080821115613fbf578485fd5b613fcb8e838f01613c10565b945060c08d0135915080821115613fe0578384fd5b50613fed8d828e01613c10565b925050613ffc60e08c01613cbd565b90509295989b9194979a5092959850565b6000806040838503121561401f578182fd5b61402883613b31565b946020939093013593505050565b60008060006060848603121561404a578081fd5b61405384613b31565b95602085013595506040909401359392505050565b6000806040838503121561407a578182fd5b82356001600160401b0380821115614090578384fd5b818501915085601f8301126140a3578384fd5b813560206140b082614959565b6040516140bd8282614adc565b8381528281019150858301600585901b870184018b10156140dc578889fd5b8896505b84871015614105576140f181613b31565b8352600196909601959183019183016140e0565b509650508601359250508082111561411b578283fd5b5061412885828601613b91565b9150509250929050565b60008060208385031215614144578182fd5b82356001600160401b03811115614159578283fd5b61416585828601613b48565b90969095509350505050565b600060208284031215614182578081fd5b813561077481614c1a565b60006020828403121561419e578081fd5b815161077481614c1a565b6000602082840312156141ba578081fd5b5035919050565b600080604083850312156141d3578182fd5b82359150613d1160208401613b31565b6000602082840312156141f4578081fd5b813561077481614c28565b600060208284031215614210578081fd5b815161077481614c28565b6000806020838503121561422d578182fd5b82356001600160401b03811115614242578283fd5b61416585828601613c7e565b600080600060608486031215614262578081fd5b8335925061427260208501613b31565b915061428060408501613b31565b90509250925092565b60008060006060848603121561429d578081fd5b833592506142ad60208501613b31565b9150604084013590509250925092565b6000815180845260208085019450808401835b838110156142ec578151875295820195908201906001016142d0565b509495945050505050565b6000815180845261430f816020860160208601614a5e565b601f01601f19169290920160200192915050565b60008151614335818560208601614a5e565b9290920192915050565b60008251614351818460208701614a5e565b9190910192915050565b600080845482600182811c91508083168061437757607f831692505b602080841082141561439757634e487b7160e01b87526022600452602487fd5b8180156143ab57600181146143bc576143e8565b60ff198616895284890196506143e8565b60008b815260209020885b868110156143e05781548b8201529085019083016143c7565b505084890196505b5050505050506143f88185614323565b95945050505050565b7f416363657373436f6e74726f6c3a206163636f756e7420000000000000000000815260008351614439816017850160208801614a5e565b7001034b99036b4b9b9b4b733903937b6329607d1b601791840191820152835161446a816028840160208801614a5e565b01602801949350505050565b6001600160a01b0386811682528516602082015260a0604082018190526000906144a2908301866142bd565b82810360608401526144b481866142bd565b905082810360808401526144c881856142f7565b98975050505050505050565b6001600160a01b03868116825285166020820152604081018490526060810183905260a060808201819052600090613081908301846142f7565b60018060a01b038616815284602082015260a06040820152600061453560a08301866142f7565b828103606084015261454781866142f7565b91505060ff831660808301529695505050505050565b60208152600061077460208301846142bd565b60408152600061458360408301856142bd565b82810360208401526143f881856142bd565b60208152600061077460208301846142f7565b60208082526028908201527f455243313135353a204552433131353552656365697665722072656a656374656040820152676420746f6b656e7360c01b606082015260800190565b6020808252602b908201527f455243313135354469766964656e64546f6b656e3a20696e76616c696420646960408201526a3b34b232b7322a37b5b2b760a91b606082015260800190565b60208082526024908201527f455243313135353a206275726e20616d6f756e7420657863656564732062616c604082015263616e636560e01b606082015260800190565b6020808252602a908201527f46756e64696e674d756c7469746f6b656e3a206d7573742068617665206469766040820152696964656e6420726f6c6560b01b606082015260800190565b60208082526031908201527f45524331313535426173653a206d7573742068617665206d696e7465722d62756040820152701c9b995c881c9bdb19481d1bc81b5a5b9d607a1b606082015260800190565b60208082526025908201527f455243313135353a207472616e7366657220746f20746865207a65726f206164604082015264647265737360d81b606082015260800190565b6020808252602e908201527f496e697469616c697a61626c653a20636f6e747261637420697320616c72656160408201526d191e481a5b9a5d1a585b1a5e995960921b606082015260800190565b60208082526023908201527f455243313135353a206275726e2066726f6d20746865207a65726f206164647260408201526265737360e81b606082015260800190565b6020808252602a908201527f455243313135353a20696e73756666696369656e742062616c616e636520666f60408201526939103a3930b739b332b960b11b606082015260800190565b60208082526031908201527f45524331313535426173653a206d7573742068617665206d696e7465722d6275604082015270393732b9103937b632903a3790313ab93760791b606082015260800190565b60208082526028908201527f455243313135353a2069647320616e6420616d6f756e7473206c656e677468206040820152670dad2e6dac2e8c6d60c31b606082015260800190565b60208082526021908201527f455243313135353a206d696e7420746f20746865207a65726f206164647265736040820152607360f81b606082015260800190565b60208082526025908201527f5772617070656445524331313535546f6b656e3a206e6f206d6574616461746160408201526420726f6c6560d81b606082015260800190565b60006001600160401b0382111561497257614972614b63565b5060051b60200190565b600080821280156001600160ff1b038490038513161561499e5761499e614b37565b600160ff1b83900384128116156149b7576149b7614b37565b50500190565b600082198211156149d0576149d0614b37565b500190565b6000826149e4576149e4614b4d565b500490565b6000816000190483118215151615614a0357614a03614b37565b500290565b60008083128015600160ff1b850184121615614a2657614a26614b37565b6001600160ff1b0384018313811615614a4157614a41614b37565b50500390565b600082821015614a5957614a59614b37565b500390565b60005b83811015614a79578181015183820152602001614a61565b83811115610fcc5750506000910152565b600081614a9957614a99614b37565b506000190190565b600181811c90821680614ab557607f821691505b60208210811415614ad657634e487b7160e01b600052602260045260246000fd5b50919050565b601f8201601f191681016001600160401b0381118282101715614b0157614b01614b63565b6040525050565b6000600019821415614b1c57614b1c614b37565b5060010190565b600082614b3257614b32614b4d565b500690565b634e487b7160e01b600052601160045260246000fd5b634e487b7160e01b600052601260045260246000fd5b634e487b7160e01b600052604160045260246000fd5b600060033d1115614b8e57600481823e5160e01c5b90565b600060443d1015614b9f5790565b6040516003193d81016004833e81513d6001600160401b038160248401118184111715614bce57505050505090565b8285019150815181811115614be65750505050505090565b843d8701016020828501011115614c005750505050505090565b614c0f60208286010187614adc565b509095945050505050565b801515811461372e57600080fd5b6001600160e01b03198116811461372e57600080fdfe1306abaae01ce00b9f91c50a35fbeecbc60f12b86cc685e2cf1f6baae86d17936bd6b5318a46e5fff572d5e4258a20774aab40cc35ac7680654b9081fcc82f80cfd53186d792f1ec9d0679afc2dc3ffc86fc31fe1e0f342b838eb6c3eade62b3a26469706673582212202e0758cdeb56051d6657b42154998344cc2b3e8b162b553b04dbb38ed4a6d26464736f6c63430008040033",
  "devdoc": {
    "kind": "dev",
    "methods": {
      "accumulativeDividendOf(uint256,address,address)": {
        "details": "accumulativeDividendOf(_owner) = _withdrawableDividendOf(_owner) + withdrawnDividendOf(_owner) = (magnifiedDividendPerShare * balanceOf(_owner) + magnifiedDividendCorrections[_owner]) / magnitude",
        "params": {
          "_owner": "The address of a token holder.",
          "dividendToken": "The token the dividend is in",
          "tokenID": "The token's ID."
        },
        "returns": {
          "_0": "The amount of dividend in wei that `_owner` has earned in total."
        }
      },
      "balanceOf(address,uint256)": {
        "details": "See {IERC1155-balanceOf}. Requirements: - `account` cannot be the zero address."
      },
      "balanceOfBatch(address[],uint256[])": {
        "details": "See {IERC1155-balanceOfBatch}. Requirements: - `accounts` and `ids` must have the same length."
      },
      "deployWrapper(uint256)": {
        "details": "If a wrapper already exists for this tokenID, does nothing and returns the address of the existing wrapper.",
        "params": {
          "tokenID": "The ID of the token to wrap"
        },
        "returns": {
          "wrapperAddress": "The address of the wrapper"
        }
      },
      "dividendOf(uint256,address,address)": {
        "params": {
          "_owner": "The address of a token holder.",
          "dividendToken": "The token the dividend is in",
          "tokenID": "The token's ID."
        },
        "returns": {
          "_0": "The amount of dividend in wei that `_owner` can withdraw."
        }
      },
      "getRoleAdmin(bytes32)": {
        "details": "Returns the admin role that controls `role`. See {grantRole} and {revokeRole}. To change a role's admin, use {_setRoleAdmin}."
      },
      "grantRole(bytes32,address)": {
        "details": "Grants `role` to `account`. If `account` had not been already granted `role`, emits a {RoleGranted} event. Requirements: - the caller must have ``role``'s admin role."
      },
      "hasRole(bytes32,address)": {
        "details": "Returns `true` if `account` has been granted `role`."
      },
      "isApprovedForAll(address,address)": {
        "details": "See {IERC1155-isApprovedForAll}."
      },
      "renounceRole(bytes32,address)": {
        "details": "Revokes `role` from the calling account. Roles are often managed via {grantRole} and {revokeRole}: this function's purpose is to provide a mechanism for accounts to lose their privileges if they are compromised (such as when a trusted device is misplaced). If the calling account had been granted `role`, emits a {RoleRevoked} event. Requirements: - the caller must be `account`."
      },
      "revokeRole(bytes32,address)": {
        "details": "Revokes `role` from `account`. If `account` had been granted `role`, emits a {RoleRevoked} event. Requirements: - the caller must have ``role``'s admin role."
      },
      "safeBatchTransferFrom(address,address,uint256[],uint256[],bytes)": {
        "details": "See {IERC1155-safeBatchTransferFrom}."
      },
      "safeTransferFrom(address,address,uint256,uint256,bytes)": {
        "details": "See {IERC1155-safeTransferFrom}."
      },
      "setApprovalForAll(address,bool)": {
        "details": "See {IERC1155-setApprovalForAll}."
      },
      "uri(uint256)": {
        "details": "See {IERC1155MetadataURI-uri}. This implementation returns the same URI for *all* token types. It relies on the token type ID substitution mechanism https://eips.ethereum.org/EIPS/eip-1155#metadata[defined in the EIP]. Clients calling this function must replace the `\\{id\\}` substring with the actual token type ID."
      },
      "withdrawnDividendOf(uint256,address,address)": {
        "params": {
          "_owner": "The address of a token holder.",
          "dividendToken": "The token the dividend is in",
          "tokenID": "The token's ID."
        },
        "returns": {
          "_0": "The amount of dividend in wei that `_owner` has withdrawn."
        }
      },
      "wrapperTransfer(address,address,uint256,uint256)": {
        "details": "Only callable by a wrapper deployed by this contract.",
        "params": {
          "amount": "The amount to transfer",
          "from": "Source of transfer",
          "to": "Target of transfer",
          "tokenID": "The ERC-1155 token ID of the wrapper"
        }
      }
    },
    "version": 1
  },
  "userdoc": {
    "kind": "user",
    "methods": {
      "accumulativeDividendOf(uint256,address,address)": {
        "notice": "View the amount of dividend in wei that an address has earned in total."
      },
      "deployWrapper(uint256)": {
        "notice": "Deploys an ERC20Wrapper contract for the ERC-1155 tokens with ID `tokenID`."
      },
      "dividendOf(uint256,address,address)": {
        "notice": "View the amount of dividend in wei that an address can withdraw."
      },
      "dividendTokenDataList(uint256)": {
        "notice": "The list of tokens that can be distributed to token holders as dividend. 1-indexed."
      },
      "dividendTokenToDataID(address)": {
        "notice": "The dividend token address to its key in {dividendTokenDataList}"
      },
      "setDeployWrapperOnMint(bool)": {
        "notice": "Param setters (need metadata role)"
      },
      "withdrawnDividendOf(uint256,address,address)": {
        "notice": "View the amount of dividend in wei that an address has withdrawn."
      },
      "wrapperTransfer(address,address,uint256,uint256)": {
        "notice": "Called by an ERC20Wrapper contract to handle a transfer call."
      }
    },
    "version": 1
  },
  "storageLayout": {
    "storage": [
      {
        "astId": 612,
        "contract": "contracts/tokens/FundingMultitoken.sol:FundingMultitoken",
        "label": "_initialized",
        "offset": 0,
        "slot": "0",
        "type": "t_bool"
      },
      {
        "astId": 615,
        "contract": "contracts/tokens/FundingMultitoken.sol:FundingMultitoken",
        "label": "_initializing",
        "offset": 1,
        "slot": "0",
        "type": "t_bool"
      },
      {
        "astId": 3064,
        "contract": "contracts/tokens/FundingMultitoken.sol:FundingMultitoken",
        "label": "__gap",
        "offset": 0,
        "slot": "1",
        "type": "t_array(t_uint256)50_storage"
      },
      {
        "astId": 3453,
        "contract": "contracts/tokens/FundingMultitoken.sol:FundingMultitoken",
        "label": "__gap",
        "offset": 0,
        "slot": "51",
        "type": "t_array(t_uint256)50_storage"
      },
      {
        "astId": 12866,
        "contract": "contracts/tokens/FundingMultitoken.sol:FundingMultitoken",
        "label": "_balances",
        "offset": 0,
        "slot": "101",
        "type": "t_mapping(t_uint256,t_mapping(t_address,t_uint256))"
      },
      {
        "astId": 12872,
        "contract": "contracts/tokens/FundingMultitoken.sol:FundingMultitoken",
        "label": "_operatorApprovals",
        "offset": 0,
        "slot": "102",
        "type": "t_mapping(t_address,t_mapping(t_address,t_bool))"
      },
      {
        "astId": 12874,
        "contract": "contracts/tokens/FundingMultitoken.sol:FundingMultitoken",
        "label": "_uri",
        "offset": 0,
        "slot": "103",
        "type": "t_string_storage"
      },
      {
        "astId": 13975,
        "contract": "contracts/tokens/FundingMultitoken.sol:FundingMultitoken",
        "label": "__gap",
        "offset": 0,
        "slot": "104",
        "type": "t_array(t_uint256)47_storage"
      },
      {
        "astId": 86,
        "contract": "contracts/tokens/FundingMultitoken.sol:FundingMultitoken",
        "label": "_roles",
        "offset": 0,
        "slot": "151",
        "type": "t_mapping(t_bytes32,t_struct(RoleData)81_storage)"
      },
      {
        "astId": 394,
        "contract": "contracts/tokens/FundingMultitoken.sol:FundingMultitoken",
        "label": "__gap",
        "offset": 0,
        "slot": "152",
        "type": "t_array(t_uint256)49_storage"
      },
      {
        "astId": 11733,
        "contract": "contracts/tokens/FundingMultitoken.sol:FundingMultitoken",
        "label": "_totalSupply",
        "offset": 0,
        "slot": "201",
        "type": "t_mapping(t_uint256,t_uint256)"
      },
      {
        "astId": 12071,
        "contract": "contracts/tokens/FundingMultitoken.sol:FundingMultitoken",
        "label": "__gap",
        "offset": 0,
        "slot": "202",
        "type": "t_array(t_uint256)49_storage"
      },
      {
        "astId": 12125,
        "contract": "contracts/tokens/FundingMultitoken.sol:FundingMultitoken",
        "label": "dividendTokenDataList",
        "offset": 0,
        "slot": "251",
        "type": "t_mapping(t_uint256,t_struct(DividendTokenData)12114_storage)"
      },
      {
        "astId": 12127,
        "contract": "contracts/tokens/FundingMultitoken.sol:FundingMultitoken",
        "label": "dividendTokenDataListLength",
        "offset": 0,
        "slot": "252",
        "type": "t_uint256"
      },
      {
        "astId": 12132,
        "contract": "contracts/tokens/FundingMultitoken.sol:FundingMultitoken",
        "label": "dividendTokenToDataID",
        "offset": 0,
        "slot": "253",
        "type": "t_mapping(t_address,t_uint256)"
      },
      {
        "astId": 12828,
        "contract": "contracts/tokens/FundingMultitoken.sol:FundingMultitoken",
        "label": "__gap",
        "offset": 0,
        "slot": "254",
        "type": "t_array(t_uint256)47_storage"
      },
      {
        "astId": 15241,
        "contract": "contracts/tokens/FundingMultitoken.sol:FundingMultitoken",
        "label": "tokenIDToWrapper",
        "offset": 0,
        "slot": "301",
        "type": "t_mapping(t_uint256,t_address)"
      },
      {
        "astId": 15243,
        "contract": "contracts/tokens/FundingMultitoken.sol:FundingMultitoken",
        "label": "wrapperTemplate",
        "offset": 0,
        "slot": "302",
        "type": "t_address"
      },
      {
        "astId": 15245,
        "contract": "contracts/tokens/FundingMultitoken.sol:FundingMultitoken",
        "label": "deployWrapperOnMint",
        "offset": 20,
        "slot": "302",
        "type": "t_bool"
      },
      {
        "astId": 15247,
        "contract": "contracts/tokens/FundingMultitoken.sol:FundingMultitoken",
        "label": "baseName",
        "offset": 0,
        "slot": "303",
        "type": "t_string_storage"
      },
      {
        "astId": 15249,
        "contract": "contracts/tokens/FundingMultitoken.sol:FundingMultitoken",
        "label": "baseSymbol",
        "offset": 0,
        "slot": "304",
        "type": "t_string_storage"
      },
      {
        "astId": 15251,
        "contract": "contracts/tokens/FundingMultitoken.sol:FundingMultitoken",
        "label": "decimals",
        "offset": 0,
        "slot": "305",
        "type": "t_uint8"
      },
      {
        "astId": 15659,
        "contract": "contracts/tokens/FundingMultitoken.sol:FundingMultitoken",
        "label": "__gap",
        "offset": 0,
        "slot": "306",
        "type": "t_array(t_uint256)44_storage"
      },
      {
        "astId": 25260,
        "contract": "contracts/tokens/FundingMultitoken.sol:FundingMultitoken",
        "label": "__gap",
        "offset": 0,
        "slot": "350",
        "type": "t_array(t_uint256)50_storage"
      }
    ],
    "types": {
      "t_address": {
        "encoding": "inplace",
        "label": "address",
        "numberOfBytes": "20"
      },
      "t_array(t_uint256)44_storage": {
        "base": "t_uint256",
        "encoding": "inplace",
        "label": "uint256[44]",
        "numberOfBytes": "1408"
      },
      "t_array(t_uint256)47_storage": {
        "base": "t_uint256",
        "encoding": "inplace",
        "label": "uint256[47]",
        "numberOfBytes": "1504"
      },
      "t_array(t_uint256)49_storage": {
        "base": "t_uint256",
        "encoding": "inplace",
        "label": "uint256[49]",
        "numberOfBytes": "1568"
      },
      "t_array(t_uint256)50_storage": {
        "base": "t_uint256",
        "encoding": "inplace",
        "label": "uint256[50]",
        "numberOfBytes": "1600"
      },
      "t_bool": {
        "encoding": "inplace",
        "label": "bool",
        "numberOfBytes": "1"
      },
      "t_bytes32": {
        "encoding": "inplace",
        "label": "bytes32",
        "numberOfBytes": "32"
      },
      "t_int256": {
        "encoding": "inplace",
        "label": "int256",
        "numberOfBytes": "32"
      },
      "t_mapping(t_address,t_bool)": {
        "encoding": "mapping",
        "key": "t_address",
        "label": "mapping(address => bool)",
        "numberOfBytes": "32",
        "value": "t_bool"
      },
      "t_mapping(t_address,t_int256)": {
        "encoding": "mapping",
        "key": "t_address",
        "label": "mapping(address => int256)",
        "numberOfBytes": "32",
        "value": "t_int256"
      },
      "t_mapping(t_address,t_mapping(t_address,t_bool))": {
        "encoding": "mapping",
        "key": "t_address",
        "label": "mapping(address => mapping(address => bool))",
        "numberOfBytes": "32",
        "value": "t_mapping(t_address,t_bool)"
      },
      "t_mapping(t_address,t_uint256)": {
        "encoding": "mapping",
        "key": "t_address",
        "label": "mapping(address => uint256)",
        "numberOfBytes": "32",
        "value": "t_uint256"
      },
      "t_mapping(t_bytes32,t_struct(RoleData)81_storage)": {
        "encoding": "mapping",
        "key": "t_bytes32",
        "label": "mapping(bytes32 => struct AccessControlUpgradeable.RoleData)",
        "numberOfBytes": "32",
        "value": "t_struct(RoleData)81_storage"
      },
      "t_mapping(t_uint256,t_address)": {
        "encoding": "mapping",
        "key": "t_uint256",
        "label": "mapping(uint256 => address)",
        "numberOfBytes": "32",
        "value": "t_address"
      },
      "t_mapping(t_uint256,t_mapping(t_address,t_int256))": {
        "encoding": "mapping",
        "key": "t_uint256",
        "label": "mapping(uint256 => mapping(address => int256))",
        "numberOfBytes": "32",
        "value": "t_mapping(t_address,t_int256)"
      },
      "t_mapping(t_uint256,t_mapping(t_address,t_uint256))": {
        "encoding": "mapping",
        "key": "t_uint256",
        "label": "mapping(uint256 => mapping(address => uint256))",
        "numberOfBytes": "32",
        "value": "t_mapping(t_address,t_uint256)"
      },
      "t_mapping(t_uint256,t_struct(DividendTokenData)12114_storage)": {
        "encoding": "mapping",
        "key": "t_uint256",
        "label": "mapping(uint256 => struct ERC1155DividendToken.DividendTokenData)",
        "numberOfBytes": "32",
        "value": "t_struct(DividendTokenData)12114_storage"
      },
      "t_mapping(t_uint256,t_uint256)": {
        "encoding": "mapping",
        "key": "t_uint256",
        "label": "mapping(uint256 => uint256)",
        "numberOfBytes": "32",
        "value": "t_uint256"
      },
      "t_string_storage": {
        "encoding": "bytes",
        "label": "string",
        "numberOfBytes": "32"
      },
      "t_struct(DividendTokenData)12114_storage": {
        "encoding": "inplace",
        "label": "struct ERC1155DividendToken.DividendTokenData",
        "members": [
          {
            "astId": 12097,
            "contract": "contracts/tokens/FundingMultitoken.sol:FundingMultitoken",
            "label": "dividendToken",
            "offset": 0,
            "slot": "0",
            "type": "t_address"
          },
          {
            "astId": 12101,
            "contract": "contracts/tokens/FundingMultitoken.sol:FundingMultitoken",
            "label": "magnifiedDividendPerShare",
            "offset": 0,
            "slot": "1",
            "type": "t_mapping(t_uint256,t_uint256)"
          },
          {
            "astId": 12107,
            "contract": "contracts/tokens/FundingMultitoken.sol:FundingMultitoken",
            "label": "magnifiedDividendCorrections",
            "offset": 0,
            "slot": "2",
            "type": "t_mapping(t_uint256,t_mapping(t_address,t_int256))"
          },
          {
            "astId": 12113,
            "contract": "contracts/tokens/FundingMultitoken.sol:FundingMultitoken",
            "label": "withdrawnDividends",
            "offset": 0,
            "slot": "3",
            "type": "t_mapping(t_uint256,t_mapping(t_address,t_uint256))"
          }
        ],
        "numberOfBytes": "128"
      },
      "t_struct(RoleData)81_storage": {
        "encoding": "inplace",
        "label": "struct AccessControlUpgradeable.RoleData",
        "members": [
          {
            "astId": 78,
            "contract": "contracts/tokens/FundingMultitoken.sol:FundingMultitoken",
            "label": "members",
            "offset": 0,
            "slot": "0",
            "type": "t_mapping(t_address,t_bool)"
          },
          {
            "astId": 80,
            "contract": "contracts/tokens/FundingMultitoken.sol:FundingMultitoken",
            "label": "adminRole",
            "offset": 0,
            "slot": "1",
            "type": "t_bytes32"
          }
        ],
        "numberOfBytes": "64"
      },
      "t_uint256": {
        "encoding": "inplace",
        "label": "uint256",
        "numberOfBytes": "32"
      },
      "t_uint8": {
        "encoding": "inplace",
        "label": "uint8",
        "numberOfBytes": "1"
      }
    }
  }
}