{
  "address": "0x7F4264Eb5A42E971199bb636334AF3cDB1fa172B",
  "abi": [
    {
      "inputs": [
        {
          "internalType": "uint256",
          "name": "x",
          "type": "uint256"
        }
      ],
      "name": "PRBMathUD60x18__Exp2InputTooBig",
      "type": "error"
    },
    {
      "inputs": [
        {
          "internalType": "uint256",
          "name": "prod1",
          "type": "uint256"
        }
      ],
      "name": "PRBMath__MulDivFixedPointOverflow",
      "type": "error"
    },
    {
      "inputs": [
        {
          "internalType": "uint256",
          "name": "prod1",
          "type": "uint256"
        },
        {
          "internalType": "uint256",
          "name": "denominator",
          "type": "uint256"
        }
      ],
      "name": "PRBMath__MulDivOverflow",
      "type": "error"
    },
    {
      "anonymous": false,
      "inputs": [
        {
          "indexed": true,
          "internalType": "address",
          "name": "sender",
          "type": "address"
        },
        {
          "indexed": true,
          "internalType": "uint256",
          "name": "depositID",
          "type": "uint256"
        },
        {
          "indexed": false,
          "internalType": "uint256",
          "name": "depositAmount",
          "type": "uint256"
        },
        {
          "indexed": false,
          "internalType": "uint256",
          "name": "interestAmount",
          "type": "uint256"
        },
        {
          "indexed": false,
          "internalType": "uint256",
          "name": "feeAmount",
          "type": "uint256"
        },
        {
          "indexed": false,
          "internalType": "uint64",
          "name": "maturationTimestamp",
          "type": "uint64"
        }
      ],
      "name": "EDeposit",
      "type": "event"
    },
    {
      "anonymous": false,
      "inputs": [
        {
          "indexed": true,
          "internalType": "address",
          "name": "sender",
          "type": "address"
        },
        {
          "indexed": true,
          "internalType": "uint64",
          "name": "fundingID",
          "type": "uint64"
        },
        {
          "indexed": false,
          "internalType": "uint256",
          "name": "fundAmount",
          "type": "uint256"
        },
        {
          "indexed": false,
          "internalType": "uint256",
          "name": "tokenAmount",
          "type": "uint256"
        }
      ],
      "name": "EFund",
      "type": "event"
    },
    {
      "anonymous": false,
      "inputs": [
        {
          "indexed": true,
          "internalType": "uint256",
          "name": "fundingID",
          "type": "uint256"
        },
        {
          "indexed": false,
          "internalType": "uint256",
          "name": "interestAmount",
          "type": "uint256"
        },
        {
          "indexed": false,
          "internalType": "uint256",
          "name": "refundAmount",
          "type": "uint256"
        }
      ],
      "name": "EPayFundingInterest",
      "type": "event"
    },
    {
      "anonymous": false,
      "inputs": [
        {
          "indexed": true,
          "internalType": "address",
          "name": "sender",
          "type": "address"
        },
        {
          "indexed": true,
          "internalType": "uint64",
          "name": "depositID",
          "type": "uint64"
        },
        {
          "indexed": true,
          "internalType": "uint64",
          "name": "newDepositID",
          "type": "uint64"
        }
      ],
      "name": "ERolloverDeposit",
      "type": "event"
    },
    {
      "anonymous": false,
      "inputs": [
        {
          "indexed": true,
          "internalType": "address",
          "name": "sender",
          "type": "address"
        },
        {
          "indexed": true,
          "internalType": "string",
          "name": "paramName",
          "type": "string"
        },
        {
          "indexed": false,
          "internalType": "address",
          "name": "newValue",
          "type": "address"
        }
      ],
      "name": "ESetParamAddress",
      "type": "event"
    },
    {
      "anonymous": false,
      "inputs": [
        {
          "indexed": true,
          "internalType": "address",
          "name": "sender",
          "type": "address"
        },
        {
          "indexed": true,
          "internalType": "string",
          "name": "paramName",
          "type": "string"
        },
        {
          "indexed": false,
          "internalType": "uint256",
          "name": "newValue",
          "type": "uint256"
        }
      ],
      "name": "ESetParamUint",
      "type": "event"
    },
    {
      "anonymous": false,
      "inputs": [
        {
          "indexed": true,
          "internalType": "address",
          "name": "sender",
          "type": "address"
        },
        {
          "indexed": true,
          "internalType": "uint64",
          "name": "depositID",
          "type": "uint64"
        },
        {
          "indexed": false,
          "internalType": "uint256",
          "name": "depositAmount",
          "type": "uint256"
        },
        {
          "indexed": false,
          "internalType": "uint256",
          "name": "interestAmount",
          "type": "uint256"
        },
        {
          "indexed": false,
          "internalType": "uint256",
          "name": "feeAmount",
          "type": "uint256"
        }
      ],
      "name": "ETopupDeposit",
      "type": "event"
    },
    {
      "anonymous": false,
      "inputs": [
        {
          "indexed": true,
          "internalType": "address",
          "name": "sender",
          "type": "address"
        },
        {
          "indexed": true,
          "internalType": "uint256",
          "name": "depositID",
          "type": "uint256"
        },
        {
          "indexed": true,
          "internalType": "bool",
          "name": "early",
          "type": "bool"
        },
        {
          "indexed": false,
          "internalType": "uint256",
          "name": "virtualTokenAmount",
          "type": "uint256"
        },
        {
          "indexed": false,
          "internalType": "uint256",
          "name": "feeAmount",
          "type": "uint256"
        }
      ],
      "name": "EWithdraw",
      "type": "event"
    },
    {
      "anonymous": false,
      "inputs": [
        {
          "indexed": true,
          "internalType": "address",
          "name": "previousOwner",
          "type": "address"
        },
        {
          "indexed": true,
          "internalType": "address",
          "name": "newOwner",
          "type": "address"
        }
      ],
      "name": "OwnershipTransferred",
      "type": "event"
    },
    {
      "inputs": [],
      "name": "GlobalDepositCap",
      "outputs": [
        {
          "internalType": "uint256",
          "name": "",
          "type": "uint256"
        }
      ],
      "stateMutability": "view",
      "type": "function"
    },
    {
      "inputs": [],
      "name": "MaxDepositPeriod",
      "outputs": [
        {
          "internalType": "uint64",
          "name": "",
          "type": "uint64"
        }
      ],
      "stateMutability": "view",
      "type": "function"
    },
    {
      "inputs": [],
      "name": "MinDepositAmount",
      "outputs": [
        {
          "internalType": "uint256",
          "name": "",
          "type": "uint256"
        }
      ],
      "stateMutability": "view",
      "type": "function"
    },
    {
      "inputs": [
        {
          "internalType": "uint256",
          "name": "depositAmount",
          "type": "uint256"
        },
        {
          "internalType": "uint256",
          "name": "depositPeriodInSeconds",
          "type": "uint256"
        }
      ],
      "name": "calculateInterestAmount",
      "outputs": [
        {
          "internalType": "uint256",
          "name": "interestAmount",
          "type": "uint256"
        }
      ],
      "stateMutability": "nonpayable",
      "type": "function"
    },
    {
      "inputs": [],
      "name": "claimOwnership",
      "outputs": [],
      "stateMutability": "nonpayable",
      "type": "function"
    },
    {
      "inputs": [
        {
          "internalType": "uint64",
          "name": "depositID",
          "type": "uint64"
        },
        {
          "internalType": "uint256",
          "name": "newFeeRate",
          "type": "uint256"
        }
      ],
      "name": "decreaseFeeForDeposit",
      "outputs": [],
      "stateMutability": "nonpayable",
      "type": "function"
    },
    {
      "inputs": [
        {
          "internalType": "uint256",
          "name": "depositAmount",
          "type": "uint256"
        },
        {
          "internalType": "uint64",
          "name": "maturationTimestamp",
          "type": "uint64"
        },
        {
          "internalType": "uint256",
          "name": "minimumInterestAmount",
          "type": "uint256"
        },
        {
          "internalType": "string",
          "name": "uri",
          "type": "string"
        }
      ],
      "name": "deposit",
      "outputs": [
        {
          "internalType": "uint64",
          "name": "depositID",
          "type": "uint64"
        },
        {
          "internalType": "uint256",
          "name": "interestAmount",
          "type": "uint256"
        }
      ],
      "stateMutability": "nonpayable",
      "type": "function"
    },
    {
      "inputs": [
        {
          "internalType": "uint256",
          "name": "depositAmount",
          "type": "uint256"
        },
        {
          "internalType": "uint64",
          "name": "maturationTimestamp",
          "type": "uint64"
        }
      ],
      "name": "deposit",
      "outputs": [
        {
          "internalType": "uint64",
          "name": "depositID",
          "type": "uint64"
        },
        {
          "internalType": "uint256",
          "name": "interestAmount",
          "type": "uint256"
        }
      ],
      "stateMutability": "nonpayable",
      "type": "function"
    },
    {
      "inputs": [],
      "name": "depositNFT",
      "outputs": [
        {
          "internalType": "contract NFT",
          "name": "",
          "type": "address"
        }
      ],
      "stateMutability": "view",
      "type": "function"
    },
    {
      "inputs": [],
      "name": "depositsLength",
      "outputs": [
        {
          "internalType": "uint256",
          "name": "",
          "type": "uint256"
        }
      ],
      "stateMutability": "view",
      "type": "function"
    },
    {
      "inputs": [],
      "name": "feeModel",
      "outputs": [
        {
          "internalType": "contract IFeeModel",
          "name": "",
          "type": "address"
        }
      ],
      "stateMutability": "view",
      "type": "function"
    },
    {
      "inputs": [
        {
          "internalType": "uint64",
          "name": "depositID",
          "type": "uint64"
        },
        {
          "internalType": "uint256",
          "name": "fundAmount",
          "type": "uint256"
        },
        {
          "internalType": "uint256",
          "name": "minPrincipalFunded",
          "type": "uint256"
        }
      ],
      "name": "fund",
      "outputs": [
        {
          "internalType": "uint64",
          "name": "fundingID",
          "type": "uint64"
        },
        {
          "internalType": "uint256",
          "name": "fundingMultitokensMinted",
          "type": "uint256"
        },
        {
          "internalType": "uint256",
          "name": "actualFundAmount",
          "type": "uint256"
        },
        {
          "internalType": "uint256",
          "name": "principalFunded",
          "type": "uint256"
        }
      ],
      "stateMutability": "nonpayable",
      "type": "function"
    },
    {
      "inputs": [
        {
          "internalType": "uint64",
          "name": "depositID",
          "type": "uint64"
        },
        {
          "internalType": "uint256",
          "name": "fundAmount",
          "type": "uint256"
        }
      ],
      "name": "fund",
      "outputs": [
        {
          "internalType": "uint64",
          "name": "fundingID",
          "type": "uint64"
        },
        {
          "internalType": "uint256",
          "name": "fundingMultitokensMinted",
          "type": "uint256"
        },
        {
          "internalType": "uint256",
          "name": "actualFundAmount",
          "type": "uint256"
        },
        {
          "internalType": "uint256",
          "name": "principalFunded",
          "type": "uint256"
        }
      ],
      "stateMutability": "nonpayable",
      "type": "function"
    },
    {
      "inputs": [],
      "name": "fundingListLength",
      "outputs": [
        {
          "internalType": "uint256",
          "name": "",
          "type": "uint256"
        }
      ],
      "stateMutability": "view",
      "type": "function"
    },
    {
      "inputs": [],
      "name": "fundingMultitoken",
      "outputs": [
        {
          "internalType": "contract FundingMultitoken",
          "name": "",
          "type": "address"
        }
      ],
      "stateMutability": "view",
      "type": "function"
    },
    {
      "inputs": [
        {
          "internalType": "uint64",
          "name": "depositID",
          "type": "uint64"
        }
      ],
      "name": "getDeposit",
      "outputs": [
        {
          "components": [
            {
              "internalType": "uint256",
              "name": "virtualTokenTotalSupply",
              "type": "uint256"
            },
            {
              "internalType": "uint256",
              "name": "interestRate",
              "type": "uint256"
            },
            {
              "internalType": "uint256",
              "name": "feeRate",
              "type": "uint256"
            },
            {
              "internalType": "uint256",
              "name": "averageRecordedIncomeIndex",
              "type": "uint256"
            },
            {
              "internalType": "uint64",
              "name": "maturationTimestamp",
              "type": "uint64"
            },
            {
              "internalType": "uint64",
              "name": "fundingID",
              "type": "uint64"
            }
          ],
          "internalType": "struct DInterest.Deposit",
          "name": "",
          "type": "tuple"
        }
      ],
      "stateMutability": "view",
      "type": "function"
    },
    {
      "inputs": [
        {
          "internalType": "uint64",
          "name": "fundingID",
          "type": "uint64"
        }
      ],
      "name": "getFunding",
      "outputs": [
        {
          "components": [
            {
              "internalType": "uint64",
              "name": "depositID",
              "type": "uint64"
            },
            {
              "internalType": "uint64",
              "name": "lastInterestPayoutTimestamp",
              "type": "uint64"
            },
            {
              "internalType": "uint256",
              "name": "recordedMoneyMarketIncomeIndex",
              "type": "uint256"
            },
            {
              "internalType": "uint256",
              "name": "principalPerToken",
              "type": "uint256"
            }
          ],
          "internalType": "struct DInterest.Funding",
          "name": "",
          "type": "tuple"
        }
      ],
      "stateMutability": "view",
      "type": "function"
    },
    {
      "inputs": [
        {
          "internalType": "uint64",
          "name": "_MaxDepositPeriod",
          "type": "uint64"
        },
        {
          "internalType": "uint256",
          "name": "_MinDepositAmount",
          "type": "uint256"
        },
        {
          "internalType": "address",
          "name": "_feeModel",
          "type": "address"
        },
        {
          "internalType": "address",
          "name": "_interestModel",
          "type": "address"
        },
        {
          "internalType": "address",
          "name": "_interestOracle",
          "type": "address"
        },
        {
          "internalType": "address",
          "name": "_depositNFT",
          "type": "address"
        },
        {
          "internalType": "address",
          "name": "_fundingMultitoken",
          "type": "address"
        },
        {
          "internalType": "address",
          "name": "_mphMinter",
          "type": "address"
        }
      ],
      "name": "initialize",
      "outputs": [],
      "stateMutability": "nonpayable",
      "type": "function"
    },
    {
      "inputs": [],
      "name": "interestModel",
      "outputs": [
        {
          "internalType": "contract IInterestModel",
          "name": "",
          "type": "address"
        }
      ],
      "stateMutability": "view",
      "type": "function"
    },
    {
      "inputs": [],
      "name": "interestOracle",
      "outputs": [
        {
          "internalType": "contract IInterestOracle",
          "name": "",
          "type": "address"
        }
      ],
      "stateMutability": "view",
      "type": "function"
    },
    {
      "inputs": [],
      "name": "moneyMarket",
      "outputs": [
        {
          "internalType": "contract MoneyMarket",
          "name": "",
          "type": "address"
        }
      ],
      "stateMutability": "view",
      "type": "function"
    },
    {
      "inputs": [],
      "name": "mphMinter",
      "outputs": [
        {
          "internalType": "contract MPHMinter",
          "name": "",
          "type": "address"
        }
      ],
      "stateMutability": "view",
      "type": "function"
    },
    {
      "inputs": [
        {
          "internalType": "bytes[]",
          "name": "data",
          "type": "bytes[]"
        }
      ],
      "name": "multicall",
      "outputs": [
        {
          "internalType": "bytes[]",
          "name": "results",
          "type": "bytes[]"
        }
      ],
      "stateMutability": "nonpayable",
      "type": "function"
    },
    {
      "inputs": [],
      "name": "owner",
      "outputs": [
        {
          "internalType": "address",
          "name": "",
          "type": "address"
        }
      ],
      "stateMutability": "view",
      "type": "function"
    },
    {
      "inputs": [
        {
          "internalType": "uint64",
          "name": "fundingID",
          "type": "uint64"
        }
      ],
      "name": "payInterestToFunders",
      "outputs": [
        {
          "internalType": "uint256",
          "name": "interestAmount",
          "type": "uint256"
        }
      ],
      "stateMutability": "nonpayable",
      "type": "function"
    },
    {
      "inputs": [],
      "name": "pendingOwner",
      "outputs": [
        {
          "internalType": "address",
          "name": "",
          "type": "address"
        }
      ],
      "stateMutability": "view",
      "type": "function"
    },
    {
      "inputs": [
        {
          "internalType": "address",
          "name": "token",
          "type": "address"
        },
        {
          "internalType": "address",
          "name": "target",
          "type": "address"
        }
      ],
      "name": "rescue",
      "outputs": [],
      "stateMutability": "nonpayable",
      "type": "function"
    },
    {
      "inputs": [
        {
          "internalType": "uint64",
          "name": "depositID",
          "type": "uint64"
        },
        {
          "internalType": "uint64",
          "name": "maturationTimestamp",
          "type": "uint64"
        },
        {
          "internalType": "uint256",
          "name": "minimumInterestAmount",
          "type": "uint256"
        },
        {
          "internalType": "string",
          "name": "uri",
          "type": "string"
        }
      ],
      "name": "rolloverDeposit",
      "outputs": [
        {
          "internalType": "uint256",
          "name": "newDepositID",
          "type": "uint256"
        },
        {
          "internalType": "uint256",
          "name": "interestAmount",
          "type": "uint256"
        }
      ],
      "stateMutability": "nonpayable",
      "type": "function"
    },
    {
      "inputs": [
        {
          "internalType": "uint64",
          "name": "depositID",
          "type": "uint64"
        },
        {
          "internalType": "uint64",
          "name": "maturationTimestamp",
          "type": "uint64"
        }
      ],
      "name": "rolloverDeposit",
      "outputs": [
        {
          "internalType": "uint256",
          "name": "newDepositID",
          "type": "uint256"
        },
        {
          "internalType": "uint256",
          "name": "interestAmount",
          "type": "uint256"
        }
      ],
      "stateMutability": "nonpayable",
      "type": "function"
    },
    {
      "inputs": [
        {
          "internalType": "string",
          "name": "newURI",
          "type": "string"
        }
      ],
      "name": "setDepositNFTBaseURI",
      "outputs": [],
      "stateMutability": "nonpayable",
      "type": "function"
    },
    {
      "inputs": [
        {
          "internalType": "string",
          "name": "newURI",
          "type": "string"
        }
      ],
      "name": "setDepositNFTContractURI",
      "outputs": [],
      "stateMutability": "nonpayable",
      "type": "function"
    },
    {
      "inputs": [
        {
          "internalType": "address",
          "name": "newValue",
          "type": "address"
        }
      ],
      "name": "setFeeModel",
      "outputs": [],
      "stateMutability": "nonpayable",
      "type": "function"
    },
    {
      "inputs": [
        {
          "internalType": "uint256",
          "name": "newValue",
          "type": "uint256"
        }
      ],
      "name": "setGlobalDepositCap",
      "outputs": [],
      "stateMutability": "nonpayable",
      "type": "function"
    },
    {
      "inputs": [
        {
          "internalType": "address",
          "name": "newValue",
          "type": "address"
        }
      ],
      "name": "setInterestModel",
      "outputs": [],
      "stateMutability": "nonpayable",
      "type": "function"
    },
    {
      "inputs": [
        {
          "internalType": "address",
          "name": "newValue",
          "type": "address"
        }
      ],
      "name": "setInterestOracle",
      "outputs": [],
      "stateMutability": "nonpayable",
      "type": "function"
    },
    {
      "inputs": [
        {
          "internalType": "address",
          "name": "newValue",
          "type": "address"
        }
      ],
      "name": "setMPHMinter",
      "outputs": [],
      "stateMutability": "nonpayable",
      "type": "function"
    },
    {
      "inputs": [
        {
          "internalType": "uint64",
          "name": "newValue",
          "type": "uint64"
        }
      ],
      "name": "setMaxDepositPeriod",
      "outputs": [],
      "stateMutability": "nonpayable",
      "type": "function"
    },
    {
      "inputs": [
        {
          "internalType": "uint256",
          "name": "newValue",
          "type": "uint256"
        }
      ],
      "name": "setMinDepositAmount",
      "outputs": [],
      "stateMutability": "nonpayable",
      "type": "function"
    },
    {
      "inputs": [
        {
          "internalType": "address",
          "name": "newValue",
          "type": "address"
        }
      ],
      "name": "setRewards",
      "outputs": [],
      "stateMutability": "nonpayable",
      "type": "function"
    },
    {
      "inputs": [
        {
          "internalType": "address",
          "name": "recipient",
          "type": "address"
        }
      ],
      "name": "skimSurplus",
      "outputs": [],
      "stateMutability": "nonpayable",
      "type": "function"
    },
    {
      "inputs": [],
      "name": "stablecoin",
      "outputs": [
        {
          "internalType": "contract ERC20",
          "name": "",
          "type": "address"
        }
      ],
      "stateMutability": "view",
      "type": "function"
    },
    {
      "inputs": [],
      "name": "sumOfRecordedFundedPrincipalAmountDivRecordedIncomeIndex",
      "outputs": [
        {
          "internalType": "uint256",
          "name": "",
          "type": "uint256"
        }
      ],
      "stateMutability": "view",
      "type": "function"
    },
    {
      "inputs": [],
      "name": "surplus",
      "outputs": [
        {
          "internalType": "bool",
          "name": "isNegative",
          "type": "bool"
        },
        {
          "internalType": "uint256",
          "name": "surplusAmount",
          "type": "uint256"
        }
      ],
      "stateMutability": "nonpayable",
      "type": "function"
    },
    {
      "inputs": [
        {
          "internalType": "uint64",
          "name": "depositID",
          "type": "uint64"
        },
        {
          "internalType": "uint256",
          "name": "depositAmount",
          "type": "uint256"
        }
      ],
      "name": "topupDeposit",
      "outputs": [
        {
          "internalType": "uint256",
          "name": "interestAmount",
          "type": "uint256"
        }
      ],
      "stateMutability": "nonpayable",
      "type": "function"
    },
    {
      "inputs": [
        {
          "internalType": "uint64",
          "name": "depositID",
          "type": "uint64"
        },
        {
          "internalType": "uint256",
          "name": "depositAmount",
          "type": "uint256"
        },
        {
          "internalType": "uint256",
          "name": "minimumInterestAmount",
          "type": "uint256"
        }
      ],
      "name": "topupDeposit",
      "outputs": [
        {
          "internalType": "uint256",
          "name": "interestAmount",
          "type": "uint256"
        }
      ],
      "stateMutability": "nonpayable",
      "type": "function"
    },
    {
      "inputs": [],
      "name": "totalDeposit",
      "outputs": [
        {
          "internalType": "uint256",
          "name": "",
          "type": "uint256"
        }
      ],
      "stateMutability": "view",
      "type": "function"
    },
    {
      "inputs": [],
      "name": "totalFeeOwed",
      "outputs": [
        {
          "internalType": "uint256",
          "name": "",
          "type": "uint256"
        }
      ],
      "stateMutability": "view",
      "type": "function"
    },
    {
      "inputs": [],
      "name": "totalFundedPrincipalAmount",
      "outputs": [
        {
          "internalType": "uint256",
          "name": "",
          "type": "uint256"
        }
      ],
      "stateMutability": "view",
      "type": "function"
    },
    {
      "inputs": [],
      "name": "totalInterestOwed",
      "outputs": [
        {
          "internalType": "uint256",
          "name": "",
          "type": "uint256"
        }
      ],
      "stateMutability": "view",
      "type": "function"
    },
    {
      "inputs": [
        {
          "internalType": "address",
          "name": "newOwner",
          "type": "address"
        },
        {
          "internalType": "bool",
          "name": "direct",
          "type": "bool"
        },
        {
          "internalType": "bool",
          "name": "renounce",
          "type": "bool"
        }
      ],
      "name": "transferOwnership",
      "outputs": [],
      "stateMutability": "nonpayable",
      "type": "function"
    },
    {
      "inputs": [
        {
          "internalType": "uint64",
          "name": "depositID",
          "type": "uint64"
        },
        {
          "internalType": "uint256",
          "name": "virtualTokenAmount",
          "type": "uint256"
        },
        {
          "internalType": "bool",
          "name": "early",
          "type": "bool"
        }
      ],
      "name": "withdraw",
      "outputs": [
        {
          "internalType": "uint256",
          "name": "withdrawnStablecoinAmount",
          "type": "uint256"
        }
      ],
      "stateMutability": "nonpayable",
      "type": "function"
    }
  ],
  "transactionHash": "0xd6e269f3333d88e15a177d48d551d2e3345e3ab9c82554d7752be758253b0838",
  "args": [],
  "solcInputHash": "a8caab32d586e233118f666abd4a9768",
  "bytecode": "0x608060405234801561001057600080fd5b50615c6680620000216000396000f3fe608060405234801561001057600080fd5b50600436106102f15760003560e01c80638da5cb5b1161019d578063bc135d75116100e9578063e30c3978116100a2578063f154240a1161007c578063f154240a14610763578063f20b1c761461076b578063f6153ccd1461077e578063f8e1152a1461078757600080fd5b8063e30c397814610737578063e9cbd82214610748578063ec38a8621461075057600080fd5b8063bc135d75146106e4578063c016cfd6146106f7578063d2402b191461070a578063d372bc4414610713578063d3f8d66714610726578063d6d75f511461072f57600080fd5b806397ee114411610156578063a832806b11610130578063a832806b14610630578063ac165d7a14610643578063ac9650d814610656578063ae59a6b21461067657600080fd5b806397ee1144146105e25780639e64eee0146105f5578063a5a9504e1461061d57600080fd5b80638da5cb5b1461057c5780638f168c931461058d5780638f91a1df1461059657806393f52c85146105a9578063952543b4146105bc5780639530d77e146105cf57600080fd5b80634004ba081161025c5780635dc05d7f116102155780637d552ea6116101ef5780637d552ea6146104f55780637f2b0e4e1461050857806381eb05691461051157806386b8f9f11461052457600080fd5b80635dc05d7f146104bc57806367e3c4d4146104cf5780636e3f5d52146104e257600080fd5b80634004ba081461043657806347857296146104685780634e71e0c81461047b5780634fdf5d1d14610483578063593b150d146104965780635c53ba26146104a957600080fd5b80632125b984116102ae5780632125b98414610374578063257c932a14610387578063259fc70f146103c45780632a80cda3146103ef5780632fc082ff1461040257806331c3b1e61461042d57600080fd5b806301f2249b146102f657806304e5f21d1461030b578063078dfbe71461032757806308b856d71461033a57806313888565146103425780631e36489314610361575b600080fd5b610309610304366004615333565b61079a565b005b61031460a05481565b6040519081526020015b60405180910390f35b6103096103353660046153a3565b61086e565b609a54610314565b61034a61097d565b60408051921515835260208301919091520161031e565b61031461036f3660046155df565b610a0a565b6103096103823660046154a5565b610a4c565b61039a6103953660046156d9565b610ade565b604080516001600160401b039095168552602085019390935291830152606082015260800161031e565b609c546103d7906001600160401b031681565b6040516001600160401b03909116815260200161031e565b6103096103fd3660046154e4565b610b2d565b60a454610415906001600160a01b031681565b6040516001600160a01b03909116815260200161031e565b61031460a85481565b610449610444366004615560565b610bd2565b604080516001600160401b03909316835260208301919091520161031e565b6103146104763660046156a5565b610c57565b610309610c9b565b61030961049136600461536b565b610d59565b6103096104a4366004615333565b610df3565b61039a6104b73660046155df565b610ed7565b60a654610415906001600160a01b031681565b60a554610415906001600160a01b031681565b6103096104f0366004615333565b610f26565b610449610503366004615535565b610fb0565b610314609b5481565b61031461051f3660046156d9565b61100b565b6105376105323660046155c5565b611041565b60405161031e919060006080820190506001600160401b0380845116835280602085015116602084015250604083015160408301526060830151606083015292915050565b6033546001600160a01b0316610415565b610314609f5481565b6103096105a43660046155c5565b6110ef565b6103096105b73660046154e4565b6111bc565b6103096105ca366004615608565b61120c565b6103146105dd3660046155c5565b611290565b60a254610415906001600160a01b031681565b610608610603366004615734565b611347565b6040805192835260208301919091520161031e565b61030961062b366004615333565b6113d5565b60a754610415906001600160a01b031681565b60a354610415906001600160a01b031681565b6106696106643660046153ed565b61145a565b60405161031e91906157fe565b6106896106843660046155c5565b611579565b60405161031e9190600060c0820190508251825260208301516020830152604083015160408301526060830151606083015260808301516001600160401b0380821660808501528060a08601511660a0850152505092915050565b6103146106f2366004615514565b611662565b6103096107053660046154a5565b611795565b610314609d5481565b6103096107213660046155df565b6117f1565b61031460a15481565b6104156118eb565b6034546001600160a01b0316610415565b61041561196d565b61030961075e366004615333565b6119af565b609954610314565b610309610779366004615333565b611a8b565b610314609e5481565b61060861079536600461570b565b611b16565b6033546001600160a01b031633146107cd5760405162461bcd60e51b81526004016107c4906158ef565b60405180910390fd5b6001600160a01b0381163b6107f45760405162461bcd60e51b81526004016107c49061599e565b60a780546001600160a01b0319166001600160a01b0383161790556040516836b83426b4b73a32b960b91b81526009015b6040519081900381206001600160a01b03831682529033907f64b03eb8356730cffd396927eec0e9b1e0599498960e022df3dae35791c17cf5906020015b60405180910390a350565b6033546001600160a01b031633146108985760405162461bcd60e51b81526004016107c4906158ef565b811561095c576001600160a01b0383161515806108b25750805b6108f65760405162461bcd60e51b81526020600482015260156024820152744f776e61626c653a207a65726f206164647265737360581b60448201526064016107c4565b6033546040516001600160a01b038086169216907f8be0079c531659141344cd1fd0a4f28419497f9722a3daafe3b4186f6b6457e090600090a3603380546001600160a01b0385166001600160a01b031991821617909155603480549091169055505050565b603480546001600160a01b0319166001600160a01b0385161790555b505050565b600080610a0261098b6118eb565b6001600160a01b03166321c261206040518163ffffffff1660e01b8152600401602060405180830381600087803b1580156109c557600080fd5b505af11580156109d9573d6000803e3d6000fd5b505050506040513d601f19601f820116820180604052508101906109fd91906154fc565b611b7b565b915091509091565b600060026001541415610a2f5760405162461bcd60e51b81526004016107c490615967565b6002600155610a413384846000611cad565b600180559392505050565b6033546001600160a01b03163314610a765760405162461bcd60e51b81526004016107c4906158ef565b60a5546040516355f804b360e01b81526001600160a01b03909116906355f804b390610aa8908590859060040161585f565b600060405180830381600087803b158015610ac257600080fd5b505af1158015610ad6573d6000803e3d6000fd5b505050505050565b60008060008060026001541415610b075760405162461bcd60e51b81526004016107c490615967565b6002600155610b1833888888611ccf565b60018055929a91995097509095509350505050565b6033546001600160a01b03163314610b575760405162461bcd60e51b81526004016107c4906158ef565b60008111610b775760405162461bcd60e51b81526004016107c490615924565b609d8190556040516f135a5b91195c1bdcda5d105b5bdd5b9d60821b81526010015b6040519081900381208282529033907ff37f82a82443ce2d0a9a47ee78cef1a46975e3f33782fcb8caf315626b73a3d490602001610863565b60008060026001541415610bf85760405162461bcd60e51b81526004016107c490615967565b6002600181905550610c4533888860008989898080601f016020809104026020016040519081016040528093929190818152602001838380828437600092019190915250611d0092505050565b60018055909890975095505050505050565b600060026001541415610c7c5760405162461bcd60e51b81526004016107c490615967565b6002600155610c8f338585856000611d2b565b60018055949350505050565b6034546001600160a01b0316338114610cf65760405162461bcd60e51b815260206004820181905260248201527f4f776e61626c653a2063616c6c657220213d2070656e64696e67206f776e657260448201526064016107c4565b6033546040516001600160a01b038084169216907f8be0079c531659141344cd1fd0a4f28419497f9722a3daafe3b4186f6b6457e090600090a3603380546001600160a01b039092166001600160a01b0319928316179055603480549091169055565b610d638282611d80565b6040516370a0823160e01b815230600482015282906109789083906001600160a01b038416906370a082319060240160206040518083038186803b158015610daa57600080fd5b505afa158015610dbe573d6000803e3d6000fd5b505050506040513d601f19601f82011682018060405250810190610de291906154fc565b6001600160a01b0384169190611dae565b6033546001600160a01b03163314610e1d5760405162461bcd60e51b81526004016107c4906158ef565b600080610e2861097d565b915091508161097857610e396118eb565b6001600160a01b0316632e1a7d4d826040518263ffffffff1660e01b8152600401610e6691815260200190565b602060405180830381600087803b158015610e8057600080fd5b505af1158015610e94573d6000803e3d6000fd5b505050506040513d601f19601f82011682018060405250810190610eb891906154fc565b90506109788382610ec761196d565b6001600160a01b03169190611dae565b60008060008060026001541415610f005760405162461bcd60e51b81526004016107c490615967565b6002600155610f123387876000611ccf565b600180559299919850965090945092505050565b6033546001600160a01b03163314610f505760405162461bcd60e51b81526004016107c4906158ef565b6001600160a01b0381163b610f775760405162461bcd60e51b81526004016107c49061599e565b60a380546001600160a01b0319166001600160a01b0383161790556040516c1a5b9d195c995cdd135bd9195b609a1b8152600d01610825565b60008060026001541415610fd65760405162461bcd60e51b81526004016107c490615967565b6002600181905550610ffc33858560008060405180602001604052806000815250611d00565b60018055909590945092505050565b6000600260015414156110305760405162461bcd60e51b81526004016107c490615967565b6002600155610c8f33858585611cad565b604080516080810182526000808252602082018190529181018290526060810191909152609a611072600184615b61565b6001600160401b03168154811061109957634e487b7160e01b600052603260045260246000fd5b600091825260209182902060408051608081018252600390930290910180546001600160401b038082168552600160401b9091041693830193909352600183015490820152600290910154606082015292915050565b6033546001600160a01b031633146111195760405162461bcd60e51b81526004016107c4906158ef565b6000816001600160401b0316116111425760405162461bcd60e51b81526004016107c490615924565b609c805467ffffffffffffffff19166001600160401b0383161790556040516f13585e11195c1bdcda5d14195c9a5bd960821b81526010016040519081900381206001600160401b03831682529033907ff37f82a82443ce2d0a9a47ee78cef1a46975e3f33782fcb8caf315626b73a3d490602001610863565b6033546001600160a01b031633146111e65760405162461bcd60e51b81526004016107c4906158ef565b60a88190556040516f0476c6f62616c4465706f7369744361760841b8152601001610b99565b600054610100900460ff1680611225575060005460ff16155b6112415760405162461bcd60e51b81526004016107c4906158a1565b600054610100900460ff16158015611263576000805461ffff19166101011790555b6112738989898989898989611e11565b8015611285576000805461ff00191690555b505050505050505050565b6000600260015414156112b55760405162461bcd60e51b81526004016107c490615967565b600260015561133d826112c66118eb565b6001600160a01b03166321c261206040518163ffffffff1660e01b8152600401602060405180830381600087803b15801561130057600080fd5b505af1158015611314573d6000803e3d6000fd5b505050506040513d601f19601f8201168201806040525081019061133891906154fc565b611f17565b6001805592915050565b6000806002600154141561136d5760405162461bcd60e51b81526004016107c490615967565b60026001819055506113b83388888888888080601f0160208091040260200160405190810160405280939291908181526020018383808284376000920191909152506122d692505050565b600180556001600160401b03919091169890975095505050505050565b6033546001600160a01b031633146113ff5760405162461bcd60e51b81526004016107c4906158ef565b6001600160a01b0381163b6114265760405162461bcd60e51b81526004016107c49061599e565b60a280546001600160a01b0319166001600160a01b03831617905560405167199959535bd9195b60c21b8152600801610825565b6060816001600160401b0381111561148257634e487b7160e01b600052604160045260246000fd5b6040519080825280602002602001820160405280156114b557816020015b60608152602001906001900390816114a05790505b50905060005b8281101561157157611533308585848181106114e757634e487b7160e01b600052603260045260246000fd5b90506020028101906114f991906159c4565b8080601f01602080910402602001604051908101604052809392919081815260200183838082843760009201919091525061235192505050565b82828151811061155357634e487b7160e01b600052603260045260246000fd5b6020026020010181905250808061156990615bb5565b9150506114bb565b505b92915050565b6115c46040518060c001604052806000815260200160008152602001600081526020016000815260200160006001600160401b0316815260200160006001600160401b031681525090565b60996115d1600184615b61565b6001600160401b0316815481106115f857634e487b7160e01b600052603260045260246000fd5b60009182526020918290206040805160c081018252600590930290910180548352600181015493830193909352600283015490820152600382015460608201526004909101546001600160401b038082166080840152600160401b9091041660a082015292915050565b60a454604080516385b3a93160e01b8152815160009384936001600160a01b03909116926385b3a931926004808301939282900301818787803b1580156116a857600080fd5b505af11580156116bc573d6000803e3d6000fd5b505050506040513d601f19601f820116820180604052508101906116e09190615478565b9150506000806116ee61097d565b60a35460405163684df1a760e11b8152600481018a905260248101899052604481018790528315156064820152608481018390529294509092506001600160a01b03169063d09be34e9060a40160206040518083038186803b15801561175357600080fd5b505afa158015611767573d6000803e3d6000fd5b505050506040513d601f19601f8201168201806040525081019061178b91906154fc565b9695505050505050565b6033546001600160a01b031633146117bf5760405162461bcd60e51b81526004016107c4906158ef565b60a55460405163938e3d7b60e01b81526001600160a01b039091169063938e3d7b90610aa8908590859060040161585f565b6033546001600160a01b0316331461181b5760405162461bcd60e51b81526004016107c4906158ef565b60006118268361243c565b60028101546001820154825492935090918285106118565760405162461bcd60e51b81526004016107c490615924565b600061187461186d670de0b6b3a764000085615a08565b8390612487565b600286018790559050600061189361188c8887615b4a565b83906124a3565b905061189f8183612487565b6118a99085615a08565b866001018190555080609f60008282546118c39190615a08565b925050819055508060a060008282546118dc9190615b4a565b90915550505050505050505050565b60a4546040805163d6d75f5160e01b815290516000926001600160a01b03169163d6d75f51916004808301926020929190829003018186803b15801561193057600080fd5b505afa158015611944573d6000803e3d6000fd5b505050506040513d601f19601f82011682018060405250810190611968919061534f565b905090565b60006119776118eb565b6001600160a01b031663e9cbd8226040518163ffffffff1660e01b815260040160206040518083038186803b15801561193057600080fd5b6033546001600160a01b031633146119d95760405162461bcd60e51b81526004016107c4906158ef565b6001600160a01b0381163b611a005760405162461bcd60e51b81526004016107c49061599e565b611a086118eb565b60405163761c543160e11b81526001600160a01b038381166004830152919091169063ec38a86290602401600060405180830381600087803b158015611a4d57600080fd5b505af1158015611a61573d6000803e3d6000fd5b5050505060405161082590726d6f6e65794d61726b65742e7265776172647360681b815260130190565b6033546001600160a01b03163314611ab55760405162461bcd60e51b81526004016107c4906158ef565b6001600160a01b0381163b611adc5760405162461bcd60e51b81526004016107c49061599e565b60a480546001600160a01b0319166001600160a01b0383161790556040516d696e7465726573744f7261636c6560901b8152600e01610825565b60008060026001541415611b3c5760405162461bcd60e51b81526004016107c490615967565b6002600181905550611b613385856000604051806020016040528060008152506122d6565b600180556001600160401b03919091169590945092505050565b6000806000676765c793fa10079d601b1b609b5485611b9a9190615b2b565b611ba49190615a20565b60a154909150600081831115611bc157611bbe8284615b4a565b90505b6000611bcb6118eb565b6001600160a01b031663579f07b0886040518263ffffffff1660e01b8152600401611bf891815260200190565b60206040518083038186803b158015611c1057600080fd5b505afa158015611c24573d6000803e3d6000fd5b505050506040513d601f19601f82011682018060405250810190611c4891906154fc565b905060008260a054609f54609e54611c609190615a08565b611c6a9190615a08565b611c749190615a08565b9050808210611c925760009650611c8b8183615b4a565b9550611ca3565b60019650611ca08282615b4a565b95505b5050505050915091565b6000611cbb858585856124af565b9050611cc785846129bd565b949350505050565b600080600080611ce188888888612a5e565b92965090945092509050611cf588836129bd565b945094509450949050565b600080611d108888888787612fa1565b9092509050611d2088888761354d565b965096945050505050565b6000806000806000611d3f8a8a8a8a6135e9565b9350935093509350611d728a611d548b61243c565b60040154600160401b90046001600160401b0316868686868c613bb0565b9a9950505050505050505050565b6033546001600160a01b03163314611daa5760405162461bcd60e51b81526004016107c4906158ef565b5050565b6040516001600160a01b03831660248201526044810182905261097890849063a9059cbb60e01b906064015b60408051601f198184030181529190526020810180516001600160e01b03166001600160e01b031990931692909217909152613f3b565b600054610100900460ff1680611e2a575060005460ff16155b611e465760405162461bcd60e51b81526004016107c4906158a1565b600054610100900460ff16158015611e68576000805461ffff19166101011790555b611e7061400d565b611e78614081565b60a280546001600160a01b03199081166001600160a01b038a81169190911790925560a38054821689841617905560a48054821688841617905560a58054821687841617905560a68054821686841617905560a78054909116918416919091179055609c805467ffffffffffffffff19166001600160401b038b16179055609d8890558015611285576000805461ff0019169055505050505050505050565b600080611f23846140c3565b600181015460a65460405163bd85b03960e01b81526001600160401b038816600482015292935090916000916001600160a01b03169063bd85b0399060240160206040518083038186803b158015611f7a57600080fd5b505afa158015611f8e573d6000803e3d6000fd5b505050506040513d601f19601f82011682018060405250810190611fb291906154fc565b90506000600160801b846002015483611fcb9190615b2b565b611fd59190615a20565b905082611fed676765c793fa10079d601b1b83615b2b565b611ff79190615a20565b8661200d676765c793fa10079d601b1b84615b2b565b6120179190615a20565b609b546120249190615a08565b61202e9190615b4a565b609b556001840186905580836120448883615b2b565b61204e9190615a20565b6120589190615b4a565b9450505050600082111561228b57600061207061196d565b90506000816001600160a01b031663313ce5676040518163ffffffff1660e01b815260040160206040518083038186803b1580156120ad57600080fd5b505afa1580156120c1573d6000803e3d6000fd5b505050506040513d601f19601f820116820180604052508101906120e59190615762565b6120f39060ff16600a615a83565b90506121046402540be40082615a20565b841115612238576121136118eb565b6001600160a01b0316632e1a7d4d856040518263ffffffff1660e01b815260040161214091815260200190565b602060405180830381600087803b15801561215a57600080fd5b505af115801561216e573d6000803e3d6000fd5b505050506040513d601f19601f8201168201806040525081019061219291906154fc565b935083156122335760a6546121b4906001600160a01b0384811691168661410e565b60a6546040516316f6849d60e31b81526001600160401b03881660048201526001600160a01b038481166024830152604482018790529091169063b7b424e890606401600060405180830381600087803b15801561221157600080fd5b505af1158015612225573d6000803e3d6000fd5b505050506122338685614206565b612288565b60408051600080825260208201526001600160401b038816917f8f0a3cf13ab42f1ec8d1e3df9aa7f0b3219995863af01088afec4c3fef43f79c910160405180910390a260009350505050611573565b50505b60408051838152600060208201526001600160401b038616917f8f0a3cf13ab42f1ec8d1e3df9aa7f0b3219995863af01088afec4c3fef43f79c910160405180910390a25092915050565b60008060006122ec888860001960006001611d2b565b90506122fd88828860018989611d00565b60405191945092506001600160401b0380851691908916906001600160a01b038b16907fa1784acef38e256a50f87b9b937145b9d8294956f1f444d097b9f34217e7291490600090a4509550959350505050565b6060823b6123b05760405162461bcd60e51b815260206004820152602660248201527f416464726573733a2064656c65676174652063616c6c20746f206e6f6e2d636f6044820152651b9d1c9858dd60d21b60648201526084016107c4565b600080846001600160a01b0316846040516123cb91906157af565b600060405180830381855af49150503d8060008114612406576040519150601f19603f3d011682016040523d82523d6000602084013e61240b565b606091505b50915091506124338282604051806060016040528060278152602001615c0a602791396143b9565b95945050505050565b6000609961244b600184615b61565b6001600160401b03168154811061247257634e487b7160e01b600052603260045260246000fd5b90600052602060002090600502019050919050565b600061249c83670de0b6b3a7640000846143f2565b9392505050565b600061249c83836144ce565b6000806124bb8561243c565b60a5546040516331a9108f60e11b81526001600160401b03881660048201529192506001600160a01b0388811692911690636352211e9060240160206040518083038186803b15801561250d57600080fd5b505afa158015612521573d6000803e3d6000fd5b505050506040513d601f19601f82011682018060405250810190612545919061534f565b6001600160a01b0316146125875760405162461bcd60e51b81526020600482015260096024820152682727aa2fa7aba722a960b91b60448201526064016107c4565b60048101546000906125a39042906001600160401b0316615b4a565b90506125af8582611662565b92506000831180156125c15750838310155b6125fc5760405162461bcd60e51b815260206004820152600c60248201526b10905117d2539511549154d560a21b60448201526064016107c4565b60a25460405163cf27fa5960e01b8152306004820152602481018590526000916001600160a01b03169063cf27fa599060440160206040518083038186803b15801561264757600080fd5b505afa15801561265b573d6000803e3d6000fd5b505050506040513d601f19601f8201168201806040525081019061267f91906154fc565b905061268b8185615b4a565b600184015490945060006126b26126aa670de0b6b3a764000084615a08565b865490612487565b90506126be8689615a08565b8560000160008282546126d19190615a08565b909155506126e190508189615a08565b6126eb8383615b2b565b6126fd88670de0b6b3a7640000615b2b565b6127079190615a08565b6127119190615a20565b60018601556127208189615a08565b600286015461272f9083615b2b565b61274185670de0b6b3a7640000615b2b565b61274b9190615a08565b6127559190615a20565b600286015560006127646118eb565b6001600160a01b03166321c261206040518163ffffffff1660e01b8152600401602060405180830381600087803b15801561279e57600080fd5b505af11580156127b2573d6000803e3d6000fd5b505050506040513d601f19601f820116820180604052508101906127d691906154fc565b6127eb676765c793fa10079d601b1b8b615b2b565b6127f59190615a20565b600387015461280f676765c793fa10079d601b1b85615b2b565b6128199190615a20565b6128239190615a08565b905080676765c793fa10079d601b1b61283c848c615a08565b6128469190615b2b565b6128509190615a20565b866003018190555088609e600082825461286a9190615a08565b909155505060a854801580612881575080609e5411155b6128b35760405162461bcd60e51b815260206004820152600360248201526204341560ec1b60448201526064016107c4565b5086609f60008282546128c69190615a08565b925050819055508360a060008282546128df9190615a08565b9091555050604080518a8152602081018990529081018590526001600160401b038b16906001600160a01b038d16907f3cfdfbe5c59b104993c5bb7a19605a181c358415effb11a8903c7168f3948f4f9060600160405180910390a360a754604051634452179160e11b81526001600160401b038c16600482015260248101849052604481018b90526001600160a01b03909116906388a42f2290606401600060405180830381600087803b15801561299757600080fd5b505af11580156129ab573d6000803e3d6000fd5b50505050505050505050949350505050565b60006129c761196d565b90506129de6001600160a01b038216843085614590565b60006129e86118eb565b90506129fe6001600160a01b038316828561410e565b60405163b6b55f2560e01b8152600481018490526001600160a01b0382169063b6b55f2590602401600060405180830381600087803b158015612a4057600080fd5b505af1158015612a54573d6000803e3d6000fd5b5050505050505050565b6000806000806000612a6f8861243c565b6004810154600160401b90046001600160401b0316955090506000612a926118eb565b6001600160a01b03166321c261206040518163ffffffff1660e01b8152600401602060405180830381600087803b158015612acc57600080fd5b505af1158015612ae0573d6000803e3d6000fd5b505050506040513d601f19601f82011682018060405250810190612b0491906154fc565b82549091506000612b158b836145c8565b90506000612b3b670de0b6b3a76400008660010154612b349190615a08565b8490612487565b90506001600160401b0389161580612b5d5750612b57896140c3565b60020154155b15612d01576001600160401b03421115612b895760405162461bcd60e51b81526004016107c490615945565b604080516080810182526001600160401b03808f16825242811660208301908152928201878152600160801b60608401908152609a80546001810182556000829052945160039095027f44da158ba27f9252712a74ff6a55c5d531f69609f1f6e7f17c4443a8e2089be48101805497518616600160401b026001600160801b0319909816968616969096179690961790945590517f44da158ba27f9252712a74ff6a55c5d531f69609f1f6e7f17c4443a8e2089be5850155517f44da158ba27f9252712a74ff6a55c5d531f69609f1f6e7f17c4443a8e2089be690930192909255541115612c895760405162461bcd60e51b81526004016107c490615945565b609a546004860180546001600160401b03808416600160401b0267ffffffffffffffff60401b1983168117909355929b50600092612cd39285926106f29242928116911617615b4a565b9050808c1115612ce157809b505b80612cec8d85615b2b565b612cf69190615a20565b965086985050612e44565b612d0b8985611f17565b506000612d178a6140c3565b6002015460a65460405163bd85b03960e01b81526001600160401b038d166004820152919250600091600160801b9184916001600160a01b039091169063bd85b0399060240160206040518083038186803b158015612d7557600080fd5b505afa158015612d89573d6000803e3d6000fd5b505050506040513d601f19601f82011682018060405250810190612dad91906154fc565b612db79190615b2b565b612dc19190615a20565b612dcb9085615b4a565b90506000612e0085612ddd8487615b2b565b612de79190615a20565b60048a01546106f29042906001600160401b0316615b4a565b9050808e1115612e0e57809d505b80612e198f84615b2b565b612e239190615a20565b985082612e34600160801b8b615b2b565b612e3e9190615a20565b9a505050505b50505086831015612e7d5760405162461bcd60e51b815260206004820152600360248201526226a4a760e91b60448201526064016107c4565b60a654604051630ab714fb60e11b81526001600160a01b038c811660048301526001600160401b0389166024830152604482018890529091169063156e29f690606401600060405180830381600087803b158015612eda57600080fd5b505af1158015612eee573d6000803e3d6000fd5b5050505080676765c793fa10079d601b1b84612f0a9190615b2b565b612f149190615a20565b609b6000828254612f259190615a08565b925050819055508260a16000828254612f3e9190615a08565b909155505060408051898152602081018790526001600160401b038816916001600160a01b038d16917e041ad888f8f0041ca5438a2a667df2a6a90adb28eaf8ec67152459058415ec910160405180910390a38793505050945094509450949050565b600080609d54861015612fe35760405162461bcd60e51b815260206004820152600a60248201526910905117d05353d5539560b21b60448201526064016107c4565b6000612ff8426001600160401b038816615b4a565b609c549091506001600160401b03168111156130415760405162461bcd60e51b81526020600482015260086024820152674241445f54494d4560c01b60448201526064016107c4565b61304b8782611662565b915060008211801561305d5750848210155b6130985760405162461bcd60e51b815260206004820152600c60248201526b10905117d2539511549154d560a21b60448201526064016107c4565b60a25460405163cf27fa5960e01b8152306004820152602481018490526000916001600160a01b03169063cf27fa599060440160206040518083038186803b1580156130e357600080fd5b505afa1580156130f7573d6000803e3d6000fd5b505050506040513d601f19601f8201168201806040525081019061311b91906154fc565b90506131278184615b4a565b925060996040518060c00160405280858b6131429190615a08565b8152602001613151868c612487565b8152602001613160848c612487565b815260a4546040805163d6d75f5160e01b815290516020938401936001600160a01b039093169263d6d75f519260048082019391829003018186803b1580156131a857600080fd5b505afa1580156131bc573d6000803e3d6000fd5b505050506040513d601f19601f820116820180604052508101906131e0919061534f565b6001600160a01b03166321c261206040518163ffffffff1660e01b8152600401602060405180830381600087803b15801561321a57600080fd5b505af115801561322e573d6000803e3d6000fd5b505050506040513d601f19601f8201168201806040525081019061325291906154fc565b81526001600160401b03808b166020808401919091526000604093840181905285546001818101885596825290829020855160059092020190815590840151948101949094559082015160028401556060820151600384015560808201516004909301805460a0909301518216600160401b026001600160801b0319909316938216939093179190911790915560995411156133005760405162461bcd60e51b81526004016107c490615945565b609980549050935087609e600082825461331a9190615a08565b909155505060a854801580613331575080609e5411155b6133635760405162461bcd60e51b815260206004820152600360248201526204341560ec1b60448201526064016107c4565b5082609f60008282546133769190615a08565b925050819055508060a0600082825461338f9190615a08565b9091555050845161340d5760a5546040516340c10f1960e01b81526001600160a01b038b811660048301526001600160401b0387166024830152909116906340c10f1990604401600060405180830381600087803b1580156133f057600080fd5b505af1158015613404573d6000803e3d6000fd5b50505050613474565b60a5546040516334ff261960e21b81526001600160a01b039091169063d3fc986490613441908c9088908a906004016157cb565b600060405180830381600087803b15801561345b57600080fd5b505af115801561346f573d6000803e3d6000fd5b505050505b60408051898152602081018590529081018290526001600160401b0388811660608301528516906001600160a01b038b16907f61431584ca96282c2c6748c4dabd382bc28bde7792a7fa3c3668927bedf4446f9060800160405180910390a360a754604051631a3ee6b160e01b81526001600160a01b038b811660048301526001600160401b038716602483015290911690631a3ee6b190604401600060405180830381600087803b15801561352957600080fd5b505af115801561353d573d6000803e3d6000fd5b5050505050509550959350505050565b8061097857600061355c61196d565b90506135736001600160a01b038216853086614590565b600061357d6118eb565b90506135936001600160a01b038316828661410e565b60405163b6b55f2560e01b8152600481018590526001600160a01b0382169063b6b55f2590602401600060405180830381600087803b1580156135d557600080fd5b505af1158015611285573d6000803e3d6000fd5b6000806000806000861161362c5760405162461bcd60e51b815260206004820152600a60248201526910905117d05353d5539560b21b60448201526064016107c4565b60006136378861243c565b905085156136895760048101546001600160401b031642106136845760405162461bcd60e51b81526020600482015260066024820152654d415455524560d01b60448201526064016107c4565b6136d1565b60048101546001600160401b03164210156136d15760405162461bcd60e51b8152602060048201526008602482015267494d4d415455524560c01b60448201526064016107c4565b60a5546040516331a9108f60e11b81526001600160401b038a1660048201526001600160a01b038b8116921690636352211e9060240160206040518083038186803b15801561371f57600080fd5b505afa158015613733573d6000803e3d6000fd5b505050506040513d601f19601f82011682018060405250810190613757919061534f565b6001600160a01b0316146137995760405162461bcd60e51b81526020600482015260096024820152682727aa2fa7aba722a960b91b60448201526064016107c4565b8054808811156137a7578097505b506001810154600282015460006137d06137c9670de0b6b3a764000085615a08565b8b90612487565b90506000896137e8576137e3828c615b4a565b6137eb565b60005b90506137f78183615a08565b98505088156138a95760a2546040516376dffb8f60e01b81523060048201526001600160401b038d166024820152604481018a90526000916001600160a01b0316906376dffb8f9060640160206040518083038186803b15801561385a57600080fd5b505afa15801561386e573d6000803e3d6000fd5b505050506040513d601f19601f8201168201806040525081019061389291906154fc565b97508790506138a1818a615b4a565b9850506138b6565b6138b381836124a3565b96505b80609e60008282546138c89190615b4a565b909155506138d89050818b615b4a565b609f60008282546138e99190615b4a565b909155506138f9905081836124a3565b60a0600082825461390a9190615b4a565b90915550506004840154600160401b90046001600160401b03168015613a68576000613935826140c3565b600281015460a65460405163bd85b03960e01b81526001600160401b0386166004820152929350600092600160801b92916001600160a01b03169063bd85b0399060240160206040518083038186803b15801561399157600080fd5b505afa1580156139a5573d6000803e3d6000fd5b505050506040513d601f19601f820116820180604052508101906139c991906154fc565b6139d39190615b2b565b6139dd9190615a20565b905060006139ef8f89600001546145c8565b905060006139fd86886124a3565b8f613a089190615a08565b9050613a148382615a08565b8211613a535780821015613a29576000613a4d565b82613a348284615b4a565b8560020154613a439190615b2b565b613a4d9190615a20565b60028501555b5050613a6083828e614627565b909950975050505b6000613a8f613a7f670de0b6b3a764000087615a08565b613a888f61243c565b5490612487565b905060a760009054906101000a90046001600160a01b03166001600160a01b03166388a42f228e8360006040518463ffffffff1660e01b8152600401613af3939291906001600160401b039390931683526020830191909152604082015260600190565b600060405180830381600087803b158015613b0d57600080fd5b505af1158015613b21573d6000803e3d6000fd5b50505050508a613b308d61243c565b8054600090613b40908490615b4a565b925050819055508915158c6001600160401b03168e6001600160a01b03167fc915235dea7625ad78e3b510156c53e55606173e23b24de4bfdb0c7b9952065f8e8c604051613b98929190918252602082015260400190565b60405180910390a45050505050945094509450949050565b600080613bbb61196d565b90508215613ca1576000613bcd6118eb565b6001600160a01b0316632e1a7d4d613be5888a615a08565b6040518263ffffffff1660e01b8152600401613c0391815260200190565b602060405180830381600087803b158015613c1d57600080fd5b505af1158015613c31573d6000803e3d6000fd5b505050506040513d601f19601f82011682018060405250810190613c5591906154fc565b9050613c618688615a08565b8110613c7857613c718682615b4a565b9650613c98565b868110613c9057613c898782615b4a565b9550613c98565b809650600095505b87925050613dea565b6000613cab6118eb565b6001600160a01b0316632e1a7d4d87613cc48a8c615a08565b613cce9190615a08565b6040518263ffffffff1660e01b8152600401613cec91815260200190565b602060405180830381600087803b158015613d0657600080fd5b505af1158015613d1a573d6000803e3d6000fd5b505050506040513d601f19601f82011682018060405250810190613d3e91906154fc565b889350905085613d4e8885615a08565b613d589190615a08565b8110613d7a5785613d698983615b4a565b613d739190615b4a565b9650613dce565b613d848789615a08565b8110613da65786613d958983615b4a565b613d9f9190615b4a565b9550613dce565b878110613dc257613db78882615b4a565b965060009550613dce565b80925060009650600095505b8215613de857613de86001600160a01b0383168b85611dae565b505b8515613e7f5760a254604080516338af3eed60e01b81529051613e7f926001600160a01b0316916338af3eed916004808301926020929190829003018186803b158015613e3657600080fd5b505afa158015613e4a573d6000803e3d6000fd5b505050506040513d601f19601f82011682018060405250810190613e6e919061534f565b6001600160a01b0383169088611dae565b8415613f2f5760a654613e9f906001600160a01b0383811691168761410e565b60a6546040516316f6849d60e31b81526001600160401b038a1660048201526001600160a01b038381166024830152604482018890529091169063b7b424e890606401600060405180830381600087803b158015613efc57600080fd5b505af1158015613f10573d6000803e3d6000fd5b5050505083851115613f2f57613f2f88613f2a8688615b4a565b614206565b50979650505050505050565b6000613f90826040518060400160405280602081526020017f5361666545524332303a206c6f772d6c6576656c2063616c6c206661696c6564815250856001600160a01b03166149e99092919063ffffffff16565b8051909150156109785780806020019051810190613fae919061545c565b6109785760405162461bcd60e51b815260206004820152602a60248201527f5361666545524332303a204552433230206f7065726174696f6e20646964206e6044820152691bdd081cdd58d8d9595960b21b60648201526084016107c4565b600054610100900460ff1680614026575060005460ff16155b6140425760405162461bcd60e51b81526004016107c4906158a1565b600054610100900460ff16158015614064576000805461ffff19166101011790555b61406c6149f8565b801561407e576000805461ff00191690555b50565b603380546001600160a01b031916339081179091556040516000907f8be0079c531659141344cd1fd0a4f28419497f9722a3daafe3b4186f6b6457e0908290a3565b6000609a6140d2600184615b61565b6001600160401b0316815481106140f957634e487b7160e01b600052603260045260246000fd5b90600052602060002090600302019050919050565b604051636eb1769f60e11b81523060048201526001600160a01b0383811660248301526000919085169063dd62ed3e9060440160206040518083038186803b15801561415957600080fd5b505afa15801561416d573d6000803e3d6000fd5b505050506040513d601f19601f8201168201806040525081019061419191906154fc565b905080156141c9576040516001600160a01b0384166024820152600060448201526141c990859063095ea7b360e01b90606401611dda565b6142008463095ea7b360e01b856141e08686615a08565b6040516001600160a01b0390921660248301526044820152606401611dda565b50505050565b6000614211836140c3565b805490915060009061422b906001600160401b031661243c565b600401546001600160401b03169050428110156142fc578154600160401b90046001600160401b0316818110156142f65760006142688242615b4a565b6142728385615b4a565b61427c9087615b2b565b6142869190615a20565b60a754604051634999011360e11b81526001600160401b0389166004820152602481018390529192506001600160a01b031690639332022690604401600060405180830381600087803b1580156142dc57600080fd5b505af11580156142f0573d6000803e3d6000fd5b50505050505b5061436a565b60a754604051634999011360e11b81526001600160401b0386166004820152602481018590526001600160a01b0390911690639332022690604401600060405180830381600087803b15801561435157600080fd5b505af1158015614365573d6000803e3d6000fd5b505050505b6001600160401b034211156143915760405162461bcd60e51b81526004016107c490615945565b50805467ffffffffffffffff60401b1916600160401b426001600160401b0316021790555050565b606083156143c857508161249c565b8251156143d85782518084602001fd5b8160405162461bcd60e51b81526004016107c4919061588e565b60008080600019858709858702925082811083820303915050806000141561443b5783828161443157634e487b7160e01b600052601260045260246000fd5b049250505061249c565b83811061446557604051631dcf306360e21b815260048101829052602481018590526044016107c4565b60008486880960026001871981018816978890046003810283188082028403028082028403028082028403028082028403028082028403029081029092039091026000889003889004909101858311909403939093029303949094049190911702949350505050565b60008080600019848609848602925082811083820303915050670de0b6b3a764000081106145125760405163698d9a0160e11b8152600481018290526024016107c4565b600080670de0b6b3a76400008688099150506706f05b59d3b1ffff81118261454c5780670de0b6b3a7640000850401945050505050611573565b620400008285030493909111909103600160ee1b02919091177faccb18165bd6fe31ae1cf318dc5b51eee0e1ba569b88cd74c1773b91fac106690201905092915050565b6040516001600160a01b03808516602483015283166044820152606481018290526142009085906323b872dd60e01b90608401611dda565b6000806145d48461243c565b9050600081600101549050612433670de0b6b3a76400008360020154836145fb9190615a08565b6146059190615a08565b61462161461a670de0b6b3a764000085615a08565b8790612487565b906124a3565b6000806000614635866140c3565b600281015460a65460405163bd85b03960e01b81526001600160401b038a166004820152929350600092600160801b92916001600160a01b03169063bd85b0399060240160206040518083038186803b15801561469157600080fd5b505afa1580156146a5573d6000803e3d6000fd5b505050506040513d601f19601f820116820180604052508101906146c991906154fc565b6146d39190615b2b565b6146dd9190615a20565b600183015490915060006146ef6118eb565b6001600160a01b03166321c261206040518163ffffffff1660e01b8152600401602060405180830381600087803b15801561472957600080fd5b505af115801561473d573d6000803e3d6000fd5b505050506040513d601f19601f8201168201806040525081019061476191906154fc565b905060008161477b676765c793fa10079d601b1b86615b2b565b6147859190615a20565b905060008361479f676765c793fa10079d601b1b8c615b2b565b6147a99190615a20565b90508082609b546147ba9190615a08565b106147e0578082609b546147ce9190615a08565b6147d89190615b4a565b609b556147e6565b6000609b555b600186018390556147f7858b615b4a565b60a160008282546148089190615b4a565b909155508a90508461481a8583615b2b565b6148249190615a20565b61482e9190615b4a565b975050505050841561499b578154600090614851906001600160401b031661243c565b6001810154600282015460a454604080516385b3a93160e01b81528151959650939492936000936001600160a01b03909316926385b3a9319260048084019391929182900301818787803b1580156148a857600080fd5b505af11580156148bc573d6000803e3d6000fd5b505050506040513d601f19601f820116820180604052508101906148e09190615478565b60048601549092506149329150670de0b6b3a76400009061491e9061490f9042906001600160401b0316615b4a565b6149199085615b2b565b614a67565b6149289190615b4a565b614621878d615b4a565b965060006149756149438486615a08565b6146218561495988670de0b6b3a7640000615a08565b6149639190615a08565b898f61496f9190615b4a565b90612487565b9050808811156149855780614987565b875b9750614993888a615a08565b985050505050505b60408051858152602081018590526001600160401b038916917f8f0a3cf13ab42f1ec8d1e3df9aa7f0b3219995863af01088afec4c3fef43f79c910160405180910390a25050935093915050565b6060611cc78484600085614aad565b600054610100900460ff1680614a11575060005460ff16155b614a2d5760405162461bcd60e51b81526004016107c4906158a1565b600054610100900460ff16158015614a4f576000805461ffff19166101011790555b60018055801561407e576000805461ff001916905550565b6000680a688906bd8b0000008210614a9557604051634a4f26f160e01b8152600481018390526024016107c4565b670de0b6b3a7640000604083901b0461249c81614bd5565b606082471015614b0e5760405162461bcd60e51b815260206004820152602660248201527f416464726573733a20696e73756666696369656e742062616c616e636520666f6044820152651c8818d85b1b60d21b60648201526084016107c4565b843b614b5c5760405162461bcd60e51b815260206004820152601d60248201527f416464726573733a2063616c6c20746f206e6f6e2d636f6e747261637400000060448201526064016107c4565b600080866001600160a01b03168587604051614b7891906157af565b60006040518083038185875af1925050503d8060008114614bb5576040519150601f19603f3d011682016040523d82523d6000602084013e614bba565b606091505b5091509150614bca8282866143b9565b979650505050505050565b600160bf1b678000000000000000821615614bf95768016a09e667f3bcc9090260401c5b674000000000000000821615614c18576801306fe0a31b7152df0260401c5b672000000000000000821615614c37576801172b83c7d517adce0260401c5b671000000000000000821615614c565768010b5586cf9890f62a0260401c5b670800000000000000821615614c75576801059b0d31585743ae0260401c5b670400000000000000821615614c9457680102c9a3e778060ee70260401c5b670200000000000000821615614cb35768010163da9fb33356d80260401c5b670100000000000000821615614cd257680100b1afa5abcbed610260401c5b6680000000000000821615614cf05768010058c86da1c09ea20260401c5b6640000000000000821615614d0e576801002c605e2e8cec500260401c5b6620000000000000821615614d2c57680100162f3904051fa10260401c5b6610000000000000821615614d4a576801000b175effdc76ba0260401c5b6608000000000000821615614d6857680100058ba01fb9f96d0260401c5b6604000000000000821615614d865768010002c5cc37da94920260401c5b6602000000000000821615614da4576801000162e525ee05470260401c5b6601000000000000821615614dc25768010000b17255775c040260401c5b65800000000000821615614ddf576801000058b91b5bc9ae0260401c5b65400000000000821615614dfc57680100002c5c89d5ec6d0260401c5b65200000000000821615614e195768010000162e43f4f8310260401c5b65100000000000821615614e3657680100000b1721bcfc9a0260401c5b65080000000000821615614e535768010000058b90cf1e6e0260401c5b65040000000000821615614e70576801000002c5c863b73f0260401c5b65020000000000821615614e8d57680100000162e430e5a20260401c5b65010000000000821615614eaa576801000000b1721835510260401c5b648000000000821615614ec657680100000058b90c0b490260401c5b644000000000821615614ee25768010000002c5c8601cc0260401c5b642000000000821615614efe576801000000162e42fff00260401c5b641000000000821615614f1a5768010000000b17217fbb0260401c5b640800000000821615614f36576801000000058b90bfce0260401c5b640400000000821615614f5257680100000002c5c85fe30260401c5b640200000000821615614f6e5768010000000162e42ff10260401c5b640100000000821615614f8a57680100000000b17217f80260401c5b6380000000821615614fa55768010000000058b90bfc0260401c5b6340000000821615614fc0576801000000002c5c85fe0260401c5b6320000000821615614fdb57680100000000162e42ff0260401c5b6310000000821615614ff6576801000000000b17217f0260401c5b630800000082161561501157680100000000058b90c00260401c5b630400000082161561502c5768010000000002c5c8600260401c5b6302000000821615615047576801000000000162e4300260401c5b63010000008216156150625768010000000000b172180260401c5b6280000082161561507c576801000000000058b90c0260401c5b6240000082161561509657680100000000002c5c860260401c5b622000008216156150b05768010000000000162e430260401c5b621000008216156150ca57680100000000000b17210260401c5b620800008216156150e45768010000000000058b910260401c5b620400008216156150fe576801000000000002c5c80260401c5b6202000082161561511857680100000000000162e40260401c5b62010000821615615132576801000000000000b1720260401c5b61800082161561514b57680100000000000058b90260401c5b6140008216156151645768010000000000002c5d0260401c5b61200082161561517d576801000000000000162e0260401c5b6110008216156151965768010000000000000b170260401c5b6108008216156151af576801000000000000058c0260401c5b6104008216156151c857680100000000000002c60260401c5b6102008216156151e157680100000000000001630260401c5b6101008216156151fa57680100000000000000b10260401c5b608082161561521257680100000000000000590260401c5b604082161561522a576801000000000000002c0260401c5b602082161561524257680100000000000000160260401c5b601082161561525a576801000000000000000b0260401c5b600882161561527257680100000000000000060260401c5b600482161561528a57680100000000000000030260401c5b60028216156152a257680100000000000000010260401c5b60018216156152ba57680100000000000000010260401c5b670de0b6b3a76400000260409190911c60bf031c90565b60008083601f8401126152e2578182fd5b5081356001600160401b038111156152f8578182fd5b60208301915083602082850101111561531057600080fd5b9250929050565b80356001600160401b038116811461532e57600080fd5b919050565b600060208284031215615344578081fd5b813561249c81615be6565b600060208284031215615360578081fd5b815161249c81615be6565b6000806040838503121561537d578081fd5b823561538881615be6565b9150602083013561539881615be6565b809150509250929050565b6000806000606084860312156153b7578081fd5b83356153c281615be6565b925060208401356153d281615bfb565b915060408401356153e281615bfb565b809150509250925092565b600080602083850312156153ff578182fd5b82356001600160401b0380821115615415578384fd5b818501915085601f830112615428578384fd5b813581811115615436578485fd5b8660208260051b850101111561544a578485fd5b60209290920196919550909350505050565b60006020828403121561546d578081fd5b815161249c81615bfb565b6000806040838503121561548a578182fd5b825161549581615bfb565b6020939093015192949293505050565b600080602083850312156154b7578182fd5b82356001600160401b038111156154cc578283fd5b6154d8858286016152d1565b90969095509350505050565b6000602082840312156154f5578081fd5b5035919050565b60006020828403121561550d578081fd5b5051919050565b60008060408385031215615526578182fd5b50508035926020909101359150565b60008060408385031215615547578182fd5b8235915061555760208401615317565b90509250929050565b600080600080600060808688031215615577578283fd5b8535945061558760208701615317565b93506040860135925060608601356001600160401b038111156155a8578182fd5b6155b4888289016152d1565b969995985093965092949392505050565b6000602082840312156155d6578081fd5b61249c82615317565b600080604083850312156155f1578182fd5b6155fa83615317565b946020939093013593505050565b600080600080600080600080610100898b031215615624578586fd5b61562d89615317565b975060208901359650604089013561564481615be6565b9550606089013561565481615be6565b9450608089013561566481615be6565b935060a089013561567481615be6565b925060c089013561568481615be6565b915060e089013561569481615be6565b809150509295985092959890939650565b6000806000606084860312156156b9578081fd5b6156c284615317565b92506020840135915060408401356153e281615bfb565b6000806000606084860312156156ed578081fd5b6156f684615317565b95602085013595506040909401359392505050565b6000806040838503121561571d578182fd5b61572683615317565b915061555760208401615317565b60008060008060006080868803121561574b578283fd5b61575486615317565b945061558760208701615317565b600060208284031215615773578081fd5b815160ff8116811461249c578182fd5b6000815180845261579b816020860160208601615b89565b601f01601f19169290920160200192915050565b600082516157c1818460208701615b89565b9190910192915050565b6001600160a01b03841681526001600160401b038316602082015260606040820181905260009061243390830184615783565b6000602080830181845280855180835260408601915060408160051b8701019250838701855b8281101561585257603f19888603018452615840858351615783565b94509285019290850190600101615824565b5092979650505050505050565b60208152816020820152818360408301376000818301604090810191909152601f909201601f19160101919050565b60208152600061249c6020830184615783565b6020808252602e908201527f496e697469616c697a61626c653a20636f6e747261637420697320616c72656160408201526d191e481a5b9a5d1a585b1a5e995960921b606082015260800190565b6020808252818101527f4f776e61626c653a2063616c6c6572206973206e6f7420746865206f776e6572604082015260600190565b60208082526007908201526610905117d5905360ca1b604082015260600190565b6020808252600890820152674f564552464c4f5760c01b604082015260600190565b6020808252601f908201527f5265656e7472616e637947756172643a207265656e7472616e742063616c6c00604082015260600190565b6020808252600c908201526b1393d517d0d3d395149050d560a21b604082015260600190565b6000808335601e198436030181126159da578283fd5b8301803591506001600160401b038211156159f3578283fd5b60200191503681900382131561531057600080fd5b60008219821115615a1b57615a1b615bd0565b500190565b600082615a3b57634e487b7160e01b81526012600452602481fd5b500490565b600181815b80851115615a7b578160001904821115615a6157615a61615bd0565b80851615615a6e57918102915b93841c9390800290615a45565b509250929050565b600061249c8383600082615a9957506001611573565b81615aa657506000611573565b8160018114615abc5760028114615ac657615ae2565b6001915050611573565b60ff841115615ad757615ad7615bd0565b50506001821b611573565b5060208310610133831016604e8410600b8410161715615b05575081810a611573565b615b0f8383615a40565b8060001904821115615b2357615b23615bd0565b029392505050565b6000816000190483118215151615615b4557615b45615bd0565b500290565b600082821015615b5c57615b5c615bd0565b500390565b60006001600160401b0383811690831681811015615b8157615b81615bd0565b039392505050565b60005b83811015615ba4578181015183820152602001615b8c565b838111156142005750506000910152565b6000600019821415615bc957615bc9615bd0565b5060010190565b634e487b7160e01b600052601160045260246000fd5b6001600160a01b038116811461407e57600080fd5b801515811461407e57600080fdfe416464726573733a206c6f772d6c6576656c2064656c65676174652063616c6c206661696c6564a2646970667358221220c443f737a24e970356ee3fe95503e0e715d6662b0aa583476d41e86c9399254064736f6c63430008040033",
  "devdoc": {
    "author": "Zefram Lou",
    "details": "The contract to interact with for most actions",
    "kind": "dev",
    "methods": {
      "calculateInterestAmount(uint256,uint256)": {
        "params": {
          "depositAmount": "The deposit amount, in stablecoins",
          "depositPeriodInSeconds": "The deposit period, in seconds"
        },
        "returns": {
          "interestAmount": "The amount of fixed-rate interest (before fees)"
        }
      },
      "deposit(uint256,uint64)": {
        "details": "The ERC-721 NFT representing deposit ownership is given to msg.sender",
        "params": {
          "depositAmount": "The amount of deposit, in stablecoin",
          "maturationTimestamp": "The Unix timestamp of maturation, in seconds"
        },
        "returns": {
          "depositID": "The ID of the created deposit",
          "interestAmount": "The amount of fixed-rate interest"
        }
      },
      "deposit(uint256,uint64,uint256,string)": {
        "details": "The ERC-721 NFT representing deposit ownership is given to msg.sender",
        "params": {
          "depositAmount": "The amount of deposit, in stablecoin",
          "maturationTimestamp": "The Unix timestamp of maturation, in seconds",
          "minimumInterestAmount": "If the interest amount is less than this, revert",
          "uri": "The metadata URI for the minted NFT"
        },
        "returns": {
          "depositID": "The ID of the created deposit",
          "interestAmount": "The amount of fixed-rate interest"
        }
      },
      "depositsLength()": {
        "returns": {
          "_0": "deposits.length"
        }
      },
      "fund(uint64,uint256)": {
        "details": "The sender receives ERC-1155 multitokens (fundingMultitoken) representing their funding position.",
        "params": {
          "depositID": "The deposit whose fixed-rate interest will be funded",
          "fundAmount": "The amount of stablecoins to pay for the fundingMultitokens. If it exceeds the upper bound, it will be set to the bound value instead. (See {_fund} implementation)"
        },
        "returns": {
          "actualFundAmount": "The amount of stablecoins paid by the sender",
          "fundingID": "The ID of the fundingMultitoken the sender received",
          "fundingMultitokensMinted": "The amount of fundingMultitokens minted to the sender",
          "principalFunded": "The amount of principal the minted fundingMultitokens is earning yield on"
        }
      },
      "fund(uint64,uint256,uint256)": {
        "details": "The sender receives ERC-1155 multitokens (fundingMultitoken) representing their funding position.",
        "params": {
          "depositID": "The deposit whose fixed-rate interest will be funded",
          "fundAmount": "The amount of stablecoins to pay for the fundingMultitokens. If it exceeds the upper bound, it will be set to the bound value instead. (See {_fund} implementation)",
          "minPrincipalFunded": "The minimum amount of principalFunded, below which the tx will revert"
        },
        "returns": {
          "actualFundAmount": "The amount of stablecoins paid by the sender",
          "fundingID": "The ID of the fundingMultitoken the sender received",
          "fundingMultitokensMinted": "The amount of fundingMultitokens minted to the sender",
          "principalFunded": "The amount of principal the minted fundingMultitokens is earning yield on"
        }
      },
      "fundingListLength()": {
        "returns": {
          "_0": "fundingList.length"
        }
      },
      "getDeposit(uint64)": {
        "params": {
          "depositID": "The ID of the deposit"
        },
        "returns": {
          "_0": "The deposit struct"
        }
      },
      "getFunding(uint64)": {
        "params": {
          "fundingID": "The ID of the floating-rate bond"
        },
        "returns": {
          "_0": "The Funding struct"
        }
      },
      "initialize(uint64,uint256,address,address,address,address,address,address)": {
        "params": {
          "_MaxDepositPeriod": "The maximum deposit period, in seconds",
          "_MinDepositAmount": "The minimum deposit amount, in stablecoins",
          "_depositNFT": "Address of the NFT representing ownership of deposits (owner must be set to this DInterest contract)",
          "_feeModel": "Address of the FeeModel contract that determines how fees are charged",
          "_fundingMultitoken": "Address of the ERC1155 multitoken representing ownership of fundings (this DInterest contract must have the minter-burner role)",
          "_interestModel": "Address of the InterestModel contract that determines how much interest to offer",
          "_interestOracle": "Address of the InterestOracle contract that provides the average interest rate",
          "_mphMinter": "Address of the contract for handling minting MPH to users"
        }
      },
      "moneyMarket()": {
        "returns": {
          "_0": "The moneyMarket"
        }
      },
      "multicall(bytes[])": {
        "details": "Receives and executes a batch of function calls on this contract."
      },
      "payInterestToFunders(uint64)": {
        "params": {
          "fundingID": "The ID of the floating-rate bond"
        },
        "returns": {
          "interestAmount": "The amount of interest distributed, in stablecoins"
        }
      },
      "rescue(address,address)": {
        "details": "Need to implement {_authorizeRescue} to do access-control for this function.",
        "params": {
          "target": "The address to send the tokens to",
          "token": "The ERC20 token to rescue"
        }
      },
      "rolloverDeposit(uint64,uint64)": {
        "params": {
          "depositID": "The deposit to roll over",
          "maturationTimestamp": "The Unix timestamp of the new deposit, in seconds"
        },
        "returns": {
          "newDepositID": "The ID of the new deposit"
        }
      },
      "rolloverDeposit(uint64,uint64,uint256,string)": {
        "params": {
          "depositID": "The deposit to roll over",
          "maturationTimestamp": "The Unix timestamp of the new deposit, in seconds",
          "minimumInterestAmount": "If the interest amount is less than this, revert",
          "uri": "The metadata URI of the NFT"
        },
        "returns": {
          "newDepositID": "The ID of the new deposit"
        }
      },
      "stablecoin()": {
        "returns": {
          "_0": "The stablecoin"
        }
      },
      "surplus()": {
        "returns": {
          "isNegative": "True if the surplus is negative, false otherwise",
          "surplusAmount": "The absolute value of the surplus, in stablecoins"
        }
      },
      "topupDeposit(uint64,uint256)": {
        "details": "The interest rate for the topped up funds will be the current oracle rate.",
        "params": {
          "depositAmount": "The amount to top up, in stablecoin",
          "depositID": "The deposit to top up"
        },
        "returns": {
          "interestAmount": "The amount of interest that will be earned by the topped up funds at maturation"
        }
      },
      "topupDeposit(uint64,uint256,uint256)": {
        "details": "The interest rate for the topped up funds will be the current oracle rate.",
        "params": {
          "depositAmount": "The amount to top up, in stablecoin",
          "depositID": "The deposit to top up",
          "minimumInterestAmount": "If the interest amount is less than this, revert"
        },
        "returns": {
          "interestAmount": "The amount of interest that will be earned by the topped up funds at maturation"
        }
      },
      "transferOwnership(address,bool,bool)": {
        "params": {
          "direct": "True if `newOwner` should be set immediately. False if `newOwner` needs to use `claimOwnership`.",
          "newOwner": "Address of the new owner.",
          "renounce": "Allows the `newOwner` to be `address(0)` if `direct` and `renounce` is True. Has no effect otherwise."
        }
      },
      "withdraw(uint64,uint256,bool)": {
        "details": "Virtual tokens behave like zero coupon bonds, after maturation withdrawing 1 virtual token yields 1 stablecoin. The total supply is given by deposit.virtualTokenTotalSupply",
        "params": {
          "depositID": "the deposit to withdraw from",
          "early": "True if intend to withdraw before maturation, false otherwise",
          "virtualTokenAmount": "the amount of virtual tokens to withdraw"
        },
        "returns": {
          "withdrawnStablecoinAmount": "the amount of stablecoins withdrawn"
        }
      }
    },
    "stateVariables": {
      "EXTRA_PRECISION": {
        "details": "used for sumOfRecordedFundedPrincipalAmountDivRecordedIncomeIndex"
      },
      "FUNDER_PAYOUT_THRESHOLD_DIVISOR": {
        "details": "Specifies the threshold for paying out funder interests"
      },
      "GlobalDepositCap": {
        "details": "The maximum amount of deposit in the pool. Set to 0 to disable the cap."
      },
      "MaxDepositPeriod": {
        "details": "Maximum deposit period, in seconds"
      },
      "MinDepositAmount": {
        "details": "Minimum deposit amount, in stablecoins"
      },
      "ULTRA_PRECISION": {
        "details": "used for funding.principalPerToken"
      }
    },
    "title": "DeLorean Interest -- It's coming back from the future!",
    "version": 1
  },
  "userdoc": {
    "errors": {
      "PRBMathUD60x18__Exp2InputTooBig(uint256)": [
        {
          "notice": "Emitted when the input is greater than 192."
        }
      ],
      "PRBMath__MulDivFixedPointOverflow(uint256)": [
        {
          "notice": "Emitted when the result overflows uint256."
        }
      ],
      "PRBMath__MulDivOverflow(uint256,uint256)": [
        {
          "notice": "Emitted when the result overflows uint256."
        }
      ]
    },
    "kind": "user",
    "methods": {
      "calculateInterestAmount(uint256,uint256)": {
        "notice": "Computes the amount of fixed-rate interest (before fees) that will be given to a deposit of `depositAmount` stablecoins that matures in `depositPeriodInSeconds` seconds."
      },
      "claimOwnership()": {
        "notice": "Needs to be called by `pendingOwner` to claim ownership."
      },
      "deposit(uint256,uint64)": {
        "notice": "Create a deposit using `depositAmount` stablecoin that matures at timestamp `maturationTimestamp`."
      },
      "deposit(uint256,uint64,uint256,string)": {
        "notice": "Create a deposit using `depositAmount` stablecoin that matures at timestamp `maturationTimestamp`."
      },
      "depositsLength()": {
        "notice": "Returns the total number of deposits."
      },
      "fund(uint64,uint256)": {
        "notice": "Funds the fixed-rate interest of the deposit with ID `depositID`. In exchange, the funder receives the future floating-rate interest generated by the portion of the deposit whose interest was funded."
      },
      "fund(uint64,uint256,uint256)": {
        "notice": "Funds the fixed-rate interest of the deposit with ID `depositID`. In exchange, the funder receives the future floating-rate interest generated by the portion of the deposit whose interest was funded."
      },
      "fundingListLength()": {
        "notice": "Returns the total number of floating-rate bonds."
      },
      "getDeposit(uint64)": {
        "notice": "Returns the Deposit struct associated with the deposit with ID `depositID`."
      },
      "getFunding(uint64)": {
        "notice": "Returns the Funding struct associated with the floating-rate bond with ID `fundingID`."
      },
      "moneyMarket()": {
        "notice": "Returns the moneyMarket contract"
      },
      "payInterestToFunders(uint64)": {
        "notice": "Distributes the floating-rate interest accrued by a deposit to the floating-rate bond holders."
      },
      "rescue(address,address)": {
        "notice": "Rescues ERC20 tokens sent to the contract in error."
      },
      "rolloverDeposit(uint64,uint64)": {
        "notice": "Withdraw all funds from deposit with ID `depositID` and use them to create a new deposit that matures at time `maturationTimestamp`"
      },
      "rolloverDeposit(uint64,uint64,uint256,string)": {
        "notice": "Withdraw all funds from deposit with ID `depositID` and use them to create a new deposit that matures at time `maturationTimestamp`"
      },
      "setFeeModel(address)": {
        "notice": "Param setters (only callable by the owner)"
      },
      "stablecoin()": {
        "notice": "Returns the stablecoin ERC20 token contract"
      },
      "surplus()": {
        "notice": "Computes the pool's overall surplus, which is the value of its holdings in the `moneyMarket` minus the amount owed to depositors, funders, and the fee beneficiary."
      },
      "topupDeposit(uint64,uint256)": {
        "notice": "Add `depositAmount` stablecoin to the existing deposit with ID `depositID`."
      },
      "topupDeposit(uint64,uint256,uint256)": {
        "notice": "Add `depositAmount` stablecoin to the existing deposit with ID `depositID`."
      },
      "transferOwnership(address,bool,bool)": {
        "notice": "Transfers ownership to `newOwner`. Either directly or claimable by the new pending owner. Can only be invoked by the current `owner`."
      },
      "withdraw(uint64,uint256,bool)": {
        "notice": "Withdraws funds from the deposit with ID `depositID`."
      }
    },
    "notice": "The main pool contract for fixed-rate deposits",
    "version": 1
  },
  "storageLayout": {
    "storage": [
      {
        "astId": 612,
        "contract": "contracts/DInterest.sol:DInterest",
        "label": "_initialized",
        "offset": 0,
        "slot": "0",
        "type": "t_bool"
      },
      {
        "astId": 615,
        "contract": "contracts/DInterest.sol:DInterest",
        "label": "_initializing",
        "offset": 1,
        "slot": "0",
        "type": "t_bool"
      },
      {
        "astId": 666,
        "contract": "contracts/DInterest.sol:DInterest",
        "label": "_status",
        "offset": 0,
        "slot": "1",
        "type": "t_uint256"
      },
      {
        "astId": 709,
        "contract": "contracts/DInterest.sol:DInterest",
        "label": "__gap",
        "offset": 0,
        "slot": "2",
        "type": "t_array(t_uint256)49_storage"
      },
      {
        "astId": 11563,
        "contract": "contracts/DInterest.sol:DInterest",
        "label": "_owner",
        "offset": 0,
        "slot": "51",
        "type": "t_address"
      },
      {
        "astId": 11565,
        "contract": "contracts/DInterest.sol:DInterest",
        "label": "_pendingOwner",
        "offset": 0,
        "slot": "52",
        "type": "t_address"
      },
      {
        "astId": 14850,
        "contract": "contracts/DInterest.sol:DInterest",
        "label": "__gap",
        "offset": 0,
        "slot": "53",
        "type": "t_array(t_uint256)50_storage"
      },
      {
        "astId": 3204,
        "contract": "contracts/DInterest.sol:DInterest",
        "label": "__gap",
        "offset": 0,
        "slot": "103",
        "type": "t_array(t_uint256)50_storage"
      },
      {
        "astId": 5663,
        "contract": "contracts/DInterest.sol:DInterest",
        "label": "deposits",
        "offset": 0,
        "slot": "153",
        "type": "t_array(t_struct(Deposit)5659_storage)dyn_storage"
      },
      {
        "astId": 5676,
        "contract": "contracts/DInterest.sol:DInterest",
        "label": "fundingList",
        "offset": 0,
        "slot": "154",
        "type": "t_array(t_struct(Funding)5672_storage)dyn_storage"
      },
      {
        "astId": 5678,
        "contract": "contracts/DInterest.sol:DInterest",
        "label": "sumOfRecordedFundedPrincipalAmountDivRecordedIncomeIndex",
        "offset": 0,
        "slot": "155",
        "type": "t_uint256"
      },
      {
        "astId": 5681,
        "contract": "contracts/DInterest.sol:DInterest",
        "label": "MaxDepositPeriod",
        "offset": 0,
        "slot": "156",
        "type": "t_uint64"
      },
      {
        "astId": 5684,
        "contract": "contracts/DInterest.sol:DInterest",
        "label": "MinDepositAmount",
        "offset": 0,
        "slot": "157",
        "type": "t_uint256"
      },
      {
        "astId": 5686,
        "contract": "contracts/DInterest.sol:DInterest",
        "label": "totalDeposit",
        "offset": 0,
        "slot": "158",
        "type": "t_uint256"
      },
      {
        "astId": 5688,
        "contract": "contracts/DInterest.sol:DInterest",
        "label": "totalInterestOwed",
        "offset": 0,
        "slot": "159",
        "type": "t_uint256"
      },
      {
        "astId": 5690,
        "contract": "contracts/DInterest.sol:DInterest",
        "label": "totalFeeOwed",
        "offset": 0,
        "slot": "160",
        "type": "t_uint256"
      },
      {
        "astId": 5692,
        "contract": "contracts/DInterest.sol:DInterest",
        "label": "totalFundedPrincipalAmount",
        "offset": 0,
        "slot": "161",
        "type": "t_uint256"
      },
      {
        "astId": 5695,
        "contract": "contracts/DInterest.sol:DInterest",
        "label": "feeModel",
        "offset": 0,
        "slot": "162",
        "type": "t_contract(IFeeModel)17340"
      },
      {
        "astId": 5698,
        "contract": "contracts/DInterest.sol:DInterest",
        "label": "interestModel",
        "offset": 0,
        "slot": "163",
        "type": "t_contract(IInterestModel)17997"
      },
      {
        "astId": 5701,
        "contract": "contracts/DInterest.sol:DInterest",
        "label": "interestOracle",
        "offset": 0,
        "slot": "164",
        "type": "t_contract(IInterestOracle)17979"
      },
      {
        "astId": 5704,
        "contract": "contracts/DInterest.sol:DInterest",
        "label": "depositNFT",
        "offset": 0,
        "slot": "165",
        "type": "t_contract(NFT)25411"
      },
      {
        "astId": 5707,
        "contract": "contracts/DInterest.sol:DInterest",
        "label": "fundingMultitoken",
        "offset": 0,
        "slot": "166",
        "type": "t_contract(FundingMultitoken)25261"
      },
      {
        "astId": 5710,
        "contract": "contracts/DInterest.sol:DInterest",
        "label": "mphMinter",
        "offset": 0,
        "slot": "167",
        "type": "t_contract(MPHMinter)22779"
      },
      {
        "astId": 5713,
        "contract": "contracts/DInterest.sol:DInterest",
        "label": "GlobalDepositCap",
        "offset": 0,
        "slot": "168",
        "type": "t_uint256"
      },
      {
        "astId": 8768,
        "contract": "contracts/DInterest.sol:DInterest",
        "label": "__gap",
        "offset": 0,
        "slot": "169",
        "type": "t_array(t_uint256)32_storage"
      }
    ],
    "types": {
      "t_address": {
        "encoding": "inplace",
        "label": "address",
        "numberOfBytes": "20"
      },
      "t_array(t_struct(Deposit)5659_storage)dyn_storage": {
        "base": "t_struct(Deposit)5659_storage",
        "encoding": "dynamic_array",
        "label": "struct DInterest.Deposit[]",
        "numberOfBytes": "32"
      },
      "t_array(t_struct(Funding)5672_storage)dyn_storage": {
        "base": "t_struct(Funding)5672_storage",
        "encoding": "dynamic_array",
        "label": "struct DInterest.Funding[]",
        "numberOfBytes": "32"
      },
      "t_array(t_uint256)32_storage": {
        "base": "t_uint256",
        "encoding": "inplace",
        "label": "uint256[32]",
        "numberOfBytes": "1024"
      },
      "t_array(t_uint256)49_storage": {
        "base": "t_uint256",
        "encoding": "inplace",
        "label": "uint256[49]",
        "numberOfBytes": "1568"
      },
      "t_array(t_uint256)50_storage": {
        "base": "t_uint256",
        "encoding": "inplace",
        "label": "uint256[50]",
        "numberOfBytes": "1600"
      },
      "t_bool": {
        "encoding": "inplace",
        "label": "bool",
        "numberOfBytes": "1"
      },
      "t_contract(FundingMultitoken)25261": {
        "encoding": "inplace",
        "label": "contract FundingMultitoken",
        "numberOfBytes": "20"
      },
      "t_contract(IFeeModel)17340": {
        "encoding": "inplace",
        "label": "contract IFeeModel",
        "numberOfBytes": "20"
      },
      "t_contract(IInterestModel)17997": {
        "encoding": "inplace",
        "label": "contract IInterestModel",
        "numberOfBytes": "20"
      },
      "t_contract(IInterestOracle)17979": {
        "encoding": "inplace",
        "label": "contract IInterestOracle",
        "numberOfBytes": "20"
      },
      "t_contract(MPHMinter)22779": {
        "encoding": "inplace",
        "label": "contract MPHMinter",
        "numberOfBytes": "20"
      },
      "t_contract(NFT)25411": {
        "encoding": "inplace",
        "label": "contract NFT",
        "numberOfBytes": "20"
      },
      "t_struct(Deposit)5659_storage": {
        "encoding": "inplace",
        "label": "struct DInterest.Deposit",
        "members": [
          {
            "astId": 5648,
            "contract": "contracts/DInterest.sol:DInterest",
            "label": "virtualTokenTotalSupply",
            "offset": 0,
            "slot": "0",
            "type": "t_uint256"
          },
          {
            "astId": 5650,
            "contract": "contracts/DInterest.sol:DInterest",
            "label": "interestRate",
            "offset": 0,
            "slot": "1",
            "type": "t_uint256"
          },
          {
            "astId": 5652,
            "contract": "contracts/DInterest.sol:DInterest",
            "label": "feeRate",
            "offset": 0,
            "slot": "2",
            "type": "t_uint256"
          },
          {
            "astId": 5654,
            "contract": "contracts/DInterest.sol:DInterest",
            "label": "averageRecordedIncomeIndex",
            "offset": 0,
            "slot": "3",
            "type": "t_uint256"
          },
          {
            "astId": 5656,
            "contract": "contracts/DInterest.sol:DInterest",
            "label": "maturationTimestamp",
            "offset": 0,
            "slot": "4",
            "type": "t_uint64"
          },
          {
            "astId": 5658,
            "contract": "contracts/DInterest.sol:DInterest",
            "label": "fundingID",
            "offset": 8,
            "slot": "4",
            "type": "t_uint64"
          }
        ],
        "numberOfBytes": "160"
      },
      "t_struct(Funding)5672_storage": {
        "encoding": "inplace",
        "label": "struct DInterest.Funding",
        "members": [
          {
            "astId": 5665,
            "contract": "contracts/DInterest.sol:DInterest",
            "label": "depositID",
            "offset": 0,
            "slot": "0",
            "type": "t_uint64"
          },
          {
            "astId": 5667,
            "contract": "contracts/DInterest.sol:DInterest",
            "label": "lastInterestPayoutTimestamp",
            "offset": 8,
            "slot": "0",
            "type": "t_uint64"
          },
          {
            "astId": 5669,
            "contract": "contracts/DInterest.sol:DInterest",
            "label": "recordedMoneyMarketIncomeIndex",
            "offset": 0,
            "slot": "1",
            "type": "t_uint256"
          },
          {
            "astId": 5671,
            "contract": "contracts/DInterest.sol:DInterest",
            "label": "principalPerToken",
            "offset": 0,
            "slot": "2",
            "type": "t_uint256"
          }
        ],
        "numberOfBytes": "96"
      },
      "t_uint256": {
        "encoding": "inplace",
        "label": "uint256",
        "numberOfBytes": "32"
      },
      "t_uint64": {
        "encoding": "inplace",
        "label": "uint64",
        "numberOfBytes": "8"
      }
    }
  }
}