{
  "address": "0xF9Ecd9D73e7bA14B2014607Fe46E2fb0e2011d8A",
  "abi": [
    {
      "anonymous": false,
      "inputs": [
        {
          "indexed": true,
          "internalType": "address",
          "name": "owner",
          "type": "address"
        },
        {
          "indexed": true,
          "internalType": "address",
          "name": "approved",
          "type": "address"
        },
        {
          "indexed": true,
          "internalType": "uint256",
          "name": "tokenId",
          "type": "uint256"
        }
      ],
      "name": "Approval",
      "type": "event"
    },
    {
      "anonymous": false,
      "inputs": [
        {
          "indexed": true,
          "internalType": "address",
          "name": "owner",
          "type": "address"
        },
        {
          "indexed": true,
          "internalType": "address",
          "name": "operator",
          "type": "address"
        },
        {
          "indexed": false,
          "internalType": "bool",
          "name": "approved",
          "type": "bool"
        }
      ],
      "name": "ApprovalForAll",
      "type": "event"
    },
    {
      "anonymous": false,
      "inputs": [
        {
          "indexed": true,
          "internalType": "address",
          "name": "previousOwner",
          "type": "address"
        },
        {
          "indexed": true,
          "internalType": "address",
          "name": "newOwner",
          "type": "address"
        }
      ],
      "name": "OwnershipTransferred",
      "type": "event"
    },
    {
      "anonymous": false,
      "inputs": [
        {
          "indexed": true,
          "internalType": "address",
          "name": "from",
          "type": "address"
        },
        {
          "indexed": true,
          "internalType": "address",
          "name": "to",
          "type": "address"
        },
        {
          "indexed": true,
          "internalType": "uint256",
          "name": "tokenId",
          "type": "uint256"
        }
      ],
      "name": "Transfer",
      "type": "event"
    },
    {
      "inputs": [
        {
          "internalType": "address",
          "name": "to",
          "type": "address"
        },
        {
          "internalType": "uint256",
          "name": "tokenId",
          "type": "uint256"
        }
      ],
      "name": "approve",
      "outputs": [],
      "stateMutability": "nonpayable",
      "type": "function"
    },
    {
      "inputs": [
        {
          "internalType": "address",
          "name": "owner",
          "type": "address"
        }
      ],
      "name": "balanceOf",
      "outputs": [
        {
          "internalType": "uint256",
          "name": "",
          "type": "uint256"
        }
      ],
      "stateMutability": "view",
      "type": "function"
    },
    {
      "inputs": [
        {
          "internalType": "uint256",
          "name": "tokenId",
          "type": "uint256"
        }
      ],
      "name": "burn",
      "outputs": [],
      "stateMutability": "nonpayable",
      "type": "function"
    },
    {
      "inputs": [],
      "name": "contractURI",
      "outputs": [
        {
          "internalType": "string",
          "name": "",
          "type": "string"
        }
      ],
      "stateMutability": "view",
      "type": "function"
    },
    {
      "inputs": [
        {
          "internalType": "uint256",
          "name": "tokenId",
          "type": "uint256"
        }
      ],
      "name": "getApproved",
      "outputs": [
        {
          "internalType": "address",
          "name": "",
          "type": "address"
        }
      ],
      "stateMutability": "view",
      "type": "function"
    },
    {
      "inputs": [
        {
          "internalType": "string",
          "name": "tokenName",
          "type": "string"
        },
        {
          "internalType": "string",
          "name": "tokenSymbol",
          "type": "string"
        }
      ],
      "name": "initialize",
      "outputs": [],
      "stateMutability": "nonpayable",
      "type": "function"
    },
    {
      "inputs": [
        {
          "internalType": "address",
          "name": "owner",
          "type": "address"
        },
        {
          "internalType": "address",
          "name": "operator",
          "type": "address"
        }
      ],
      "name": "isApprovedForAll",
      "outputs": [
        {
          "internalType": "bool",
          "name": "",
          "type": "bool"
        }
      ],
      "stateMutability": "view",
      "type": "function"
    },
    {
      "inputs": [
        {
          "internalType": "address",
          "name": "to",
          "type": "address"
        },
        {
          "internalType": "uint256",
          "name": "tokenId",
          "type": "uint256"
        }
      ],
      "name": "mint",
      "outputs": [],
      "stateMutability": "nonpayable",
      "type": "function"
    },
    {
      "inputs": [
        {
          "internalType": "address",
          "name": "to",
          "type": "address"
        },
        {
          "internalType": "uint256",
          "name": "tokenId",
          "type": "uint256"
        },
        {
          "internalType": "string",
          "name": "uri",
          "type": "string"
        }
      ],
      "name": "mint",
      "outputs": [],
      "stateMutability": "nonpayable",
      "type": "function"
    },
    {
      "inputs": [],
      "name": "name",
      "outputs": [
        {
          "internalType": "string",
          "name": "",
          "type": "string"
        }
      ],
      "stateMutability": "view",
      "type": "function"
    },
    {
      "inputs": [],
      "name": "owner",
      "outputs": [
        {
          "internalType": "address",
          "name": "",
          "type": "address"
        }
      ],
      "stateMutability": "view",
      "type": "function"
    },
    {
      "inputs": [
        {
          "internalType": "uint256",
          "name": "tokenId",
          "type": "uint256"
        }
      ],
      "name": "ownerOf",
      "outputs": [
        {
          "internalType": "address",
          "name": "",
          "type": "address"
        }
      ],
      "stateMutability": "view",
      "type": "function"
    },
    {
      "inputs": [],
      "name": "renounceOwnership",
      "outputs": [],
      "stateMutability": "nonpayable",
      "type": "function"
    },
    {
      "inputs": [
        {
          "internalType": "address",
          "name": "from",
          "type": "address"
        },
        {
          "internalType": "address",
          "name": "to",
          "type": "address"
        },
        {
          "internalType": "uint256",
          "name": "tokenId",
          "type": "uint256"
        }
      ],
      "name": "safeTransferFrom",
      "outputs": [],
      "stateMutability": "nonpayable",
      "type": "function"
    },
    {
      "inputs": [
        {
          "internalType": "address",
          "name": "from",
          "type": "address"
        },
        {
          "internalType": "address",
          "name": "to",
          "type": "address"
        },
        {
          "internalType": "uint256",
          "name": "tokenId",
          "type": "uint256"
        },
        {
          "internalType": "bytes",
          "name": "_data",
          "type": "bytes"
        }
      ],
      "name": "safeTransferFrom",
      "outputs": [],
      "stateMutability": "nonpayable",
      "type": "function"
    },
    {
      "inputs": [
        {
          "internalType": "address",
          "name": "operator",
          "type": "address"
        },
        {
          "internalType": "bool",
          "name": "approved",
          "type": "bool"
        }
      ],
      "name": "setApprovalForAll",
      "outputs": [],
      "stateMutability": "nonpayable",
      "type": "function"
    },
    {
      "inputs": [
        {
          "internalType": "string",
          "name": "newURI",
          "type": "string"
        }
      ],
      "name": "setBaseURI",
      "outputs": [],
      "stateMutability": "nonpayable",
      "type": "function"
    },
    {
      "inputs": [
        {
          "internalType": "string",
          "name": "newURI",
          "type": "string"
        }
      ],
      "name": "setContractURI",
      "outputs": [],
      "stateMutability": "nonpayable",
      "type": "function"
    },
    {
      "inputs": [
        {
          "internalType": "uint256",
          "name": "tokenId",
          "type": "uint256"
        },
        {
          "internalType": "string",
          "name": "newURI",
          "type": "string"
        }
      ],
      "name": "setTokenURI",
      "outputs": [],
      "stateMutability": "nonpayable",
      "type": "function"
    },
    {
      "inputs": [
        {
          "internalType": "bytes4",
          "name": "interfaceId",
          "type": "bytes4"
        }
      ],
      "name": "supportsInterface",
      "outputs": [
        {
          "internalType": "bool",
          "name": "",
          "type": "bool"
        }
      ],
      "stateMutability": "view",
      "type": "function"
    },
    {
      "inputs": [],
      "name": "symbol",
      "outputs": [
        {
          "internalType": "string",
          "name": "",
          "type": "string"
        }
      ],
      "stateMutability": "view",
      "type": "function"
    },
    {
      "inputs": [
        {
          "internalType": "uint256",
          "name": "tokenId",
          "type": "uint256"
        }
      ],
      "name": "tokenURI",
      "outputs": [
        {
          "internalType": "string",
          "name": "",
          "type": "string"
        }
      ],
      "stateMutability": "view",
      "type": "function"
    },
    {
      "inputs": [
        {
          "internalType": "address",
          "name": "from",
          "type": "address"
        },
        {
          "internalType": "address",
          "name": "to",
          "type": "address"
        },
        {
          "internalType": "uint256",
          "name": "tokenId",
          "type": "uint256"
        }
      ],
      "name": "transferFrom",
      "outputs": [],
      "stateMutability": "nonpayable",
      "type": "function"
    },
    {
      "inputs": [
        {
          "internalType": "address",
          "name": "newOwner",
          "type": "address"
        }
      ],
      "name": "transferOwnership",
      "outputs": [],
      "stateMutability": "nonpayable",
      "type": "function"
    }
  ],
  "transactionHash": "0xbc151ba105484ef60017c66e7111beb37e7e82460857602e2e043d8b8233306a",
  "args": [],
  "solcInputHash": "bfb1e6bddb904a33a918ee2378400627",
  "bytecode": "0x608060405234801561001057600080fd5b506123c8806100206000396000f3fe608060405234801561001057600080fd5b50600436106101585760003560e01c806370a08231116100c3578063b88d4fde1161007c578063b88d4fde146102da578063c87b56dd146102ed578063d3fc986414610300578063e8a3d48514610313578063e985e9c51461031b578063f2fde38b1461035757600080fd5b806370a0823114610272578063715018a6146102935780638da5cb5b1461029b578063938e3d7b146102ac57806395d89b41146102bf578063a22cb465146102c757600080fd5b806340c10f191161011557806340c10f191461020057806342842e0e1461021357806342966c68146102265780634cd88b761461023957806355f804b31461024c5780636352211e1461025f57600080fd5b806301ffc9a71461015d57806306fdde0314610185578063081812fc1461019a578063095ea7b3146101c5578063162094c4146101da57806323b872dd146101ed575b600080fd5b61017061016b366004611e38565b61036a565b60405190151581526020015b60405180910390f35b61018d6103bc565b60405161017c919061207a565b6101ad6101a8366004611f80565b61044e565b6040516001600160a01b03909116815260200161017c565b6101d86101d3366004611db7565b6104db565b005b6101d86101e8366004611f98565b6105f1565b6101d86101fb366004611c9f565b610688565b6101d861020e366004611db7565b6106b9565b6101d8610221366004611c9f565b6106f1565b6101d8610234366004611f80565b61070c565b6101d8610247366004611eb0565b610742565b6101d861025a366004611e70565b61082d565b6101ad61026d366004611f80565b610863565b610285610280366004611c53565b6108da565b60405190815260200161017c565b6101d8610961565b60c9546001600160a01b03166101ad565b6101d86102ba366004611e70565b6109d5565b61018d610a0b565b6101d86102d5366004611d7d565b610a1a565b6101d86102e8366004611cda565b610adf565b61018d6102fb366004611f80565b610b17565b6101d861030e366004611de0565b610c00565b61018d610c74565b610170610329366004611c6d565b6001600160a01b039182166000908152606a6020908152604080832093909416825291909152205460ff1690565b6101d8610365366004611c53565b610c83565b60006001600160e01b031982166380ac58cd60e01b148061039b57506001600160e01b03198216635b5e139f60e01b145b806103b657506301ffc9a760e01b6001600160e01b03198316145b92915050565b6060606580546103cb906122d0565b80601f01602080910402602001604051908101604052809291908181526020018280546103f7906122d0565b80156104445780601f1061041957610100808354040283529160200191610444565b820191906000526020600020905b81548152906001019060200180831161042757829003601f168201915b5050505050905090565b600061045982610d6e565b6104bf5760405162461bcd60e51b815260206004820152602c60248201527f4552433732313a20617070726f76656420717565727920666f72206e6f6e657860448201526b34b9ba32b73a103a37b5b2b760a11b60648201526084015b60405180910390fd5b506000908152606960205260409020546001600160a01b031690565b60006104e682610863565b9050806001600160a01b0316836001600160a01b031614156105545760405162461bcd60e51b815260206004820152602160248201527f4552433732313a20617070726f76616c20746f2063757272656e74206f776e656044820152603960f91b60648201526084016104b6565b336001600160a01b038216148061057057506105708133610329565b6105e25760405162461bcd60e51b815260206004820152603860248201527f4552433732313a20617070726f76652063616c6c6572206973206e6f74206f7760448201527f6e6572206e6f7220617070726f76656420666f7220616c6c000000000000000060648201526084016104b6565b6105ec8383610d8b565b505050565b336105fb84610863565b6001600160a01b0316146106485760405162461bcd60e51b815260206004820152601460248201527327232a1d103737ba103a37b5b2b71037bbb732b960611b60448201526064016104b6565b6105ec8383838080601f016020809104026020016040519081016040528093929190818152602001838380828437600092019190915250610df992505050565b6106923382610e84565b6106ae5760405162461bcd60e51b81526004016104b690612162565b6105ec838383610f6e565b60c9546001600160a01b031633146106e35760405162461bcd60e51b81526004016104b69061212d565b6106ed828261110e565b5050565b6105ec83838360405180602001604052806000815250610adf565b60c9546001600160a01b031633146107365760405162461bcd60e51b81526004016104b69061212d565b61073f81611128565b50565b600054610100900460ff168061075b575060005460ff16155b6107775760405162461bcd60e51b81526004016104b6906120df565b600054610100900460ff16158015610799576000805461ffff19166101011790555b6107a1611168565b61081485858080601f01602080910402602001604051908101604052809392919081815260200183838082843760009201919091525050604080516020601f890181900481028201810190925287815292508791508690819084018382808284376000920191909152506111e392505050565b8015610826576000805461ff00191690555b5050505050565b60c9546001600160a01b031633146108575760405162461bcd60e51b81526004016104b69061212d565b6105ec60fc8383611aad565b6000818152606760205260408120546001600160a01b0316806103b65760405162461bcd60e51b815260206004820152602960248201527f4552433732313a206f776e657220717565727920666f72206e6f6e657869737460448201526832b73a103a37b5b2b760b91b60648201526084016104b6565b60006001600160a01b0382166109455760405162461bcd60e51b815260206004820152602a60248201527f4552433732313a2062616c616e636520717565727920666f7220746865207a65604482015269726f206164647265737360b01b60648201526084016104b6565b506001600160a01b031660009081526068602052604090205490565b60c9546001600160a01b0316331461098b5760405162461bcd60e51b81526004016104b69061212d565b60c9546040516000916001600160a01b0316907f8be0079c531659141344cd1fd0a4f28419497f9722a3daafe3b4186f6b6457e0908390a360c980546001600160a01b0319169055565b60c9546001600160a01b031633146109ff5760405162461bcd60e51b81526004016104b69061212d565b6105ec60fb8383611aad565b6060606680546103cb906122d0565b6001600160a01b038216331415610a735760405162461bcd60e51b815260206004820152601960248201527f4552433732313a20617070726f766520746f2063616c6c65720000000000000060448201526064016104b6565b336000818152606a602090815260408083206001600160a01b03871680855290835292819020805460ff191686151590811790915590519081529192917f17307eab39ab6107e8899845ad3d59bd9653f200f220920489ca2b5937696c31910160405180910390a35050565b610ae93383610e84565b610b055760405162461bcd60e51b81526004016104b690612162565b610b118484848461126a565b50505050565b60606000610b248361129d565b905060008151116103b6577397d26b3e00E0bB81576f0a00D47A56F6ABd1746A630e1d809e6040518060800160405280868152602001610b6387610863565b6001600160a01b03168152602001610b796103bc565b8152602001610b86610a0b565b8152506040518263ffffffff1660e01b8152600401610ba591906121b3565b60006040518083038186803b158015610bbd57600080fd5b505af4158015610bd1573d6000803e3d6000fd5b505050506040513d6000823e601f3d908101601f19168201604052610bf99190810190611f0d565b9392505050565b60c9546001600160a01b03163314610c2a5760405162461bcd60e51b81526004016104b69061212d565b610c34848461110e565b610b118383838080601f016020809104026020016040519081016040528093929190818152602001838380828437600092019190915250610df992505050565b606060fb80546103cb906122d0565b60c9546001600160a01b03163314610cad5760405162461bcd60e51b81526004016104b69061212d565b6001600160a01b038116610d125760405162461bcd60e51b815260206004820152602660248201527f4f776e61626c653a206e6577206f776e657220697320746865207a65726f206160448201526564647265737360d01b60648201526084016104b6565b60c9546040516001600160a01b038084169216907f8be0079c531659141344cd1fd0a4f28419497f9722a3daafe3b4186f6b6457e090600090a360c980546001600160a01b0319166001600160a01b0392909216919091179055565b6000908152606760205260409020546001600160a01b0316151590565b600081815260696020526040902080546001600160a01b0319166001600160a01b0384169081179091558190610dc082610863565b6001600160a01b03167f8c5be1e5ebec7d5bd14f71427d1e84f3dd0314c0f7b2291e5b200ac8c7c3b92560405160405180910390a45050565b610e0282610d6e565b610e655760405162461bcd60e51b815260206004820152602e60248201527f45524337323155524953746f726167653a2055524920736574206f66206e6f6e60448201526d32bc34b9ba32b73a103a37b5b2b760911b60648201526084016104b6565b600082815260976020908152604090912082516105ec92840190611b31565b6000610e8f82610d6e565b610ef05760405162461bcd60e51b815260206004820152602c60248201527f4552433732313a206f70657261746f7220717565727920666f72206e6f6e657860448201526b34b9ba32b73a103a37b5b2b760a11b60648201526084016104b6565b6000610efb83610863565b9050806001600160a01b0316846001600160a01b03161480610f365750836001600160a01b0316610f2b8461044e565b6001600160a01b0316145b80610f6657506001600160a01b038082166000908152606a602090815260408083209388168352929052205460ff165b949350505050565b826001600160a01b0316610f8182610863565b6001600160a01b031614610fe95760405162461bcd60e51b815260206004820152602960248201527f4552433732313a207472616e73666572206f6620746f6b656e2074686174206960448201526839903737ba1037bbb760b91b60648201526084016104b6565b6001600160a01b03821661104b5760405162461bcd60e51b8152602060048201526024808201527f4552433732313a207472616e7366657220746f20746865207a65726f206164646044820152637265737360e01b60648201526084016104b6565b611056600082610d8b565b6001600160a01b038316600090815260686020526040812080546001929061107f90849061228d565b90915550506001600160a01b03821660009081526068602052604081208054600192906110ad908490612261565b909155505060008181526067602052604080822080546001600160a01b0319166001600160a01b0386811691821790925591518493918716917fddf252ad1be2c89b69c2b068fc378daa952ba7f163c4a11628f55a4df523b3ef91a4505050565b6106ed8282604051806020016040528060008152506113ff565b61113181611432565b6000818152609760205260409020805461114a906122d0565b15905061073f57600081815260976020526040812061073f91611ba5565b600054610100900460ff1680611181575060005460ff16155b61119d5760405162461bcd60e51b81526004016104b6906120df565b600054610100900460ff161580156111bf576000805461ffff19166101011790555b6111c76114cd565b6111cf611537565b801561073f576000805461ff001916905550565b600054610100900460ff16806111fc575060005460ff16155b6112185760405162461bcd60e51b81526004016104b6906120df565b600054610100900460ff1615801561123a576000805461ffff19166101011790555b6112426114cd565b61124a6114cd565b61125483836115e5565b80156105ec576000805461ff0019169055505050565b611275848484610f6e565b6112818484848461167a565b610b115760405162461bcd60e51b81526004016104b69061208d565b60606112a882610d6e565b61130e5760405162461bcd60e51b815260206004820152603160248201527f45524337323155524953746f726167653a2055524920717565727920666f72206044820152703737b732bc34b9ba32b73a103a37b5b2b760791b60648201526084016104b6565b60008281526097602052604081208054611327906122d0565b80601f0160208091040260200160405190810160405280929190818152602001828054611353906122d0565b80156113a05780601f10611375576101008083540402835291602001916113a0565b820191906000526020600020905b81548152906001019060200180831161138357829003601f168201915b5050505050905060006113b1611787565b90508051600014156113c4575092915050565b8151156113f65780826040516020016113de92919061200e565b60405160208183030381529060405292505050919050565b610f6684611796565b6114098383611860565b611416600084848461167a565b6105ec5760405162461bcd60e51b81526004016104b69061208d565b600061143d82610863565b905061144a600083610d8b565b6001600160a01b038116600090815260686020526040812080546001929061147390849061228d565b909155505060008281526067602052604080822080546001600160a01b0319169055518391906001600160a01b038416907fddf252ad1be2c89b69c2b068fc378daa952ba7f163c4a11628f55a4df523b3ef908390a45050565b600054610100900460ff16806114e6575060005460ff16155b6115025760405162461bcd60e51b81526004016104b6906120df565b600054610100900460ff161580156111cf576000805461ffff1916610101179055801561073f576000805461ff001916905550565b600054610100900460ff1680611550575060005460ff16155b61156c5760405162461bcd60e51b81526004016104b6906120df565b600054610100900460ff1615801561158e576000805461ffff19166101011790555b60c980546001600160a01b0319163390811790915560405181906000907f8be0079c531659141344cd1fd0a4f28419497f9722a3daafe3b4186f6b6457e0908290a350801561073f576000805461ff001916905550565b600054610100900460ff16806115fe575060005460ff16155b61161a5760405162461bcd60e51b81526004016104b6906120df565b600054610100900460ff1615801561163c576000805461ffff19166101011790555b825161164f906065906020860190611b31565b508151611663906066906020850190611b31565b5080156105ec576000805461ff0019169055505050565b60006001600160a01b0384163b1561177c57604051630a85bd0160e11b81526001600160a01b0385169063150b7a02906116be90339089908890889060040161203d565b602060405180830381600087803b1580156116d857600080fd5b505af1925050508015611708575060408051601f3d908101601f1916820190925261170591810190611e54565b60015b611762573d808015611736576040519150601f19603f3d011682016040523d82523d6000602084013e61173b565b606091505b50805161175a5760405162461bcd60e51b81526004016104b69061208d565b805181602001fd5b6001600160e01b031916630a85bd0160e11b149050610f66565b506001949350505050565b606060fc80546103cb906122d0565b60606117a182610d6e565b6118055760405162461bcd60e51b815260206004820152602f60248201527f4552433732314d657461646174613a2055524920717565727920666f72206e6f60448201526e3732bc34b9ba32b73a103a37b5b2b760891b60648201526084016104b6565b600061180f611787565b9050600081511161182f5760405180602001604052806000815250610bf9565b8061183984611993565b60405160200161184a92919061200e565b6040516020818303038152906040529392505050565b6001600160a01b0382166118b65760405162461bcd60e51b815260206004820181905260248201527f4552433732313a206d696e7420746f20746865207a65726f206164647265737360448201526064016104b6565b6118bf81610d6e565b1561190c5760405162461bcd60e51b815260206004820152601c60248201527f4552433732313a20746f6b656e20616c7265616479206d696e7465640000000060448201526064016104b6565b6001600160a01b0382166000908152606860205260408120805460019290611935908490612261565b909155505060008181526067602052604080822080546001600160a01b0319166001600160a01b03861690811790915590518392907fddf252ad1be2c89b69c2b068fc378daa952ba7f163c4a11628f55a4df523b3ef908290a45050565b6060816119b75750506040805180820190915260018152600360fc1b602082015290565b8160005b81156119e157806119cb8161230b565b91506119da9050600a83612279565b91506119bb565b60008167ffffffffffffffff811115611a0a57634e487b7160e01b600052604160045260246000fd5b6040519080825280601f01601f191660200182016040528015611a34576020820181803683370190505b5090505b8415610f6657611a4960018361228d565b9150611a56600a86612326565b611a61906030612261565b60f81b818381518110611a8457634e487b7160e01b600052603260045260246000fd5b60200101906001600160f81b031916908160001a905350611aa6600a86612279565b9450611a38565b828054611ab9906122d0565b90600052602060002090601f016020900481019282611adb5760008555611b21565b82601f10611af45782800160ff19823516178555611b21565b82800160010185558215611b21579182015b82811115611b21578235825591602001919060010190611b06565b50611b2d929150611bdb565b5090565b828054611b3d906122d0565b90600052602060002090601f016020900481019282611b5f5760008555611b21565b82601f10611b7857805160ff1916838001178555611b21565b82800160010185558215611b21579182015b82811115611b21578251825591602001919060010190611b8a565b508054611bb1906122d0565b6000825580601f10611bc1575050565b601f01602090049060005260206000209081019061073f91905b5b80821115611b2d5760008155600101611bdc565b80356001600160a01b0381168114611c0757600080fd5b919050565b60008083601f840112611c1d578182fd5b50813567ffffffffffffffff811115611c34578182fd5b602083019150836020828501011115611c4c57600080fd5b9250929050565b600060208284031215611c64578081fd5b610bf982611bf0565b60008060408385031215611c7f578081fd5b611c8883611bf0565b9150611c9660208401611bf0565b90509250929050565b600080600060608486031215611cb3578081fd5b611cbc84611bf0565b9250611cca60208501611bf0565b9150604084013590509250925092565b60008060008060808587031215611cef578081fd5b611cf885611bf0565b9350611d0660208601611bf0565b925060408501359150606085013567ffffffffffffffff811115611d28578182fd5b8501601f81018713611d38578182fd5b8035611d4b611d4682612239565b612208565b818152886020838501011115611d5f578384fd5b81602084016020830137908101602001929092525092959194509250565b60008060408385031215611d8f578182fd5b611d9883611bf0565b915060208301358015158114611dac578182fd5b809150509250929050565b60008060408385031215611dc9578182fd5b611dd283611bf0565b946020939093013593505050565b60008060008060608587031215611df5578384fd5b611dfe85611bf0565b935060208501359250604085013567ffffffffffffffff811115611e20578283fd5b611e2c87828801611c0c565b95989497509550505050565b600060208284031215611e49578081fd5b8135610bf98161237c565b600060208284031215611e65578081fd5b8151610bf98161237c565b60008060208385031215611e82578182fd5b823567ffffffffffffffff811115611e98578283fd5b611ea485828601611c0c565b90969095509350505050565b60008060008060408587031215611ec5578384fd5b843567ffffffffffffffff80821115611edc578586fd5b611ee888838901611c0c565b90965094506020870135915080821115611f00578384fd5b50611e2c87828801611c0c565b600060208284031215611f1e578081fd5b815167ffffffffffffffff811115611f34578182fd5b8201601f81018413611f44578182fd5b8051611f52611d4682612239565b818152856020838501011115611f66578384fd5b611f778260208301602086016122a4565b95945050505050565b600060208284031215611f91578081fd5b5035919050565b600080600060408486031215611fac578081fd5b83359250602084013567ffffffffffffffff811115611fc9578182fd5b611fd586828701611c0c565b9497909650939450505050565b60008151808452611ffa8160208601602086016122a4565b601f01601f19169290920160200192915050565b600083516120208184602088016122a4565b8351908301906120348183602088016122a4565b01949350505050565b6001600160a01b038581168252841660208201526040810183905260806060820181905260009061207090830184611fe2565b9695505050505050565b602081526000610bf96020830184611fe2565b60208082526032908201527f4552433732313a207472616e7366657220746f206e6f6e20455243373231526560408201527131b2b4bb32b91034b6b83632b6b2b73a32b960711b606082015260800190565b6020808252602e908201527f496e697469616c697a61626c653a20636f6e747261637420697320616c72656160408201526d191e481a5b9a5d1a585b1a5e995960921b606082015260800190565b6020808252818101527f4f776e61626c653a2063616c6c6572206973206e6f7420746865206f776e6572604082015260600190565b60208082526031908201527f4552433732313a207472616e736665722063616c6c6572206973206e6f74206f6040820152701ddb995c881b9bdc88185c1c1c9bdd9959607a1b606082015260800190565b602081528151602082015260018060a01b03602083015116604082015260006040830151608060608401526121eb60a0840182611fe2565b90506060840151601f19848303016080850152611f778282611fe2565b604051601f8201601f1916810167ffffffffffffffff8111828210171561223157612231612366565b604052919050565b600067ffffffffffffffff82111561225357612253612366565b50601f01601f191660200190565b600082198211156122745761227461233a565b500190565b60008261228857612288612350565b500490565b60008282101561229f5761229f61233a565b500390565b60005b838110156122bf5781810151838201526020016122a7565b83811115610b115750506000910152565b600181811c908216806122e457607f821691505b6020821081141561230557634e487b7160e01b600052602260045260246000fd5b50919050565b600060001982141561231f5761231f61233a565b5060010190565b60008261233557612335612350565b500690565b634e487b7160e01b600052601160045260246000fd5b634e487b7160e01b600052601260045260246000fd5b634e487b7160e01b600052604160045260246000fd5b6001600160e01b03198116811461073f57600080fdfea2646970667358221220f82764904781dfc3969ddf24edfe18652d657b004040623d805ae7b3534b366364736f6c63430008040033",
  "deployedBytecode": "0x608060405234801561001057600080fd5b50600436106101585760003560e01c806370a08231116100c3578063b88d4fde1161007c578063b88d4fde146102da578063c87b56dd146102ed578063d3fc986414610300578063e8a3d48514610313578063e985e9c51461031b578063f2fde38b1461035757600080fd5b806370a0823114610272578063715018a6146102935780638da5cb5b1461029b578063938e3d7b146102ac57806395d89b41146102bf578063a22cb465146102c757600080fd5b806340c10f191161011557806340c10f191461020057806342842e0e1461021357806342966c68146102265780634cd88b761461023957806355f804b31461024c5780636352211e1461025f57600080fd5b806301ffc9a71461015d57806306fdde0314610185578063081812fc1461019a578063095ea7b3146101c5578063162094c4146101da57806323b872dd146101ed575b600080fd5b61017061016b366004611e38565b61036a565b60405190151581526020015b60405180910390f35b61018d6103bc565b60405161017c919061207a565b6101ad6101a8366004611f80565b61044e565b6040516001600160a01b03909116815260200161017c565b6101d86101d3366004611db7565b6104db565b005b6101d86101e8366004611f98565b6105f1565b6101d86101fb366004611c9f565b610688565b6101d861020e366004611db7565b6106b9565b6101d8610221366004611c9f565b6106f1565b6101d8610234366004611f80565b61070c565b6101d8610247366004611eb0565b610742565b6101d861025a366004611e70565b61082d565b6101ad61026d366004611f80565b610863565b610285610280366004611c53565b6108da565b60405190815260200161017c565b6101d8610961565b60c9546001600160a01b03166101ad565b6101d86102ba366004611e70565b6109d5565b61018d610a0b565b6101d86102d5366004611d7d565b610a1a565b6101d86102e8366004611cda565b610adf565b61018d6102fb366004611f80565b610b17565b6101d861030e366004611de0565b610c00565b61018d610c74565b610170610329366004611c6d565b6001600160a01b039182166000908152606a6020908152604080832093909416825291909152205460ff1690565b6101d8610365366004611c53565b610c83565b60006001600160e01b031982166380ac58cd60e01b148061039b57506001600160e01b03198216635b5e139f60e01b145b806103b657506301ffc9a760e01b6001600160e01b03198316145b92915050565b6060606580546103cb906122d0565b80601f01602080910402602001604051908101604052809291908181526020018280546103f7906122d0565b80156104445780601f1061041957610100808354040283529160200191610444565b820191906000526020600020905b81548152906001019060200180831161042757829003601f168201915b5050505050905090565b600061045982610d6e565b6104bf5760405162461bcd60e51b815260206004820152602c60248201527f4552433732313a20617070726f76656420717565727920666f72206e6f6e657860448201526b34b9ba32b73a103a37b5b2b760a11b60648201526084015b60405180910390fd5b506000908152606960205260409020546001600160a01b031690565b60006104e682610863565b9050806001600160a01b0316836001600160a01b031614156105545760405162461bcd60e51b815260206004820152602160248201527f4552433732313a20617070726f76616c20746f2063757272656e74206f776e656044820152603960f91b60648201526084016104b6565b336001600160a01b038216148061057057506105708133610329565b6105e25760405162461bcd60e51b815260206004820152603860248201527f4552433732313a20617070726f76652063616c6c6572206973206e6f74206f7760448201527f6e6572206e6f7220617070726f76656420666f7220616c6c000000000000000060648201526084016104b6565b6105ec8383610d8b565b505050565b336105fb84610863565b6001600160a01b0316146106485760405162461bcd60e51b815260206004820152601460248201527327232a1d103737ba103a37b5b2b71037bbb732b960611b60448201526064016104b6565b6105ec8383838080601f016020809104026020016040519081016040528093929190818152602001838380828437600092019190915250610df992505050565b6106923382610e84565b6106ae5760405162461bcd60e51b81526004016104b690612162565b6105ec838383610f6e565b60c9546001600160a01b031633146106e35760405162461bcd60e51b81526004016104b69061212d565b6106ed828261110e565b5050565b6105ec83838360405180602001604052806000815250610adf565b60c9546001600160a01b031633146107365760405162461bcd60e51b81526004016104b69061212d565b61073f81611128565b50565b600054610100900460ff168061075b575060005460ff16155b6107775760405162461bcd60e51b81526004016104b6906120df565b600054610100900460ff16158015610799576000805461ffff19166101011790555b6107a1611168565b61081485858080601f01602080910402602001604051908101604052809392919081815260200183838082843760009201919091525050604080516020601f890181900481028201810190925287815292508791508690819084018382808284376000920191909152506111e392505050565b8015610826576000805461ff00191690555b5050505050565b60c9546001600160a01b031633146108575760405162461bcd60e51b81526004016104b69061212d565b6105ec60fc8383611aad565b6000818152606760205260408120546001600160a01b0316806103b65760405162461bcd60e51b815260206004820152602960248201527f4552433732313a206f776e657220717565727920666f72206e6f6e657869737460448201526832b73a103a37b5b2b760b91b60648201526084016104b6565b60006001600160a01b0382166109455760405162461bcd60e51b815260206004820152602a60248201527f4552433732313a2062616c616e636520717565727920666f7220746865207a65604482015269726f206164647265737360b01b60648201526084016104b6565b506001600160a01b031660009081526068602052604090205490565b60c9546001600160a01b0316331461098b5760405162461bcd60e51b81526004016104b69061212d565b60c9546040516000916001600160a01b0316907f8be0079c531659141344cd1fd0a4f28419497f9722a3daafe3b4186f6b6457e0908390a360c980546001600160a01b0319169055565b60c9546001600160a01b031633146109ff5760405162461bcd60e51b81526004016104b69061212d565b6105ec60fb8383611aad565b6060606680546103cb906122d0565b6001600160a01b038216331415610a735760405162461bcd60e51b815260206004820152601960248201527f4552433732313a20617070726f766520746f2063616c6c65720000000000000060448201526064016104b6565b336000818152606a602090815260408083206001600160a01b03871680855290835292819020805460ff191686151590811790915590519081529192917f17307eab39ab6107e8899845ad3d59bd9653f200f220920489ca2b5937696c31910160405180910390a35050565b610ae93383610e84565b610b055760405162461bcd60e51b81526004016104b690612162565b610b118484848461126a565b50505050565b60606000610b248361129d565b905060008151116103b65773__$e1d8844a0810dc0e87a665b1f2b5fa7c69$__630e1d809e6040518060800160405280868152602001610b6387610863565b6001600160a01b03168152602001610b796103bc565b8152602001610b86610a0b565b8152506040518263ffffffff1660e01b8152600401610ba591906121b3565b60006040518083038186803b158015610bbd57600080fd5b505af4158015610bd1573d6000803e3d6000fd5b505050506040513d6000823e601f3d908101601f19168201604052610bf99190810190611f0d565b9392505050565b60c9546001600160a01b03163314610c2a5760405162461bcd60e51b81526004016104b69061212d565b610c34848461110e565b610b118383838080601f016020809104026020016040519081016040528093929190818152602001838380828437600092019190915250610df992505050565b606060fb80546103cb906122d0565b60c9546001600160a01b03163314610cad5760405162461bcd60e51b81526004016104b69061212d565b6001600160a01b038116610d125760405162461bcd60e51b815260206004820152602660248201527f4f776e61626c653a206e6577206f776e657220697320746865207a65726f206160448201526564647265737360d01b60648201526084016104b6565b60c9546040516001600160a01b038084169216907f8be0079c531659141344cd1fd0a4f28419497f9722a3daafe3b4186f6b6457e090600090a360c980546001600160a01b0319166001600160a01b0392909216919091179055565b6000908152606760205260409020546001600160a01b0316151590565b600081815260696020526040902080546001600160a01b0319166001600160a01b0384169081179091558190610dc082610863565b6001600160a01b03167f8c5be1e5ebec7d5bd14f71427d1e84f3dd0314c0f7b2291e5b200ac8c7c3b92560405160405180910390a45050565b610e0282610d6e565b610e655760405162461bcd60e51b815260206004820152602e60248201527f45524337323155524953746f726167653a2055524920736574206f66206e6f6e60448201526d32bc34b9ba32b73a103a37b5b2b760911b60648201526084016104b6565b600082815260976020908152604090912082516105ec92840190611b31565b6000610e8f82610d6e565b610ef05760405162461bcd60e51b815260206004820152602c60248201527f4552433732313a206f70657261746f7220717565727920666f72206e6f6e657860448201526b34b9ba32b73a103a37b5b2b760a11b60648201526084016104b6565b6000610efb83610863565b9050806001600160a01b0316846001600160a01b03161480610f365750836001600160a01b0316610f2b8461044e565b6001600160a01b0316145b80610f6657506001600160a01b038082166000908152606a602090815260408083209388168352929052205460ff165b949350505050565b826001600160a01b0316610f8182610863565b6001600160a01b031614610fe95760405162461bcd60e51b815260206004820152602960248201527f4552433732313a207472616e73666572206f6620746f6b656e2074686174206960448201526839903737ba1037bbb760b91b60648201526084016104b6565b6001600160a01b03821661104b5760405162461bcd60e51b8152602060048201526024808201527f4552433732313a207472616e7366657220746f20746865207a65726f206164646044820152637265737360e01b60648201526084016104b6565b611056600082610d8b565b6001600160a01b038316600090815260686020526040812080546001929061107f90849061228d565b90915550506001600160a01b03821660009081526068602052604081208054600192906110ad908490612261565b909155505060008181526067602052604080822080546001600160a01b0319166001600160a01b0386811691821790925591518493918716917fddf252ad1be2c89b69c2b068fc378daa952ba7f163c4a11628f55a4df523b3ef91a4505050565b6106ed8282604051806020016040528060008152506113ff565b61113181611432565b6000818152609760205260409020805461114a906122d0565b15905061073f57600081815260976020526040812061073f91611ba5565b600054610100900460ff1680611181575060005460ff16155b61119d5760405162461bcd60e51b81526004016104b6906120df565b600054610100900460ff161580156111bf576000805461ffff19166101011790555b6111c76114cd565b6111cf611537565b801561073f576000805461ff001916905550565b600054610100900460ff16806111fc575060005460ff16155b6112185760405162461bcd60e51b81526004016104b6906120df565b600054610100900460ff1615801561123a576000805461ffff19166101011790555b6112426114cd565b61124a6114cd565b61125483836115e5565b80156105ec576000805461ff0019169055505050565b611275848484610f6e565b6112818484848461167a565b610b115760405162461bcd60e51b81526004016104b69061208d565b60606112a882610d6e565b61130e5760405162461bcd60e51b815260206004820152603160248201527f45524337323155524953746f726167653a2055524920717565727920666f72206044820152703737b732bc34b9ba32b73a103a37b5b2b760791b60648201526084016104b6565b60008281526097602052604081208054611327906122d0565b80601f0160208091040260200160405190810160405280929190818152602001828054611353906122d0565b80156113a05780601f10611375576101008083540402835291602001916113a0565b820191906000526020600020905b81548152906001019060200180831161138357829003601f168201915b5050505050905060006113b1611787565b90508051600014156113c4575092915050565b8151156113f65780826040516020016113de92919061200e565b60405160208183030381529060405292505050919050565b610f6684611796565b6114098383611860565b611416600084848461167a565b6105ec5760405162461bcd60e51b81526004016104b69061208d565b600061143d82610863565b905061144a600083610d8b565b6001600160a01b038116600090815260686020526040812080546001929061147390849061228d565b909155505060008281526067602052604080822080546001600160a01b0319169055518391906001600160a01b038416907fddf252ad1be2c89b69c2b068fc378daa952ba7f163c4a11628f55a4df523b3ef908390a45050565b600054610100900460ff16806114e6575060005460ff16155b6115025760405162461bcd60e51b81526004016104b6906120df565b600054610100900460ff161580156111cf576000805461ffff1916610101179055801561073f576000805461ff001916905550565b600054610100900460ff1680611550575060005460ff16155b61156c5760405162461bcd60e51b81526004016104b6906120df565b600054610100900460ff1615801561158e576000805461ffff19166101011790555b60c980546001600160a01b0319163390811790915560405181906000907f8be0079c531659141344cd1fd0a4f28419497f9722a3daafe3b4186f6b6457e0908290a350801561073f576000805461ff001916905550565b600054610100900460ff16806115fe575060005460ff16155b61161a5760405162461bcd60e51b81526004016104b6906120df565b600054610100900460ff1615801561163c576000805461ffff19166101011790555b825161164f906065906020860190611b31565b508151611663906066906020850190611b31565b5080156105ec576000805461ff0019169055505050565b60006001600160a01b0384163b1561177c57604051630a85bd0160e11b81526001600160a01b0385169063150b7a02906116be90339089908890889060040161203d565b602060405180830381600087803b1580156116d857600080fd5b505af1925050508015611708575060408051601f3d908101601f1916820190925261170591810190611e54565b60015b611762573d808015611736576040519150601f19603f3d011682016040523d82523d6000602084013e61173b565b606091505b50805161175a5760405162461bcd60e51b81526004016104b69061208d565b805181602001fd5b6001600160e01b031916630a85bd0160e11b149050610f66565b506001949350505050565b606060fc80546103cb906122d0565b60606117a182610d6e565b6118055760405162461bcd60e51b815260206004820152602f60248201527f4552433732314d657461646174613a2055524920717565727920666f72206e6f60448201526e3732bc34b9ba32b73a103a37b5b2b760891b60648201526084016104b6565b600061180f611787565b9050600081511161182f5760405180602001604052806000815250610bf9565b8061183984611993565b60405160200161184a92919061200e565b6040516020818303038152906040529392505050565b6001600160a01b0382166118b65760405162461bcd60e51b815260206004820181905260248201527f4552433732313a206d696e7420746f20746865207a65726f206164647265737360448201526064016104b6565b6118bf81610d6e565b1561190c5760405162461bcd60e51b815260206004820152601c60248201527f4552433732313a20746f6b656e20616c7265616479206d696e7465640000000060448201526064016104b6565b6001600160a01b0382166000908152606860205260408120805460019290611935908490612261565b909155505060008181526067602052604080822080546001600160a01b0319166001600160a01b03861690811790915590518392907fddf252ad1be2c89b69c2b068fc378daa952ba7f163c4a11628f55a4df523b3ef908290a45050565b6060816119b75750506040805180820190915260018152600360fc1b602082015290565b8160005b81156119e157806119cb8161230b565b91506119da9050600a83612279565b91506119bb565b60008167ffffffffffffffff811115611a0a57634e487b7160e01b600052604160045260246000fd5b6040519080825280601f01601f191660200182016040528015611a34576020820181803683370190505b5090505b8415610f6657611a4960018361228d565b9150611a56600a86612326565b611a61906030612261565b60f81b818381518110611a8457634e487b7160e01b600052603260045260246000fd5b60200101906001600160f81b031916908160001a905350611aa6600a86612279565b9450611a38565b828054611ab9906122d0565b90600052602060002090601f016020900481019282611adb5760008555611b21565b82601f10611af45782800160ff19823516178555611b21565b82800160010185558215611b21579182015b82811115611b21578235825591602001919060010190611b06565b50611b2d929150611bdb565b5090565b828054611b3d906122d0565b90600052602060002090601f016020900481019282611b5f5760008555611b21565b82601f10611b7857805160ff1916838001178555611b21565b82800160010185558215611b21579182015b82811115611b21578251825591602001919060010190611b8a565b508054611bb1906122d0565b6000825580601f10611bc1575050565b601f01602090049060005260206000209081019061073f91905b5b80821115611b2d5760008155600101611bdc565b80356001600160a01b0381168114611c0757600080fd5b919050565b60008083601f840112611c1d578182fd5b50813567ffffffffffffffff811115611c34578182fd5b602083019150836020828501011115611c4c57600080fd5b9250929050565b600060208284031215611c64578081fd5b610bf982611bf0565b60008060408385031215611c7f578081fd5b611c8883611bf0565b9150611c9660208401611bf0565b90509250929050565b600080600060608486031215611cb3578081fd5b611cbc84611bf0565b9250611cca60208501611bf0565b9150604084013590509250925092565b60008060008060808587031215611cef578081fd5b611cf885611bf0565b9350611d0660208601611bf0565b925060408501359150606085013567ffffffffffffffff811115611d28578182fd5b8501601f81018713611d38578182fd5b8035611d4b611d4682612239565b612208565b818152886020838501011115611d5f578384fd5b81602084016020830137908101602001929092525092959194509250565b60008060408385031215611d8f578182fd5b611d9883611bf0565b915060208301358015158114611dac578182fd5b809150509250929050565b60008060408385031215611dc9578182fd5b611dd283611bf0565b946020939093013593505050565b60008060008060608587031215611df5578384fd5b611dfe85611bf0565b935060208501359250604085013567ffffffffffffffff811115611e20578283fd5b611e2c87828801611c0c565b95989497509550505050565b600060208284031215611e49578081fd5b8135610bf98161237c565b600060208284031215611e65578081fd5b8151610bf98161237c565b60008060208385031215611e82578182fd5b823567ffffffffffffffff811115611e98578283fd5b611ea485828601611c0c565b90969095509350505050565b60008060008060408587031215611ec5578384fd5b843567ffffffffffffffff80821115611edc578586fd5b611ee888838901611c0c565b90965094506020870135915080821115611f00578384fd5b50611e2c87828801611c0c565b600060208284031215611f1e578081fd5b815167ffffffffffffffff811115611f34578182fd5b8201601f81018413611f44578182fd5b8051611f52611d4682612239565b818152856020838501011115611f66578384fd5b611f778260208301602086016122a4565b95945050505050565b600060208284031215611f91578081fd5b5035919050565b600080600060408486031215611fac578081fd5b83359250602084013567ffffffffffffffff811115611fc9578182fd5b611fd586828701611c0c565b9497909650939450505050565b60008151808452611ffa8160208601602086016122a4565b601f01601f19169290920160200192915050565b600083516120208184602088016122a4565b8351908301906120348183602088016122a4565b01949350505050565b6001600160a01b038581168252841660208201526040810183905260806060820181905260009061207090830184611fe2565b9695505050505050565b602081526000610bf96020830184611fe2565b60208082526032908201527f4552433732313a207472616e7366657220746f206e6f6e20455243373231526560408201527131b2b4bb32b91034b6b83632b6b2b73a32b960711b606082015260800190565b6020808252602e908201527f496e697469616c697a61626c653a20636f6e747261637420697320616c72656160408201526d191e481a5b9a5d1a585b1a5e995960921b606082015260800190565b6020808252818101527f4f776e61626c653a2063616c6c6572206973206e6f7420746865206f776e6572604082015260600190565b60208082526031908201527f4552433732313a207472616e736665722063616c6c6572206973206e6f74206f6040820152701ddb995c881b9bdc88185c1c1c9bdd9959607a1b606082015260800190565b602081528151602082015260018060a01b03602083015116604082015260006040830151608060608401526121eb60a0840182611fe2565b90506060840151601f19848303016080850152611f778282611fe2565b604051601f8201601f1916810167ffffffffffffffff8111828210171561223157612231612366565b604052919050565b600067ffffffffffffffff82111561225357612253612366565b50601f01601f191660200190565b600082198211156122745761227461233a565b500190565b60008261228857612288612350565b500490565b60008282101561229f5761229f61233a565b500390565b60005b838110156122bf5781810151838201526020016122a7565b83811115610b115750506000910152565b600181811c908216806122e457607f821691505b6020821081141561230557634e487b7160e01b600052602260045260246000fd5b50919050565b600060001982141561231f5761231f61233a565b5060010190565b60008261233557612335612350565b500690565b634e487b7160e01b600052601160045260246000fd5b634e487b7160e01b600052601260045260246000fd5b634e487b7160e01b600052604160045260246000fd5b6001600160e01b03198116811461073f57600080fdfea2646970667358221220f82764904781dfc3969ddf24edfe18652d657b004040623d805ae7b3534b366364736f6c63430008040033",
  "libraries": {
    "NFTDescriptor": "0x97d26b3e00E0bB81576f0a00D47A56F6ABd1746A"
  },
  "devdoc": {
    "kind": "dev",
    "methods": {
      "approve(address,uint256)": {
        "details": "See {IERC721-approve}."
      },
      "balanceOf(address)": {
        "details": "See {IERC721-balanceOf}."
      },
      "getApproved(uint256)": {
        "details": "See {IERC721-getApproved}."
      },
      "isApprovedForAll(address,address)": {
        "details": "See {IERC721-isApprovedForAll}."
      },
      "name()": {
        "details": "See {IERC721Metadata-name}."
      },
      "owner()": {
        "details": "Returns the address of the current owner."
      },
      "ownerOf(uint256)": {
        "details": "See {IERC721-ownerOf}."
      },
      "renounceOwnership()": {
        "details": "Leaves the contract without owner. It will not be possible to call `onlyOwner` functions anymore. Can only be called by the current owner. NOTE: Renouncing ownership will leave the contract without an owner, thereby removing any functionality that is only available to the owner."
      },
      "safeTransferFrom(address,address,uint256)": {
        "details": "See {IERC721-safeTransferFrom}."
      },
      "safeTransferFrom(address,address,uint256,bytes)": {
        "details": "See {IERC721-safeTransferFrom}."
      },
      "setApprovalForAll(address,bool)": {
        "details": "See {IERC721-setApprovalForAll}."
      },
      "supportsInterface(bytes4)": {
        "details": "See {IERC165-supportsInterface}."
      },
      "symbol()": {
        "details": "See {IERC721Metadata-symbol}."
      },
      "tokenURI(uint256)": {
        "details": "See {IERC721Metadata-tokenURI}."
      },
      "transferFrom(address,address,uint256)": {
        "details": "See {IERC721-transferFrom}."
      },
      "transferOwnership(address)": {
        "details": "Transfers ownership of the contract to a new account (`newOwner`). Can only be called by the current owner."
      }
    },
    "version": 1
  },
  "userdoc": {
    "kind": "user",
    "methods": {},
    "version": 1
  },
  "storageLayout": {
    "storage": [
      {
        "astId": 612,
        "contract": "contracts/tokens/NFTWithSVG.sol:NFTWithSVG",
        "label": "_initialized",
        "offset": 0,
        "slot": "0",
        "type": "t_bool"
      },
      {
        "astId": 615,
        "contract": "contracts/tokens/NFTWithSVG.sol:NFTWithSVG",
        "label": "_initializing",
        "offset": 1,
        "slot": "0",
        "type": "t_bool"
      },
      {
        "astId": 3064,
        "contract": "contracts/tokens/NFTWithSVG.sol:NFTWithSVG",
        "label": "__gap",
        "offset": 0,
        "slot": "1",
        "type": "t_array(t_uint256)50_storage"
      },
      {
        "astId": 3453,
        "contract": "contracts/tokens/NFTWithSVG.sol:NFTWithSVG",
        "label": "__gap",
        "offset": 0,
        "slot": "51",
        "type": "t_array(t_uint256)50_storage"
      },
      {
        "astId": 1640,
        "contract": "contracts/tokens/NFTWithSVG.sol:NFTWithSVG",
        "label": "_name",
        "offset": 0,
        "slot": "101",
        "type": "t_string_storage"
      },
      {
        "astId": 1642,
        "contract": "contracts/tokens/NFTWithSVG.sol:NFTWithSVG",
        "label": "_symbol",
        "offset": 0,
        "slot": "102",
        "type": "t_string_storage"
      },
      {
        "astId": 1646,
        "contract": "contracts/tokens/NFTWithSVG.sol:NFTWithSVG",
        "label": "_owners",
        "offset": 0,
        "slot": "103",
        "type": "t_mapping(t_uint256,t_address)"
      },
      {
        "astId": 1650,
        "contract": "contracts/tokens/NFTWithSVG.sol:NFTWithSVG",
        "label": "_balances",
        "offset": 0,
        "slot": "104",
        "type": "t_mapping(t_address,t_uint256)"
      },
      {
        "astId": 1654,
        "contract": "contracts/tokens/NFTWithSVG.sol:NFTWithSVG",
        "label": "_tokenApprovals",
        "offset": 0,
        "slot": "105",
        "type": "t_mapping(t_uint256,t_address)"
      },
      {
        "astId": 1660,
        "contract": "contracts/tokens/NFTWithSVG.sol:NFTWithSVG",
        "label": "_operatorApprovals",
        "offset": 0,
        "slot": "106",
        "type": "t_mapping(t_address,t_mapping(t_address,t_bool))"
      },
      {
        "astId": 2458,
        "contract": "contracts/tokens/NFTWithSVG.sol:NFTWithSVG",
        "label": "__gap",
        "offset": 0,
        "slot": "107",
        "type": "t_array(t_uint256)44_storage"
      },
      {
        "astId": 2630,
        "contract": "contracts/tokens/NFTWithSVG.sol:NFTWithSVG",
        "label": "_tokenURIs",
        "offset": 0,
        "slot": "151",
        "type": "t_mapping(t_uint256,t_string_storage)"
      },
      {
        "astId": 2748,
        "contract": "contracts/tokens/NFTWithSVG.sol:NFTWithSVG",
        "label": "__gap",
        "offset": 0,
        "slot": "152",
        "type": "t_array(t_uint256)49_storage"
      },
      {
        "astId": 406,
        "contract": "contracts/tokens/NFTWithSVG.sol:NFTWithSVG",
        "label": "_owner",
        "offset": 0,
        "slot": "201",
        "type": "t_address"
      },
      {
        "astId": 525,
        "contract": "contracts/tokens/NFTWithSVG.sol:NFTWithSVG",
        "label": "__gap",
        "offset": 0,
        "slot": "202",
        "type": "t_array(t_uint256)49_storage"
      },
      {
        "astId": 24820,
        "contract": "contracts/tokens/NFTWithSVG.sol:NFTWithSVG",
        "label": "_contractURI",
        "offset": 0,
        "slot": "251",
        "type": "t_string_storage"
      },
      {
        "astId": 24822,
        "contract": "contracts/tokens/NFTWithSVG.sol:NFTWithSVG",
        "label": "__baseURI",
        "offset": 0,
        "slot": "252",
        "type": "t_string_storage"
      },
      {
        "astId": 24957,
        "contract": "contracts/tokens/NFTWithSVG.sol:NFTWithSVG",
        "label": "__gap",
        "offset": 0,
        "slot": "253",
        "type": "t_array(t_uint256)48_storage"
      }
    ],
    "types": {
      "t_address": {
        "encoding": "inplace",
        "label": "address",
        "numberOfBytes": "20"
      },
      "t_array(t_uint256)44_storage": {
        "base": "t_uint256",
        "encoding": "inplace",
        "label": "uint256[44]",
        "numberOfBytes": "1408"
      },
      "t_array(t_uint256)48_storage": {
        "base": "t_uint256",
        "encoding": "inplace",
        "label": "uint256[48]",
        "numberOfBytes": "1536"
      },
      "t_array(t_uint256)49_storage": {
        "base": "t_uint256",
        "encoding": "inplace",
        "label": "uint256[49]",
        "numberOfBytes": "1568"
      },
      "t_array(t_uint256)50_storage": {
        "base": "t_uint256",
        "encoding": "inplace",
        "label": "uint256[50]",
        "numberOfBytes": "1600"
      },
      "t_bool": {
        "encoding": "inplace",
        "label": "bool",
        "numberOfBytes": "1"
      },
      "t_mapping(t_address,t_bool)": {
        "encoding": "mapping",
        "key": "t_address",
        "label": "mapping(address => bool)",
        "numberOfBytes": "32",
        "value": "t_bool"
      },
      "t_mapping(t_address,t_mapping(t_address,t_bool))": {
        "encoding": "mapping",
        "key": "t_address",
        "label": "mapping(address => mapping(address => bool))",
        "numberOfBytes": "32",
        "value": "t_mapping(t_address,t_bool)"
      },
      "t_mapping(t_address,t_uint256)": {
        "encoding": "mapping",
        "key": "t_address",
        "label": "mapping(address => uint256)",
        "numberOfBytes": "32",
        "value": "t_uint256"
      },
      "t_mapping(t_uint256,t_address)": {
        "encoding": "mapping",
        "key": "t_uint256",
        "label": "mapping(uint256 => address)",
        "numberOfBytes": "32",
        "value": "t_address"
      },
      "t_mapping(t_uint256,t_string_storage)": {
        "encoding": "mapping",
        "key": "t_uint256",
        "label": "mapping(uint256 => string)",
        "numberOfBytes": "32",
        "value": "t_string_storage"
      },
      "t_string_storage": {
        "encoding": "bytes",
        "label": "string",
        "numberOfBytes": "32"
      },
      "t_uint256": {
        "encoding": "inplace",
        "label": "uint256",
        "numberOfBytes": "32"
      }
    }
  }
}