{
  "address": "0xcb9A9c03d776924aAd64FA76E29246be41291d83",
  "abi": [
    {
      "inputs": [
        {
          "internalType": "uint256",
          "name": "prod1",
          "type": "uint256"
        }
      ],
      "name": "PRBMath__MulDivFixedPointOverflow",
      "type": "error"
    },
    {
      "inputs": [
        {
          "internalType": "uint256",
          "name": "prod1",
          "type": "uint256"
        },
        {
          "internalType": "uint256",
          "name": "denominator",
          "type": "uint256"
        }
      ],
      "name": "PRBMath__MulDivOverflow",
      "type": "error"
    },
    {
      "anonymous": false,
      "inputs": [
        {
          "indexed": true,
          "internalType": "address",
          "name": "owner",
          "type": "address"
        },
        {
          "indexed": true,
          "internalType": "address",
          "name": "spender",
          "type": "address"
        },
        {
          "indexed": false,
          "internalType": "uint256",
          "name": "value",
          "type": "uint256"
        }
      ],
      "name": "Approval",
      "type": "event"
    },
    {
      "anonymous": false,
      "inputs": [
        {
          "indexed": false,
          "internalType": "uint256",
          "name": "rewardAmount",
          "type": "uint256"
        }
      ],
      "name": "DistributeReward",
      "type": "event"
    },
    {
      "anonymous": false,
      "inputs": [
        {
          "indexed": true,
          "internalType": "bytes32",
          "name": "role",
          "type": "bytes32"
        },
        {
          "indexed": true,
          "internalType": "bytes32",
          "name": "previousAdminRole",
          "type": "bytes32"
        },
        {
          "indexed": true,
          "internalType": "bytes32",
          "name": "newAdminRole",
          "type": "bytes32"
        }
      ],
      "name": "RoleAdminChanged",
      "type": "event"
    },
    {
      "anonymous": false,
      "inputs": [
        {
          "indexed": true,
          "internalType": "bytes32",
          "name": "role",
          "type": "bytes32"
        },
        {
          "indexed": true,
          "internalType": "address",
          "name": "account",
          "type": "address"
        },
        {
          "indexed": true,
          "internalType": "address",
          "name": "sender",
          "type": "address"
        }
      ],
      "name": "RoleGranted",
      "type": "event"
    },
    {
      "anonymous": false,
      "inputs": [
        {
          "indexed": true,
          "internalType": "bytes32",
          "name": "role",
          "type": "bytes32"
        },
        {
          "indexed": true,
          "internalType": "address",
          "name": "account",
          "type": "address"
        },
        {
          "indexed": true,
          "internalType": "address",
          "name": "sender",
          "type": "address"
        }
      ],
      "name": "RoleRevoked",
      "type": "event"
    },
    {
      "anonymous": false,
      "inputs": [
        {
          "indexed": true,
          "internalType": "address",
          "name": "from",
          "type": "address"
        },
        {
          "indexed": true,
          "internalType": "address",
          "name": "to",
          "type": "address"
        },
        {
          "indexed": false,
          "internalType": "uint256",
          "name": "value",
          "type": "uint256"
        }
      ],
      "name": "Transfer",
      "type": "event"
    },
    {
      "inputs": [],
      "name": "DEFAULT_ADMIN_ROLE",
      "outputs": [
        {
          "internalType": "bytes32",
          "name": "",
          "type": "bytes32"
        }
      ],
      "stateMutability": "view",
      "type": "function"
    },
    {
      "inputs": [],
      "name": "DISTRIBUTOR_ROLE",
      "outputs": [
        {
          "internalType": "bytes32",
          "name": "",
          "type": "bytes32"
        }
      ],
      "stateMutability": "view",
      "type": "function"
    },
    {
      "inputs": [],
      "name": "MIN_AMOUNT",
      "outputs": [
        {
          "internalType": "uint256",
          "name": "",
          "type": "uint256"
        }
      ],
      "stateMutability": "view",
      "type": "function"
    },
    {
      "inputs": [
        {
          "internalType": "address",
          "name": "owner",
          "type": "address"
        },
        {
          "internalType": "address",
          "name": "spender",
          "type": "address"
        }
      ],
      "name": "allowance",
      "outputs": [
        {
          "internalType": "uint256",
          "name": "",
          "type": "uint256"
        }
      ],
      "stateMutability": "view",
      "type": "function"
    },
    {
      "inputs": [
        {
          "internalType": "address",
          "name": "spender",
          "type": "address"
        },
        {
          "internalType": "uint256",
          "name": "amount",
          "type": "uint256"
        }
      ],
      "name": "approve",
      "outputs": [
        {
          "internalType": "bool",
          "name": "",
          "type": "bool"
        }
      ],
      "stateMutability": "nonpayable",
      "type": "function"
    },
    {
      "inputs": [
        {
          "internalType": "address",
          "name": "account",
          "type": "address"
        }
      ],
      "name": "balanceOf",
      "outputs": [
        {
          "internalType": "uint256",
          "name": "",
          "type": "uint256"
        }
      ],
      "stateMutability": "view",
      "type": "function"
    },
    {
      "inputs": [],
      "name": "currentUnlockEndTimestamp",
      "outputs": [
        {
          "internalType": "uint256",
          "name": "",
          "type": "uint256"
        }
      ],
      "stateMutability": "view",
      "type": "function"
    },
    {
      "inputs": [],
      "name": "decimals",
      "outputs": [
        {
          "internalType": "uint8",
          "name": "",
          "type": "uint8"
        }
      ],
      "stateMutability": "view",
      "type": "function"
    },
    {
      "inputs": [
        {
          "internalType": "address",
          "name": "spender",
          "type": "address"
        },
        {
          "internalType": "uint256",
          "name": "subtractedValue",
          "type": "uint256"
        }
      ],
      "name": "decreaseAllowance",
      "outputs": [
        {
          "internalType": "bool",
          "name": "",
          "type": "bool"
        }
      ],
      "stateMutability": "nonpayable",
      "type": "function"
    },
    {
      "inputs": [
        {
          "internalType": "uint256",
          "name": "_mphAmount",
          "type": "uint256"
        }
      ],
      "name": "deposit",
      "outputs": [
        {
          "internalType": "uint256",
          "name": "shareAmount",
          "type": "uint256"
        }
      ],
      "stateMutability": "nonpayable",
      "type": "function"
    },
    {
      "inputs": [
        {
          "internalType": "uint256",
          "name": "rewardAmount",
          "type": "uint256"
        }
      ],
      "name": "distributeReward",
      "outputs": [],
      "stateMutability": "nonpayable",
      "type": "function"
    },
    {
      "inputs": [],
      "name": "getPricePerFullShare",
      "outputs": [
        {
          "internalType": "uint256",
          "name": "",
          "type": "uint256"
        }
      ],
      "stateMutability": "view",
      "type": "function"
    },
    {
      "inputs": [
        {
          "internalType": "bytes32",
          "name": "role",
          "type": "bytes32"
        }
      ],
      "name": "getRoleAdmin",
      "outputs": [
        {
          "internalType": "bytes32",
          "name": "",
          "type": "bytes32"
        }
      ],
      "stateMutability": "view",
      "type": "function"
    },
    {
      "inputs": [
        {
          "internalType": "bytes32",
          "name": "role",
          "type": "bytes32"
        },
        {
          "internalType": "address",
          "name": "account",
          "type": "address"
        }
      ],
      "name": "grantRole",
      "outputs": [],
      "stateMutability": "nonpayable",
      "type": "function"
    },
    {
      "inputs": [
        {
          "internalType": "bytes32",
          "name": "role",
          "type": "bytes32"
        },
        {
          "internalType": "address",
          "name": "account",
          "type": "address"
        }
      ],
      "name": "hasRole",
      "outputs": [
        {
          "internalType": "bool",
          "name": "",
          "type": "bool"
        }
      ],
      "stateMutability": "view",
      "type": "function"
    },
    {
      "inputs": [
        {
          "internalType": "address",
          "name": "spender",
          "type": "address"
        },
        {
          "internalType": "uint256",
          "name": "addedValue",
          "type": "uint256"
        }
      ],
      "name": "increaseAllowance",
      "outputs": [
        {
          "internalType": "bool",
          "name": "",
          "type": "bool"
        }
      ],
      "stateMutability": "nonpayable",
      "type": "function"
    },
    {
      "inputs": [
        {
          "internalType": "address",
          "name": "_mph",
          "type": "address"
        },
        {
          "internalType": "uint256",
          "name": "_rewardUnlockPeriod",
          "type": "uint256"
        },
        {
          "internalType": "address",
          "name": "_distributor",
          "type": "address"
        }
      ],
      "name": "initialize",
      "outputs": [],
      "stateMutability": "nonpayable",
      "type": "function"
    },
    {
      "inputs": [],
      "name": "lastRewardAmount",
      "outputs": [
        {
          "internalType": "uint256",
          "name": "",
          "type": "uint256"
        }
      ],
      "stateMutability": "view",
      "type": "function"
    },
    {
      "inputs": [],
      "name": "lastRewardTimestamp",
      "outputs": [
        {
          "internalType": "uint256",
          "name": "",
          "type": "uint256"
        }
      ],
      "stateMutability": "view",
      "type": "function"
    },
    {
      "inputs": [],
      "name": "mph",
      "outputs": [
        {
          "internalType": "contract ERC20",
          "name": "",
          "type": "address"
        }
      ],
      "stateMutability": "view",
      "type": "function"
    },
    {
      "inputs": [],
      "name": "name",
      "outputs": [
        {
          "internalType": "string",
          "name": "",
          "type": "string"
        }
      ],
      "stateMutability": "view",
      "type": "function"
    },
    {
      "inputs": [
        {
          "internalType": "bytes32",
          "name": "role",
          "type": "bytes32"
        },
        {
          "internalType": "address",
          "name": "account",
          "type": "address"
        }
      ],
      "name": "renounceRole",
      "outputs": [],
      "stateMutability": "nonpayable",
      "type": "function"
    },
    {
      "inputs": [
        {
          "internalType": "bytes32",
          "name": "role",
          "type": "bytes32"
        },
        {
          "internalType": "address",
          "name": "account",
          "type": "address"
        }
      ],
      "name": "revokeRole",
      "outputs": [],
      "stateMutability": "nonpayable",
      "type": "function"
    },
    {
      "inputs": [],
      "name": "rewardUnlockPeriod",
      "outputs": [
        {
          "internalType": "uint256",
          "name": "",
          "type": "uint256"
        }
      ],
      "stateMutability": "view",
      "type": "function"
    },
    {
      "inputs": [
        {
          "internalType": "uint256",
          "name": "newValue",
          "type": "uint256"
        }
      ],
      "name": "setRewardUnlockPeriod",
      "outputs": [],
      "stateMutability": "nonpayable",
      "type": "function"
    },
    {
      "inputs": [
        {
          "internalType": "bytes4",
          "name": "interfaceId",
          "type": "bytes4"
        }
      ],
      "name": "supportsInterface",
      "outputs": [
        {
          "internalType": "bool",
          "name": "",
          "type": "bool"
        }
      ],
      "stateMutability": "view",
      "type": "function"
    },
    {
      "inputs": [],
      "name": "symbol",
      "outputs": [
        {
          "internalType": "string",
          "name": "",
          "type": "string"
        }
      ],
      "stateMutability": "view",
      "type": "function"
    },
    {
      "inputs": [],
      "name": "totalSupply",
      "outputs": [
        {
          "internalType": "uint256",
          "name": "",
          "type": "uint256"
        }
      ],
      "stateMutability": "view",
      "type": "function"
    },
    {
      "inputs": [
        {
          "internalType": "address",
          "name": "recipient",
          "type": "address"
        },
        {
          "internalType": "uint256",
          "name": "amount",
          "type": "uint256"
        }
      ],
      "name": "transfer",
      "outputs": [
        {
          "internalType": "bool",
          "name": "",
          "type": "bool"
        }
      ],
      "stateMutability": "nonpayable",
      "type": "function"
    },
    {
      "inputs": [
        {
          "internalType": "address",
          "name": "sender",
          "type": "address"
        },
        {
          "internalType": "address",
          "name": "recipient",
          "type": "address"
        },
        {
          "internalType": "uint256",
          "name": "amount",
          "type": "uint256"
        }
      ],
      "name": "transferFrom",
      "outputs": [
        {
          "internalType": "bool",
          "name": "",
          "type": "bool"
        }
      ],
      "stateMutability": "nonpayable",
      "type": "function"
    },
    {
      "inputs": [
        {
          "internalType": "uint256",
          "name": "_shareAmount",
          "type": "uint256"
        }
      ],
      "name": "withdraw",
      "outputs": [
        {
          "internalType": "uint256",
          "name": "mphAmount",
          "type": "uint256"
        }
      ],
      "stateMutability": "nonpayable",
      "type": "function"
    }
  ],
  "transactionHash": "0x54ccc46d472212125953244035060bafd60010f6998240f5b50c088d6ff526cf",
  "args": [],
  "solcInputHash": "3b635bebd7324fcd4ae45f30d2ba78a7",
  "bytecode": "0x608060405234801561001057600080fd5b506123bc806100206000396000f3fe608060405234801561001057600080fd5b50600436106101e55760003560e01c806377c7b8fc1161010f578063bafedcaa116100a2578063dd62ed3e11610071578063dd62ed3e146103fe578063ddbcb5fa14610437578063f0bd87cc14610442578063f8077fae1461045757600080fd5b8063bafedcaa146103bc578063c350a1b5146103c5578063d547741f146103d8578063db88fee2146103eb57600080fd5b8063a217fddf116100de578063a217fddf1461037b578063a457c2d714610383578063a9059cbb14610396578063b6b55f25146103a957600080fd5b806377c7b8fc1461034557806391d148541461034d578063940a4e451461036057806395d89b411461037357600080fd5b80632e1a7d4d11610187578063395093511161015657806339509351146102f75780635c53b7c91461030a57806370a0823114610313578063722c2fff1461033c57600080fd5b80632e1a7d4d146102ad5780632f2ff15d146102c0578063313ce567146102d557806336568abe146102e457600080fd5b806318160ddd116101c357806318160ddd1461023a5780632304aa611461024c57806323b872dd14610277578063248a9ca31461028a57600080fd5b806301ffc9a7146101ea57806306fdde0314610212578063095ea7b314610227575b600080fd5b6101fd6101f8366004612112565b610460565b60405190151581526020015b60405180910390f35b61021a610497565b60405161020991906121e3565b6101fd610235366004612054565b610529565b6035545b604051908152602001610209565b60c95461025f906001600160a01b031681565b6040516001600160a01b039091168152602001610209565b6101fd610285366004612019565b61053f565b61023e6102983660046120d8565b60009081526097602052604090206001015490565b61023e6102bb3660046120d8565b6105f0565b6102d36102ce3660046120f0565b6105fb565b005b60405160128152602001610209565b6102d36102f23660046120f0565b610626565b6101fd610305366004612054565b6106a4565b61023e60ca5481565b61023e610321366004611fcd565b6001600160a01b031660009081526033602052604090205490565b61023e60cb5481565b61023e6106e0565b6101fd61035b3660046120f0565b610808565b6102d361036e3660046120d8565b610833565b61021a61083f565b61023e600081565b6101fd610391366004612054565b61084e565b6101fd6103a4366004612054565b6108e7565b61023e6103b73660046120d8565b6108f4565b61023e60cd5481565b6102d36103d336600461207d565b6108ff565b6102d36103e63660046120f0565b610979565b6102d36103f93660046120d8565b61099f565b61023e61040c366004611fe7565b6001600160a01b03918216600090815260346020908152604080832093909416825291909152205490565b61023e633b9aca0081565b61023e60008051602061236783398151915281565b61023e60cc5481565b60006001600160e01b03198216637965db0b60e01b148061049157506301ffc9a760e01b6001600160e01b03198316145b92915050565b6060603680546104a690612315565b80601f01602080910402602001604051908101604052809291908181526020018280546104d290612315565b801561051f5780601f106104f45761010080835404028352916020019161051f565b820191906000526020600020905b81548152906001019060200180831161050257829003601f168201915b5050505050905090565b6000610536338484610a43565b50600192915050565b600061054c848484610b67565b6001600160a01b0384166000908152603460209081526040808320338452909152902054828110156105d65760405162461bcd60e51b815260206004820152602860248201527f45524332303a207472616e7366657220616d6f756e74206578636565647320616044820152676c6c6f77616e636560c01b60648201526084015b60405180910390fd5b6105e38533858403610a43565b60019150505b9392505050565b600061049182610d35565b6000828152609760205260409020600101546106178133610dcb565b6106218383610e2f565b505050565b6001600160a01b03811633146106965760405162461bcd60e51b815260206004820152602f60248201527f416363657373436f6e74726f6c3a2063616e206f6e6c792072656e6f756e636560448201526e103937b632b9903337b91039b2b63360891b60648201526084016105cd565b6106a08282610eb5565b5050565b3360008181526034602090815260408083206001600160a01b038716845290915281205490916105369185906106db908690612264565b610a43565b6000806106ec60355490565b60c9546040516370a0823160e01b81523060048201529192506000916001600160a01b03909116906370a082319060240160206040518083038186803b15801561073557600080fd5b505afa158015610749573d6000803e3d6000fd5b505050506040513d601f19601f8201168201806040525081019061076d919061213a565b905081158061077a575080155b1561078f57670de0b6b3a76400009250505090565b60cd5460cb548115806107a25750804210155b156107ba576107b18385610f1c565b94505050505090565b60cc5460006107c982846122bb565b6107d342856122bb565b6107dd908661229c565b6107e7919061227c565b90506107fd866107f783886122bb565b90610f1c565b965050505050505090565b60009182526097602090815260408084206001600160a01b0393909316845291905290205460ff1690565b61083c81610f31565b50565b6060603780546104a690612315565b3360009081526034602090815260408083206001600160a01b0386168452909152812054828110156108d05760405162461bcd60e51b815260206004820152602560248201527f45524332303a2064656372656173656420616c6c6f77616e63652062656c6f77604482015264207a65726f60d81b60648201526084016105cd565b6108dd3385858403610a43565b5060019392505050565b6000610536338484610b67565b60006104918261114a565b600054610100900460ff1680610918575060005460ff16155b6109345760405162461bcd60e51b81526004016105cd90612216565b600054610100900460ff16158015610956576000805461ffff19166101011790555b6109618484846111c0565b8015610973576000805461ff00191690555b50505050565b6000828152609760205260409020600101546109958133610dcb565b6106218383610eb5565b6109aa600033610808565b6109e85760405162461bcd60e51b815260206004820152600f60248201526e3c26a8241d103737ba1030b236b4b760891b60448201526064016105cd565b6000811180156109fc57506301e133808111155b610a3e5760405162461bcd60e51b8152602060048201526013602482015272784d50483a20696e76616c69642076616c756560681b60448201526064016105cd565b60ca55565b6001600160a01b038316610aa55760405162461bcd60e51b8152602060048201526024808201527f45524332303a20617070726f76652066726f6d20746865207a65726f206164646044820152637265737360e01b60648201526084016105cd565b6001600160a01b038216610b065760405162461bcd60e51b815260206004820152602260248201527f45524332303a20617070726f766520746f20746865207a65726f206164647265604482015261737360f01b60648201526084016105cd565b6001600160a01b0383811660008181526034602090815260408083209487168084529482529182902085905590518481527f8c5be1e5ebec7d5bd14f71427d1e84f3dd0314c0f7b2291e5b200ac8c7c3b925910160405180910390a3505050565b6001600160a01b038316610bcb5760405162461bcd60e51b815260206004820152602560248201527f45524332303a207472616e736665722066726f6d20746865207a65726f206164604482015264647265737360d81b60648201526084016105cd565b6001600160a01b038216610c2d5760405162461bcd60e51b815260206004820152602360248201527f45524332303a207472616e7366657220746f20746865207a65726f206164647260448201526265737360e81b60648201526084016105cd565b6001600160a01b03831660009081526033602052604090205481811015610ca55760405162461bcd60e51b815260206004820152602660248201527f45524332303a207472616e7366657220616d6f756e7420657863656564732062604482015265616c616e636560d01b60648201526084016105cd565b6001600160a01b03808516600090815260336020526040808220858503905591851681529081208054849290610cdc908490612264565b92505081905550826001600160a01b0316846001600160a01b03167fddf252ad1be2c89b69c2b068fc378daa952ba7f163c4a11628f55a4df523b3ef84604051610d2891815260200190565b60405180910390a3610973565b6000610d45633b9aca0083612264565b60355410158015610d565750600082115b610d915760405162461bcd60e51b815260206004820152600c60248201526b1e1354120e88185b5bdd5b9d60a21b60448201526064016105cd565b610da3610d9c6106e0565b8390611272565b9050610daf338361127e565b60c954610dc6906001600160a01b031633836113cc565b919050565b610dd58282610808565b6106a057610ded816001600160a01b0316601461142f565b610df883602061142f565b604051602001610e0992919061216e565b60408051601f198184030181529082905262461bcd60e51b82526105cd916004016121e3565b610e398282610808565b6106a05760008281526097602090815260408083206001600160a01b03851684529091529020805460ff19166001179055610e713390565b6001600160a01b0316816001600160a01b0316837f2f8788117e7eff1d82e926ec794901d17c78024a50270940304540a733656f0d60405160405180910390a45050565b610ebf8282610808565b156106a05760008281526097602090815260408083206001600160a01b0385168085529252808320805460ff1916905551339285917ff6391f5c32d9c69d2a47ea670b442974b53935d1edc7fd64eb21e047a839171b9190a45050565b60006105e983670de0b6b3a764000084611611565b633b9aca00610f3f60355490565b1015610f7c5760405162461bcd60e51b815260206004820152600c60248201526b784d50483a20737570706c7960a01b60448201526064016105cd565b633b9aca00811015610fbf5760405162461bcd60e51b815260206004820152600c60248201526b1e1354120e881c995dd85c9960a21b60448201526064016105cd565b610fd3670de0b6b3a764000060001961227c565b811061102d5760405162461bcd60e51b815260206004820152602360248201527f784d50483a207265776172647320746f6f206c617267652c20776f756c64206c6044820152626f636b60e81b60648201526084016105cd565b61104560008051602061236783398151915233610808565b6110895760405162461bcd60e51b81526020600482015260156024820152743c26a8241d103737ba103234b9ba3934b13aba37b960591b60448201526064016105cd565b60c9546110a1906001600160a01b03163330846116ed565b60cb5442106110c85760ca546110b79042612264565b60cb554260cc5560cd819055611114565b600060cc5460cb546110da91906122bb565b4260cb546110e891906122bb565b60cd546110f5919061229c565b6110ff919061227c565b4260cc55905061110f8183612264565b60cd55505b6040518181527f231c2f80c902aff4c7d9f505b7c6d4e74f0dfa149d7cc269419632710952324a9060200160405180910390a150565b600080821161118a5760405162461bcd60e51b815260206004820152600c60248201526b1e1354120e88185b5bdd5b9d60a21b60448201526064016105cd565b61119c6111956106e0565b8390610f1c565b90506111a83382611725565b60c954610dc6906001600160a01b03163330856116ed565b600054610100900460ff16806111d9575060005460ff16155b6111f55760405162461bcd60e51b81526004016105cd90612216565b600054610100900460ff16158015611217576000805461ffff19166101011790555b61125f6040518060400160405280600a8152602001690a6e8c2d6cac8409aa0960b31b815250604051806040016040528060048152602001630f09aa0960e31b815250611804565b611267611883565b610961848484611906565b60006105e98383611abd565b6001600160a01b0382166112de5760405162461bcd60e51b815260206004820152602160248201527f45524332303a206275726e2066726f6d20746865207a65726f206164647265736044820152607360f81b60648201526084016105cd565b6001600160a01b038216600090815260336020526040902054818110156113525760405162461bcd60e51b815260206004820152602260248201527f45524332303a206275726e20616d6f756e7420657863656564732062616c616e604482015261636560f01b60648201526084016105cd565b6001600160a01b03831660009081526033602052604081208383039055603580548492906113819084906122bb565b90915550506040518281526000906001600160a01b038516907fddf252ad1be2c89b69c2b068fc378daa952ba7f163c4a11628f55a4df523b3ef9060200160405180910390a3505050565b6040516001600160a01b03831660248201526044810182905261062190849063a9059cbb60e01b906064015b60408051601f198184030181529190526020810180516001600160e01b03166001600160e01b031990931692909217909152611b7f565b6060600061143e83600261229c565b611449906002612264565b67ffffffffffffffff81111561146f57634e487b7160e01b600052604160045260246000fd5b6040519080825280601f01601f191660200182016040528015611499576020820181803683370190505b509050600360fc1b816000815181106114c257634e487b7160e01b600052603260045260246000fd5b60200101906001600160f81b031916908160001a905350600f60fb1b816001815181106114ff57634e487b7160e01b600052603260045260246000fd5b60200101906001600160f81b031916908160001a905350600061152384600261229c565b61152e906001612264565b90505b60018111156115c2576f181899199a1a9b1b9c1cb0b131b232b360811b85600f166010811061157057634e487b7160e01b600052603260045260246000fd5b1a60f81b82828151811061159457634e487b7160e01b600052603260045260246000fd5b60200101906001600160f81b031916908160001a90535060049490941c936115bb816122fe565b9050611531565b5083156105e95760405162461bcd60e51b815260206004820181905260248201527f537472696e67733a20686578206c656e67746820696e73756666696369656e7460448201526064016105cd565b60008080600019858709858702925082811083820303915050806000141561165a5783828161165057634e487b7160e01b600052601260045260246000fd5b04925050506105e9565b83811061168457604051631dcf306360e21b815260048101829052602481018590526044016105cd565b60008486880960026001871981018816978890046003810283188082028403028082028403028082028403028082028403028082028403029081029092039091026000889003889004909101858311909403939093029303949094049190911702949350505050565b6040516001600160a01b03808516602483015283166044820152606481018290526109739085906323b872dd60e01b906084016113f8565b6001600160a01b03821661177b5760405162461bcd60e51b815260206004820152601f60248201527f45524332303a206d696e7420746f20746865207a65726f20616464726573730060448201526064016105cd565b806035600082825461178d9190612264565b90915550506001600160a01b038216600090815260336020526040812080548392906117ba908490612264565b90915550506040518181526001600160a01b038316906000907fddf252ad1be2c89b69c2b068fc378daa952ba7f163c4a11628f55a4df523b3ef9060200160405180910390a35050565b600054610100900460ff168061181d575060005460ff16155b6118395760405162461bcd60e51b81526004016105cd90612216565b600054610100900460ff1615801561185b576000805461ffff19166101011790555b611863611c51565b61186d8383611cbb565b8015610621576000805461ff0019169055505050565b600054610100900460ff168061189c575060005460ff16155b6118b85760405162461bcd60e51b81526004016105cd90612216565b600054610100900460ff161580156118da576000805461ffff19166101011790555b6118e2611c51565b6118ea611c51565b6118f2611c51565b801561083c576000805461ff001916905550565b600054610100900460ff168061191f575060005460ff16155b61193b5760405162461bcd60e51b81526004016105cd90612216565b600054610100900460ff1615801561195d576000805461ffff19166101011790555b6001600160a01b0384161580159061197d57506001600160a01b03821615155b6119bb5760405162461bcd60e51b815260206004820152600f60248201526e784d50483a2030206164647265737360881b60448201526064016105cd565b6000831180156119cf57506301e133808311155b611a255760405162461bcd60e51b815260206004820152602160248201527f784d50483a20696e76616c6964205f726577617264556e6c6f636b506572696f6044820152601960fa1b60648201526084016105cd565b611a30600033611d50565b611a4860008051602061236783398151915233611d50565b611a6060008051602061236783398151915283611d50565b611a7860008051602061236783398151915280611d5a565b60c980546001600160a01b0319166001600160a01b03861617905560ca839055611aa5633b9aca0061114a565b508015610973576000805461ff001916905550505050565b60008080600019848609848602925082811083820303915050670de0b6b3a76400008110611b015760405163698d9a0160e11b8152600481018290526024016105cd565b600080670de0b6b3a76400008688099150506706f05b59d3b1ffff811182611b3b5780670de0b6b3a7640000850401945050505050610491565b620400008285030493909111909103600160ee1b02919091177faccb18165bd6fe31ae1cf318dc5b51eee0e1ba569b88cd74c1773b91fac106690201905092915050565b6000611bd4826040518060400160405280602081526020017f5361666545524332303a206c6f772d6c6576656c2063616c6c206661696c6564815250856001600160a01b0316611da59092919063ffffffff16565b8051909150156106215780806020019051810190611bf291906120b8565b6106215760405162461bcd60e51b815260206004820152602a60248201527f5361666545524332303a204552433230206f7065726174696f6e20646964206e6044820152691bdd081cdd58d8d9595960b21b60648201526084016105cd565b600054610100900460ff1680611c6a575060005460ff16155b611c865760405162461bcd60e51b81526004016105cd90612216565b600054610100900460ff161580156118f2576000805461ffff1916610101179055801561083c576000805461ff001916905550565b600054610100900460ff1680611cd4575060005460ff16155b611cf05760405162461bcd60e51b81526004016105cd90612216565b600054610100900460ff16158015611d12576000805461ffff19166101011790555b8251611d25906036906020860190611f1d565b508151611d39906037906020850190611f1d565b508015610621576000805461ff0019169055505050565b6106a08282610e2f565b600082815260976020526040808220600101805490849055905190918391839186917fbd79b86ffe0ab8e8776151514217cd7cacd52c909f66475c3af44e129f0b00ff9190a4505050565b6060611db48484600085611dbc565b949350505050565b606082471015611e1d5760405162461bcd60e51b815260206004820152602660248201527f416464726573733a20696e73756666696369656e742062616c616e636520666f6044820152651c8818d85b1b60d21b60648201526084016105cd565b843b611e6b5760405162461bcd60e51b815260206004820152601d60248201527f416464726573733a2063616c6c20746f206e6f6e2d636f6e747261637400000060448201526064016105cd565b600080866001600160a01b03168587604051611e879190612152565b60006040518083038185875af1925050503d8060008114611ec4576040519150601f19603f3d011682016040523d82523d6000602084013e611ec9565b606091505b5091509150611ed9828286611ee4565b979650505050505050565b60608315611ef35750816105e9565b825115611f035782518084602001fd5b8160405162461bcd60e51b81526004016105cd91906121e3565b828054611f2990612315565b90600052602060002090601f016020900481019282611f4b5760008555611f91565b82601f10611f6457805160ff1916838001178555611f91565b82800160010185558215611f91579182015b82811115611f91578251825591602001919060010190611f76565b50611f9d929150611fa1565b5090565b5b80821115611f9d5760008155600101611fa2565b80356001600160a01b0381168114610dc657600080fd5b600060208284031215611fde578081fd5b6105e982611fb6565b60008060408385031215611ff9578081fd5b61200283611fb6565b915061201060208401611fb6565b90509250929050565b60008060006060848603121561202d578081fd5b61203684611fb6565b925061204460208501611fb6565b9150604084013590509250925092565b60008060408385031215612066578182fd5b61206f83611fb6565b946020939093013593505050565b600080600060608486031215612091578283fd5b61209a84611fb6565b9250602084013591506120af60408501611fb6565b90509250925092565b6000602082840312156120c9578081fd5b815180151581146105e9578182fd5b6000602082840312156120e9578081fd5b5035919050565b60008060408385031215612102578182fd5b8235915061201060208401611fb6565b600060208284031215612123578081fd5b81356001600160e01b0319811681146105e9578182fd5b60006020828403121561214b578081fd5b5051919050565b600082516121648184602087016122d2565b9190910192915050565b7f416363657373436f6e74726f6c3a206163636f756e74200000000000000000008152600083516121a68160178501602088016122d2565b7001034b99036b4b9b9b4b733903937b6329607d1b60179184019182015283516121d78160288401602088016122d2565b01602801949350505050565b60208152600082518060208401526122028160408501602087016122d2565b601f01601f19169190910160400192915050565b6020808252602e908201527f496e697469616c697a61626c653a20636f6e747261637420697320616c72656160408201526d191e481a5b9a5d1a585b1a5e995960921b606082015260800190565b6000821982111561227757612277612350565b500190565b60008261229757634e487b7160e01b81526012600452602481fd5b500490565b60008160001904831182151516156122b6576122b6612350565b500290565b6000828210156122cd576122cd612350565b500390565b60005b838110156122ed5781810151838201526020016122d5565b838111156109735750506000910152565b60008161230d5761230d612350565b506000190190565b600181811c9082168061232957607f821691505b6020821081141561234a57634e487b7160e01b600052602260045260246000fd5b50919050565b634e487b7160e01b600052601160045260246000fdfefbd454f36a7e1a388bd6fc3ab10d434aa4578f811acbbcf33afb1c697486313ca2646970667358221220440c525aebde7e7fbf0243f7858ece08afe097c9f8ca3ef0c5bcb550371394ab64736f6c63430008040033",
  "devdoc": {
    "author": "Zefram Lou",
    "kind": "dev",
    "methods": {
      "allowance(address,address)": {
        "details": "See {IERC20-allowance}."
      },
      "approve(address,uint256)": {
        "details": "See {IERC20-approve}. Requirements: - `spender` cannot be the zero address."
      },
      "balanceOf(address)": {
        "details": "See {IERC20-balanceOf}."
      },
      "decimals()": {
        "details": "Returns the number of decimals used to get its user representation. For example, if `decimals` equals `2`, a balance of `505` tokens should be displayed to a user as `5.05` (`505 / 10 ** 2`). Tokens usually opt for a value of 18, imitating the relationship between Ether and Wei. This is the value {ERC20} uses, unless this function is overridden; NOTE: This information is only used for _display_ purposes: it in no way affects any of the arithmetic of the contract, including {IERC20-balanceOf} and {IERC20-transfer}."
      },
      "decreaseAllowance(address,uint256)": {
        "details": "Atomically decreases the allowance granted to `spender` by the caller. This is an alternative to {approve} that can be used as a mitigation for problems described in {IERC20-approve}. Emits an {Approval} event indicating the updated allowance. Requirements: - `spender` cannot be the zero address. - `spender` must have allowance for the caller of at least `subtractedValue`."
      },
      "deposit(uint256)": {
        "details": "The amount can't be 0",
        "params": {
          "_mphAmount": "The amount of MPH to deposit"
        },
        "returns": {
          "shareAmount": "The amount of xMPH minted"
        }
      },
      "distributeReward(uint256)": {
        "details": "When not in a distribution period, start a new one with rewardUnlockPeriod seconds. When in a distribution period, add rewards to current period"
      },
      "getPricePerFullShare()": {
        "details": "Initialized to be PRECISION (representing 1 MPH = 1 xMPH)",
        "returns": {
          "_0": "The amount of MPH that can be withdrawn by burning 1 xMPH"
        }
      },
      "getRoleAdmin(bytes32)": {
        "details": "Returns the admin role that controls `role`. See {grantRole} and {revokeRole}. To change a role's admin, use {_setRoleAdmin}."
      },
      "grantRole(bytes32,address)": {
        "details": "Grants `role` to `account`. If `account` had not been already granted `role`, emits a {RoleGranted} event. Requirements: - the caller must have ``role``'s admin role."
      },
      "hasRole(bytes32,address)": {
        "details": "Returns `true` if `account` has been granted `role`."
      },
      "increaseAllowance(address,uint256)": {
        "details": "Atomically increases the allowance granted to `spender` by the caller. This is an alternative to {approve} that can be used as a mitigation for problems described in {IERC20-approve}. Emits an {Approval} event indicating the updated allowance. Requirements: - `spender` cannot be the zero address."
      },
      "initialize(address,uint256,address)": {
        "params": {
          "_distributor": "The account that will call distributeReward()",
          "_mph": "The MPH token",
          "_rewardUnlockPeriod": "The length of each reward distribution period, in seconds"
        }
      },
      "name()": {
        "details": "Returns the name of the token."
      },
      "renounceRole(bytes32,address)": {
        "details": "Revokes `role` from the calling account. Roles are often managed via {grantRole} and {revokeRole}: this function's purpose is to provide a mechanism for accounts to lose their privileges if they are compromised (such as when a trusted device is misplaced). If the calling account had been granted `role`, emits a {RoleRevoked} event. Requirements: - the caller must be `account`."
      },
      "revokeRole(bytes32,address)": {
        "details": "Revokes `role` from `account`. If `account` had been granted `role`, emits a {RoleRevoked} event. Requirements: - the caller must have ``role``'s admin role."
      },
      "supportsInterface(bytes4)": {
        "details": "See {IERC165-supportsInterface}."
      },
      "symbol()": {
        "details": "Returns the symbol of the token, usually a shorter version of the name."
      },
      "totalSupply()": {
        "details": "See {IERC20-totalSupply}."
      },
      "transfer(address,uint256)": {
        "details": "See {IERC20-transfer}. Requirements: - `recipient` cannot be the zero address. - the caller must have a balance of at least `amount`."
      },
      "transferFrom(address,address,uint256)": {
        "details": "See {IERC20-transferFrom}. Emits an {Approval} event indicating the updated allowance. This is not required by the EIP. See the note at the beginning of {ERC20}. Requirements: - `sender` and `recipient` cannot be the zero address. - `sender` must have a balance of at least `amount`. - the caller must have allowance for ``sender``'s tokens of at least `amount`."
      },
      "withdraw(uint256)": {
        "details": "The amount can't be 0",
        "params": {
          "_shareAmount": "The amount of xMPH to burn"
        },
        "returns": {
          "mphAmount": "The amount of MPH withdrawn"
        }
      }
    },
    "title": "Staked MPH",
    "version": 1
  },
  "userdoc": {
    "errors": {
      "PRBMath__MulDivFixedPointOverflow(uint256)": [
        {
          "notice": "Emitted when the result overflows uint256."
        }
      ],
      "PRBMath__MulDivOverflow(uint256,uint256)": [
        {
          "notice": "Emitted when the result overflows uint256."
        }
      ]
    },
    "kind": "user",
    "methods": {
      "deposit(uint256)": {
        "notice": "Deposit MPH to get xMPH"
      },
      "distributeReward(uint256)": {
        "notice": "Distributes MPH rewards to xMPH holders"
      },
      "getPricePerFullShare()": {
        "notice": "Compute the amount of MPH that can be withdrawn by burning 1 xMPH. Increases linearly during a reward distribution period."
      },
      "withdraw(uint256)": {
        "notice": "Withdraw MPH using xMPH"
      }
    },
    "notice": "The MPH staking contract",
    "version": 1
  },
  "storageLayout": {
    "storage": [
      {
        "astId": 618,
        "contract": "contracts/rewards/xMPH.sol:xMPH",
        "label": "_initialized",
        "offset": 0,
        "slot": "0",
        "type": "t_bool"
      },
      {
        "astId": 621,
        "contract": "contracts/rewards/xMPH.sol:xMPH",
        "label": "_initializing",
        "offset": 1,
        "slot": "0",
        "type": "t_bool"
      },
      {
        "astId": 3221,
        "contract": "contracts/rewards/xMPH.sol:xMPH",
        "label": "__gap",
        "offset": 0,
        "slot": "1",
        "type": "t_array(t_uint256)50_storage"
      },
      {
        "astId": 1026,
        "contract": "contracts/rewards/xMPH.sol:xMPH",
        "label": "_balances",
        "offset": 0,
        "slot": "51",
        "type": "t_mapping(t_address,t_uint256)"
      },
      {
        "astId": 1032,
        "contract": "contracts/rewards/xMPH.sol:xMPH",
        "label": "_allowances",
        "offset": 0,
        "slot": "52",
        "type": "t_mapping(t_address,t_mapping(t_address,t_uint256))"
      },
      {
        "astId": 1034,
        "contract": "contracts/rewards/xMPH.sol:xMPH",
        "label": "_totalSupply",
        "offset": 0,
        "slot": "53",
        "type": "t_uint256"
      },
      {
        "astId": 1036,
        "contract": "contracts/rewards/xMPH.sol:xMPH",
        "label": "_name",
        "offset": 0,
        "slot": "54",
        "type": "t_string_storage"
      },
      {
        "astId": 1038,
        "contract": "contracts/rewards/xMPH.sol:xMPH",
        "label": "_symbol",
        "offset": 0,
        "slot": "55",
        "type": "t_string_storage"
      },
      {
        "astId": 1579,
        "contract": "contracts/rewards/xMPH.sol:xMPH",
        "label": "__gap",
        "offset": 0,
        "slot": "56",
        "type": "t_array(t_uint256)45_storage"
      },
      {
        "astId": 3581,
        "contract": "contracts/rewards/xMPH.sol:xMPH",
        "label": "__gap",
        "offset": 0,
        "slot": "101",
        "type": "t_array(t_uint256)50_storage"
      },
      {
        "astId": 48,
        "contract": "contracts/rewards/xMPH.sol:xMPH",
        "label": "_roles",
        "offset": 0,
        "slot": "151",
        "type": "t_mapping(t_bytes32,t_struct(RoleData)43_storage)"
      },
      {
        "astId": 333,
        "contract": "contracts/rewards/xMPH.sol:xMPH",
        "label": "__gap",
        "offset": 0,
        "slot": "152",
        "type": "t_array(t_uint256)49_storage"
      },
      {
        "astId": 28499,
        "contract": "contracts/rewards/xMPH.sol:xMPH",
        "label": "mph",
        "offset": 0,
        "slot": "201",
        "type": "t_contract(ERC20)4880"
      },
      {
        "astId": 28501,
        "contract": "contracts/rewards/xMPH.sol:xMPH",
        "label": "rewardUnlockPeriod",
        "offset": 0,
        "slot": "202",
        "type": "t_uint256"
      },
      {
        "astId": 28503,
        "contract": "contracts/rewards/xMPH.sol:xMPH",
        "label": "currentUnlockEndTimestamp",
        "offset": 0,
        "slot": "203",
        "type": "t_uint256"
      },
      {
        "astId": 28505,
        "contract": "contracts/rewards/xMPH.sol:xMPH",
        "label": "lastRewardTimestamp",
        "offset": 0,
        "slot": "204",
        "type": "t_uint256"
      },
      {
        "astId": 28507,
        "contract": "contracts/rewards/xMPH.sol:xMPH",
        "label": "lastRewardAmount",
        "offset": 0,
        "slot": "205",
        "type": "t_uint256"
      },
      {
        "astId": 28985,
        "contract": "contracts/rewards/xMPH.sol:xMPH",
        "label": "__gap",
        "offset": 0,
        "slot": "206",
        "type": "t_array(t_uint256)45_storage"
      }
    ],
    "types": {
      "t_address": {
        "encoding": "inplace",
        "label": "address",
        "numberOfBytes": "20"
      },
      "t_array(t_uint256)45_storage": {
        "base": "t_uint256",
        "encoding": "inplace",
        "label": "uint256[45]",
        "numberOfBytes": "1440"
      },
      "t_array(t_uint256)49_storage": {
        "base": "t_uint256",
        "encoding": "inplace",
        "label": "uint256[49]",
        "numberOfBytes": "1568"
      },
      "t_array(t_uint256)50_storage": {
        "base": "t_uint256",
        "encoding": "inplace",
        "label": "uint256[50]",
        "numberOfBytes": "1600"
      },
      "t_bool": {
        "encoding": "inplace",
        "label": "bool",
        "numberOfBytes": "1"
      },
      "t_bytes32": {
        "encoding": "inplace",
        "label": "bytes32",
        "numberOfBytes": "32"
      },
      "t_contract(ERC20)4880": {
        "encoding": "inplace",
        "label": "contract ERC20",
        "numberOfBytes": "20"
      },
      "t_mapping(t_address,t_bool)": {
        "encoding": "mapping",
        "key": "t_address",
        "label": "mapping(address => bool)",
        "numberOfBytes": "32",
        "value": "t_bool"
      },
      "t_mapping(t_address,t_mapping(t_address,t_uint256))": {
        "encoding": "mapping",
        "key": "t_address",
        "label": "mapping(address => mapping(address => uint256))",
        "numberOfBytes": "32",
        "value": "t_mapping(t_address,t_uint256)"
      },
      "t_mapping(t_address,t_uint256)": {
        "encoding": "mapping",
        "key": "t_address",
        "label": "mapping(address => uint256)",
        "numberOfBytes": "32",
        "value": "t_uint256"
      },
      "t_mapping(t_bytes32,t_struct(RoleData)43_storage)": {
        "encoding": "mapping",
        "key": "t_bytes32",
        "label": "mapping(bytes32 => struct AccessControlUpgradeable.RoleData)",
        "numberOfBytes": "32",
        "value": "t_struct(RoleData)43_storage"
      },
      "t_string_storage": {
        "encoding": "bytes",
        "label": "string",
        "numberOfBytes": "32"
      },
      "t_struct(RoleData)43_storage": {
        "encoding": "inplace",
        "label": "struct AccessControlUpgradeable.RoleData",
        "members": [
          {
            "astId": 40,
            "contract": "contracts/rewards/xMPH.sol:xMPH",
            "label": "members",
            "offset": 0,
            "slot": "0",
            "type": "t_mapping(t_address,t_bool)"
          },
          {
            "astId": 42,
            "contract": "contracts/rewards/xMPH.sol:xMPH",
            "label": "adminRole",
            "offset": 0,
            "slot": "1",
            "type": "t_bytes32"
          }
        ],
        "numberOfBytes": "64"
      },
      "t_uint256": {
        "encoding": "inplace",
        "label": "uint256",
        "numberOfBytes": "32"
      }
    }
  }
}