{
  "address": "0x84c49B99377Cc158a395410590c085264Ff8519E",
  "abi": [
    {
      "inputs": [
        {
          "internalType": "uint256",
          "name": "prod1",
          "type": "uint256"
        }
      ],
      "name": "PRBMath__MulDivFixedPointOverflow",
      "type": "error"
    },
    {
      "anonymous": false,
      "inputs": [
        {
          "indexed": true,
          "internalType": "address",
          "name": "sender",
          "type": "address"
        },
        {
          "indexed": true,
          "internalType": "string",
          "name": "paramName",
          "type": "string"
        },
        {
          "indexed": false,
          "internalType": "address",
          "name": "newValue",
          "type": "address"
        }
      ],
      "name": "ESetParamAddress",
      "type": "event"
    },
    {
      "anonymous": false,
      "inputs": [
        {
          "indexed": true,
          "internalType": "address",
          "name": "previousOwner",
          "type": "address"
        },
        {
          "indexed": true,
          "internalType": "address",
          "name": "newOwner",
          "type": "address"
        }
      ],
      "name": "OwnershipTransferred",
      "type": "event"
    },
    {
      "anonymous": false,
      "inputs": [
        {
          "indexed": true,
          "internalType": "bytes32",
          "name": "role",
          "type": "bytes32"
        },
        {
          "indexed": true,
          "internalType": "bytes32",
          "name": "previousAdminRole",
          "type": "bytes32"
        },
        {
          "indexed": true,
          "internalType": "bytes32",
          "name": "newAdminRole",
          "type": "bytes32"
        }
      ],
      "name": "RoleAdminChanged",
      "type": "event"
    },
    {
      "anonymous": false,
      "inputs": [
        {
          "indexed": true,
          "internalType": "bytes32",
          "name": "role",
          "type": "bytes32"
        },
        {
          "indexed": true,
          "internalType": "address",
          "name": "account",
          "type": "address"
        },
        {
          "indexed": true,
          "internalType": "address",
          "name": "sender",
          "type": "address"
        }
      ],
      "name": "RoleGranted",
      "type": "event"
    },
    {
      "anonymous": false,
      "inputs": [
        {
          "indexed": true,
          "internalType": "bytes32",
          "name": "role",
          "type": "bytes32"
        },
        {
          "indexed": true,
          "internalType": "address",
          "name": "account",
          "type": "address"
        },
        {
          "indexed": true,
          "internalType": "address",
          "name": "sender",
          "type": "address"
        }
      ],
      "name": "RoleRevoked",
      "type": "event"
    },
    {
      "inputs": [],
      "name": "DEFAULT_ADMIN_ROLE",
      "outputs": [
        {
          "internalType": "bytes32",
          "name": "",
          "type": "bytes32"
        }
      ],
      "stateMutability": "view",
      "type": "function"
    },
    {
      "inputs": [],
      "name": "cToken",
      "outputs": [
        {
          "internalType": "contract ICERC20",
          "name": "",
          "type": "address"
        }
      ],
      "stateMutability": "view",
      "type": "function"
    },
    {
      "inputs": [],
      "name": "claimRewards",
      "outputs": [],
      "stateMutability": "nonpayable",
      "type": "function"
    },
    {
      "inputs": [],
      "name": "comptroller",
      "outputs": [
        {
          "internalType": "contract IComptroller",
          "name": "",
          "type": "address"
        }
      ],
      "stateMutability": "view",
      "type": "function"
    },
    {
      "inputs": [
        {
          "internalType": "uint256",
          "name": "amount",
          "type": "uint256"
        }
      ],
      "name": "deposit",
      "outputs": [],
      "stateMutability": "nonpayable",
      "type": "function"
    },
    {
      "inputs": [
        {
          "internalType": "bytes32",
          "name": "role",
          "type": "bytes32"
        }
      ],
      "name": "getRoleAdmin",
      "outputs": [
        {
          "internalType": "bytes32",
          "name": "",
          "type": "bytes32"
        }
      ],
      "stateMutability": "view",
      "type": "function"
    },
    {
      "inputs": [
        {
          "internalType": "bytes32",
          "name": "role",
          "type": "bytes32"
        },
        {
          "internalType": "address",
          "name": "account",
          "type": "address"
        }
      ],
      "name": "grantRole",
      "outputs": [],
      "stateMutability": "nonpayable",
      "type": "function"
    },
    {
      "inputs": [
        {
          "internalType": "bytes32",
          "name": "role",
          "type": "bytes32"
        },
        {
          "internalType": "address",
          "name": "account",
          "type": "address"
        }
      ],
      "name": "hasRole",
      "outputs": [
        {
          "internalType": "bool",
          "name": "",
          "type": "bool"
        }
      ],
      "stateMutability": "view",
      "type": "function"
    },
    {
      "inputs": [],
      "name": "incomeIndex",
      "outputs": [
        {
          "internalType": "uint256",
          "name": "index",
          "type": "uint256"
        }
      ],
      "stateMutability": "nonpayable",
      "type": "function"
    },
    {
      "inputs": [
        {
          "internalType": "address",
          "name": "_cToken",
          "type": "address"
        },
        {
          "internalType": "address",
          "name": "_comptroller",
          "type": "address"
        },
        {
          "internalType": "address",
          "name": "_rewards",
          "type": "address"
        },
        {
          "internalType": "address",
          "name": "_rescuer",
          "type": "address"
        },
        {
          "internalType": "address",
          "name": "_stablecoin",
          "type": "address"
        }
      ],
      "name": "initialize",
      "outputs": [],
      "stateMutability": "nonpayable",
      "type": "function"
    },
    {
      "inputs": [],
      "name": "owner",
      "outputs": [
        {
          "internalType": "address",
          "name": "",
          "type": "address"
        }
      ],
      "stateMutability": "view",
      "type": "function"
    },
    {
      "inputs": [],
      "name": "renounceOwnership",
      "outputs": [],
      "stateMutability": "nonpayable",
      "type": "function"
    },
    {
      "inputs": [
        {
          "internalType": "bytes32",
          "name": "role",
          "type": "bytes32"
        },
        {
          "internalType": "address",
          "name": "account",
          "type": "address"
        }
      ],
      "name": "renounceRole",
      "outputs": [],
      "stateMutability": "nonpayable",
      "type": "function"
    },
    {
      "inputs": [
        {
          "internalType": "address",
          "name": "token",
          "type": "address"
        },
        {
          "internalType": "address",
          "name": "target",
          "type": "address"
        }
      ],
      "name": "rescue",
      "outputs": [],
      "stateMutability": "nonpayable",
      "type": "function"
    },
    {
      "inputs": [
        {
          "internalType": "bytes32",
          "name": "role",
          "type": "bytes32"
        },
        {
          "internalType": "address",
          "name": "account",
          "type": "address"
        }
      ],
      "name": "revokeRole",
      "outputs": [],
      "stateMutability": "nonpayable",
      "type": "function"
    },
    {
      "inputs": [],
      "name": "rewards",
      "outputs": [
        {
          "internalType": "address",
          "name": "",
          "type": "address"
        }
      ],
      "stateMutability": "view",
      "type": "function"
    },
    {
      "inputs": [
        {
          "internalType": "address",
          "name": "newValue",
          "type": "address"
        }
      ],
      "name": "setRewards",
      "outputs": [],
      "stateMutability": "nonpayable",
      "type": "function"
    },
    {
      "inputs": [],
      "name": "stablecoin",
      "outputs": [
        {
          "internalType": "contract ERC20",
          "name": "",
          "type": "address"
        }
      ],
      "stateMutability": "view",
      "type": "function"
    },
    {
      "inputs": [
        {
          "internalType": "bytes4",
          "name": "interfaceId",
          "type": "bytes4"
        }
      ],
      "name": "supportsInterface",
      "outputs": [
        {
          "internalType": "bool",
          "name": "",
          "type": "bool"
        }
      ],
      "stateMutability": "view",
      "type": "function"
    },
    {
      "inputs": [
        {
          "internalType": "uint256",
          "name": "currentIncomeIndex",
          "type": "uint256"
        }
      ],
      "name": "totalValue",
      "outputs": [
        {
          "internalType": "uint256",
          "name": "",
          "type": "uint256"
        }
      ],
      "stateMutability": "view",
      "type": "function"
    },
    {
      "inputs": [],
      "name": "totalValue",
      "outputs": [
        {
          "internalType": "uint256",
          "name": "",
          "type": "uint256"
        }
      ],
      "stateMutability": "nonpayable",
      "type": "function"
    },
    {
      "inputs": [
        {
          "internalType": "address",
          "name": "newOwner",
          "type": "address"
        }
      ],
      "name": "transferOwnership",
      "outputs": [],
      "stateMutability": "nonpayable",
      "type": "function"
    },
    {
      "inputs": [
        {
          "internalType": "uint256",
          "name": "amountInUnderlying",
          "type": "uint256"
        }
      ],
      "name": "withdraw",
      "outputs": [
        {
          "internalType": "uint256",
          "name": "actualAmountWithdrawn",
          "type": "uint256"
        }
      ],
      "stateMutability": "nonpayable",
      "type": "function"
    },
    {
      "stateMutability": "payable",
      "type": "receive"
    }
  ],
  "transactionHash": "0xb13f726ef4458c5807c5d3368fb9cf32a2aa41323d502be65d1f5466ea20ee33",
  "args": [],
  "solcInputHash": "d02015aa653d26ad688dea5b030c6cc9",
  "bytecode": "0x608060405234801561001057600080fd5b50612022806100206000396000f3fe6080604052600436106101445760003560e01c806369e527da116100b6578063b6b55f251161006f578063b6b55f251461038f578063d4c3eea0146103af578063d547741f146103c4578063e9cbd822146103e4578063ec38a86214610404578063f2fde38b1461042457600080fd5b806369e527da146102e7578063715018a6146103075780638da5cb5b1461031c57806391d148541461033a5780639ec5a8941461035a578063a217fddf1461037a57600080fd5b80632f2ff15d116101085780632f2ff15d1461021a57806336568abe1461023a578063372500ab1461025a5780634fdf5d1d1461026f578063579f07b01461028f5780635fe3b567146102af57600080fd5b806301ffc9a7146101505780631459457a1461018557806321c26120146101a7578063248a9ca3146101ca5780632e1a7d4d146101fa57600080fd5b3661014b57005b600080fd5b34801561015c57600080fd5b5061017061016b366004611dc0565b610444565b60405190151581526020015b60405180910390f35b34801561019157600080fd5b506101a56101a0366004611cf4565b61047b565b005b3480156101b357600080fd5b506101bc6105ef565b60405190815260200161017c565b3480156101d657600080fd5b506101bc6101e5366004611d84565b600090815260c9602052604090206001015490565b34801561020657600080fd5b506101bc610215366004611d84565b6105fe565b34801561022657600080fd5b506101a5610235366004611d9c565b61077f565b34801561024657600080fd5b506101a5610255366004611d9c565b6107aa565b34801561026657600080fd5b506101a5610828565b34801561027b57600080fd5b506101a561028a366004611cbc565b610a46565b34801561029b57600080fd5b506101bc6102aa366004611d84565b610ae0565b3480156102bb57600080fd5b5060fc546102cf906001600160a01b031681565b6040516001600160a01b03909116815260200161017c565b3480156102f357600080fd5b5060fb546102cf906001600160a01b031681565b34801561031357600080fd5b506101a5610aeb565b34801561032857600080fd5b506065546001600160a01b03166102cf565b34801561034657600080fd5b50610170610355366004611d9c565b610b5f565b34801561036657600080fd5b5060fd546102cf906001600160a01b031681565b34801561038657600080fd5b506101bc600081565b34801561039b57600080fd5b506101a56103aa366004611d84565b610b8a565b3480156103bb57600080fd5b506101bc610d19565b3480156103d057600080fd5b506101a56103df366004611d9c565b610d2b565b3480156103f057600080fd5b5060fe546102cf906001600160a01b031681565b34801561041057600080fd5b506101a561041f366004611c84565b610d51565b34801561043057600080fd5b506101a561043f366004611c84565b610e47565b60006001600160e01b03198216637965db0b60e01b148061047557506301ffc9a760e01b6001600160e01b03198316145b92915050565b603254610100900460ff1680610494575060325460ff16155b6104b95760405162461bcd60e51b81526004016104b090611ec4565b60405180910390fd5b603254610100900460ff161580156104db576032805461ffff19166101011790555b6104e483610f32565b6001600160a01b0386163b1515801561050657506001600160a01b0385163b15155b801561051a57506001600160a01b03841615155b801561052f57506001600160a01b0382163b15155b61058b5760405162461bcd60e51b815260206004820152602760248201527f42656e716945524332304d61726b65743a20496e76616c696420696e707574206044820152666164647265737360c81b60648201526084016104b0565b60fb80546001600160a01b038089166001600160a01b03199283161790925560fc805488841690831617905560fd805487841690831617905560fe80549285169290911691909117905580156105e7576032805461ff00191690555b505050505050565b60006105f9611002565b905090565b6065546000906001600160a01b0316331461062b5760405162461bcd60e51b81526004016104b090611f12565b6000821161068d5760405162461bcd60e51b815260206004820152602960248201527f42656e716945524332304d61726b65743a20616d6f756e74496e556e6465726c604482015268079696e6720697320360bc1b60648201526084016104b0565b60fb5460405163852a12e360e01b8152600481018490526000916001600160a01b03169063852a12e390602401602060405180830381600087803b1580156106d457600080fd5b505af11580156106e8573d6000803e3d6000fd5b505050506040513d601f19601f8201168201806040525081019061070c9190611de8565b146107645760405162461bcd60e51b815260206004820152602260248201527f42656e716945524332304d61726b65743a204661696c656420746f2072656465604482015261656d60f01b60648201526084016104b0565b60fe5461077b906001600160a01b031633846110d5565b5090565b600082815260c9602052604090206001015461079b8133611138565b6107a5838361119c565b505050565b6001600160a01b038116331461081a5760405162461bcd60e51b815260206004820152602f60248201527f416363657373436f6e74726f6c3a2063616e206f6e6c792072656e6f756e636560448201526e103937b632b9903337b91039b2b63360891b60648201526084016104b0565b6108248282611222565b5050565b60fc54604051630952c56360e01b8152600060048201523060248201526001600160a01b0390911690630952c56390604401600060405180830381600087803b15801561087457600080fd5b505af1158015610888573d6000803e3d6000fd5b505060fc54604051630952c56360e01b8152600160048201523060248201526001600160a01b039091169250630952c5639150604401600060405180830381600087803b1580156108d857600080fd5b505af11580156108ec573d6000803e3d6000fd5b50505050600060fc60009054906101000a90046001600160a01b03166001600160a01b03166326d71f1e6040518163ffffffff1660e01b815260040160206040518083038186803b15801561094057600080fd5b505afa158015610954573d6000803e3d6000fd5b505050506040513d601f19601f820116820180604052508101906109789190611ca0565b60fd546040516370a0823160e01b81523060048201529192506001600160a01b0390811691610a11918391908516906370a082319060240160206040518083038186803b1580156109c857600080fd5b505afa1580156109dc573d6000803e3d6000fd5b505050506040513d601f19601f82011682018060405250810190610a009190611de8565b6001600160a01b03851691906110d5565b6040516001600160a01b038216904780156108fc02916000818181858888f193505050501580156107a5573d6000803e3d6000fd5b610a508282611289565b6040516370a0823160e01b815230600482015282906107a59083906001600160a01b038416906370a082319060240160206040518083038186803b158015610a9757600080fd5b505afa158015610aab573d6000803e3d6000fd5b505050506040513d601f19601f82011682018060405250810190610acf9190611de8565b6001600160a01b03841691906110d5565b6000610475826112f1565b6065546001600160a01b03163314610b155760405162461bcd60e51b81526004016104b090611f12565b6065546040516000916001600160a01b0316907f8be0079c531659141344cd1fd0a4f28419497f9722a3daafe3b4186f6b6457e0908390a3606580546001600160a01b0319169055565b600091825260c9602090815260408084206001600160a01b0393909316845291905290205460ff1690565b6065546001600160a01b03163314610bb45760405162461bcd60e51b81526004016104b090611f12565b60008111610c045760405162461bcd60e51b815260206004820152601d60248201527f42656e716945524332304d61726b65743a20616d6f756e74206973203000000060448201526064016104b0565b60fe54610c1c906001600160a01b0316333084611384565b60fb5460fe54610c39916001600160a01b039182169116836113c2565b60fb5460405163140e25ad60e31b8152600481018390526000916001600160a01b03169063a0712d6890602401602060405180830381600087803b158015610c8057600080fd5b505af1158015610c94573d6000803e3d6000fd5b505050506040513d601f19601f82011682018060405250810190610cb89190611de8565b14610d165760405162461bcd60e51b815260206004820152602860248201527f42656e716945524332304d61726b65743a204661696c656420746f206d696e746044820152672063546f6b656e7360c01b60648201526084016104b0565b50565b60006105f9610d26611002565b6112f1565b600082815260c96020526040902060010154610d478133611138565b6107a58383611222565b6065546001600160a01b03163314610d7b5760405162461bcd60e51b81526004016104b090611f12565b6001600160a01b038116610dd15760405162461bcd60e51b815260206004820152601b60248201527f42656e716945524332304d61726b65743a20302061646472657373000000000060448201526064016104b0565b60fd80546001600160a01b0319166001600160a01b038316179055604051667265776172647360c81b81526007016040519081900381206001600160a01b03831682529033907f64b03eb8356730cffd396927eec0e9b1e0599498960e022df3dae35791c17cf59060200160405180910390a350565b6065546001600160a01b03163314610e715760405162461bcd60e51b81526004016104b090611f12565b6001600160a01b038116610ed65760405162461bcd60e51b815260206004820152602660248201527f4f776e61626c653a206e6577206f776e657220697320746865207a65726f206160448201526564647265737360d01b60648201526084016104b0565b6065546040516001600160a01b038084169216907f8be0079c531659141344cd1fd0a4f28419497f9722a3daafe3b4186f6b6457e090600090a3606580546001600160a01b0319166001600160a01b0392909216919091179055565b603254610100900460ff1680610f4b575060325460ff16155b610f675760405162461bcd60e51b81526004016104b090611ec4565b603254610100900460ff16158015610f89576032805461ffff19166101011790555b610f916114b4565b610f9961152f565b610fc37fcf6f9f892731e14b8859835f2ff35575f447fb501f46243c4eb8bac19e31a0508361159e565b610fed7fcf6f9f892731e14b8859835f2ff35575f447fb501f46243c4eb8bac19e31a050806115a8565b8015610824576032805461ff00191690555050565b60fb546040805163bd6d894d60e01b815290516000926001600160a01b03169163bd6d894d91600480830192602092919082900301818787803b15801561104857600080fd5b505af115801561105c573d6000803e3d6000fd5b505050506040513d601f19601f820116820180604052508101906110809190611de8565b9050600081116110d25760405162461bcd60e51b815260206004820152601b60248201527f42656e716945524332304d61726b65743a204241445f494e444558000000000060448201526064016104b0565b90565b6040516001600160a01b0383166024820152604481018290526107a590849063a9059cbb60e01b906064015b60408051601f198184030181529190526020810180516001600160e01b03166001600160e01b0319909316929092179091526115fc565b6111428282610b5f565b6108245761115a816001600160a01b031660146116ce565b6111658360206116ce565b604051602001611176929190611e1c565b60408051601f198184030181529082905262461bcd60e51b82526104b091600401611e91565b6111a68282610b5f565b61082457600082815260c9602090815260408083206001600160a01b03851684529091529020805460ff191660011790556111de3390565b6001600160a01b0316816001600160a01b0316837f2f8788117e7eff1d82e926ec794901d17c78024a50270940304540a733656f0d60405160405180910390a45050565b61122c8282610b5f565b1561082457600082815260c9602090815260408083206001600160a01b0385168085529252808320805460ff1916905551339285917ff6391f5c32d9c69d2a47ea670b442974b53935d1edc7fd64eb21e047a839171b9190a45050565b61129382826118b0565b60fb546001600160a01b03838116911614156108245760405162461bcd60e51b815260206004820152601a60248201527f42656e716945524332304d61726b65743a206e6f20737465616c00000000000060448201526064016104b0565b60fb546040516370a0823160e01b815230600482015260009182916001600160a01b03909116906370a082319060240160206040518083038186803b15801561133957600080fd5b505afa15801561134d573d6000803e3d6000fd5b505050506040513d601f19601f820116820180604052508101906113719190611de8565b905061137d8184611926565b9392505050565b6040516001600160a01b03808516602483015283166044820152606481018290526113bc9085906323b872dd60e01b90608401611101565b50505050565b604051636eb1769f60e11b81523060048201526001600160a01b0383811660248301526000919085169063dd62ed3e9060440160206040518083038186803b15801561140d57600080fd5b505afa158015611421573d6000803e3d6000fd5b505050506040513d601f19601f820116820180604052508101906114459190611de8565b9050801561147d576040516001600160a01b03841660248201526000604482015261147d90859063095ea7b360e01b90606401611101565b6113bc8463095ea7b360e01b856114948686611f47565b6040516001600160a01b0390921660248301526044820152606401611101565b603254610100900460ff16806114cd575060325460ff16155b6114e95760405162461bcd60e51b81526004016104b090611ec4565b603254610100900460ff1615801561150b576032805461ffff19166101011790555b611513611932565b61151b61199c565b8015610d16576032805461ff001916905550565b603254610100900460ff1680611548575060325460ff16155b6115645760405162461bcd60e51b81526004016104b090611ec4565b603254610100900460ff16158015611586576032805461ffff19166101011790555b61158e611932565b611596611932565b61151b611932565b610824828261119c565b600082815260c96020526040902060010154819060405184907fbd79b86ffe0ab8e8776151514217cd7cacd52c909f66475c3af44e129f0b00ff90600090a4600091825260c9602052604090912060010155565b6000611651826040518060400160405280602081526020017f5361666545524332303a206c6f772d6c6576656c2063616c6c206661696c6564815250856001600160a01b0316611a4a9092919063ffffffff16565b8051909150156107a5578080602001905181019061166f9190611d64565b6107a55760405162461bcd60e51b815260206004820152602a60248201527f5361666545524332303a204552433230206f7065726174696f6e20646964206e6044820152691bdd081cdd58d8d9595960b21b60648201526084016104b0565b606060006116dd836002611f5f565b6116e8906002611f47565b67ffffffffffffffff81111561170e57634e487b7160e01b600052604160045260246000fd5b6040519080825280601f01601f191660200182016040528015611738576020820181803683370190505b509050600360fc1b8160008151811061176157634e487b7160e01b600052603260045260246000fd5b60200101906001600160f81b031916908160001a905350600f60fb1b8160018151811061179e57634e487b7160e01b600052603260045260246000fd5b60200101906001600160f81b031916908160001a90535060006117c2846002611f5f565b6117cd906001611f47565b90505b6001811115611861576f181899199a1a9b1b9c1cb0b131b232b360811b85600f166010811061180f57634e487b7160e01b600052603260045260246000fd5b1a60f81b82828151811061183357634e487b7160e01b600052603260045260246000fd5b60200101906001600160f81b031916908160001a90535060049490941c9361185a81611faa565b90506117d0565b50831561137d5760405162461bcd60e51b815260206004820181905260248201527f537472696e67733a20686578206c656e67746820696e73756666696369656e7460448201526064016104b0565b6118da7fcf6f9f892731e14b8859835f2ff35575f447fb501f46243c4eb8bac19e31a05033610b5f565b6108245760405162461bcd60e51b815260206004820152601860248201527f4d6f6e65794d61726b65743a206e6f742072657363756572000000000000000060448201526064016104b0565b600061137d8383611a61565b603254610100900460ff168061194b575060325460ff16155b6119675760405162461bcd60e51b81526004016104b090611ec4565b603254610100900460ff1615801561151b576032805461ffff19166101011790558015610d16576032805461ff001916905550565b603254610100900460ff16806119b5575060325460ff16155b6119d15760405162461bcd60e51b81526004016104b090611ec4565b603254610100900460ff161580156119f3576032805461ffff19166101011790555b606580546001600160a01b0319163390811790915560405181906000907f8be0079c531659141344cd1fd0a4f28419497f9722a3daafe3b4186f6b6457e0908290a3508015610d16576032805461ff001916905550565b6060611a598484600085611b23565b949350505050565b60008080600019848609848602925082811083820303915050670de0b6b3a76400008110611aa55760405163698d9a0160e11b8152600481018290526024016104b0565b600080670de0b6b3a76400008688099150506706f05b59d3b1ffff811182611adf5780670de0b6b3a7640000850401945050505050610475565b620400008285030493909111909103600160ee1b02919091177faccb18165bd6fe31ae1cf318dc5b51eee0e1ba569b88cd74c1773b91fac106690201905092915050565b606082471015611b845760405162461bcd60e51b815260206004820152602660248201527f416464726573733a20696e73756666696369656e742062616c616e636520666f6044820152651c8818d85b1b60d21b60648201526084016104b0565b843b611bd25760405162461bcd60e51b815260206004820152601d60248201527f416464726573733a2063616c6c20746f206e6f6e2d636f6e747261637400000060448201526064016104b0565b600080866001600160a01b03168587604051611bee9190611e00565b60006040518083038185875af1925050503d8060008114611c2b576040519150601f19603f3d011682016040523d82523d6000602084013e611c30565b606091505b5091509150611c40828286611c4b565b979650505050505050565b60608315611c5a57508161137d565b825115611c6a5782518084602001fd5b8160405162461bcd60e51b81526004016104b09190611e91565b600060208284031215611c95578081fd5b813561137d81611fd7565b600060208284031215611cb1578081fd5b815161137d81611fd7565b60008060408385031215611cce578081fd5b8235611cd981611fd7565b91506020830135611ce981611fd7565b809150509250929050565b600080600080600060a08688031215611d0b578081fd5b8535611d1681611fd7565b94506020860135611d2681611fd7565b93506040860135611d3681611fd7565b92506060860135611d4681611fd7565b91506080860135611d5681611fd7565b809150509295509295909350565b600060208284031215611d75578081fd5b8151801515811461137d578182fd5b600060208284031215611d95578081fd5b5035919050565b60008060408385031215611dae578182fd5b823591506020830135611ce981611fd7565b600060208284031215611dd1578081fd5b81356001600160e01b03198116811461137d578182fd5b600060208284031215611df9578081fd5b5051919050565b60008251611e12818460208701611f7e565b9190910192915050565b7f416363657373436f6e74726f6c3a206163636f756e7420000000000000000000815260008351611e54816017850160208801611f7e565b7001034b99036b4b9b9b4b733903937b6329607d1b6017918401918201528351611e85816028840160208801611f7e565b01602801949350505050565b6020815260008251806020840152611eb0816040850160208701611f7e565b601f01601f19169190910160400192915050565b6020808252602e908201527f496e697469616c697a61626c653a20636f6e747261637420697320616c72656160408201526d191e481a5b9a5d1a585b1a5e995960921b606082015260800190565b6020808252818101527f4f776e61626c653a2063616c6c6572206973206e6f7420746865206f776e6572604082015260600190565b60008219821115611f5a57611f5a611fc1565b500190565b6000816000190483118215151615611f7957611f79611fc1565b500290565b60005b83811015611f99578181015183820152602001611f81565b838111156113bc5750506000910152565b600081611fb957611fb9611fc1565b506000190190565b634e487b7160e01b600052601160045260246000fd5b6001600160a01b0381168114610d1657600080fdfea264697066735822122042f124afa280c8a589422c04390342aa557f0ae8c30c8c60252a749ec06f169964736f6c63430008040033",
  "devdoc": {
    "kind": "dev",
    "methods": {
      "getRoleAdmin(bytes32)": {
        "details": "Returns the admin role that controls `role`. See {grantRole} and {revokeRole}. To change a role's admin, use {_setRoleAdmin}."
      },
      "grantRole(bytes32,address)": {
        "details": "Grants `role` to `account`. If `account` had not been already granted `role`, emits a {RoleGranted} event. Requirements: - the caller must have ``role``'s admin role."
      },
      "hasRole(bytes32,address)": {
        "details": "Returns `true` if `account` has been granted `role`."
      },
      "owner()": {
        "details": "Returns the address of the current owner."
      },
      "renounceOwnership()": {
        "details": "Leaves the contract without owner. It will not be possible to call `onlyOwner` functions anymore. Can only be called by the current owner. NOTE: Renouncing ownership will leave the contract without an owner, thereby removing any functionality that is only available to the owner."
      },
      "renounceRole(bytes32,address)": {
        "details": "Revokes `role` from the calling account. Roles are often managed via {grantRole} and {revokeRole}: this function's purpose is to provide a mechanism for accounts to lose their privileges if they are compromised (such as when a trusted device is misplaced). If the calling account had been granted `role`, emits a {RoleRevoked} event. Requirements: - the caller must be `account`."
      },
      "rescue(address,address)": {
        "details": "Need to implement {_authorizeRescue} to do access-control for this function.",
        "params": {
          "target": "The address to send the tokens to",
          "token": "The ERC20 token to rescue"
        }
      },
      "revokeRole(bytes32,address)": {
        "details": "Revokes `role` from `account`. If `account` had been granted `role`, emits a {RoleRevoked} event. Requirements: - the caller must have ``role``'s admin role."
      },
      "supportsInterface(bytes4)": {
        "details": "See {IERC165-supportsInterface}."
      },
      "transferOwnership(address)": {
        "details": "Transfers ownership of the contract to a new account (`newOwner`). Can only be called by the current owner."
      }
    },
    "version": 1
  },
  "userdoc": {
    "errors": {
      "PRBMath__MulDivFixedPointOverflow(uint256)": [
        {
          "notice": "Emitted when the result overflows uint256."
        }
      ]
    },
    "kind": "user",
    "methods": {
      "incomeIndex()": {
        "notice": "Used for calculating the interest generated (e.g. cDai's price for the Compound market)"
      },
      "rescue(address,address)": {
        "notice": "Rescues ERC20 tokens sent to the contract in error."
      },
      "setRewards(address)": {
        "notice": "Param setters"
      },
      "totalValue()": {
        "notice": "The total value locked in the money market, in terms of the underlying stablecoin"
      },
      "totalValue(uint256)": {
        "notice": "The total value locked in the money market, in terms of the underlying stablecoin"
      }
    },
    "version": 1
  },
  "storageLayout": {
    "storage": [
      {
        "astId": 14850,
        "contract": "contracts/moneymarkets/benqi/BenqiERC20Market.sol:BenqiERC20Market",
        "label": "__gap",
        "offset": 0,
        "slot": "0",
        "type": "t_array(t_uint256)50_storage"
      },
      {
        "astId": 612,
        "contract": "contracts/moneymarkets/benqi/BenqiERC20Market.sol:BenqiERC20Market",
        "label": "_initialized",
        "offset": 0,
        "slot": "50",
        "type": "t_bool"
      },
      {
        "astId": 615,
        "contract": "contracts/moneymarkets/benqi/BenqiERC20Market.sol:BenqiERC20Market",
        "label": "_initializing",
        "offset": 1,
        "slot": "50",
        "type": "t_bool"
      },
      {
        "astId": 3064,
        "contract": "contracts/moneymarkets/benqi/BenqiERC20Market.sol:BenqiERC20Market",
        "label": "__gap",
        "offset": 0,
        "slot": "51",
        "type": "t_array(t_uint256)50_storage"
      },
      {
        "astId": 406,
        "contract": "contracts/moneymarkets/benqi/BenqiERC20Market.sol:BenqiERC20Market",
        "label": "_owner",
        "offset": 0,
        "slot": "101",
        "type": "t_address"
      },
      {
        "astId": 525,
        "contract": "contracts/moneymarkets/benqi/BenqiERC20Market.sol:BenqiERC20Market",
        "label": "__gap",
        "offset": 0,
        "slot": "102",
        "type": "t_array(t_uint256)49_storage"
      },
      {
        "astId": 3453,
        "contract": "contracts/moneymarkets/benqi/BenqiERC20Market.sol:BenqiERC20Market",
        "label": "__gap",
        "offset": 0,
        "slot": "151",
        "type": "t_array(t_uint256)50_storage"
      },
      {
        "astId": 86,
        "contract": "contracts/moneymarkets/benqi/BenqiERC20Market.sol:BenqiERC20Market",
        "label": "_roles",
        "offset": 0,
        "slot": "201",
        "type": "t_mapping(t_bytes32,t_struct(RoleData)81_storage)"
      },
      {
        "astId": 394,
        "contract": "contracts/moneymarkets/benqi/BenqiERC20Market.sol:BenqiERC20Market",
        "label": "__gap",
        "offset": 0,
        "slot": "202",
        "type": "t_array(t_uint256)49_storage"
      },
      {
        "astId": 18707,
        "contract": "contracts/moneymarkets/benqi/BenqiERC20Market.sol:BenqiERC20Market",
        "label": "cToken",
        "offset": 0,
        "slot": "251",
        "type": "t_contract(ICERC20)19229"
      },
      {
        "astId": 18710,
        "contract": "contracts/moneymarkets/benqi/BenqiERC20Market.sol:BenqiERC20Market",
        "label": "comptroller",
        "offset": 0,
        "slot": "252",
        "type": "t_contract(IComptroller)19244"
      },
      {
        "astId": 18712,
        "contract": "contracts/moneymarkets/benqi/BenqiERC20Market.sol:BenqiERC20Market",
        "label": "rewards",
        "offset": 0,
        "slot": "253",
        "type": "t_address"
      },
      {
        "astId": 18716,
        "contract": "contracts/moneymarkets/benqi/BenqiERC20Market.sol:BenqiERC20Market",
        "label": "stablecoin",
        "offset": 0,
        "slot": "254",
        "type": "t_contract(ERC20)4624"
      },
      {
        "astId": 19045,
        "contract": "contracts/moneymarkets/benqi/BenqiERC20Market.sol:BenqiERC20Market",
        "label": "__gap",
        "offset": 0,
        "slot": "255",
        "type": "t_array(t_uint256)46_storage"
      }
    ],
    "types": {
      "t_address": {
        "encoding": "inplace",
        "label": "address",
        "numberOfBytes": "20"
      },
      "t_array(t_uint256)46_storage": {
        "base": "t_uint256",
        "encoding": "inplace",
        "label": "uint256[46]",
        "numberOfBytes": "1472"
      },
      "t_array(t_uint256)49_storage": {
        "base": "t_uint256",
        "encoding": "inplace",
        "label": "uint256[49]",
        "numberOfBytes": "1568"
      },
      "t_array(t_uint256)50_storage": {
        "base": "t_uint256",
        "encoding": "inplace",
        "label": "uint256[50]",
        "numberOfBytes": "1600"
      },
      "t_bool": {
        "encoding": "inplace",
        "label": "bool",
        "numberOfBytes": "1"
      },
      "t_bytes32": {
        "encoding": "inplace",
        "label": "bytes32",
        "numberOfBytes": "32"
      },
      "t_contract(ERC20)4624": {
        "encoding": "inplace",
        "label": "contract ERC20",
        "numberOfBytes": "20"
      },
      "t_contract(ICERC20)19229": {
        "encoding": "inplace",
        "label": "contract ICERC20",
        "numberOfBytes": "20"
      },
      "t_contract(IComptroller)19244": {
        "encoding": "inplace",
        "label": "contract IComptroller",
        "numberOfBytes": "20"
      },
      "t_mapping(t_address,t_bool)": {
        "encoding": "mapping",
        "key": "t_address",
        "label": "mapping(address => bool)",
        "numberOfBytes": "32",
        "value": "t_bool"
      },
      "t_mapping(t_bytes32,t_struct(RoleData)81_storage)": {
        "encoding": "mapping",
        "key": "t_bytes32",
        "label": "mapping(bytes32 => struct AccessControlUpgradeable.RoleData)",
        "numberOfBytes": "32",
        "value": "t_struct(RoleData)81_storage"
      },
      "t_struct(RoleData)81_storage": {
        "encoding": "inplace",
        "label": "struct AccessControlUpgradeable.RoleData",
        "members": [
          {
            "astId": 78,
            "contract": "contracts/moneymarkets/benqi/BenqiERC20Market.sol:BenqiERC20Market",
            "label": "members",
            "offset": 0,
            "slot": "0",
            "type": "t_mapping(t_address,t_bool)"
          },
          {
            "astId": 80,
            "contract": "contracts/moneymarkets/benqi/BenqiERC20Market.sol:BenqiERC20Market",
            "label": "adminRole",
            "offset": 0,
            "slot": "1",
            "type": "t_bytes32"
          }
        ],
        "numberOfBytes": "64"
      },
      "t_uint256": {
        "encoding": "inplace",
        "label": "uint256",
        "numberOfBytes": "32"
      }
    }
  }
}