{
  "address": "0x5a70f9E95787a105f943dd41bc0A46ec49dACB5d",
  "abi": [
    {
      "inputs": [
        {
          "internalType": "uint256",
          "name": "x",
          "type": "uint256"
        }
      ],
      "name": "PRBMathUD60x18__LogInputTooSmall",
      "type": "error"
    },
    {
      "inputs": [
        {
          "internalType": "uint256",
          "name": "prod1",
          "type": "uint256"
        }
      ],
      "name": "PRBMath__MulDivFixedPointOverflow",
      "type": "error"
    },
    {
      "inputs": [
        {
          "internalType": "uint256",
          "name": "prod1",
          "type": "uint256"
        },
        {
          "internalType": "uint256",
          "name": "denominator",
          "type": "uint256"
        }
      ],
      "name": "PRBMath__MulDivOverflow",
      "type": "error"
    },
    {
      "inputs": [],
      "name": "ONE_MINUS_UPDATE_MULTIPLIER",
      "outputs": [
        {
          "internalType": "uint256",
          "name": "",
          "type": "uint256"
        }
      ],
      "stateMutability": "view",
      "type": "function"
    },
    {
      "inputs": [],
      "name": "UPDATE_INTERVAL",
      "outputs": [
        {
          "internalType": "uint256",
          "name": "",
          "type": "uint256"
        }
      ],
      "stateMutability": "view",
      "type": "function"
    },
    {
      "inputs": [],
      "name": "UPDATE_MULTIPLIER",
      "outputs": [
        {
          "internalType": "uint256",
          "name": "",
          "type": "uint256"
        }
      ],
      "stateMutability": "view",
      "type": "function"
    },
    {
      "inputs": [],
      "name": "emaStored",
      "outputs": [
        {
          "internalType": "uint256",
          "name": "",
          "type": "uint256"
        }
      ],
      "stateMutability": "view",
      "type": "function"
    },
    {
      "inputs": [
        {
          "internalType": "uint256",
          "name": "_emaInitial",
          "type": "uint256"
        },
        {
          "internalType": "uint256",
          "name": "_updateInterval",
          "type": "uint256"
        },
        {
          "internalType": "uint256",
          "name": "_smoothingFactor",
          "type": "uint256"
        },
        {
          "internalType": "uint256",
          "name": "_averageWindowInIntervals",
          "type": "uint256"
        },
        {
          "internalType": "address",
          "name": "_moneyMarket",
          "type": "address"
        }
      ],
      "name": "initialize",
      "outputs": [],
      "stateMutability": "nonpayable",
      "type": "function"
    },
    {
      "inputs": [],
      "name": "lastIncomeIndex",
      "outputs": [
        {
          "internalType": "uint256",
          "name": "",
          "type": "uint256"
        }
      ],
      "stateMutability": "view",
      "type": "function"
    },
    {
      "inputs": [],
      "name": "lastUpdateTimestamp",
      "outputs": [
        {
          "internalType": "uint256",
          "name": "",
          "type": "uint256"
        }
      ],
      "stateMutability": "view",
      "type": "function"
    },
    {
      "inputs": [],
      "name": "moneyMarket",
      "outputs": [
        {
          "internalType": "contract MoneyMarket",
          "name": "",
          "type": "address"
        }
      ],
      "stateMutability": "view",
      "type": "function"
    },
    {
      "inputs": [],
      "name": "query",
      "outputs": [
        {
          "internalType": "uint256",
          "name": "value",
          "type": "uint256"
        }
      ],
      "stateMutability": "view",
      "type": "function"
    },
    {
      "inputs": [],
      "name": "updateAndQuery",
      "outputs": [
        {
          "internalType": "bool",
          "name": "updated",
          "type": "bool"
        },
        {
          "internalType": "uint256",
          "name": "value",
          "type": "uint256"
        }
      ],
      "stateMutability": "nonpayable",
      "type": "function"
    }
  ],
  "transactionHash": "0x86bb7c938791aeaa556e38e976ff1f716378d5cf439472ef3761748548e099f4",
  "args": [],
  "solcInputHash": "e1165d8306fb5b6cfd6f8268efe2a80d",
  "bytecode": "0x608060405234801561001057600080fd5b506108b4806100206000396000f3fe608060405234801561001057600080fd5b506004361061009e5760003560e01c806389ac41471161006657806389ac4147146100f85780639f1253d314610101578063ccd652961461010a578063d6d75f511461011f578063da18778e1461014a57600080fd5b8063079420a8146100a357806314bcec9f146100bf5780632c46b205146100c857806356f6a826146100d057806385b3a931146100d9575b600080fd5b6100ac60035481565b6040519081526020015b60405180910390f35b6100ac60065481565b6004546100ac565b6100ac60025481565b6100e1610153565b6040805192151583526020830191909152016100b6565b6100ac60015481565b6100ac60055481565b61011d6101183660046107a3565b610298565b005b600754610132906001600160a01b031681565b6040516001600160a01b0390911681526020016100b6565b6100ac60045481565b6000806000600654426101669190610851565b905060015481101561017f575050600454600092909150565b600554600480546007546040805163010e130960e51b8152905192936000936001600160a01b03909316926321c2612092808301926020929182900301818787803b1580156101cd57600080fd5b505af11580156101e1573d6000803e3d6000fd5b505050506040513d601f19601f82011682018060405250810190610205919061078b565b9050828110156102125750815b600061024161022986670de0b6b3a7640000610812565b61023b6102368588610429565b610445565b906104f5565b905060019650670de0b6b3a76400006003548461025e9190610832565b60025461026b9084610832565b61027591906107fa565b61027f9190610812565b6004819055600592909255504260065594959350505050565b600054610100900460ff16806102b1575060005460ff16155b6103195760405162461bcd60e51b815260206004820152602e60248201527f496e697469616c697a61626c653a20636f6e747261637420697320616c72656160448201526d191e481a5b9a5d1a585b1a5e995960921b60648201526084015b60405180910390fd5b600054610100900460ff1615801561033b576000805461ffff19166101011790555b60048690556001858155426006556000906103579085906107fa565b6103619086610812565b6002819055905061037a81670de0b6b3a7640000610851565b600355600780546001600160a01b0319166001600160a01b0385169081179091556040805163010e130960e51b815290516321c26120916004808201926020929091908290030181600087803b1580156103d357600080fd5b505af11580156103e7573d6000803e3d6000fd5b505050506040513d601f19601f8201168201806040525081019061040b919061078b565b600555508015610421576000805461ff00191690555b505050505050565b600061043e83670de0b6b3a764000084610501565b9392505050565b6000670de0b6b3a764000082101561047357604051633621413760e21b815260048101839052602401610310565b6000610488670de0b6b3a764000084046105dc565b670de0b6b3a7640000808202935090915083821c908114156104ab575050919050565b6706f05b59d3b200005b80156104ed57670de0b6b3a7640000828002049150671bc16d674ec8000082106104e5579283019260019190911c905b60011c6104b5565b505050919050565b600061043e83836106c8565b60008080600019858709858702925082811083820303915050806000141561054a5783828161054057634e487b7160e01b600052601260045260246000fd5b049250505061043e565b83811061057457604051631dcf306360e21b81526004810182905260248101859052604401610310565b600084868809600260036001881981018916988990049182028318808302840302808302840302808302840302808302840302808302840302918202909203026000889003889004909101858311909403939093029303949094049190911702949350505050565b6000600160801b82106105fc57608091821c916105f990826107fa565b90505b68010000000000000000821061061f57604091821c9161061c90826107fa565b90505b640100000000821061063e57602091821c9161063b90826107fa565b90505b62010000821061065b57601091821c9161065890826107fa565b90505b610100821061067757600891821c9161067490826107fa565b90505b6010821061069257600491821c9161068f90826107fa565b90505b600482106106ad57600291821c916106aa90826107fa565b90505b600282106106c3576106c06001826107fa565b90505b919050565b60008080600019848609848602925082811083820303915050670de0b6b3a7640000811061070c5760405163698d9a0160e11b815260048101829052602401610310565b600080670de0b6b3a76400008688099150506706f05b59d3b1ffff8111826107465780670de0b6b3a7640000850401945050505050610785565b620400008285030493909111909103600160ee1b02919091177faccb18165bd6fe31ae1cf318dc5b51eee0e1ba569b88cd74c1773b91fac10669020190505b92915050565b60006020828403121561079c578081fd5b5051919050565b600080600080600060a086880312156107ba578081fd5b8535945060208601359350604086013592506060860135915060808601356001600160a01b03811681146107ec578182fd5b809150509295509295909350565b6000821982111561080d5761080d610868565b500190565b60008261082d57634e487b7160e01b81526012600452602481fd5b500490565b600081600019048311821515161561084c5761084c610868565b500290565b60008282101561086357610863610868565b500390565b634e487b7160e01b600052601160045260246000fdfea2646970667358221220ebda13b1e53d745ae76aa66987b33b569a656e04ef569685c678d5e4fbda03ac64736f6c63430008040033",
  "devdoc": {
    "kind": "dev",
    "methods": {},
    "version": 1
  },
  "userdoc": {
    "errors": {
      "PRBMathUD60x18__LogInputTooSmall(uint256)": [
        {
          "notice": "Emitted when the input is less than 1."
        }
      ],
      "PRBMath__MulDivFixedPointOverflow(uint256)": [
        {
          "notice": "Emitted when the result overflows uint256."
        }
      ],
      "PRBMath__MulDivOverflow(uint256,uint256)": [
        {
          "notice": "Emitted when the result overflows uint256."
        }
      ]
    },
    "kind": "user",
    "methods": {
      "UPDATE_INTERVAL()": {
        "notice": "Immutable parameters"
      },
      "emaStored()": {
        "notice": "Public variables"
      },
      "moneyMarket()": {
        "notice": "External contracts"
      }
    },
    "version": 1
  },
  "storageLayout": {
    "storage": [
      {
        "astId": 612,
        "contract": "contracts/models/interest-oracle/EMAOracle.sol:EMAOracle",
        "label": "_initialized",
        "offset": 0,
        "slot": "0",
        "type": "t_bool"
      },
      {
        "astId": 615,
        "contract": "contracts/models/interest-oracle/EMAOracle.sol:EMAOracle",
        "label": "_initializing",
        "offset": 1,
        "slot": "0",
        "type": "t_bool"
      },
      {
        "astId": 17773,
        "contract": "contracts/models/interest-oracle/EMAOracle.sol:EMAOracle",
        "label": "UPDATE_INTERVAL",
        "offset": 0,
        "slot": "1",
        "type": "t_uint256"
      },
      {
        "astId": 17775,
        "contract": "contracts/models/interest-oracle/EMAOracle.sol:EMAOracle",
        "label": "UPDATE_MULTIPLIER",
        "offset": 0,
        "slot": "2",
        "type": "t_uint256"
      },
      {
        "astId": 17777,
        "contract": "contracts/models/interest-oracle/EMAOracle.sol:EMAOracle",
        "label": "ONE_MINUS_UPDATE_MULTIPLIER",
        "offset": 0,
        "slot": "3",
        "type": "t_uint256"
      },
      {
        "astId": 17780,
        "contract": "contracts/models/interest-oracle/EMAOracle.sol:EMAOracle",
        "label": "emaStored",
        "offset": 0,
        "slot": "4",
        "type": "t_uint256"
      },
      {
        "astId": 17782,
        "contract": "contracts/models/interest-oracle/EMAOracle.sol:EMAOracle",
        "label": "lastIncomeIndex",
        "offset": 0,
        "slot": "5",
        "type": "t_uint256"
      },
      {
        "astId": 17784,
        "contract": "contracts/models/interest-oracle/EMAOracle.sol:EMAOracle",
        "label": "lastUpdateTimestamp",
        "offset": 0,
        "slot": "6",
        "type": "t_uint256"
      },
      {
        "astId": 17789,
        "contract": "contracts/models/interest-oracle/EMAOracle.sol:EMAOracle",
        "label": "moneyMarket",
        "offset": 0,
        "slot": "7",
        "type": "t_contract(MoneyMarket)18242"
      },
      {
        "astId": 17955,
        "contract": "contracts/models/interest-oracle/EMAOracle.sol:EMAOracle",
        "label": "__gap",
        "offset": 0,
        "slot": "8",
        "type": "t_array(t_uint256)43_storage"
      }
    ],
    "types": {
      "t_array(t_uint256)43_storage": {
        "base": "t_uint256",
        "encoding": "inplace",
        "label": "uint256[43]",
        "numberOfBytes": "1376"
      },
      "t_bool": {
        "encoding": "inplace",
        "label": "bool",
        "numberOfBytes": "1"
      },
      "t_contract(MoneyMarket)18242": {
        "encoding": "inplace",
        "label": "contract MoneyMarket",
        "numberOfBytes": "20"
      },
      "t_uint256": {
        "encoding": "inplace",
        "label": "uint256",
        "numberOfBytes": "32"
      }
    }
  }
}