{
  "address": "0xD1f120cb15E9722D6a727BA274D125C97f5447dB",
  "abi": [
    {
      "inputs": [
        {
          "internalType": "uint256",
          "name": "_multiplierIntercept",
          "type": "uint256"
        },
        {
          "internalType": "uint256",
          "name": "_multiplierSlope",
          "type": "uint256"
        }
      ],
      "stateMutability": "nonpayable",
      "type": "constructor"
    },
    {
      "inputs": [
        {
          "internalType": "uint256",
          "name": "x",
          "type": "uint256"
        }
      ],
      "name": "PRBMathUD60x18__Exp2InputTooBig",
      "type": "error"
    },
    {
      "inputs": [
        {
          "internalType": "uint256",
          "name": "prod1",
          "type": "uint256"
        }
      ],
      "name": "PRBMath__MulDivFixedPointOverflow",
      "type": "error"
    },
    {
      "inputs": [],
      "name": "PRECISION",
      "outputs": [
        {
          "internalType": "uint256",
          "name": "",
          "type": "uint256"
        }
      ],
      "stateMutability": "view",
      "type": "function"
    },
    {
      "inputs": [
        {
          "internalType": "uint256",
          "name": "depositAmount",
          "type": "uint256"
        },
        {
          "internalType": "uint256",
          "name": "depositPeriodInSeconds",
          "type": "uint256"
        },
        {
          "internalType": "uint256",
          "name": "moneyMarketInterestRatePerSecond",
          "type": "uint256"
        },
        {
          "internalType": "bool",
          "name": "",
          "type": "bool"
        },
        {
          "internalType": "uint256",
          "name": "",
          "type": "uint256"
        }
      ],
      "name": "calculateInterestAmount",
      "outputs": [
        {
          "internalType": "uint256",
          "name": "interestAmount",
          "type": "uint256"
        }
      ],
      "stateMutability": "view",
      "type": "function"
    },
    {
      "inputs": [
        {
          "internalType": "uint256",
          "name": "depositPeriodInSeconds",
          "type": "uint256"
        }
      ],
      "name": "getIRMultiplier",
      "outputs": [
        {
          "internalType": "uint256",
          "name": "",
          "type": "uint256"
        }
      ],
      "stateMutability": "view",
      "type": "function"
    },
    {
      "inputs": [],
      "name": "multiplierIntercept",
      "outputs": [
        {
          "internalType": "uint256",
          "name": "",
          "type": "uint256"
        }
      ],
      "stateMutability": "view",
      "type": "function"
    },
    {
      "inputs": [],
      "name": "multiplierSlope",
      "outputs": [
        {
          "internalType": "uint256",
          "name": "",
          "type": "uint256"
        }
      ],
      "stateMutability": "view",
      "type": "function"
    }
  ],
  "transactionHash": "0x449d3982511e2c198fe9a49196b003f24fb06f852f8bc3ed080c660e3f6522e4",
  "args": [
    "750000000000000000",
    "11883276940"
  ],
  "solcInputHash": "e1165d8306fb5b6cfd6f8268efe2a80d",
  "bytecode": "0x60c060405234801561001057600080fd5b50604051610b61380380610b6183398101604081905261002f9161003d565b60809190915260a052610060565b6000806040838503121561004f578182fd5b505080516020909101519092909150565b60805160a051610aca6100976000396000818160bc015260f901526000818160950152818161012201526101560152610aca6000f3fe608060405234801561001057600080fd5b50600436106100575760003560e01c806371755d991461005c578063aaf5eb6814610081578063bce606cc14610090578063ca7082b6146100b7578063d09be34e146100de575b600080fd5b61006f61006a3660046109e4565b6100f1565b60405190815260200160405180910390f35b61006f670de0b6b3a764000081565b61006f7f000000000000000000000000000000000000000000000000000000000000000081565b61006f7f000000000000000000000000000000000000000000000000000000000000000081565b61006f6100ec3660046109fc565b610181565b60008061011e7f000000000000000000000000000000000000000000000000000000000000000084610a48565b90507f000000000000000000000000000000000000000000000000000000000000000081106101505750600092915050565b61017a817f0000000000000000000000000000000000000000000000000000000000000000610a67565b9392505050565b60006101c461018f866100f1565b6101be670de0b6b3a76400006101ad6101a88a8a610a48565b6101ce565b6101b79190610a67565b8990610219565b90610219565b9695505050505050565b6000680a688906bd8b000000821061020157604051634a4f26f160e01b8152600481018390526024015b60405180910390fd5b670de0b6b3a7640000604083901b0461017a81610225565b600061017a8383610921565b600160bf1b6780000000000000008216156102495768016a09e667f3bcc9090260401c5b674000000000000000821615610268576801306fe0a31b7152df0260401c5b672000000000000000821615610287576801172b83c7d517adce0260401c5b6710000000000000008216156102a65768010b5586cf9890f62a0260401c5b6708000000000000008216156102c5576801059b0d31585743ae0260401c5b6704000000000000008216156102e457680102c9a3e778060ee70260401c5b6702000000000000008216156103035768010163da9fb33356d80260401c5b67010000000000000082161561032257680100b1afa5abcbed610260401c5b66800000000000008216156103405768010058c86da1c09ea20260401c5b664000000000000082161561035e576801002c605e2e8cec500260401c5b662000000000000082161561037c57680100162f3904051fa10260401c5b661000000000000082161561039a576801000b175effdc76ba0260401c5b66080000000000008216156103b857680100058ba01fb9f96d0260401c5b66040000000000008216156103d65768010002c5cc37da94920260401c5b66020000000000008216156103f4576801000162e525ee05470260401c5b66010000000000008216156104125768010000b17255775c040260401c5b6580000000000082161561042f576801000058b91b5bc9ae0260401c5b6540000000000082161561044c57680100002c5c89d5ec6d0260401c5b652000000000008216156104695768010000162e43f4f8310260401c5b6510000000000082161561048657680100000b1721bcfc9a0260401c5b650800000000008216156104a35768010000058b90cf1e6e0260401c5b650400000000008216156104c0576801000002c5c863b73f0260401c5b650200000000008216156104dd57680100000162e430e5a20260401c5b650100000000008216156104fa576801000000b1721835510260401c5b64800000000082161561051657680100000058b90c0b490260401c5b6440000000008216156105325768010000002c5c8601cc0260401c5b64200000000082161561054e576801000000162e42fff00260401c5b64100000000082161561056a5768010000000b17217fbb0260401c5b640800000000821615610586576801000000058b90bfce0260401c5b6404000000008216156105a257680100000002c5c85fe30260401c5b6402000000008216156105be5768010000000162e42ff10260401c5b6401000000008216156105da57680100000000b17217f80260401c5b63800000008216156105f55768010000000058b90bfc0260401c5b6340000000821615610610576801000000002c5c85fe0260401c5b632000000082161561062b57680100000000162e42ff0260401c5b6310000000821615610646576801000000000b17217f0260401c5b630800000082161561066157680100000000058b90c00260401c5b630400000082161561067c5768010000000002c5c8600260401c5b6302000000821615610697576801000000000162e4300260401c5b63010000008216156106b25768010000000000b172180260401c5b628000008216156106cc576801000000000058b90c0260401c5b624000008216156106e657680100000000002c5c860260401c5b622000008216156107005768010000000000162e430260401c5b6210000082161561071a57680100000000000b17210260401c5b620800008216156107345768010000000000058b910260401c5b6204000082161561074e576801000000000002c5c80260401c5b6202000082161561076857680100000000000162e40260401c5b62010000821615610782576801000000000000b1720260401c5b61800082161561079b57680100000000000058b90260401c5b6140008216156107b45768010000000000002c5d0260401c5b6120008216156107cd576801000000000000162e0260401c5b6110008216156107e65768010000000000000b170260401c5b6108008216156107ff576801000000000000058c0260401c5b61040082161561081857680100000000000002c60260401c5b61020082161561083157680100000000000001630260401c5b61010082161561084a57680100000000000000b10260401c5b608082161561086257680100000000000000590260401c5b604082161561087a576801000000000000002c0260401c5b602082161561089257680100000000000000160260401c5b60108216156108aa576801000000000000000b0260401c5b60088216156108c257680100000000000000060260401c5b60048216156108da57680100000000000000030260401c5b60028216156108f257680100000000000000010260401c5b600182161561090a57680100000000000000010260401c5b670de0b6b3a76400000260409190911c60bf031c90565b60008080600019848609848602925082811083820303915050670de0b6b3a764000081106109655760405163698d9a0160e11b8152600481018290526024016101f8565b600080670de0b6b3a76400008688099150506706f05b59d3b1ffff81118261099f5780670de0b6b3a76400008504019450505050506109de565b620400008285030493909111909103600160ee1b02919091177faccb18165bd6fe31ae1cf318dc5b51eee0e1ba569b88cd74c1773b91fac10669020190505b92915050565b6000602082840312156109f5578081fd5b5035919050565b600080600080600060a08688031215610a13578081fd5b85359450602086013593506040860135925060608601358015158114610a37578182fd5b949793965091946080013592915050565b6000816000190483118215151615610a6257610a62610a7e565b500290565b600082821015610a7957610a79610a7e565b500390565b634e487b7160e01b600052601160045260246000fdfea26469706673582212209984dd97a76a687c6d6d997f27f18ea594900d8fe13186606b92eb62f4a2be1964736f6c63430008040033",
  "devdoc": {
    "kind": "dev",
    "methods": {},
    "version": 1
  },
  "userdoc": {
    "errors": {
      "PRBMathUD60x18__Exp2InputTooBig(uint256)": [
        {
          "notice": "Emitted when the input is greater than 192."
        }
      ],
      "PRBMath__MulDivFixedPointOverflow(uint256)": [
        {
          "notice": "Emitted when the result overflows uint256."
        }
      ]
    },
    "kind": "user",
    "methods": {},
    "version": 1
  },
  "storageLayout": {
    "storage": [],
    "types": null
  }
}