{
  "address": "0x4F1e917617B162c1bEE22463044B466891b1845B",
  "abi": [
    {
      "anonymous": false,
      "inputs": [
        {
          "indexed": true,
          "internalType": "address",
          "name": "sender",
          "type": "address"
        },
        {
          "indexed": true,
          "internalType": "string",
          "name": "paramName",
          "type": "string"
        },
        {
          "indexed": false,
          "internalType": "address",
          "name": "newValue",
          "type": "address"
        }
      ],
      "name": "ESetParamAddress",
      "type": "event"
    },
    {
      "anonymous": false,
      "inputs": [
        {
          "indexed": true,
          "internalType": "address",
          "name": "previousOwner",
          "type": "address"
        },
        {
          "indexed": true,
          "internalType": "address",
          "name": "newOwner",
          "type": "address"
        }
      ],
      "name": "OwnershipTransferred",
      "type": "event"
    },
    {
      "anonymous": false,
      "inputs": [
        {
          "indexed": true,
          "internalType": "bytes32",
          "name": "role",
          "type": "bytes32"
        },
        {
          "indexed": true,
          "internalType": "bytes32",
          "name": "previousAdminRole",
          "type": "bytes32"
        },
        {
          "indexed": true,
          "internalType": "bytes32",
          "name": "newAdminRole",
          "type": "bytes32"
        }
      ],
      "name": "RoleAdminChanged",
      "type": "event"
    },
    {
      "anonymous": false,
      "inputs": [
        {
          "indexed": true,
          "internalType": "bytes32",
          "name": "role",
          "type": "bytes32"
        },
        {
          "indexed": true,
          "internalType": "address",
          "name": "account",
          "type": "address"
        },
        {
          "indexed": true,
          "internalType": "address",
          "name": "sender",
          "type": "address"
        }
      ],
      "name": "RoleGranted",
      "type": "event"
    },
    {
      "anonymous": false,
      "inputs": [
        {
          "indexed": true,
          "internalType": "bytes32",
          "name": "role",
          "type": "bytes32"
        },
        {
          "indexed": true,
          "internalType": "address",
          "name": "account",
          "type": "address"
        },
        {
          "indexed": true,
          "internalType": "address",
          "name": "sender",
          "type": "address"
        }
      ],
      "name": "RoleRevoked",
      "type": "event"
    },
    {
      "inputs": [],
      "name": "DEFAULT_ADMIN_ROLE",
      "outputs": [
        {
          "internalType": "bytes32",
          "name": "",
          "type": "bytes32"
        }
      ],
      "stateMutability": "view",
      "type": "function"
    },
    {
      "inputs": [],
      "name": "cToken",
      "outputs": [
        {
          "internalType": "contract ICERC20",
          "name": "",
          "type": "address"
        }
      ],
      "stateMutability": "view",
      "type": "function"
    },
    {
      "inputs": [],
      "name": "claimRewards",
      "outputs": [],
      "stateMutability": "nonpayable",
      "type": "function"
    },
    {
      "inputs": [],
      "name": "comptroller",
      "outputs": [
        {
          "internalType": "contract IComptroller",
          "name": "",
          "type": "address"
        }
      ],
      "stateMutability": "view",
      "type": "function"
    },
    {
      "inputs": [
        {
          "internalType": "uint256",
          "name": "amount",
          "type": "uint256"
        }
      ],
      "name": "deposit",
      "outputs": [],
      "stateMutability": "nonpayable",
      "type": "function"
    },
    {
      "inputs": [
        {
          "internalType": "bytes32",
          "name": "role",
          "type": "bytes32"
        }
      ],
      "name": "getRoleAdmin",
      "outputs": [
        {
          "internalType": "bytes32",
          "name": "",
          "type": "bytes32"
        }
      ],
      "stateMutability": "view",
      "type": "function"
    },
    {
      "inputs": [
        {
          "internalType": "bytes32",
          "name": "role",
          "type": "bytes32"
        },
        {
          "internalType": "address",
          "name": "account",
          "type": "address"
        }
      ],
      "name": "grantRole",
      "outputs": [],
      "stateMutability": "nonpayable",
      "type": "function"
    },
    {
      "inputs": [
        {
          "internalType": "bytes32",
          "name": "role",
          "type": "bytes32"
        },
        {
          "internalType": "address",
          "name": "account",
          "type": "address"
        }
      ],
      "name": "hasRole",
      "outputs": [
        {
          "internalType": "bool",
          "name": "",
          "type": "bool"
        }
      ],
      "stateMutability": "view",
      "type": "function"
    },
    {
      "inputs": [],
      "name": "incomeIndex",
      "outputs": [
        {
          "internalType": "uint256",
          "name": "index",
          "type": "uint256"
        }
      ],
      "stateMutability": "nonpayable",
      "type": "function"
    },
    {
      "inputs": [
        {
          "internalType": "address",
          "name": "_cToken",
          "type": "address"
        },
        {
          "internalType": "address",
          "name": "_comptroller",
          "type": "address"
        },
        {
          "internalType": "address",
          "name": "_rewards",
          "type": "address"
        },
        {
          "internalType": "address",
          "name": "_rescuer",
          "type": "address"
        },
        {
          "internalType": "address",
          "name": "_stablecoin",
          "type": "address"
        }
      ],
      "name": "initialize",
      "outputs": [],
      "stateMutability": "nonpayable",
      "type": "function"
    },
    {
      "inputs": [],
      "name": "owner",
      "outputs": [
        {
          "internalType": "address",
          "name": "",
          "type": "address"
        }
      ],
      "stateMutability": "view",
      "type": "function"
    },
    {
      "inputs": [],
      "name": "renounceOwnership",
      "outputs": [],
      "stateMutability": "nonpayable",
      "type": "function"
    },
    {
      "inputs": [
        {
          "internalType": "bytes32",
          "name": "role",
          "type": "bytes32"
        },
        {
          "internalType": "address",
          "name": "account",
          "type": "address"
        }
      ],
      "name": "renounceRole",
      "outputs": [],
      "stateMutability": "nonpayable",
      "type": "function"
    },
    {
      "inputs": [
        {
          "internalType": "address",
          "name": "token",
          "type": "address"
        },
        {
          "internalType": "address",
          "name": "target",
          "type": "address"
        }
      ],
      "name": "rescue",
      "outputs": [],
      "stateMutability": "nonpayable",
      "type": "function"
    },
    {
      "inputs": [
        {
          "internalType": "bytes32",
          "name": "role",
          "type": "bytes32"
        },
        {
          "internalType": "address",
          "name": "account",
          "type": "address"
        }
      ],
      "name": "revokeRole",
      "outputs": [],
      "stateMutability": "nonpayable",
      "type": "function"
    },
    {
      "inputs": [],
      "name": "rewards",
      "outputs": [
        {
          "internalType": "address",
          "name": "",
          "type": "address"
        }
      ],
      "stateMutability": "view",
      "type": "function"
    },
    {
      "inputs": [
        {
          "internalType": "address",
          "name": "newValue",
          "type": "address"
        }
      ],
      "name": "setRewards",
      "outputs": [],
      "stateMutability": "nonpayable",
      "type": "function"
    },
    {
      "inputs": [],
      "name": "stablecoin",
      "outputs": [
        {
          "internalType": "contract ERC20",
          "name": "",
          "type": "address"
        }
      ],
      "stateMutability": "view",
      "type": "function"
    },
    {
      "inputs": [
        {
          "internalType": "bytes4",
          "name": "interfaceId",
          "type": "bytes4"
        }
      ],
      "name": "supportsInterface",
      "outputs": [
        {
          "internalType": "bool",
          "name": "",
          "type": "bool"
        }
      ],
      "stateMutability": "view",
      "type": "function"
    },
    {
      "inputs": [
        {
          "internalType": "uint256",
          "name": "currentIncomeIndex",
          "type": "uint256"
        }
      ],
      "name": "totalValue",
      "outputs": [
        {
          "internalType": "uint256",
          "name": "",
          "type": "uint256"
        }
      ],
      "stateMutability": "view",
      "type": "function"
    },
    {
      "inputs": [],
      "name": "totalValue",
      "outputs": [
        {
          "internalType": "uint256",
          "name": "",
          "type": "uint256"
        }
      ],
      "stateMutability": "nonpayable",
      "type": "function"
    },
    {
      "inputs": [
        {
          "internalType": "address",
          "name": "newOwner",
          "type": "address"
        }
      ],
      "name": "transferOwnership",
      "outputs": [],
      "stateMutability": "nonpayable",
      "type": "function"
    },
    {
      "inputs": [
        {
          "internalType": "uint256",
          "name": "amountInUnderlying",
          "type": "uint256"
        }
      ],
      "name": "withdraw",
      "outputs": [
        {
          "internalType": "uint256",
          "name": "actualAmountWithdrawn",
          "type": "uint256"
        }
      ],
      "stateMutability": "nonpayable",
      "type": "function"
    }
  ],
  "transactionHash": "0x8def1fd1ab7255a7ca7803dd1de2b21cdd22bb9b07276861dbd0fa5c43ec868f",
  "args": [],
  "solcInputHash": "1661d293a805a6aa9c985d38b65fccb0",
  "bytecode": "0x608060405234801561001057600080fd5b50611e6e806100206000396000f3fe608060405234801561001057600080fd5b506004361061014d5760003560e01c806369e527da116100c3578063b6b55f251161007c578063b6b55f25146102b4578063d4c3eea0146102c7578063d547741f146102cf578063e9cbd822146102e2578063ec38a862146102f5578063f2fde38b146103085761014d565b806369e527da1461025a578063715018a61461026d5780638da5cb5b1461027557806391d14854146102865780639ec5a89414610299578063a217fddf146102ac5761014d565b80632f2ff15d116101155780632f2ff15d146101db57806336568abe146101ee578063372500ab146102015780634fdf5d1d14610209578063579f07b01461021c5780635fe3b5671461022f5761014d565b806301ffc9a7146101525780631459457a1461017a57806321c261201461018f578063248a9ca3146101a55780632e1a7d4d146101c8575b600080fd5b610165610160366004611bec565b61031b565b60405190151581526020015b60405180910390f35b61018d610188366004611b20565b610352565b005b6101976104c9565b604051908152602001610171565b6101976101b3366004611bb0565b600090815260c9602052604090206001015490565b6101976101d6366004611bb0565b61059c565b61018d6101e9366004611bc8565b610723565b61018d6101fc366004611bc8565b61074f565b61018d6107cd565b61018d610217366004611ae8565b61094c565b61019761022a366004611bb0565b61098a565b60fc54610242906001600160a01b031681565b6040516001600160a01b039091168152602001610171565b60fb54610242906001600160a01b031681565b61018d610a1d565b6065546001600160a01b0316610242565b610165610294366004611bc8565b610a91565b60fd54610242906001600160a01b031681565b610197600081565b61018d6102c2366004611bb0565b610abc565b610197610c4b565b61018d6102dd366004611bc8565b610d6a565b60fe54610242906001600160a01b031681565b61018d610303366004611ab0565b610d90565b61018d610316366004611ab0565b610e91565b60006001600160e01b03198216637965db0b60e01b148061034c57506301ffc9a760e01b6001600160e01b03198316145b92915050565b603254610100900460ff168061036b575060325460ff16155b6103905760405162461bcd60e51b815260040161038790611cf0565b60405180910390fd5b603254610100900460ff161580156103b2576032805461ffff19166101011790555b6103bb83610f7c565b6001600160a01b0386163b151580156103dd57506001600160a01b0385163b15155b80156103f157506001600160a01b03841615155b801561040657506001600160a01b0382163b15155b6104655760405162461bcd60e51b815260206004820152602a60248201527f436f6d706f756e6445524332304d61726b65743a20496e76616c696420696e706044820152697574206164647265737360b01b6064820152608401610387565b60fb80546001600160a01b038089166001600160a01b03199283161790925560fc805488841690831617905560fd805487841690831617905560fe80549285169290911691909117905580156104c1576032805461ff00191690555b505050505050565b60fb546040805163bd6d894d60e01b815290516000926001600160a01b03169163bd6d894d91600480830192602092919082900301818787803b15801561050f57600080fd5b505af1158015610523573d6000803e3d6000fd5b505050506040513d601f19601f820116820180604052508101906105479190611c14565b9050600081116105995760405162461bcd60e51b815260206004820152601e60248201527f436f6d706f756e6445524332304d61726b65743a204241445f494e44455800006044820152606401610387565b90565b6065546000906001600160a01b031633146105c95760405162461bcd60e51b815260040161038790611d3e565b6000821161062e5760405162461bcd60e51b815260206004820152602c60248201527f436f6d706f756e6445524332304d61726b65743a20616d6f756e74496e556e6460448201526b065726c79696e6720697320360a41b6064820152608401610387565b60fb5460405163852a12e360e01b8152600481018490526000916001600160a01b03169063852a12e390602401602060405180830381600087803b15801561067557600080fd5b505af1158015610689573d6000803e3d6000fd5b505050506040513d601f19601f820116820180604052508101906106ad9190611c14565b146107085760405162461bcd60e51b815260206004820152602560248201527f436f6d706f756e6445524332304d61726b65743a204661696c656420746f2072604482015264656465656d60d81b6064820152608401610387565b60fe5461071f906001600160a01b0316338461104c565b5090565b600082815260c9602052604090206001015461074081335b6110af565b61074a8383611113565b505050565b6001600160a01b03811633146107bf5760405162461bcd60e51b815260206004820152602f60248201527f416363657373436f6e74726f6c3a2063616e206f6e6c792072656e6f756e636560448201526e103937b632b9903337b91039b2b63360891b6064820152608401610387565b6107c98282611199565b5050565b60fc546040516374d7814960e11b81523060048201526001600160a01b039091169063e9af029290602401600060405180830381600087803b15801561081257600080fd5b505af1158015610826573d6000803e3d6000fd5b50505050600060fc60009054906101000a90046001600160a01b03166001600160a01b0316639d1b5a0a6040518163ffffffff1660e01b815260040160206040518083038186803b15801561087a57600080fd5b505afa15801561088e573d6000803e3d6000fd5b505050506040513d601f19601f820116820180604052508101906108b29190611acc565b60fd546040516370a0823160e01b8152306004820152919250610949916001600160a01b03918216918416906370a08231906024015b60206040518083038186803b15801561090057600080fd5b505afa158015610914573d6000803e3d6000fd5b505050506040513d601f19601f820116820180604052508101906109389190611c14565b6001600160a01b038416919061104c565b50565b6109568282611200565b6040516370a0823160e01b8152306004820152829061074a9083906001600160a01b038416906370a08231906024016108e8565b60fb546040516370a0823160e01b815230600482015260009182916001600160a01b03909116906370a082319060240160206040518083038186803b1580156109d257600080fd5b505afa1580156109e6573d6000803e3d6000fd5b505050506040513d601f19601f82011682018060405250810190610a0a9190611c14565b9050610a168184611268565b9392505050565b6065546001600160a01b03163314610a475760405162461bcd60e51b815260040161038790611d3e565b6065546040516000916001600160a01b0316907f8be0079c531659141344cd1fd0a4f28419497f9722a3daafe3b4186f6b6457e0908390a3606580546001600160a01b0319169055565b600091825260c9602090815260408084206001600160a01b0393909316845291905290205460ff1690565b6065546001600160a01b03163314610ae65760405162461bcd60e51b815260040161038790611d3e565b60008111610b365760405162461bcd60e51b815260206004820181905260248201527f436f6d706f756e6445524332304d61726b65743a20616d6f756e7420697320306044820152606401610387565b60fe54610b4e906001600160a01b0316333084611287565b60fb5460fe54610b6b916001600160a01b039182169116836112c5565b60fb5460405163140e25ad60e31b8152600481018390526000916001600160a01b03169063a0712d6890602401602060405180830381600087803b158015610bb257600080fd5b505af1158015610bc6573d6000803e3d6000fd5b505050506040513d601f19601f82011682018060405250810190610bea9190611c14565b146109495760405162461bcd60e51b815260206004820152602b60248201527f436f6d706f756e6445524332304d61726b65743a204661696c656420746f206d60448201526a696e742063546f6b656e7360a81b6064820152608401610387565b60fb546040516370a0823160e01b815230600482015260009182916001600160a01b03909116906370a082319060240160206040518083038186803b158015610c9357600080fd5b505afa158015610ca7573d6000803e3d6000fd5b505050506040513d601f19601f82011682018060405250810190610ccb9190611c14565b9050600060fb60009054906101000a90046001600160a01b03166001600160a01b031663bd6d894d6040518163ffffffff1660e01b8152600401602060405180830381600087803b158015610d1f57600080fd5b505af1158015610d33573d6000803e3d6000fd5b505050506040513d601f19601f82011682018060405250810190610d579190611c14565b9050610d638282611268565b9250505090565b600082815260c96020526040902060010154610d86813361073b565b61074a8383611199565b6065546001600160a01b03163314610dba5760405162461bcd60e51b815260040161038790611d3e565b6001600160a01b0381163b610e1b5760405162461bcd60e51b815260206004820152602160248201527f436f6d706f756e6445524332304d61726b65743a206e6f7420636f6e747261636044820152601d60fa1b6064820152608401610387565b60fd80546001600160a01b0319166001600160a01b038316179055604051667265776172647360c81b81526007016040519081900381206001600160a01b03831682529033907f64b03eb8356730cffd396927eec0e9b1e0599498960e022df3dae35791c17cf59060200160405180910390a350565b6065546001600160a01b03163314610ebb5760405162461bcd60e51b815260040161038790611d3e565b6001600160a01b038116610f205760405162461bcd60e51b815260206004820152602660248201527f4f776e61626c653a206e6577206f776e657220697320746865207a65726f206160448201526564647265737360d01b6064820152608401610387565b6065546040516001600160a01b038084169216907f8be0079c531659141344cd1fd0a4f28419497f9722a3daafe3b4186f6b6457e090600090a3606580546001600160a01b0319166001600160a01b0392909216919091179055565b603254610100900460ff1680610f95575060325460ff16155b610fb15760405162461bcd60e51b815260040161038790611cf0565b603254610100900460ff16158015610fd3576032805461ffff19166101011790555b610fdb6113ae565b610fe3611429565b61100d7fcf6f9f892731e14b8859835f2ff35575f447fb501f46243c4eb8bac19e31a05083611498565b6110377fcf6f9f892731e14b8859835f2ff35575f447fb501f46243c4eb8bac19e31a050806114a2565b80156107c9576032805461ff00191690555050565b6040516001600160a01b03831660248201526044810182905261074a90849063a9059cbb60e01b906064015b60408051601f198184030181529190526020810180516001600160e01b03166001600160e01b0319909316929092179091526114f6565b6110b98282610a91565b6107c9576110d1816001600160a01b031660146115c8565b6110dc8360206115c8565b6040516020016110ed929190611c48565b60408051601f198184030181529082905262461bcd60e51b825261038791600401611cbd565b61111d8282610a91565b6107c957600082815260c9602090815260408083206001600160a01b03851684529091529020805460ff191660011790556111553390565b6001600160a01b0316816001600160a01b0316837f2f8788117e7eff1d82e926ec794901d17c78024a50270940304540a733656f0d60405160405180910390a45050565b6111a38282610a91565b156107c957600082815260c9602090815260408083206001600160a01b0385168085529252808320805460ff1916905551339285917ff6391f5c32d9c69d2a47ea670b442974b53935d1edc7fd64eb21e047a839171b9190a45050565b61120a82826117aa565b60fb546001600160a01b03838116911614156107c95760405162461bcd60e51b815260206004820152601d60248201527f436f6d706f756e6445524332304d61726b65743a206e6f20737465616c0000006044820152606401610387565b6000670de0b6b3a764000061127d8385611dab565b610a169190611d8b565b6040516001600160a01b03808516602483015283166044820152606481018290526112bf9085906323b872dd60e01b90608401611078565b50505050565b604051636eb1769f60e11b81523060048201526001600160a01b0383811660248301526000919085169063dd62ed3e9060440160206040518083038186803b15801561131057600080fd5b505afa158015611324573d6000803e3d6000fd5b505050506040513d601f19601f820116820180604052508101906113489190611c14565b111561137e576040516001600160a01b03831660248201526000604482015261137e90849063095ea7b360e01b90606401611078565b6040516001600160a01b03831660248201526044810182905261074a90849063095ea7b360e01b90606401611078565b603254610100900460ff16806113c7575060325460ff16155b6113e35760405162461bcd60e51b815260040161038790611cf0565b603254610100900460ff16158015611405576032805461ffff19166101011790555b61140d611820565b61141561188a565b8015610949576032805461ff001916905550565b603254610100900460ff1680611442575060325460ff16155b61145e5760405162461bcd60e51b815260040161038790611cf0565b603254610100900460ff16158015611480576032805461ffff19166101011790555b611488611820565b611490611820565b611415611820565b6107c98282611113565b600082815260c96020526040902060010154819060405184907fbd79b86ffe0ab8e8776151514217cd7cacd52c909f66475c3af44e129f0b00ff90600090a4600091825260c9602052604090912060010155565b600061154b826040518060400160405280602081526020017f5361666545524332303a206c6f772d6c6576656c2063616c6c206661696c6564815250856001600160a01b03166119389092919063ffffffff16565b80519091501561074a57808060200190518101906115699190611b90565b61074a5760405162461bcd60e51b815260206004820152602a60248201527f5361666545524332303a204552433230206f7065726174696f6e20646964206e6044820152691bdd081cdd58d8d9595960b21b6064820152608401610387565b606060006115d7836002611dab565b6115e2906002611d73565b67ffffffffffffffff81111561160857634e487b7160e01b600052604160045260246000fd5b6040519080825280601f01601f191660200182016040528015611632576020820181803683370190505b509050600360fc1b8160008151811061165b57634e487b7160e01b600052603260045260246000fd5b60200101906001600160f81b031916908160001a905350600f60fb1b8160018151811061169857634e487b7160e01b600052603260045260246000fd5b60200101906001600160f81b031916908160001a90535060006116bc846002611dab565b6116c7906001611d73565b90505b600181111561175b576f181899199a1a9b1b9c1cb0b131b232b360811b85600f166010811061170957634e487b7160e01b600052603260045260246000fd5b1a60f81b82828151811061172d57634e487b7160e01b600052603260045260246000fd5b60200101906001600160f81b031916908160001a90535060049490941c9361175481611df6565b90506116ca565b508315610a165760405162461bcd60e51b815260206004820181905260248201527f537472696e67733a20686578206c656e67746820696e73756666696369656e746044820152606401610387565b6117d47fcf6f9f892731e14b8859835f2ff35575f447fb501f46243c4eb8bac19e31a05033610a91565b6107c95760405162461bcd60e51b815260206004820152601860248201527f4d6f6e65794d61726b65743a206e6f74207265736375657200000000000000006044820152606401610387565b603254610100900460ff1680611839575060325460ff16155b6118555760405162461bcd60e51b815260040161038790611cf0565b603254610100900460ff16158015611415576032805461ffff19166101011790558015610949576032805461ff001916905550565b603254610100900460ff16806118a3575060325460ff16155b6118bf5760405162461bcd60e51b815260040161038790611cf0565b603254610100900460ff161580156118e1576032805461ffff19166101011790555b606580546001600160a01b0319163390811790915560405181906000907f8be0079c531659141344cd1fd0a4f28419497f9722a3daafe3b4186f6b6457e0908290a3508015610949576032805461ff001916905550565b6060611947848460008561194f565b949350505050565b6060824710156119b05760405162461bcd60e51b815260206004820152602660248201527f416464726573733a20696e73756666696369656e742062616c616e636520666f6044820152651c8818d85b1b60d21b6064820152608401610387565b843b6119fe5760405162461bcd60e51b815260206004820152601d60248201527f416464726573733a2063616c6c20746f206e6f6e2d636f6e74726163740000006044820152606401610387565b600080866001600160a01b03168587604051611a1a9190611c2c565b60006040518083038185875af1925050503d8060008114611a57576040519150601f19603f3d011682016040523d82523d6000602084013e611a5c565b606091505b5091509150611a6c828286611a77565b979650505050505050565b60608315611a86575081610a16565b825115611a965782518084602001fd5b8160405162461bcd60e51b81526004016103879190611cbd565b600060208284031215611ac1578081fd5b8135610a1681611e23565b600060208284031215611add578081fd5b8151610a1681611e23565b60008060408385031215611afa578081fd5b8235611b0581611e23565b91506020830135611b1581611e23565b809150509250929050565b600080600080600060a08688031215611b37578081fd5b8535611b4281611e23565b94506020860135611b5281611e23565b93506040860135611b6281611e23565b92506060860135611b7281611e23565b91506080860135611b8281611e23565b809150509295509295909350565b600060208284031215611ba1578081fd5b81518015158114610a16578182fd5b600060208284031215611bc1578081fd5b5035919050565b60008060408385031215611bda578182fd5b823591506020830135611b1581611e23565b600060208284031215611bfd578081fd5b81356001600160e01b031981168114610a16578182fd5b600060208284031215611c25578081fd5b5051919050565b60008251611c3e818460208701611dca565b9190910192915050565b60007f416363657373436f6e74726f6c3a206163636f756e742000000000000000000082528351611c80816017850160208801611dca565b7001034b99036b4b9b9b4b733903937b6329607d1b6017918401918201528351611cb1816028840160208801611dca565b01602801949350505050565b6000602082528251806020840152611cdc816040850160208701611dca565b601f01601f19169190910160400192915050565b6020808252602e908201527f496e697469616c697a61626c653a20636f6e747261637420697320616c72656160408201526d191e481a5b9a5d1a585b1a5e995960921b606082015260800190565b6020808252818101527f4f776e61626c653a2063616c6c6572206973206e6f7420746865206f776e6572604082015260600190565b60008219821115611d8657611d86611e0d565b500190565b600082611da657634e487b7160e01b81526012600452602481fd5b500490565b6000816000190483118215151615611dc557611dc5611e0d565b500290565b60005b83811015611de5578181015183820152602001611dcd565b838111156112bf5750506000910152565b600081611e0557611e05611e0d565b506000190190565b634e487b7160e01b600052601160045260246000fd5b6001600160a01b038116811461094957600080fdfea26469706673582212200139b5b099459c563182fbe84319c83b90f996fd2ddab4ea822d86242eeabfca64736f6c63430008030033",
  "devdoc": {
    "kind": "dev",
    "methods": {
      "getRoleAdmin(bytes32)": {
        "details": "Returns the admin role that controls `role`. See {grantRole} and {revokeRole}. To change a role's admin, use {_setRoleAdmin}."
      },
      "grantRole(bytes32,address)": {
        "details": "Grants `role` to `account`. If `account` had not been already granted `role`, emits a {RoleGranted} event. Requirements: - the caller must have ``role``'s admin role."
      },
      "hasRole(bytes32,address)": {
        "details": "Returns `true` if `account` has been granted `role`."
      },
      "owner()": {
        "details": "Returns the address of the current owner."
      },
      "renounceOwnership()": {
        "details": "Leaves the contract without owner. It will not be possible to call `onlyOwner` functions anymore. Can only be called by the current owner. NOTE: Renouncing ownership will leave the contract without an owner, thereby removing any functionality that is only available to the owner."
      },
      "renounceRole(bytes32,address)": {
        "details": "Revokes `role` from the calling account. Roles are often managed via {grantRole} and {revokeRole}: this function's purpose is to provide a mechanism for accounts to lose their privileges if they are compromised (such as when a trusted device is misplaced). If the calling account had been granted `role`, emits a {RoleRevoked} event. Requirements: - the caller must be `account`."
      },
      "rescue(address,address)": {
        "details": "Need to implement {_authorizeRescue} to do access-control for this function.",
        "params": {
          "target": "The address to send the tokens to",
          "token": "The ERC20 token to rescue"
        }
      },
      "revokeRole(bytes32,address)": {
        "details": "Revokes `role` from `account`. If `account` had been granted `role`, emits a {RoleRevoked} event. Requirements: - the caller must have ``role``'s admin role."
      },
      "supportsInterface(bytes4)": {
        "details": "See {IERC165-supportsInterface}."
      },
      "transferOwnership(address)": {
        "details": "Transfers ownership of the contract to a new account (`newOwner`). Can only be called by the current owner."
      }
    },
    "version": 1
  },
  "userdoc": {
    "kind": "user",
    "methods": {
      "rescue(address,address)": {
        "notice": "Rescues ERC20 tokens sent to the contract in error."
      },
      "setRewards(address)": {
        "notice": "Param setters"
      }
    },
    "version": 1
  },
  "storageLayout": {
    "storage": [
      {
        "astId": 13754,
        "contract": "contracts/moneymarkets/compound/CompoundERC20Market.sol:CompoundERC20Market",
        "label": "__gap",
        "offset": 0,
        "slot": "0",
        "type": "t_array(t_uint256)50_storage"
      },
      {
        "astId": 612,
        "contract": "contracts/moneymarkets/compound/CompoundERC20Market.sol:CompoundERC20Market",
        "label": "_initialized",
        "offset": 0,
        "slot": "50",
        "type": "t_bool"
      },
      {
        "astId": 615,
        "contract": "contracts/moneymarkets/compound/CompoundERC20Market.sol:CompoundERC20Market",
        "label": "_initializing",
        "offset": 1,
        "slot": "50",
        "type": "t_bool"
      },
      {
        "astId": 3064,
        "contract": "contracts/moneymarkets/compound/CompoundERC20Market.sol:CompoundERC20Market",
        "label": "__gap",
        "offset": 0,
        "slot": "51",
        "type": "t_array(t_uint256)50_storage"
      },
      {
        "astId": 406,
        "contract": "contracts/moneymarkets/compound/CompoundERC20Market.sol:CompoundERC20Market",
        "label": "_owner",
        "offset": 0,
        "slot": "101",
        "type": "t_address"
      },
      {
        "astId": 525,
        "contract": "contracts/moneymarkets/compound/CompoundERC20Market.sol:CompoundERC20Market",
        "label": "__gap",
        "offset": 0,
        "slot": "102",
        "type": "t_array(t_uint256)49_storage"
      },
      {
        "astId": 3453,
        "contract": "contracts/moneymarkets/compound/CompoundERC20Market.sol:CompoundERC20Market",
        "label": "__gap",
        "offset": 0,
        "slot": "151",
        "type": "t_array(t_uint256)50_storage"
      },
      {
        "astId": 86,
        "contract": "contracts/moneymarkets/compound/CompoundERC20Market.sol:CompoundERC20Market",
        "label": "_roles",
        "offset": 0,
        "slot": "201",
        "type": "t_mapping(t_bytes32,t_struct(RoleData)81_storage)"
      },
      {
        "astId": 394,
        "contract": "contracts/moneymarkets/compound/CompoundERC20Market.sol:CompoundERC20Market",
        "label": "__gap",
        "offset": 0,
        "slot": "202",
        "type": "t_array(t_uint256)49_storage"
      },
      {
        "astId": 18027,
        "contract": "contracts/moneymarkets/compound/CompoundERC20Market.sol:CompoundERC20Market",
        "label": "cToken",
        "offset": 0,
        "slot": "251",
        "type": "t_contract(ICERC20)18537"
      },
      {
        "astId": 18030,
        "contract": "contracts/moneymarkets/compound/CompoundERC20Market.sol:CompoundERC20Market",
        "label": "comptroller",
        "offset": 0,
        "slot": "252",
        "type": "t_contract(IComptroller)18550"
      },
      {
        "astId": 18032,
        "contract": "contracts/moneymarkets/compound/CompoundERC20Market.sol:CompoundERC20Market",
        "label": "rewards",
        "offset": 0,
        "slot": "253",
        "type": "t_address"
      },
      {
        "astId": 18036,
        "contract": "contracts/moneymarkets/compound/CompoundERC20Market.sol:CompoundERC20Market",
        "label": "stablecoin",
        "offset": 0,
        "slot": "254",
        "type": "t_contract(ERC20)4992"
      },
      {
        "astId": 18353,
        "contract": "contracts/moneymarkets/compound/CompoundERC20Market.sol:CompoundERC20Market",
        "label": "__gap",
        "offset": 0,
        "slot": "255",
        "type": "t_array(t_uint256)46_storage"
      }
    ],
    "types": {
      "t_address": {
        "encoding": "inplace",
        "label": "address",
        "numberOfBytes": "20"
      },
      "t_array(t_uint256)46_storage": {
        "base": "t_uint256",
        "encoding": "inplace",
        "label": "uint256[46]",
        "numberOfBytes": "1472"
      },
      "t_array(t_uint256)49_storage": {
        "base": "t_uint256",
        "encoding": "inplace",
        "label": "uint256[49]",
        "numberOfBytes": "1568"
      },
      "t_array(t_uint256)50_storage": {
        "base": "t_uint256",
        "encoding": "inplace",
        "label": "uint256[50]",
        "numberOfBytes": "1600"
      },
      "t_bool": {
        "encoding": "inplace",
        "label": "bool",
        "numberOfBytes": "1"
      },
      "t_bytes32": {
        "encoding": "inplace",
        "label": "bytes32",
        "numberOfBytes": "32"
      },
      "t_contract(ERC20)4992": {
        "encoding": "inplace",
        "label": "contract ERC20",
        "numberOfBytes": "20"
      },
      "t_contract(ICERC20)18537": {
        "encoding": "inplace",
        "label": "contract ICERC20",
        "numberOfBytes": "20"
      },
      "t_contract(IComptroller)18550": {
        "encoding": "inplace",
        "label": "contract IComptroller",
        "numberOfBytes": "20"
      },
      "t_mapping(t_address,t_bool)": {
        "encoding": "mapping",
        "key": "t_address",
        "label": "mapping(address => bool)",
        "numberOfBytes": "32",
        "value": "t_bool"
      },
      "t_mapping(t_bytes32,t_struct(RoleData)81_storage)": {
        "encoding": "mapping",
        "key": "t_bytes32",
        "label": "mapping(bytes32 => struct AccessControlUpgradeable.RoleData)",
        "numberOfBytes": "32",
        "value": "t_struct(RoleData)81_storage"
      },
      "t_struct(RoleData)81_storage": {
        "encoding": "inplace",
        "label": "struct AccessControlUpgradeable.RoleData",
        "members": [
          {
            "astId": 78,
            "contract": "contracts/moneymarkets/compound/CompoundERC20Market.sol:CompoundERC20Market",
            "label": "members",
            "offset": 0,
            "slot": "0",
            "type": "t_mapping(t_address,t_bool)"
          },
          {
            "astId": 80,
            "contract": "contracts/moneymarkets/compound/CompoundERC20Market.sol:CompoundERC20Market",
            "label": "adminRole",
            "offset": 0,
            "slot": "1",
            "type": "t_bytes32"
          }
        ],
        "numberOfBytes": "64"
      },
      "t_uint256": {
        "encoding": "inplace",
        "label": "uint256",
        "numberOfBytes": "32"
      }
    }
  }
}