{
  "address": "0xf4f00862898065893e0FB60a41A66396dA014DB2",
  "abi": [
    {
      "anonymous": false,
      "inputs": [
        {
          "indexed": true,
          "internalType": "address",
          "name": "sender",
          "type": "address"
        },
        {
          "indexed": true,
          "internalType": "uint256",
          "name": "depositID",
          "type": "uint256"
        },
        {
          "indexed": false,
          "internalType": "uint256",
          "name": "depositAmount",
          "type": "uint256"
        },
        {
          "indexed": false,
          "internalType": "uint256",
          "name": "interestAmount",
          "type": "uint256"
        },
        {
          "indexed": false,
          "internalType": "uint256",
          "name": "feeAmount",
          "type": "uint256"
        },
        {
          "indexed": false,
          "internalType": "uint64",
          "name": "maturationTimestamp",
          "type": "uint64"
        }
      ],
      "name": "EDeposit",
      "type": "event"
    },
    {
      "anonymous": false,
      "inputs": [
        {
          "indexed": true,
          "internalType": "address",
          "name": "sender",
          "type": "address"
        },
        {
          "indexed": true,
          "internalType": "uint64",
          "name": "fundingID",
          "type": "uint64"
        },
        {
          "indexed": false,
          "internalType": "uint256",
          "name": "fundAmount",
          "type": "uint256"
        },
        {
          "indexed": false,
          "internalType": "uint256",
          "name": "tokenAmount",
          "type": "uint256"
        }
      ],
      "name": "EFund",
      "type": "event"
    },
    {
      "anonymous": false,
      "inputs": [
        {
          "indexed": true,
          "internalType": "uint256",
          "name": "fundingID",
          "type": "uint256"
        },
        {
          "indexed": false,
          "internalType": "uint256",
          "name": "interestAmount",
          "type": "uint256"
        },
        {
          "indexed": false,
          "internalType": "uint256",
          "name": "refundAmount",
          "type": "uint256"
        }
      ],
      "name": "EPayFundingInterest",
      "type": "event"
    },
    {
      "anonymous": false,
      "inputs": [
        {
          "indexed": true,
          "internalType": "address",
          "name": "sender",
          "type": "address"
        },
        {
          "indexed": true,
          "internalType": "uint64",
          "name": "depositID",
          "type": "uint64"
        },
        {
          "indexed": true,
          "internalType": "uint64",
          "name": "newDepositID",
          "type": "uint64"
        }
      ],
      "name": "ERolloverDeposit",
      "type": "event"
    },
    {
      "anonymous": false,
      "inputs": [
        {
          "indexed": true,
          "internalType": "address",
          "name": "sender",
          "type": "address"
        },
        {
          "indexed": true,
          "internalType": "string",
          "name": "paramName",
          "type": "string"
        },
        {
          "indexed": false,
          "internalType": "address",
          "name": "newValue",
          "type": "address"
        }
      ],
      "name": "ESetParamAddress",
      "type": "event"
    },
    {
      "anonymous": false,
      "inputs": [
        {
          "indexed": true,
          "internalType": "address",
          "name": "sender",
          "type": "address"
        },
        {
          "indexed": true,
          "internalType": "string",
          "name": "paramName",
          "type": "string"
        },
        {
          "indexed": false,
          "internalType": "uint256",
          "name": "newValue",
          "type": "uint256"
        }
      ],
      "name": "ESetParamUint",
      "type": "event"
    },
    {
      "anonymous": false,
      "inputs": [
        {
          "indexed": true,
          "internalType": "address",
          "name": "sender",
          "type": "address"
        },
        {
          "indexed": true,
          "internalType": "uint64",
          "name": "depositID",
          "type": "uint64"
        },
        {
          "indexed": false,
          "internalType": "uint256",
          "name": "depositAmount",
          "type": "uint256"
        },
        {
          "indexed": false,
          "internalType": "uint256",
          "name": "interestAmount",
          "type": "uint256"
        },
        {
          "indexed": false,
          "internalType": "uint256",
          "name": "feeAmount",
          "type": "uint256"
        }
      ],
      "name": "ETopupDeposit",
      "type": "event"
    },
    {
      "anonymous": false,
      "inputs": [
        {
          "indexed": true,
          "internalType": "address",
          "name": "sender",
          "type": "address"
        },
        {
          "indexed": true,
          "internalType": "uint256",
          "name": "depositID",
          "type": "uint256"
        },
        {
          "indexed": true,
          "internalType": "bool",
          "name": "early",
          "type": "bool"
        },
        {
          "indexed": false,
          "internalType": "uint256",
          "name": "virtualTokenAmount",
          "type": "uint256"
        },
        {
          "indexed": false,
          "internalType": "uint256",
          "name": "feeAmount",
          "type": "uint256"
        }
      ],
      "name": "EWithdraw",
      "type": "event"
    },
    {
      "anonymous": false,
      "inputs": [
        {
          "indexed": true,
          "internalType": "address",
          "name": "previousOwner",
          "type": "address"
        },
        {
          "indexed": true,
          "internalType": "address",
          "name": "newOwner",
          "type": "address"
        }
      ],
      "name": "OwnershipTransferred",
      "type": "event"
    },
    {
      "inputs": [],
      "name": "GlobalDepositCap",
      "outputs": [
        {
          "internalType": "uint256",
          "name": "",
          "type": "uint256"
        }
      ],
      "stateMutability": "view",
      "type": "function"
    },
    {
      "inputs": [],
      "name": "MaxDepositPeriod",
      "outputs": [
        {
          "internalType": "uint64",
          "name": "",
          "type": "uint64"
        }
      ],
      "stateMutability": "view",
      "type": "function"
    },
    {
      "inputs": [],
      "name": "MinDepositAmount",
      "outputs": [
        {
          "internalType": "uint256",
          "name": "",
          "type": "uint256"
        }
      ],
      "stateMutability": "view",
      "type": "function"
    },
    {
      "inputs": [
        {
          "internalType": "address",
          "name": "",
          "type": "address"
        }
      ],
      "name": "accountNonce",
      "outputs": [
        {
          "internalType": "uint256",
          "name": "",
          "type": "uint256"
        }
      ],
      "stateMutability": "view",
      "type": "function"
    },
    {
      "inputs": [
        {
          "internalType": "uint256",
          "name": "depositAmount",
          "type": "uint256"
        },
        {
          "internalType": "uint256",
          "name": "depositPeriodInSeconds",
          "type": "uint256"
        }
      ],
      "name": "calculateInterestAmount",
      "outputs": [
        {
          "internalType": "uint256",
          "name": "interestAmount",
          "type": "uint256"
        }
      ],
      "stateMutability": "nonpayable",
      "type": "function"
    },
    {
      "inputs": [
        {
          "internalType": "uint64",
          "name": "depositID",
          "type": "uint64"
        },
        {
          "internalType": "uint256",
          "name": "newFeeRate",
          "type": "uint256"
        }
      ],
      "name": "decreaseFeeForDeposit",
      "outputs": [],
      "stateMutability": "nonpayable",
      "type": "function"
    },
    {
      "inputs": [
        {
          "internalType": "uint256",
          "name": "depositAmount",
          "type": "uint256"
        },
        {
          "internalType": "uint64",
          "name": "maturationTimestamp",
          "type": "uint64"
        }
      ],
      "name": "deposit",
      "outputs": [
        {
          "internalType": "uint64",
          "name": "depositID",
          "type": "uint64"
        },
        {
          "internalType": "uint256",
          "name": "interestAmount",
          "type": "uint256"
        }
      ],
      "stateMutability": "nonpayable",
      "type": "function"
    },
    {
      "inputs": [],
      "name": "depositNFT",
      "outputs": [
        {
          "internalType": "contract NFT",
          "name": "",
          "type": "address"
        }
      ],
      "stateMutability": "view",
      "type": "function"
    },
    {
      "inputs": [],
      "name": "depositsLength",
      "outputs": [
        {
          "internalType": "uint256",
          "name": "",
          "type": "uint256"
        }
      ],
      "stateMutability": "view",
      "type": "function"
    },
    {
      "inputs": [],
      "name": "feeModel",
      "outputs": [
        {
          "internalType": "contract IFeeModel",
          "name": "",
          "type": "address"
        }
      ],
      "stateMutability": "view",
      "type": "function"
    },
    {
      "inputs": [
        {
          "internalType": "uint64",
          "name": "depositID",
          "type": "uint64"
        },
        {
          "internalType": "uint256",
          "name": "fundAmount",
          "type": "uint256"
        }
      ],
      "name": "fund",
      "outputs": [
        {
          "internalType": "uint64",
          "name": "fundingID",
          "type": "uint64"
        }
      ],
      "stateMutability": "nonpayable",
      "type": "function"
    },
    {
      "inputs": [],
      "name": "fundingListLength",
      "outputs": [
        {
          "internalType": "uint256",
          "name": "",
          "type": "uint256"
        }
      ],
      "stateMutability": "view",
      "type": "function"
    },
    {
      "inputs": [],
      "name": "fundingMultitoken",
      "outputs": [
        {
          "internalType": "contract FundingMultitoken",
          "name": "",
          "type": "address"
        }
      ],
      "stateMutability": "view",
      "type": "function"
    },
    {
      "inputs": [
        {
          "internalType": "uint64",
          "name": "depositID",
          "type": "uint64"
        }
      ],
      "name": "getDeposit",
      "outputs": [
        {
          "components": [
            {
              "internalType": "uint256",
              "name": "virtualTokenTotalSupply",
              "type": "uint256"
            },
            {
              "internalType": "uint256",
              "name": "interestRate",
              "type": "uint256"
            },
            {
              "internalType": "uint256",
              "name": "feeRate",
              "type": "uint256"
            },
            {
              "internalType": "uint256",
              "name": "averageRecordedIncomeIndex",
              "type": "uint256"
            },
            {
              "internalType": "uint64",
              "name": "maturationTimestamp",
              "type": "uint64"
            },
            {
              "internalType": "uint64",
              "name": "fundingID",
              "type": "uint64"
            }
          ],
          "internalType": "struct DInterest.Deposit",
          "name": "",
          "type": "tuple"
        }
      ],
      "stateMutability": "view",
      "type": "function"
    },
    {
      "inputs": [
        {
          "internalType": "uint64",
          "name": "fundingID",
          "type": "uint64"
        }
      ],
      "name": "getFunding",
      "outputs": [
        {
          "components": [
            {
              "internalType": "uint64",
              "name": "depositID",
              "type": "uint64"
            },
            {
              "internalType": "uint64",
              "name": "lastInterestPayoutTimestamp",
              "type": "uint64"
            },
            {
              "internalType": "uint256",
              "name": "recordedMoneyMarketIncomeIndex",
              "type": "uint256"
            },
            {
              "internalType": "uint256",
              "name": "principalPerToken",
              "type": "uint256"
            }
          ],
          "internalType": "struct DInterest.Funding",
          "name": "",
          "type": "tuple"
        }
      ],
      "stateMutability": "view",
      "type": "function"
    },
    {
      "inputs": [
        {
          "internalType": "uint64",
          "name": "_MaxDepositPeriod",
          "type": "uint64"
        },
        {
          "internalType": "uint256",
          "name": "_MinDepositAmount",
          "type": "uint256"
        },
        {
          "internalType": "address",
          "name": "_moneyMarket",
          "type": "address"
        },
        {
          "internalType": "address",
          "name": "_stablecoin",
          "type": "address"
        },
        {
          "internalType": "address",
          "name": "_feeModel",
          "type": "address"
        },
        {
          "internalType": "address",
          "name": "_interestModel",
          "type": "address"
        },
        {
          "internalType": "address",
          "name": "_interestOracle",
          "type": "address"
        },
        {
          "internalType": "address",
          "name": "_depositNFT",
          "type": "address"
        },
        {
          "internalType": "address",
          "name": "_fundingMultitoken",
          "type": "address"
        },
        {
          "internalType": "address",
          "name": "_mphMinter",
          "type": "address"
        }
      ],
      "name": "initialize",
      "outputs": [],
      "stateMutability": "nonpayable",
      "type": "function"
    },
    {
      "inputs": [],
      "name": "interestModel",
      "outputs": [
        {
          "internalType": "contract IInterestModel",
          "name": "",
          "type": "address"
        }
      ],
      "stateMutability": "view",
      "type": "function"
    },
    {
      "inputs": [],
      "name": "interestOracle",
      "outputs": [
        {
          "internalType": "contract IInterestOracle",
          "name": "",
          "type": "address"
        }
      ],
      "stateMutability": "view",
      "type": "function"
    },
    {
      "inputs": [],
      "name": "moneyMarket",
      "outputs": [
        {
          "internalType": "contract MoneyMarket",
          "name": "",
          "type": "address"
        }
      ],
      "stateMutability": "view",
      "type": "function"
    },
    {
      "inputs": [],
      "name": "mphMinter",
      "outputs": [
        {
          "internalType": "contract MPHMinter",
          "name": "",
          "type": "address"
        }
      ],
      "stateMutability": "view",
      "type": "function"
    },
    {
      "inputs": [
        {
          "internalType": "bytes[]",
          "name": "data",
          "type": "bytes[]"
        }
      ],
      "name": "multicall",
      "outputs": [
        {
          "internalType": "bytes[]",
          "name": "results",
          "type": "bytes[]"
        }
      ],
      "stateMutability": "nonpayable",
      "type": "function"
    },
    {
      "inputs": [],
      "name": "owner",
      "outputs": [
        {
          "internalType": "address",
          "name": "",
          "type": "address"
        }
      ],
      "stateMutability": "view",
      "type": "function"
    },
    {
      "inputs": [
        {
          "internalType": "uint64",
          "name": "fundingID",
          "type": "uint64"
        }
      ],
      "name": "payInterestToFunders",
      "outputs": [
        {
          "internalType": "uint256",
          "name": "interestAmount",
          "type": "uint256"
        }
      ],
      "stateMutability": "nonpayable",
      "type": "function"
    },
    {
      "inputs": [
        {
          "internalType": "uint64",
          "name": "depositID",
          "type": "uint64"
        }
      ],
      "name": "rawSurplusOfDeposit",
      "outputs": [
        {
          "internalType": "bool",
          "name": "isNegative",
          "type": "bool"
        },
        {
          "internalType": "uint256",
          "name": "surplusAmount",
          "type": "uint256"
        }
      ],
      "stateMutability": "nonpayable",
      "type": "function"
    },
    {
      "inputs": [],
      "name": "renounceOwnership",
      "outputs": [],
      "stateMutability": "nonpayable",
      "type": "function"
    },
    {
      "inputs": [
        {
          "internalType": "address",
          "name": "token",
          "type": "address"
        },
        {
          "internalType": "address",
          "name": "target",
          "type": "address"
        }
      ],
      "name": "rescue",
      "outputs": [],
      "stateMutability": "nonpayable",
      "type": "function"
    },
    {
      "inputs": [
        {
          "internalType": "uint64",
          "name": "depositID",
          "type": "uint64"
        },
        {
          "internalType": "uint64",
          "name": "maturationTimestamp",
          "type": "uint64"
        }
      ],
      "name": "rolloverDeposit",
      "outputs": [
        {
          "internalType": "uint256",
          "name": "newDepositID",
          "type": "uint256"
        },
        {
          "internalType": "uint256",
          "name": "interestAmount",
          "type": "uint256"
        }
      ],
      "stateMutability": "nonpayable",
      "type": "function"
    },
    {
      "inputs": [
        {
          "internalType": "string",
          "name": "newURI",
          "type": "string"
        }
      ],
      "name": "setDepositNFTBaseURI",
      "outputs": [],
      "stateMutability": "nonpayable",
      "type": "function"
    },
    {
      "inputs": [
        {
          "internalType": "string",
          "name": "newURI",
          "type": "string"
        }
      ],
      "name": "setDepositNFTContractURI",
      "outputs": [],
      "stateMutability": "nonpayable",
      "type": "function"
    },
    {
      "inputs": [
        {
          "internalType": "address",
          "name": "newValue",
          "type": "address"
        }
      ],
      "name": "setFeeModel",
      "outputs": [],
      "stateMutability": "nonpayable",
      "type": "function"
    },
    {
      "inputs": [
        {
          "internalType": "uint256",
          "name": "newValue",
          "type": "uint256"
        }
      ],
      "name": "setGlobalDepositCap",
      "outputs": [],
      "stateMutability": "nonpayable",
      "type": "function"
    },
    {
      "inputs": [
        {
          "internalType": "address",
          "name": "newValue",
          "type": "address"
        }
      ],
      "name": "setInterestModel",
      "outputs": [],
      "stateMutability": "nonpayable",
      "type": "function"
    },
    {
      "inputs": [
        {
          "internalType": "address",
          "name": "newValue",
          "type": "address"
        }
      ],
      "name": "setInterestOracle",
      "outputs": [],
      "stateMutability": "nonpayable",
      "type": "function"
    },
    {
      "inputs": [
        {
          "internalType": "address",
          "name": "newValue",
          "type": "address"
        }
      ],
      "name": "setMPHMinter",
      "outputs": [],
      "stateMutability": "nonpayable",
      "type": "function"
    },
    {
      "inputs": [
        {
          "internalType": "uint64",
          "name": "newValue",
          "type": "uint64"
        }
      ],
      "name": "setMaxDepositPeriod",
      "outputs": [],
      "stateMutability": "nonpayable",
      "type": "function"
    },
    {
      "inputs": [
        {
          "internalType": "uint256",
          "name": "newValue",
          "type": "uint256"
        }
      ],
      "name": "setMinDepositAmount",
      "outputs": [],
      "stateMutability": "nonpayable",
      "type": "function"
    },
    {
      "inputs": [
        {
          "internalType": "address",
          "name": "newValue",
          "type": "address"
        }
      ],
      "name": "setRewards",
      "outputs": [],
      "stateMutability": "nonpayable",
      "type": "function"
    },
    {
      "inputs": [
        {
          "internalType": "address",
          "name": "recipient",
          "type": "address"
        }
      ],
      "name": "skimSurplus",
      "outputs": [],
      "stateMutability": "nonpayable",
      "type": "function"
    },
    {
      "inputs": [
        {
          "internalType": "uint256",
          "name": "depositAmount",
          "type": "uint256"
        },
        {
          "internalType": "uint64",
          "name": "maturationTimestamp",
          "type": "uint64"
        },
        {
          "components": [
            {
              "internalType": "address",
              "name": "sender",
              "type": "address"
            },
            {
              "internalType": "address",
              "name": "sponsor",
              "type": "address"
            },
            {
              "internalType": "address",
              "name": "sponsorFeeToken",
              "type": "address"
            },
            {
              "internalType": "uint256",
              "name": "sponsorFeeAmount",
              "type": "uint256"
            },
            {
              "internalType": "uint256",
              "name": "nonce",
              "type": "uint256"
            },
            {
              "internalType": "uint256",
              "name": "deadline",
              "type": "uint256"
            },
            {
              "internalType": "uint256",
              "name": "v",
              "type": "uint256"
            },
            {
              "internalType": "bytes32",
              "name": "r",
              "type": "bytes32"
            },
            {
              "internalType": "bytes32",
              "name": "s",
              "type": "bytes32"
            }
          ],
          "internalType": "struct Sponsorable.Sponsorship",
          "name": "sponsorship",
          "type": "tuple"
        }
      ],
      "name": "sponsoredDeposit",
      "outputs": [
        {
          "internalType": "uint64",
          "name": "depositID",
          "type": "uint64"
        },
        {
          "internalType": "uint256",
          "name": "interestAmount",
          "type": "uint256"
        }
      ],
      "stateMutability": "nonpayable",
      "type": "function"
    },
    {
      "inputs": [
        {
          "internalType": "uint64",
          "name": "depositID",
          "type": "uint64"
        },
        {
          "internalType": "uint256",
          "name": "fundAmount",
          "type": "uint256"
        },
        {
          "components": [
            {
              "internalType": "address",
              "name": "sender",
              "type": "address"
            },
            {
              "internalType": "address",
              "name": "sponsor",
              "type": "address"
            },
            {
              "internalType": "address",
              "name": "sponsorFeeToken",
              "type": "address"
            },
            {
              "internalType": "uint256",
              "name": "sponsorFeeAmount",
              "type": "uint256"
            },
            {
              "internalType": "uint256",
              "name": "nonce",
              "type": "uint256"
            },
            {
              "internalType": "uint256",
              "name": "deadline",
              "type": "uint256"
            },
            {
              "internalType": "uint256",
              "name": "v",
              "type": "uint256"
            },
            {
              "internalType": "bytes32",
              "name": "r",
              "type": "bytes32"
            },
            {
              "internalType": "bytes32",
              "name": "s",
              "type": "bytes32"
            }
          ],
          "internalType": "struct Sponsorable.Sponsorship",
          "name": "sponsorship",
          "type": "tuple"
        }
      ],
      "name": "sponsoredFund",
      "outputs": [
        {
          "internalType": "uint64",
          "name": "fundingID",
          "type": "uint64"
        }
      ],
      "stateMutability": "nonpayable",
      "type": "function"
    },
    {
      "inputs": [
        {
          "internalType": "uint64",
          "name": "fundingID",
          "type": "uint64"
        },
        {
          "components": [
            {
              "internalType": "address",
              "name": "sender",
              "type": "address"
            },
            {
              "internalType": "address",
              "name": "sponsor",
              "type": "address"
            },
            {
              "internalType": "address",
              "name": "sponsorFeeToken",
              "type": "address"
            },
            {
              "internalType": "uint256",
              "name": "sponsorFeeAmount",
              "type": "uint256"
            },
            {
              "internalType": "uint256",
              "name": "nonce",
              "type": "uint256"
            },
            {
              "internalType": "uint256",
              "name": "deadline",
              "type": "uint256"
            },
            {
              "internalType": "uint256",
              "name": "v",
              "type": "uint256"
            },
            {
              "internalType": "bytes32",
              "name": "r",
              "type": "bytes32"
            },
            {
              "internalType": "bytes32",
              "name": "s",
              "type": "bytes32"
            }
          ],
          "internalType": "struct Sponsorable.Sponsorship",
          "name": "sponsorship",
          "type": "tuple"
        }
      ],
      "name": "sponsoredPayInterestToFunders",
      "outputs": [
        {
          "internalType": "uint256",
          "name": "interestAmount",
          "type": "uint256"
        }
      ],
      "stateMutability": "nonpayable",
      "type": "function"
    },
    {
      "inputs": [
        {
          "internalType": "uint64",
          "name": "depositID",
          "type": "uint64"
        },
        {
          "internalType": "uint64",
          "name": "maturationTimestamp",
          "type": "uint64"
        },
        {
          "components": [
            {
              "internalType": "address",
              "name": "sender",
              "type": "address"
            },
            {
              "internalType": "address",
              "name": "sponsor",
              "type": "address"
            },
            {
              "internalType": "address",
              "name": "sponsorFeeToken",
              "type": "address"
            },
            {
              "internalType": "uint256",
              "name": "sponsorFeeAmount",
              "type": "uint256"
            },
            {
              "internalType": "uint256",
              "name": "nonce",
              "type": "uint256"
            },
            {
              "internalType": "uint256",
              "name": "deadline",
              "type": "uint256"
            },
            {
              "internalType": "uint256",
              "name": "v",
              "type": "uint256"
            },
            {
              "internalType": "bytes32",
              "name": "r",
              "type": "bytes32"
            },
            {
              "internalType": "bytes32",
              "name": "s",
              "type": "bytes32"
            }
          ],
          "internalType": "struct Sponsorable.Sponsorship",
          "name": "sponsorship",
          "type": "tuple"
        }
      ],
      "name": "sponsoredRolloverDeposit",
      "outputs": [
        {
          "internalType": "uint256",
          "name": "newDepositID",
          "type": "uint256"
        },
        {
          "internalType": "uint256",
          "name": "interestAmount",
          "type": "uint256"
        }
      ],
      "stateMutability": "nonpayable",
      "type": "function"
    },
    {
      "inputs": [
        {
          "internalType": "uint64",
          "name": "depositID",
          "type": "uint64"
        },
        {
          "internalType": "uint256",
          "name": "depositAmount",
          "type": "uint256"
        },
        {
          "components": [
            {
              "internalType": "address",
              "name": "sender",
              "type": "address"
            },
            {
              "internalType": "address",
              "name": "sponsor",
              "type": "address"
            },
            {
              "internalType": "address",
              "name": "sponsorFeeToken",
              "type": "address"
            },
            {
              "internalType": "uint256",
              "name": "sponsorFeeAmount",
              "type": "uint256"
            },
            {
              "internalType": "uint256",
              "name": "nonce",
              "type": "uint256"
            },
            {
              "internalType": "uint256",
              "name": "deadline",
              "type": "uint256"
            },
            {
              "internalType": "uint256",
              "name": "v",
              "type": "uint256"
            },
            {
              "internalType": "bytes32",
              "name": "r",
              "type": "bytes32"
            },
            {
              "internalType": "bytes32",
              "name": "s",
              "type": "bytes32"
            }
          ],
          "internalType": "struct Sponsorable.Sponsorship",
          "name": "sponsorship",
          "type": "tuple"
        }
      ],
      "name": "sponsoredTopupDeposit",
      "outputs": [
        {
          "internalType": "uint256",
          "name": "interestAmount",
          "type": "uint256"
        }
      ],
      "stateMutability": "nonpayable",
      "type": "function"
    },
    {
      "inputs": [
        {
          "internalType": "uint64",
          "name": "depositID",
          "type": "uint64"
        },
        {
          "internalType": "uint256",
          "name": "virtualTokenAmount",
          "type": "uint256"
        },
        {
          "internalType": "bool",
          "name": "early",
          "type": "bool"
        },
        {
          "components": [
            {
              "internalType": "address",
              "name": "sender",
              "type": "address"
            },
            {
              "internalType": "address",
              "name": "sponsor",
              "type": "address"
            },
            {
              "internalType": "address",
              "name": "sponsorFeeToken",
              "type": "address"
            },
            {
              "internalType": "uint256",
              "name": "sponsorFeeAmount",
              "type": "uint256"
            },
            {
              "internalType": "uint256",
              "name": "nonce",
              "type": "uint256"
            },
            {
              "internalType": "uint256",
              "name": "deadline",
              "type": "uint256"
            },
            {
              "internalType": "uint256",
              "name": "v",
              "type": "uint256"
            },
            {
              "internalType": "bytes32",
              "name": "r",
              "type": "bytes32"
            },
            {
              "internalType": "bytes32",
              "name": "s",
              "type": "bytes32"
            }
          ],
          "internalType": "struct Sponsorable.Sponsorship",
          "name": "sponsorship",
          "type": "tuple"
        }
      ],
      "name": "sponsoredWithdraw",
      "outputs": [
        {
          "internalType": "uint256",
          "name": "withdrawnStablecoinAmount",
          "type": "uint256"
        }
      ],
      "stateMutability": "nonpayable",
      "type": "function"
    },
    {
      "inputs": [],
      "name": "stablecoin",
      "outputs": [
        {
          "internalType": "contract ERC20",
          "name": "",
          "type": "address"
        }
      ],
      "stateMutability": "view",
      "type": "function"
    },
    {
      "inputs": [],
      "name": "sumOfRecordedFundedPrincipalAmountDivRecordedIncomeIndex",
      "outputs": [
        {
          "internalType": "uint256",
          "name": "",
          "type": "uint256"
        }
      ],
      "stateMutability": "view",
      "type": "function"
    },
    {
      "inputs": [],
      "name": "surplus",
      "outputs": [
        {
          "internalType": "bool",
          "name": "isNegative",
          "type": "bool"
        },
        {
          "internalType": "uint256",
          "name": "surplusAmount",
          "type": "uint256"
        }
      ],
      "stateMutability": "nonpayable",
      "type": "function"
    },
    {
      "inputs": [
        {
          "internalType": "uint64",
          "name": "depositID",
          "type": "uint64"
        },
        {
          "internalType": "uint256",
          "name": "depositAmount",
          "type": "uint256"
        }
      ],
      "name": "topupDeposit",
      "outputs": [
        {
          "internalType": "uint256",
          "name": "interestAmount",
          "type": "uint256"
        }
      ],
      "stateMutability": "nonpayable",
      "type": "function"
    },
    {
      "inputs": [],
      "name": "totalDeposit",
      "outputs": [
        {
          "internalType": "uint256",
          "name": "",
          "type": "uint256"
        }
      ],
      "stateMutability": "view",
      "type": "function"
    },
    {
      "inputs": [],
      "name": "totalFeeOwed",
      "outputs": [
        {
          "internalType": "uint256",
          "name": "",
          "type": "uint256"
        }
      ],
      "stateMutability": "view",
      "type": "function"
    },
    {
      "inputs": [],
      "name": "totalFundedPrincipalAmount",
      "outputs": [
        {
          "internalType": "uint256",
          "name": "",
          "type": "uint256"
        }
      ],
      "stateMutability": "view",
      "type": "function"
    },
    {
      "inputs": [],
      "name": "totalInterestOwed",
      "outputs": [
        {
          "internalType": "uint256",
          "name": "",
          "type": "uint256"
        }
      ],
      "stateMutability": "view",
      "type": "function"
    },
    {
      "inputs": [
        {
          "internalType": "address",
          "name": "newOwner",
          "type": "address"
        }
      ],
      "name": "transferOwnership",
      "outputs": [],
      "stateMutability": "nonpayable",
      "type": "function"
    },
    {
      "inputs": [
        {
          "internalType": "uint64",
          "name": "depositID",
          "type": "uint64"
        },
        {
          "internalType": "uint256",
          "name": "virtualTokenAmount",
          "type": "uint256"
        },
        {
          "internalType": "bool",
          "name": "early",
          "type": "bool"
        }
      ],
      "name": "withdraw",
      "outputs": [
        {
          "internalType": "uint256",
          "name": "withdrawnStablecoinAmount",
          "type": "uint256"
        }
      ],
      "stateMutability": "nonpayable",
      "type": "function"
    }
  ],
  "transactionHash": "0xbb6ab94f1ab57dcf854977565ce600090e73b8f28a8a7c8d3fda5536dd92c341",
  "args": [],
  "solcInputHash": "7b47b3eb2840fca45ac4c23ccaef588c",
  "bytecode": "0x608060405234801561001057600080fd5b50615e4a80620000216000396000f3fe608060405234801561001057600080fd5b50600436106103425760003560e01c80638f91a1df116101b8578063d2402b1911610104578063ec38a862116100a2578063f28eae8c1161007c578063f28eae8c146107ee578063f2fde38b14610801578063f6153ccd14610814578063f8e1152a1461081e57610342565b8063ec38a862146107bf578063f154240a146107d2578063f20b1c76146107db57610342565b8063d6d75f51116100de578063d6d75f5114610771578063e46bcf9814610785578063e676e86314610798578063e9cbd822146107ab57610342565b8063d2402b191461074a578063d372bc4414610754578063d3f8d6671461076757610342565b8063a832806b11610171578063ae59a6b21161014b578063ae59a6b21461068e578063b4b1f22f146106fc578063bc135d7514610724578063c016cfd61461073757610342565b8063a832806b14610646578063ac165d7a1461065a578063ac9650d81461066e57610342565b80638f91a1df146105d357806393f52c85146105e65780639530d77e146105f957806397ee11441461060c5780639a372cc714610620578063a5a9504e1461063357610342565b806347857296116102925780636e3f5d52116102305780637f2b0e4e1161020a5780637f2b0e4e1461055657806386b8f9f1146105605780638da5cb5b146105b85780638f168c93146105c957610342565b80636e3f5d5214610509578063715018a61461051c5780637d552ea61461052457610342565b80635c53ba261161026c5780635c53ba26146104bb5780635dc05d7f146104ce578063678fd937146104e257806367e3c4d4146104f557610342565b806347857296146104825780634fdf5d1d14610495578063593b150d146104a857610342565b80631ee2e389116102ff5780632808bf53116102d95780632808bf53146104265780632a80cda3146104395780632fc082ff1461044c57806331c3b1e61461047857610342565b80631ee2e389146103d45780632125b984146103e7578063259fc70f146103fa57610342565b806301f2249b1461034757806304e5f21d1461035c57806308b856d714610379578063106cffe21461038257806313888565146103a25780631e364893146103c1575b600080fd5b61035a610355366004615378565b610831565b005b6103666101345481565b6040519081526020015b60405180910390f35b61012e54610366565b610366610390366004615378565b60fb6020526000908152604090205481565b6103aa610906565b604080519215158352602083019190915201610370565b6103666103cf36600461568b565b6109a2565b6103666103e23660046157b7565b6109e2565b61035a6103f53660046154a0565b610aa8565b6101305461040e906001600160401b031681565b6040516001600160401b039091168152602001610370565b610366610434366004615660565b610b3b565b61035a61044736600461558d565b610c67565b61013a54610460906001600160a01b031681565b6040516001600160a01b039091168152602001610370565b61036661013e5481565b610366610490366004615778565b610d0d565b61035a6104a33660046153b0565b610d51565b61035a6104b6366004615378565b610df0565b61040e6104c936600461568b565b610ec8565b61013c54610460906001600160a01b031681565b61035a6104f03660046156b4565b610efd565b61013b54610460906001600160a01b031681565b61035a610517366004615378565b610f85565b61035a611010565b6105376105323660046155de565b611084565b604080516001600160401b039093168352602083019190915201610370565b61036661012f5481565b61057361056e366004615646565b6110cb565b604051610370919060006080820190506001600160401b0380845116835280602085015116602084015250604083015160408301526060830151606083015292915050565b6065546001600160a01b0316610460565b6103666101335481565b61035a6105e1366004615646565b61117c565b61035a6105f436600461558d565b61124a565b610366610607366004615646565b61129b565b61013854610460906001600160a01b031681565b61036661062e366004615807565b61131d565b61035a610641366004615378565b6113d7565b61013d54610460906001600160a01b031681565b61013954610460906001600160a01b031681565b61068161067c3660046153e8565b61145d565b6040516103709190615928565b6106a161069c366004615646565b61157c565b6040516103709190600060c0820190508251825260208301516020830152604083015160408301526060830151606083015260808301516001600160401b0380821660808501528060a08601511660a0850152505092915050565b61070f61070a366004615864565b611667565b60408051928352602083019190915201610370565b6103666107323660046155bd565b611731565b61035a6107453660046154a0565b611866565b6103666101315481565b61035a61076236600461568b565b6118c3565b6103666101355481565b61013654610460906001600160a01b031681565b6103aa610793366004615646565b6119bf565b61040e6107a6366004615807565b611a5d565b61013754610460906001600160a01b031681565b61035a6107cd366004615378565b611b08565b61012d54610366565b61035a6107e9366004615378565b611bdf565b6105376107fc366004615609565b611d33565b61035a61080f366004615378565b611dfd565b6103666101325481565b61070f61082c36600461583b565b611ee8565b6065546001600160a01b031633146108645760405162461bcd60e51b815260040161085b90615a19565b60405180910390fd5b6001600160a01b0381163b61088b5760405162461bcd60e51b815260040161085b90615b0c565b61013d80546001600160a01b0319166001600160a01b0383161790556040516836b83426b4b73a32b960b91b81526009015b6040519081900381206001600160a01b03831682529033907f64b03eb8356730cffd396927eec0e9b1e0599498960e022df3dae35791c17cf5906020015b60405180910390a350565b60008061099a61013660009054906101000a90046001600160a01b03166001600160a01b03166321c261206040518163ffffffff1660e01b8152600401602060405180830381600087803b15801561095d57600080fd5b505af1158015610971573d6000803e3d6000fd5b505050506040513d601f19601f8201168201806040525081019061099591906155a5565b611f38565b915091509091565b6000600260015414156109c75760405162461bcd60e51b815260040161085b90615ad5565b60026001556109d7338484612066565b600180559392505050565b600060026001541415610a075760405162461bcd60e51b815260040161085b90615ad5565b6002600155610a1b368390038301836154fa565b604080516001600160401b03881660208201529081018690528415156060820152631ee2e38960e01b90608001604051602081830303815290604052610a62838383612086565b610a7e83600001518460200151856040015186606001516122e4565b610a98610a8e6020870187615378565b8989896000612320565b6001805598975050505050505050565b6065546001600160a01b03163314610ad25760405162461bcd60e51b815260040161085b90615a19565b61013b546040516355f804b360e01b81526001600160a01b03909116906355f804b390610b059085908590600401615989565b600060405180830381600087803b158015610b1f57600080fd5b505af1158015610b33573d6000803e3d6000fd5b505050505050565b600060026001541415610b605760405162461bcd60e51b815260040161085b90615ad5565b6002600155610b74368390038301836154fa565b604080516001600160401b0386166020820152632808bf5360e01b9101604051602081830303815290604052610bab838383612086565b610bc783600001518460200151856040015186606001516122e4565b610c598661013660009054906101000a90046001600160a01b03166001600160a01b03166321c261206040518163ffffffff1660e01b8152600401602060405180830381600087803b158015610c1c57600080fd5b505af1158015610c30573d6000803e3d6000fd5b505050506040513d601f19601f82011682018060405250810190610c5491906155a5565b612375565b600180559695505050505050565b6065546001600160a01b03163314610c915760405162461bcd60e51b815260040161085b90615a19565b60008111610cb15760405162461bcd60e51b815260040161085b90615a7b565b6101318190556040516f135a5b91195c1bdcda5d105b5bdd5b9d60821b81526010015b6040519081900381208282529033907ff37f82a82443ce2d0a9a47ee78cef1a46975e3f33782fcb8caf315626b73a3d4906020016108fb565b600060026001541415610d325760405162461bcd60e51b815260040161085b90615ad5565b6002600155610d45338585856000612320565b60018055949350505050565b610d5b8282612735565b6040516370a0823160e01b81523060048201528290610deb9083906001600160a01b038416906370a082319060240160206040518083038186803b158015610da257600080fd5b505afa158015610db6573d6000803e3d6000fd5b505050506040513d601f19601f82011682018060405250810190610dda91906155a5565b6001600160a01b0384169190612763565b505050565b6065546001600160a01b03163314610e1a5760405162461bcd60e51b815260040161085b90615a19565b600080610e25610906565b9150915081610deb5761013654604051632e1a7d4d60e01b8152600481018390526001600160a01b0390911690632e1a7d4d90602401602060405180830381600087803b158015610e7557600080fd5b505af1158015610e89573d6000803e3d6000fd5b505050506040513d601f19601f82011682018060405250810190610ead91906155a5565b61013754909150610deb906001600160a01b03168483612763565b600060026001541415610eed5760405162461bcd60e51b815260040161085b90615ad5565b60026001556109d73384846127c6565b600054610100900460ff1680610f16575060005460ff16155b610f325760405162461bcd60e51b815260040161085b906159cb565b600054610100900460ff16158015610f54576000805461ffff19166101011790555b610f668b8b8b8b8b8b8b8b8b8b6127eb565b8015610f78576000805461ff00191690555b5050505050505050505050565b6065546001600160a01b03163314610faf5760405162461bcd60e51b815260040161085b90615a19565b6001600160a01b0381163b610fd65760405162461bcd60e51b815260040161085b90615b0c565b61013980546001600160a01b0319166001600160a01b0383161790556040516c1a5b9d195c995cdd135bd9195b609a1b8152600d016108bd565b6065546001600160a01b0316331461103a5760405162461bcd60e51b815260040161085b90615a19565b6065546040516000916001600160a01b0316907f8be0079c531659141344cd1fd0a4f28419497f9722a3daafe3b4186f6b6457e0908390a3606580546001600160a01b0319169055565b600080600260015414156110aa5760405162461bcd60e51b815260040161085b90615ad5565b60026001556110bc3385856000612915565b60018055909590945092505050565b60408051608081018252600080825260208201819052918101829052606081019190915261012e6110fd600184615d45565b6001600160401b03168154811061112457634e487b7160e01b600052603260045260246000fd5b600091825260209182902060408051608081018252600390930290910180546001600160401b038082168552600160401b9091041693830193909352600183015490820152600290910154606082015290505b919050565b6065546001600160a01b031633146111a65760405162461bcd60e51b815260040161085b90615a19565b6000816001600160401b0316116111cf5760405162461bcd60e51b815260040161085b90615a7b565b610130805467ffffffffffffffff19166001600160401b0383161790556040516f13585e11195c1bdcda5d14195c9a5bd960821b81526010016040519081900381206001600160401b03831682529033907ff37f82a82443ce2d0a9a47ee78cef1a46975e3f33782fcb8caf315626b73a3d4906020016108fb565b6065546001600160a01b031633146112745760405162461bcd60e51b815260040161085b90615a19565b61013e8190556040516f0476c6f62616c4465706f7369744361760841b8152601001610cd4565b6000600260015414156112c05760405162461bcd60e51b815260040161085b90615ad5565b6002600155610136546040805163010e130960e51b815290516113139285926001600160a01b03909116916321c26120916004808201926020929091908290030181600087803b158015610c1c57600080fd5b6001805592915050565b6000600260015414156113425760405162461bcd60e51b815260040161085b90615ad5565b6002600155611356368390038301836154fa565b604080516001600160401b0387166020820152908101859052639a372cc760e01b90606001604051602081830303815290604052611395838383612086565b6113b183600001518460200151856040015186606001516122e4565b6113c86113c16020870187615378565b8888612066565b60018055979650505050505050565b6065546001600160a01b031633146114015760405162461bcd60e51b815260040161085b90615a19565b6001600160a01b0381163b6114285760405162461bcd60e51b815260040161085b90615b0c565b61013880546001600160a01b0319166001600160a01b03831617905560405167199959535bd9195b60c21b81526008016108bd565b6060816001600160401b0381111561148557634e487b7160e01b600052604160045260246000fd5b6040519080825280602002602001820160405280156114b857816020015b60608152602001906001900390816114a35790505b50905060005b8281101561157457611536308585848181106114ea57634e487b7160e01b600052603260045260246000fd5b90506020028101906114fc9190615b43565b8080601f01602080910402602001604051908101604052809392919081815260200183838082843760009201919091525061293c92505050565b82828151811061155657634e487b7160e01b600052603260045260246000fd5b6020026020010181905250808061156c90615d99565b9150506114be565b505b92915050565b6115c76040518060c001604052806000815260200160008152602001600081526020016000815260200160006001600160401b0316815260200160006001600160401b031681525090565b61012d6115d5600184615d45565b6001600160401b0316815481106115fc57634e487b7160e01b600052603260045260246000fd5b60009182526020918290206040805160c081018252600590930290910180548352600181015493830193909352600283015490820152600382015460608201526004909101546001600160401b038082166080840152600160401b9091041660a08201529050919050565b6000806002600154141561168d5760405162461bcd60e51b815260040161085b90615ad5565b60026001556116a1368490038401846154fa565b604080516001600160401b038881166020830152871681830152815180820383018152606090910190915263b4b1f22f60e01b906116e0838383612086565b6116fc83600001518460200151856040015186606001516122e4565b61171361170c6020880188615378565b8989612a27565b600180556001600160401b0391909116999098509650505050505050565b61013a54604080516385b3a93160e01b8152815160009384936001600160a01b03909116926385b3a931926004808301939282900301818787803b15801561177857600080fd5b505af115801561178c573d6000803e3d6000fd5b505050506040513d601f19601f820116820180604052508101906117b09190615473565b9150506000806117be610906565b6101395460405163684df1a760e11b8152600481018a905260248101899052604481018790528315156064820152608481018390529294509092506001600160a01b03169063d09be34e9060a40160206040518083038186803b15801561182457600080fd5b505afa158015611838573d6000803e3d6000fd5b505050506040513d601f19601f8201168201806040525081019061185c91906155a5565b9695505050505050565b6065546001600160a01b031633146118905760405162461bcd60e51b815260040161085b90615a19565b61013b5460405163938e3d7b60e01b81526001600160a01b039091169063938e3d7b90610b059085908590600401615989565b6065546001600160a01b031633146118ed5760405162461bcd60e51b815260040161085b90615a19565b60006118f883612a9e565b60028101546001820154825492935090918285106119285760405162461bcd60e51b815260040161085b90615a7b565b600061194661193f670de0b6b3a764000085615bcc565b8390612aea565b600286018790559050600061196561195e8887615d2e565b8390612b09565b90506119718183612aea565b61197b9085615bcc565b86600101819055508061013360008282546119969190615bcc565b925050819055508061013460008282546119b09190615d2e565b90915550505050505050505050565b600080611a548361013660009054906101000a90046001600160a01b03166001600160a01b03166321c261206040518163ffffffff1660e01b8152600401602060405180830381600087803b158015611a1757600080fd5b505af1158015611a2b573d6000803e3d6000fd5b505050506040513d601f19601f82011682018060405250810190611a4f91906155a5565b612b1e565b91509150915091565b600060026001541415611a825760405162461bcd60e51b815260040161085b90615ad5565b6002600155611a96368390038301836154fa565b604080516001600160401b038716602082015290810185905263e676e86360e01b90606001604051602081830303815290604052611ad5838383612086565b611af183600001518460200151856040015186606001516122e4565b6113c8611b016020870187615378565b88886127c6565b6065546001600160a01b03163314611b325760405162461bcd60e51b815260040161085b90615a19565b6001600160a01b0381163b611b595760405162461bcd60e51b815260040161085b90615b0c565b6101365460405163761c543160e11b81526001600160a01b0383811660048301529091169063ec38a86290602401600060405180830381600087803b158015611ba157600080fd5b505af1158015611bb5573d6000803e3d6000fd5b505050506040516108bd90726d6f6e65794d61726b65742e7265776172647360681b815260130190565b6065546001600160a01b03163314611c095760405162461bcd60e51b815260040161085b90615a19565b6001600160a01b0381163b611c305760405162461bcd60e51b815260040161085b90615b0c565b61013a80546001600160a01b0319166001600160a01b03838116918217909255610136546040805163d6d75f5160e01b81529051919093169263d6d75f51916004808301926020929190829003018186803b158015611c8e57600080fd5b505afa158015611ca2573d6000803e3d6000fd5b505050506040513d601f19601f82011682018060405250810190611cc69190615394565b6001600160a01b031614611d145760405162461bcd60e51b815260206004820152601560248201527444496e7465726573743a204241445f4f5241434c4560581b604482015260640161085b565b6040516d696e7465726573744f7261636c6560901b8152600e016108bd565b60008060026001541415611d595760405162461bcd60e51b815260040161085b90615ad5565b6002600155611d6d368490038401846154fa565b604051633ca3aba360e21b90611d9b90889088906020019182526001600160401b0316602082015260400190565b604051602081830303815290604052611db5838383612086565b611dd183600001518460200151856040015186606001516122e4565b611dea611de16020880188615378565b89896000612915565b6001805590999098509650505050505050565b6065546001600160a01b03163314611e275760405162461bcd60e51b815260040161085b90615a19565b6001600160a01b038116611e8c5760405162461bcd60e51b815260206004820152602660248201527f4f776e61626c653a206e6577206f776e657220697320746865207a65726f206160448201526564647265737360d01b606482015260840161085b565b6065546040516001600160a01b038084169216907f8be0079c531659141344cd1fd0a4f28419497f9722a3daafe3b4186f6b6457e090600090a3606580546001600160a01b0319166001600160a01b0392909216919091179055565b60008060026001541415611f0e5760405162461bcd60e51b815260040161085b90615ad5565b6002600155611f1e338585612a27565b600180556001600160401b03919091169590945092505050565b6000806000676765c793fa10079d601b1b61012f5485611f589190615d0f565b611f629190615be4565b61013554909150600081831115611f8057611f7d8284615d2e565b90505b61013654604051630579f07b60e41b8152600481018890526000916001600160a01b03169063579f07b09060240160206040518083038186803b158015611fc657600080fd5b505afa158015611fda573d6000803e3d6000fd5b505050506040513d601f19601f82011682018060405250810190611ffe91906155a5565b90506000826101345461013354610132546120199190615bcc565b6120239190615bcc565b61202d9190615bcc565b905080821061204b57600096506120448183615d2e565b955061205c565b600196506120598282615d2e565b95505b5050505050915091565b6000612073848484612bef565b905061207f84836130f5565b9392505050565b82516001600160a01b0316600090815260fb60205260409020546080840151146120eb5760405162461bcd60e51b815260206004820152601660248201527553706f6e736f7261626c653a204241445f4e4f4e434560501b604482015260640161085b565b8260a001514211156121375760405162461bcd60e51b815260206004820152601560248201527414dc1bdb9cdbdc98589b194e8814d251d7d1115051605a1b604482015260640161085b565b6020808401516040808601516060808801516080808a015160a0808c01518751469a81018b905230988101989098526001600160a01b039889169588019590955296909416908501529383019390935260c082015260e08101919091526001600160e01b031984166101008201526000906101200160408051601f19818403018152908290526121cb9185906020016158f9565b60408051601f198184030181529082905280516020918201207f19457468657265756d205369676e6564204d6573736167653a0a33320000000091830191909152603c820152605c016040516020818303038152906040528051906020012090506000612247828760c001518860e0015189610100015161315f565b90506001600160a01b0381161580159061226d575085516001600160a01b038281169116145b6122b05760405162461bcd60e51b815260206004820152601460248201527353706f6e736f7261626c653a204241445f53494760601b604482015260640161085b565b60808601516122c0906001615bcc565b95516001600160a01b0316600090815260fb60205260409020959095555050505050565b806122ee5761231a565b816123046001600160a01b0382168630856132ff565b6123186001600160a01b0382168584612763565b505b50505050565b60008060008060006123348a8a8a8a613337565b93509350935093506123678a6123498b612a9e565b60040154600160401b90046001600160401b0316868686868c61390a565b9a9950505050505050505050565b60008061238184613c80565b600181015461013c5460405163bd85b03960e01b81526001600160401b038816600482015292935090916000916001600160a01b03169063bd85b0399060240160206040518083038186803b1580156123d957600080fd5b505afa1580156123ed573d6000803e3d6000fd5b505050506040513d601f19601f8201168201806040525081019061241191906155a5565b90506000600160801b84600201548361242a9190615d0f565b6124349190615be4565b90508261244c676765c793fa10079d601b1b83615d0f565b6124569190615be4565b8661246c676765c793fa10079d601b1b84615d0f565b6124769190615be4565b61012f546124849190615bcc565b61248e9190615d2e565b61012f556001840186905580836124a58883615d0f565b6124af9190615be4565b6124b99190615d2e565b945050505060008211156126ea57610137546040805163313ce56760e01b815290516000926001600160a01b03169163313ce567916004808301926020929190829003018186803b15801561250d57600080fd5b505afa158015612521573d6000803e3d6000fd5b505050506040513d601f19601f820116820180604052508101906125459190615890565b6125539060ff16600a615c41565b90506125646402540be40082615be4565b8311156126995761013654604051632e1a7d4d60e01b8152600481018590526001600160a01b0390911690632e1a7d4d90602401602060405180830381600087803b1580156125b257600080fd5b505af11580156125c6573d6000803e3d6000fd5b505050506040513d601f19601f820116820180604052508101906125ea91906155a5565b925082156126945761013c5461013754612611916001600160a01b03918216911685613ccc565b61013c54610137546040516316f6849d60e31b81526001600160401b03881660048201526001600160a01b0391821660248201526044810186905291169063b7b424e890606401600060405180830381600087803b15801561267257600080fd5b505af1158015612686573d6000803e3d6000fd5b505050506126948584613db5565b6126e8565b60408051600080825260208201526001600160401b038716917f8f0a3cf13ab42f1ec8d1e3df9aa7f0b3219995863af01088afec4c3fef43f79c910160405180910390a2600092505050611576565b505b60408051838152600060208201526001600160401b038616917f8f0a3cf13ab42f1ec8d1e3df9aa7f0b3219995863af01088afec4c3fef43f79c910160405180910390a25092915050565b6065546001600160a01b0316331461275f5760405162461bcd60e51b815260040161085b90615aa7565b5050565b6040516001600160a01b038316602482015260448101829052610deb90849063a9059cbb60e01b906064015b60408051601f198184030181529190526020810180516001600160e01b03166001600160e01b031990931692909217909152613f6a565b6000806127d485858561403c565b90925090506127e385826130f5565b509392505050565b600054610100900460ff1680612804575060005460ff16155b6128205760405162461bcd60e51b815260040161085b906159cb565b600054610100900460ff16158015612842576000805461ffff19166101011790555b61284a614592565b612852614606565b61013680546001600160a01b03199081166001600160a01b038c811691909117909255610137805482168b8416179055610138805482168a84161790556101398054821689841617905561013a8054821688841617905561013b8054821687841617905561013c8054821686841617905561013d8054909116918416919091179055610130805467ffffffffffffffff19166001600160401b038d161790556101318a90558015610f78576000805461ff00191690555050505050505050505050565b60008061292386868661466d565b9092509050612933868685614b63565b94509492505050565b6060823b61299b5760405162461bcd60e51b815260206004820152602660248201527f416464726573733a2064656c65676174652063616c6c20746f206e6f6e2d636f6044820152651b9d1c9858dd60d21b606482015260840161085b565b600080846001600160a01b0316846040516129b691906158dd565b600060405180830381855af49150503d80600081146129f1576040519150601f19603f3d011682016040523d82523d6000602084013e6129f6565b606091505b5091509150612a1e8282604051806060016040528060278152602001615dee60279139614c04565b95945050505050565b6000806000612a3d868660001960006001612320565b9050612a4c8682866001612915565b60405191945092506001600160401b0380851691908716906001600160a01b038916907fa1784acef38e256a50f87b9b937145b9d8294956f1f444d097b9f34217e7291490600090a450935093915050565b600061012d612aae600184615d45565b6001600160401b031681548110612ad557634e487b7160e01b600052603260045260246000fd5b90600052602060002090600502019050919050565b600081612aff670de0b6b3a764000085615d0f565b61207f9190615be4565b6000670de0b6b3a7640000612aff8385615d0f565b6000806000612b2c85612a9e565b8054600182015491925090600090612b519061193f90670de0b6b3a764000090615bcc565b90506000612b5f8284615d2e565b90506000612b7a856002015484612b0990919063ffffffff16565b9050600085600301548985612b8f9190615d0f565b612b999190615be4565b9050600082612ba88587615bcc565b612bb29190615bcc565b9050808210612bd05760009850612bc98183615d2e565b9750612be1565b60019850612bde8282615d2e565b97505b505050505050509250929050565b600080612bfb84612a9e565b61013b546040516331a9108f60e11b81526001600160401b03871660048201529192506001600160a01b0387811692911690636352211e9060240160206040518083038186803b158015612c4e57600080fd5b505afa158015612c62573d6000803e3d6000fd5b505050506040513d601f19601f82011682018060405250810190612c869190615394565b6001600160a01b031614612cac5760405162461bcd60e51b815260040161085b90615aa7565b6004810154600090612cc89042906001600160401b0316615d2e565b9050612cd48482611731565b925060008311612d205760405162461bcd60e51b815260206004820152601760248201527611125b9d195c995cdd0e8810905117d2539511549154d5604a1b604482015260640161085b565b6101385460405163cf27fa5960e01b8152306004820152602481018590526000916001600160a01b03169063cf27fa599060440160206040518083038186803b158015612d6c57600080fd5b505afa158015612d80573d6000803e3d6000fd5b505050506040513d601f19601f82011682018060405250810190612da491906155a5565b9050612db08185615d2e565b60018401549094506000612dd7612dcf670de0b6b3a764000084615bcc565b865490612aea565b9050612de38688615bcc565b856000016000828254612df69190615bcc565b90915550612e0690508188615bcc565b612e108383615d0f565b612e2288670de0b6b3a7640000615d0f565b612e2c9190615bcc565b612e369190615be4565b6001860155612e458188615bcc565b6002860154612e549083615d0f565b612e6685670de0b6b3a7640000615d0f565b612e709190615bcc565b612e7a9190615be4565b6002860155610136546040805163010e130960e51b815290516000926001600160a01b0316916321c2612091600480830192602092919082900301818787803b158015612ec657600080fd5b505af1158015612eda573d6000803e3d6000fd5b505050506040513d601f19601f82011682018060405250810190612efe91906155a5565b612f13676765c793fa10079d601b1b8a615d0f565b612f1d9190615be4565b6003870154612f37676765c793fa10079d601b1b85615d0f565b612f419190615be4565b612f4b9190615bcc565b905080676765c793fa10079d601b1b612f64848b615bcc565b612f6e9190615d0f565b612f789190615be4565b8660030181905550876101326000828254612f939190615bcc565b909155505061013e54801580612fac5750806101325411155b612fe95760405162461bcd60e51b815260206004820152600e60248201526d044496e7465726573743a204341560941b604482015260640161085b565b50866101336000828254612ffd9190615bcc565b925050819055508361013460008282546130179190615bcc565b909155505060408051898152602081018990529081018590526001600160401b038a16906001600160a01b038c16907f3cfdfbe5c59b104993c5bb7a19605a181c358415effb11a8903c7168f3948f4f9060600160405180910390a361013d54604051634452179160e11b81526001600160401b038b16600482015260248101849052604481018a90526001600160a01b03909116906388a42f2290606401600060405180830381600087803b1580156130d057600080fd5b505af11580156130e4573d6000803e3d6000fd5b505050505050505050509392505050565b6101375461310e906001600160a01b03168330846132ff565b610136546101375461312d916001600160a01b03918216911683613ccc565b6101365460405163b6b55f2560e01b8152600481018390526001600160a01b039091169063b6b55f2590602401610b05565b60007f7fffffffffffffffffffffffffffffff5d576e7357a4501ddfe92f46681b20a08211156131dc5760405162461bcd60e51b815260206004820152602260248201527f45434453413a20696e76616c6964207369676e6174757265202773272076616c604482015261756560f01b606482015260840161085b565b8360ff16601b14806131f157508360ff16601c145b6132485760405162461bcd60e51b815260206004820152602260248201527f45434453413a20696e76616c6964207369676e6174757265202776272076616c604482015261756560f01b606482015260840161085b565b6040805160008082526020820180845288905260ff871692820192909252606081018590526080810184905260019060a0016020604051602081039080840390855afa15801561329c573d6000803e3d6000fd5b5050604051601f1901519150506001600160a01b038116612a1e5760405162461bcd60e51b815260206004820152601860248201527f45434453413a20696e76616c6964207369676e61747572650000000000000000604482015260640161085b565b6040516001600160a01b038085166024830152831660448201526064810182905261231a9085906323b872dd60e01b9060840161278f565b600080600080600086116133855760405162461bcd60e51b815260206004820152601560248201527411125b9d195c995cdd0e8810905117d05353d55395605a1b604482015260640161085b565b600061339088612a9e565b905085156133ed5760048101546001600160401b031642106133e85760405162461bcd60e51b815260206004820152601160248201527044496e7465726573743a204d415455524560781b604482015260640161085b565b613440565b60048101546001600160401b03164210156134405760405162461bcd60e51b815260206004820152601360248201527244496e7465726573743a20494d4d415455524560681b604482015260640161085b565b61013b546040516331a9108f60e11b81526001600160401b038a1660048201526001600160a01b038b8116921690636352211e9060240160206040518083038186803b15801561348f57600080fd5b505afa1580156134a3573d6000803e3d6000fd5b505050506040513d601f19601f820116820180604052508101906134c79190615394565b6001600160a01b0316146134ed5760405162461bcd60e51b815260040161085b90615aa7565b8054808811156134fb578097505b5060018101546002820154600061352461351d670de0b6b3a764000085615bcc565b8b90612aea565b905060008961353c57613537828c615d2e565b61353f565b60005b905061354b8183615bcc565b98505088156135fe57610138546040516376dffb8f60e01b81523060048201526001600160401b038d166024820152604481018a90526000916001600160a01b0316906376dffb8f9060640160206040518083038186803b1580156135af57600080fd5b505afa1580156135c3573d6000803e3d6000fd5b505050506040513d601f19601f820116820180604052508101906135e791906155a5565b97508790506135f6818a615d2e565b98505061360b565b6136088183612b09565b96505b80610132600082825461361e9190615d2e565b9091555061362e9050818b615d2e565b61013360008282546136409190615d2e565b9091555061365090508183612b09565b61013460008282546136629190615d2e565b90915550506004840154600160401b90046001600160401b031680156137c157600061368d82613c80565b600281015461013c5460405163bd85b03960e01b81526001600160401b0386166004820152929350600092600160801b92916001600160a01b03169063bd85b0399060240160206040518083038186803b1580156136ea57600080fd5b505afa1580156136fe573d6000803e3d6000fd5b505050506040513d601f19601f8201168201806040525081019061372291906155a5565b61372c9190615d0f565b6137369190615be4565b905060006137488f8960000154614c3d565b905060006137568688612b09565b8f6137619190615bcc565b905061376d8382615bcc565b82116137ac57808210156137825760006137a6565b8261378d8284615d2e565b856002015461379c9190615d0f565b6137a69190615be4565b60028501555b50506137b983828e614c9c565b909950975050505b60006137e86137d8670de0b6b3a764000087615bcc565b6137e18f612a9e565b5490612aea565b905061013d60009054906101000a90046001600160a01b03166001600160a01b03166388a42f228e8360006040518463ffffffff1660e01b815260040161384d939291906001600160401b039390931683526020830191909152604082015260600190565b600060405180830381600087803b15801561386757600080fd5b505af115801561387b573d6000803e3d6000fd5b50505050508a61388a8d612a9e565b805460009061389a908490615d2e565b925050819055508915158c6001600160401b03168e6001600160a01b03167fc915235dea7625ad78e3b510156c53e55606173e23b24de4bfdb0c7b9952065f8e8c6040516138f2929190918252602082015260400190565b60405180910390a45050505050945094509450949050565b600081156139ed57610136546000906001600160a01b0316632e1a7d4d6139318789615bcc565b6040518263ffffffff1660e01b815260040161394f91815260200190565b602060405180830381600087803b15801561396957600080fd5b505af115801561397d573d6000803e3d6000fd5b505050506040513d601f19601f820116820180604052508101906139a191906155a5565b90506139ad8587615bcc565b81106139c4576139bd8582615d2e565b95506139e4565b8581106139dc576139d58682615d2e565b94506139e4565b809550600094505b86915050613b24565b610136546000906001600160a01b0316632e1a7d4d86613a0d898b615bcc565b613a179190615bcc565b6040518263ffffffff1660e01b8152600401613a3591815260200190565b602060405180830381600087803b158015613a4f57600080fd5b505af1158015613a63573d6000803e3d6000fd5b505050506040513d601f19601f82011682018060405250810190613a8791906155a5565b879250905084613a978784615bcc565b613aa19190615bcc565b8110613ac35784613ab28883615d2e565b613abc9190615d2e565b9550613b04565b613acd8688615bcc565b8110613aef5785613ade8883615d2e565b613ae89190615d2e565b9450613b04565b868110613b0057613abc8782615d2e565b8091505b8115613b225761013754613b22906001600160a01b03168a84612763565b505b8415613bbd5761013854604080516338af3eed60e01b81529051613bbd926001600160a01b0316916338af3eed916004808301926020929190829003018186803b158015613b7157600080fd5b505afa158015613b85573d6000803e3d6000fd5b505050506040513d601f19601f82011682018060405250810190613ba99190615394565b610137546001600160a01b03169087612763565b8315613c755761013c5461013754613be2916001600160a01b03918216911686613ccc565b61013c54610137546040516316f6849d60e31b81526001600160401b038a1660048201526001600160a01b0391821660248201526044810187905291169063b7b424e890606401600060405180830381600087803b158015613c4357600080fd5b505af1158015613c57573d6000803e3d6000fd5b50505050828410613c7557613c7587613c708587615d2e565b613db5565b979650505050505050565b600061012e613c90600184615d45565b6001600160401b031681548110613cb757634e487b7160e01b600052603260045260246000fd5b90600052602060002090600302019050919050565b604051636eb1769f60e11b81523060048201526001600160a01b0383811660248301526000919085169063dd62ed3e9060440160206040518083038186803b158015613d1757600080fd5b505afa158015613d2b573d6000803e3d6000fd5b505050506040513d601f19601f82011682018060405250810190613d4f91906155a5565b1115613d85576040516001600160a01b038316602482015260006044820152613d8590849063095ea7b360e01b9060640161278f565b6040516001600160a01b038316602482015260448101829052610deb90849063095ea7b360e01b9060640161278f565b6000613dc083613c80565b8054909150600090613dda906001600160401b0316612a9e565b600401546001600160401b0316905042811015613eac578154600160401b90046001600160401b031681811015613ea6576000613e178242615d2e565b613e218385615d2e565b613e2b9087615d0f565b613e359190615be4565b61013d54604051634999011360e11b81526001600160401b0389166004820152602481018390529192506001600160a01b031690639332022690604401600060405180830381600087803b158015613e8c57600080fd5b505af1158015613ea0573d6000803e3d6000fd5b50505050505b50613f1b565b61013d54604051634999011360e11b81526001600160401b0386166004820152602481018590526001600160a01b0390911690639332022690604401600060405180830381600087803b158015613f0257600080fd5b505af1158015613f16573d6000803e3d6000fd5b505050505b6001600160401b03421115613f425760405162461bcd60e51b815260040161085b90615a4e565b50805467ffffffffffffffff60401b1916600160401b426001600160401b0316021790555050565b6000613fbf826040518060400160405280602081526020017f5361666545524332303a206c6f772d6c6576656c2063616c6c206661696c6564815250856001600160a01b03166150839092919063ffffffff16565b805190915015610deb5780806020019051810190613fdd9190615457565b610deb5760405162461bcd60e51b815260206004820152602a60248201527f5361666545524332303a204552433230206f7065726174696f6e20646964206e6044820152691bdd081cdd58d8d9595960b21b606482015260840161085b565b600080600061404a85612a9e565b9050600061013660009054906101000a90046001600160a01b03166001600160a01b03166321c261206040518163ffffffff1660e01b8152600401602060405180830381600087803b15801561409f57600080fd5b505af11580156140b3573d6000803e3d6000fd5b505050506040513d601f19601f820116820180604052508101906140d791906155a5565b90506000806140e583611f38565b915091508161412b5760405162461bcd60e51b815260206004820152601260248201527111125b9d195c995cdd0e881393d7d111509560721b604482015260640161085b565b6141358884612b1e565b90925090508161417c5760405162461bcd60e51b815260206004820152601260248201527111125b9d195c995cdd0e881393d7d111509560721b604482015260640161085b565b80871115614188578096505b6000614198898660000154614c3d565b6004860154600160401b90046001600160401b0316975090506000808815806141cb57506141c589613c80565b60020154155b15614344576001600160401b034211156141f75760405162461bcd60e51b815260040161085b90615a4e565b604080516080810182526001600160401b03808e16825242811660208301908152928201898152600160801b6060840190815261012e80546001810182556000829052945160039095027fbdaadd9f750d0166045bf387a364eadd28ba243e04512a47282aa5147a68e37f8101805497518616600160401b026001600160801b0319909816968616969096179690961790945590517fbdaadd9f750d0166045bf387a364eadd28ba243e04512a47282aa5147a68e380850155517fbdaadd9f750d0166045bf387a364eadd28ba243e04512a47282aa5147a68e381909301929092555411156142f85760405162461bcd60e51b815260040161085b90615a4e565b61012e5460048801805467ffffffffffffffff60401b1916600160401b6001600160401b038416021790559850836143308b85615d0f565b61433a9190615be4565b9150819050614469565b61434e8987612375565b50600061435a8a613c80565b6002015461013c5460405163bd85b03960e01b81526001600160401b038d166004820152919250600091600160801b9184916001600160a01b039091169063bd85b0399060240160206040518083038186803b1580156143b957600080fd5b505afa1580156143cd573d6000803e3d6000fd5b505050506040513d601f19601f820116820180604052508101906143f191906155a5565b6143fb9190615d0f565b6144059190615be4565b61440f9086615d2e565b90508461441c8288615d0f565b6144269190615be4565b9550858c111561443457859b505b8561443f8d83615d0f565b6144499190615be4565b93508161445a600160801b86615d0f565b6144649190615be4565b925050505b61013c54604051630ab714fb60e11b81526001600160a01b038e811660048301526001600160401b038c166024830152604482018490529091169063156e29f690606401600060405180830381600087803b1580156144c757600080fd5b505af11580156144db573d6000803e3d6000fd5b5050505085676765c793fa10079d601b1b836144f79190615d0f565b6145019190615be4565b61012f60008282546145139190615bcc565b9250508190555081610135600082825461452d9190615bcc565b9091555050604080518b8152602081018390526001600160401b038b16916001600160a01b038f16917e041ad888f8f0041ca5438a2a667df2a6a90adb28eaf8ec67152459058415ec910160405180910390a389975050505050505050935093915050565b600054610100900460ff16806145ab575060005460ff16155b6145c75760405162461bcd60e51b815260040161085b906159cb565b600054610100900460ff161580156145e9576000805461ffff19166101011790555b6145f161509a565b8015614603576000805461ff00191690555b50565b600054610100900460ff168061461f575060005460ff16155b61463b5760405162461bcd60e51b815260040161085b906159cb565b600054610100900460ff1615801561465d576000805461ffff19166101011790555b614665615109565b6145f1615173565b600080610131548410156146bb5760405162461bcd60e51b815260206004820152601560248201527411125b9d195c995cdd0e8810905117d05353d55395605a1b604482015260640161085b565b60006146d0426001600160401b038616615d2e565b610130549091506001600160401b03168111156147255760405162461bcd60e51b815260206004820152601360248201527244496e7465726573743a204241445f54494d4560681b604482015260640161085b565b61472f8582611731565b91506000821161477b5760405162461bcd60e51b815260206004820152601760248201527611125b9d195c995cdd0e8810905117d2539511549154d5604a1b604482015260640161085b565b6101385460405163cf27fa5960e01b8152306004820152602481018490526000916001600160a01b03169063cf27fa599060440160206040518083038186803b1580156147c757600080fd5b505afa1580156147db573d6000803e3d6000fd5b505050506040513d601f19601f820116820180604052508101906147ff91906155a5565b905061480b8184615d2e565b925061012d6040518060c0016040528085896148279190615bcc565b8152602001614836868a612aea565b8152602001614845848a612aea565b8152610136546040805163010e130960e51b815290516020938401936001600160a01b03909316926321c2612092600480820193918290030181600087803b15801561489057600080fd5b505af11580156148a4573d6000803e3d6000fd5b505050506040513d601f19601f820116820180604052508101906148c891906155a5565b81526001600160401b038089166020808401919091526000604093840181905285546001818101885596825290829020855160059092020190815590840151948101949094559082015160028401556060820151600384015560808201516004909301805460a0909301518216600160401b026001600160801b0319909316938216939093179190911790915561012d5411156149775760405162461bcd60e51b815260040161085b90615a4e565b61012d8054905093508561013260008282546149939190615bcc565b909155505061013e548015806149ac5750806101325411155b6149e95760405162461bcd60e51b815260206004820152600e60248201526d044496e7465726573743a204341560941b604482015260640161085b565b508261013360008282546149fd9190615bcc565b92505081905550806101346000828254614a179190615bcc565b909155505061013b546040516340c10f1960e01b81526001600160a01b0389811660048301526001600160401b0387166024830152909116906340c10f1990604401600060405180830381600087803b158015614a7357600080fd5b505af1158015614a87573d6000803e3d6000fd5b505060408051898152602081018790529081018490526001600160401b038881166060830152871692506001600160a01b038a1691507f61431584ca96282c2c6748c4dabd382bc28bde7792a7fa3c3668927bedf4446f9060800160405180910390a361013d54604051631a3ee6b160e01b81526001600160a01b0389811660048301526001600160401b038716602483015290911690631a3ee6b190604401600060405180830381600087803b158015614b4157600080fd5b505af1158015614b55573d6000803e3d6000fd5b505050505050935093915050565b80610deb5761013754614b81906001600160a01b03168430856132ff565b6101365461013754614ba0916001600160a01b03918216911684613ccc565b6101365460405163b6b55f2560e01b8152600481018490526001600160a01b039091169063b6b55f2590602401600060405180830381600087803b158015614be757600080fd5b505af1158015614bfb573d6000803e3d6000fd5b50505050505050565b60608315614c1357508161207f565b825115614c235782518084602001fd5b8160405162461bcd60e51b815260040161085b91906159b8565b600080614c4984612a9e565b9050600081600101549050612a1e670de0b6b3a7640000836002015483614c709190615bcc565b614c7a9190615bcc565b614c96614c8f670de0b6b3a764000085615bcc565b8790612aea565b90612b09565b6000806000614caa86613c80565b600281015461013c5460405163bd85b03960e01b81526001600160401b038a166004820152929350600092600160801b92916001600160a01b03169063bd85b0399060240160206040518083038186803b158015614d0757600080fd5b505afa158015614d1b573d6000803e3d6000fd5b505050506040513d601f19601f82011682018060405250810190614d3f91906155a5565b614d499190615d0f565b614d539190615be4565b9050600082600101549050600061013660009054906101000a90046001600160a01b03166001600160a01b03166321c261206040518163ffffffff1660e01b8152600401602060405180830381600087803b158015614db157600080fd5b505af1158015614dc5573d6000803e3d6000fd5b505050506040513d601f19601f82011682018060405250810190614de991906155a5565b9050600081614e03676765c793fa10079d601b1b86615d0f565b614e0d9190615be4565b9050600083614e27676765c793fa10079d601b1b8c615d0f565b614e319190615be4565b9050808261012f54614e439190615bcc565b10614e6b57808261012f54614e589190615bcc565b614e629190615d2e565b61012f55614e72565b600061012f555b60018601839055614e83858b615d2e565b6101356000828254614e959190615d2e565b909155508a905084614ea78583615d0f565b614eb19190615be4565b614ebb9190615d2e565b9750505050508415615035578154600090614ede906001600160401b0316612a9e565b6001810154600282015461013a54604080516385b3a93160e01b81528151959650939492936000936001600160a01b03909316926385b3a9319260048084019391929182900301818787803b158015614f3657600080fd5b505af1158015614f4a573d6000803e3d6000fd5b505050506040513d601f19601f82011682018060405250810190614f6e9190615473565b6004860154909250670de0b6b3a76400009150614f959042906001600160401b0316615d2e565b614fb883670de0b6b3a7640000898f614fae9190615d2e565b614c969190615d0f565b614fc29190615d0f565b614fcc9190615be4565b9650600061500f614fdd8486615bcc565b614c9685614ff388670de0b6b3a7640000615bcc565b614ffd9190615bcc565b898f6150099190615d2e565b90612aea565b90508088111561501f5780615021565b875b975061502d888a615bcc565b985050505050505b60408051858152602081018590526001600160401b038916917f8f0a3cf13ab42f1ec8d1e3df9aa7f0b3219995863af01088afec4c3fef43f79c910160405180910390a25050935093915050565b60606150928484600085615221565b949350505050565b600054610100900460ff16806150b3575060005460ff16155b6150cf5760405162461bcd60e51b815260040161085b906159cb565b600054610100900460ff161580156150f1576000805461ffff19166101011790555b600180558015614603576000805461ff001916905550565b600054610100900460ff1680615122575060005460ff16155b61513e5760405162461bcd60e51b815260040161085b906159cb565b600054610100900460ff161580156145f1576000805461ffff19166101011790558015614603576000805461ff001916905550565b600054610100900460ff168061518c575060005460ff16155b6151a85760405162461bcd60e51b815260040161085b906159cb565b600054610100900460ff161580156151ca576000805461ffff19166101011790555b606580546001600160a01b0319163390811790915560405181906000907f8be0079c531659141344cd1fd0a4f28419497f9722a3daafe3b4186f6b6457e0908290a3508015614603576000805461ff001916905550565b6060824710156152825760405162461bcd60e51b815260206004820152602660248201527f416464726573733a20696e73756666696369656e742062616c616e636520666f6044820152651c8818d85b1b60d21b606482015260840161085b565b843b6152d05760405162461bcd60e51b815260206004820152601d60248201527f416464726573733a2063616c6c20746f206e6f6e2d636f6e7472616374000000604482015260640161085b565b600080866001600160a01b031685876040516152ec91906158dd565b60006040518083038185875af1925050503d8060008114615329576040519150601f19603f3d011682016040523d82523d6000602084013e61532e565b606091505b5091509150613c75828286614c04565b803561117781615dca565b6000610120828403121561535b578081fd5b50919050565b80356001600160401b038116811461117757600080fd5b600060208284031215615389578081fd5b813561207f81615dca565b6000602082840312156153a5578081fd5b815161207f81615dca565b600080604083850312156153c2578081fd5b82356153cd81615dca565b915060208301356153dd81615dca565b809150509250929050565b600080602083850312156153fa578182fd5b82356001600160401b0380821115615410578384fd5b818501915085601f830112615423578384fd5b813581811115615431578485fd5b8660208260051b8501011115615445578485fd5b60209290920196919550909350505050565b600060208284031215615468578081fd5b815161207f81615ddf565b60008060408385031215615485578182fd5b825161549081615ddf565b6020939093015192949293505050565b600080602083850312156154b2578182fd5b82356001600160401b03808211156154c8578384fd5b818501915085601f8301126154db578384fd5b8135818111156154e9578485fd5b866020828501011115615445578485fd5b600061012080838503121561550d578182fd5b61551681615b8e565b90506155218361533e565b815261552f6020840161533e565b60208201526155406040840161533e565b6040820152606083013560608201526080830135608082015260a083013560a082015260c083013560c082015260e083013560e08201526101008084013581830152508091505092915050565b60006020828403121561559e578081fd5b5035919050565b6000602082840312156155b6578081fd5b5051919050565b600080604083850312156155cf578182fd5b50508035926020909101359150565b600080604083850312156155f0578182fd5b8235915061560060208401615361565b90509250929050565b6000806000610160848603121561561e578081fd5b8335925061562e60208501615361565b915061563d8560408601615349565b90509250925092565b600060208284031215615657578081fd5b61207f82615361565b6000806101408385031215615673578182fd5b61567c83615361565b91506156008460208501615349565b6000806040838503121561569d578182fd5b6156a683615361565b946020939093013593505050565b6000806000806000806000806000806101408b8d0312156156d3578788fd5b6156dc8b615361565b995060208b0135985060408b01356156f381615dca565b975060608b013561570381615dca565b965060808b013561571381615dca565b955060a08b013561572381615dca565b945060c08b013561573381615dca565b935060e08b013561574381615dca565b92506101008b013561575481615dca565b91506101208b013561576581615dca565b809150509295989b9194979a5092959850565b60008060006060848603121561578c578081fd5b61579584615361565b92506020840135915060408401356157ac81615ddf565b809150509250925092565b60008060008061018085870312156157cd578182fd5b6157d685615361565b93506020850135925060408501356157ed81615ddf565b91506157fc8660608701615349565b905092959194509250565b6000806000610160848603121561581c578081fd5b61582584615361565b92506020840135915061563d8560408601615349565b6000806040838503121561584d578182fd5b61585683615361565b915061560060208401615361565b60008060006101608486031215615879578081fd5b61588284615361565b925061562e60208501615361565b6000602082840312156158a1578081fd5b815160ff8116811461207f578182fd5b600081518084526158c9816020860160208601615d6d565b601f01601f19169290920160200192915050565b600082516158ef818460208701615d6d565b9190910192915050565b6000835161590b818460208801615d6d565b83519083019061591f818360208801615d6d565b01949350505050565b6000602080830181845280855180835260408601915060408160051b8701019250838701855b8281101561597c57603f1988860301845261596a8583516158b1565b9450928501929085019060010161594e565b5092979650505050505050565b60006020825282602083015282846040840137818301604090810191909152601f909201601f19160101919050565b60006020825261207f60208301846158b1565b6020808252602e908201527f496e697469616c697a61626c653a20636f6e747261637420697320616c72656160408201526d191e481a5b9a5d1a585b1a5e995960921b606082015260800190565b6020808252818101527f4f776e61626c653a2063616c6c6572206973206e6f7420746865206f776e6572604082015260600190565b60208082526013908201527244496e7465726573743a204f564552464c4f5760681b604082015260600190565b60208082526012908201527111125b9d195c995cdd0e8810905117d5905360721b604082015260600190565b6020808252601490820152732224b73a32b932b9ba1d102727aa2fa7aba722a960611b604082015260600190565b6020808252601f908201527f5265656e7472616e637947756172643a207265656e7472616e742063616c6c00604082015260600190565b60208082526017908201527f44496e7465726573743a204e4f545f434f4e5452414354000000000000000000604082015260600190565b6000808335601e19843603018112615b59578283fd5b8301803591506001600160401b03821115615b72578283fd5b602001915036819003821315615b8757600080fd5b9250929050565b604051601f8201601f191681016001600160401b0381118282101715615bc457634e487b7160e01b600052604160045260246000fd5b604052919050565b60008219821115615bdf57615bdf615db4565b500190565b600082615bff57634e487b7160e01b81526012600452602481fd5b500490565b80825b6001808611615c165750612933565b818704821115615c2857615c28615db4565b80861615615c3557918102915b9490941c938002615c07565b600061207f6000198484600082615c5a5750600161207f565b81615c675750600061207f565b8160018114615c7d5760028114615c8757615cb4565b600191505061207f565b60ff841115615c9857615c98615db4565b6001841b915084821115615cae57615cae615db4565b5061207f565b5060208310610133831016604e8410600b8410161715615ce7575081810a83811115615ce257615ce2615db4565b61207f565b615cf48484846001615c04565b808604821115615d0657615d06615db4565b02949350505050565b6000816000190483118215151615615d2957615d29615db4565b500290565b600082821015615d4057615d40615db4565b500390565b60006001600160401b0383811690831681811015615d6557615d65615db4565b039392505050565b60005b83811015615d88578181015183820152602001615d70565b8381111561231a5750506000910152565b6000600019821415615dad57615dad615db4565b5060010190565b634e487b7160e01b600052601160045260246000fd5b6001600160a01b038116811461460357600080fd5b801515811461460357600080fdfe416464726573733a206c6f772d6c6576656c2064656c65676174652063616c6c206661696c6564a2646970667358221220e35f12634ab835c3d6a6df7d185650991fb2ce6de6838bc7ba90873a6a2fcd5864736f6c63430008030033",
  "devdoc": {
    "author": "Zefram Lou",
    "details": "The contract to interact with for most actions",
    "kind": "dev",
    "methods": {
      "calculateInterestAmount(uint256,uint256)": {
        "params": {
          "depositAmount": "The deposit amount, in stablecoins",
          "depositPeriodInSeconds": "The deposit period, in seconds"
        },
        "returns": {
          "interestAmount": "The amount of fixed-rate interest (before fees)"
        }
      },
      "deposit(uint256,uint64)": {
        "details": "The ERC-721 NFT representing deposit ownership is given to msg.sender",
        "params": {
          "depositAmount": "The amount of deposit, in stablecoin",
          "maturationTimestamp": "The Unix timestamp of maturation, in seconds"
        },
        "returns": {
          "depositID": "The ID of the created deposit",
          "interestAmount": "The amount of fixed-rate interest"
        }
      },
      "depositsLength()": {
        "returns": {
          "_0": "deposits.length"
        }
      },
      "fund(uint64,uint256)": {
        "details": "The sender receives ERC-1155 multitokens (fundingMultitoken) representing their floating-rate bonds.",
        "params": {
          "depositID": "The deposit whose fixed-rate interest will be funded",
          "fundAmount": "The amount of fixed-rate interest to fund. If it exceeds surplusOfDeposit(depositID), it will be set to the surplus value instead.",
          "fundingID": "The ID of the fundingMultitoken the sender received"
        }
      },
      "fundingListLength()": {
        "returns": {
          "_0": "fundingList.length"
        }
      },
      "getDeposit(uint64)": {
        "params": {
          "depositID": "The ID of the deposit"
        },
        "returns": {
          "_0": "The deposit struct"
        }
      },
      "getFunding(uint64)": {
        "params": {
          "fundingID": "The ID of the floating-rate bond"
        },
        "returns": {
          "_0": "The Funding struct"
        }
      },
      "initialize(uint64,uint256,address,address,address,address,address,address,address,address)": {
        "params": {
          "_MaxDepositPeriod": "The maximum deposit period, in seconds",
          "_MinDepositAmount": "The minimum deposit amount, in stablecoins",
          "_depositNFT": "Address of the NFT representing ownership of deposits (owner must be set to this DInterest contract)",
          "_feeModel": "Address of the FeeModel contract that determines how fees are charged",
          "_fundingMultitoken": "Address of the ERC1155 multitoken representing ownership of fundings (this DInterest contract must have the minter-burner role)",
          "_interestModel": "Address of the InterestModel contract that determines how much interest to offer",
          "_interestOracle": "Address of the InterestOracle contract that provides the average interest rate",
          "_moneyMarket": "Address of MoneyMarket that's used for generating interest (owner must be set to this DInterest contract)",
          "_mphMinter": "Address of the contract for handling minting MPH to users",
          "_stablecoin": "Address of the stablecoin used to store funds"
        }
      },
      "multicall(bytes[])": {
        "details": "Receives and executes a batch of function calls on this contract."
      },
      "owner()": {
        "details": "Returns the address of the current owner."
      },
      "payInterestToFunders(uint64)": {
        "params": {
          "fundingID": "The ID of the floating-rate bond"
        },
        "returns": {
          "interestAmount": "The amount of interest distributed, in stablecoins"
        }
      },
      "rawSurplusOfDeposit(uint64)": {
        "params": {
          "depositID": "The ID of the deposit"
        },
        "returns": {
          "isNegative": "True if the surplus is negative, false otherwise",
          "surplusAmount": "The absolute value of the surplus, in stablecoins"
        }
      },
      "renounceOwnership()": {
        "details": "Leaves the contract without owner. It will not be possible to call `onlyOwner` functions anymore. Can only be called by the current owner. NOTE: Renouncing ownership will leave the contract without an owner, thereby removing any functionality that is only available to the owner."
      },
      "rescue(address,address)": {
        "details": "Need to implement {_authorizeRescue} to do access-control for this function.",
        "params": {
          "target": "The address to send the tokens to",
          "token": "The ERC20 token to rescue"
        }
      },
      "rolloverDeposit(uint64,uint64)": {
        "params": {
          "depositID": "The deposit to roll over",
          "maturationTimestamp": "The Unix timestamp of the new deposit, in seconds"
        },
        "returns": {
          "newDepositID": "The ID of the new deposit"
        }
      },
      "surplus()": {
        "returns": {
          "isNegative": "True if the surplus is negative, false otherwise",
          "surplusAmount": "The absolute value of the surplus, in stablecoins"
        }
      },
      "topupDeposit(uint64,uint256)": {
        "details": "The interest rate for the topped up funds will be the current oracle rate.",
        "params": {
          "depositAmount": "The amount to top up, in stablecoin",
          "depositID": "The deposit to top up"
        },
        "returns": {
          "interestAmount": "The amount of interest that will be earned by the topped up funds at maturation"
        }
      },
      "transferOwnership(address)": {
        "details": "Transfers ownership of the contract to a new account (`newOwner`). Can only be called by the current owner."
      },
      "withdraw(uint64,uint256,bool)": {
        "details": "Virtual tokens behave like zero coupon bonds, after maturation withdrawing 1 virtual token yields 1 stablecoin. The total supply is given by deposit.virtualTokenTotalSupply",
        "params": {
          "depositID": "the deposit to withdraw from",
          "early": "True if intend to withdraw before maturation, false otherwise",
          "virtualTokenAmount": "the amount of virtual tokens to withdraw"
        },
        "returns": {
          "withdrawnStablecoinAmount": "the amount of stablecoins withdrawn"
        }
      }
    },
    "stateVariables": {
      "EXTRA_PRECISION": {
        "details": "used for sumOfRecordedFundedPrincipalAmountDivRecordedIncomeIndex"
      },
      "FUNDER_PAYOUT_THRESHOLD_DIVISOR": {
        "details": "Specifies the threshold for paying out funder interests"
      },
      "GlobalDepositCap": {
        "details": "The maximum amount of deposit in the pool. Set to 0 to disable the cap."
      },
      "MaxDepositPeriod": {
        "details": "Maximum deposit period, in seconds"
      },
      "MinDepositAmount": {
        "details": "Minimum deposit amount, in stablecoins"
      },
      "ULTRA_PRECISION": {
        "details": "used for funding.principalPerToken"
      }
    },
    "title": "DeLorean Interest -- It's coming back from the future!",
    "version": 1
  },
  "userdoc": {
    "kind": "user",
    "methods": {
      "calculateInterestAmount(uint256,uint256)": {
        "notice": "Computes the amount of fixed-rate interest (before fees) that will be given to a deposit of `depositAmount` stablecoins that matures in `depositPeriodInSeconds` seconds."
      },
      "deposit(uint256,uint64)": {
        "notice": "Create a deposit using `depositAmount` stablecoin that matures at timestamp `maturationTimestamp`."
      },
      "depositsLength()": {
        "notice": "Returns the total number of deposits."
      },
      "fund(uint64,uint256)": {
        "notice": "Funds the fixed-rate interest of the deposit with ID `depositID`. In exchange, the funder receives the future floating-rate interest generated by the portion of the deposit whose interest was funded."
      },
      "fundingListLength()": {
        "notice": "Returns the total number of floating-rate bonds."
      },
      "getDeposit(uint64)": {
        "notice": "Returns the Deposit struct associated with the deposit with ID `depositID`."
      },
      "getFunding(uint64)": {
        "notice": "Returns the Funding struct associated with the floating-rate bond with ID `fundingID`."
      },
      "payInterestToFunders(uint64)": {
        "notice": "Distributes the floating-rate interest accrued by a deposit to the floating-rate bond holders."
      },
      "rawSurplusOfDeposit(uint64)": {
        "notice": "Computes the raw surplus of a deposit, which is the current value of the deposit in the money market minus the amount owed (deposit + interest + fee). The deposit's funding status is not considered here, meaning even if a deposit's fixed-rate interest is fully funded, it likely will still have a non-zero surplus."
      },
      "rescue(address,address)": {
        "notice": "Rescues ERC20 tokens sent to the contract in error."
      },
      "rolloverDeposit(uint64,uint64)": {
        "notice": "Withdraw all funds from deposit with ID `depositID` and use them to create a new deposit that matures at time `maturationTimestamp`"
      },
      "setFeeModel(address)": {
        "notice": "Param setters (only callable by the owner)"
      },
      "sponsoredDeposit(uint256,uint64,(address,address,address,uint256,uint256,uint256,uint256,bytes32,bytes32))": {
        "notice": "Sponsored action functions"
      },
      "surplus()": {
        "notice": "Computes the pool's overall surplus, which is the value of its holdings in the `moneyMarket` minus the amount owed to depositors, funders, and the fee beneficiary."
      },
      "topupDeposit(uint64,uint256)": {
        "notice": "Add `depositAmount` stablecoin to the existing deposit with ID `depositID`."
      },
      "withdraw(uint64,uint256,bool)": {
        "notice": "Withdraws funds from the deposit with ID `depositID`."
      }
    },
    "notice": "The main pool contract for fixed-rate deposits",
    "version": 1
  },
  "storageLayout": {
    "storage": [
      {
        "astId": 612,
        "contract": "contracts/DInterest.sol:DInterest",
        "label": "_initialized",
        "offset": 0,
        "slot": "0",
        "type": "t_bool"
      },
      {
        "astId": 615,
        "contract": "contracts/DInterest.sol:DInterest",
        "label": "_initializing",
        "offset": 1,
        "slot": "0",
        "type": "t_bool"
      },
      {
        "astId": 666,
        "contract": "contracts/DInterest.sol:DInterest",
        "label": "_status",
        "offset": 0,
        "slot": "1",
        "type": "t_uint256"
      },
      {
        "astId": 709,
        "contract": "contracts/DInterest.sol:DInterest",
        "label": "__gap",
        "offset": 0,
        "slot": "2",
        "type": "t_array(t_uint256)49_storage"
      },
      {
        "astId": 3064,
        "contract": "contracts/DInterest.sol:DInterest",
        "label": "__gap",
        "offset": 0,
        "slot": "51",
        "type": "t_array(t_uint256)50_storage"
      },
      {
        "astId": 406,
        "contract": "contracts/DInterest.sol:DInterest",
        "label": "_owner",
        "offset": 0,
        "slot": "101",
        "type": "t_address"
      },
      {
        "astId": 525,
        "contract": "contracts/DInterest.sol:DInterest",
        "label": "__gap",
        "offset": 0,
        "slot": "102",
        "type": "t_array(t_uint256)49_storage"
      },
      {
        "astId": 13847,
        "contract": "contracts/DInterest.sol:DInterest",
        "label": "__gap",
        "offset": 0,
        "slot": "151",
        "type": "t_array(t_uint256)50_storage"
      },
      {
        "astId": 3204,
        "contract": "contracts/DInterest.sol:DInterest",
        "label": "__gap",
        "offset": 0,
        "slot": "201",
        "type": "t_array(t_uint256)50_storage"
      },
      {
        "astId": 14029,
        "contract": "contracts/DInterest.sol:DInterest",
        "label": "accountNonce",
        "offset": 0,
        "slot": "251",
        "type": "t_mapping(t_address,t_uint256)"
      },
      {
        "astId": 14217,
        "contract": "contracts/DInterest.sol:DInterest",
        "label": "__gap",
        "offset": 0,
        "slot": "252",
        "type": "t_array(t_uint256)49_storage"
      },
      {
        "astId": 5985,
        "contract": "contracts/DInterest.sol:DInterest",
        "label": "deposits",
        "offset": 0,
        "slot": "301",
        "type": "t_array(t_struct(Deposit)5981_storage)dyn_storage"
      },
      {
        "astId": 5998,
        "contract": "contracts/DInterest.sol:DInterest",
        "label": "fundingList",
        "offset": 0,
        "slot": "302",
        "type": "t_array(t_struct(Funding)5994_storage)dyn_storage"
      },
      {
        "astId": 6000,
        "contract": "contracts/DInterest.sol:DInterest",
        "label": "sumOfRecordedFundedPrincipalAmountDivRecordedIncomeIndex",
        "offset": 0,
        "slot": "303",
        "type": "t_uint256"
      },
      {
        "astId": 6003,
        "contract": "contracts/DInterest.sol:DInterest",
        "label": "MaxDepositPeriod",
        "offset": 0,
        "slot": "304",
        "type": "t_uint64"
      },
      {
        "astId": 6006,
        "contract": "contracts/DInterest.sol:DInterest",
        "label": "MinDepositAmount",
        "offset": 0,
        "slot": "305",
        "type": "t_uint256"
      },
      {
        "astId": 6008,
        "contract": "contracts/DInterest.sol:DInterest",
        "label": "totalDeposit",
        "offset": 0,
        "slot": "306",
        "type": "t_uint256"
      },
      {
        "astId": 6010,
        "contract": "contracts/DInterest.sol:DInterest",
        "label": "totalInterestOwed",
        "offset": 0,
        "slot": "307",
        "type": "t_uint256"
      },
      {
        "astId": 6012,
        "contract": "contracts/DInterest.sol:DInterest",
        "label": "totalFeeOwed",
        "offset": 0,
        "slot": "308",
        "type": "t_uint256"
      },
      {
        "astId": 6014,
        "contract": "contracts/DInterest.sol:DInterest",
        "label": "totalFundedPrincipalAmount",
        "offset": 0,
        "slot": "309",
        "type": "t_uint256"
      },
      {
        "astId": 6017,
        "contract": "contracts/DInterest.sol:DInterest",
        "label": "moneyMarket",
        "offset": 0,
        "slot": "310",
        "type": "t_contract(MoneyMarket)17235"
      },
      {
        "astId": 6020,
        "contract": "contracts/DInterest.sol:DInterest",
        "label": "stablecoin",
        "offset": 0,
        "slot": "311",
        "type": "t_contract(ERC20)4992"
      },
      {
        "astId": 6023,
        "contract": "contracts/DInterest.sol:DInterest",
        "label": "feeModel",
        "offset": 0,
        "slot": "312",
        "type": "t_contract(IFeeModel)16303"
      },
      {
        "astId": 6026,
        "contract": "contracts/DInterest.sol:DInterest",
        "label": "interestModel",
        "offset": 0,
        "slot": "313",
        "type": "t_contract(IInterestModel)16955"
      },
      {
        "astId": 6029,
        "contract": "contracts/DInterest.sol:DInterest",
        "label": "interestOracle",
        "offset": 0,
        "slot": "314",
        "type": "t_contract(IInterestOracle)16937"
      },
      {
        "astId": 6032,
        "contract": "contracts/DInterest.sol:DInterest",
        "label": "depositNFT",
        "offset": 0,
        "slot": "315",
        "type": "t_contract(NFT)23077"
      },
      {
        "astId": 6035,
        "contract": "contracts/DInterest.sol:DInterest",
        "label": "fundingMultitoken",
        "offset": 0,
        "slot": "316",
        "type": "t_contract(FundingMultitoken)22949"
      },
      {
        "astId": 6038,
        "contract": "contracts/DInterest.sol:DInterest",
        "label": "mphMinter",
        "offset": 0,
        "slot": "317",
        "type": "t_contract(MPHMinter)20753"
      },
      {
        "astId": 6041,
        "contract": "contracts/DInterest.sol:DInterest",
        "label": "GlobalDepositCap",
        "offset": 0,
        "slot": "318",
        "type": "t_uint256"
      },
      {
        "astId": 9166,
        "contract": "contracts/DInterest.sol:DInterest",
        "label": "__gap",
        "offset": 0,
        "slot": "319",
        "type": "t_array(t_uint256)32_storage"
      }
    ],
    "types": {
      "t_address": {
        "encoding": "inplace",
        "label": "address",
        "numberOfBytes": "20"
      },
      "t_array(t_struct(Deposit)5981_storage)dyn_storage": {
        "base": "t_struct(Deposit)5981_storage",
        "encoding": "dynamic_array",
        "label": "struct DInterest.Deposit[]",
        "numberOfBytes": "32"
      },
      "t_array(t_struct(Funding)5994_storage)dyn_storage": {
        "base": "t_struct(Funding)5994_storage",
        "encoding": "dynamic_array",
        "label": "struct DInterest.Funding[]",
        "numberOfBytes": "32"
      },
      "t_array(t_uint256)32_storage": {
        "base": "t_uint256",
        "encoding": "inplace",
        "label": "uint256[32]",
        "numberOfBytes": "1024"
      },
      "t_array(t_uint256)49_storage": {
        "base": "t_uint256",
        "encoding": "inplace",
        "label": "uint256[49]",
        "numberOfBytes": "1568"
      },
      "t_array(t_uint256)50_storage": {
        "base": "t_uint256",
        "encoding": "inplace",
        "label": "uint256[50]",
        "numberOfBytes": "1600"
      },
      "t_bool": {
        "encoding": "inplace",
        "label": "bool",
        "numberOfBytes": "1"
      },
      "t_contract(ERC20)4992": {
        "encoding": "inplace",
        "label": "contract ERC20",
        "numberOfBytes": "20"
      },
      "t_contract(FundingMultitoken)22949": {
        "encoding": "inplace",
        "label": "contract FundingMultitoken",
        "numberOfBytes": "20"
      },
      "t_contract(IFeeModel)16303": {
        "encoding": "inplace",
        "label": "contract IFeeModel",
        "numberOfBytes": "20"
      },
      "t_contract(IInterestModel)16955": {
        "encoding": "inplace",
        "label": "contract IInterestModel",
        "numberOfBytes": "20"
      },
      "t_contract(IInterestOracle)16937": {
        "encoding": "inplace",
        "label": "contract IInterestOracle",
        "numberOfBytes": "20"
      },
      "t_contract(MPHMinter)20753": {
        "encoding": "inplace",
        "label": "contract MPHMinter",
        "numberOfBytes": "20"
      },
      "t_contract(MoneyMarket)17235": {
        "encoding": "inplace",
        "label": "contract MoneyMarket",
        "numberOfBytes": "20"
      },
      "t_contract(NFT)23077": {
        "encoding": "inplace",
        "label": "contract NFT",
        "numberOfBytes": "20"
      },
      "t_mapping(t_address,t_uint256)": {
        "encoding": "mapping",
        "key": "t_address",
        "label": "mapping(address => uint256)",
        "numberOfBytes": "32",
        "value": "t_uint256"
      },
      "t_struct(Deposit)5981_storage": {
        "encoding": "inplace",
        "label": "struct DInterest.Deposit",
        "members": [
          {
            "astId": 5970,
            "contract": "contracts/DInterest.sol:DInterest",
            "label": "virtualTokenTotalSupply",
            "offset": 0,
            "slot": "0",
            "type": "t_uint256"
          },
          {
            "astId": 5972,
            "contract": "contracts/DInterest.sol:DInterest",
            "label": "interestRate",
            "offset": 0,
            "slot": "1",
            "type": "t_uint256"
          },
          {
            "astId": 5974,
            "contract": "contracts/DInterest.sol:DInterest",
            "label": "feeRate",
            "offset": 0,
            "slot": "2",
            "type": "t_uint256"
          },
          {
            "astId": 5976,
            "contract": "contracts/DInterest.sol:DInterest",
            "label": "averageRecordedIncomeIndex",
            "offset": 0,
            "slot": "3",
            "type": "t_uint256"
          },
          {
            "astId": 5978,
            "contract": "contracts/DInterest.sol:DInterest",
            "label": "maturationTimestamp",
            "offset": 0,
            "slot": "4",
            "type": "t_uint64"
          },
          {
            "astId": 5980,
            "contract": "contracts/DInterest.sol:DInterest",
            "label": "fundingID",
            "offset": 8,
            "slot": "4",
            "type": "t_uint64"
          }
        ],
        "numberOfBytes": "160"
      },
      "t_struct(Funding)5994_storage": {
        "encoding": "inplace",
        "label": "struct DInterest.Funding",
        "members": [
          {
            "astId": 5987,
            "contract": "contracts/DInterest.sol:DInterest",
            "label": "depositID",
            "offset": 0,
            "slot": "0",
            "type": "t_uint64"
          },
          {
            "astId": 5989,
            "contract": "contracts/DInterest.sol:DInterest",
            "label": "lastInterestPayoutTimestamp",
            "offset": 8,
            "slot": "0",
            "type": "t_uint64"
          },
          {
            "astId": 5991,
            "contract": "contracts/DInterest.sol:DInterest",
            "label": "recordedMoneyMarketIncomeIndex",
            "offset": 0,
            "slot": "1",
            "type": "t_uint256"
          },
          {
            "astId": 5993,
            "contract": "contracts/DInterest.sol:DInterest",
            "label": "principalPerToken",
            "offset": 0,
            "slot": "2",
            "type": "t_uint256"
          }
        ],
        "numberOfBytes": "96"
      },
      "t_uint256": {
        "encoding": "inplace",
        "label": "uint256",
        "numberOfBytes": "32"
      },
      "t_uint64": {
        "encoding": "inplace",
        "label": "uint64",
        "numberOfBytes": "8"
      }
    }
  }
}