{
  "address": "0xfAd3a3C7897187c38a402fb3dB9352f0913133BE",
  "abi": [
    {
      "anonymous": false,
      "inputs": [
        {
          "indexed": true,
          "internalType": "address",
          "name": "sender",
          "type": "address"
        },
        {
          "indexed": true,
          "internalType": "uint256",
          "name": "depositID",
          "type": "uint256"
        },
        {
          "indexed": false,
          "internalType": "uint256",
          "name": "depositAmount",
          "type": "uint256"
        },
        {
          "indexed": false,
          "internalType": "uint256",
          "name": "interestAmount",
          "type": "uint256"
        },
        {
          "indexed": false,
          "internalType": "uint256",
          "name": "feeAmount",
          "type": "uint256"
        },
        {
          "indexed": false,
          "internalType": "uint64",
          "name": "maturationTimestamp",
          "type": "uint64"
        }
      ],
      "name": "EDeposit",
      "type": "event"
    },
    {
      "anonymous": false,
      "inputs": [
        {
          "indexed": true,
          "internalType": "address",
          "name": "sender",
          "type": "address"
        },
        {
          "indexed": true,
          "internalType": "uint64",
          "name": "fundingID",
          "type": "uint64"
        },
        {
          "indexed": false,
          "internalType": "uint256",
          "name": "fundAmount",
          "type": "uint256"
        },
        {
          "indexed": false,
          "internalType": "uint256",
          "name": "tokenAmount",
          "type": "uint256"
        }
      ],
      "name": "EFund",
      "type": "event"
    },
    {
      "anonymous": false,
      "inputs": [
        {
          "indexed": true,
          "internalType": "uint256",
          "name": "fundingID",
          "type": "uint256"
        },
        {
          "indexed": false,
          "internalType": "uint256",
          "name": "interestAmount",
          "type": "uint256"
        },
        {
          "indexed": false,
          "internalType": "uint256",
          "name": "refundAmount",
          "type": "uint256"
        }
      ],
      "name": "EPayFundingInterest",
      "type": "event"
    },
    {
      "anonymous": false,
      "inputs": [
        {
          "indexed": true,
          "internalType": "address",
          "name": "sender",
          "type": "address"
        },
        {
          "indexed": true,
          "internalType": "uint64",
          "name": "depositID",
          "type": "uint64"
        },
        {
          "indexed": true,
          "internalType": "uint64",
          "name": "newDepositID",
          "type": "uint64"
        }
      ],
      "name": "ERolloverDeposit",
      "type": "event"
    },
    {
      "anonymous": false,
      "inputs": [
        {
          "indexed": true,
          "internalType": "address",
          "name": "sender",
          "type": "address"
        },
        {
          "indexed": true,
          "internalType": "string",
          "name": "paramName",
          "type": "string"
        },
        {
          "indexed": false,
          "internalType": "address",
          "name": "newValue",
          "type": "address"
        }
      ],
      "name": "ESetParamAddress",
      "type": "event"
    },
    {
      "anonymous": false,
      "inputs": [
        {
          "indexed": true,
          "internalType": "address",
          "name": "sender",
          "type": "address"
        },
        {
          "indexed": true,
          "internalType": "string",
          "name": "paramName",
          "type": "string"
        },
        {
          "indexed": false,
          "internalType": "uint256",
          "name": "newValue",
          "type": "uint256"
        }
      ],
      "name": "ESetParamUint",
      "type": "event"
    },
    {
      "anonymous": false,
      "inputs": [
        {
          "indexed": true,
          "internalType": "address",
          "name": "sender",
          "type": "address"
        },
        {
          "indexed": true,
          "internalType": "uint64",
          "name": "depositID",
          "type": "uint64"
        },
        {
          "indexed": false,
          "internalType": "uint256",
          "name": "depositAmount",
          "type": "uint256"
        },
        {
          "indexed": false,
          "internalType": "uint256",
          "name": "interestAmount",
          "type": "uint256"
        },
        {
          "indexed": false,
          "internalType": "uint256",
          "name": "feeAmount",
          "type": "uint256"
        }
      ],
      "name": "ETopupDeposit",
      "type": "event"
    },
    {
      "anonymous": false,
      "inputs": [
        {
          "indexed": true,
          "internalType": "address",
          "name": "sender",
          "type": "address"
        },
        {
          "indexed": true,
          "internalType": "uint256",
          "name": "depositID",
          "type": "uint256"
        },
        {
          "indexed": true,
          "internalType": "bool",
          "name": "early",
          "type": "bool"
        },
        {
          "indexed": false,
          "internalType": "uint256",
          "name": "virtualTokenAmount",
          "type": "uint256"
        },
        {
          "indexed": false,
          "internalType": "uint256",
          "name": "feeAmount",
          "type": "uint256"
        }
      ],
      "name": "EWithdraw",
      "type": "event"
    },
    {
      "anonymous": false,
      "inputs": [
        {
          "indexed": true,
          "internalType": "address",
          "name": "previousOwner",
          "type": "address"
        },
        {
          "indexed": true,
          "internalType": "address",
          "name": "newOwner",
          "type": "address"
        }
      ],
      "name": "OwnershipTransferred",
      "type": "event"
    },
    {
      "inputs": [],
      "name": "MaxDepositPeriod",
      "outputs": [
        {
          "internalType": "uint64",
          "name": "",
          "type": "uint64"
        }
      ],
      "stateMutability": "view",
      "type": "function"
    },
    {
      "inputs": [],
      "name": "MinDepositAmount",
      "outputs": [
        {
          "internalType": "uint256",
          "name": "",
          "type": "uint256"
        }
      ],
      "stateMutability": "view",
      "type": "function"
    },
    {
      "inputs": [
        {
          "internalType": "address",
          "name": "",
          "type": "address"
        }
      ],
      "name": "accountNonce",
      "outputs": [
        {
          "internalType": "uint256",
          "name": "",
          "type": "uint256"
        }
      ],
      "stateMutability": "view",
      "type": "function"
    },
    {
      "inputs": [
        {
          "internalType": "uint256",
          "name": "depositAmount",
          "type": "uint256"
        },
        {
          "internalType": "uint256",
          "name": "depositPeriodInSeconds",
          "type": "uint256"
        }
      ],
      "name": "calculateInterestAmount",
      "outputs": [
        {
          "internalType": "uint256",
          "name": "interestAmount",
          "type": "uint256"
        }
      ],
      "stateMutability": "nonpayable",
      "type": "function"
    },
    {
      "inputs": [
        {
          "internalType": "uint64",
          "name": "depositID",
          "type": "uint64"
        },
        {
          "internalType": "uint256",
          "name": "newFeeRate",
          "type": "uint256"
        }
      ],
      "name": "decreaseFeeForDeposit",
      "outputs": [],
      "stateMutability": "nonpayable",
      "type": "function"
    },
    {
      "inputs": [
        {
          "internalType": "uint256",
          "name": "depositAmount",
          "type": "uint256"
        },
        {
          "internalType": "uint64",
          "name": "maturationTimestamp",
          "type": "uint64"
        }
      ],
      "name": "deposit",
      "outputs": [
        {
          "internalType": "uint64",
          "name": "depositID",
          "type": "uint64"
        },
        {
          "internalType": "uint256",
          "name": "interestAmount",
          "type": "uint256"
        }
      ],
      "stateMutability": "nonpayable",
      "type": "function"
    },
    {
      "inputs": [],
      "name": "depositNFT",
      "outputs": [
        {
          "internalType": "contract NFT",
          "name": "",
          "type": "address"
        }
      ],
      "stateMutability": "view",
      "type": "function"
    },
    {
      "inputs": [],
      "name": "depositsLength",
      "outputs": [
        {
          "internalType": "uint256",
          "name": "",
          "type": "uint256"
        }
      ],
      "stateMutability": "view",
      "type": "function"
    },
    {
      "inputs": [],
      "name": "feeModel",
      "outputs": [
        {
          "internalType": "contract IFeeModel",
          "name": "",
          "type": "address"
        }
      ],
      "stateMutability": "view",
      "type": "function"
    },
    {
      "inputs": [
        {
          "internalType": "uint64",
          "name": "depositID",
          "type": "uint64"
        },
        {
          "internalType": "uint256",
          "name": "fundAmount",
          "type": "uint256"
        }
      ],
      "name": "fund",
      "outputs": [
        {
          "internalType": "uint64",
          "name": "fundingID",
          "type": "uint64"
        }
      ],
      "stateMutability": "nonpayable",
      "type": "function"
    },
    {
      "inputs": [],
      "name": "fundingListLength",
      "outputs": [
        {
          "internalType": "uint256",
          "name": "",
          "type": "uint256"
        }
      ],
      "stateMutability": "view",
      "type": "function"
    },
    {
      "inputs": [],
      "name": "fundingMultitoken",
      "outputs": [
        {
          "internalType": "contract FundingMultitoken",
          "name": "",
          "type": "address"
        }
      ],
      "stateMutability": "view",
      "type": "function"
    },
    {
      "inputs": [
        {
          "internalType": "uint64",
          "name": "depositID",
          "type": "uint64"
        }
      ],
      "name": "getDeposit",
      "outputs": [
        {
          "components": [
            {
              "internalType": "uint256",
              "name": "virtualTokenTotalSupply",
              "type": "uint256"
            },
            {
              "internalType": "uint256",
              "name": "interestRate",
              "type": "uint256"
            },
            {
              "internalType": "uint256",
              "name": "feeRate",
              "type": "uint256"
            },
            {
              "internalType": "uint256",
              "name": "averageRecordedIncomeIndex",
              "type": "uint256"
            },
            {
              "internalType": "uint64",
              "name": "maturationTimestamp",
              "type": "uint64"
            },
            {
              "internalType": "uint64",
              "name": "fundingID",
              "type": "uint64"
            }
          ],
          "internalType": "struct DInterest.Deposit",
          "name": "",
          "type": "tuple"
        }
      ],
      "stateMutability": "view",
      "type": "function"
    },
    {
      "inputs": [
        {
          "internalType": "uint64",
          "name": "fundingID",
          "type": "uint64"
        }
      ],
      "name": "getFunding",
      "outputs": [
        {
          "components": [
            {
              "internalType": "uint64",
              "name": "depositID",
              "type": "uint64"
            },
            {
              "internalType": "uint64",
              "name": "lastInterestPayoutTimestamp",
              "type": "uint64"
            },
            {
              "internalType": "uint256",
              "name": "recordedMoneyMarketIncomeIndex",
              "type": "uint256"
            },
            {
              "internalType": "uint256",
              "name": "principalPerToken",
              "type": "uint256"
            }
          ],
          "internalType": "struct DInterest.Funding",
          "name": "",
          "type": "tuple"
        }
      ],
      "stateMutability": "view",
      "type": "function"
    },
    {
      "inputs": [
        {
          "internalType": "uint64",
          "name": "_MaxDepositPeriod",
          "type": "uint64"
        },
        {
          "internalType": "uint256",
          "name": "_MinDepositAmount",
          "type": "uint256"
        },
        {
          "internalType": "address",
          "name": "_moneyMarket",
          "type": "address"
        },
        {
          "internalType": "address",
          "name": "_stablecoin",
          "type": "address"
        },
        {
          "internalType": "address",
          "name": "_feeModel",
          "type": "address"
        },
        {
          "internalType": "address",
          "name": "_interestModel",
          "type": "address"
        },
        {
          "internalType": "address",
          "name": "_interestOracle",
          "type": "address"
        },
        {
          "internalType": "address",
          "name": "_depositNFT",
          "type": "address"
        },
        {
          "internalType": "address",
          "name": "_fundingMultitoken",
          "type": "address"
        },
        {
          "internalType": "address",
          "name": "_mphMinter",
          "type": "address"
        }
      ],
      "name": "initialize",
      "outputs": [],
      "stateMutability": "nonpayable",
      "type": "function"
    },
    {
      "inputs": [],
      "name": "interestModel",
      "outputs": [
        {
          "internalType": "contract IInterestModel",
          "name": "",
          "type": "address"
        }
      ],
      "stateMutability": "view",
      "type": "function"
    },
    {
      "inputs": [],
      "name": "interestOracle",
      "outputs": [
        {
          "internalType": "contract IInterestOracle",
          "name": "",
          "type": "address"
        }
      ],
      "stateMutability": "view",
      "type": "function"
    },
    {
      "inputs": [],
      "name": "moneyMarket",
      "outputs": [
        {
          "internalType": "contract MoneyMarket",
          "name": "",
          "type": "address"
        }
      ],
      "stateMutability": "view",
      "type": "function"
    },
    {
      "inputs": [],
      "name": "mphMinter",
      "outputs": [
        {
          "internalType": "contract MPHMinter",
          "name": "",
          "type": "address"
        }
      ],
      "stateMutability": "view",
      "type": "function"
    },
    {
      "inputs": [
        {
          "internalType": "bytes[]",
          "name": "data",
          "type": "bytes[]"
        }
      ],
      "name": "multicall",
      "outputs": [
        {
          "internalType": "bytes[]",
          "name": "results",
          "type": "bytes[]"
        }
      ],
      "stateMutability": "nonpayable",
      "type": "function"
    },
    {
      "inputs": [],
      "name": "owner",
      "outputs": [
        {
          "internalType": "address",
          "name": "",
          "type": "address"
        }
      ],
      "stateMutability": "view",
      "type": "function"
    },
    {
      "inputs": [
        {
          "internalType": "uint64",
          "name": "fundingID",
          "type": "uint64"
        }
      ],
      "name": "payInterestToFunders",
      "outputs": [
        {
          "internalType": "uint256",
          "name": "interestAmount",
          "type": "uint256"
        }
      ],
      "stateMutability": "nonpayable",
      "type": "function"
    },
    {
      "inputs": [
        {
          "internalType": "uint64",
          "name": "depositID",
          "type": "uint64"
        }
      ],
      "name": "rawSurplusOfDeposit",
      "outputs": [
        {
          "internalType": "bool",
          "name": "isNegative",
          "type": "bool"
        },
        {
          "internalType": "uint256",
          "name": "surplusAmount",
          "type": "uint256"
        }
      ],
      "stateMutability": "nonpayable",
      "type": "function"
    },
    {
      "inputs": [],
      "name": "renounceOwnership",
      "outputs": [],
      "stateMutability": "nonpayable",
      "type": "function"
    },
    {
      "inputs": [
        {
          "internalType": "address",
          "name": "token",
          "type": "address"
        },
        {
          "internalType": "address",
          "name": "target",
          "type": "address"
        }
      ],
      "name": "rescue",
      "outputs": [],
      "stateMutability": "nonpayable",
      "type": "function"
    },
    {
      "inputs": [
        {
          "internalType": "uint64",
          "name": "depositID",
          "type": "uint64"
        },
        {
          "internalType": "uint64",
          "name": "maturationTimestamp",
          "type": "uint64"
        }
      ],
      "name": "rolloverDeposit",
      "outputs": [
        {
          "internalType": "uint256",
          "name": "newDepositID",
          "type": "uint256"
        },
        {
          "internalType": "uint256",
          "name": "interestAmount",
          "type": "uint256"
        }
      ],
      "stateMutability": "nonpayable",
      "type": "function"
    },
    {
      "inputs": [
        {
          "internalType": "string",
          "name": "newURI",
          "type": "string"
        }
      ],
      "name": "setDepositNFTBaseURI",
      "outputs": [],
      "stateMutability": "nonpayable",
      "type": "function"
    },
    {
      "inputs": [
        {
          "internalType": "string",
          "name": "newURI",
          "type": "string"
        }
      ],
      "name": "setDepositNFTContractURI",
      "outputs": [],
      "stateMutability": "nonpayable",
      "type": "function"
    },
    {
      "inputs": [
        {
          "internalType": "address",
          "name": "newValue",
          "type": "address"
        }
      ],
      "name": "setFeeModel",
      "outputs": [],
      "stateMutability": "nonpayable",
      "type": "function"
    },
    {
      "inputs": [
        {
          "internalType": "address",
          "name": "newValue",
          "type": "address"
        }
      ],
      "name": "setInterestModel",
      "outputs": [],
      "stateMutability": "nonpayable",
      "type": "function"
    },
    {
      "inputs": [
        {
          "internalType": "address",
          "name": "newValue",
          "type": "address"
        }
      ],
      "name": "setInterestOracle",
      "outputs": [],
      "stateMutability": "nonpayable",
      "type": "function"
    },
    {
      "inputs": [
        {
          "internalType": "address",
          "name": "newValue",
          "type": "address"
        }
      ],
      "name": "setMPHMinter",
      "outputs": [],
      "stateMutability": "nonpayable",
      "type": "function"
    },
    {
      "inputs": [
        {
          "internalType": "uint64",
          "name": "newValue",
          "type": "uint64"
        }
      ],
      "name": "setMaxDepositPeriod",
      "outputs": [],
      "stateMutability": "nonpayable",
      "type": "function"
    },
    {
      "inputs": [
        {
          "internalType": "uint256",
          "name": "newValue",
          "type": "uint256"
        }
      ],
      "name": "setMinDepositAmount",
      "outputs": [],
      "stateMutability": "nonpayable",
      "type": "function"
    },
    {
      "inputs": [
        {
          "internalType": "address",
          "name": "newValue",
          "type": "address"
        }
      ],
      "name": "setRewards",
      "outputs": [],
      "stateMutability": "nonpayable",
      "type": "function"
    },
    {
      "inputs": [
        {
          "internalType": "address",
          "name": "recipient",
          "type": "address"
        }
      ],
      "name": "skimSurplus",
      "outputs": [],
      "stateMutability": "nonpayable",
      "type": "function"
    },
    {
      "inputs": [
        {
          "internalType": "uint256",
          "name": "depositAmount",
          "type": "uint256"
        },
        {
          "internalType": "uint64",
          "name": "maturationTimestamp",
          "type": "uint64"
        },
        {
          "components": [
            {
              "internalType": "address",
              "name": "sender",
              "type": "address"
            },
            {
              "internalType": "address",
              "name": "sponsor",
              "type": "address"
            },
            {
              "internalType": "address",
              "name": "sponsorFeeToken",
              "type": "address"
            },
            {
              "internalType": "uint256",
              "name": "sponsorFeeAmount",
              "type": "uint256"
            },
            {
              "internalType": "uint256",
              "name": "nonce",
              "type": "uint256"
            },
            {
              "internalType": "uint256",
              "name": "deadline",
              "type": "uint256"
            },
            {
              "internalType": "uint256",
              "name": "v",
              "type": "uint256"
            },
            {
              "internalType": "bytes32",
              "name": "r",
              "type": "bytes32"
            },
            {
              "internalType": "bytes32",
              "name": "s",
              "type": "bytes32"
            }
          ],
          "internalType": "struct Sponsorable.Sponsorship",
          "name": "sponsorship",
          "type": "tuple"
        }
      ],
      "name": "sponsoredDeposit",
      "outputs": [
        {
          "internalType": "uint64",
          "name": "depositID",
          "type": "uint64"
        },
        {
          "internalType": "uint256",
          "name": "interestAmount",
          "type": "uint256"
        }
      ],
      "stateMutability": "nonpayable",
      "type": "function"
    },
    {
      "inputs": [
        {
          "internalType": "uint64",
          "name": "depositID",
          "type": "uint64"
        },
        {
          "internalType": "uint256",
          "name": "fundAmount",
          "type": "uint256"
        },
        {
          "components": [
            {
              "internalType": "address",
              "name": "sender",
              "type": "address"
            },
            {
              "internalType": "address",
              "name": "sponsor",
              "type": "address"
            },
            {
              "internalType": "address",
              "name": "sponsorFeeToken",
              "type": "address"
            },
            {
              "internalType": "uint256",
              "name": "sponsorFeeAmount",
              "type": "uint256"
            },
            {
              "internalType": "uint256",
              "name": "nonce",
              "type": "uint256"
            },
            {
              "internalType": "uint256",
              "name": "deadline",
              "type": "uint256"
            },
            {
              "internalType": "uint256",
              "name": "v",
              "type": "uint256"
            },
            {
              "internalType": "bytes32",
              "name": "r",
              "type": "bytes32"
            },
            {
              "internalType": "bytes32",
              "name": "s",
              "type": "bytes32"
            }
          ],
          "internalType": "struct Sponsorable.Sponsorship",
          "name": "sponsorship",
          "type": "tuple"
        }
      ],
      "name": "sponsoredFund",
      "outputs": [
        {
          "internalType": "uint64",
          "name": "fundingID",
          "type": "uint64"
        }
      ],
      "stateMutability": "nonpayable",
      "type": "function"
    },
    {
      "inputs": [
        {
          "internalType": "uint64",
          "name": "fundingID",
          "type": "uint64"
        },
        {
          "components": [
            {
              "internalType": "address",
              "name": "sender",
              "type": "address"
            },
            {
              "internalType": "address",
              "name": "sponsor",
              "type": "address"
            },
            {
              "internalType": "address",
              "name": "sponsorFeeToken",
              "type": "address"
            },
            {
              "internalType": "uint256",
              "name": "sponsorFeeAmount",
              "type": "uint256"
            },
            {
              "internalType": "uint256",
              "name": "nonce",
              "type": "uint256"
            },
            {
              "internalType": "uint256",
              "name": "deadline",
              "type": "uint256"
            },
            {
              "internalType": "uint256",
              "name": "v",
              "type": "uint256"
            },
            {
              "internalType": "bytes32",
              "name": "r",
              "type": "bytes32"
            },
            {
              "internalType": "bytes32",
              "name": "s",
              "type": "bytes32"
            }
          ],
          "internalType": "struct Sponsorable.Sponsorship",
          "name": "sponsorship",
          "type": "tuple"
        }
      ],
      "name": "sponsoredPayInterestToFunders",
      "outputs": [
        {
          "internalType": "uint256",
          "name": "interestAmount",
          "type": "uint256"
        }
      ],
      "stateMutability": "nonpayable",
      "type": "function"
    },
    {
      "inputs": [
        {
          "internalType": "uint64",
          "name": "depositID",
          "type": "uint64"
        },
        {
          "internalType": "uint64",
          "name": "maturationTimestamp",
          "type": "uint64"
        },
        {
          "components": [
            {
              "internalType": "address",
              "name": "sender",
              "type": "address"
            },
            {
              "internalType": "address",
              "name": "sponsor",
              "type": "address"
            },
            {
              "internalType": "address",
              "name": "sponsorFeeToken",
              "type": "address"
            },
            {
              "internalType": "uint256",
              "name": "sponsorFeeAmount",
              "type": "uint256"
            },
            {
              "internalType": "uint256",
              "name": "nonce",
              "type": "uint256"
            },
            {
              "internalType": "uint256",
              "name": "deadline",
              "type": "uint256"
            },
            {
              "internalType": "uint256",
              "name": "v",
              "type": "uint256"
            },
            {
              "internalType": "bytes32",
              "name": "r",
              "type": "bytes32"
            },
            {
              "internalType": "bytes32",
              "name": "s",
              "type": "bytes32"
            }
          ],
          "internalType": "struct Sponsorable.Sponsorship",
          "name": "sponsorship",
          "type": "tuple"
        }
      ],
      "name": "sponsoredRolloverDeposit",
      "outputs": [
        {
          "internalType": "uint256",
          "name": "newDepositID",
          "type": "uint256"
        },
        {
          "internalType": "uint256",
          "name": "interestAmount",
          "type": "uint256"
        }
      ],
      "stateMutability": "nonpayable",
      "type": "function"
    },
    {
      "inputs": [
        {
          "internalType": "uint64",
          "name": "depositID",
          "type": "uint64"
        },
        {
          "internalType": "uint256",
          "name": "depositAmount",
          "type": "uint256"
        },
        {
          "components": [
            {
              "internalType": "address",
              "name": "sender",
              "type": "address"
            },
            {
              "internalType": "address",
              "name": "sponsor",
              "type": "address"
            },
            {
              "internalType": "address",
              "name": "sponsorFeeToken",
              "type": "address"
            },
            {
              "internalType": "uint256",
              "name": "sponsorFeeAmount",
              "type": "uint256"
            },
            {
              "internalType": "uint256",
              "name": "nonce",
              "type": "uint256"
            },
            {
              "internalType": "uint256",
              "name": "deadline",
              "type": "uint256"
            },
            {
              "internalType": "uint256",
              "name": "v",
              "type": "uint256"
            },
            {
              "internalType": "bytes32",
              "name": "r",
              "type": "bytes32"
            },
            {
              "internalType": "bytes32",
              "name": "s",
              "type": "bytes32"
            }
          ],
          "internalType": "struct Sponsorable.Sponsorship",
          "name": "sponsorship",
          "type": "tuple"
        }
      ],
      "name": "sponsoredTopupDeposit",
      "outputs": [
        {
          "internalType": "uint256",
          "name": "interestAmount",
          "type": "uint256"
        }
      ],
      "stateMutability": "nonpayable",
      "type": "function"
    },
    {
      "inputs": [
        {
          "internalType": "uint64",
          "name": "depositID",
          "type": "uint64"
        },
        {
          "internalType": "uint256",
          "name": "virtualTokenAmount",
          "type": "uint256"
        },
        {
          "internalType": "bool",
          "name": "early",
          "type": "bool"
        },
        {
          "components": [
            {
              "internalType": "address",
              "name": "sender",
              "type": "address"
            },
            {
              "internalType": "address",
              "name": "sponsor",
              "type": "address"
            },
            {
              "internalType": "address",
              "name": "sponsorFeeToken",
              "type": "address"
            },
            {
              "internalType": "uint256",
              "name": "sponsorFeeAmount",
              "type": "uint256"
            },
            {
              "internalType": "uint256",
              "name": "nonce",
              "type": "uint256"
            },
            {
              "internalType": "uint256",
              "name": "deadline",
              "type": "uint256"
            },
            {
              "internalType": "uint256",
              "name": "v",
              "type": "uint256"
            },
            {
              "internalType": "bytes32",
              "name": "r",
              "type": "bytes32"
            },
            {
              "internalType": "bytes32",
              "name": "s",
              "type": "bytes32"
            }
          ],
          "internalType": "struct Sponsorable.Sponsorship",
          "name": "sponsorship",
          "type": "tuple"
        }
      ],
      "name": "sponsoredWithdraw",
      "outputs": [
        {
          "internalType": "uint256",
          "name": "withdrawnStablecoinAmount",
          "type": "uint256"
        }
      ],
      "stateMutability": "nonpayable",
      "type": "function"
    },
    {
      "inputs": [],
      "name": "stablecoin",
      "outputs": [
        {
          "internalType": "contract ERC20",
          "name": "",
          "type": "address"
        }
      ],
      "stateMutability": "view",
      "type": "function"
    },
    {
      "inputs": [],
      "name": "sumOfRecordedFundedPrincipalAmountDivRecordedIncomeIndex",
      "outputs": [
        {
          "internalType": "uint256",
          "name": "",
          "type": "uint256"
        }
      ],
      "stateMutability": "view",
      "type": "function"
    },
    {
      "inputs": [],
      "name": "surplus",
      "outputs": [
        {
          "internalType": "bool",
          "name": "isNegative",
          "type": "bool"
        },
        {
          "internalType": "uint256",
          "name": "surplusAmount",
          "type": "uint256"
        }
      ],
      "stateMutability": "nonpayable",
      "type": "function"
    },
    {
      "inputs": [
        {
          "internalType": "uint64",
          "name": "depositID",
          "type": "uint64"
        },
        {
          "internalType": "uint256",
          "name": "depositAmount",
          "type": "uint256"
        }
      ],
      "name": "topupDeposit",
      "outputs": [
        {
          "internalType": "uint256",
          "name": "interestAmount",
          "type": "uint256"
        }
      ],
      "stateMutability": "nonpayable",
      "type": "function"
    },
    {
      "inputs": [],
      "name": "totalDeposit",
      "outputs": [
        {
          "internalType": "uint256",
          "name": "",
          "type": "uint256"
        }
      ],
      "stateMutability": "view",
      "type": "function"
    },
    {
      "inputs": [],
      "name": "totalFeeOwed",
      "outputs": [
        {
          "internalType": "uint256",
          "name": "",
          "type": "uint256"
        }
      ],
      "stateMutability": "view",
      "type": "function"
    },
    {
      "inputs": [],
      "name": "totalFundedPrincipalAmount",
      "outputs": [
        {
          "internalType": "uint256",
          "name": "",
          "type": "uint256"
        }
      ],
      "stateMutability": "view",
      "type": "function"
    },
    {
      "inputs": [],
      "name": "totalInterestOwed",
      "outputs": [
        {
          "internalType": "uint256",
          "name": "",
          "type": "uint256"
        }
      ],
      "stateMutability": "view",
      "type": "function"
    },
    {
      "inputs": [
        {
          "internalType": "address",
          "name": "newOwner",
          "type": "address"
        }
      ],
      "name": "transferOwnership",
      "outputs": [],
      "stateMutability": "nonpayable",
      "type": "function"
    },
    {
      "inputs": [
        {
          "internalType": "uint64",
          "name": "depositID",
          "type": "uint64"
        },
        {
          "internalType": "uint256",
          "name": "virtualTokenAmount",
          "type": "uint256"
        },
        {
          "internalType": "bool",
          "name": "early",
          "type": "bool"
        }
      ],
      "name": "withdraw",
      "outputs": [
        {
          "internalType": "uint256",
          "name": "withdrawnStablecoinAmount",
          "type": "uint256"
        }
      ],
      "stateMutability": "nonpayable",
      "type": "function"
    }
  ],
  "transactionHash": "0x9064887d01af59d83fc46e9247bc450b2fdfb1609e8185ac833f16e91322b5a5",
  "args": [],
  "solcInputHash": "1661d293a805a6aa9c985d38b65fccb0",
  "bytecode": "0x608060405234801561001057600080fd5b50615acf80620000216000396000f3fe608060405234801561001057600080fd5b506004361061030c5760003560e01c80638f91a1df1161019d578063d372bc44116100e9578063ec38a862116100a2578063f28eae8c1161007c578063f28eae8c1461079b578063f2fde38b146107ae578063f6153ccd146107c1578063f8e1152a146107cb5761030c565b8063ec38a8621461076c578063f154240a1461077f578063f20b1c76146107885761030c565b8063d372bc4414610701578063d3f8d66714610714578063d6d75f511461071e578063e46bcf9814610732578063e676e86314610745578063e9cbd822146107585761030c565b8063ac165d7a11610156578063b4b1f22f11610130578063b4b1f22f146106a9578063bc135d75146106d1578063c016cfd6146106e4578063d2402b19146106f75761030c565b8063ac165d7a14610607578063ac9650d81461061b578063ae59a6b21461063b5761030c565b80638f91a1df146105935780639530d77e146105a657806397ee1144146105b95780639a372cc7146105cd578063a5a9504e146105e0578063a832806b146105f35761030c565b80634fdf5d1d1161025c5780636e3f5d52116102155780637f2b0e4e116101ef5780637f2b0e4e1461051657806386b8f9f1146105205780638da5cb5b146105785780638f168c93146105895761030c565b80636e3f5d52146104c9578063715018a6146104dc5780637d552ea6146104e45761030c565b80634fdf5d1d14610455578063593b150d146104685780635c53ba261461047b5780635dc05d7f1461048e578063678fd937146104a257806367e3c4d4146104b55761030c565b80631ee2e389116102c95780632808bf53116102a35780632808bf53146103f05780632a80cda3146104035780632fc082ff1461041657806347857296146104425761030c565b80631ee2e3891461039e5780632125b984146103b1578063259fc70f146103c45761030c565b806301f2249b1461031157806304e5f21d1461032657806308b856d714610343578063106cffe21461034c578063138885651461036c5780631e3648931461038b575b600080fd5b61032461031f366004615129565b6107de565b005b6103306101345481565b6040519081526020015b60405180910390f35b61012e54610330565b61033061035a366004615129565b60fb6020526000908152604090205481565b6103746108b3565b60408051921515835260208301919091520161033a565b61033061039936600461543c565b61094f565b6103306103ac366004615568565b61098f565b6103246103bf366004615251565b610a55565b610130546103d8906001600160401b031681565b6040516001600160401b03909116815260200161033a565b6103306103fe366004615411565b610ae8565b61032461041136600461533e565b610c14565b61013a5461042a906001600160a01b031681565b6040516001600160a01b03909116815260200161033a565b610330610450366004615529565b610cb9565b610324610463366004615161565b610cfd565b610324610476366004615129565b610d9c565b6103d861048936600461543c565b610e74565b61013c5461042a906001600160a01b031681565b6103246104b0366004615465565b610ea9565b61013b5461042a906001600160a01b031681565b6103246104d7366004615129565b610f31565b610324610fbc565b6104f76104f236600461538f565b611030565b604080516001600160401b03909316835260208301919091520161033a565b61033061012f5481565b61053361052e3660046153f7565b611077565b60405161033a919060006080820190506001600160401b0380845116835280602085015116602084015250604083015160408301526060830151606083015292915050565b6065546001600160a01b031661042a565b6103306101335481565b6103246105a13660046153f7565b611128565b6103306105b43660046153f7565b6111f6565b6101385461042a906001600160a01b031681565b6103306105db3660046155b8565b611278565b6103246105ee366004615129565b611332565b61013d5461042a906001600160a01b031681565b6101395461042a906001600160a01b031681565b61062e610629366004615199565b6113b8565b60405161033a91906156b8565b61064e6106493660046153f7565b6114d6565b60405161033a9190600060c0820190508251825260208301516020830152604083015160408301526060830151606083015260808301516001600160401b0380821660808501528060a08601511660a0850152505092915050565b6106bc6106b7366004615615565b6115c1565b6040805192835260208301919091520161033a565b6103306106df36600461536e565b61168b565b6103246106f2366004615251565b6117c0565b6103306101315481565b61032461070f36600461543c565b61181d565b6103306101355481565b6101365461042a906001600160a01b031681565b6103746107403660046153f7565b611919565b6103d86107533660046155b8565b6119b7565b6101375461042a906001600160a01b031681565b61032461077a366004615129565b611a62565b61012d54610330565b610324610796366004615129565b611b39565b6104f76107a93660046153ba565b611c8d565b6103246107bc366004615129565b611d57565b6103306101325481565b6106bc6107d93660046155ec565b611e42565b6065546001600160a01b031633146108115760405162461bcd60e51b8152600401610808906157a9565b60405180910390fd5b6001600160a01b0381163b6108385760405162461bcd60e51b81526004016108089061589c565b61013d80546001600160a01b0319166001600160a01b0383161790556040516836b83426b4b73a32b960b91b81526009015b6040519081900381206001600160a01b03831682529033907f64b03eb8356730cffd396927eec0e9b1e0599498960e022df3dae35791c17cf5906020015b60405180910390a350565b60008061094761013660009054906101000a90046001600160a01b03166001600160a01b03166321c261206040518163ffffffff1660e01b8152600401602060405180830381600087803b15801561090a57600080fd5b505af115801561091e573d6000803e3d6000fd5b505050506040513d601f19601f820116820180604052508101906109429190615356565b611e92565b915091509091565b6000600260015414156109745760405162461bcd60e51b815260040161080890615865565b6002600155610984338484611fc0565b600180559392505050565b6000600260015414156109b45760405162461bcd60e51b815260040161080890615865565b60026001556109c8368390038301836152ab565b604080516001600160401b03881660208201529081018690528415156060820152631ee2e38960e01b90608001604051602081830303815290604052610a0f838383611fe0565b610a2b836000015184602001518560400151866060015161223e565b610a45610a3b6020870187615129565b898989600061227a565b6001805598975050505050505050565b6065546001600160a01b03163314610a7f5760405162461bcd60e51b8152600401610808906157a9565b61013b546040516355f804b360e01b81526001600160a01b03909116906355f804b390610ab29085908590600401615719565b600060405180830381600087803b158015610acc57600080fd5b505af1158015610ae0573d6000803e3d6000fd5b505050505050565b600060026001541415610b0d5760405162461bcd60e51b815260040161080890615865565b6002600155610b21368390038301836152ab565b604080516001600160401b0386166020820152632808bf5360e01b9101604051602081830303815290604052610b58838383611fe0565b610b74836000015184602001518560400151866060015161223e565b610c068661013660009054906101000a90046001600160a01b03166001600160a01b03166321c261206040518163ffffffff1660e01b8152600401602060405180830381600087803b158015610bc957600080fd5b505af1158015610bdd573d6000803e3d6000fd5b505050506040513d601f19601f82011682018060405250810190610c019190615356565b6122cf565b600180559695505050505050565b6065546001600160a01b03163314610c3e5760405162461bcd60e51b8152600401610808906157a9565b60008111610c5e5760405162461bcd60e51b81526004016108089061580b565b6101318190556040516f135a5b91195c1bdcda5d105b5bdd5b9d60821b81526010016040519081900381208282529033907ff37f82a82443ce2d0a9a47ee78cef1a46975e3f33782fcb8caf315626b73a3d4906020016108a8565b600060026001541415610cde5760405162461bcd60e51b815260040161080890615865565b6002600155610cf133858585600061227a565b60018055949350505050565b610d078282612595565b6040516370a0823160e01b81523060048201528290610d979083906001600160a01b038416906370a082319060240160206040518083038186803b158015610d4e57600080fd5b505afa158015610d62573d6000803e3d6000fd5b505050506040513d601f19601f82011682018060405250810190610d869190615356565b6001600160a01b03841691906125c3565b505050565b6065546001600160a01b03163314610dc65760405162461bcd60e51b8152600401610808906157a9565b600080610dd16108b3565b9150915081610d975761013654604051632e1a7d4d60e01b8152600481018390526001600160a01b0390911690632e1a7d4d90602401602060405180830381600087803b158015610e2157600080fd5b505af1158015610e35573d6000803e3d6000fd5b505050506040513d601f19601f82011682018060405250810190610e599190615356565b61013754909150610d97906001600160a01b031684836125c3565b600060026001541415610e995760405162461bcd60e51b815260040161080890615865565b6002600155610984338484612626565b600054610100900460ff1680610ec2575060005460ff16155b610ede5760405162461bcd60e51b81526004016108089061575b565b600054610100900460ff16158015610f00576000805461ffff19166101011790555b610f128b8b8b8b8b8b8b8b8b8b61264b565b8015610f24576000805461ff00191690555b5050505050505050505050565b6065546001600160a01b03163314610f5b5760405162461bcd60e51b8152600401610808906157a9565b6001600160a01b0381163b610f825760405162461bcd60e51b81526004016108089061589c565b61013980546001600160a01b0319166001600160a01b0383161790556040516c1a5b9d195c995cdd135bd9195b609a1b8152600d0161086a565b6065546001600160a01b03163314610fe65760405162461bcd60e51b8152600401610808906157a9565b6065546040516000916001600160a01b0316907f8be0079c531659141344cd1fd0a4f28419497f9722a3daafe3b4186f6b6457e0908390a3606580546001600160a01b0319169055565b600080600260015414156110565760405162461bcd60e51b815260040161080890615865565b60026001556110683385856000612775565b60018055909590945092505050565b60408051608081018252600080825260208201819052918101829052606081019190915261012e6110a96001846159ca565b6001600160401b0316815481106110d057634e487b7160e01b600052603260045260246000fd5b600091825260209182902060408051608081018252600390930290910180546001600160401b038082168552600160401b9091041693830193909352600183015490820152600290910154606082015290505b919050565b6065546001600160a01b031633146111525760405162461bcd60e51b8152600401610808906157a9565b6000816001600160401b03161161117b5760405162461bcd60e51b81526004016108089061580b565b610130805467ffffffffffffffff19166001600160401b0383161790556040516f13585e11195c1bdcda5d14195c9a5bd960821b81526010016040519081900381206001600160401b03831682529033907ff37f82a82443ce2d0a9a47ee78cef1a46975e3f33782fcb8caf315626b73a3d4906020016108a8565b60006002600154141561121b5760405162461bcd60e51b815260040161080890615865565b6002600155610136546040805163010e130960e51b8152905161126e9285926001600160a01b03909116916321c26120916004808201926020929091908290030181600087803b158015610bc957600080fd5b6001805592915050565b60006002600154141561129d5760405162461bcd60e51b815260040161080890615865565b60026001556112b1368390038301836152ab565b604080516001600160401b0387166020820152908101859052639a372cc760e01b906060016040516020818303038152906040526112f0838383611fe0565b61130c836000015184602001518560400151866060015161223e565b61132361131c6020870187615129565b8888611fc0565b60018055979650505050505050565b6065546001600160a01b0316331461135c5760405162461bcd60e51b8152600401610808906157a9565b6001600160a01b0381163b6113835760405162461bcd60e51b81526004016108089061589c565b61013880546001600160a01b0319166001600160a01b03831617905560405167199959535bd9195b60c21b815260080161086a565b6060816001600160401b038111156113e057634e487b7160e01b600052604160045260246000fd5b60405190808252806020026020018201604052801561141357816020015b60608152602001906001900390816113fe5790505b50905060005b828110156114cf576114913085858481811061144557634e487b7160e01b600052603260045260246000fd5b905060200281019061145791906158d3565b8080601f01602080910402602001604051908101604052809392919081815260200183838082843760009201919091525061279c92505050565b8282815181106114b157634e487b7160e01b600052603260045260246000fd5b602002602001018190525080806114c790615a1e565b915050611419565b5092915050565b6115216040518060c001604052806000815260200160008152602001600081526020016000815260200160006001600160401b0316815260200160006001600160401b031681525090565b61012d61152f6001846159ca565b6001600160401b03168154811061155657634e487b7160e01b600052603260045260246000fd5b60009182526020918290206040805160c081018252600590930290910180548352600181015493830193909352600283015490820152600382015460608201526004909101546001600160401b038082166080840152600160401b9091041660a08201529050919050565b600080600260015414156115e75760405162461bcd60e51b815260040161080890615865565b60026001556115fb368490038401846152ab565b604080516001600160401b038881166020830152871681830152815180820383018152606090910190915263b4b1f22f60e01b9061163a838383611fe0565b611656836000015184602001518560400151866060015161223e565b61166d6116666020880188615129565b8989612887565b600180556001600160401b0391909116999098509650505050505050565b61013a54604080516385b3a93160e01b8152815160009384936001600160a01b03909116926385b3a931926004808301939282900301818787803b1580156116d257600080fd5b505af11580156116e6573d6000803e3d6000fd5b505050506040513d601f19601f8201168201806040525081019061170a9190615224565b9150506000806117186108b3565b6101395460405163684df1a760e11b8152600481018a905260248101899052604481018790528315156064820152608481018390529294509092506001600160a01b03169063d09be34e9060a40160206040518083038186803b15801561177e57600080fd5b505afa158015611792573d6000803e3d6000fd5b505050506040513d601f19601f820116820180604052508101906117b69190615356565b9695505050505050565b6065546001600160a01b031633146117ea5760405162461bcd60e51b8152600401610808906157a9565b61013b5460405163938e3d7b60e01b81526001600160a01b039091169063938e3d7b90610ab29085908590600401615719565b6065546001600160a01b031633146118475760405162461bcd60e51b8152600401610808906157a9565b6000611852836128fe565b60028101546001820154825492935090918285106118825760405162461bcd60e51b81526004016108089061580b565b60006118a0611899670de0b6b3a76400008561595c565b839061294a565b60028601879055905060006118bf6118b888876159b3565b8390612969565b90506118cb818361294a565b6118d5908561595c565b86600101819055508061013360008282546118f0919061595c565b9250508190555080610134600082825461190a91906159b3565b90915550505050505050505050565b6000806119ae8361013660009054906101000a90046001600160a01b03166001600160a01b03166321c261206040518163ffffffff1660e01b8152600401602060405180830381600087803b15801561197157600080fd5b505af1158015611985573d6000803e3d6000fd5b505050506040513d601f19601f820116820180604052508101906119a99190615356565b61297e565b91509150915091565b6000600260015414156119dc5760405162461bcd60e51b815260040161080890615865565b60026001556119f0368390038301836152ab565b604080516001600160401b038716602082015290810185905263e676e86360e01b90606001604051602081830303815290604052611a2f838383611fe0565b611a4b836000015184602001518560400151866060015161223e565b611323611a5b6020870187615129565b8888612626565b6065546001600160a01b03163314611a8c5760405162461bcd60e51b8152600401610808906157a9565b6001600160a01b0381163b611ab35760405162461bcd60e51b81526004016108089061589c565b6101365460405163761c543160e11b81526001600160a01b0383811660048301529091169063ec38a86290602401600060405180830381600087803b158015611afb57600080fd5b505af1158015611b0f573d6000803e3d6000fd5b5050505060405161086a90726d6f6e65794d61726b65742e7265776172647360681b815260130190565b6065546001600160a01b03163314611b635760405162461bcd60e51b8152600401610808906157a9565b6001600160a01b0381163b611b8a5760405162461bcd60e51b81526004016108089061589c565b61013a80546001600160a01b0319166001600160a01b03838116918217909255610136546040805163d6d75f5160e01b81529051919093169263d6d75f51916004808301926020929190829003018186803b158015611be857600080fd5b505afa158015611bfc573d6000803e3d6000fd5b505050506040513d601f19601f82011682018060405250810190611c209190615145565b6001600160a01b031614611c6e5760405162461bcd60e51b815260206004820152601560248201527444496e7465726573743a204241445f4f5241434c4560581b6044820152606401610808565b6040516d696e7465726573744f7261636c6560901b8152600e0161086a565b60008060026001541415611cb35760405162461bcd60e51b815260040161080890615865565b6002600155611cc7368490038401846152ab565b604051633ca3aba360e21b90611cf590889088906020019182526001600160401b0316602082015260400190565b604051602081830303815290604052611d0f838383611fe0565b611d2b836000015184602001518560400151866060015161223e565b611d44611d3b6020880188615129565b89896000612775565b6001805590999098509650505050505050565b6065546001600160a01b03163314611d815760405162461bcd60e51b8152600401610808906157a9565b6001600160a01b038116611de65760405162461bcd60e51b815260206004820152602660248201527f4f776e61626c653a206e6577206f776e657220697320746865207a65726f206160448201526564647265737360d01b6064820152608401610808565b6065546040516001600160a01b038084169216907f8be0079c531659141344cd1fd0a4f28419497f9722a3daafe3b4186f6b6457e090600090a3606580546001600160a01b0319166001600160a01b0392909216919091179055565b60008060026001541415611e685760405162461bcd60e51b815260040161080890615865565b6002600155611e78338585612887565b600180556001600160401b03919091169590945092505050565b6000806000676765c793fa10079d601b1b61012f5485611eb29190615994565b611ebc9190615974565b61013554909150600081831115611eda57611ed782846159b3565b90505b61013654604051630579f07b60e41b8152600481018890526000916001600160a01b03169063579f07b09060240160206040518083038186803b158015611f2057600080fd5b505afa158015611f34573d6000803e3d6000fd5b505050506040513d601f19601f82011682018060405250810190611f589190615356565b9050600082610134546101335461013254611f73919061595c565b611f7d919061595c565b611f87919061595c565b9050808210611fa55760009650611f9e81836159b3565b9550611fb6565b60019650611fb382826159b3565b95505b5050505050915091565b6000611fcd848484612a4f565b9050611fd98483612f05565b9392505050565b82516001600160a01b0316600090815260fb60205260409020546080840151146120455760405162461bcd60e51b815260206004820152601660248201527553706f6e736f7261626c653a204241445f4e4f4e434560501b6044820152606401610808565b8260a001514211156120915760405162461bcd60e51b815260206004820152601560248201527414dc1bdb9cdbdc98589b194e8814d251d7d1115051605a1b6044820152606401610808565b6020808401516040808601516060808801516080808a015160a0808c01518751469a81018b905230988101989098526001600160a01b039889169588019590955296909416908501529383019390935260c082015260e08101919091526001600160e01b031984166101008201526000906101200160408051601f1981840301815290829052612125918590602001615689565b60408051601f198184030181529082905280516020918201207f19457468657265756d205369676e6564204d6573736167653a0a33320000000091830191909152603c820152605c0160405160208183030381529060405280519060200120905060006121a1828760c001518860e00151896101000151612f6f565b90506001600160a01b038116158015906121c7575085516001600160a01b038281169116145b61220a5760405162461bcd60e51b815260206004820152601460248201527353706f6e736f7261626c653a204241445f53494760601b6044820152606401610808565b608086015161221a90600161595c565b95516001600160a01b0316600090815260fb60205260409020959095555050505050565b8061224857612274565b8161225e6001600160a01b03821686308561310f565b6122726001600160a01b03821685846125c3565b505b50505050565b600080600080600061228e8a8a8a8a613147565b93509350935093506122c18a6122a38b6128fe565b60040154600160401b90046001600160401b0316868686868c61370b565b9a9950505050505050505050565b6000806122db84613a81565b600181015461013c5460405163bd85b03960e01b81526001600160401b038816600482015292935090916000916001600160a01b03169063bd85b0399060240160206040518083038186803b15801561233357600080fd5b505afa158015612347573d6000803e3d6000fd5b505050506040513d601f19601f8201168201806040525081019061236b9190615356565b90506000600160801b8460020154836123849190615994565b61238e9190615974565b9050826123a6676765c793fa10079d601b1b83615994565b6123b09190615974565b866123c6676765c793fa10079d601b1b84615994565b6123d09190615974565b61012f546123de919061595c565b6123e891906159b3565b61012f556001840186905580836123ff8883615994565b6124099190615974565b61241391906159b3565b9450505050600082111561254a5761013654604051632e1a7d4d60e01b8152600481018490526001600160a01b0390911690632e1a7d4d90602401602060405180830381600087803b15801561246857600080fd5b505af115801561247c573d6000803e3d6000fd5b505050506040513d601f19601f820116820180604052508101906124a09190615356565b9150811561254a5761013c54610137546124c7916001600160a01b03918216911684613acd565b61013c54610137546040516316f6849d60e31b81526001600160401b03871660048201526001600160a01b0391821660248201526044810185905291169063b7b424e890606401600060405180830381600087803b15801561252857600080fd5b505af115801561253c573d6000803e3d6000fd5b5050505061254a8483613bb6565b60408051838152600060208201526001600160401b038616917f8f0a3cf13ab42f1ec8d1e3df9aa7f0b3219995863af01088afec4c3fef43f79c910160405180910390a25092915050565b6065546001600160a01b031633146125bf5760405162461bcd60e51b815260040161080890615837565b5050565b6040516001600160a01b038316602482015260448101829052610d9790849063a9059cbb60e01b906064015b60408051601f198184030181529190526020810180516001600160e01b03166001600160e01b031990931692909217909152613d6b565b600080612634858585613e3d565b90925090506126438582612f05565b509392505050565b600054610100900460ff1680612664575060005460ff16155b6126805760405162461bcd60e51b81526004016108089061575b565b600054610100900460ff161580156126a2576000805461ffff19166101011790555b6126aa614393565b6126b2614407565b61013680546001600160a01b03199081166001600160a01b038c811691909117909255610137805482168b8416179055610138805482168a84161790556101398054821689841617905561013a8054821688841617905561013b8054821687841617905561013c8054821686841617905561013d8054909116918416919091179055610130805467ffffffffffffffff19166001600160401b038d161790556101318a90558015610f24576000805461ff00191690555050505050505050505050565b60008061278386868661446e565b9092509050612793868685614914565b94509492505050565b6060823b6127fb5760405162461bcd60e51b815260206004820152602660248201527f416464726573733a2064656c65676174652063616c6c20746f206e6f6e2d636f6044820152651b9d1c9858dd60d21b6064820152608401610808565b600080846001600160a01b031684604051612816919061566d565b600060405180830381855af49150503d8060008114612851576040519150601f19603f3d011682016040523d82523d6000602084013e612856565b606091505b509150915061287e8282604051806060016040528060278152602001615a73602791396149b5565b95945050505050565b600080600061289d86866000196000600161227a565b90506128ac8682866001612775565b60405191945092506001600160401b0380851691908716906001600160a01b038916907fa1784acef38e256a50f87b9b937145b9d8294956f1f444d097b9f34217e7291490600090a450935093915050565b600061012d61290e6001846159ca565b6001600160401b03168154811061293557634e487b7160e01b600052603260045260246000fd5b90600052602060002090600502019050919050565b60008161295f670de0b6b3a764000085615994565b611fd99190615974565b6000670de0b6b3a764000061295f8385615994565b600080600061298c856128fe565b80546001820154919250906000906129b19061189990670de0b6b3a76400009061595c565b905060006129bf82846159b3565b905060006129da85600201548461296990919063ffffffff16565b90506000856003015489856129ef9190615994565b6129f99190615974565b9050600082612a08858761595c565b612a12919061595c565b9050808210612a305760009850612a2981836159b3565b9750612a41565b60019850612a3e82826159b3565b97505b505050505050509250929050565b600080612a5b846128fe565b61013b546040516331a9108f60e11b81526001600160401b03871660048201529192506001600160a01b0387811692911690636352211e9060240160206040518083038186803b158015612aae57600080fd5b505afa158015612ac2573d6000803e3d6000fd5b505050506040513d601f19601f82011682018060405250810190612ae69190615145565b6001600160a01b031614612b0c5760405162461bcd60e51b815260040161080890615837565b6004810154600090612b289042906001600160401b03166159b3565b9050612b34848261168b565b925060008311612b805760405162461bcd60e51b815260206004820152601760248201527611125b9d195c995cdd0e8810905117d2539511549154d5604a1b6044820152606401610808565b6101385460405163cf27fa5960e01b8152306004820152602481018590526000916001600160a01b03169063cf27fa599060440160206040518083038186803b158015612bcc57600080fd5b505afa158015612be0573d6000803e3d6000fd5b505050506040513d601f19601f82011682018060405250810190612c049190615356565b9050612c1081856159b3565b60018401549094506000612c37612c2f670de0b6b3a76400008461595c565b86549061294a565b9050612c43868861595c565b856000016000828254612c56919061595c565b90915550612c669050818861595c565b612c708383615994565b612c8288670de0b6b3a7640000615994565b612c8c919061595c565b612c969190615974565b6001860155612ca5818861595c565b6002860154612cb49083615994565b612cc685670de0b6b3a7640000615994565b612cd0919061595c565b612cda9190615974565b6002860155610136546040805163010e130960e51b815290516000926001600160a01b0316916321c2612091600480830192602092919082900301818787803b158015612d2657600080fd5b505af1158015612d3a573d6000803e3d6000fd5b505050506040513d601f19601f82011682018060405250810190612d5e9190615356565b612d73676765c793fa10079d601b1b8a615994565b612d7d9190615974565b6003870154612d97676765c793fa10079d601b1b85615994565b612da19190615974565b612dab919061595c565b905080676765c793fa10079d601b1b612dc4848b61595c565b612dce9190615994565b612dd89190615974565b8660030181905550876101326000828254612df3919061595c565b92505081905550866101336000828254612e0d919061595c565b92505081905550836101346000828254612e27919061595c565b909155505060408051898152602081018990529081018590526001600160401b038a16906001600160a01b038c16907f3cfdfbe5c59b104993c5bb7a19605a181c358415effb11a8903c7168f3948f4f9060600160405180910390a361013d54604051634452179160e11b81526001600160401b038b16600482015260248101849052604481018a90526001600160a01b03909116906388a42f2290606401600060405180830381600087803b158015612ee057600080fd5b505af1158015612ef4573d6000803e3d6000fd5b505050505050505050509392505050565b61013754612f1e906001600160a01b031683308461310f565b6101365461013754612f3d916001600160a01b03918216911683613acd565b6101365460405163b6b55f2560e01b8152600481018390526001600160a01b039091169063b6b55f2590602401610ab2565b60007f7fffffffffffffffffffffffffffffff5d576e7357a4501ddfe92f46681b20a0821115612fec5760405162461bcd60e51b815260206004820152602260248201527f45434453413a20696e76616c6964207369676e6174757265202773272076616c604482015261756560f01b6064820152608401610808565b8360ff16601b148061300157508360ff16601c145b6130585760405162461bcd60e51b815260206004820152602260248201527f45434453413a20696e76616c6964207369676e6174757265202776272076616c604482015261756560f01b6064820152608401610808565b6040805160008082526020820180845288905260ff871692820192909252606081018590526080810184905260019060a0016020604051602081039080840390855afa1580156130ac573d6000803e3d6000fd5b5050604051601f1901519150506001600160a01b03811661287e5760405162461bcd60e51b815260206004820152601860248201527f45434453413a20696e76616c6964207369676e617475726500000000000000006044820152606401610808565b6040516001600160a01b03808516602483015283166044820152606481018290526122749085906323b872dd60e01b906084016125ef565b600080600080600086116131955760405162461bcd60e51b815260206004820152601560248201527411125b9d195c995cdd0e8810905117d05353d55395605a1b6044820152606401610808565b60006131a0886128fe565b905085156131fd5760048101546001600160401b031642106131f85760405162461bcd60e51b815260206004820152601160248201527044496e7465726573743a204d415455524560781b6044820152606401610808565b613250565b60048101546001600160401b03164210156132505760405162461bcd60e51b815260206004820152601360248201527244496e7465726573743a20494d4d415455524560681b6044820152606401610808565b61013b546040516331a9108f60e11b81526001600160401b038a1660048201526001600160a01b038b8116921690636352211e9060240160206040518083038186803b15801561329f57600080fd5b505afa1580156132b3573d6000803e3d6000fd5b505050506040513d601f19601f820116820180604052508101906132d79190615145565b6001600160a01b0316146132fd5760405162461bcd60e51b815260040161080890615837565b80548088111561330b578097505b5060018101546002820154600061333461332d670de0b6b3a76400008561595c565b8b9061294a565b905060008961334c57613347828c6159b3565b61334f565b60005b905061335b818361595c565b985050881561340e57610138546040516376dffb8f60e01b81523060048201526001600160401b038d166024820152604481018a90526000916001600160a01b0316906376dffb8f9060640160206040518083038186803b1580156133bf57600080fd5b505afa1580156133d3573d6000803e3d6000fd5b505050506040513d601f19601f820116820180604052508101906133f79190615356565b9750879050613406818a6159b3565b98505061341b565b6134188183612969565b96505b80610132600082825461342e91906159b3565b9091555061343e9050818b6159b3565b610133600082825461345091906159b3565b9091555061346090508183612969565b610134600082825461347291906159b3565b90915550506004840154600160401b90046001600160401b031680156135c257600061349d82613a81565b600281015461013c5460405163bd85b03960e01b81526001600160401b0386166004820152929350600092600160801b92916001600160a01b03169063bd85b0399060240160206040518083038186803b1580156134fa57600080fd5b505afa15801561350e573d6000803e3d6000fd5b505050506040513d601f19601f820116820180604052508101906135329190615356565b61353c9190615994565b6135469190615974565b905060006135588f89600001546149ee565b905060006135668688612969565b8f613571919061595c565b905061357d838261595c565b82116135ad578261358e82846159b3565b856002015461359d9190615994565b6135a79190615974565b60028501555b50506135ba83828e614a4d565b909950975050505b60006135e96135d9670de0b6b3a76400008761595c565b6135e28f6128fe565b549061294a565b905061013d60009054906101000a90046001600160a01b03166001600160a01b03166388a42f228e8360006040518463ffffffff1660e01b815260040161364e939291906001600160401b039390931683526020830191909152604082015260600190565b600060405180830381600087803b15801561366857600080fd5b505af115801561367c573d6000803e3d6000fd5b50505050508a61368b8d6128fe565b805460009061369b9084906159b3565b925050819055508915158c6001600160401b03168e6001600160a01b03167fc915235dea7625ad78e3b510156c53e55606173e23b24de4bfdb0c7b9952065f8e8c6040516136f3929190918252602082015260400190565b60405180910390a45050505050945094509450949050565b600081156137ee57610136546000906001600160a01b0316632e1a7d4d613732878961595c565b6040518263ffffffff1660e01b815260040161375091815260200190565b602060405180830381600087803b15801561376a57600080fd5b505af115801561377e573d6000803e3d6000fd5b505050506040513d601f19601f820116820180604052508101906137a29190615356565b90506137ae858761595c565b81106137c5576137be85826159b3565b95506137e5565b8581106137dd576137d686826159b3565b94506137e5565b809550600094505b86915050613925565b610136546000906001600160a01b0316632e1a7d4d8661380e898b61595c565b613818919061595c565b6040518263ffffffff1660e01b815260040161383691815260200190565b602060405180830381600087803b15801561385057600080fd5b505af1158015613864573d6000803e3d6000fd5b505050506040513d601f19601f820116820180604052508101906138889190615356565b879250905084613898878461595c565b6138a2919061595c565b81106138c457846138b388836159b3565b6138bd91906159b3565b9550613905565b6138ce868861595c565b81106138f057856138df88836159b3565b6138e991906159b3565b9450613905565b868110613901576138bd87826159b3565b8091505b81156139235761013754613923906001600160a01b03168a846125c3565b505b84156139be5761013854604080516338af3eed60e01b815290516139be926001600160a01b0316916338af3eed916004808301926020929190829003018186803b15801561397257600080fd5b505afa158015613986573d6000803e3d6000fd5b505050506040513d601f19601f820116820180604052508101906139aa9190615145565b610137546001600160a01b031690876125c3565b8315613a765761013c54610137546139e3916001600160a01b03918216911686613acd565b61013c54610137546040516316f6849d60e31b81526001600160401b038a1660048201526001600160a01b0391821660248201526044810187905291169063b7b424e890606401600060405180830381600087803b158015613a4457600080fd5b505af1158015613a58573d6000803e3d6000fd5b50505050828410613a7657613a7687613a7185876159b3565b613bb6565b979650505050505050565b600061012e613a916001846159ca565b6001600160401b031681548110613ab857634e487b7160e01b600052603260045260246000fd5b90600052602060002090600302019050919050565b604051636eb1769f60e11b81523060048201526001600160a01b0383811660248301526000919085169063dd62ed3e9060440160206040518083038186803b158015613b1857600080fd5b505afa158015613b2c573d6000803e3d6000fd5b505050506040513d601f19601f82011682018060405250810190613b509190615356565b1115613b86576040516001600160a01b038316602482015260006044820152613b8690849063095ea7b360e01b906064016125ef565b6040516001600160a01b038316602482015260448101829052610d9790849063095ea7b360e01b906064016125ef565b6000613bc183613a81565b8054909150600090613bdb906001600160401b03166128fe565b600401546001600160401b0316905042811015613cad578154600160401b90046001600160401b031681811015613ca7576000613c1882426159b3565b613c2283856159b3565b613c2c9087615994565b613c369190615974565b61013d54604051634999011360e11b81526001600160401b0389166004820152602481018390529192506001600160a01b031690639332022690604401600060405180830381600087803b158015613c8d57600080fd5b505af1158015613ca1573d6000803e3d6000fd5b50505050505b50613d1c565b61013d54604051634999011360e11b81526001600160401b0386166004820152602481018590526001600160a01b0390911690639332022690604401600060405180830381600087803b158015613d0357600080fd5b505af1158015613d17573d6000803e3d6000fd5b505050505b6001600160401b03421115613d435760405162461bcd60e51b8152600401610808906157de565b50805467ffffffffffffffff60401b1916600160401b426001600160401b0316021790555050565b6000613dc0826040518060400160405280602081526020017f5361666545524332303a206c6f772d6c6576656c2063616c6c206661696c6564815250856001600160a01b0316614e349092919063ffffffff16565b805190915015610d975780806020019051810190613dde9190615208565b610d975760405162461bcd60e51b815260206004820152602a60248201527f5361666545524332303a204552433230206f7065726174696f6e20646964206e6044820152691bdd081cdd58d8d9595960b21b6064820152608401610808565b6000806000613e4b856128fe565b9050600061013660009054906101000a90046001600160a01b03166001600160a01b03166321c261206040518163ffffffff1660e01b8152600401602060405180830381600087803b158015613ea057600080fd5b505af1158015613eb4573d6000803e3d6000fd5b505050506040513d601f19601f82011682018060405250810190613ed89190615356565b9050600080613ee683611e92565b9150915081613f2c5760405162461bcd60e51b815260206004820152601260248201527111125b9d195c995cdd0e881393d7d111509560721b6044820152606401610808565b613f36888461297e565b909250905081613f7d5760405162461bcd60e51b815260206004820152601260248201527111125b9d195c995cdd0e881393d7d111509560721b6044820152606401610808565b80871115613f89578096505b6000613f998986600001546149ee565b6004860154600160401b90046001600160401b031697509050600080881580613fcc5750613fc689613a81565b60020154155b15614145576001600160401b03421115613ff85760405162461bcd60e51b8152600401610808906157de565b604080516080810182526001600160401b03808e16825242811660208301908152928201898152600160801b6060840190815261012e80546001810182556000829052945160039095027fbdaadd9f750d0166045bf387a364eadd28ba243e04512a47282aa5147a68e37f8101805497518616600160401b026001600160801b0319909816968616969096179690961790945590517fbdaadd9f750d0166045bf387a364eadd28ba243e04512a47282aa5147a68e380850155517fbdaadd9f750d0166045bf387a364eadd28ba243e04512a47282aa5147a68e381909301929092555411156140f95760405162461bcd60e51b8152600401610808906157de565b61012e5460048801805467ffffffffffffffff60401b1916600160401b6001600160401b038416021790559850836141318b85615994565b61413b9190615974565b915081905061426a565b61414f89876122cf565b50600061415b8a613a81565b6002015461013c5460405163bd85b03960e01b81526001600160401b038d166004820152919250600091600160801b9184916001600160a01b039091169063bd85b0399060240160206040518083038186803b1580156141ba57600080fd5b505afa1580156141ce573d6000803e3d6000fd5b505050506040513d601f19601f820116820180604052508101906141f29190615356565b6141fc9190615994565b6142069190615974565b61421090866159b3565b90508461421d8288615994565b6142279190615974565b9550858c111561423557859b505b856142408d83615994565b61424a9190615974565b93508161425b600160801b86615994565b6142659190615974565b925050505b61013c54604051630ab714fb60e11b81526001600160a01b038e811660048301526001600160401b038c166024830152604482018490529091169063156e29f690606401600060405180830381600087803b1580156142c857600080fd5b505af11580156142dc573d6000803e3d6000fd5b5050505085676765c793fa10079d601b1b836142f89190615994565b6143029190615974565b61012f6000828254614314919061595c565b9250508190555081610135600082825461432e919061595c565b9091555050604080518b8152602081018390526001600160401b038b16916001600160a01b038f16917e041ad888f8f0041ca5438a2a667df2a6a90adb28eaf8ec67152459058415ec910160405180910390a389975050505050505050935093915050565b600054610100900460ff16806143ac575060005460ff16155b6143c85760405162461bcd60e51b81526004016108089061575b565b600054610100900460ff161580156143ea576000805461ffff19166101011790555b6143f2614e4b565b8015614404576000805461ff00191690555b50565b600054610100900460ff1680614420575060005460ff16155b61443c5760405162461bcd60e51b81526004016108089061575b565b600054610100900460ff1615801561445e576000805461ffff19166101011790555b614466614eba565b6143f2614f24565b600080610131548410156144bc5760405162461bcd60e51b815260206004820152601560248201527411125b9d195c995cdd0e8810905117d05353d55395605a1b6044820152606401610808565b60006144d1426001600160401b0386166159b3565b610130549091506001600160401b03168111156145265760405162461bcd60e51b815260206004820152601360248201527244496e7465726573743a204241445f54494d4560681b6044820152606401610808565b614530858261168b565b91506000821161457c5760405162461bcd60e51b815260206004820152601760248201527611125b9d195c995cdd0e8810905117d2539511549154d5604a1b6044820152606401610808565b6101385460405163cf27fa5960e01b8152306004820152602481018490526000916001600160a01b03169063cf27fa599060440160206040518083038186803b1580156145c857600080fd5b505afa1580156145dc573d6000803e3d6000fd5b505050506040513d601f19601f820116820180604052508101906146009190615356565b905061460c81846159b3565b925061012d6040518060c001604052808589614628919061595c565b8152602001614637868a61294a565b8152602001614646848a61294a565b8152610136546040805163010e130960e51b815290516020938401936001600160a01b03909316926321c2612092600480820193918290030181600087803b15801561469157600080fd5b505af11580156146a5573d6000803e3d6000fd5b505050506040513d601f19601f820116820180604052508101906146c99190615356565b81526001600160401b038089166020808401919091526000604093840181905285546001818101885596825290829020855160059092020190815590840151948101949094559082015160028401556060820151600384015560808201516004909301805460a0909301518216600160401b026001600160801b0319909316938216939093179190911790915561012d5411156147785760405162461bcd60e51b8152600401610808906157de565b61012d805490509350856101326000828254614794919061595c565b925050819055508261013360008282546147ae919061595c565b925050819055508061013460008282546147c8919061595c565b909155505061013b546040516340c10f1960e01b81526001600160a01b0389811660048301526001600160401b0387166024830152909116906340c10f1990604401600060405180830381600087803b15801561482457600080fd5b505af1158015614838573d6000803e3d6000fd5b505060408051898152602081018790529081018490526001600160401b038881166060830152871692506001600160a01b038a1691507f61431584ca96282c2c6748c4dabd382bc28bde7792a7fa3c3668927bedf4446f9060800160405180910390a361013d54604051631a3ee6b160e01b81526001600160a01b0389811660048301526001600160401b038716602483015290911690631a3ee6b190604401600060405180830381600087803b1580156148f257600080fd5b505af1158015614906573d6000803e3d6000fd5b505050505050935093915050565b80610d975761013754614932906001600160a01b031684308561310f565b6101365461013754614951916001600160a01b03918216911684613acd565b6101365460405163b6b55f2560e01b8152600481018490526001600160a01b039091169063b6b55f2590602401600060405180830381600087803b15801561499857600080fd5b505af11580156149ac573d6000803e3d6000fd5b50505050505050565b606083156149c4575081611fd9565b8251156149d45782518084602001fd5b8160405162461bcd60e51b81526004016108089190615748565b6000806149fa846128fe565b905060008160010154905061287e670de0b6b3a7640000836002015483614a21919061595c565b614a2b919061595c565b614a47614a40670de0b6b3a76400008561595c565b879061294a565b90612969565b6000806000614a5b86613a81565b600281015461013c5460405163bd85b03960e01b81526001600160401b038a166004820152929350600092600160801b92916001600160a01b03169063bd85b0399060240160206040518083038186803b158015614ab857600080fd5b505afa158015614acc573d6000803e3d6000fd5b505050506040513d601f19601f82011682018060405250810190614af09190615356565b614afa9190615994565b614b049190615974565b9050600082600101549050600061013660009054906101000a90046001600160a01b03166001600160a01b03166321c261206040518163ffffffff1660e01b8152600401602060405180830381600087803b158015614b6257600080fd5b505af1158015614b76573d6000803e3d6000fd5b505050506040513d601f19601f82011682018060405250810190614b9a9190615356565b9050600081614bb4676765c793fa10079d601b1b86615994565b614bbe9190615974565b9050600083614bd8676765c793fa10079d601b1b8c615994565b614be29190615974565b9050808261012f54614bf4919061595c565b10614c1c57808261012f54614c09919061595c565b614c1391906159b3565b61012f55614c23565b600061012f555b60018601839055614c34858b6159b3565b6101356000828254614c4691906159b3565b909155508a905084614c588583615994565b614c629190615974565b614c6c91906159b3565b9750505050508415614de6578154600090614c8f906001600160401b03166128fe565b6001810154600282015461013a54604080516385b3a93160e01b81528151959650939492936000936001600160a01b03909316926385b3a9319260048084019391929182900301818787803b158015614ce757600080fd5b505af1158015614cfb573d6000803e3d6000fd5b505050506040513d601f19601f82011682018060405250810190614d1f9190615224565b6004860154909250670de0b6b3a76400009150614d469042906001600160401b03166159b3565b614d6983670de0b6b3a7640000898f614d5f91906159b3565b614a479190615994565b614d739190615994565b614d7d9190615974565b96506000614dc0614d8e848661595c565b614a4785614da488670de0b6b3a764000061595c565b614dae919061595c565b898f614dba91906159b3565b9061294a565b905080881115614dd05780614dd2565b875b9750614dde888a61595c565b985050505050505b60408051858152602081018590526001600160401b038916917f8f0a3cf13ab42f1ec8d1e3df9aa7f0b3219995863af01088afec4c3fef43f79c910160405180910390a25050935093915050565b6060614e438484600085614fd2565b949350505050565b600054610100900460ff1680614e64575060005460ff16155b614e805760405162461bcd60e51b81526004016108089061575b565b600054610100900460ff16158015614ea2576000805461ffff19166101011790555b600180558015614404576000805461ff001916905550565b600054610100900460ff1680614ed3575060005460ff16155b614eef5760405162461bcd60e51b81526004016108089061575b565b600054610100900460ff161580156143f2576000805461ffff19166101011790558015614404576000805461ff001916905550565b600054610100900460ff1680614f3d575060005460ff16155b614f595760405162461bcd60e51b81526004016108089061575b565b600054610100900460ff16158015614f7b576000805461ffff19166101011790555b606580546001600160a01b0319163390811790915560405181906000907f8be0079c531659141344cd1fd0a4f28419497f9722a3daafe3b4186f6b6457e0908290a3508015614404576000805461ff001916905550565b6060824710156150335760405162461bcd60e51b815260206004820152602660248201527f416464726573733a20696e73756666696369656e742062616c616e636520666f6044820152651c8818d85b1b60d21b6064820152608401610808565b843b6150815760405162461bcd60e51b815260206004820152601d60248201527f416464726573733a2063616c6c20746f206e6f6e2d636f6e74726163740000006044820152606401610808565b600080866001600160a01b0316858760405161509d919061566d565b60006040518083038185875af1925050503d80600081146150da576040519150601f19603f3d011682016040523d82523d6000602084013e6150df565b606091505b5091509150613a768282866149b5565b803561112381615a4f565b6000610120828403121561510c578081fd5b50919050565b80356001600160401b038116811461112357600080fd5b60006020828403121561513a578081fd5b8135611fd981615a4f565b600060208284031215615156578081fd5b8151611fd981615a4f565b60008060408385031215615173578081fd5b823561517e81615a4f565b9150602083013561518e81615a4f565b809150509250929050565b600080602083850312156151ab578182fd5b82356001600160401b03808211156151c1578384fd5b818501915085601f8301126151d4578384fd5b8135818111156151e2578485fd5b8660208260051b85010111156151f6578485fd5b60209290920196919550909350505050565b600060208284031215615219578081fd5b8151611fd981615a64565b60008060408385031215615236578182fd5b825161524181615a64565b6020939093015192949293505050565b60008060208385031215615263578182fd5b82356001600160401b0380821115615279578384fd5b818501915085601f83011261528c578384fd5b81358181111561529a578485fd5b8660208285010111156151f6578485fd5b60006101208083850312156152be578182fd5b6152c78161591e565b90506152d2836150ef565b81526152e0602084016150ef565b60208201526152f1604084016150ef565b6040820152606083013560608201526080830135608082015260a083013560a082015260c083013560c082015260e083013560e08201526101008084013581830152508091505092915050565b60006020828403121561534f578081fd5b5035919050565b600060208284031215615367578081fd5b5051919050565b60008060408385031215615380578182fd5b50508035926020909101359150565b600080604083850312156153a1578182fd5b823591506153b160208401615112565b90509250929050565b600080600061016084860312156153cf578081fd5b833592506153df60208501615112565b91506153ee85604086016150fa565b90509250925092565b600060208284031215615408578081fd5b611fd982615112565b6000806101408385031215615424578182fd5b61542d83615112565b91506153b184602085016150fa565b6000806040838503121561544e578182fd5b61545783615112565b946020939093013593505050565b6000806000806000806000806000806101408b8d031215615484578788fd5b61548d8b615112565b995060208b0135985060408b01356154a481615a4f565b975060608b01356154b481615a4f565b965060808b01356154c481615a4f565b955060a08b01356154d481615a4f565b945060c08b01356154e481615a4f565b935060e08b01356154f481615a4f565b92506101008b013561550581615a4f565b91506101208b013561551681615a4f565b809150509295989b9194979a5092959850565b60008060006060848603121561553d578081fd5b61554684615112565b925060208401359150604084013561555d81615a64565b809150509250925092565b600080600080610180858703121561557e578182fd5b61558785615112565b935060208501359250604085013561559e81615a64565b91506155ad86606087016150fa565b905092959194509250565b600080600061016084860312156155cd578081fd5b6155d684615112565b9250602084013591506153ee85604086016150fa565b600080604083850312156155fe578182fd5b61560783615112565b91506153b160208401615112565b6000806000610160848603121561562a578081fd5b61563384615112565b92506153df60208501615112565b600081518084526156598160208601602086016159f2565b601f01601f19169290920160200192915050565b6000825161567f8184602087016159f2565b9190910192915050565b6000835161569b8184602088016159f2565b8351908301906156af8183602088016159f2565b01949350505050565b6000602080830181845280855180835260408601915060408160051b8701019250838701855b8281101561570c57603f198886030184526156fa858351615641565b945092850192908501906001016156de565b5092979650505050505050565b60006020825282602083015282846040840137818301604090810191909152601f909201601f19160101919050565b600060208252611fd96020830184615641565b6020808252602e908201527f496e697469616c697a61626c653a20636f6e747261637420697320616c72656160408201526d191e481a5b9a5d1a585b1a5e995960921b606082015260800190565b6020808252818101527f4f776e61626c653a2063616c6c6572206973206e6f7420746865206f776e6572604082015260600190565b60208082526013908201527244496e7465726573743a204f564552464c4f5760681b604082015260600190565b60208082526012908201527111125b9d195c995cdd0e8810905117d5905360721b604082015260600190565b6020808252601490820152732224b73a32b932b9ba1d102727aa2fa7aba722a960611b604082015260600190565b6020808252601f908201527f5265656e7472616e637947756172643a207265656e7472616e742063616c6c00604082015260600190565b60208082526017908201527f44496e7465726573743a204e4f545f434f4e5452414354000000000000000000604082015260600190565b6000808335601e198436030181126158e9578283fd5b8301803591506001600160401b03821115615902578283fd5b60200191503681900382131561591757600080fd5b9250929050565b604051601f8201601f191681016001600160401b038111828210171561595457634e487b7160e01b600052604160045260246000fd5b604052919050565b6000821982111561596f5761596f615a39565b500190565b60008261598f57634e487b7160e01b81526012600452602481fd5b500490565b60008160001904831182151516156159ae576159ae615a39565b500290565b6000828210156159c5576159c5615a39565b500390565b60006001600160401b03838116908316818110156159ea576159ea615a39565b039392505050565b60005b83811015615a0d5781810151838201526020016159f5565b838111156122745750506000910152565b6000600019821415615a3257615a32615a39565b5060010190565b634e487b7160e01b600052601160045260246000fd5b6001600160a01b038116811461440457600080fd5b801515811461440457600080fdfe416464726573733a206c6f772d6c6576656c2064656c65676174652063616c6c206661696c6564a264697066735822122004d6f315dbadc2e8ed17efee21fa4eefd3e069b9c9df20e68e8938d6ef5ff25d64736f6c63430008030033",
  "devdoc": {
    "author": "Zefram Lou",
    "details": "The contract to interact with for most actions",
    "kind": "dev",
    "methods": {
      "calculateInterestAmount(uint256,uint256)": {
        "params": {
          "depositAmount": "The deposit amount, in stablecoins",
          "depositPeriodInSeconds": "The deposit period, in seconds"
        },
        "returns": {
          "interestAmount": "The amount of fixed-rate interest (before fees)"
        }
      },
      "deposit(uint256,uint64)": {
        "details": "The ERC-721 NFT representing deposit ownership is given to msg.sender",
        "params": {
          "depositAmount": "The amount of deposit, in stablecoin",
          "maturationTimestamp": "The Unix timestamp of maturation, in seconds"
        },
        "returns": {
          "depositID": "The ID of the created deposit",
          "interestAmount": "The amount of fixed-rate interest"
        }
      },
      "depositsLength()": {
        "returns": {
          "_0": "deposits.length"
        }
      },
      "fund(uint64,uint256)": {
        "details": "The sender receives ERC-1155 multitokens (fundingMultitoken) representing their floating-rate bonds.",
        "params": {
          "depositID": "The deposit whose fixed-rate interest will be funded",
          "fundAmount": "The amount of fixed-rate interest to fund. If it exceeds surplusOfDeposit(depositID), it will be set to the surplus value instead.",
          "fundingID": "The ID of the fundingMultitoken the sender received"
        }
      },
      "fundingListLength()": {
        "returns": {
          "_0": "fundingList.length"
        }
      },
      "getDeposit(uint64)": {
        "params": {
          "depositID": "The ID of the deposit"
        },
        "returns": {
          "_0": "The deposit struct"
        }
      },
      "getFunding(uint64)": {
        "params": {
          "fundingID": "The ID of the floating-rate bond"
        },
        "returns": {
          "_0": "The Funding struct"
        }
      },
      "initialize(uint64,uint256,address,address,address,address,address,address,address,address)": {
        "params": {
          "_MaxDepositPeriod": "The maximum deposit period, in seconds",
          "_MinDepositAmount": "The minimum deposit amount, in stablecoins",
          "_depositNFT": "Address of the NFT representing ownership of deposits (owner must be set to this DInterest contract)",
          "_feeModel": "Address of the FeeModel contract that determines how fees are charged",
          "_fundingMultitoken": "Address of the ERC1155 multitoken representing ownership of fundings (this DInterest contract must have the minter-burner role)",
          "_interestModel": "Address of the InterestModel contract that determines how much interest to offer",
          "_interestOracle": "Address of the InterestOracle contract that provides the average interest rate",
          "_moneyMarket": "Address of MoneyMarket that's used for generating interest (owner must be set to this DInterest contract)",
          "_mphMinter": "Address of the contract for handling minting MPH to users",
          "_stablecoin": "Address of the stablecoin used to store funds"
        }
      },
      "multicall(bytes[])": {
        "details": "Receives and executes a batch of function calls on this contract."
      },
      "owner()": {
        "details": "Returns the address of the current owner."
      },
      "payInterestToFunders(uint64)": {
        "params": {
          "fundingID": "The ID of the floating-rate bond"
        },
        "returns": {
          "interestAmount": "The amount of interest distributed, in stablecoins"
        }
      },
      "rawSurplusOfDeposit(uint64)": {
        "params": {
          "depositID": "The ID of the deposit"
        },
        "returns": {
          "isNegative": "True if the surplus is negative, false otherwise",
          "surplusAmount": "The absolute value of the surplus, in stablecoins"
        }
      },
      "renounceOwnership()": {
        "details": "Leaves the contract without owner. It will not be possible to call `onlyOwner` functions anymore. Can only be called by the current owner. NOTE: Renouncing ownership will leave the contract without an owner, thereby removing any functionality that is only available to the owner."
      },
      "rescue(address,address)": {
        "details": "Need to implement {_authorizeRescue} to do access-control for this function.",
        "params": {
          "target": "The address to send the tokens to",
          "token": "The ERC20 token to rescue"
        }
      },
      "rolloverDeposit(uint64,uint64)": {
        "params": {
          "depositID": "The deposit to roll over",
          "maturationTimestamp": "The Unix timestamp of the new deposit, in seconds"
        },
        "returns": {
          "newDepositID": "The ID of the new deposit"
        }
      },
      "surplus()": {
        "returns": {
          "isNegative": "True if the surplus is negative, false otherwise",
          "surplusAmount": "The absolute value of the surplus, in stablecoins"
        }
      },
      "topupDeposit(uint64,uint256)": {
        "details": "The interest rate for the topped up funds will be the current oracle rate.",
        "params": {
          "depositAmount": "The amount to top up, in stablecoin",
          "depositID": "The deposit to top up"
        },
        "returns": {
          "interestAmount": "The amount of interest that will be earned by the topped up funds at maturation"
        }
      },
      "transferOwnership(address)": {
        "details": "Transfers ownership of the contract to a new account (`newOwner`). Can only be called by the current owner."
      },
      "withdraw(uint64,uint256,bool)": {
        "details": "Virtual tokens behave like zero coupon bonds, after maturation withdrawing 1 virtual token yields 1 stablecoin. The total supply is given by deposit.virtualTokenTotalSupply",
        "params": {
          "depositID": "the deposit to withdraw from",
          "early": "True if intend to withdraw before maturation, false otherwise",
          "virtualTokenAmount": "the amount of virtual tokens to withdraw"
        },
        "returns": {
          "withdrawnStablecoinAmount": "the amount of stablecoins withdrawn"
        }
      }
    },
    "stateVariables": {
      "EXTRA_PRECISION": {
        "details": "used for sumOfRecordedFundedPrincipalAmountDivRecordedIncomeIndex"
      },
      "MaxDepositPeriod": {
        "details": "Maximum deposit period, in seconds"
      },
      "MinDepositAmount": {
        "details": "Minimum deposit amount, in stablecoins"
      },
      "ULTRA_PRECISION": {
        "details": "used for funding.principalPerToken"
      }
    },
    "title": "DeLorean Interest -- It's coming back from the future!",
    "version": 1
  },
  "userdoc": {
    "kind": "user",
    "methods": {
      "calculateInterestAmount(uint256,uint256)": {
        "notice": "Computes the amount of fixed-rate interest (before fees) that will be given to a deposit of `depositAmount` stablecoins that matures in `depositPeriodInSeconds` seconds."
      },
      "deposit(uint256,uint64)": {
        "notice": "Create a deposit using `depositAmount` stablecoin that matures at timestamp `maturationTimestamp`."
      },
      "depositsLength()": {
        "notice": "Returns the total number of deposits."
      },
      "fund(uint64,uint256)": {
        "notice": "Funds the fixed-rate interest of the deposit with ID `depositID`. In exchange, the funder receives the future floating-rate interest generated by the portion of the deposit whose interest was funded."
      },
      "fundingListLength()": {
        "notice": "Returns the total number of floating-rate bonds."
      },
      "getDeposit(uint64)": {
        "notice": "Returns the Deposit struct associated with the deposit with ID `depositID`."
      },
      "getFunding(uint64)": {
        "notice": "Returns the Funding struct associated with the floating-rate bond with ID `fundingID`."
      },
      "payInterestToFunders(uint64)": {
        "notice": "Distributes the floating-rate interest accrued by a deposit to the floating-rate bond holders."
      },
      "rawSurplusOfDeposit(uint64)": {
        "notice": "Computes the raw surplus of a deposit, which is the current value of the deposit in the money market minus the amount owed (deposit + interest + fee). The deposit's funding status is not considered here, meaning even if a deposit's fixed-rate interest is fully funded, it likely will still have a non-zero surplus."
      },
      "rescue(address,address)": {
        "notice": "Rescues ERC20 tokens sent to the contract in error."
      },
      "rolloverDeposit(uint64,uint64)": {
        "notice": "Withdraw all funds from deposit with ID `depositID` and use them to create a new deposit that matures at time `maturationTimestamp`"
      },
      "setFeeModel(address)": {
        "notice": "Param setters (only callable by the owner)"
      },
      "sponsoredDeposit(uint256,uint64,(address,address,address,uint256,uint256,uint256,uint256,bytes32,bytes32))": {
        "notice": "Sponsored action functions"
      },
      "surplus()": {
        "notice": "Computes the pool's overall surplus, which is the value of its holdings in the `moneyMarket` minus the amount owed to depositors, funders, and the fee beneficiary."
      },
      "topupDeposit(uint64,uint256)": {
        "notice": "Add `depositAmount` stablecoin to the existing deposit with ID `depositID`."
      },
      "withdraw(uint64,uint256,bool)": {
        "notice": "Withdraws funds from the deposit with ID `depositID`."
      }
    },
    "notice": "The main pool contract for fixed-rate deposits",
    "version": 1
  },
  "storageLayout": {
    "storage": [
      {
        "astId": 612,
        "contract": "contracts/DInterest.sol:DInterest",
        "label": "_initialized",
        "offset": 0,
        "slot": "0",
        "type": "t_bool"
      },
      {
        "astId": 615,
        "contract": "contracts/DInterest.sol:DInterest",
        "label": "_initializing",
        "offset": 1,
        "slot": "0",
        "type": "t_bool"
      },
      {
        "astId": 666,
        "contract": "contracts/DInterest.sol:DInterest",
        "label": "_status",
        "offset": 0,
        "slot": "1",
        "type": "t_uint256"
      },
      {
        "astId": 709,
        "contract": "contracts/DInterest.sol:DInterest",
        "label": "__gap",
        "offset": 0,
        "slot": "2",
        "type": "t_array(t_uint256)49_storage"
      },
      {
        "astId": 3064,
        "contract": "contracts/DInterest.sol:DInterest",
        "label": "__gap",
        "offset": 0,
        "slot": "51",
        "type": "t_array(t_uint256)50_storage"
      },
      {
        "astId": 406,
        "contract": "contracts/DInterest.sol:DInterest",
        "label": "_owner",
        "offset": 0,
        "slot": "101",
        "type": "t_address"
      },
      {
        "astId": 525,
        "contract": "contracts/DInterest.sol:DInterest",
        "label": "__gap",
        "offset": 0,
        "slot": "102",
        "type": "t_array(t_uint256)49_storage"
      },
      {
        "astId": 13754,
        "contract": "contracts/DInterest.sol:DInterest",
        "label": "__gap",
        "offset": 0,
        "slot": "151",
        "type": "t_array(t_uint256)50_storage"
      },
      {
        "astId": 3204,
        "contract": "contracts/DInterest.sol:DInterest",
        "label": "__gap",
        "offset": 0,
        "slot": "201",
        "type": "t_array(t_uint256)50_storage"
      },
      {
        "astId": 13936,
        "contract": "contracts/DInterest.sol:DInterest",
        "label": "accountNonce",
        "offset": 0,
        "slot": "251",
        "type": "t_mapping(t_address,t_uint256)"
      },
      {
        "astId": 14124,
        "contract": "contracts/DInterest.sol:DInterest",
        "label": "__gap",
        "offset": 0,
        "slot": "252",
        "type": "t_array(t_uint256)49_storage"
      },
      {
        "astId": 5979,
        "contract": "contracts/DInterest.sol:DInterest",
        "label": "deposits",
        "offset": 0,
        "slot": "301",
        "type": "t_array(t_struct(Deposit)5975_storage)dyn_storage"
      },
      {
        "astId": 5992,
        "contract": "contracts/DInterest.sol:DInterest",
        "label": "fundingList",
        "offset": 0,
        "slot": "302",
        "type": "t_array(t_struct(Funding)5988_storage)dyn_storage"
      },
      {
        "astId": 5994,
        "contract": "contracts/DInterest.sol:DInterest",
        "label": "sumOfRecordedFundedPrincipalAmountDivRecordedIncomeIndex",
        "offset": 0,
        "slot": "303",
        "type": "t_uint256"
      },
      {
        "astId": 5997,
        "contract": "contracts/DInterest.sol:DInterest",
        "label": "MaxDepositPeriod",
        "offset": 0,
        "slot": "304",
        "type": "t_uint64"
      },
      {
        "astId": 6000,
        "contract": "contracts/DInterest.sol:DInterest",
        "label": "MinDepositAmount",
        "offset": 0,
        "slot": "305",
        "type": "t_uint256"
      },
      {
        "astId": 6002,
        "contract": "contracts/DInterest.sol:DInterest",
        "label": "totalDeposit",
        "offset": 0,
        "slot": "306",
        "type": "t_uint256"
      },
      {
        "astId": 6004,
        "contract": "contracts/DInterest.sol:DInterest",
        "label": "totalInterestOwed",
        "offset": 0,
        "slot": "307",
        "type": "t_uint256"
      },
      {
        "astId": 6006,
        "contract": "contracts/DInterest.sol:DInterest",
        "label": "totalFeeOwed",
        "offset": 0,
        "slot": "308",
        "type": "t_uint256"
      },
      {
        "astId": 6008,
        "contract": "contracts/DInterest.sol:DInterest",
        "label": "totalFundedPrincipalAmount",
        "offset": 0,
        "slot": "309",
        "type": "t_uint256"
      },
      {
        "astId": 6011,
        "contract": "contracts/DInterest.sol:DInterest",
        "label": "moneyMarket",
        "offset": 0,
        "slot": "310",
        "type": "t_contract(MoneyMarket)17142"
      },
      {
        "astId": 6014,
        "contract": "contracts/DInterest.sol:DInterest",
        "label": "stablecoin",
        "offset": 0,
        "slot": "311",
        "type": "t_contract(ERC20)4992"
      },
      {
        "astId": 6017,
        "contract": "contracts/DInterest.sol:DInterest",
        "label": "feeModel",
        "offset": 0,
        "slot": "312",
        "type": "t_contract(IFeeModel)16210"
      },
      {
        "astId": 6020,
        "contract": "contracts/DInterest.sol:DInterest",
        "label": "interestModel",
        "offset": 0,
        "slot": "313",
        "type": "t_contract(IInterestModel)16862"
      },
      {
        "astId": 6023,
        "contract": "contracts/DInterest.sol:DInterest",
        "label": "interestOracle",
        "offset": 0,
        "slot": "314",
        "type": "t_contract(IInterestOracle)16844"
      },
      {
        "astId": 6026,
        "contract": "contracts/DInterest.sol:DInterest",
        "label": "depositNFT",
        "offset": 0,
        "slot": "315",
        "type": "t_contract(NFT)22984"
      },
      {
        "astId": 6029,
        "contract": "contracts/DInterest.sol:DInterest",
        "label": "fundingMultitoken",
        "offset": 0,
        "slot": "316",
        "type": "t_contract(FundingMultitoken)22856"
      },
      {
        "astId": 6032,
        "contract": "contracts/DInterest.sol:DInterest",
        "label": "mphMinter",
        "offset": 0,
        "slot": "317",
        "type": "t_contract(MPHMinter)20660"
      },
      {
        "astId": 9073,
        "contract": "contracts/DInterest.sol:DInterest",
        "label": "__gap",
        "offset": 0,
        "slot": "318",
        "type": "t_array(t_uint256)33_storage"
      }
    ],
    "types": {
      "t_address": {
        "encoding": "inplace",
        "label": "address",
        "numberOfBytes": "20"
      },
      "t_array(t_struct(Deposit)5975_storage)dyn_storage": {
        "base": "t_struct(Deposit)5975_storage",
        "encoding": "dynamic_array",
        "label": "struct DInterest.Deposit[]",
        "numberOfBytes": "32"
      },
      "t_array(t_struct(Funding)5988_storage)dyn_storage": {
        "base": "t_struct(Funding)5988_storage",
        "encoding": "dynamic_array",
        "label": "struct DInterest.Funding[]",
        "numberOfBytes": "32"
      },
      "t_array(t_uint256)33_storage": {
        "base": "t_uint256",
        "encoding": "inplace",
        "label": "uint256[33]",
        "numberOfBytes": "1056"
      },
      "t_array(t_uint256)49_storage": {
        "base": "t_uint256",
        "encoding": "inplace",
        "label": "uint256[49]",
        "numberOfBytes": "1568"
      },
      "t_array(t_uint256)50_storage": {
        "base": "t_uint256",
        "encoding": "inplace",
        "label": "uint256[50]",
        "numberOfBytes": "1600"
      },
      "t_bool": {
        "encoding": "inplace",
        "label": "bool",
        "numberOfBytes": "1"
      },
      "t_contract(ERC20)4992": {
        "encoding": "inplace",
        "label": "contract ERC20",
        "numberOfBytes": "20"
      },
      "t_contract(FundingMultitoken)22856": {
        "encoding": "inplace",
        "label": "contract FundingMultitoken",
        "numberOfBytes": "20"
      },
      "t_contract(IFeeModel)16210": {
        "encoding": "inplace",
        "label": "contract IFeeModel",
        "numberOfBytes": "20"
      },
      "t_contract(IInterestModel)16862": {
        "encoding": "inplace",
        "label": "contract IInterestModel",
        "numberOfBytes": "20"
      },
      "t_contract(IInterestOracle)16844": {
        "encoding": "inplace",
        "label": "contract IInterestOracle",
        "numberOfBytes": "20"
      },
      "t_contract(MPHMinter)20660": {
        "encoding": "inplace",
        "label": "contract MPHMinter",
        "numberOfBytes": "20"
      },
      "t_contract(MoneyMarket)17142": {
        "encoding": "inplace",
        "label": "contract MoneyMarket",
        "numberOfBytes": "20"
      },
      "t_contract(NFT)22984": {
        "encoding": "inplace",
        "label": "contract NFT",
        "numberOfBytes": "20"
      },
      "t_mapping(t_address,t_uint256)": {
        "encoding": "mapping",
        "key": "t_address",
        "label": "mapping(address => uint256)",
        "numberOfBytes": "32",
        "value": "t_uint256"
      },
      "t_struct(Deposit)5975_storage": {
        "encoding": "inplace",
        "label": "struct DInterest.Deposit",
        "members": [
          {
            "astId": 5964,
            "contract": "contracts/DInterest.sol:DInterest",
            "label": "virtualTokenTotalSupply",
            "offset": 0,
            "slot": "0",
            "type": "t_uint256"
          },
          {
            "astId": 5966,
            "contract": "contracts/DInterest.sol:DInterest",
            "label": "interestRate",
            "offset": 0,
            "slot": "1",
            "type": "t_uint256"
          },
          {
            "astId": 5968,
            "contract": "contracts/DInterest.sol:DInterest",
            "label": "feeRate",
            "offset": 0,
            "slot": "2",
            "type": "t_uint256"
          },
          {
            "astId": 5970,
            "contract": "contracts/DInterest.sol:DInterest",
            "label": "averageRecordedIncomeIndex",
            "offset": 0,
            "slot": "3",
            "type": "t_uint256"
          },
          {
            "astId": 5972,
            "contract": "contracts/DInterest.sol:DInterest",
            "label": "maturationTimestamp",
            "offset": 0,
            "slot": "4",
            "type": "t_uint64"
          },
          {
            "astId": 5974,
            "contract": "contracts/DInterest.sol:DInterest",
            "label": "fundingID",
            "offset": 8,
            "slot": "4",
            "type": "t_uint64"
          }
        ],
        "numberOfBytes": "160"
      },
      "t_struct(Funding)5988_storage": {
        "encoding": "inplace",
        "label": "struct DInterest.Funding",
        "members": [
          {
            "astId": 5981,
            "contract": "contracts/DInterest.sol:DInterest",
            "label": "depositID",
            "offset": 0,
            "slot": "0",
            "type": "t_uint64"
          },
          {
            "astId": 5983,
            "contract": "contracts/DInterest.sol:DInterest",
            "label": "lastInterestPayoutTimestamp",
            "offset": 8,
            "slot": "0",
            "type": "t_uint64"
          },
          {
            "astId": 5985,
            "contract": "contracts/DInterest.sol:DInterest",
            "label": "recordedMoneyMarketIncomeIndex",
            "offset": 0,
            "slot": "1",
            "type": "t_uint256"
          },
          {
            "astId": 5987,
            "contract": "contracts/DInterest.sol:DInterest",
            "label": "principalPerToken",
            "offset": 0,
            "slot": "2",
            "type": "t_uint256"
          }
        ],
        "numberOfBytes": "96"
      },
      "t_uint256": {
        "encoding": "inplace",
        "label": "uint256",
        "numberOfBytes": "32"
      },
      "t_uint64": {
        "encoding": "inplace",
        "label": "uint64",
        "numberOfBytes": "8"
      }
    }
  }
}