{
  "address": "0x0de73F6Ae62270fF46F070d662aBB44C8B7DD3A9",
  "abi": [
    {
      "anonymous": false,
      "inputs": [
        {
          "indexed": true,
          "internalType": "address",
          "name": "sender",
          "type": "address"
        },
        {
          "indexed": true,
          "internalType": "uint256",
          "name": "depositID",
          "type": "uint256"
        },
        {
          "indexed": false,
          "internalType": "uint256",
          "name": "depositAmount",
          "type": "uint256"
        },
        {
          "indexed": false,
          "internalType": "uint256",
          "name": "interestAmount",
          "type": "uint256"
        },
        {
          "indexed": false,
          "internalType": "uint256",
          "name": "feeAmount",
          "type": "uint256"
        },
        {
          "indexed": false,
          "internalType": "uint64",
          "name": "maturationTimestamp",
          "type": "uint64"
        }
      ],
      "name": "EDeposit",
      "type": "event"
    },
    {
      "anonymous": false,
      "inputs": [
        {
          "indexed": true,
          "internalType": "address",
          "name": "sender",
          "type": "address"
        },
        {
          "indexed": true,
          "internalType": "uint64",
          "name": "fundingID",
          "type": "uint64"
        },
        {
          "indexed": false,
          "internalType": "uint256",
          "name": "fundAmount",
          "type": "uint256"
        },
        {
          "indexed": false,
          "internalType": "uint256",
          "name": "tokenAmount",
          "type": "uint256"
        }
      ],
      "name": "EFund",
      "type": "event"
    },
    {
      "anonymous": false,
      "inputs": [
        {
          "indexed": true,
          "internalType": "uint256",
          "name": "fundingID",
          "type": "uint256"
        },
        {
          "indexed": false,
          "internalType": "uint256",
          "name": "interestAmount",
          "type": "uint256"
        },
        {
          "indexed": false,
          "internalType": "uint256",
          "name": "refundAmount",
          "type": "uint256"
        }
      ],
      "name": "EPayFundingInterest",
      "type": "event"
    },
    {
      "anonymous": false,
      "inputs": [
        {
          "indexed": true,
          "internalType": "address",
          "name": "sender",
          "type": "address"
        },
        {
          "indexed": true,
          "internalType": "uint64",
          "name": "depositID",
          "type": "uint64"
        },
        {
          "indexed": true,
          "internalType": "uint64",
          "name": "newDepositID",
          "type": "uint64"
        }
      ],
      "name": "ERolloverDeposit",
      "type": "event"
    },
    {
      "anonymous": false,
      "inputs": [
        {
          "indexed": true,
          "internalType": "address",
          "name": "sender",
          "type": "address"
        },
        {
          "indexed": true,
          "internalType": "string",
          "name": "paramName",
          "type": "string"
        },
        {
          "indexed": false,
          "internalType": "address",
          "name": "newValue",
          "type": "address"
        }
      ],
      "name": "ESetParamAddress",
      "type": "event"
    },
    {
      "anonymous": false,
      "inputs": [
        {
          "indexed": true,
          "internalType": "address",
          "name": "sender",
          "type": "address"
        },
        {
          "indexed": true,
          "internalType": "string",
          "name": "paramName",
          "type": "string"
        },
        {
          "indexed": false,
          "internalType": "uint256",
          "name": "newValue",
          "type": "uint256"
        }
      ],
      "name": "ESetParamUint",
      "type": "event"
    },
    {
      "anonymous": false,
      "inputs": [
        {
          "indexed": true,
          "internalType": "address",
          "name": "sender",
          "type": "address"
        },
        {
          "indexed": true,
          "internalType": "uint64",
          "name": "depositID",
          "type": "uint64"
        },
        {
          "indexed": false,
          "internalType": "uint256",
          "name": "depositAmount",
          "type": "uint256"
        },
        {
          "indexed": false,
          "internalType": "uint256",
          "name": "interestAmount",
          "type": "uint256"
        },
        {
          "indexed": false,
          "internalType": "uint256",
          "name": "feeAmount",
          "type": "uint256"
        }
      ],
      "name": "ETopupDeposit",
      "type": "event"
    },
    {
      "anonymous": false,
      "inputs": [
        {
          "indexed": true,
          "internalType": "address",
          "name": "sender",
          "type": "address"
        },
        {
          "indexed": true,
          "internalType": "uint256",
          "name": "depositID",
          "type": "uint256"
        },
        {
          "indexed": true,
          "internalType": "bool",
          "name": "early",
          "type": "bool"
        },
        {
          "indexed": false,
          "internalType": "uint256",
          "name": "virtualTokenAmount",
          "type": "uint256"
        },
        {
          "indexed": false,
          "internalType": "uint256",
          "name": "feeAmount",
          "type": "uint256"
        }
      ],
      "name": "EWithdraw",
      "type": "event"
    },
    {
      "anonymous": false,
      "inputs": [
        {
          "indexed": true,
          "internalType": "address",
          "name": "previousOwner",
          "type": "address"
        },
        {
          "indexed": true,
          "internalType": "address",
          "name": "newOwner",
          "type": "address"
        }
      ],
      "name": "OwnershipTransferred",
      "type": "event"
    },
    {
      "inputs": [],
      "name": "MaxDepositPeriod",
      "outputs": [
        {
          "internalType": "uint64",
          "name": "",
          "type": "uint64"
        }
      ],
      "stateMutability": "view",
      "type": "function"
    },
    {
      "inputs": [],
      "name": "MinDepositAmount",
      "outputs": [
        {
          "internalType": "uint256",
          "name": "",
          "type": "uint256"
        }
      ],
      "stateMutability": "view",
      "type": "function"
    },
    {
      "inputs": [
        {
          "internalType": "address",
          "name": "",
          "type": "address"
        }
      ],
      "name": "accountNonce",
      "outputs": [
        {
          "internalType": "uint256",
          "name": "",
          "type": "uint256"
        }
      ],
      "stateMutability": "view",
      "type": "function"
    },
    {
      "inputs": [
        {
          "internalType": "uint256",
          "name": "depositAmount",
          "type": "uint256"
        },
        {
          "internalType": "uint256",
          "name": "depositPeriodInSeconds",
          "type": "uint256"
        }
      ],
      "name": "calculateInterestAmount",
      "outputs": [
        {
          "internalType": "uint256",
          "name": "interestAmount",
          "type": "uint256"
        }
      ],
      "stateMutability": "nonpayable",
      "type": "function"
    },
    {
      "inputs": [
        {
          "internalType": "uint64",
          "name": "depositID",
          "type": "uint64"
        },
        {
          "internalType": "uint256",
          "name": "newFeeRate",
          "type": "uint256"
        }
      ],
      "name": "decreaseFeeForDeposit",
      "outputs": [],
      "stateMutability": "nonpayable",
      "type": "function"
    },
    {
      "inputs": [
        {
          "internalType": "uint256",
          "name": "depositAmount",
          "type": "uint256"
        },
        {
          "internalType": "uint64",
          "name": "maturationTimestamp",
          "type": "uint64"
        }
      ],
      "name": "deposit",
      "outputs": [
        {
          "internalType": "uint64",
          "name": "depositID",
          "type": "uint64"
        },
        {
          "internalType": "uint256",
          "name": "interestAmount",
          "type": "uint256"
        }
      ],
      "stateMutability": "nonpayable",
      "type": "function"
    },
    {
      "inputs": [],
      "name": "depositNFT",
      "outputs": [
        {
          "internalType": "contract NFT",
          "name": "",
          "type": "address"
        }
      ],
      "stateMutability": "view",
      "type": "function"
    },
    {
      "inputs": [],
      "name": "depositsLength",
      "outputs": [
        {
          "internalType": "uint256",
          "name": "",
          "type": "uint256"
        }
      ],
      "stateMutability": "view",
      "type": "function"
    },
    {
      "inputs": [],
      "name": "feeModel",
      "outputs": [
        {
          "internalType": "contract IFeeModel",
          "name": "",
          "type": "address"
        }
      ],
      "stateMutability": "view",
      "type": "function"
    },
    {
      "inputs": [
        {
          "internalType": "uint64",
          "name": "depositID",
          "type": "uint64"
        },
        {
          "internalType": "uint256",
          "name": "fundAmount",
          "type": "uint256"
        }
      ],
      "name": "fund",
      "outputs": [
        {
          "internalType": "uint64",
          "name": "fundingID",
          "type": "uint64"
        }
      ],
      "stateMutability": "nonpayable",
      "type": "function"
    },
    {
      "inputs": [],
      "name": "fundingListLength",
      "outputs": [
        {
          "internalType": "uint256",
          "name": "",
          "type": "uint256"
        }
      ],
      "stateMutability": "view",
      "type": "function"
    },
    {
      "inputs": [],
      "name": "fundingMultitoken",
      "outputs": [
        {
          "internalType": "contract FundingMultitoken",
          "name": "",
          "type": "address"
        }
      ],
      "stateMutability": "view",
      "type": "function"
    },
    {
      "inputs": [
        {
          "internalType": "uint64",
          "name": "depositID",
          "type": "uint64"
        }
      ],
      "name": "getDeposit",
      "outputs": [
        {
          "components": [
            {
              "internalType": "uint256",
              "name": "virtualTokenTotalSupply",
              "type": "uint256"
            },
            {
              "internalType": "uint256",
              "name": "interestRate",
              "type": "uint256"
            },
            {
              "internalType": "uint256",
              "name": "feeRate",
              "type": "uint256"
            },
            {
              "internalType": "uint256",
              "name": "averageRecordedIncomeIndex",
              "type": "uint256"
            },
            {
              "internalType": "uint64",
              "name": "maturationTimestamp",
              "type": "uint64"
            },
            {
              "internalType": "uint64",
              "name": "fundingID",
              "type": "uint64"
            }
          ],
          "internalType": "struct DInterest.Deposit",
          "name": "",
          "type": "tuple"
        }
      ],
      "stateMutability": "view",
      "type": "function"
    },
    {
      "inputs": [
        {
          "internalType": "uint64",
          "name": "fundingID",
          "type": "uint64"
        }
      ],
      "name": "getFunding",
      "outputs": [
        {
          "components": [
            {
              "internalType": "uint64",
              "name": "depositID",
              "type": "uint64"
            },
            {
              "internalType": "uint64",
              "name": "lastInterestPayoutTimestamp",
              "type": "uint64"
            },
            {
              "internalType": "uint256",
              "name": "recordedMoneyMarketIncomeIndex",
              "type": "uint256"
            },
            {
              "internalType": "uint256",
              "name": "principalPerToken",
              "type": "uint256"
            }
          ],
          "internalType": "struct DInterest.Funding",
          "name": "",
          "type": "tuple"
        }
      ],
      "stateMutability": "view",
      "type": "function"
    },
    {
      "inputs": [
        {
          "internalType": "uint64",
          "name": "_MaxDepositPeriod",
          "type": "uint64"
        },
        {
          "internalType": "uint256",
          "name": "_MinDepositAmount",
          "type": "uint256"
        },
        {
          "internalType": "address",
          "name": "_moneyMarket",
          "type": "address"
        },
        {
          "internalType": "address",
          "name": "_stablecoin",
          "type": "address"
        },
        {
          "internalType": "address",
          "name": "_feeModel",
          "type": "address"
        },
        {
          "internalType": "address",
          "name": "_interestModel",
          "type": "address"
        },
        {
          "internalType": "address",
          "name": "_interestOracle",
          "type": "address"
        },
        {
          "internalType": "address",
          "name": "_depositNFT",
          "type": "address"
        },
        {
          "internalType": "address",
          "name": "_fundingMultitoken",
          "type": "address"
        },
        {
          "internalType": "address",
          "name": "_mphMinter",
          "type": "address"
        }
      ],
      "name": "initialize",
      "outputs": [],
      "stateMutability": "nonpayable",
      "type": "function"
    },
    {
      "inputs": [],
      "name": "interestModel",
      "outputs": [
        {
          "internalType": "contract IInterestModel",
          "name": "",
          "type": "address"
        }
      ],
      "stateMutability": "view",
      "type": "function"
    },
    {
      "inputs": [],
      "name": "interestOracle",
      "outputs": [
        {
          "internalType": "contract IInterestOracle",
          "name": "",
          "type": "address"
        }
      ],
      "stateMutability": "view",
      "type": "function"
    },
    {
      "inputs": [],
      "name": "moneyMarket",
      "outputs": [
        {
          "internalType": "contract MoneyMarket",
          "name": "",
          "type": "address"
        }
      ],
      "stateMutability": "view",
      "type": "function"
    },
    {
      "inputs": [],
      "name": "mphMinter",
      "outputs": [
        {
          "internalType": "contract MPHMinter",
          "name": "",
          "type": "address"
        }
      ],
      "stateMutability": "view",
      "type": "function"
    },
    {
      "inputs": [
        {
          "internalType": "bytes[]",
          "name": "data",
          "type": "bytes[]"
        }
      ],
      "name": "multicall",
      "outputs": [
        {
          "internalType": "bytes[]",
          "name": "results",
          "type": "bytes[]"
        }
      ],
      "stateMutability": "nonpayable",
      "type": "function"
    },
    {
      "inputs": [],
      "name": "owner",
      "outputs": [
        {
          "internalType": "address",
          "name": "",
          "type": "address"
        }
      ],
      "stateMutability": "view",
      "type": "function"
    },
    {
      "inputs": [
        {
          "internalType": "uint64",
          "name": "fundingID",
          "type": "uint64"
        }
      ],
      "name": "payInterestToFunders",
      "outputs": [
        {
          "internalType": "uint256",
          "name": "interestAmount",
          "type": "uint256"
        }
      ],
      "stateMutability": "nonpayable",
      "type": "function"
    },
    {
      "inputs": [
        {
          "internalType": "uint64",
          "name": "depositID",
          "type": "uint64"
        }
      ],
      "name": "rawSurplusOfDeposit",
      "outputs": [
        {
          "internalType": "bool",
          "name": "isNegative",
          "type": "bool"
        },
        {
          "internalType": "uint256",
          "name": "surplusAmount",
          "type": "uint256"
        }
      ],
      "stateMutability": "nonpayable",
      "type": "function"
    },
    {
      "inputs": [],
      "name": "renounceOwnership",
      "outputs": [],
      "stateMutability": "nonpayable",
      "type": "function"
    },
    {
      "inputs": [
        {
          "internalType": "address",
          "name": "token",
          "type": "address"
        },
        {
          "internalType": "address",
          "name": "target",
          "type": "address"
        }
      ],
      "name": "rescue",
      "outputs": [],
      "stateMutability": "nonpayable",
      "type": "function"
    },
    {
      "inputs": [
        {
          "internalType": "uint64",
          "name": "depositID",
          "type": "uint64"
        },
        {
          "internalType": "uint64",
          "name": "maturationTimestamp",
          "type": "uint64"
        }
      ],
      "name": "rolloverDeposit",
      "outputs": [
        {
          "internalType": "uint256",
          "name": "newDepositID",
          "type": "uint256"
        },
        {
          "internalType": "uint256",
          "name": "interestAmount",
          "type": "uint256"
        }
      ],
      "stateMutability": "nonpayable",
      "type": "function"
    },
    {
      "inputs": [
        {
          "internalType": "string",
          "name": "newURI",
          "type": "string"
        }
      ],
      "name": "setDepositNFTBaseURI",
      "outputs": [],
      "stateMutability": "nonpayable",
      "type": "function"
    },
    {
      "inputs": [
        {
          "internalType": "string",
          "name": "newURI",
          "type": "string"
        }
      ],
      "name": "setDepositNFTContractURI",
      "outputs": [],
      "stateMutability": "nonpayable",
      "type": "function"
    },
    {
      "inputs": [
        {
          "internalType": "address",
          "name": "newValue",
          "type": "address"
        }
      ],
      "name": "setFeeModel",
      "outputs": [],
      "stateMutability": "nonpayable",
      "type": "function"
    },
    {
      "inputs": [
        {
          "internalType": "address",
          "name": "newValue",
          "type": "address"
        }
      ],
      "name": "setInterestModel",
      "outputs": [],
      "stateMutability": "nonpayable",
      "type": "function"
    },
    {
      "inputs": [
        {
          "internalType": "address",
          "name": "newValue",
          "type": "address"
        }
      ],
      "name": "setInterestOracle",
      "outputs": [],
      "stateMutability": "nonpayable",
      "type": "function"
    },
    {
      "inputs": [
        {
          "internalType": "address",
          "name": "newValue",
          "type": "address"
        }
      ],
      "name": "setMPHMinter",
      "outputs": [],
      "stateMutability": "nonpayable",
      "type": "function"
    },
    {
      "inputs": [
        {
          "internalType": "uint64",
          "name": "newValue",
          "type": "uint64"
        }
      ],
      "name": "setMaxDepositPeriod",
      "outputs": [],
      "stateMutability": "nonpayable",
      "type": "function"
    },
    {
      "inputs": [
        {
          "internalType": "uint256",
          "name": "newValue",
          "type": "uint256"
        }
      ],
      "name": "setMinDepositAmount",
      "outputs": [],
      "stateMutability": "nonpayable",
      "type": "function"
    },
    {
      "inputs": [
        {
          "internalType": "address",
          "name": "newValue",
          "type": "address"
        }
      ],
      "name": "setRewards",
      "outputs": [],
      "stateMutability": "nonpayable",
      "type": "function"
    },
    {
      "inputs": [
        {
          "internalType": "address",
          "name": "recipient",
          "type": "address"
        }
      ],
      "name": "skimSurplus",
      "outputs": [],
      "stateMutability": "nonpayable",
      "type": "function"
    },
    {
      "inputs": [
        {
          "internalType": "uint256",
          "name": "depositAmount",
          "type": "uint256"
        },
        {
          "internalType": "uint64",
          "name": "maturationTimestamp",
          "type": "uint64"
        },
        {
          "components": [
            {
              "internalType": "address",
              "name": "sender",
              "type": "address"
            },
            {
              "internalType": "address",
              "name": "sponsor",
              "type": "address"
            },
            {
              "internalType": "address",
              "name": "sponsorFeeToken",
              "type": "address"
            },
            {
              "internalType": "uint256",
              "name": "sponsorFeeAmount",
              "type": "uint256"
            },
            {
              "internalType": "uint256",
              "name": "nonce",
              "type": "uint256"
            },
            {
              "internalType": "uint256",
              "name": "deadline",
              "type": "uint256"
            },
            {
              "internalType": "uint256",
              "name": "v",
              "type": "uint256"
            },
            {
              "internalType": "bytes32",
              "name": "r",
              "type": "bytes32"
            },
            {
              "internalType": "bytes32",
              "name": "s",
              "type": "bytes32"
            }
          ],
          "internalType": "struct Sponsorable.Sponsorship",
          "name": "sponsorship",
          "type": "tuple"
        }
      ],
      "name": "sponsoredDeposit",
      "outputs": [
        {
          "internalType": "uint64",
          "name": "depositID",
          "type": "uint64"
        },
        {
          "internalType": "uint256",
          "name": "interestAmount",
          "type": "uint256"
        }
      ],
      "stateMutability": "nonpayable",
      "type": "function"
    },
    {
      "inputs": [
        {
          "internalType": "uint64",
          "name": "depositID",
          "type": "uint64"
        },
        {
          "internalType": "uint256",
          "name": "fundAmount",
          "type": "uint256"
        },
        {
          "components": [
            {
              "internalType": "address",
              "name": "sender",
              "type": "address"
            },
            {
              "internalType": "address",
              "name": "sponsor",
              "type": "address"
            },
            {
              "internalType": "address",
              "name": "sponsorFeeToken",
              "type": "address"
            },
            {
              "internalType": "uint256",
              "name": "sponsorFeeAmount",
              "type": "uint256"
            },
            {
              "internalType": "uint256",
              "name": "nonce",
              "type": "uint256"
            },
            {
              "internalType": "uint256",
              "name": "deadline",
              "type": "uint256"
            },
            {
              "internalType": "uint256",
              "name": "v",
              "type": "uint256"
            },
            {
              "internalType": "bytes32",
              "name": "r",
              "type": "bytes32"
            },
            {
              "internalType": "bytes32",
              "name": "s",
              "type": "bytes32"
            }
          ],
          "internalType": "struct Sponsorable.Sponsorship",
          "name": "sponsorship",
          "type": "tuple"
        }
      ],
      "name": "sponsoredFund",
      "outputs": [
        {
          "internalType": "uint64",
          "name": "fundingID",
          "type": "uint64"
        }
      ],
      "stateMutability": "nonpayable",
      "type": "function"
    },
    {
      "inputs": [
        {
          "internalType": "uint64",
          "name": "fundingID",
          "type": "uint64"
        },
        {
          "components": [
            {
              "internalType": "address",
              "name": "sender",
              "type": "address"
            },
            {
              "internalType": "address",
              "name": "sponsor",
              "type": "address"
            },
            {
              "internalType": "address",
              "name": "sponsorFeeToken",
              "type": "address"
            },
            {
              "internalType": "uint256",
              "name": "sponsorFeeAmount",
              "type": "uint256"
            },
            {
              "internalType": "uint256",
              "name": "nonce",
              "type": "uint256"
            },
            {
              "internalType": "uint256",
              "name": "deadline",
              "type": "uint256"
            },
            {
              "internalType": "uint256",
              "name": "v",
              "type": "uint256"
            },
            {
              "internalType": "bytes32",
              "name": "r",
              "type": "bytes32"
            },
            {
              "internalType": "bytes32",
              "name": "s",
              "type": "bytes32"
            }
          ],
          "internalType": "struct Sponsorable.Sponsorship",
          "name": "sponsorship",
          "type": "tuple"
        }
      ],
      "name": "sponsoredPayInterestToFunders",
      "outputs": [
        {
          "internalType": "uint256",
          "name": "interestAmount",
          "type": "uint256"
        }
      ],
      "stateMutability": "nonpayable",
      "type": "function"
    },
    {
      "inputs": [
        {
          "internalType": "uint64",
          "name": "depositID",
          "type": "uint64"
        },
        {
          "internalType": "uint64",
          "name": "maturationTimestamp",
          "type": "uint64"
        },
        {
          "components": [
            {
              "internalType": "address",
              "name": "sender",
              "type": "address"
            },
            {
              "internalType": "address",
              "name": "sponsor",
              "type": "address"
            },
            {
              "internalType": "address",
              "name": "sponsorFeeToken",
              "type": "address"
            },
            {
              "internalType": "uint256",
              "name": "sponsorFeeAmount",
              "type": "uint256"
            },
            {
              "internalType": "uint256",
              "name": "nonce",
              "type": "uint256"
            },
            {
              "internalType": "uint256",
              "name": "deadline",
              "type": "uint256"
            },
            {
              "internalType": "uint256",
              "name": "v",
              "type": "uint256"
            },
            {
              "internalType": "bytes32",
              "name": "r",
              "type": "bytes32"
            },
            {
              "internalType": "bytes32",
              "name": "s",
              "type": "bytes32"
            }
          ],
          "internalType": "struct Sponsorable.Sponsorship",
          "name": "sponsorship",
          "type": "tuple"
        }
      ],
      "name": "sponsoredRolloverDeposit",
      "outputs": [
        {
          "internalType": "uint256",
          "name": "newDepositID",
          "type": "uint256"
        },
        {
          "internalType": "uint256",
          "name": "interestAmount",
          "type": "uint256"
        }
      ],
      "stateMutability": "nonpayable",
      "type": "function"
    },
    {
      "inputs": [
        {
          "internalType": "uint64",
          "name": "depositID",
          "type": "uint64"
        },
        {
          "internalType": "uint256",
          "name": "depositAmount",
          "type": "uint256"
        },
        {
          "components": [
            {
              "internalType": "address",
              "name": "sender",
              "type": "address"
            },
            {
              "internalType": "address",
              "name": "sponsor",
              "type": "address"
            },
            {
              "internalType": "address",
              "name": "sponsorFeeToken",
              "type": "address"
            },
            {
              "internalType": "uint256",
              "name": "sponsorFeeAmount",
              "type": "uint256"
            },
            {
              "internalType": "uint256",
              "name": "nonce",
              "type": "uint256"
            },
            {
              "internalType": "uint256",
              "name": "deadline",
              "type": "uint256"
            },
            {
              "internalType": "uint256",
              "name": "v",
              "type": "uint256"
            },
            {
              "internalType": "bytes32",
              "name": "r",
              "type": "bytes32"
            },
            {
              "internalType": "bytes32",
              "name": "s",
              "type": "bytes32"
            }
          ],
          "internalType": "struct Sponsorable.Sponsorship",
          "name": "sponsorship",
          "type": "tuple"
        }
      ],
      "name": "sponsoredTopupDeposit",
      "outputs": [
        {
          "internalType": "uint256",
          "name": "interestAmount",
          "type": "uint256"
        }
      ],
      "stateMutability": "nonpayable",
      "type": "function"
    },
    {
      "inputs": [
        {
          "internalType": "uint64",
          "name": "depositID",
          "type": "uint64"
        },
        {
          "internalType": "uint256",
          "name": "virtualTokenAmount",
          "type": "uint256"
        },
        {
          "internalType": "bool",
          "name": "early",
          "type": "bool"
        },
        {
          "components": [
            {
              "internalType": "address",
              "name": "sender",
              "type": "address"
            },
            {
              "internalType": "address",
              "name": "sponsor",
              "type": "address"
            },
            {
              "internalType": "address",
              "name": "sponsorFeeToken",
              "type": "address"
            },
            {
              "internalType": "uint256",
              "name": "sponsorFeeAmount",
              "type": "uint256"
            },
            {
              "internalType": "uint256",
              "name": "nonce",
              "type": "uint256"
            },
            {
              "internalType": "uint256",
              "name": "deadline",
              "type": "uint256"
            },
            {
              "internalType": "uint256",
              "name": "v",
              "type": "uint256"
            },
            {
              "internalType": "bytes32",
              "name": "r",
              "type": "bytes32"
            },
            {
              "internalType": "bytes32",
              "name": "s",
              "type": "bytes32"
            }
          ],
          "internalType": "struct Sponsorable.Sponsorship",
          "name": "sponsorship",
          "type": "tuple"
        }
      ],
      "name": "sponsoredWithdraw",
      "outputs": [
        {
          "internalType": "uint256",
          "name": "withdrawnStablecoinAmount",
          "type": "uint256"
        }
      ],
      "stateMutability": "nonpayable",
      "type": "function"
    },
    {
      "inputs": [],
      "name": "stablecoin",
      "outputs": [
        {
          "internalType": "contract ERC20",
          "name": "",
          "type": "address"
        }
      ],
      "stateMutability": "view",
      "type": "function"
    },
    {
      "inputs": [],
      "name": "sumOfRecordedFundedPrincipalAmountDivRecordedIncomeIndex",
      "outputs": [
        {
          "internalType": "uint256",
          "name": "",
          "type": "uint256"
        }
      ],
      "stateMutability": "view",
      "type": "function"
    },
    {
      "inputs": [],
      "name": "surplus",
      "outputs": [
        {
          "internalType": "bool",
          "name": "isNegative",
          "type": "bool"
        },
        {
          "internalType": "uint256",
          "name": "surplusAmount",
          "type": "uint256"
        }
      ],
      "stateMutability": "nonpayable",
      "type": "function"
    },
    {
      "inputs": [
        {
          "internalType": "uint64",
          "name": "depositID",
          "type": "uint64"
        },
        {
          "internalType": "uint256",
          "name": "depositAmount",
          "type": "uint256"
        }
      ],
      "name": "topupDeposit",
      "outputs": [
        {
          "internalType": "uint256",
          "name": "interestAmount",
          "type": "uint256"
        }
      ],
      "stateMutability": "nonpayable",
      "type": "function"
    },
    {
      "inputs": [],
      "name": "totalDeposit",
      "outputs": [
        {
          "internalType": "uint256",
          "name": "",
          "type": "uint256"
        }
      ],
      "stateMutability": "view",
      "type": "function"
    },
    {
      "inputs": [],
      "name": "totalFeeOwed",
      "outputs": [
        {
          "internalType": "uint256",
          "name": "",
          "type": "uint256"
        }
      ],
      "stateMutability": "view",
      "type": "function"
    },
    {
      "inputs": [],
      "name": "totalFundedPrincipalAmount",
      "outputs": [
        {
          "internalType": "uint256",
          "name": "",
          "type": "uint256"
        }
      ],
      "stateMutability": "view",
      "type": "function"
    },
    {
      "inputs": [],
      "name": "totalInterestOwed",
      "outputs": [
        {
          "internalType": "uint256",
          "name": "",
          "type": "uint256"
        }
      ],
      "stateMutability": "view",
      "type": "function"
    },
    {
      "inputs": [
        {
          "internalType": "address",
          "name": "newOwner",
          "type": "address"
        }
      ],
      "name": "transferOwnership",
      "outputs": [],
      "stateMutability": "nonpayable",
      "type": "function"
    },
    {
      "inputs": [
        {
          "internalType": "uint64",
          "name": "depositID",
          "type": "uint64"
        },
        {
          "internalType": "uint256",
          "name": "virtualTokenAmount",
          "type": "uint256"
        },
        {
          "internalType": "bool",
          "name": "early",
          "type": "bool"
        }
      ],
      "name": "withdraw",
      "outputs": [
        {
          "internalType": "uint256",
          "name": "withdrawnStablecoinAmount",
          "type": "uint256"
        }
      ],
      "stateMutability": "nonpayable",
      "type": "function"
    }
  ],
  "transactionHash": "0x47dbee476cea55e045216a7471fc1d6146723cc68975f94d77232af0fa721733",
  "args": [],
  "solcInputHash": "fbe95786a37438a01254e8361288bd45",
  "bytecode": "0x608060405234801561001057600080fd5b50615aeb80620000216000396000f3fe608060405234801561001057600080fd5b506004361061030c5760003560e01c80638f91a1df1161019d578063d372bc44116100e9578063ec38a862116100a2578063f28eae8c1161007c578063f28eae8c1461079b578063f2fde38b146107ae578063f6153ccd146107c1578063f8e1152a146107cb5761030c565b8063ec38a8621461076c578063f154240a1461077f578063f20b1c76146107885761030c565b8063d372bc4414610701578063d3f8d66714610714578063d6d75f511461071e578063e46bcf9814610732578063e676e86314610745578063e9cbd822146107585761030c565b8063ac165d7a11610156578063b4b1f22f11610130578063b4b1f22f146106a9578063bc135d75146106d1578063c016cfd6146106e4578063d2402b19146106f75761030c565b8063ac165d7a14610607578063ac9650d81461061b578063ae59a6b21461063b5761030c565b80638f91a1df146105935780639530d77e146105a657806397ee1144146105b95780639a372cc7146105cd578063a5a9504e146105e0578063a832806b146105f35761030c565b80634fdf5d1d1161025c5780636e3f5d52116102155780637f2b0e4e116101ef5780637f2b0e4e1461051657806386b8f9f1146105205780638da5cb5b146105785780638f168c93146105895761030c565b80636e3f5d52146104c9578063715018a6146104dc5780637d552ea6146104e45761030c565b80634fdf5d1d14610455578063593b150d146104685780635c53ba261461047b5780635dc05d7f1461048e578063678fd937146104a257806367e3c4d4146104b55761030c565b80631ee2e389116102c95780632808bf53116102a35780632808bf53146103f05780632a80cda3146104035780632fc082ff1461041657806347857296146104425761030c565b80631ee2e3891461039e5780632125b984146103b1578063259fc70f146103c45761030c565b806301f2249b1461031157806304e5f21d1461032657806308b856d714610343578063106cffe21461034c578063138885651461036c5780631e3648931461038b575b600080fd5b61032461031f366004615145565b6107de565b005b6103306101345481565b6040519081526020015b60405180910390f35b61012e54610330565b61033061035a366004615145565b60fb6020526000908152604090205481565b6103746108b3565b60408051921515835260208301919091520161033a565b610330610399366004615458565b610a69565b6103306103ac366004615584565b610aa9565b6103246103bf36600461526d565b610b6f565b610130546103d8906001600160401b031681565b6040516001600160401b03909116815260200161033a565b6103306103fe36600461542d565b610c02565b61032461041136600461535a565b610ca5565b61013a5461042a906001600160a01b031681565b6040516001600160a01b03909116815260200161033a565b610330610450366004615545565b610d4a565b61032461046336600461517d565b610d8e565b610324610476366004615145565b610e2d565b6103d8610489366004615458565b610f05565b61013c5461042a906001600160a01b031681565b6103246104b0366004615481565b610f3a565b61013b5461042a906001600160a01b031681565b6103246104d7366004615145565b610fc2565b61032461104d565b6104f76104f23660046153ab565b6110c1565b604080516001600160401b03909316835260208301919091520161033a565b61033061012f5481565b61053361052e366004615413565b611108565b60405161033a919060006080820190506001600160401b0380845116835280602085015116602084015250604083015160408301526060830151606083015292915050565b6065546001600160a01b031661042a565b6103306101335481565b6103246105a1366004615413565b6111b9565b6103306105b4366004615413565b611287565b6101385461042a906001600160a01b031681565b6103306105db3660046155d4565b6112c4565b6103246105ee366004615145565b61137e565b61013d5461042a906001600160a01b031681565b6101395461042a906001600160a01b031681565b61062e6106293660046151b5565b611404565b60405161033a91906156d4565b61064e610649366004615413565b611522565b60405161033a9190600060c0820190508251825260208301516020830152604083015160408301526060830151606083015260808301516001600160401b0380821660808501528060a08601511660a0850152505092915050565b6106bc6106b7366004615631565b61160d565b6040805192835260208301919091520161033a565b6103306106df36600461538a565b6116d7565b6103246106f236600461526d565b61180c565b6103306101315481565b61032461070f366004615458565b611869565b6103306101355481565b6101365461042a906001600160a01b031681565b610374610740366004615413565b611965565b6103d86107533660046155d4565b611ac2565b6101375461042a906001600160a01b031681565b61032461077a366004615145565b611b6d565b61012d54610330565b610324610796366004615145565b611c44565b6104f76107a93660046153d6565b611d98565b6103246107bc366004615145565b611e62565b6103306101325481565b6106bc6107d9366004615608565b611f4d565b6065546001600160a01b031633146108115760405162461bcd60e51b8152600401610808906157c5565b60405180910390fd5b6001600160a01b0381163b6108385760405162461bcd60e51b8152600401610808906158b8565b61013d80546001600160a01b0319166001600160a01b0383161790556040516836b83426b4b73a32b960b91b81526009015b6040519081900381206001600160a01b03831682529033907f64b03eb8356730cffd396927eec0e9b1e0599498960e022df3dae35791c17cf5906020015b60405180910390a350565b6000806000676765c793fa10079d601b1b61012f5461013660009054906101000a90046001600160a01b03166001600160a01b03166321c261206040518163ffffffff1660e01b8152600401602060405180830381600087803b15801561091957600080fd5b505af115801561092d573d6000803e3d6000fd5b505050506040513d601f19601f820116820180604052508101906109519190615372565b61095b91906159b0565b6109659190615990565b610135549091506000818311156109835761098082846159cf565b90505b61013654604080516306a61f7560e51b815290516000926001600160a01b03169163d4c3eea091600480830192602092919082900301818787803b1580156109ca57600080fd5b505af11580156109de573d6000803e3d6000fd5b505050506040513d601f19601f82011682018060405250810190610a029190615372565b9050600082610134546101335461013254610a1d9190615978565b610a279190615978565b610a319190615978565b9050808210610a4f5760009650610a4881836159cf565b9550610a60565b60019650610a5d82826159cf565b95505b50505050509091565b600060026001541415610a8e5760405162461bcd60e51b815260040161080890615881565b6002600155610a9e338484611f9d565b600180559392505050565b600060026001541415610ace5760405162461bcd60e51b815260040161080890615881565b6002600155610ae2368390038301836152c7565b604080516001600160401b03881660208201529081018690528415156060820152631ee2e38960e01b90608001604051602081830303815290604052610b29838383611fbd565b610b45836000015184602001518560400151866060015161221b565b610b5f610b556020870187615145565b8989896000612257565b6001805598975050505050505050565b6065546001600160a01b03163314610b995760405162461bcd60e51b8152600401610808906157c5565b61013b546040516355f804b360e01b81526001600160a01b03909116906355f804b390610bcc9085908590600401615735565b600060405180830381600087803b158015610be657600080fd5b505af1158015610bfa573d6000803e3d6000fd5b505050505050565b600060026001541415610c275760405162461bcd60e51b815260040161080890615881565b6002600155610c3b368390038301836152c7565b604080516001600160401b0386166020820152632808bf5360e01b9101604051602081830303815290604052610c72838383611fbd565b610c8e836000015184602001518560400151866060015161221b565b610c97866122ac565b600180559695505050505050565b6065546001600160a01b03163314610ccf5760405162461bcd60e51b8152600401610808906157c5565b60008111610cef5760405162461bcd60e51b815260040161080890615827565b6101318190556040516f135a5b91195c1bdcda5d105b5bdd5b9d60821b81526010016040519081900381208282529033907ff37f82a82443ce2d0a9a47ee78cef1a46975e3f33782fcb8caf315626b73a3d4906020016108a8565b600060026001541415610d6f5760405162461bcd60e51b815260040161080890615881565b6002600155610d82338585856000612257565b60018055949350505050565b610d988282612603565b6040516370a0823160e01b81523060048201528290610e289083906001600160a01b038416906370a082319060240160206040518083038186803b158015610ddf57600080fd5b505afa158015610df3573d6000803e3d6000fd5b505050506040513d601f19601f82011682018060405250810190610e179190615372565b6001600160a01b0384169190612631565b505050565b6065546001600160a01b03163314610e575760405162461bcd60e51b8152600401610808906157c5565b600080610e626108b3565b9150915081610e285761013654604051632e1a7d4d60e01b8152600481018390526001600160a01b0390911690632e1a7d4d90602401602060405180830381600087803b158015610eb257600080fd5b505af1158015610ec6573d6000803e3d6000fd5b505050506040513d601f19601f82011682018060405250810190610eea9190615372565b61013754909150610e28906001600160a01b03168483612631565b600060026001541415610f2a5760405162461bcd60e51b815260040161080890615881565b6002600155610a9e338484612694565b600054610100900460ff1680610f53575060005460ff16155b610f6f5760405162461bcd60e51b815260040161080890615777565b600054610100900460ff16158015610f91576000805461ffff19166101011790555b610fa38b8b8b8b8b8b8b8b8b8b6126b9565b8015610fb5576000805461ff00191690555b5050505050505050505050565b6065546001600160a01b03163314610fec5760405162461bcd60e51b8152600401610808906157c5565b6001600160a01b0381163b6110135760405162461bcd60e51b8152600401610808906158b8565b61013980546001600160a01b0319166001600160a01b0383161790556040516c1a5b9d195c995cdd135bd9195b609a1b8152600d0161086a565b6065546001600160a01b031633146110775760405162461bcd60e51b8152600401610808906157c5565b6065546040516000916001600160a01b0316907f8be0079c531659141344cd1fd0a4f28419497f9722a3daafe3b4186f6b6457e0908390a3606580546001600160a01b0319169055565b600080600260015414156110e75760405162461bcd60e51b815260040161080890615881565b60026001556110f933858560006127e3565b60018055909590945092505050565b60408051608081018252600080825260208201819052918101829052606081019190915261012e61113a6001846159e6565b6001600160401b03168154811061116157634e487b7160e01b600052603260045260246000fd5b600091825260209182902060408051608081018252600390930290910180546001600160401b038082168552600160401b9091041693830193909352600183015490820152600290910154606082015290505b919050565b6065546001600160a01b031633146111e35760405162461bcd60e51b8152600401610808906157c5565b6000816001600160401b03161161120c5760405162461bcd60e51b815260040161080890615827565b610130805467ffffffffffffffff19166001600160401b0383161790556040516f13585e11195c1bdcda5d14195c9a5bd960821b81526010016040519081900381206001600160401b03831682529033907ff37f82a82443ce2d0a9a47ee78cef1a46975e3f33782fcb8caf315626b73a3d4906020016108a8565b6000600260015414156112ac5760405162461bcd60e51b815260040161080890615881565b60026001556112ba826122ac565b6001805592915050565b6000600260015414156112e95760405162461bcd60e51b815260040161080890615881565b60026001556112fd368390038301836152c7565b604080516001600160401b0387166020820152908101859052639a372cc760e01b9060600160405160208183030381529060405261133c838383611fbd565b611358836000015184602001518560400151866060015161221b565b61136f6113686020870187615145565b8888611f9d565b60018055979650505050505050565b6065546001600160a01b031633146113a85760405162461bcd60e51b8152600401610808906157c5565b6001600160a01b0381163b6113cf5760405162461bcd60e51b8152600401610808906158b8565b61013880546001600160a01b0319166001600160a01b03831617905560405167199959535bd9195b60c21b815260080161086a565b6060816001600160401b0381111561142c57634e487b7160e01b600052604160045260246000fd5b60405190808252806020026020018201604052801561145f57816020015b606081526020019060019003908161144a5790505b50905060005b8281101561151b576114dd3085858481811061149157634e487b7160e01b600052603260045260246000fd5b90506020028101906114a391906158ef565b8080601f01602080910402602001604051908101604052809392919081815260200183838082843760009201919091525061280a92505050565b8282815181106114fd57634e487b7160e01b600052603260045260246000fd5b6020026020010181905250808061151390615a3a565b915050611465565b5092915050565b61156d6040518060c001604052806000815260200160008152602001600081526020016000815260200160006001600160401b0316815260200160006001600160401b031681525090565b61012d61157b6001846159e6565b6001600160401b0316815481106115a257634e487b7160e01b600052603260045260246000fd5b60009182526020918290206040805160c081018252600590930290910180548352600181015493830193909352600283015490820152600382015460608201526004909101546001600160401b038082166080840152600160401b9091041660a08201529050919050565b600080600260015414156116335760405162461bcd60e51b815260040161080890615881565b6002600155611647368490038401846152c7565b604080516001600160401b038881166020830152871681830152815180820383018152606090910190915263b4b1f22f60e01b90611686838383611fbd565b6116a2836000015184602001518560400151866060015161221b565b6116b96116b26020880188615145565b89896128f5565b600180556001600160401b0391909116999098509650505050505050565b61013a54604080516385b3a93160e01b8152815160009384936001600160a01b03909116926385b3a931926004808301939282900301818787803b15801561171e57600080fd5b505af1158015611732573d6000803e3d6000fd5b505050506040513d601f19601f820116820180604052508101906117569190615240565b9150506000806117646108b3565b6101395460405163684df1a760e11b8152600481018a905260248101899052604481018790528315156064820152608481018390529294509092506001600160a01b03169063d09be34e9060a40160206040518083038186803b1580156117ca57600080fd5b505afa1580156117de573d6000803e3d6000fd5b505050506040513d601f19601f820116820180604052508101906118029190615372565b9695505050505050565b6065546001600160a01b031633146118365760405162461bcd60e51b8152600401610808906157c5565b61013b5460405163938e3d7b60e01b81526001600160a01b039091169063938e3d7b90610bcc9085908590600401615735565b6065546001600160a01b031633146118935760405162461bcd60e51b8152600401610808906157c5565b600061189e8361296c565b60028101546001820154825492935090918285106118ce5760405162461bcd60e51b815260040161080890615827565b60006118ec6118e5670de0b6b3a764000085615978565b83906129b8565b600286018790559050600061190b61190488876159cf565b83906129d7565b905061191781836129b8565b6119219085615978565b866001018190555080610133600082825461193c9190615978565b9250508190555080610134600082825461195691906159cf565b90915550505050505050505050565b60008060006119738461296c565b9050600061013660009054906101000a90046001600160a01b03166001600160a01b03166321c261206040518163ffffffff1660e01b8152600401602060405180830381600087803b1580156119c857600080fd5b505af11580156119dc573d6000803e3d6000fd5b505050506040513d601f19601f82011682018060405250810190611a009190615372565b8254600184015491925090600090611a25906118e590670de0b6b3a764000090615978565b90506000611a3382846159cf565b90506000611a4e8660020154846129d790919063ffffffff16565b9050600086600301548685611a6391906159b0565b611a6d9190615990565b9050600082611a7c8587615978565b611a869190615978565b9050808210611aa45760009950611a9d81836159cf565b9850611ab5565b60019950611ab282826159cf565b98505b5050505050505050915091565b600060026001541415611ae75760405162461bcd60e51b815260040161080890615881565b6002600155611afb368390038301836152c7565b604080516001600160401b038716602082015290810185905263e676e86360e01b90606001604051602081830303815290604052611b3a838383611fbd565b611b56836000015184602001518560400151866060015161221b565b61136f611b666020870187615145565b8888612694565b6065546001600160a01b03163314611b975760405162461bcd60e51b8152600401610808906157c5565b6001600160a01b0381163b611bbe5760405162461bcd60e51b8152600401610808906158b8565b6101365460405163761c543160e11b81526001600160a01b0383811660048301529091169063ec38a86290602401600060405180830381600087803b158015611c0657600080fd5b505af1158015611c1a573d6000803e3d6000fd5b5050505060405161086a90726d6f6e65794d61726b65742e7265776172647360681b815260130190565b6065546001600160a01b03163314611c6e5760405162461bcd60e51b8152600401610808906157c5565b6001600160a01b0381163b611c955760405162461bcd60e51b8152600401610808906158b8565b61013a80546001600160a01b0319166001600160a01b03838116918217909255610136546040805163d6d75f5160e01b81529051919093169263d6d75f51916004808301926020929190829003018186803b158015611cf357600080fd5b505afa158015611d07573d6000803e3d6000fd5b505050506040513d601f19601f82011682018060405250810190611d2b9190615161565b6001600160a01b031614611d795760405162461bcd60e51b815260206004820152601560248201527444496e7465726573743a204241445f4f5241434c4560581b6044820152606401610808565b6040516d696e7465726573744f7261636c6560901b8152600e0161086a565b60008060026001541415611dbe5760405162461bcd60e51b815260040161080890615881565b6002600155611dd2368490038401846152c7565b604051633ca3aba360e21b90611e0090889088906020019182526001600160401b0316602082015260400190565b604051602081830303815290604052611e1a838383611fbd565b611e36836000015184602001518560400151866060015161221b565b611e4f611e466020880188615145565b898960006127e3565b6001805590999098509650505050505050565b6065546001600160a01b03163314611e8c5760405162461bcd60e51b8152600401610808906157c5565b6001600160a01b038116611ef15760405162461bcd60e51b815260206004820152602660248201527f4f776e61626c653a206e6577206f776e657220697320746865207a65726f206160448201526564647265737360d01b6064820152608401610808565b6065546040516001600160a01b038084169216907f8be0079c531659141344cd1fd0a4f28419497f9722a3daafe3b4186f6b6457e090600090a3606580546001600160a01b0319166001600160a01b0392909216919091179055565b60008060026001541415611f735760405162461bcd60e51b815260040161080890615881565b6002600155611f833385856128f5565b600180556001600160401b03919091169590945092505050565b6000611faa8484846129ec565b9050611fb68483612ea2565b9392505050565b82516001600160a01b0316600090815260fb60205260409020546080840151146120225760405162461bcd60e51b815260206004820152601660248201527553706f6e736f7261626c653a204241445f4e4f4e434560501b6044820152606401610808565b8260a0015142111561206e5760405162461bcd60e51b815260206004820152601560248201527414dc1bdb9cdbdc98589b194e8814d251d7d1115051605a1b6044820152606401610808565b6020808401516040808601516060808801516080808a015160a0808c01518751469a81018b905230988101989098526001600160a01b039889169588019590955296909416908501529383019390935260c082015260e08101919091526001600160e01b031984166101008201526000906101200160408051601f19818403018152908290526121029185906020016156a5565b60408051601f198184030181529082905280516020918201207f19457468657265756d205369676e6564204d6573736167653a0a33320000000091830191909152603c820152605c01604051602081830303815290604052805190602001209050600061217e828760c001518860e00151896101000151612f0c565b90506001600160a01b038116158015906121a4575085516001600160a01b038281169116145b6121e75760405162461bcd60e51b815260206004820152601460248201527353706f6e736f7261626c653a204241445f53494760601b6044820152606401610808565b60808601516121f7906001615978565b95516001600160a01b0316600090815260fb60205260409020959095555050505050565b8061222557612251565b8161223b6001600160a01b0382168630856130ac565b61224f6001600160a01b0382168584612631565b505b50505050565b600080600080600061226b8a8a8a8a6130e4565b935093509350935061229e8a6122808b61296c565b60040154600160401b90046001600160401b0316868686868c6136a8565b9a9950505050505050505050565b6000806122b883613a1e565b9050600081600101549050600061013660009054906101000a90046001600160a01b03166001600160a01b03166321c261206040518163ffffffff1660e01b8152600401602060405180830381600087803b15801561231657600080fd5b505af115801561232a573d6000803e3d6000fd5b505050506040513d601f19601f8201168201806040525081019061234e9190615372565b61013c5460405163bd85b03960e01b81526001600160401b03881660048201529192506000916001600160a01b039091169063bd85b0399060240160206040518083038186803b1580156123a157600080fd5b505afa1580156123b5573d6000803e3d6000fd5b505050506040513d601f19601f820116820180604052508101906123d99190615372565b90506000600160801b8560020154836123f291906159b0565b6123fc9190615990565b905083612414676765c793fa10079d601b1b836159b0565b61241e9190615990565b83612434676765c793fa10079d601b1b846159b0565b61243e9190615990565b61012f5461244c9190615978565b61245691906159cf565b61012f5560018501839055808461246d85836159b0565b6124779190615990565b61248191906159cf565b95505050505060008211156125b95761013654604051632e1a7d4d60e01b8152600481018490526001600160a01b0390911690632e1a7d4d90602401602060405180830381600087803b1580156124d757600080fd5b505af11580156124eb573d6000803e3d6000fd5b505050506040513d601f19601f8201168201806040525081019061250f9190615372565b915081156125b95761013c5461013754612536916001600160a01b03918216911684613a6a565b61013c54610137546040516316f6849d60e31b81526001600160401b03861660048201526001600160a01b0391821660248201526044810185905291169063b7b424e890606401600060405180830381600087803b15801561259757600080fd5b505af11580156125ab573d6000803e3d6000fd5b505050506125b98383613b53565b60408051838152600060208201526001600160401b038516917f8f0a3cf13ab42f1ec8d1e3df9aa7f0b3219995863af01088afec4c3fef43f79c910160405180910390a250919050565b6065546001600160a01b0316331461262d5760405162461bcd60e51b815260040161080890615853565b5050565b6040516001600160a01b038316602482015260448101829052610e2890849063a9059cbb60e01b906064015b60408051601f198184030181529190526020810180516001600160e01b03166001600160e01b031990931692909217909152613d08565b6000806126a2858585613dda565b90925090506126b18582612ea2565b509392505050565b600054610100900460ff16806126d2575060005460ff16155b6126ee5760405162461bcd60e51b815260040161080890615777565b600054610100900460ff16158015612710576000805461ffff19166101011790555b612718614368565b6127206143dc565b61013680546001600160a01b03199081166001600160a01b038c811691909117909255610137805482168b8416179055610138805482168a84161790556101398054821689841617905561013a8054821688841617905561013b8054821687841617905561013c8054821686841617905561013d8054909116918416919091179055610130805467ffffffffffffffff19166001600160401b038d161790556101318a90558015610fb5576000805461ff00191690555050505050505050505050565b6000806127f1868686614443565b90925090506128018686856148e9565b94509492505050565b6060823b6128695760405162461bcd60e51b815260206004820152602660248201527f416464726573733a2064656c65676174652063616c6c20746f206e6f6e2d636f6044820152651b9d1c9858dd60d21b6064820152608401610808565b600080846001600160a01b0316846040516128849190615689565b600060405180830381855af49150503d80600081146128bf576040519150601f19603f3d011682016040523d82523d6000602084013e6128c4565b606091505b50915091506128ec8282604051806060016040528060278152602001615a8f6027913961498a565b95945050505050565b600080600061290b868660001960006001612257565b905061291a86828660016127e3565b60405191945092506001600160401b0380851691908716906001600160a01b038916907fa1784acef38e256a50f87b9b937145b9d8294956f1f444d097b9f34217e7291490600090a450935093915050565b600061012d61297c6001846159e6565b6001600160401b0316815481106129a357634e487b7160e01b600052603260045260246000fd5b90600052602060002090600502019050919050565b6000816129cd670de0b6b3a7640000856159b0565b611fb69190615990565b6000670de0b6b3a76400006129cd83856159b0565b6000806129f88461296c565b61013b546040516331a9108f60e11b81526001600160401b03871660048201529192506001600160a01b0387811692911690636352211e9060240160206040518083038186803b158015612a4b57600080fd5b505afa158015612a5f573d6000803e3d6000fd5b505050506040513d601f19601f82011682018060405250810190612a839190615161565b6001600160a01b031614612aa95760405162461bcd60e51b815260040161080890615853565b6004810154600090612ac59042906001600160401b03166159cf565b9050612ad184826116d7565b925060008311612b1d5760405162461bcd60e51b815260206004820152601760248201527611125b9d195c995cdd0e8810905117d2539511549154d5604a1b6044820152606401610808565b6101385460405163cf27fa5960e01b8152306004820152602481018590526000916001600160a01b03169063cf27fa599060440160206040518083038186803b158015612b6957600080fd5b505afa158015612b7d573d6000803e3d6000fd5b505050506040513d601f19601f82011682018060405250810190612ba19190615372565b9050612bad81856159cf565b60018401549094506000612bd4612bcc670de0b6b3a764000084615978565b8654906129b8565b9050612be08688615978565b856000016000828254612bf39190615978565b90915550612c0390508188615978565b612c0d83836159b0565b612c1f88670de0b6b3a76400006159b0565b612c299190615978565b612c339190615990565b6001860155612c428188615978565b6002860154612c5190836159b0565b612c6385670de0b6b3a76400006159b0565b612c6d9190615978565b612c779190615990565b6002860155610136546040805163010e130960e51b815290516000926001600160a01b0316916321c2612091600480830192602092919082900301818787803b158015612cc357600080fd5b505af1158015612cd7573d6000803e3d6000fd5b505050506040513d601f19601f82011682018060405250810190612cfb9190615372565b612d10676765c793fa10079d601b1b8a6159b0565b612d1a9190615990565b6003870154612d34676765c793fa10079d601b1b856159b0565b612d3e9190615990565b612d489190615978565b905080676765c793fa10079d601b1b612d61848b615978565b612d6b91906159b0565b612d759190615990565b8660030181905550876101326000828254612d909190615978565b92505081905550866101336000828254612daa9190615978565b92505081905550836101346000828254612dc49190615978565b909155505060408051898152602081018990529081018590526001600160401b038a16906001600160a01b038c16907f3cfdfbe5c59b104993c5bb7a19605a181c358415effb11a8903c7168f3948f4f9060600160405180910390a361013d54604051634452179160e11b81526001600160401b038b16600482015260248101849052604481018a90526001600160a01b03909116906388a42f2290606401600060405180830381600087803b158015612e7d57600080fd5b505af1158015612e91573d6000803e3d6000fd5b505050505050505050509392505050565b61013754612ebb906001600160a01b03168330846130ac565b6101365461013754612eda916001600160a01b03918216911683613a6a565b6101365460405163b6b55f2560e01b8152600481018390526001600160a01b039091169063b6b55f2590602401610bcc565b60007f7fffffffffffffffffffffffffffffff5d576e7357a4501ddfe92f46681b20a0821115612f895760405162461bcd60e51b815260206004820152602260248201527f45434453413a20696e76616c6964207369676e6174757265202773272076616c604482015261756560f01b6064820152608401610808565b8360ff16601b1480612f9e57508360ff16601c145b612ff55760405162461bcd60e51b815260206004820152602260248201527f45434453413a20696e76616c6964207369676e6174757265202776272076616c604482015261756560f01b6064820152608401610808565b6040805160008082526020820180845288905260ff871692820192909252606081018590526080810184905260019060a0016020604051602081039080840390855afa158015613049573d6000803e3d6000fd5b5050604051601f1901519150506001600160a01b0381166128ec5760405162461bcd60e51b815260206004820152601860248201527f45434453413a20696e76616c6964207369676e617475726500000000000000006044820152606401610808565b6040516001600160a01b03808516602483015283166044820152606481018290526122519085906323b872dd60e01b9060840161265d565b600080600080600086116131325760405162461bcd60e51b815260206004820152601560248201527411125b9d195c995cdd0e8810905117d05353d55395605a1b6044820152606401610808565b600061313d8861296c565b9050851561319a5760048101546001600160401b031642106131955760405162461bcd60e51b815260206004820152601160248201527044496e7465726573743a204d415455524560781b6044820152606401610808565b6131ed565b60048101546001600160401b03164210156131ed5760405162461bcd60e51b815260206004820152601360248201527244496e7465726573743a20494d4d415455524560681b6044820152606401610808565b61013b546040516331a9108f60e11b81526001600160401b038a1660048201526001600160a01b038b8116921690636352211e9060240160206040518083038186803b15801561323c57600080fd5b505afa158015613250573d6000803e3d6000fd5b505050506040513d601f19601f820116820180604052508101906132749190615161565b6001600160a01b03161461329a5760405162461bcd60e51b815260040161080890615853565b8054808811156132a8578097505b506001810154600282015460006132d16132ca670de0b6b3a764000085615978565b8b906129b8565b90506000896132e9576132e4828c6159cf565b6132ec565b60005b90506132f88183615978565b98505088156133ab57610138546040516376dffb8f60e01b81523060048201526001600160401b038d166024820152604481018a90526000916001600160a01b0316906376dffb8f9060640160206040518083038186803b15801561335c57600080fd5b505afa158015613370573d6000803e3d6000fd5b505050506040513d601f19601f820116820180604052508101906133949190615372565b97508790506133a3818a6159cf565b9850506133b8565b6133b581836129d7565b96505b8061013260008282546133cb91906159cf565b909155506133db9050818b6159cf565b61013360008282546133ed91906159cf565b909155506133fd905081836129d7565b610134600082825461340f91906159cf565b90915550506004840154600160401b90046001600160401b0316801561355f57600061343a82613a1e565b600281015461013c5460405163bd85b03960e01b81526001600160401b0386166004820152929350600092600160801b92916001600160a01b03169063bd85b0399060240160206040518083038186803b15801561349757600080fd5b505afa1580156134ab573d6000803e3d6000fd5b505050506040513d601f19601f820116820180604052508101906134cf9190615372565b6134d991906159b0565b6134e39190615990565b905060006134f58f89600001546149c3565b9050600061350386886129d7565b8f61350e9190615978565b905061351a8382615978565b821161354a578261352b82846159cf565b856002015461353a91906159b0565b6135449190615990565b60028501555b505061355783828e614a22565b909950975050505b6000613586613576670de0b6b3a764000087615978565b61357f8f61296c565b54906129b8565b905061013d60009054906101000a90046001600160a01b03166001600160a01b03166388a42f228e8360006040518463ffffffff1660e01b81526004016135eb939291906001600160401b039390931683526020830191909152604082015260600190565b600060405180830381600087803b15801561360557600080fd5b505af1158015613619573d6000803e3d6000fd5b50505050508a6136288d61296c565b80546000906136389084906159cf565b925050819055508915158c6001600160401b03168e6001600160a01b03167fc915235dea7625ad78e3b510156c53e55606173e23b24de4bfdb0c7b9952065f8e8c604051613690929190918252602082015260400190565b60405180910390a45050505050945094509450949050565b6000811561378b57610136546000906001600160a01b0316632e1a7d4d6136cf8789615978565b6040518263ffffffff1660e01b81526004016136ed91815260200190565b602060405180830381600087803b15801561370757600080fd5b505af115801561371b573d6000803e3d6000fd5b505050506040513d601f19601f8201168201806040525081019061373f9190615372565b905061374b8587615978565b81106137625761375b85826159cf565b9550613782565b85811061377a5761377386826159cf565b9450613782565b809550600094505b869150506138c2565b610136546000906001600160a01b0316632e1a7d4d866137ab898b615978565b6137b59190615978565b6040518263ffffffff1660e01b81526004016137d391815260200190565b602060405180830381600087803b1580156137ed57600080fd5b505af1158015613801573d6000803e3d6000fd5b505050506040513d601f19601f820116820180604052508101906138259190615372565b8792509050846138358784615978565b61383f9190615978565b8110613861578461385088836159cf565b61385a91906159cf565b95506138a2565b61386b8688615978565b811061388d578561387c88836159cf565b61388691906159cf565b94506138a2565b86811061389e5761385a87826159cf565b8091505b81156138c057610137546138c0906001600160a01b03168a84612631565b505b841561395b5761013854604080516338af3eed60e01b8152905161395b926001600160a01b0316916338af3eed916004808301926020929190829003018186803b15801561390f57600080fd5b505afa158015613923573d6000803e3d6000fd5b505050506040513d601f19601f820116820180604052508101906139479190615161565b610137546001600160a01b03169087612631565b8315613a135761013c5461013754613980916001600160a01b03918216911686613a6a565b61013c54610137546040516316f6849d60e31b81526001600160401b038a1660048201526001600160a01b0391821660248201526044810187905291169063b7b424e890606401600060405180830381600087803b1580156139e157600080fd5b505af11580156139f5573d6000803e3d6000fd5b50505050828410613a1357613a1387613a0e85876159cf565b613b53565b979650505050505050565b600061012e613a2e6001846159e6565b6001600160401b031681548110613a5557634e487b7160e01b600052603260045260246000fd5b90600052602060002090600302019050919050565b604051636eb1769f60e11b81523060048201526001600160a01b0383811660248301526000919085169063dd62ed3e9060440160206040518083038186803b158015613ab557600080fd5b505afa158015613ac9573d6000803e3d6000fd5b505050506040513d601f19601f82011682018060405250810190613aed9190615372565b1115613b23576040516001600160a01b038316602482015260006044820152613b2390849063095ea7b360e01b9060640161265d565b6040516001600160a01b038316602482015260448101829052610e2890849063095ea7b360e01b9060640161265d565b6000613b5e83613a1e565b8054909150600090613b78906001600160401b031661296c565b600401546001600160401b0316905042811015613c4a578154600160401b90046001600160401b031681811015613c44576000613bb582426159cf565b613bbf83856159cf565b613bc990876159b0565b613bd39190615990565b61013d54604051634999011360e11b81526001600160401b0389166004820152602481018390529192506001600160a01b031690639332022690604401600060405180830381600087803b158015613c2a57600080fd5b505af1158015613c3e573d6000803e3d6000fd5b50505050505b50613cb9565b61013d54604051634999011360e11b81526001600160401b0386166004820152602481018590526001600160a01b0390911690639332022690604401600060405180830381600087803b158015613ca057600080fd5b505af1158015613cb4573d6000803e3d6000fd5b505050505b6001600160401b03421115613ce05760405162461bcd60e51b8152600401610808906157fa565b50805467ffffffffffffffff60401b1916600160401b426001600160401b0316021790555050565b6000613d5d826040518060400160405280602081526020017f5361666545524332303a206c6f772d6c6576656c2063616c6c206661696c6564815250856001600160a01b0316614e509092919063ffffffff16565b805190915015610e285780806020019051810190613d7b9190615224565b610e285760405162461bcd60e51b815260206004820152602a60248201527f5361666545524332303a204552433230206f7065726174696f6e20646964206e6044820152691bdd081cdd58d8d9595960b21b6064820152608401610808565b6000806000613de88561296c565b9050600080613df56108b3565b9150915081613e3b5760405162461bcd60e51b815260206004820152601260248201527111125b9d195c995cdd0e881393d7d111509560721b6044820152606401610808565b613e4487611965565b909250905081613e8b5760405162461bcd60e51b815260206004820152601260248201527111125b9d195c995cdd0e881393d7d111509560721b6044820152606401610808565b80861115613e97578095505b610136546040805163010e130960e51b815290516000926001600160a01b0316916321c2612091600480830192602092919082900301818787803b158015613ede57600080fd5b505af1158015613ef2573d6000803e3d6000fd5b505050506040513d601f19601f82011682018060405250810190613f169190615372565b905060008111613f5f5760405162461bcd60e51b815260206004820152601460248201527308892dce8cae4cae6e87440848288be929c888ab60631b6044820152606401610808565b6000613f6f8986600001546149c3565b6004860154600160401b90046001600160401b031697509050600080881580613fa25750613f9c89613a1e565b60020154155b1561411b576001600160401b03421115613fce5760405162461bcd60e51b8152600401610808906157fa565b604080516080810182526001600160401b03808e16825242811660208301908152928201878152600160801b6060840190815261012e80546001810182556000829052945160039095027fbdaadd9f750d0166045bf387a364eadd28ba243e04512a47282aa5147a68e37f8101805497518616600160401b026001600160801b0319909816968616969096179690961790945590517fbdaadd9f750d0166045bf387a364eadd28ba243e04512a47282aa5147a68e380850155517fbdaadd9f750d0166045bf387a364eadd28ba243e04512a47282aa5147a68e381909301929092555411156140cf5760405162461bcd60e51b8152600401610808906157fa565b61012e5460048801805467ffffffffffffffff60401b1916600160401b6001600160401b038416021790559850846141078b856159b0565b6141119190615990565b915081905061423f565b614124896122ac565b5060006141308a613a1e565b6002015461013c5460405163bd85b03960e01b81526001600160401b038d166004820152919250600091600160801b9184916001600160a01b039091169063bd85b0399060240160206040518083038186803b15801561418f57600080fd5b505afa1580156141a3573d6000803e3d6000fd5b505050506040513d601f19601f820116820180604052508101906141c79190615372565b6141d191906159b0565b6141db9190615990565b6141e590866159cf565b9050846141f282896159b0565b6141fc9190615990565b9650868c111561420a57869b505b866142158d836159b0565b61421f9190615990565b935081614230600160801b866159b0565b61423a9190615990565b925050505b61013c54604051630ab714fb60e11b81526001600160a01b038e811660048301526001600160401b038c166024830152604482018490529091169063156e29f690606401600060405180830381600087803b15801561429d57600080fd5b505af11580156142b1573d6000803e3d6000fd5b5050505083676765c793fa10079d601b1b836142cd91906159b0565b6142d79190615990565b61012f60008282546142e99190615978565b925050819055508161013560008282546143039190615978565b9091555050604080518b8152602081018390526001600160401b038b16916001600160a01b038f16917e041ad888f8f0041ca5438a2a667df2a6a90adb28eaf8ec67152459058415ec910160405180910390a389975050505050505050935093915050565b600054610100900460ff1680614381575060005460ff16155b61439d5760405162461bcd60e51b815260040161080890615777565b600054610100900460ff161580156143bf576000805461ffff19166101011790555b6143c7614e67565b80156143d9576000805461ff00191690555b50565b600054610100900460ff16806143f5575060005460ff16155b6144115760405162461bcd60e51b815260040161080890615777565b600054610100900460ff16158015614433576000805461ffff19166101011790555b61443b614ed6565b6143c7614f40565b600080610131548410156144915760405162461bcd60e51b815260206004820152601560248201527411125b9d195c995cdd0e8810905117d05353d55395605a1b6044820152606401610808565b60006144a6426001600160401b0386166159cf565b610130549091506001600160401b03168111156144fb5760405162461bcd60e51b815260206004820152601360248201527244496e7465726573743a204241445f54494d4560681b6044820152606401610808565b61450585826116d7565b9150600082116145515760405162461bcd60e51b815260206004820152601760248201527611125b9d195c995cdd0e8810905117d2539511549154d5604a1b6044820152606401610808565b6101385460405163cf27fa5960e01b8152306004820152602481018490526000916001600160a01b03169063cf27fa599060440160206040518083038186803b15801561459d57600080fd5b505afa1580156145b1573d6000803e3d6000fd5b505050506040513d601f19601f820116820180604052508101906145d59190615372565b90506145e181846159cf565b925061012d6040518060c0016040528085896145fd9190615978565b815260200161460c868a6129b8565b815260200161461b848a6129b8565b8152610136546040805163010e130960e51b815290516020938401936001600160a01b03909316926321c2612092600480820193918290030181600087803b15801561466657600080fd5b505af115801561467a573d6000803e3d6000fd5b505050506040513d601f19601f8201168201806040525081019061469e9190615372565b81526001600160401b038089166020808401919091526000604093840181905285546001818101885596825290829020855160059092020190815590840151948101949094559082015160028401556060820151600384015560808201516004909301805460a0909301518216600160401b026001600160801b0319909316938216939093179190911790915561012d54111561474d5760405162461bcd60e51b8152600401610808906157fa565b61012d8054905093508561013260008282546147699190615978565b925050819055508261013360008282546147839190615978565b9250508190555080610134600082825461479d9190615978565b909155505061013b546040516340c10f1960e01b81526001600160a01b0389811660048301526001600160401b0387166024830152909116906340c10f1990604401600060405180830381600087803b1580156147f957600080fd5b505af115801561480d573d6000803e3d6000fd5b505060408051898152602081018790529081018490526001600160401b038881166060830152871692506001600160a01b038a1691507f61431584ca96282c2c6748c4dabd382bc28bde7792a7fa3c3668927bedf4446f9060800160405180910390a361013d54604051631a3ee6b160e01b81526001600160a01b0389811660048301526001600160401b038716602483015290911690631a3ee6b190604401600060405180830381600087803b1580156148c757600080fd5b505af11580156148db573d6000803e3d6000fd5b505050505050935093915050565b80610e285761013754614907906001600160a01b03168430856130ac565b6101365461013754614926916001600160a01b03918216911684613a6a565b6101365460405163b6b55f2560e01b8152600481018490526001600160a01b039091169063b6b55f2590602401600060405180830381600087803b15801561496d57600080fd5b505af1158015614981573d6000803e3d6000fd5b50505050505050565b60608315614999575081611fb6565b8251156149a95782518084602001fd5b8160405162461bcd60e51b81526004016108089190615764565b6000806149cf8461296c565b90506000816001015490506128ec670de0b6b3a76400008360020154836149f69190615978565b614a009190615978565b614a1c614a15670de0b6b3a764000085615978565b87906129b8565b906129d7565b6000806000614a3086613a1e565b600281015461013c5460405163bd85b03960e01b81526001600160401b038a166004820152929350600092600160801b92916001600160a01b03169063bd85b0399060240160206040518083038186803b158015614a8d57600080fd5b505afa158015614aa1573d6000803e3d6000fd5b505050506040513d601f19601f82011682018060405250810190614ac59190615372565b614acf91906159b0565b614ad99190615990565b9050600082600101549050600061013660009054906101000a90046001600160a01b03166001600160a01b03166321c261206040518163ffffffff1660e01b8152600401602060405180830381600087803b158015614b3757600080fd5b505af1158015614b4b573d6000803e3d6000fd5b505050506040513d601f19601f82011682018060405250810190614b6f9190615372565b905060008111614bb85760405162461bcd60e51b815260206004820152601460248201527308892dce8cae4cae6e87440848288be929c888ab60631b6044820152606401610808565b600081614bd0676765c793fa10079d601b1b866159b0565b614bda9190615990565b9050600083614bf4676765c793fa10079d601b1b8c6159b0565b614bfe9190615990565b9050808261012f54614c109190615978565b10614c3857808261012f54614c259190615978565b614c2f91906159cf565b61012f55614c3f565b600061012f555b60018601839055614c50858b6159cf565b6101356000828254614c6291906159cf565b909155508a905084614c7485836159b0565b614c7e9190615990565b614c8891906159cf565b9750505050508415614e02578154600090614cab906001600160401b031661296c565b6001810154600282015461013a54604080516385b3a93160e01b81528151959650939492936000936001600160a01b03909316926385b3a9319260048084019391929182900301818787803b158015614d0357600080fd5b505af1158015614d17573d6000803e3d6000fd5b505050506040513d601f19601f82011682018060405250810190614d3b9190615240565b6004860154909250670de0b6b3a76400009150614d629042906001600160401b03166159cf565b614d8583670de0b6b3a7640000898f614d7b91906159cf565b614a1c91906159b0565b614d8f91906159b0565b614d999190615990565b96506000614ddc614daa8486615978565b614a1c85614dc088670de0b6b3a7640000615978565b614dca9190615978565b898f614dd691906159cf565b906129b8565b905080881115614dec5780614dee565b875b9750614dfa888a615978565b985050505050505b60408051858152602081018590526001600160401b038916917f8f0a3cf13ab42f1ec8d1e3df9aa7f0b3219995863af01088afec4c3fef43f79c910160405180910390a25050935093915050565b6060614e5f8484600085614fee565b949350505050565b600054610100900460ff1680614e80575060005460ff16155b614e9c5760405162461bcd60e51b815260040161080890615777565b600054610100900460ff16158015614ebe576000805461ffff19166101011790555b6001805580156143d9576000805461ff001916905550565b600054610100900460ff1680614eef575060005460ff16155b614f0b5760405162461bcd60e51b815260040161080890615777565b600054610100900460ff161580156143c7576000805461ffff191661010117905580156143d9576000805461ff001916905550565b600054610100900460ff1680614f59575060005460ff16155b614f755760405162461bcd60e51b815260040161080890615777565b600054610100900460ff16158015614f97576000805461ffff19166101011790555b606580546001600160a01b0319163390811790915560405181906000907f8be0079c531659141344cd1fd0a4f28419497f9722a3daafe3b4186f6b6457e0908290a35080156143d9576000805461ff001916905550565b60608247101561504f5760405162461bcd60e51b815260206004820152602660248201527f416464726573733a20696e73756666696369656e742062616c616e636520666f6044820152651c8818d85b1b60d21b6064820152608401610808565b843b61509d5760405162461bcd60e51b815260206004820152601d60248201527f416464726573733a2063616c6c20746f206e6f6e2d636f6e74726163740000006044820152606401610808565b600080866001600160a01b031685876040516150b99190615689565b60006040518083038185875af1925050503d80600081146150f6576040519150601f19603f3d011682016040523d82523d6000602084013e6150fb565b606091505b5091509150613a1382828661498a565b80356111b481615a6b565b60006101208284031215615128578081fd5b50919050565b80356001600160401b03811681146111b457600080fd5b600060208284031215615156578081fd5b8135611fb681615a6b565b600060208284031215615172578081fd5b8151611fb681615a6b565b6000806040838503121561518f578081fd5b823561519a81615a6b565b915060208301356151aa81615a6b565b809150509250929050565b600080602083850312156151c7578182fd5b82356001600160401b03808211156151dd578384fd5b818501915085601f8301126151f0578384fd5b8135818111156151fe578485fd5b8660208260051b8501011115615212578485fd5b60209290920196919550909350505050565b600060208284031215615235578081fd5b8151611fb681615a80565b60008060408385031215615252578182fd5b825161525d81615a80565b6020939093015192949293505050565b6000806020838503121561527f578182fd5b82356001600160401b0380821115615295578384fd5b818501915085601f8301126152a8578384fd5b8135818111156152b6578485fd5b866020828501011115615212578485fd5b60006101208083850312156152da578182fd5b6152e38161593a565b90506152ee8361510b565b81526152fc6020840161510b565b602082015261530d6040840161510b565b6040820152606083013560608201526080830135608082015260a083013560a082015260c083013560c082015260e083013560e08201526101008084013581830152508091505092915050565b60006020828403121561536b578081fd5b5035919050565b600060208284031215615383578081fd5b5051919050565b6000806040838503121561539c578182fd5b50508035926020909101359150565b600080604083850312156153bd578182fd5b823591506153cd6020840161512e565b90509250929050565b600080600061016084860312156153eb578081fd5b833592506153fb6020850161512e565b915061540a8560408601615116565b90509250925092565b600060208284031215615424578081fd5b611fb68261512e565b6000806101408385031215615440578182fd5b6154498361512e565b91506153cd8460208501615116565b6000806040838503121561546a578182fd5b6154738361512e565b946020939093013593505050565b6000806000806000806000806000806101408b8d0312156154a0578788fd5b6154a98b61512e565b995060208b0135985060408b01356154c081615a6b565b975060608b01356154d081615a6b565b965060808b01356154e081615a6b565b955060a08b01356154f081615a6b565b945060c08b013561550081615a6b565b935060e08b013561551081615a6b565b92506101008b013561552181615a6b565b91506101208b013561553281615a6b565b809150509295989b9194979a5092959850565b600080600060608486031215615559578081fd5b6155628461512e565b925060208401359150604084013561557981615a80565b809150509250925092565b600080600080610180858703121561559a578182fd5b6155a38561512e565b93506020850135925060408501356155ba81615a80565b91506155c98660608701615116565b905092959194509250565b600080600061016084860312156155e9578081fd5b6155f28461512e565b92506020840135915061540a8560408601615116565b6000806040838503121561561a578182fd5b6156238361512e565b91506153cd6020840161512e565b60008060006101608486031215615646578081fd5b61564f8461512e565b92506153fb6020850161512e565b60008151808452615675816020860160208601615a0e565b601f01601f19169290920160200192915050565b6000825161569b818460208701615a0e565b9190910192915050565b600083516156b7818460208801615a0e565b8351908301906156cb818360208801615a0e565b01949350505050565b6000602080830181845280855180835260408601915060408160051b8701019250838701855b8281101561572857603f1988860301845261571685835161565d565b945092850192908501906001016156fa565b5092979650505050505050565b60006020825282602083015282846040840137818301604090810191909152601f909201601f19160101919050565b600060208252611fb6602083018461565d565b6020808252602e908201527f496e697469616c697a61626c653a20636f6e747261637420697320616c72656160408201526d191e481a5b9a5d1a585b1a5e995960921b606082015260800190565b6020808252818101527f4f776e61626c653a2063616c6c6572206973206e6f7420746865206f776e6572604082015260600190565b60208082526013908201527244496e7465726573743a204f564552464c4f5760681b604082015260600190565b60208082526012908201527111125b9d195c995cdd0e8810905117d5905360721b604082015260600190565b6020808252601490820152732224b73a32b932b9ba1d102727aa2fa7aba722a960611b604082015260600190565b6020808252601f908201527f5265656e7472616e637947756172643a207265656e7472616e742063616c6c00604082015260600190565b60208082526017908201527f44496e7465726573743a204e4f545f434f4e5452414354000000000000000000604082015260600190565b6000808335601e19843603018112615905578283fd5b8301803591506001600160401b0382111561591e578283fd5b60200191503681900382131561593357600080fd5b9250929050565b604051601f8201601f191681016001600160401b038111828210171561597057634e487b7160e01b600052604160045260246000fd5b604052919050565b6000821982111561598b5761598b615a55565b500190565b6000826159ab57634e487b7160e01b81526012600452602481fd5b500490565b60008160001904831182151516156159ca576159ca615a55565b500290565b6000828210156159e1576159e1615a55565b500390565b60006001600160401b0383811690831681811015615a0657615a06615a55565b039392505050565b60005b83811015615a29578181015183820152602001615a11565b838111156122515750506000910152565b6000600019821415615a4e57615a4e615a55565b5060010190565b634e487b7160e01b600052601160045260246000fd5b6001600160a01b03811681146143d957600080fd5b80151581146143d957600080fdfe416464726573733a206c6f772d6c6576656c2064656c65676174652063616c6c206661696c6564a2646970667358221220d2e7f25aa9a806a6c002abfad15cb8dcc38b1ce57055a5ca22de9412516adf9b64736f6c63430008030033",
  "devdoc": {
    "author": "Zefram Lou",
    "details": "The contract to interact with for most actions",
    "kind": "dev",
    "methods": {
      "calculateInterestAmount(uint256,uint256)": {
        "params": {
          "depositAmount": "The deposit amount, in stablecoins",
          "depositPeriodInSeconds": "The deposit period, in seconds"
        },
        "returns": {
          "interestAmount": "The amount of fixed-rate interest (before fees)"
        }
      },
      "deposit(uint256,uint64)": {
        "details": "The ERC-721 NFT representing deposit ownership is given to msg.sender",
        "params": {
          "depositAmount": "The amount of deposit, in stablecoin",
          "maturationTimestamp": "The Unix timestamp of maturation, in seconds"
        },
        "returns": {
          "depositID": "The ID of the created deposit",
          "interestAmount": "The amount of fixed-rate interest"
        }
      },
      "depositsLength()": {
        "returns": {
          "_0": "deposits.length"
        }
      },
      "fund(uint64,uint256)": {
        "details": "The sender receives ERC-1155 multitokens (fundingMultitoken) representing their floating-rate bonds.",
        "params": {
          "depositID": "The deposit whose fixed-rate interest will be funded",
          "fundAmount": "The amount of fixed-rate interest to fund. If it exceeds surplusOfDeposit(depositID), it will be set to the surplus value instead.",
          "fundingID": "The ID of the fundingMultitoken the sender received"
        }
      },
      "fundingListLength()": {
        "returns": {
          "_0": "fundingList.length"
        }
      },
      "getDeposit(uint64)": {
        "params": {
          "depositID": "The ID of the deposit"
        },
        "returns": {
          "_0": "The deposit struct"
        }
      },
      "getFunding(uint64)": {
        "params": {
          "fundingID": "The ID of the floating-rate bond"
        },
        "returns": {
          "_0": "The Funding struct"
        }
      },
      "initialize(uint64,uint256,address,address,address,address,address,address,address,address)": {
        "params": {
          "_MaxDepositPeriod": "The maximum deposit period, in seconds",
          "_MinDepositAmount": "The minimum deposit amount, in stablecoins",
          "_depositNFT": "Address of the NFT representing ownership of deposits (owner must be set to this DInterest contract)",
          "_feeModel": "Address of the FeeModel contract that determines how fees are charged",
          "_fundingMultitoken": "Address of the ERC1155 multitoken representing ownership of fundings (this DInterest contract must have the minter-burner role)",
          "_interestModel": "Address of the InterestModel contract that determines how much interest to offer",
          "_interestOracle": "Address of the InterestOracle contract that provides the average interest rate",
          "_moneyMarket": "Address of MoneyMarket that's used for generating interest (owner must be set to this DInterest contract)",
          "_mphMinter": "Address of the contract for handling minting MPH to users",
          "_stablecoin": "Address of the stablecoin used to store funds"
        }
      },
      "multicall(bytes[])": {
        "details": "Receives and executes a batch of function calls on this contract."
      },
      "owner()": {
        "details": "Returns the address of the current owner."
      },
      "payInterestToFunders(uint64)": {
        "params": {
          "fundingID": "The ID of the floating-rate bond"
        },
        "returns": {
          "interestAmount": "The amount of interest distributed, in stablecoins"
        }
      },
      "rawSurplusOfDeposit(uint64)": {
        "params": {
          "depositID": "The ID of the deposit"
        },
        "returns": {
          "isNegative": "True if the surplus is negative, false otherwise",
          "surplusAmount": "The absolute value of the surplus, in stablecoins"
        }
      },
      "renounceOwnership()": {
        "details": "Leaves the contract without owner. It will not be possible to call `onlyOwner` functions anymore. Can only be called by the current owner. NOTE: Renouncing ownership will leave the contract without an owner, thereby removing any functionality that is only available to the owner."
      },
      "rescue(address,address)": {
        "details": "Need to implement {_authorizeRescue} to do access-control for this function.",
        "params": {
          "target": "The address to send the tokens to",
          "token": "The ERC20 token to rescue"
        }
      },
      "rolloverDeposit(uint64,uint64)": {
        "params": {
          "depositID": "The deposit to roll over",
          "maturationTimestamp": "The Unix timestamp of the new deposit, in seconds"
        },
        "returns": {
          "newDepositID": "The ID of the new deposit"
        }
      },
      "surplus()": {
        "returns": {
          "isNegative": "True if the surplus is negative, false otherwise",
          "surplusAmount": "The absolute value of the surplus, in stablecoins"
        }
      },
      "topupDeposit(uint64,uint256)": {
        "details": "The interest rate for the topped up funds will be the current oracle rate.",
        "params": {
          "depositAmount": "The amount to top up, in stablecoin",
          "depositID": "The deposit to top up"
        },
        "returns": {
          "interestAmount": "The amount of interest that will be earned by the topped up funds at maturation"
        }
      },
      "transferOwnership(address)": {
        "details": "Transfers ownership of the contract to a new account (`newOwner`). Can only be called by the current owner."
      },
      "withdraw(uint64,uint256,bool)": {
        "details": "Virtual tokens behave like zero coupon bonds, after maturation withdrawing 1 virtual token yields 1 stablecoin. The total supply is given by deposit.virtualTokenTotalSupply",
        "params": {
          "depositID": "the deposit to withdraw from",
          "early": "True if intend to withdraw before maturation, false otherwise",
          "virtualTokenAmount": "the amount of virtual tokens to withdraw"
        },
        "returns": {
          "withdrawnStablecoinAmount": "the amount of stablecoins withdrawn"
        }
      }
    },
    "stateVariables": {
      "EXTRA_PRECISION": {
        "details": "used for sumOfRecordedFundedPrincipalAmountDivRecordedIncomeIndex"
      },
      "MaxDepositPeriod": {
        "details": "Maximum deposit period, in seconds"
      },
      "MinDepositAmount": {
        "details": "Minimum deposit amount, in stablecoins"
      },
      "ULTRA_PRECISION": {
        "details": "used for funding.principalPerToken"
      }
    },
    "title": "DeLorean Interest -- It's coming back from the future!",
    "version": 1
  },
  "userdoc": {
    "kind": "user",
    "methods": {
      "calculateInterestAmount(uint256,uint256)": {
        "notice": "Computes the amount of fixed-rate interest (before fees) that will be given to a deposit of `depositAmount` stablecoins that matures in `depositPeriodInSeconds` seconds."
      },
      "deposit(uint256,uint64)": {
        "notice": "Create a deposit using `depositAmount` stablecoin that matures at timestamp `maturationTimestamp`."
      },
      "depositsLength()": {
        "notice": "Returns the total number of deposits."
      },
      "fund(uint64,uint256)": {
        "notice": "Funds the fixed-rate interest of the deposit with ID `depositID`. In exchange, the funder receives the future floating-rate interest generated by the portion of the deposit whose interest was funded."
      },
      "fundingListLength()": {
        "notice": "Returns the total number of floating-rate bonds."
      },
      "getDeposit(uint64)": {
        "notice": "Returns the Deposit struct associated with the deposit with ID `depositID`."
      },
      "getFunding(uint64)": {
        "notice": "Returns the Funding struct associated with the floating-rate bond with ID `fundingID`."
      },
      "payInterestToFunders(uint64)": {
        "notice": "Distributes the floating-rate interest accrued by a deposit to the floating-rate bond holders."
      },
      "rawSurplusOfDeposit(uint64)": {
        "notice": "Computes the raw surplus of a deposit, which is the current value of the deposit in the money market minus the amount owed (deposit + interest + fee). The deposit's funding status is not considered here, meaning even if a deposit's fixed-rate interest is fully funded, it likely will still have a non-zero surplus."
      },
      "rescue(address,address)": {
        "notice": "Rescues ERC20 tokens sent to the contract in error."
      },
      "rolloverDeposit(uint64,uint64)": {
        "notice": "Withdraw all funds from deposit with ID `depositID` and use them to create a new deposit that matures at time `maturationTimestamp`"
      },
      "setFeeModel(address)": {
        "notice": "Param setters (only callable by the owner)"
      },
      "sponsoredDeposit(uint256,uint64,(address,address,address,uint256,uint256,uint256,uint256,bytes32,bytes32))": {
        "notice": "Sponsored action functions"
      },
      "surplus()": {
        "notice": "Computes the pool's overall surplus, which is the value of its holdings in the `moneyMarket` minus the amount owed to depositors, funders, and the fee beneficiary."
      },
      "topupDeposit(uint64,uint256)": {
        "notice": "Add `depositAmount` stablecoin to the existing deposit with ID `depositID`."
      },
      "withdraw(uint64,uint256,bool)": {
        "notice": "Withdraws funds from the deposit with ID `depositID`."
      }
    },
    "notice": "The main pool contract for fixed-rate deposits",
    "version": 1
  },
  "storageLayout": {
    "storage": [
      {
        "astId": 612,
        "contract": "contracts/DInterest.sol:DInterest",
        "label": "_initialized",
        "offset": 0,
        "slot": "0",
        "type": "t_bool"
      },
      {
        "astId": 615,
        "contract": "contracts/DInterest.sol:DInterest",
        "label": "_initializing",
        "offset": 1,
        "slot": "0",
        "type": "t_bool"
      },
      {
        "astId": 666,
        "contract": "contracts/DInterest.sol:DInterest",
        "label": "_status",
        "offset": 0,
        "slot": "1",
        "type": "t_uint256"
      },
      {
        "astId": 709,
        "contract": "contracts/DInterest.sol:DInterest",
        "label": "__gap",
        "offset": 0,
        "slot": "2",
        "type": "t_array(t_uint256)49_storage"
      },
      {
        "astId": 3064,
        "contract": "contracts/DInterest.sol:DInterest",
        "label": "__gap",
        "offset": 0,
        "slot": "51",
        "type": "t_array(t_uint256)50_storage"
      },
      {
        "astId": 406,
        "contract": "contracts/DInterest.sol:DInterest",
        "label": "_owner",
        "offset": 0,
        "slot": "101",
        "type": "t_address"
      },
      {
        "astId": 525,
        "contract": "contracts/DInterest.sol:DInterest",
        "label": "__gap",
        "offset": 0,
        "slot": "102",
        "type": "t_array(t_uint256)49_storage"
      },
      {
        "astId": 13733,
        "contract": "contracts/DInterest.sol:DInterest",
        "label": "__gap",
        "offset": 0,
        "slot": "151",
        "type": "t_array(t_uint256)50_storage"
      },
      {
        "astId": 3204,
        "contract": "contracts/DInterest.sol:DInterest",
        "label": "__gap",
        "offset": 0,
        "slot": "201",
        "type": "t_array(t_uint256)50_storage"
      },
      {
        "astId": 13915,
        "contract": "contracts/DInterest.sol:DInterest",
        "label": "accountNonce",
        "offset": 0,
        "slot": "251",
        "type": "t_mapping(t_address,t_uint256)"
      },
      {
        "astId": 14103,
        "contract": "contracts/DInterest.sol:DInterest",
        "label": "__gap",
        "offset": 0,
        "slot": "252",
        "type": "t_array(t_uint256)49_storage"
      },
      {
        "astId": 5979,
        "contract": "contracts/DInterest.sol:DInterest",
        "label": "deposits",
        "offset": 0,
        "slot": "301",
        "type": "t_array(t_struct(Deposit)5975_storage)dyn_storage"
      },
      {
        "astId": 5992,
        "contract": "contracts/DInterest.sol:DInterest",
        "label": "fundingList",
        "offset": 0,
        "slot": "302",
        "type": "t_array(t_struct(Funding)5988_storage)dyn_storage"
      },
      {
        "astId": 5994,
        "contract": "contracts/DInterest.sol:DInterest",
        "label": "sumOfRecordedFundedPrincipalAmountDivRecordedIncomeIndex",
        "offset": 0,
        "slot": "303",
        "type": "t_uint256"
      },
      {
        "astId": 5997,
        "contract": "contracts/DInterest.sol:DInterest",
        "label": "MaxDepositPeriod",
        "offset": 0,
        "slot": "304",
        "type": "t_uint64"
      },
      {
        "astId": 6000,
        "contract": "contracts/DInterest.sol:DInterest",
        "label": "MinDepositAmount",
        "offset": 0,
        "slot": "305",
        "type": "t_uint256"
      },
      {
        "astId": 6002,
        "contract": "contracts/DInterest.sol:DInterest",
        "label": "totalDeposit",
        "offset": 0,
        "slot": "306",
        "type": "t_uint256"
      },
      {
        "astId": 6004,
        "contract": "contracts/DInterest.sol:DInterest",
        "label": "totalInterestOwed",
        "offset": 0,
        "slot": "307",
        "type": "t_uint256"
      },
      {
        "astId": 6006,
        "contract": "contracts/DInterest.sol:DInterest",
        "label": "totalFeeOwed",
        "offset": 0,
        "slot": "308",
        "type": "t_uint256"
      },
      {
        "astId": 6008,
        "contract": "contracts/DInterest.sol:DInterest",
        "label": "totalFundedPrincipalAmount",
        "offset": 0,
        "slot": "309",
        "type": "t_uint256"
      },
      {
        "astId": 6011,
        "contract": "contracts/DInterest.sol:DInterest",
        "label": "moneyMarket",
        "offset": 0,
        "slot": "310",
        "type": "t_contract(MoneyMarket)17114"
      },
      {
        "astId": 6014,
        "contract": "contracts/DInterest.sol:DInterest",
        "label": "stablecoin",
        "offset": 0,
        "slot": "311",
        "type": "t_contract(ERC20)4992"
      },
      {
        "astId": 6017,
        "contract": "contracts/DInterest.sol:DInterest",
        "label": "feeModel",
        "offset": 0,
        "slot": "312",
        "type": "t_contract(IFeeModel)16189"
      },
      {
        "astId": 6020,
        "contract": "contracts/DInterest.sol:DInterest",
        "label": "interestModel",
        "offset": 0,
        "slot": "313",
        "type": "t_contract(IInterestModel)16841"
      },
      {
        "astId": 6023,
        "contract": "contracts/DInterest.sol:DInterest",
        "label": "interestOracle",
        "offset": 0,
        "slot": "314",
        "type": "t_contract(IInterestOracle)16823"
      },
      {
        "astId": 6026,
        "contract": "contracts/DInterest.sol:DInterest",
        "label": "depositNFT",
        "offset": 0,
        "slot": "315",
        "type": "t_contract(NFT)22757"
      },
      {
        "astId": 6029,
        "contract": "contracts/DInterest.sol:DInterest",
        "label": "fundingMultitoken",
        "offset": 0,
        "slot": "316",
        "type": "t_contract(FundingMultitoken)22629"
      },
      {
        "astId": 6032,
        "contract": "contracts/DInterest.sol:DInterest",
        "label": "mphMinter",
        "offset": 0,
        "slot": "317",
        "type": "t_contract(MPHMinter)20433"
      },
      {
        "astId": 9052,
        "contract": "contracts/DInterest.sol:DInterest",
        "label": "__gap",
        "offset": 0,
        "slot": "318",
        "type": "t_array(t_uint256)33_storage"
      }
    ],
    "types": {
      "t_address": {
        "encoding": "inplace",
        "label": "address",
        "numberOfBytes": "20"
      },
      "t_array(t_struct(Deposit)5975_storage)dyn_storage": {
        "base": "t_struct(Deposit)5975_storage",
        "encoding": "dynamic_array",
        "label": "struct DInterest.Deposit[]",
        "numberOfBytes": "32"
      },
      "t_array(t_struct(Funding)5988_storage)dyn_storage": {
        "base": "t_struct(Funding)5988_storage",
        "encoding": "dynamic_array",
        "label": "struct DInterest.Funding[]",
        "numberOfBytes": "32"
      },
      "t_array(t_uint256)33_storage": {
        "base": "t_uint256",
        "encoding": "inplace",
        "label": "uint256[33]",
        "numberOfBytes": "1056"
      },
      "t_array(t_uint256)49_storage": {
        "base": "t_uint256",
        "encoding": "inplace",
        "label": "uint256[49]",
        "numberOfBytes": "1568"
      },
      "t_array(t_uint256)50_storage": {
        "base": "t_uint256",
        "encoding": "inplace",
        "label": "uint256[50]",
        "numberOfBytes": "1600"
      },
      "t_bool": {
        "encoding": "inplace",
        "label": "bool",
        "numberOfBytes": "1"
      },
      "t_contract(ERC20)4992": {
        "encoding": "inplace",
        "label": "contract ERC20",
        "numberOfBytes": "20"
      },
      "t_contract(FundingMultitoken)22629": {
        "encoding": "inplace",
        "label": "contract FundingMultitoken",
        "numberOfBytes": "20"
      },
      "t_contract(IFeeModel)16189": {
        "encoding": "inplace",
        "label": "contract IFeeModel",
        "numberOfBytes": "20"
      },
      "t_contract(IInterestModel)16841": {
        "encoding": "inplace",
        "label": "contract IInterestModel",
        "numberOfBytes": "20"
      },
      "t_contract(IInterestOracle)16823": {
        "encoding": "inplace",
        "label": "contract IInterestOracle",
        "numberOfBytes": "20"
      },
      "t_contract(MPHMinter)20433": {
        "encoding": "inplace",
        "label": "contract MPHMinter",
        "numberOfBytes": "20"
      },
      "t_contract(MoneyMarket)17114": {
        "encoding": "inplace",
        "label": "contract MoneyMarket",
        "numberOfBytes": "20"
      },
      "t_contract(NFT)22757": {
        "encoding": "inplace",
        "label": "contract NFT",
        "numberOfBytes": "20"
      },
      "t_mapping(t_address,t_uint256)": {
        "encoding": "mapping",
        "key": "t_address",
        "label": "mapping(address => uint256)",
        "numberOfBytes": "32",
        "value": "t_uint256"
      },
      "t_struct(Deposit)5975_storage": {
        "encoding": "inplace",
        "label": "struct DInterest.Deposit",
        "members": [
          {
            "astId": 5964,
            "contract": "contracts/DInterest.sol:DInterest",
            "label": "virtualTokenTotalSupply",
            "offset": 0,
            "slot": "0",
            "type": "t_uint256"
          },
          {
            "astId": 5966,
            "contract": "contracts/DInterest.sol:DInterest",
            "label": "interestRate",
            "offset": 0,
            "slot": "1",
            "type": "t_uint256"
          },
          {
            "astId": 5968,
            "contract": "contracts/DInterest.sol:DInterest",
            "label": "feeRate",
            "offset": 0,
            "slot": "2",
            "type": "t_uint256"
          },
          {
            "astId": 5970,
            "contract": "contracts/DInterest.sol:DInterest",
            "label": "averageRecordedIncomeIndex",
            "offset": 0,
            "slot": "3",
            "type": "t_uint256"
          },
          {
            "astId": 5972,
            "contract": "contracts/DInterest.sol:DInterest",
            "label": "maturationTimestamp",
            "offset": 0,
            "slot": "4",
            "type": "t_uint64"
          },
          {
            "astId": 5974,
            "contract": "contracts/DInterest.sol:DInterest",
            "label": "fundingID",
            "offset": 8,
            "slot": "4",
            "type": "t_uint64"
          }
        ],
        "numberOfBytes": "160"
      },
      "t_struct(Funding)5988_storage": {
        "encoding": "inplace",
        "label": "struct DInterest.Funding",
        "members": [
          {
            "astId": 5981,
            "contract": "contracts/DInterest.sol:DInterest",
            "label": "depositID",
            "offset": 0,
            "slot": "0",
            "type": "t_uint64"
          },
          {
            "astId": 5983,
            "contract": "contracts/DInterest.sol:DInterest",
            "label": "lastInterestPayoutTimestamp",
            "offset": 8,
            "slot": "0",
            "type": "t_uint64"
          },
          {
            "astId": 5985,
            "contract": "contracts/DInterest.sol:DInterest",
            "label": "recordedMoneyMarketIncomeIndex",
            "offset": 0,
            "slot": "1",
            "type": "t_uint256"
          },
          {
            "astId": 5987,
            "contract": "contracts/DInterest.sol:DInterest",
            "label": "principalPerToken",
            "offset": 0,
            "slot": "2",
            "type": "t_uint256"
          }
        ],
        "numberOfBytes": "96"
      },
      "t_uint256": {
        "encoding": "inplace",
        "label": "uint256",
        "numberOfBytes": "32"
      },
      "t_uint64": {
        "encoding": "inplace",
        "label": "uint64",
        "numberOfBytes": "8"
      }
    }
  }
}