{
  "address": "0x61c684F103acB76fA98dBC70957DffaAebFd4f3e",
  "abi": [
    {
      "inputs": [
        {
          "internalType": "address",
          "name": "_oneSplit",
          "type": "address"
        },
        {
          "internalType": "address",
          "name": "_xMPHToken",
          "type": "address"
        }
      ],
      "stateMutability": "nonpayable",
      "type": "constructor"
    },
    {
      "anonymous": false,
      "inputs": [
        {
          "indexed": true,
          "internalType": "bytes32",
          "name": "role",
          "type": "bytes32"
        },
        {
          "indexed": true,
          "internalType": "bytes32",
          "name": "previousAdminRole",
          "type": "bytes32"
        },
        {
          "indexed": true,
          "internalType": "bytes32",
          "name": "newAdminRole",
          "type": "bytes32"
        }
      ],
      "name": "RoleAdminChanged",
      "type": "event"
    },
    {
      "anonymous": false,
      "inputs": [
        {
          "indexed": true,
          "internalType": "bytes32",
          "name": "role",
          "type": "bytes32"
        },
        {
          "indexed": true,
          "internalType": "address",
          "name": "account",
          "type": "address"
        },
        {
          "indexed": true,
          "internalType": "address",
          "name": "sender",
          "type": "address"
        }
      ],
      "name": "RoleGranted",
      "type": "event"
    },
    {
      "anonymous": false,
      "inputs": [
        {
          "indexed": true,
          "internalType": "bytes32",
          "name": "role",
          "type": "bytes32"
        },
        {
          "indexed": true,
          "internalType": "address",
          "name": "account",
          "type": "address"
        },
        {
          "indexed": true,
          "internalType": "address",
          "name": "sender",
          "type": "address"
        }
      ],
      "name": "RoleRevoked",
      "type": "event"
    },
    {
      "inputs": [],
      "name": "DEFAULT_ADMIN_ROLE",
      "outputs": [
        {
          "internalType": "bytes32",
          "name": "",
          "type": "bytes32"
        }
      ],
      "stateMutability": "view",
      "type": "function"
    },
    {
      "inputs": [
        {
          "internalType": "address",
          "name": "lpTokenAddress",
          "type": "address"
        },
        {
          "internalType": "address",
          "name": "curvePoolAddress",
          "type": "address"
        },
        {
          "internalType": "uint256[2]",
          "name": "minAmounts",
          "type": "uint256[2]"
        }
      ],
      "name": "curveWithdraw2",
      "outputs": [],
      "stateMutability": "nonpayable",
      "type": "function"
    },
    {
      "inputs": [
        {
          "internalType": "address",
          "name": "lpTokenAddress",
          "type": "address"
        },
        {
          "internalType": "address",
          "name": "curvePoolAddress",
          "type": "address"
        },
        {
          "internalType": "uint256[3]",
          "name": "minAmounts",
          "type": "uint256[3]"
        }
      ],
      "name": "curveWithdraw3",
      "outputs": [],
      "stateMutability": "nonpayable",
      "type": "function"
    },
    {
      "inputs": [
        {
          "internalType": "address",
          "name": "lpTokenAddress",
          "type": "address"
        },
        {
          "internalType": "address",
          "name": "curvePoolAddress",
          "type": "address"
        },
        {
          "internalType": "uint256[4]",
          "name": "minAmounts",
          "type": "uint256[4]"
        }
      ],
      "name": "curveWithdraw4",
      "outputs": [],
      "stateMutability": "nonpayable",
      "type": "function"
    },
    {
      "inputs": [
        {
          "internalType": "address",
          "name": "lpTokenAddress",
          "type": "address"
        },
        {
          "internalType": "address",
          "name": "curvePoolAddress",
          "type": "address"
        },
        {
          "internalType": "uint256[5]",
          "name": "minAmounts",
          "type": "uint256[5]"
        }
      ],
      "name": "curveWithdraw5",
      "outputs": [],
      "stateMutability": "nonpayable",
      "type": "function"
    },
    {
      "inputs": [
        {
          "internalType": "address",
          "name": "lpTokenAddress",
          "type": "address"
        },
        {
          "internalType": "address",
          "name": "curvePoolAddress",
          "type": "address"
        },
        {
          "internalType": "int128",
          "name": "coinIndex",
          "type": "int128"
        },
        {
          "internalType": "uint256",
          "name": "minAmount",
          "type": "uint256"
        }
      ],
      "name": "curveWithdrawOneCoin",
      "outputs": [],
      "stateMutability": "nonpayable",
      "type": "function"
    },
    {
      "inputs": [
        {
          "internalType": "address",
          "name": "tokenAddress",
          "type": "address"
        },
        {
          "internalType": "uint256",
          "name": "returnAmount",
          "type": "uint256"
        },
        {
          "internalType": "uint256[]",
          "name": "distribution",
          "type": "uint256[]"
        }
      ],
      "name": "dump",
      "outputs": [],
      "stateMutability": "nonpayable",
      "type": "function"
    },
    {
      "inputs": [
        {
          "internalType": "address",
          "name": "tokenAddress",
          "type": "address"
        },
        {
          "internalType": "uint256",
          "name": "parts",
          "type": "uint256"
        }
      ],
      "name": "getDumpParams",
      "outputs": [
        {
          "internalType": "uint256",
          "name": "returnAmount",
          "type": "uint256"
        },
        {
          "internalType": "uint256[]",
          "name": "distribution",
          "type": "uint256[]"
        }
      ],
      "stateMutability": "view",
      "type": "function"
    },
    {
      "inputs": [
        {
          "internalType": "bytes32",
          "name": "role",
          "type": "bytes32"
        }
      ],
      "name": "getRoleAdmin",
      "outputs": [
        {
          "internalType": "bytes32",
          "name": "",
          "type": "bytes32"
        }
      ],
      "stateMutability": "view",
      "type": "function"
    },
    {
      "inputs": [
        {
          "internalType": "bytes32",
          "name": "role",
          "type": "bytes32"
        },
        {
          "internalType": "address",
          "name": "account",
          "type": "address"
        }
      ],
      "name": "grantRole",
      "outputs": [],
      "stateMutability": "nonpayable",
      "type": "function"
    },
    {
      "inputs": [
        {
          "internalType": "bytes32",
          "name": "role",
          "type": "bytes32"
        },
        {
          "internalType": "address",
          "name": "account",
          "type": "address"
        }
      ],
      "name": "hasRole",
      "outputs": [
        {
          "internalType": "bool",
          "name": "",
          "type": "bool"
        }
      ],
      "stateMutability": "view",
      "type": "function"
    },
    {
      "inputs": [],
      "name": "notify",
      "outputs": [],
      "stateMutability": "nonpayable",
      "type": "function"
    },
    {
      "inputs": [],
      "name": "oneSplit",
      "outputs": [
        {
          "internalType": "contract OneSplitAudit",
          "name": "",
          "type": "address"
        }
      ],
      "stateMutability": "view",
      "type": "function"
    },
    {
      "inputs": [
        {
          "internalType": "bytes32",
          "name": "role",
          "type": "bytes32"
        },
        {
          "internalType": "address",
          "name": "account",
          "type": "address"
        }
      ],
      "name": "renounceRole",
      "outputs": [],
      "stateMutability": "nonpayable",
      "type": "function"
    },
    {
      "inputs": [
        {
          "internalType": "bytes32",
          "name": "role",
          "type": "bytes32"
        },
        {
          "internalType": "address",
          "name": "account",
          "type": "address"
        }
      ],
      "name": "revokeRole",
      "outputs": [],
      "stateMutability": "nonpayable",
      "type": "function"
    },
    {
      "inputs": [],
      "name": "rewardToken",
      "outputs": [
        {
          "internalType": "contract IERC20",
          "name": "",
          "type": "address"
        }
      ],
      "stateMutability": "view",
      "type": "function"
    },
    {
      "inputs": [
        {
          "internalType": "bytes4",
          "name": "interfaceId",
          "type": "bytes4"
        }
      ],
      "name": "supportsInterface",
      "outputs": [
        {
          "internalType": "bool",
          "name": "",
          "type": "bool"
        }
      ],
      "stateMutability": "view",
      "type": "function"
    },
    {
      "inputs": [],
      "name": "xMPHToken",
      "outputs": [
        {
          "internalType": "contract xMPH",
          "name": "",
          "type": "address"
        }
      ],
      "stateMutability": "view",
      "type": "function"
    },
    {
      "inputs": [
        {
          "internalType": "address",
          "name": "yTokenAddress",
          "type": "address"
        }
      ],
      "name": "yearnWithdraw",
      "outputs": [],
      "stateMutability": "nonpayable",
      "type": "function"
    }
  ],
  "transactionHash": "0x8c2876a356cadc841e331f8ff8e968c67269ca7e1e1ca5c8c4b545ebe2c73787",
  "args": [
    "0xdEad000000000000000000000000000000000000",
    "0xA732a7184fe57C406711d0AcC42Dd08fe63e48E5"
  ],
  "solcInputHash": "e60ae8ce476666259c0e591d71d287b8",
  "bytecode": "0x60806040523480156200001157600080fd5b5060405162001e3638038062001e368339810160408190526200003491620001be565b8181620000436000336200010e565b600180546001600160a01b038085166001600160a01b03199283161790925560028054928416929091168217905560408051632304aa6160e01b81529051632304aa6191600480820192602092909190829003018186803b158015620000a857600080fd5b505afa158015620000bd573d6000803e3d6000fd5b505050506040513d601f19601f82011682018060405250810190620000e39190620001fc565b600380546001600160a01b0319166001600160a01b0392909216919091179055506200023b92505050565b6200011a82826200011e565b5050565b6000828152602081815260408083206001600160a01b038516845290915290205460ff166200011a576000828152602081815260408083206001600160a01b03851684529091529020805460ff191660011790556200017a3390565b6001600160a01b0316816001600160a01b0316837f2f8788117e7eff1d82e926ec794901d17c78024a50270940304540a733656f0d60405160405180910390a45050565b60008060408385031215620001d1578182fd5b8251620001de8162000222565b6020840151909250620001f18162000222565b809150509250929050565b6000602082840312156200020e578081fd5b81516200021b8162000222565b9392505050565b6001600160a01b03811681146200023857600080fd5b50565b611beb806200024b6000396000f3fe608060405234801561001057600080fd5b50600436106101215760003560e01c80636e0d0b99116100ad578063d193769411610071578063d193769414610275578063d547741f14610288578063d7180cc81461029b578063ee599f36146102ae578063f7c618c1146102c157610121565b80636e0d0b991461022c578063899f58981461023f57806391d1485414610247578063a217fddf1461025a578063b31a4bfa1461026257610121565b806336568abe116100f457806336568abe146101a757806341b8d1ba146101ba57806343ee21f0146101db5780634590179214610206578063572913b81461021957610121565b806301ffc9a7146101265780631a83301f1461014e578063248a9ca3146101635780632f2ff15d14610194575b600080fd5b6101396101343660046117e4565b6102d4565b60405190151581526020015b60405180910390f35b61016161015c3660046116fc565b61030d565b005b6101866101713660046117a1565b60009081526020819052604090206001015490565b604051908152602001610145565b6101616101a23660046117b9565b6105b8565b6101616101b53660046117b9565b6105e4565b6101cd6101c83660046116d3565b610662565b604051610145929190611abe565b6001546101ee906001600160a01b031681565b6040516001600160a01b039091168152602001610145565b6002546101ee906001600160a01b031681565b6101616102273660046115ce565b610792565b61016161023a36600461156b565b6108a2565b6101616109a7565b6101396102553660046117b9565b610acb565b610186600081565b610161610270366004611682565b610af4565b610161610283366004611646565b610c10565b6101616102963660046117b9565b610ce6565b6101616102a9366004611585565b610d0c565b6101616102bc36600461160a565b610de2565b6003546101ee906001600160a01b031681565b60006001600160e01b03198216637965db0b60e01b148061030557506301ffc9a760e01b6001600160e01b03198316145b90505b919050565b610318600033610acb565b61033d5760405162461bcd60e51b815260040161033490611a1f565b60405180910390fd5b6040516370a0823160e01b815230600482015284906000906001600160a01b038316906370a082319060240160206040518083038186803b15801561038157600080fd5b505afa158015610395573d6000803e3d6000fd5b505050506040513d601f19601f820116820180604052508101906103b9919061180c565b6001549091506103d6906001600160a01b03848116911683610eb8565b6003546040516370a0823160e01b81523060048201526000916001600160a01b0316906370a082319060240160206040518083038186803b15801561041a57600080fd5b505afa15801561042e573d6000803e3d6000fd5b505050506040513d601f19601f82011682018060405250810190610452919061180c565b600154600354604051637153a8af60e11b81529293506001600160a01b039182169263e2a7515e92610496928c9291169087908c908c908c90600090600401611981565b600060405180830381600087803b1580156104b057600080fd5b505af11580156104c4573d6000803e3d6000fd5b50506003546040516370a0823160e01b8152306004820152600093506001600160a01b0390911691506370a082319060240160206040518083038186803b15801561050e57600080fd5b505afa158015610522573d6000803e3d6000fd5b505050506040513d601f19601f82011682018060405250810190610546919061180c565b90508181116105ae5760405162461bcd60e51b815260206004820152602e60248201527f4f6e6553706c697444756d7065723a207265636569766564526577617264546f60448201526d06b656e416d6f756e74203d3d20360941b6064820152608401610334565b5050505050505050565b6000828152602081905260409020600101546105d581335b610fd4565b6105df8383611038565b505050565b6001600160a01b03811633146106545760405162461bcd60e51b815260206004820152602f60248201527f416363657373436f6e74726f6c3a2063616e206f6e6c792072656e6f756e636560448201526e103937b632b9903337b91039b2b63360891b6064820152608401610334565b61065e82826110bc565b5050565b6040516370a0823160e01b8152306004820152600090606090849083906001600160a01b038316906370a082319060240160206040518083038186803b1580156106ab57600080fd5b505afa1580156106bf573d6000803e3d6000fd5b505050506040513d601f19601f820116820180604052508101906106e3919061180c565b60015460035460405163085e2c5b60e01b81526001600160a01b038a811660048301529182166024820152604481018490526064810189905260006084820152929350169063085e2c5b9060a40160006040518083038186803b15801561074957600080fd5b505afa15801561075d573d6000803e3d6000fd5b505050506040513d6000823e601f3d908101601f191682016040526107859190810190611824565b9097909650945050505050565b61079d600033610acb565b6107b95760405162461bcd60e51b815260040161033490611a1f565b6040516370a0823160e01b815230600482015283906000906001600160a01b038316906370a082319060240160206040518083038186803b1580156107fd57600080fd5b505afa158015610811573d6000803e3d6000fd5b505050506040513d601f19601f82011682018060405250810190610835919061180c565b60405163ecb586a560e01b815290915084906001600160a01b0382169063ecb586a5906108689085908890600401611a70565b600060405180830381600087803b15801561088257600080fd5b505af1158015610896573d6000803e3d6000fd5b50505050505050505050565b6108ad600033610acb565b6108c95760405162461bcd60e51b815260040161033490611a1f565b6040516370a0823160e01b815230600482015281906000906001600160a01b038316906370a082319060240160206040518083038186803b15801561090d57600080fd5b505afa158015610921573d6000803e3d6000fd5b505050506040513d601f19601f82011682018060405250810190610945919061180c565b604051632e1a7d4d60e01b8152600481018290529091506001600160a01b03831690632e1a7d4d90602401600060405180830381600087803b15801561098a57600080fd5b505af115801561099e573d6000803e3d6000fd5b50505050505050565b6109b2600033610acb565b6109ce5760405162461bcd60e51b815260040161033490611a1f565b6003546040516370a0823160e01b81523060048201526000916001600160a01b0316906370a082319060240160206040518083038186803b158015610a1257600080fd5b505afa158015610a26573d6000803e3d6000fd5b505050506040513d601f19601f82011682018060405250810190610a4a919061180c565b600254600354919250610a6a916001600160a01b03908116911683610eb8565b60025460405163940a4e4560e01b8152600481018390526001600160a01b039091169063940a4e4590602401600060405180830381600087803b158015610ab057600080fd5b505af1158015610ac4573d6000803e3d6000fd5b5050505050565b6000918252602082815260408084206001600160a01b0393909316845291905290205460ff1690565b610aff600033610acb565b610b1b5760405162461bcd60e51b815260040161033490611a1f565b6040516370a0823160e01b815230600482015284906000906001600160a01b038316906370a082319060240160206040518083038186803b158015610b5f57600080fd5b505afa158015610b73573d6000803e3d6000fd5b505050506040513d601f19601f82011682018060405250810190610b97919061180c565b604051630d2680e960e11b815260048101829052600f86900b60248201526044810185905290915085906001600160a01b03821690631a4d01d290606401600060405180830381600087803b158015610bef57600080fd5b505af1158015610c03573d6000803e3d6000fd5b5050505050505050505050565b610c1b600033610acb565b610c375760405162461bcd60e51b815260040161033490611a1f565b6040516370a0823160e01b815230600482015283906000906001600160a01b038316906370a082319060240160206040518083038186803b158015610c7b57600080fd5b505afa158015610c8f573d6000803e3d6000fd5b505050506040513d601f19601f82011682018060405250810190610cb3919061180c565b6040516371dffae760e11b815290915084906001600160a01b0382169063e3bff5ce906108689085908890600401611aa4565b600082815260208190526040902060010154610d0281336105d0565b6105df83836110bc565b610d17600033610acb565b610d335760405162461bcd60e51b815260040161033490611a1f565b6040516370a0823160e01b815230600482015283906000906001600160a01b038316906370a082319060240160206040518083038186803b158015610d7757600080fd5b505afa158015610d8b573d6000803e3d6000fd5b505050506040513d601f19601f82011682018060405250810190610daf919061180c565b6040516316cd8e2760e21b815290915084906001600160a01b03821690635b36389c906108689085908890600401611a56565b610ded600033610acb565b610e095760405162461bcd60e51b815260040161033490611a1f565b6040516370a0823160e01b815230600482015283906000906001600160a01b038316906370a082319060240160206040518083038186803b158015610e4d57600080fd5b505afa158015610e61573d6000803e3d6000fd5b505050506040513d601f19601f82011682018060405250810190610e85919061180c565b604051637d49d87560e01b815290915084906001600160a01b03821690637d49d875906108689085908890600401611a8a565b604051636eb1769f60e11b81523060048201526001600160a01b0383811660248301526000919085169063dd62ed3e9060440160206040518083038186803b158015610f0357600080fd5b505afa158015610f17573d6000803e3d6000fd5b505050506040513d601f19601f82011682018060405250810190610f3b919061180c565b1115610fa4576040516001600160a01b038316602482015260006044820152610fa490849063095ea7b360e01b906064015b60408051601f198184030181529190526020810180516001600160e01b03166001600160e01b031990931692909217909152611121565b6040516001600160a01b0383166024820152604481018290526105df90849063095ea7b360e01b90606401610f6d565b610fde8282610acb565b61065e57610ff6816001600160a01b031660146111f3565b6110018360206111f3565b60405160200161101292919061190c565b60408051601f198184030181529082905262461bcd60e51b8252610334916004016119ec565b6110428282610acb565b61065e576000828152602081815260408083206001600160a01b03851684529091529020805460ff191660011790556110783390565b6001600160a01b0316816001600160a01b0316837f2f8788117e7eff1d82e926ec794901d17c78024a50270940304540a733656f0d60405160405180910390a45050565b6110c68282610acb565b1561065e576000828152602081815260408083206001600160a01b0385168085529252808320805460ff1916905551339285917ff6391f5c32d9c69d2a47ea670b442974b53935d1edc7fd64eb21e047a839171b9190a45050565b6000611176826040518060400160405280602081526020017f5361666545524332303a206c6f772d6c6576656c2063616c6c206661696c6564815250856001600160a01b03166113dc9092919063ffffffff16565b8051909150156105df57808060200190518101906111949190611781565b6105df5760405162461bcd60e51b815260206004820152602a60248201527f5361666545524332303a204552433230206f7065726174696f6e20646964206e6044820152691bdd081cdd58d8d9595960b21b6064820152608401610334565b60606000611202836002611b23565b61120d906002611b0b565b67ffffffffffffffff81111561123357634e487b7160e01b600052604160045260246000fd5b6040519080825280601f01601f19166020018201604052801561125d576020820181803683370190505b509050600360fc1b8160008151811061128657634e487b7160e01b600052603260045260246000fd5b60200101906001600160f81b031916908160001a905350600f60fb1b816001815181106112c357634e487b7160e01b600052603260045260246000fd5b60200101906001600160f81b031916908160001a90535060006112e7846002611b23565b6112f2906001611b0b565b90505b6001811115611386576f181899199a1a9b1b9c1cb0b131b232b360811b85600f166010811061133457634e487b7160e01b600052603260045260246000fd5b1a60f81b82828151811061135857634e487b7160e01b600052603260045260246000fd5b60200101906001600160f81b031916908160001a90535060049490941c9361137f81611b72565b90506112f5565b5083156113d55760405162461bcd60e51b815260206004820181905260248201527f537472696e67733a20686578206c656e67746820696e73756666696369656e746044820152606401610334565b9392505050565b60606113eb84846000856113f3565b949350505050565b6060824710156114545760405162461bcd60e51b815260206004820152602660248201527f416464726573733a20696e73756666696369656e742062616c616e636520666f6044820152651c8818d85b1b60d21b6064820152608401610334565b843b6114a25760405162461bcd60e51b815260206004820152601d60248201527f416464726573733a2063616c6c20746f206e6f6e2d636f6e74726163740000006044820152606401610334565b600080866001600160a01b031685876040516114be91906118f0565b60006040518083038185875af1925050503d80600081146114fb576040519150601f19603f3d011682016040523d82523d6000602084013e611500565b606091505b509150915061151082828661151b565b979650505050505050565b6060831561152a5750816113d5565b82511561153a5782518084602001fd5b8160405162461bcd60e51b815260040161033491906119ec565b80356001600160a01b038116811461030857600080fd5b60006020828403121561157c578081fd5b6113d582611554565b600080600060808486031215611599578182fd5b6115a284611554565b92506115b060208501611554565b9150846080850111156115c1578081fd5b6040840190509250925092565b600080600060a084860312156115e2578283fd5b6115eb84611554565b92506115f960208501611554565b91508460a0850111156115c1578081fd5b600080600060c0848603121561161e578283fd5b61162784611554565b925061163560208501611554565b91508460c0850111156115c1578081fd5b600080600060e0848603121561165a578283fd5b61166384611554565b925061167160208501611554565b91508460e0850111156115c1578081fd5b60008060008060808587031215611697578081fd5b6116a085611554565b93506116ae60208601611554565b9250604085013580600f0b81146116c3578182fd5b9396929550929360600135925050565b600080604083850312156116e5578182fd5b6116ee83611554565b946020939093013593505050565b60008060008060608587031215611711578384fd5b61171a85611554565b935060208501359250604085013567ffffffffffffffff8082111561173d578384fd5b818701915087601f830112611750578384fd5b81358181111561175e578485fd5b8860208260051b8501011115611772578485fd5b95989497505060200194505050565b600060208284031215611792578081fd5b815180151581146113d5578182fd5b6000602082840312156117b2578081fd5b5035919050565b600080604083850312156117cb578182fd5b823591506117db60208401611554565b90509250929050565b6000602082840312156117f5578081fd5b81356001600160e01b0319811681146113d5578182fd5b60006020828403121561181d578081fd5b5051919050565b60008060408385031215611836578182fd5b8251915060208084015167ffffffffffffffff80821115611855578384fd5b818601915086601f830112611868578384fd5b81518181111561187a5761187a611b9f565b8060051b604051601f19603f8301168101818110858211171561189f5761189f611b9f565b604052828152858101935084860182860187018b10156118bd578788fd5b8795505b838610156118df5780518552600195909501949386019386016118c1565b508096505050505050509250929050565b60008251611902818460208701611b42565b9190910192915050565b60007f416363657373436f6e74726f6c3a206163636f756e742000000000000000000082528351611944816017850160208801611b42565b7001034b99036b4b9b9b4b733903937b6329607d1b6017918401918201528351611975816028840160208801611b42565b01602801949350505050565b6001600160a01b03888116825287166020820152604081018690526060810185905260c060808201819052810183905260006001600160fb1b038411156119c6578081fd5b8360051b808660e0850137820160e00190815260a0909101919091529695505050505050565b6000602082528251806020840152611a0b816040850160208701611b42565b601f01601f19169190910160400192915050565b6020808252601a908201527f41646d696e436f6e74726f6c6c65643a206e6f742061646d696e000000000000604082015260600190565b828152606081016040836020840137600081529392505050565b828152608081016060836020840137600081529392505050565b82815260a081016080836020840137600081529392505050565b82815260c0810160a0836020840137600081529392505050565b60006040820184835260206040818501528185518084526060860191508287019350845b81811015611afe57845183529383019391830191600101611ae2565b5090979650505050505050565b60008219821115611b1e57611b1e611b89565b500190565b6000816000190483118215151615611b3d57611b3d611b89565b500290565b60005b83811015611b5d578181015183820152602001611b45565b83811115611b6c576000848401525b50505050565b600081611b8157611b81611b89565b506000190190565b634e487b7160e01b600052601160045260246000fd5b634e487b7160e01b600052604160045260246000fdfea2646970667358221220cfd5661ad5a0f60b236bbb0c365291ff0a9c5b3f36621e0d5b63ad328645b96064736f6c63430008030033",
  "devdoc": {
    "kind": "dev",
    "methods": {
      "getRoleAdmin(bytes32)": {
        "details": "Returns the admin role that controls `role`. See {grantRole} and {revokeRole}. To change a role's admin, use {_setRoleAdmin}."
      },
      "grantRole(bytes32,address)": {
        "details": "Grants `role` to `account`. If `account` had not been already granted `role`, emits a {RoleGranted} event. Requirements: - the caller must have ``role``'s admin role."
      },
      "hasRole(bytes32,address)": {
        "details": "Returns `true` if `account` has been granted `role`."
      },
      "renounceRole(bytes32,address)": {
        "details": "Revokes `role` from the calling account. Roles are often managed via {grantRole} and {revokeRole}: this function's purpose is to provide a mechanism for accounts to lose their privileges if they are compromised (such as when a trusted device is misplaced). If the calling account had been granted `role`, emits a {RoleRevoked} event. Requirements: - the caller must be `account`."
      },
      "revokeRole(bytes32,address)": {
        "details": "Revokes `role` from `account`. If `account` had been granted `role`, emits a {RoleRevoked} event. Requirements: - the caller must have ``role``'s admin role."
      },
      "supportsInterface(bytes4)": {
        "details": "See {IERC165-supportsInterface}."
      }
    },
    "version": 1
  },
  "userdoc": {
    "kind": "user",
    "methods": {},
    "version": 1
  },
  "storageLayout": {
    "storage": [
      {
        "astId": 3915,
        "contract": "contracts/rewards/dumpers/Dumper.sol:Dumper",
        "label": "_roles",
        "offset": 0,
        "slot": "0",
        "type": "t_mapping(t_bytes32,t_struct(RoleData)3910_storage)"
      },
      {
        "astId": 21085,
        "contract": "contracts/rewards/dumpers/Dumper.sol:Dumper",
        "label": "oneSplit",
        "offset": 0,
        "slot": "1",
        "type": "t_contract(OneSplitAudit)21404"
      },
      {
        "astId": 21088,
        "contract": "contracts/rewards/dumpers/Dumper.sol:Dumper",
        "label": "xMPHToken",
        "offset": 0,
        "slot": "2",
        "type": "t_contract(xMPH)22128"
      },
      {
        "astId": 21091,
        "contract": "contracts/rewards/dumpers/Dumper.sol:Dumper",
        "label": "rewardToken",
        "offset": 0,
        "slot": "3",
        "type": "t_contract(IERC20)5070"
      }
    ],
    "types": {
      "t_address": {
        "encoding": "inplace",
        "label": "address",
        "numberOfBytes": "20"
      },
      "t_bool": {
        "encoding": "inplace",
        "label": "bool",
        "numberOfBytes": "1"
      },
      "t_bytes32": {
        "encoding": "inplace",
        "label": "bytes32",
        "numberOfBytes": "32"
      },
      "t_contract(IERC20)5070": {
        "encoding": "inplace",
        "label": "contract IERC20",
        "numberOfBytes": "20"
      },
      "t_contract(OneSplitAudit)21404": {
        "encoding": "inplace",
        "label": "contract OneSplitAudit",
        "numberOfBytes": "20"
      },
      "t_contract(xMPH)22128": {
        "encoding": "inplace",
        "label": "contract xMPH",
        "numberOfBytes": "20"
      },
      "t_mapping(t_address,t_bool)": {
        "encoding": "mapping",
        "key": "t_address",
        "label": "mapping(address => bool)",
        "numberOfBytes": "32",
        "value": "t_bool"
      },
      "t_mapping(t_bytes32,t_struct(RoleData)3910_storage)": {
        "encoding": "mapping",
        "key": "t_bytes32",
        "label": "mapping(bytes32 => struct AccessControl.RoleData)",
        "numberOfBytes": "32",
        "value": "t_struct(RoleData)3910_storage"
      },
      "t_struct(RoleData)3910_storage": {
        "encoding": "inplace",
        "label": "struct AccessControl.RoleData",
        "members": [
          {
            "astId": 3907,
            "contract": "contracts/rewards/dumpers/Dumper.sol:Dumper",
            "label": "members",
            "offset": 0,
            "slot": "0",
            "type": "t_mapping(t_address,t_bool)"
          },
          {
            "astId": 3909,
            "contract": "contracts/rewards/dumpers/Dumper.sol:Dumper",
            "label": "adminRole",
            "offset": 0,
            "slot": "1",
            "type": "t_bytes32"
          }
        ],
        "numberOfBytes": "64"
      }
    }
  }
}