{
  "address": "0x52BD4AD7525020081d5583DA1993d8b8ab01f855",
  "abi": [
    {
      "inputs": [],
      "name": "ONE_MINUS_UPDATE_MULTIPLIER",
      "outputs": [
        {
          "internalType": "uint256",
          "name": "",
          "type": "uint256"
        }
      ],
      "stateMutability": "view",
      "type": "function"
    },
    {
      "inputs": [],
      "name": "UPDATE_INTERVAL",
      "outputs": [
        {
          "internalType": "uint256",
          "name": "",
          "type": "uint256"
        }
      ],
      "stateMutability": "view",
      "type": "function"
    },
    {
      "inputs": [],
      "name": "UPDATE_MULTIPLIER",
      "outputs": [
        {
          "internalType": "uint256",
          "name": "",
          "type": "uint256"
        }
      ],
      "stateMutability": "view",
      "type": "function"
    },
    {
      "inputs": [],
      "name": "emaStored",
      "outputs": [
        {
          "internalType": "uint256",
          "name": "",
          "type": "uint256"
        }
      ],
      "stateMutability": "view",
      "type": "function"
    },
    {
      "inputs": [
        {
          "internalType": "uint256",
          "name": "_emaInitial",
          "type": "uint256"
        },
        {
          "internalType": "uint256",
          "name": "_updateInterval",
          "type": "uint256"
        },
        {
          "internalType": "uint256",
          "name": "_smoothingFactor",
          "type": "uint256"
        },
        {
          "internalType": "uint256",
          "name": "_averageWindowInIntervals",
          "type": "uint256"
        },
        {
          "internalType": "address",
          "name": "_moneyMarket",
          "type": "address"
        }
      ],
      "name": "initialize",
      "outputs": [],
      "stateMutability": "nonpayable",
      "type": "function"
    },
    {
      "inputs": [],
      "name": "lastIncomeIndex",
      "outputs": [
        {
          "internalType": "uint256",
          "name": "",
          "type": "uint256"
        }
      ],
      "stateMutability": "view",
      "type": "function"
    },
    {
      "inputs": [],
      "name": "lastUpdateTimestamp",
      "outputs": [
        {
          "internalType": "uint256",
          "name": "",
          "type": "uint256"
        }
      ],
      "stateMutability": "view",
      "type": "function"
    },
    {
      "inputs": [],
      "name": "moneyMarket",
      "outputs": [
        {
          "internalType": "contract MoneyMarket",
          "name": "",
          "type": "address"
        }
      ],
      "stateMutability": "view",
      "type": "function"
    },
    {
      "inputs": [],
      "name": "query",
      "outputs": [
        {
          "internalType": "uint256",
          "name": "value",
          "type": "uint256"
        }
      ],
      "stateMutability": "view",
      "type": "function"
    },
    {
      "inputs": [],
      "name": "updateAndQuery",
      "outputs": [
        {
          "internalType": "bool",
          "name": "updated",
          "type": "bool"
        },
        {
          "internalType": "uint256",
          "name": "value",
          "type": "uint256"
        }
      ],
      "stateMutability": "nonpayable",
      "type": "function"
    }
  ],
  "transactionHash": "0x11976b94c7f03245eecc2deafdc2cb6b40a16a32d5dccfb6183be9039d342ee6",
  "args": [],
  "solcInputHash": "ef30a810f52e8546dd2d48092c96ad7a",
  "bytecode": "0x608060405234801561001057600080fd5b5061056b806100206000396000f3fe608060405234801561001057600080fd5b506004361061009e5760003560e01c806389ac41471161006657806389ac4147146100f85780639f1253d314610101578063ccd652961461010a578063d6d75f511461011f578063da18778e1461014a5761009e565b8063079420a8146100a357806314bcec9f146100bf5780632c46b205146100c857806356f6a826146100d057806385b3a931146100d9575b600080fd5b6100ac60035481565b6040519081526020015b60405180910390f35b6100ac60065481565b6004546100ac565b6100ac60025481565b6100e1610153565b6040805192151583526020830191909152016100b6565b6100ac60015481565b6100ac60055481565b61011d61011836600461045a565b61028c565b005b600754610132906001600160a01b031681565b6040516001600160a01b0390911681526020016100b6565b6100ac60045481565b6000806000600654426101669190610508565b905060015481101561018057505060045460009150610288565b600554600480546007546040805163010e130960e51b8152905192936000936001600160a01b03909316926321c2612092808301926020929182900301818787803b1580156101ce57600080fd5b505af11580156101e2573d6000803e3d6000fd5b505050506040513d601f19601f820116820180604052508101906102069190610442565b9050828110156102135750815b60008461022a856102248186610508565b9061041c565b61023491906104c9565b905060019650670de0b6b3a76400006003548461025191906104e9565b60025461025e90846104e9565b61026891906104b1565b61027291906104c9565b6004819055600592909255504260065593505050505b9091565b600054610100900460ff16806102a5575060005460ff16155b61030c5760405162461bcd60e51b815260206004820152602e60248201527f496e697469616c697a61626c653a20636f6e747261637420697320616c72656160448201526d191e481a5b9a5d1a585b1a5e995960921b606482015260840160405180910390fd5b600054610100900460ff1615801561032e576000805461ffff19166101011790555b600486905560018581554260065560009061034a9085906104b1565b61035490866104c9565b6002819055905061036d81670de0b6b3a7640000610508565b600355600780546001600160a01b0319166001600160a01b0385169081179091556040805163010e130960e51b815290516321c26120916004808201926020929091908290030181600087803b1580156103c657600080fd5b505af11580156103da573d6000803e3d6000fd5b505050506040513d601f19601f820116820180604052508101906103fe9190610442565b600555508015610414576000805461ff00191690555b505050505050565b600081610431670de0b6b3a7640000856104e9565b61043b91906104c9565b9392505050565b600060208284031215610453578081fd5b5051919050565b600080600080600060a08688031215610471578081fd5b8535945060208601359350604086013592506060860135915060808601356001600160a01b03811681146104a3578182fd5b809150509295509295909350565b600082198211156104c4576104c461051f565b500190565b6000826104e457634e487b7160e01b81526012600452602481fd5b500490565b60008160001904831182151516156105035761050361051f565b500290565b60008282101561051a5761051a61051f565b500390565b634e487b7160e01b600052601160045260246000fdfea26469706673582212200ea8dd7885e868954cf7eaa73874de10205ff0f4ce341436bbe27a76e3f4f5ac64736f6c63430008030033",
  "devdoc": {
    "kind": "dev",
    "methods": {},
    "version": 1
  },
  "userdoc": {
    "kind": "user",
    "methods": {
      "UPDATE_INTERVAL()": {
        "notice": "Immutable parameters"
      },
      "emaStored()": {
        "notice": "Public variables"
      },
      "moneyMarket()": {
        "notice": "External contracts"
      }
    },
    "version": 1
  },
  "storageLayout": {
    "storage": [
      {
        "astId": 612,
        "contract": "contracts/models/interest-oracle/EMAOracle.sol:EMAOracle",
        "label": "_initialized",
        "offset": 0,
        "slot": "0",
        "type": "t_bool"
      },
      {
        "astId": 615,
        "contract": "contracts/models/interest-oracle/EMAOracle.sol:EMAOracle",
        "label": "_initializing",
        "offset": 1,
        "slot": "0",
        "type": "t_bool"
      },
      {
        "astId": 16620,
        "contract": "contracts/models/interest-oracle/EMAOracle.sol:EMAOracle",
        "label": "UPDATE_INTERVAL",
        "offset": 0,
        "slot": "1",
        "type": "t_uint256"
      },
      {
        "astId": 16622,
        "contract": "contracts/models/interest-oracle/EMAOracle.sol:EMAOracle",
        "label": "UPDATE_MULTIPLIER",
        "offset": 0,
        "slot": "2",
        "type": "t_uint256"
      },
      {
        "astId": 16624,
        "contract": "contracts/models/interest-oracle/EMAOracle.sol:EMAOracle",
        "label": "ONE_MINUS_UPDATE_MULTIPLIER",
        "offset": 0,
        "slot": "3",
        "type": "t_uint256"
      },
      {
        "astId": 16627,
        "contract": "contracts/models/interest-oracle/EMAOracle.sol:EMAOracle",
        "label": "emaStored",
        "offset": 0,
        "slot": "4",
        "type": "t_uint256"
      },
      {
        "astId": 16629,
        "contract": "contracts/models/interest-oracle/EMAOracle.sol:EMAOracle",
        "label": "lastIncomeIndex",
        "offset": 0,
        "slot": "5",
        "type": "t_uint256"
      },
      {
        "astId": 16631,
        "contract": "contracts/models/interest-oracle/EMAOracle.sol:EMAOracle",
        "label": "lastUpdateTimestamp",
        "offset": 0,
        "slot": "6",
        "type": "t_uint256"
      },
      {
        "astId": 16636,
        "contract": "contracts/models/interest-oracle/EMAOracle.sol:EMAOracle",
        "label": "moneyMarket",
        "offset": 0,
        "slot": "7",
        "type": "t_contract(MoneyMarket)17114"
      },
      {
        "astId": 16799,
        "contract": "contracts/models/interest-oracle/EMAOracle.sol:EMAOracle",
        "label": "__gap",
        "offset": 0,
        "slot": "8",
        "type": "t_array(t_uint256)43_storage"
      }
    ],
    "types": {
      "t_array(t_uint256)43_storage": {
        "base": "t_uint256",
        "encoding": "inplace",
        "label": "uint256[43]",
        "numberOfBytes": "1376"
      },
      "t_bool": {
        "encoding": "inplace",
        "label": "bool",
        "numberOfBytes": "1"
      },
      "t_contract(MoneyMarket)17114": {
        "encoding": "inplace",
        "label": "contract MoneyMarket",
        "numberOfBytes": "20"
      },
      "t_uint256": {
        "encoding": "inplace",
        "label": "uint256",
        "numberOfBytes": "32"
      }
    }
  }
}