{
  "address": "0xFa209E3898Cc5b26B149173bc0B778e9b8BdEcd9",
  "abi": [
    {
      "anonymous": false,
      "inputs": [
        {
          "indexed": true,
          "internalType": "address",
          "name": "owner",
          "type": "address"
        },
        {
          "indexed": true,
          "internalType": "address",
          "name": "spender",
          "type": "address"
        },
        {
          "indexed": false,
          "internalType": "uint256",
          "name": "value",
          "type": "uint256"
        }
      ],
      "name": "Approval",
      "type": "event"
    },
    {
      "anonymous": false,
      "inputs": [
        {
          "indexed": true,
          "internalType": "address",
          "name": "from",
          "type": "address"
        },
        {
          "indexed": true,
          "internalType": "address",
          "name": "to",
          "type": "address"
        },
        {
          "indexed": false,
          "internalType": "uint256",
          "name": "value",
          "type": "uint256"
        }
      ],
      "name": "Transfer",
      "type": "event"
    },
    {
      "inputs": [
        {
          "internalType": "address",
          "name": "owner",
          "type": "address"
        },
        {
          "internalType": "address",
          "name": "spender",
          "type": "address"
        }
      ],
      "name": "allowance",
      "outputs": [
        {
          "internalType": "uint256",
          "name": "",
          "type": "uint256"
        }
      ],
      "stateMutability": "view",
      "type": "function"
    },
    {
      "inputs": [
        {
          "internalType": "address",
          "name": "spender",
          "type": "address"
        },
        {
          "internalType": "uint256",
          "name": "amount",
          "type": "uint256"
        }
      ],
      "name": "approve",
      "outputs": [
        {
          "internalType": "bool",
          "name": "",
          "type": "bool"
        }
      ],
      "stateMutability": "nonpayable",
      "type": "function"
    },
    {
      "inputs": [
        {
          "internalType": "address",
          "name": "account",
          "type": "address"
        }
      ],
      "name": "balanceOf",
      "outputs": [
        {
          "internalType": "uint256",
          "name": "",
          "type": "uint256"
        }
      ],
      "stateMutability": "view",
      "type": "function"
    },
    {
      "inputs": [],
      "name": "decimals",
      "outputs": [
        {
          "internalType": "uint8",
          "name": "",
          "type": "uint8"
        }
      ],
      "stateMutability": "view",
      "type": "function"
    },
    {
      "inputs": [
        {
          "internalType": "address",
          "name": "spender",
          "type": "address"
        },
        {
          "internalType": "uint256",
          "name": "subtractedValue",
          "type": "uint256"
        }
      ],
      "name": "decreaseAllowance",
      "outputs": [
        {
          "internalType": "bool",
          "name": "",
          "type": "bool"
        }
      ],
      "stateMutability": "nonpayable",
      "type": "function"
    },
    {
      "inputs": [
        {
          "internalType": "address",
          "name": "from",
          "type": "address"
        },
        {
          "internalType": "address",
          "name": "to",
          "type": "address"
        },
        {
          "internalType": "uint256",
          "name": "amount",
          "type": "uint256"
        }
      ],
      "name": "emitTransferEvent",
      "outputs": [],
      "stateMutability": "nonpayable",
      "type": "function"
    },
    {
      "inputs": [
        {
          "internalType": "address",
          "name": "spender",
          "type": "address"
        },
        {
          "internalType": "uint256",
          "name": "addedValue",
          "type": "uint256"
        }
      ],
      "name": "increaseAllowance",
      "outputs": [
        {
          "internalType": "bool",
          "name": "",
          "type": "bool"
        }
      ],
      "stateMutability": "nonpayable",
      "type": "function"
    },
    {
      "inputs": [
        {
          "internalType": "address",
          "name": "_parentMultitoken",
          "type": "address"
        },
        {
          "internalType": "uint256",
          "name": "_tokenID",
          "type": "uint256"
        },
        {
          "internalType": "string",
          "name": "_name",
          "type": "string"
        },
        {
          "internalType": "string",
          "name": "_symbol",
          "type": "string"
        },
        {
          "internalType": "uint8",
          "name": "_decimals",
          "type": "uint8"
        }
      ],
      "name": "initialize",
      "outputs": [],
      "stateMutability": "nonpayable",
      "type": "function"
    },
    {
      "inputs": [],
      "name": "name",
      "outputs": [
        {
          "internalType": "string",
          "name": "",
          "type": "string"
        }
      ],
      "stateMutability": "view",
      "type": "function"
    },
    {
      "inputs": [],
      "name": "parentMultitoken",
      "outputs": [
        {
          "internalType": "contract WrappedERC1155Token",
          "name": "",
          "type": "address"
        }
      ],
      "stateMutability": "view",
      "type": "function"
    },
    {
      "inputs": [],
      "name": "symbol",
      "outputs": [
        {
          "internalType": "string",
          "name": "",
          "type": "string"
        }
      ],
      "stateMutability": "view",
      "type": "function"
    },
    {
      "inputs": [],
      "name": "tokenID",
      "outputs": [
        {
          "internalType": "uint256",
          "name": "",
          "type": "uint256"
        }
      ],
      "stateMutability": "view",
      "type": "function"
    },
    {
      "inputs": [],
      "name": "totalSupply",
      "outputs": [
        {
          "internalType": "uint256",
          "name": "",
          "type": "uint256"
        }
      ],
      "stateMutability": "view",
      "type": "function"
    },
    {
      "inputs": [
        {
          "internalType": "address",
          "name": "recipient",
          "type": "address"
        },
        {
          "internalType": "uint256",
          "name": "amount",
          "type": "uint256"
        }
      ],
      "name": "transfer",
      "outputs": [
        {
          "internalType": "bool",
          "name": "",
          "type": "bool"
        }
      ],
      "stateMutability": "nonpayable",
      "type": "function"
    },
    {
      "inputs": [
        {
          "internalType": "address",
          "name": "sender",
          "type": "address"
        },
        {
          "internalType": "address",
          "name": "recipient",
          "type": "address"
        },
        {
          "internalType": "uint256",
          "name": "amount",
          "type": "uint256"
        }
      ],
      "name": "transferFrom",
      "outputs": [
        {
          "internalType": "bool",
          "name": "",
          "type": "bool"
        }
      ],
      "stateMutability": "nonpayable",
      "type": "function"
    }
  ],
  "transactionHash": "0x5c428c8ac30f84398e4e7ae1789492b79a80498043d9710738f1e8f7109ae650",
  "args": [],
  "solcInputHash": "e60ae8ce476666259c0e591d71d287b8",
  "bytecode": "0x608060405234801561001057600080fd5b50610ce8806100206000396000f3fe608060405234801561001057600080fd5b50600436106100f55760003560e01c806395d89b4111610097578063a9059cbb11610066578063a9059cbb146101e2578063be88368d146101f5578063dd62ed3e14610208578063f7ce86ee14610241576100f5565b806395d89b41146101a9578063a457c2d7146101b1578063a5c42ef1146101c4578063a6d49dca146101cd576100f5565b806323b872dd116100d357806323b872dd14610151578063313ce56714610164578063395093511461018357806370a0823114610196576100f5565b806306fdde03146100fa578063095ea7b31461011857806318160ddd1461013b575b600080fd5b61010261026c565b60405161010f9190610bdf565b60405180910390f35b61012b610126366004610afe565b6102fa565b604051901515815260200161010f565b610143610310565b60405190815260200161010f565b61012b61015f366004610ac3565b610396565b6006546101719060ff1681565b60405160ff909116815260200161010f565b61012b610191366004610afe565b610453565b6101436101a4366004610a70565b61048a565b610102610528565b61012b6101bf366004610afe565b610535565b61014360035481565b6101e06101db366004610ac3565b6105d7565b005b61012b6101f0366004610afe565b610683565b6101e0610203366004610b27565b610690565b610143610216366004610a91565b6001600160a01b03918216600090815260016020908152604080832093909416825291909152205490565b600254610254906001600160a01b031681565b6040516001600160a01b03909116815260200161010f565b6004805461027990610c61565b80601f01602080910402602001604051908101604052809291908181526020018280546102a590610c61565b80156102f25780601f106102c7576101008083540402835291602001916102f2565b820191906000526020600020905b8154815290600101906020018083116102d557829003601f168201915b505050505081565b6000610307338484610793565b50600192915050565b60025460035460405163bd85b03960e01b815260048101919091526000916001600160a01b03169063bd85b0399060240160206040518083038186803b15801561035957600080fd5b505afa15801561036d573d6000803e3d6000fd5b505050506040513d601f19601f820116820180604052508101906103919190610bc7565b905090565b60006103a38484846108be565b6001600160a01b0384166000908152600160209081526040808320338452909152902054828110156104345760405162461bcd60e51b815260206004820152602f60248201527f4552433230577261707065723a207472616e7366657220616d6f756e7420657860448201526e636565647320616c6c6f77616e636560881b60648201526084015b60405180910390fd5b61044885336104438685610c4a565b610793565b506001949350505050565b3360008181526001602090815260408083206001600160a01b03871684529091528120549091610307918590610443908690610c32565b600254600354604051627eeac760e11b81526000926001600160a01b03169162fdd58e916104d09186916004016001600160a01b03929092168252602082015260400190565b60206040518083038186803b1580156104e857600080fd5b505afa1580156104fc573d6000803e3d6000fd5b505050506040513d601f19601f820116820180604052508101906105209190610bc7565b90505b919050565b6005805461027990610c61565b3360009081526001602090815260408083206001600160a01b0386168452909152812054828110156105be5760405162461bcd60e51b815260206004820152602c60248201527f4552433230577261707065723a2064656372656173656420616c6c6f77616e6360448201526b652062656c6f77207a65726f60a01b606482015260840161042b565b6105cd33856104438685610c4a565b5060019392505050565b6002546001600160a01b031633146106315760405162461bcd60e51b815260206004820152601860248201527f4552433230577261707065723a206e6f7420706172656e740000000000000000604482015260640161042b565b816001600160a01b0316836001600160a01b03167fddf252ad1be2c89b69c2b068fc378daa952ba7f163c4a11628f55a4df523b3ef8360405161067691815260200190565b60405180910390a3505050565b60006103073384846108be565b600054610100900460ff16806106a9575060005460ff16155b61070c5760405162461bcd60e51b815260206004820152602e60248201527f496e697469616c697a61626c653a20636f6e747261637420697320616c72656160448201526d191e481a5b9a5d1a585b1a5e995960921b606482015260840161042b565b600054610100900460ff1615801561072e576000805461ffff19166101011790555b600280546001600160a01b0319166001600160a01b038a16179055600387905561075a60048787610979565b5061076760058585610979565b506006805460ff191660ff84161790558015610789576000805461ff00191690555b5050505050505050565b6001600160a01b0383166107fd5760405162461bcd60e51b815260206004820152602b60248201527f4552433230577261707065723a20617070726f76652066726f6d20746865207a60448201526a65726f206164647265737360a81b606482015260840161042b565b6001600160a01b0382166108655760405162461bcd60e51b815260206004820152602960248201527f4552433230577261707065723a20617070726f766520746f20746865207a65726044820152686f206164647265737360b81b606482015260840161042b565b6001600160a01b0383811660008181526001602090815260408083209487168084529482529182902085905590518481527f8c5be1e5ebec7d5bd14f71427d1e84f3dd0314c0f7b2291e5b200ac8c7c3b9259101610676565b600254600354604051639285a1e160e01b81523360048201526001600160a01b038581166024830152604482019290925260648101849052911690639285a1e190608401600060405180830381600087803b15801561091c57600080fd5b505af1158015610930573d6000803e3d6000fd5b50505050816001600160a01b0316836001600160a01b03167fddf252ad1be2c89b69c2b068fc378daa952ba7f163c4a11628f55a4df523b3ef8360405161067691815260200190565b82805461098590610c61565b90600052602060002090601f0160209004810192826109a757600085556109ed565b82601f106109c05782800160ff198235161785556109ed565b828001600101855582156109ed579182015b828111156109ed5782358255916020019190600101906109d2565b506109f99291506109fd565b5090565b5b808211156109f957600081556001016109fe565b80356001600160a01b038116811461052357600080fd5b60008083601f840112610a3a578182fd5b50813567ffffffffffffffff811115610a51578182fd5b602083019150836020828501011115610a6957600080fd5b9250929050565b600060208284031215610a81578081fd5b610a8a82610a12565b9392505050565b60008060408385031215610aa3578081fd5b610aac83610a12565b9150610aba60208401610a12565b90509250929050565b600080600060608486031215610ad7578081fd5b610ae084610a12565b9250610aee60208501610a12565b9150604084013590509250925092565b60008060408385031215610b10578182fd5b610b1983610a12565b946020939093013593505050565b600080600080600080600060a0888a031215610b41578283fd5b610b4a88610a12565b965060208801359550604088013567ffffffffffffffff80821115610b6d578485fd5b610b798b838c01610a29565b909750955060608a0135915080821115610b91578485fd5b50610b9e8a828b01610a29565b909450925050608088013560ff81168114610bb7578182fd5b8091505092959891949750929550565b600060208284031215610bd8578081fd5b5051919050565b6000602080835283518082850152825b81811015610c0b57858101830151858201604001528201610bef565b81811115610c1c5783604083870101525b50601f01601f1916929092016040019392505050565b60008219821115610c4557610c45610c9c565b500190565b600082821015610c5c57610c5c610c9c565b500390565b600181811c90821680610c7557607f821691505b60208210811415610c9657634e487b7160e01b600052602260045260246000fd5b50919050565b634e487b7160e01b600052601160045260246000fdfea26469706673582212209df20f55369405b78ae8238a96c8c479aa7a718c6c4c2c45892dc01b8d39266564736f6c63430008030033",
  "devdoc": {
    "kind": "dev",
    "methods": {
      "allowance(address,address)": {
        "details": "See {IERC20-allowance}."
      },
      "approve(address,uint256)": {
        "details": "See {IERC20-approve}. Requirements: - `spender` cannot be the zero address."
      },
      "balanceOf(address)": {
        "details": "See {IERC20-balanceOf}."
      },
      "decreaseAllowance(address,uint256)": {
        "details": "Atomically decreases the allowance granted to `spender` by the caller. This is an alternative to {approve} that can be used as a mitigation for problems described in {IERC20-approve}. Emits an {Approval} event indicating the updated allowance. Requirements: - `spender` cannot be the zero address. - `spender` must have allowance for the caller of at least `subtractedValue`."
      },
      "emitTransferEvent(address,address,uint256)": {
        "details": "Only callable by the parentMultitoken. Emits a transfer event when the parent token is transferred."
      },
      "increaseAllowance(address,uint256)": {
        "details": "Atomically increases the allowance granted to `spender` by the caller. This is an alternative to {approve} that can be used as a mitigation for problems described in {IERC20-approve}. Emits an {Approval} event indicating the updated allowance. Requirements: - `spender` cannot be the zero address."
      },
      "totalSupply()": {
        "details": "See {IERC20-totalSupply}."
      },
      "transfer(address,uint256)": {
        "details": "See {IERC20-transfer}. Requirements: - `recipient` cannot be the zero address. - the caller must have a balance of at least `amount`."
      },
      "transferFrom(address,address,uint256)": {
        "details": "See {IERC20-transferFrom}. Emits an {Approval} event indicating the updated allowance. This is not required by the EIP. See the note at the beginning of {ERC20}. Requirements: - `sender` and `recipient` cannot be the zero address. - `sender` must have a balance of at least `amount`. - the caller must have allowance for ``sender``'s tokens of at least `amount`."
      }
    },
    "version": 1
  },
  "userdoc": {
    "kind": "user",
    "methods": {},
    "notice": "An ERC-20 wrapper for a particular tokenID of an ERC-1155 token",
    "version": 1
  },
  "storageLayout": {
    "storage": [
      {
        "astId": 612,
        "contract": "contracts/libs/ERC20Wrapper.sol:ERC20Wrapper",
        "label": "_initialized",
        "offset": 0,
        "slot": "0",
        "type": "t_bool"
      },
      {
        "astId": 615,
        "contract": "contracts/libs/ERC20Wrapper.sol:ERC20Wrapper",
        "label": "_initializing",
        "offset": 1,
        "slot": "0",
        "type": "t_bool"
      },
      {
        "astId": 12630,
        "contract": "contracts/libs/ERC20Wrapper.sol:ERC20Wrapper",
        "label": "_allowances",
        "offset": 0,
        "slot": "1",
        "type": "t_mapping(t_address,t_mapping(t_address,t_uint256))"
      },
      {
        "astId": 12633,
        "contract": "contracts/libs/ERC20Wrapper.sol:ERC20Wrapper",
        "label": "parentMultitoken",
        "offset": 0,
        "slot": "2",
        "type": "t_contract(WrappedERC1155Token)13856"
      },
      {
        "astId": 12635,
        "contract": "contracts/libs/ERC20Wrapper.sol:ERC20Wrapper",
        "label": "tokenID",
        "offset": 0,
        "slot": "3",
        "type": "t_uint256"
      },
      {
        "astId": 12637,
        "contract": "contracts/libs/ERC20Wrapper.sol:ERC20Wrapper",
        "label": "name",
        "offset": 0,
        "slot": "4",
        "type": "t_string_storage"
      },
      {
        "astId": 12639,
        "contract": "contracts/libs/ERC20Wrapper.sol:ERC20Wrapper",
        "label": "symbol",
        "offset": 0,
        "slot": "5",
        "type": "t_string_storage"
      },
      {
        "astId": 12641,
        "contract": "contracts/libs/ERC20Wrapper.sol:ERC20Wrapper",
        "label": "decimals",
        "offset": 0,
        "slot": "6",
        "type": "t_uint8"
      },
      {
        "astId": 12983,
        "contract": "contracts/libs/ERC20Wrapper.sol:ERC20Wrapper",
        "label": "__gap",
        "offset": 0,
        "slot": "7",
        "type": "t_array(t_uint256)44_storage"
      }
    ],
    "types": {
      "t_address": {
        "encoding": "inplace",
        "label": "address",
        "numberOfBytes": "20"
      },
      "t_array(t_uint256)44_storage": {
        "base": "t_uint256",
        "encoding": "inplace",
        "label": "uint256[44]",
        "numberOfBytes": "1408"
      },
      "t_bool": {
        "encoding": "inplace",
        "label": "bool",
        "numberOfBytes": "1"
      },
      "t_contract(WrappedERC1155Token)13856": {
        "encoding": "inplace",
        "label": "contract WrappedERC1155Token",
        "numberOfBytes": "20"
      },
      "t_mapping(t_address,t_mapping(t_address,t_uint256))": {
        "encoding": "mapping",
        "key": "t_address",
        "label": "mapping(address => mapping(address => uint256))",
        "numberOfBytes": "32",
        "value": "t_mapping(t_address,t_uint256)"
      },
      "t_mapping(t_address,t_uint256)": {
        "encoding": "mapping",
        "key": "t_address",
        "label": "mapping(address => uint256)",
        "numberOfBytes": "32",
        "value": "t_uint256"
      },
      "t_string_storage": {
        "encoding": "bytes",
        "label": "string",
        "numberOfBytes": "32"
      },
      "t_uint256": {
        "encoding": "inplace",
        "label": "uint256",
        "numberOfBytes": "32"
      },
      "t_uint8": {
        "encoding": "inplace",
        "label": "uint8",
        "numberOfBytes": "1"
      }
    }
  }
}