{
  "address": "0xe55d1710A1Cb4dF605239b0787d53F23Cea811Ed",
  "abi": [
    {
      "anonymous": false,
      "inputs": [
        {
          "indexed": true,
          "internalType": "string",
          "name": "contractName",
          "type": "string"
        },
        {
          "indexed": false,
          "internalType": "address",
          "name": "template",
          "type": "address"
        },
        {
          "indexed": false,
          "internalType": "bytes32",
          "name": "salt",
          "type": "bytes32"
        },
        {
          "indexed": false,
          "internalType": "address",
          "name": "clone",
          "type": "address"
        }
      ],
      "name": "CreateClone",
      "type": "event"
    },
    {
      "inputs": [
        {
          "internalType": "address",
          "name": "template",
          "type": "address"
        },
        {
          "internalType": "bytes32",
          "name": "salt",
          "type": "bytes32"
        },
        {
          "internalType": "address",
          "name": "_provider",
          "type": "address"
        },
        {
          "internalType": "address",
          "name": "_aToken",
          "type": "address"
        },
        {
          "internalType": "address",
          "name": "_aaveMining",
          "type": "address"
        },
        {
          "internalType": "address",
          "name": "_rewards",
          "type": "address"
        },
        {
          "internalType": "address",
          "name": "_rescuer",
          "type": "address"
        },
        {
          "internalType": "address",
          "name": "_stablecoin",
          "type": "address"
        }
      ],
      "name": "createAaveMarket",
      "outputs": [
        {
          "internalType": "contract AaveMarket",
          "name": "",
          "type": "address"
        }
      ],
      "stateMutability": "nonpayable",
      "type": "function"
    },
    {
      "inputs": [
        {
          "internalType": "address",
          "name": "template",
          "type": "address"
        },
        {
          "internalType": "bytes32",
          "name": "salt",
          "type": "bytes32"
        },
        {
          "internalType": "address",
          "name": "_bToken",
          "type": "address"
        },
        {
          "internalType": "address",
          "name": "_bComptroller",
          "type": "address"
        },
        {
          "internalType": "address",
          "name": "_rewards",
          "type": "address"
        },
        {
          "internalType": "address",
          "name": "_rescuer",
          "type": "address"
        },
        {
          "internalType": "address",
          "name": "_stablecoin",
          "type": "address"
        }
      ],
      "name": "createBProtocolMarket",
      "outputs": [
        {
          "internalType": "contract BProtocolMarket",
          "name": "",
          "type": "address"
        }
      ],
      "stateMutability": "nonpayable",
      "type": "function"
    },
    {
      "inputs": [
        {
          "internalType": "address",
          "name": "template",
          "type": "address"
        },
        {
          "internalType": "bytes32",
          "name": "salt",
          "type": "bytes32"
        },
        {
          "internalType": "address",
          "name": "_cToken",
          "type": "address"
        },
        {
          "internalType": "address",
          "name": "_comptroller",
          "type": "address"
        },
        {
          "internalType": "address",
          "name": "_rewards",
          "type": "address"
        },
        {
          "internalType": "address",
          "name": "_rescuer",
          "type": "address"
        },
        {
          "internalType": "address",
          "name": "_stablecoin",
          "type": "address"
        }
      ],
      "name": "createCompoundERC20Market",
      "outputs": [
        {
          "internalType": "contract CompoundERC20Market",
          "name": "",
          "type": "address"
        }
      ],
      "stateMutability": "nonpayable",
      "type": "function"
    },
    {
      "inputs": [
        {
          "internalType": "address",
          "name": "template",
          "type": "address"
        },
        {
          "internalType": "bytes32",
          "name": "salt",
          "type": "bytes32"
        },
        {
          "internalType": "address",
          "name": "_cToken",
          "type": "address"
        },
        {
          "internalType": "address",
          "name": "_rescuer",
          "type": "address"
        },
        {
          "internalType": "address",
          "name": "_stablecoin",
          "type": "address"
        }
      ],
      "name": "createCreamERC20Market",
      "outputs": [
        {
          "internalType": "contract CreamERC20Market",
          "name": "",
          "type": "address"
        }
      ],
      "stateMutability": "nonpayable",
      "type": "function"
    },
    {
      "inputs": [
        {
          "internalType": "address",
          "name": "template",
          "type": "address"
        },
        {
          "internalType": "bytes32",
          "name": "salt",
          "type": "bytes32"
        },
        {
          "internalType": "uint64",
          "name": "_MaxDepositPeriod",
          "type": "uint64"
        },
        {
          "internalType": "uint256",
          "name": "_MinDepositAmount",
          "type": "uint256"
        },
        {
          "internalType": "address",
          "name": "_feeModel",
          "type": "address"
        },
        {
          "internalType": "address",
          "name": "_interestModel",
          "type": "address"
        },
        {
          "internalType": "address",
          "name": "_interestOracle",
          "type": "address"
        },
        {
          "internalType": "address",
          "name": "_depositNFT",
          "type": "address"
        },
        {
          "internalType": "address",
          "name": "_fundingMultitoken",
          "type": "address"
        },
        {
          "internalType": "address",
          "name": "_mphMinter",
          "type": "address"
        }
      ],
      "name": "createDInterest",
      "outputs": [
        {
          "internalType": "contract DInterest",
          "name": "",
          "type": "address"
        }
      ],
      "stateMutability": "nonpayable",
      "type": "function"
    },
    {
      "inputs": [
        {
          "internalType": "address",
          "name": "template",
          "type": "address"
        },
        {
          "internalType": "bytes32",
          "name": "salt",
          "type": "bytes32"
        },
        {
          "components": [
            {
              "internalType": "uint64",
              "name": "_MaxDepositPeriod",
              "type": "uint64"
            },
            {
              "internalType": "uint256",
              "name": "_MinDepositAmount",
              "type": "uint256"
            },
            {
              "internalType": "uint256",
              "name": "_DepositFee",
              "type": "uint256"
            },
            {
              "internalType": "address",
              "name": "_feeModel",
              "type": "address"
            },
            {
              "internalType": "address",
              "name": "_interestModel",
              "type": "address"
            },
            {
              "internalType": "address",
              "name": "_interestOracle",
              "type": "address"
            },
            {
              "internalType": "address",
              "name": "_depositNFT",
              "type": "address"
            },
            {
              "internalType": "address",
              "name": "_fundingMultitoken",
              "type": "address"
            },
            {
              "internalType": "address",
              "name": "_mphMinter",
              "type": "address"
            }
          ],
          "internalType": "struct Factory.DInterestWithDepositFeeParams",
          "name": "params",
          "type": "tuple"
        }
      ],
      "name": "createDInterestWithDepositFee",
      "outputs": [
        {
          "internalType": "contract DInterestWithDepositFee",
          "name": "",
          "type": "address"
        }
      ],
      "stateMutability": "nonpayable",
      "type": "function"
    },
    {
      "inputs": [
        {
          "internalType": "address",
          "name": "template",
          "type": "address"
        },
        {
          "internalType": "bytes32",
          "name": "salt",
          "type": "bytes32"
        },
        {
          "internalType": "uint256",
          "name": "_emaInitial",
          "type": "uint256"
        },
        {
          "internalType": "uint256",
          "name": "_updateInterval",
          "type": "uint256"
        },
        {
          "internalType": "uint256",
          "name": "_smoothingFactor",
          "type": "uint256"
        },
        {
          "internalType": "uint256",
          "name": "_averageWindowInIntervals",
          "type": "uint256"
        },
        {
          "internalType": "address",
          "name": "_moneyMarket",
          "type": "address"
        }
      ],
      "name": "createEMAOracle",
      "outputs": [
        {
          "internalType": "contract EMAOracle",
          "name": "",
          "type": "address"
        }
      ],
      "stateMutability": "nonpayable",
      "type": "function"
    },
    {
      "inputs": [
        {
          "internalType": "address",
          "name": "template",
          "type": "address"
        },
        {
          "internalType": "bytes32",
          "name": "salt",
          "type": "bytes32"
        },
        {
          "internalType": "string",
          "name": "_uri",
          "type": "string"
        },
        {
          "internalType": "address[]",
          "name": "_dividendTokens",
          "type": "address[]"
        },
        {
          "internalType": "address",
          "name": "_wrapperTemplate",
          "type": "address"
        },
        {
          "internalType": "bool",
          "name": "_deployWrapperOnMint",
          "type": "bool"
        },
        {
          "internalType": "string",
          "name": "_baseName",
          "type": "string"
        },
        {
          "internalType": "string",
          "name": "_baseSymbol",
          "type": "string"
        },
        {
          "internalType": "uint8",
          "name": "_decimals",
          "type": "uint8"
        }
      ],
      "name": "createFundingMultitoken",
      "outputs": [
        {
          "internalType": "contract FundingMultitoken",
          "name": "",
          "type": "address"
        }
      ],
      "stateMutability": "nonpayable",
      "type": "function"
    },
    {
      "inputs": [
        {
          "internalType": "address",
          "name": "template",
          "type": "address"
        },
        {
          "internalType": "bytes32",
          "name": "salt",
          "type": "bytes32"
        },
        {
          "internalType": "address",
          "name": "_vault",
          "type": "address"
        },
        {
          "internalType": "address",
          "name": "_rewards",
          "type": "address"
        },
        {
          "internalType": "address",
          "name": "_stakingPool",
          "type": "address"
        },
        {
          "internalType": "address",
          "name": "_rescuer",
          "type": "address"
        },
        {
          "internalType": "address",
          "name": "_stablecoin",
          "type": "address"
        }
      ],
      "name": "createHarvestMarket",
      "outputs": [
        {
          "internalType": "contract HarvestMarket",
          "name": "",
          "type": "address"
        }
      ],
      "stateMutability": "nonpayable",
      "type": "function"
    },
    {
      "inputs": [
        {
          "internalType": "address",
          "name": "template",
          "type": "address"
        },
        {
          "internalType": "bytes32",
          "name": "salt",
          "type": "bytes32"
        },
        {
          "internalType": "string",
          "name": "_tokenName",
          "type": "string"
        },
        {
          "internalType": "string",
          "name": "_tokenSymbol",
          "type": "string"
        }
      ],
      "name": "createNFT",
      "outputs": [
        {
          "internalType": "contract NFTWithSVG",
          "name": "",
          "type": "address"
        }
      ],
      "stateMutability": "nonpayable",
      "type": "function"
    },
    {
      "inputs": [
        {
          "internalType": "address",
          "name": "template",
          "type": "address"
        },
        {
          "internalType": "bytes32",
          "name": "salt",
          "type": "bytes32"
        },
        {
          "internalType": "address",
          "name": "_vault",
          "type": "address"
        },
        {
          "internalType": "address",
          "name": "_rescuer",
          "type": "address"
        },
        {
          "internalType": "address",
          "name": "_stablecoin",
          "type": "address"
        }
      ],
      "name": "createYVaultMarket",
      "outputs": [
        {
          "internalType": "contract YVaultMarket",
          "name": "",
          "type": "address"
        }
      ],
      "stateMutability": "nonpayable",
      "type": "function"
    },
    {
      "inputs": [
        {
          "internalType": "address",
          "name": "template",
          "type": "address"
        },
        {
          "internalType": "bytes32",
          "name": "salt",
          "type": "bytes32"
        },
        {
          "internalType": "address",
          "name": "_pool",
          "type": "address"
        },
        {
          "internalType": "address",
          "name": "_vesting",
          "type": "address"
        },
        {
          "internalType": "uint64",
          "name": "_maturationTimetstamp",
          "type": "uint64"
        },
        {
          "internalType": "uint256",
          "name": "_initialDepositAmount",
          "type": "uint256"
        },
        {
          "internalType": "string",
          "name": "_tokenName",
          "type": "string"
        },
        {
          "internalType": "string",
          "name": "_tokenSymbol",
          "type": "string"
        }
      ],
      "name": "createZeroCouponBond",
      "outputs": [
        {
          "internalType": "contract ZeroCouponBond",
          "name": "",
          "type": "address"
        }
      ],
      "stateMutability": "nonpayable",
      "type": "function"
    },
    {
      "inputs": [
        {
          "internalType": "address",
          "name": "template",
          "type": "address"
        },
        {
          "internalType": "bytes32",
          "name": "salt",
          "type": "bytes32"
        }
      ],
      "name": "predictAddress",
      "outputs": [
        {
          "internalType": "address",
          "name": "",
          "type": "address"
        }
      ],
      "stateMutability": "view",
      "type": "function"
    }
  ],
  "transactionHash": "0x4e8b992e71bba8ab698f58dc3b28873afbdd894489ccc9a8bacfd6e1923af9f5",
  "args": [],
  "solcInputHash": "94929ae33d77e0dfa8fe4fc98eac6c36",
  "bytecode": "0x608060405234801561001057600080fd5b50611a13806100206000396000f3fe608060405234801561001057600080fd5b50600436106100cf5760003560e01c8063afb39af81161008c578063c9d4253c11610066578063c9d4253c1461019b578063cb193942146101ae578063f43f3472146101c1578063fc2c1503146101d457600080fd5b8063afb39af814610162578063bac4e70d14610175578063bd132c1a1461018857600080fd5b8063014ab788146100d45780635e71a2b3146101035780636e85ff8e1461011657806384489afb14610129578063850274d71461013c578063951866131461014f575b600080fd5b6100e76100e23660046115a2565b6101e7565b6040516001600160a01b03909116815260200160405180910390f35b6100e76101113660046116c5565b610316565b6100e7610124366004611671565b61048e565b6100e761013736600461126c565b610578565b6100e761014a3660046112c9565b6106b4565b6100e761015d366004611629565b6107ac565b6100e761017036600461126c565b6109bd565b6100e76101833660046112c9565b610aba565b6100e76101963660046112c9565b610bb4565b6100e76101a936600461149c565b610cb2565b6100e76101bc366004611243565b610da2565b6100e76101cf3660046113d6565b610dc0565b6100e76101e2366004611347565b610e68565b6000806101fd6001600160a01b03891688610fb9565b60405163266c45bb60e11b81529091506001600160a01b03821690634cd88b7690610232908990899089908990600401611975565b600060405180830381600087803b15801561024c57600080fd5b505af1158015610260573d6000803e3d6000fd5b505060405163f2fde38b60e01b81523360048201526001600160a01b038416925063f2fde38b9150602401600060405180830381600087803b1580156102a557600080fd5b505af11580156102b9573d6000803e3d6000fd5b505050506040516102da90694e46545769746853564760b01b8152600a0190565b60405180910390206000805160206119be8339815191528989846040516103039392919061189f565b60405180910390a2979650505050505050565b60008061032c6001600160a01b038d168c610fb9565b60405163254950ed60e21b815267ffffffffffffffff8c166004820152602481018b90526001600160a01b038a811660448301528981166064830152888116608483015287811660a483015286811660c483015285811660e48301529192509082169063952543b49061010401600060405180830381600087803b1580156103b357600080fd5b505af11580156103c7573d6000803e3d6000fd5b505060405163078dfbe760e01b815233600482015260016024820152600060448201526001600160a01b038416925063078dfbe79150606401600060405180830381600087803b15801561041a57600080fd5b505af115801561042e573d6000803e3d6000fd5b5050505060405161044e906811125b9d195c995cdd60ba1b815260090190565b60405180910390206000805160206119be8339815191528d8d846040516104779392919061189f565b60405180910390a29b9a5050505050505050505050565b6000806104a46001600160a01b038a1689610fb9565b60405163666b294b60e11b8152600481018990526024810188905260448101879052606481018690526001600160a01b0385811660848301529192509082169063ccd652969060a401600060405180830381600087803b15801561050757600080fd5b505af115801561051b573d6000803e3d6000fd5b5050505060405161053b9068454d414f7261636c6560b81b815260090190565b60405180910390206000805160206119be8339815191528a8a846040516105649392919061189f565b60405180910390a298975050505050505050565b60008061058e6001600160a01b03881687610fb9565b60405163c0c53b8b60e01b81526001600160a01b038781166004830152868116602483015285811660448301529192509082169063c0c53b8b90606401600060405180830381600087803b1580156105e557600080fd5b505af11580156105f9573d6000803e3d6000fd5b505060405163f2fde38b60e01b81523360048201526001600160a01b038416925063f2fde38b9150602401600060405180830381600087803b15801561063e57600080fd5b505af1158015610652573d6000803e3d6000fd5b50505050604051610679906f10dc99585b515490cc8c13585c9ad95d60821b815260100190565b60405180910390206000805160206119be8339815191528888846040516106a29392919061189f565b60405180910390a29695505050505050565b6000806106ca6001600160a01b038a1689610fb9565b604051630a2ca2bd60e11b81529091506001600160a01b03821690631459457a90610701908a908a908a908a908a906004016117fe565b600060405180830381600087803b15801561071b57600080fd5b505af115801561072f573d6000803e3d6000fd5b505060405163f2fde38b60e01b81523360048201526001600160a01b038416925063f2fde38b9150602401600060405180830381600087803b15801561077457600080fd5b505af1158015610788573d6000803e3d6000fd5b5050505060405161053b906c12185c9d995cdd13585c9ad95d609a1b8152600d0190565b6000806107c26001600160a01b03861685610fb9565b90506001600160a01b03811663f113df526107e06020860186611770565b602086013560408701356107fa6080890160608a01611229565b61080a60a08a0160808b01611229565b61081a60c08b0160a08c01611229565b61082a60e08c0160c08d01611229565b61083b6101008d0160e08e01611229565b61084d6101208e016101008f01611229565b6040516001600160e01b031960e08c901b16815267ffffffffffffffff90991660048a0152602489019790975260448801959095526001600160a01b0393841660648801529183166084870152821660a4860152811660c485015290811660e48401521661010482015261012401600060405180830381600087803b1580156108d557600080fd5b505af11580156108e9573d6000803e3d6000fd5b505060405163078dfbe760e01b815233600482015260016024820152600060448201526001600160a01b038416925063078dfbe79150606401600060405180830381600087803b15801561093c57600080fd5b505af1158015610950573d6000803e3d6000fd5b50505050604051610984907f44496e746572657374576974684465706f736974466565000000000000000000815260170190565b60405180910390206000805160206119be8339815191528686846040516109ad9392919061189f565b60405180910390a2949350505050565b6000806109d36001600160a01b03881687610fb9565b60405163c0c53b8b60e01b81526001600160a01b038781166004830152868116602483015285811660448301529192509082169063c0c53b8b90606401600060405180830381600087803b158015610a2a57600080fd5b505af1158015610a3e573d6000803e3d6000fd5b505060405163f2fde38b60e01b81523360048201526001600160a01b038416925063f2fde38b9150602401600060405180830381600087803b158015610a8357600080fd5b505af1158015610a97573d6000803e3d6000fd5b50505050604051610679906b1655985d5b1d13585c9ad95d60a21b8152600c0190565b600080610ad06001600160a01b038a1689610fb9565b604051630a2ca2bd60e11b81529091506001600160a01b03821690631459457a90610b07908a908a908a908a908a906004016117fe565b600060405180830381600087803b158015610b2157600080fd5b505af1158015610b35573d6000803e3d6000fd5b505060405163f2fde38b60e01b81523360048201526001600160a01b038416925063f2fde38b9150602401600060405180830381600087803b158015610b7a57600080fd5b505af1158015610b8e573d6000803e3d6000fd5b5050505060405161053b906e10941c9bdd1bd8dbdb13585c9ad95d608a1b8152600f0190565b600080610bca6001600160a01b038a1689610fb9565b604051630a2ca2bd60e11b81529091506001600160a01b03821690631459457a90610c01908a908a908a908a908a906004016117fe565b600060405180830381600087803b158015610c1b57600080fd5b505af1158015610c2f573d6000803e3d6000fd5b505060405163f2fde38b60e01b81523360048201526001600160a01b038416925063f2fde38b9150602401600060405180830381600087803b158015610c7457600080fd5b505af1158015610c88573d6000803e3d6000fd5b5050505060405161053b907210dbdb5c1bdd5b99115490cc8c13585c9ad95d606a1b815260130190565b600080610cc86001600160a01b038e168d610fb9565b6040516338141feb60e21b81529091506001600160a01b0382169063e0507fac90610d099033908f908f908f908f908f908f908f908f908f906004016118c2565b600060405180830381600087803b158015610d2357600080fd5b505af1158015610d37573d6000803e3d6000fd5b50505050604051610d5f9070233ab73234b733a6bab63a34ba37b5b2b760791b815260110190565b60405180910390206000805160206119be8339815191528e8e84604051610d889392919061189f565b60405180910390a290505b9b9a5050505050505050505050565b6000610db76001600160a01b0384168361105d565b90505b92915050565b600080610dd66001600160a01b038d168c610fb9565b60405163a2c1910760e01b81529091506001600160a01b0382169063a2c1910790610e159033908e908e908e908e908e908e908e908e90600401611830565b600060405180830381600087803b158015610e2f57600080fd5b505af1158015610e43573d6000803e3d6000fd5b5050505060405161044e906d16995c9bd0dbdd5c1bdb909bdb9960921b8152600e0190565b600080610e7e6001600160a01b038b168a610fb9565b60405163cc2a9a5b60e01b81526001600160a01b038a81166004830152898116602483015288811660448301528781166064830152868116608483015285811660a48301529192509082169063cc2a9a5b9060c401600060405180830381600087803b158015610eed57600080fd5b505af1158015610f01573d6000803e3d6000fd5b505060405163f2fde38b60e01b81523360048201526001600160a01b038416925063f2fde38b9150602401600060405180830381600087803b158015610f4657600080fd5b505af1158015610f5a573d6000803e3d6000fd5b50505050604051610f7b906910585d9953585c9ad95d60b21b8152600a0190565b60405180910390206000805160206119be8339815191528b8b84604051610fa49392919061189f565b60405180910390a29998505050505050505050565b6000604051733d602d80600a3d3981f3363d3d373d3d3d363d7360601b81528360601b60148201526e5af43d82803e903d91602b57fd5bf360881b6028820152826037826000f59150506001600160a01b038116610dba5760405162461bcd60e51b815260206004820152601760248201527f455243313136373a2063726561746532206661696c6564000000000000000000604482015260640160405180910390fd5b6000610db7838330604051733d602d80600a3d3981f3363d3d373d3d3d363d7360601b8152606093841b60148201526f5af43d82803e903d91602b57fd5bf3ff60801b6028820152921b6038830152604c8201526037808220606c830152605591012090565b80356001600160a01b03811681146110da57600080fd5b919050565b60008083601f8401126110f0578081fd5b50813567ffffffffffffffff811115611107578182fd5b6020830191508360208260051b850101111561112257600080fd5b9250929050565b803580151581146110da57600080fd5b60008083601f84011261114a578182fd5b50813567ffffffffffffffff811115611161578182fd5b60208301915083602082850101111561112257600080fd5b600082601f830112611189578081fd5b813567ffffffffffffffff808211156111a4576111a46119a7565b604051601f8301601f19908116603f011681019082821181831017156111cc576111cc6119a7565b816040528381528660208588010111156111e4578485fd5b8360208701602083013792830160200193909352509392505050565b803567ffffffffffffffff811681146110da57600080fd5b803560ff811681146110da57600080fd5b60006020828403121561123a578081fd5b610db7826110c3565b60008060408385031215611255578081fd5b61125e836110c3565b946020939093013593505050565b600080600080600060a08688031215611283578081fd5b61128c866110c3565b9450602086013593506112a1604087016110c3565b92506112af606087016110c3565b91506112bd608087016110c3565b90509295509295909350565b600080600080600080600060e0888a0312156112e3578182fd5b6112ec886110c3565b965060208801359550611301604089016110c3565b945061130f606089016110c3565b935061131d608089016110c3565b925061132b60a089016110c3565b915061133960c089016110c3565b905092959891949750929550565b600080600080600080600080610100898b031215611363578081fd5b61136c896110c3565b97506020890135965061138160408a016110c3565b955061138f60608a016110c3565b945061139d60808a016110c3565b93506113ab60a08a016110c3565b92506113b960c08a016110c3565b91506113c760e08a016110c3565b90509295985092959890939650565b6000806000806000806000806000806101008b8d0312156113f5578182fd5b6113fe8b6110c3565b995060208b0135985061141360408c016110c3565b975061142160608c016110c3565b965061142f60808c01611200565b955060a08b0135945060c08b013567ffffffffffffffff80821115611452578384fd5b61145e8e838f01611139565b909650945060e08d0135915080821115611476578384fd5b506114838d828e01611139565b915080935050809150509295989b9194979a5092959850565b60008060008060008060008060008060006101208c8e0312156114bd578485fd5b6114c68c6110c3565b9a5060208c0135995067ffffffffffffffff8060408e013511156114e8578586fd5b6114f88e60408f01358f01611139565b909a50985060608d013581101561150d578586fd5b61151d8e60608f01358f016110df565b909850965061152e60808e016110c3565b955061153c60a08e01611129565b94508060c08e0135111561154e578182fd5b61155e8e60c08f01358f01611179565b93508060e08e01351115611570578182fd5b506115818d60e08e01358e01611179565b91506115906101008d01611218565b90509295989b509295989b9093969950565b600080600080600080608087890312156115ba578384fd5b6115c3876110c3565b955060208701359450604087013567ffffffffffffffff808211156115e6578586fd5b6115f28a838b01611139565b9096509450606089013591508082111561160a578384fd5b5061161789828a01611139565b979a9699509497509295939492505050565b600080600083850361016081121561163f578182fd5b611648856110c3565b935060208501359250610120603f1982011215611663578182fd5b506040840190509250925092565b600080600080600080600060e0888a03121561168b578081fd5b611694886110c3565b96506020880135955060408801359450606088013593506080880135925060a0880135915061133960c089016110c3565b6000806000806000806000806000806101408b8d0312156116e4578384fd5b6116ed8b6110c3565b995060208b0135985061170260408c01611200565b975060608b0135965061171760808c016110c3565b955061172560a08c016110c3565b945061173360c08c016110c3565b935061174160e08c016110c3565b92506117506101008c016110c3565b915061175f6101208c016110c3565b90509295989b9194979a5092959850565b600060208284031215611781578081fd5b610db782611200565b81835281816020850137506000828201602090810191909152601f909101601f19169091010190565b60008151808452815b818110156117d8576020818501810151868301820152016117bc565b818111156117e95782602083870101525b50601f01601f19169290920160200192915050565b6001600160a01b0395861681529385166020850152918416604084015283166060830152909116608082015260a00190565b6001600160a01b038a8116825289811660208301528816604082015267ffffffffffffffff871660608201526080810186905260e060a0820181905260009061187c908301868861178a565b82810360c084015261188f81858761178a565b9c9b505050505050505050505050565b6001600160a01b0393841681526020810192909252909116604082015260600190565b6001600160a01b038b81168252610100602083018190526000916118e98483018d8f61178a565b84810360408601528a81528b9250602001835b8b811015611923578261190e856110c3565b168252602093840193909101906001016118fc565b506001600160a01b038a166060860152881515608086015284810360a086015261194d81896117b3565b9250505082810360c084015261196381866117b3565b915050610d9360e083018460ff169052565b60408152600061198960408301868861178a565b828103602084015261199c81858761178a565b979650505050505050565b634e487b7160e01b600052604160045260246000fdfe19ccf2081a0315afed816e5fd1dfd6f9d4809ab697799459f04f55eb483d20f1a26469706673582212202c4becbb5946f8685eb65a71259f336436dd78698b7c945b621a72b2a7574e7864736f6c63430008040033",
  "devdoc": {
    "kind": "dev",
    "methods": {},
    "version": 1
  },
  "userdoc": {
    "kind": "user",
    "methods": {},
    "version": 1
  },
  "storageLayout": {
    "storage": [],
    "types": null
  }
}