{
  "address": "0x87E799A438F1F3F1d939B1101aaFF622deD3cB5A",
  "abi": [
    {
      "anonymous": false,
      "inputs": [
        {
          "indexed": true,
          "internalType": "address",
          "name": "account",
          "type": "address"
        },
        {
          "indexed": true,
          "internalType": "address",
          "name": "operator",
          "type": "address"
        },
        {
          "indexed": false,
          "internalType": "bool",
          "name": "approved",
          "type": "bool"
        }
      ],
      "name": "ApprovalForAll",
      "type": "event"
    },
    {
      "anonymous": false,
      "inputs": [
        {
          "indexed": true,
          "internalType": "uint256",
          "name": "tokenID",
          "type": "uint256"
        },
        {
          "indexed": true,
          "internalType": "address",
          "name": "to",
          "type": "address"
        },
        {
          "indexed": true,
          "internalType": "address",
          "name": "dividendToken",
          "type": "address"
        },
        {
          "indexed": false,
          "internalType": "uint256",
          "name": "weiAmount",
          "type": "uint256"
        }
      ],
      "name": "DividendWithdrawn",
      "type": "event"
    },
    {
      "anonymous": false,
      "inputs": [
        {
          "indexed": true,
          "internalType": "uint256",
          "name": "tokenID",
          "type": "uint256"
        },
        {
          "indexed": true,
          "internalType": "address",
          "name": "from",
          "type": "address"
        },
        {
          "indexed": true,
          "internalType": "address",
          "name": "dividendToken",
          "type": "address"
        },
        {
          "indexed": false,
          "internalType": "uint256",
          "name": "weiAmount",
          "type": "uint256"
        }
      ],
      "name": "DividendsDistributed",
      "type": "event"
    },
    {
      "anonymous": false,
      "inputs": [
        {
          "indexed": true,
          "internalType": "bytes32",
          "name": "role",
          "type": "bytes32"
        },
        {
          "indexed": true,
          "internalType": "bytes32",
          "name": "previousAdminRole",
          "type": "bytes32"
        },
        {
          "indexed": true,
          "internalType": "bytes32",
          "name": "newAdminRole",
          "type": "bytes32"
        }
      ],
      "name": "RoleAdminChanged",
      "type": "event"
    },
    {
      "anonymous": false,
      "inputs": [
        {
          "indexed": true,
          "internalType": "bytes32",
          "name": "role",
          "type": "bytes32"
        },
        {
          "indexed": true,
          "internalType": "address",
          "name": "account",
          "type": "address"
        },
        {
          "indexed": true,
          "internalType": "address",
          "name": "sender",
          "type": "address"
        }
      ],
      "name": "RoleGranted",
      "type": "event"
    },
    {
      "anonymous": false,
      "inputs": [
        {
          "indexed": true,
          "internalType": "bytes32",
          "name": "role",
          "type": "bytes32"
        },
        {
          "indexed": true,
          "internalType": "address",
          "name": "account",
          "type": "address"
        },
        {
          "indexed": true,
          "internalType": "address",
          "name": "sender",
          "type": "address"
        }
      ],
      "name": "RoleRevoked",
      "type": "event"
    },
    {
      "anonymous": false,
      "inputs": [
        {
          "indexed": true,
          "internalType": "address",
          "name": "operator",
          "type": "address"
        },
        {
          "indexed": true,
          "internalType": "address",
          "name": "from",
          "type": "address"
        },
        {
          "indexed": true,
          "internalType": "address",
          "name": "to",
          "type": "address"
        },
        {
          "indexed": false,
          "internalType": "uint256[]",
          "name": "ids",
          "type": "uint256[]"
        },
        {
          "indexed": false,
          "internalType": "uint256[]",
          "name": "values",
          "type": "uint256[]"
        }
      ],
      "name": "TransferBatch",
      "type": "event"
    },
    {
      "anonymous": false,
      "inputs": [
        {
          "indexed": true,
          "internalType": "address",
          "name": "operator",
          "type": "address"
        },
        {
          "indexed": true,
          "internalType": "address",
          "name": "from",
          "type": "address"
        },
        {
          "indexed": true,
          "internalType": "address",
          "name": "to",
          "type": "address"
        },
        {
          "indexed": false,
          "internalType": "uint256",
          "name": "id",
          "type": "uint256"
        },
        {
          "indexed": false,
          "internalType": "uint256",
          "name": "value",
          "type": "uint256"
        }
      ],
      "name": "TransferSingle",
      "type": "event"
    },
    {
      "anonymous": false,
      "inputs": [
        {
          "indexed": false,
          "internalType": "string",
          "name": "value",
          "type": "string"
        },
        {
          "indexed": true,
          "internalType": "uint256",
          "name": "id",
          "type": "uint256"
        }
      ],
      "name": "URI",
      "type": "event"
    },
    {
      "inputs": [],
      "name": "DEFAULT_ADMIN_ROLE",
      "outputs": [
        {
          "internalType": "bytes32",
          "name": "",
          "type": "bytes32"
        }
      ],
      "stateMutability": "view",
      "type": "function"
    },
    {
      "inputs": [],
      "name": "DIVIDEND_ROLE",
      "outputs": [
        {
          "internalType": "bytes32",
          "name": "",
          "type": "bytes32"
        }
      ],
      "stateMutability": "view",
      "type": "function"
    },
    {
      "inputs": [],
      "name": "METADATA_ROLE",
      "outputs": [
        {
          "internalType": "bytes32",
          "name": "",
          "type": "bytes32"
        }
      ],
      "stateMutability": "view",
      "type": "function"
    },
    {
      "inputs": [],
      "name": "MINTER_BURNER_ROLE",
      "outputs": [
        {
          "internalType": "bytes32",
          "name": "",
          "type": "bytes32"
        }
      ],
      "stateMutability": "view",
      "type": "function"
    },
    {
      "inputs": [
        {
          "internalType": "uint256",
          "name": "tokenID",
          "type": "uint256"
        },
        {
          "internalType": "address",
          "name": "dividendToken",
          "type": "address"
        },
        {
          "internalType": "address",
          "name": "_owner",
          "type": "address"
        }
      ],
      "name": "accumulativeDividendOf",
      "outputs": [
        {
          "internalType": "uint256",
          "name": "",
          "type": "uint256"
        }
      ],
      "stateMutability": "view",
      "type": "function"
    },
    {
      "inputs": [
        {
          "internalType": "address",
          "name": "account",
          "type": "address"
        },
        {
          "internalType": "uint256",
          "name": "id",
          "type": "uint256"
        }
      ],
      "name": "balanceOf",
      "outputs": [
        {
          "internalType": "uint256",
          "name": "",
          "type": "uint256"
        }
      ],
      "stateMutability": "view",
      "type": "function"
    },
    {
      "inputs": [
        {
          "internalType": "address[]",
          "name": "accounts",
          "type": "address[]"
        },
        {
          "internalType": "uint256[]",
          "name": "ids",
          "type": "uint256[]"
        }
      ],
      "name": "balanceOfBatch",
      "outputs": [
        {
          "internalType": "uint256[]",
          "name": "",
          "type": "uint256[]"
        }
      ],
      "stateMutability": "view",
      "type": "function"
    },
    {
      "inputs": [],
      "name": "baseName",
      "outputs": [
        {
          "internalType": "string",
          "name": "",
          "type": "string"
        }
      ],
      "stateMutability": "view",
      "type": "function"
    },
    {
      "inputs": [],
      "name": "baseSymbol",
      "outputs": [
        {
          "internalType": "string",
          "name": "",
          "type": "string"
        }
      ],
      "stateMutability": "view",
      "type": "function"
    },
    {
      "inputs": [
        {
          "internalType": "address",
          "name": "account",
          "type": "address"
        },
        {
          "internalType": "uint256",
          "name": "id",
          "type": "uint256"
        },
        {
          "internalType": "uint256",
          "name": "amount",
          "type": "uint256"
        }
      ],
      "name": "burn",
      "outputs": [],
      "stateMutability": "nonpayable",
      "type": "function"
    },
    {
      "inputs": [
        {
          "internalType": "address",
          "name": "account",
          "type": "address"
        },
        {
          "internalType": "uint256[]",
          "name": "ids",
          "type": "uint256[]"
        },
        {
          "internalType": "uint256[]",
          "name": "amounts",
          "type": "uint256[]"
        }
      ],
      "name": "burnBatch",
      "outputs": [],
      "stateMutability": "nonpayable",
      "type": "function"
    },
    {
      "inputs": [],
      "name": "decimals",
      "outputs": [
        {
          "internalType": "uint8",
          "name": "",
          "type": "uint8"
        }
      ],
      "stateMutability": "view",
      "type": "function"
    },
    {
      "inputs": [
        {
          "internalType": "uint256",
          "name": "tokenID",
          "type": "uint256"
        }
      ],
      "name": "deployWrapper",
      "outputs": [
        {
          "internalType": "address",
          "name": "wrapperAddress",
          "type": "address"
        }
      ],
      "stateMutability": "nonpayable",
      "type": "function"
    },
    {
      "inputs": [],
      "name": "deployWrapperOnMint",
      "outputs": [
        {
          "internalType": "bool",
          "name": "",
          "type": "bool"
        }
      ],
      "stateMutability": "view",
      "type": "function"
    },
    {
      "inputs": [
        {
          "internalType": "uint256",
          "name": "tokenID",
          "type": "uint256"
        },
        {
          "internalType": "address",
          "name": "dividendToken",
          "type": "address"
        },
        {
          "internalType": "uint256",
          "name": "amount",
          "type": "uint256"
        }
      ],
      "name": "distributeDividends",
      "outputs": [],
      "stateMutability": "nonpayable",
      "type": "function"
    },
    {
      "inputs": [
        {
          "internalType": "uint256",
          "name": "tokenID",
          "type": "uint256"
        },
        {
          "internalType": "address",
          "name": "dividendToken",
          "type": "address"
        },
        {
          "internalType": "address",
          "name": "_owner",
          "type": "address"
        }
      ],
      "name": "dividendOf",
      "outputs": [
        {
          "internalType": "uint256",
          "name": "",
          "type": "uint256"
        }
      ],
      "stateMutability": "view",
      "type": "function"
    },
    {
      "inputs": [
        {
          "internalType": "uint256",
          "name": "",
          "type": "uint256"
        }
      ],
      "name": "dividendTokenDataList",
      "outputs": [
        {
          "internalType": "address",
          "name": "dividendToken",
          "type": "address"
        }
      ],
      "stateMutability": "view",
      "type": "function"
    },
    {
      "inputs": [],
      "name": "dividendTokenDataListLength",
      "outputs": [
        {
          "internalType": "uint256",
          "name": "",
          "type": "uint256"
        }
      ],
      "stateMutability": "view",
      "type": "function"
    },
    {
      "inputs": [
        {
          "internalType": "address",
          "name": "",
          "type": "address"
        }
      ],
      "name": "dividendTokenToDataID",
      "outputs": [
        {
          "internalType": "uint256",
          "name": "",
          "type": "uint256"
        }
      ],
      "stateMutability": "view",
      "type": "function"
    },
    {
      "inputs": [
        {
          "internalType": "bytes32",
          "name": "role",
          "type": "bytes32"
        }
      ],
      "name": "getRoleAdmin",
      "outputs": [
        {
          "internalType": "bytes32",
          "name": "",
          "type": "bytes32"
        }
      ],
      "stateMutability": "view",
      "type": "function"
    },
    {
      "inputs": [
        {
          "internalType": "bytes32",
          "name": "role",
          "type": "bytes32"
        },
        {
          "internalType": "address",
          "name": "account",
          "type": "address"
        }
      ],
      "name": "grantRole",
      "outputs": [],
      "stateMutability": "nonpayable",
      "type": "function"
    },
    {
      "inputs": [
        {
          "internalType": "bytes32",
          "name": "role",
          "type": "bytes32"
        },
        {
          "internalType": "address",
          "name": "account",
          "type": "address"
        }
      ],
      "name": "hasRole",
      "outputs": [
        {
          "internalType": "bool",
          "name": "",
          "type": "bool"
        }
      ],
      "stateMutability": "view",
      "type": "function"
    },
    {
      "inputs": [
        {
          "internalType": "address",
          "name": "admin",
          "type": "address"
        },
        {
          "internalType": "string",
          "name": "uri",
          "type": "string"
        },
        {
          "internalType": "address[]",
          "name": "dividendTokens",
          "type": "address[]"
        },
        {
          "internalType": "address",
          "name": "_wrapperTemplate",
          "type": "address"
        },
        {
          "internalType": "bool",
          "name": "_deployWrapperOnMint",
          "type": "bool"
        },
        {
          "internalType": "string",
          "name": "_baseName",
          "type": "string"
        },
        {
          "internalType": "string",
          "name": "_baseSymbol",
          "type": "string"
        },
        {
          "internalType": "uint8",
          "name": "_decimals",
          "type": "uint8"
        }
      ],
      "name": "initialize",
      "outputs": [],
      "stateMutability": "nonpayable",
      "type": "function"
    },
    {
      "inputs": [
        {
          "internalType": "address",
          "name": "account",
          "type": "address"
        },
        {
          "internalType": "address",
          "name": "operator",
          "type": "address"
        }
      ],
      "name": "isApprovedForAll",
      "outputs": [
        {
          "internalType": "bool",
          "name": "",
          "type": "bool"
        }
      ],
      "stateMutability": "view",
      "type": "function"
    },
    {
      "inputs": [
        {
          "internalType": "address",
          "name": "to",
          "type": "address"
        },
        {
          "internalType": "uint256",
          "name": "id",
          "type": "uint256"
        },
        {
          "internalType": "uint256",
          "name": "amount",
          "type": "uint256"
        }
      ],
      "name": "mint",
      "outputs": [],
      "stateMutability": "nonpayable",
      "type": "function"
    },
    {
      "inputs": [
        {
          "internalType": "address",
          "name": "to",
          "type": "address"
        },
        {
          "internalType": "uint256[]",
          "name": "ids",
          "type": "uint256[]"
        },
        {
          "internalType": "uint256[]",
          "name": "amounts",
          "type": "uint256[]"
        }
      ],
      "name": "mintBatch",
      "outputs": [],
      "stateMutability": "nonpayable",
      "type": "function"
    },
    {
      "inputs": [
        {
          "internalType": "address",
          "name": "dividendToken",
          "type": "address"
        }
      ],
      "name": "registerDividendToken",
      "outputs": [],
      "stateMutability": "nonpayable",
      "type": "function"
    },
    {
      "inputs": [
        {
          "internalType": "bytes32",
          "name": "role",
          "type": "bytes32"
        },
        {
          "internalType": "address",
          "name": "account",
          "type": "address"
        }
      ],
      "name": "renounceRole",
      "outputs": [],
      "stateMutability": "nonpayable",
      "type": "function"
    },
    {
      "inputs": [
        {
          "internalType": "bytes32",
          "name": "role",
          "type": "bytes32"
        },
        {
          "internalType": "address",
          "name": "account",
          "type": "address"
        }
      ],
      "name": "revokeRole",
      "outputs": [],
      "stateMutability": "nonpayable",
      "type": "function"
    },
    {
      "inputs": [
        {
          "internalType": "address",
          "name": "from",
          "type": "address"
        },
        {
          "internalType": "address",
          "name": "to",
          "type": "address"
        },
        {
          "internalType": "uint256[]",
          "name": "ids",
          "type": "uint256[]"
        },
        {
          "internalType": "uint256[]",
          "name": "amounts",
          "type": "uint256[]"
        },
        {
          "internalType": "bytes",
          "name": "data",
          "type": "bytes"
        }
      ],
      "name": "safeBatchTransferFrom",
      "outputs": [],
      "stateMutability": "nonpayable",
      "type": "function"
    },
    {
      "inputs": [
        {
          "internalType": "address",
          "name": "from",
          "type": "address"
        },
        {
          "internalType": "address",
          "name": "to",
          "type": "address"
        },
        {
          "internalType": "uint256",
          "name": "id",
          "type": "uint256"
        },
        {
          "internalType": "uint256",
          "name": "amount",
          "type": "uint256"
        },
        {
          "internalType": "bytes",
          "name": "data",
          "type": "bytes"
        }
      ],
      "name": "safeTransferFrom",
      "outputs": [],
      "stateMutability": "nonpayable",
      "type": "function"
    },
    {
      "inputs": [
        {
          "internalType": "address",
          "name": "operator",
          "type": "address"
        },
        {
          "internalType": "bool",
          "name": "approved",
          "type": "bool"
        }
      ],
      "name": "setApprovalForAll",
      "outputs": [],
      "stateMutability": "nonpayable",
      "type": "function"
    },
    {
      "inputs": [
        {
          "internalType": "string",
          "name": "newValue",
          "type": "string"
        }
      ],
      "name": "setBaseName",
      "outputs": [],
      "stateMutability": "nonpayable",
      "type": "function"
    },
    {
      "inputs": [
        {
          "internalType": "string",
          "name": "newValue",
          "type": "string"
        }
      ],
      "name": "setBaseSymbol",
      "outputs": [],
      "stateMutability": "nonpayable",
      "type": "function"
    },
    {
      "inputs": [
        {
          "internalType": "bool",
          "name": "newValue",
          "type": "bool"
        }
      ],
      "name": "setDeployWrapperOnMint",
      "outputs": [],
      "stateMutability": "nonpayable",
      "type": "function"
    },
    {
      "inputs": [
        {
          "internalType": "string",
          "name": "newuri",
          "type": "string"
        }
      ],
      "name": "setURI",
      "outputs": [],
      "stateMutability": "nonpayable",
      "type": "function"
    },
    {
      "inputs": [
        {
          "internalType": "bytes4",
          "name": "interfaceId",
          "type": "bytes4"
        }
      ],
      "name": "supportsInterface",
      "outputs": [
        {
          "internalType": "bool",
          "name": "",
          "type": "bool"
        }
      ],
      "stateMutability": "view",
      "type": "function"
    },
    {
      "inputs": [
        {
          "internalType": "uint256",
          "name": "",
          "type": "uint256"
        }
      ],
      "name": "tokenIDToWrapper",
      "outputs": [
        {
          "internalType": "address",
          "name": "",
          "type": "address"
        }
      ],
      "stateMutability": "view",
      "type": "function"
    },
    {
      "inputs": [
        {
          "internalType": "uint256",
          "name": "id",
          "type": "uint256"
        }
      ],
      "name": "totalSupply",
      "outputs": [
        {
          "internalType": "uint256",
          "name": "",
          "type": "uint256"
        }
      ],
      "stateMutability": "view",
      "type": "function"
    },
    {
      "inputs": [
        {
          "internalType": "uint256[]",
          "name": "ids",
          "type": "uint256[]"
        }
      ],
      "name": "totalSupplyBatch",
      "outputs": [
        {
          "internalType": "uint256[]",
          "name": "totalSupplies",
          "type": "uint256[]"
        }
      ],
      "stateMutability": "view",
      "type": "function"
    },
    {
      "inputs": [
        {
          "internalType": "uint256",
          "name": "",
          "type": "uint256"
        }
      ],
      "name": "uri",
      "outputs": [
        {
          "internalType": "string",
          "name": "",
          "type": "string"
        }
      ],
      "stateMutability": "view",
      "type": "function"
    },
    {
      "inputs": [
        {
          "internalType": "uint256",
          "name": "tokenID",
          "type": "uint256"
        },
        {
          "internalType": "address",
          "name": "dividendToken",
          "type": "address"
        }
      ],
      "name": "withdrawDividend",
      "outputs": [],
      "stateMutability": "nonpayable",
      "type": "function"
    },
    {
      "inputs": [
        {
          "internalType": "uint256",
          "name": "tokenID",
          "type": "uint256"
        },
        {
          "internalType": "address",
          "name": "dividendToken",
          "type": "address"
        },
        {
          "internalType": "address",
          "name": "user",
          "type": "address"
        }
      ],
      "name": "withdrawDividendFor",
      "outputs": [],
      "stateMutability": "nonpayable",
      "type": "function"
    },
    {
      "inputs": [
        {
          "internalType": "uint256",
          "name": "tokenID",
          "type": "uint256"
        },
        {
          "internalType": "address",
          "name": "dividendToken",
          "type": "address"
        },
        {
          "internalType": "address",
          "name": "_owner",
          "type": "address"
        }
      ],
      "name": "withdrawnDividendOf",
      "outputs": [
        {
          "internalType": "uint256",
          "name": "",
          "type": "uint256"
        }
      ],
      "stateMutability": "view",
      "type": "function"
    },
    {
      "inputs": [],
      "name": "wrapperTemplate",
      "outputs": [
        {
          "internalType": "address",
          "name": "",
          "type": "address"
        }
      ],
      "stateMutability": "view",
      "type": "function"
    },
    {
      "inputs": [
        {
          "internalType": "address",
          "name": "from",
          "type": "address"
        },
        {
          "internalType": "address",
          "name": "to",
          "type": "address"
        },
        {
          "internalType": "uint256",
          "name": "tokenID",
          "type": "uint256"
        },
        {
          "internalType": "uint256",
          "name": "amount",
          "type": "uint256"
        }
      ],
      "name": "wrapperTransfer",
      "outputs": [],
      "stateMutability": "nonpayable",
      "type": "function"
    }
  ],
  "transactionHash": "0xbe7afdf5b114c143e694c303ba66d83bc41548c3f8796950014aebedf21432a3",
  "args": [],
  "solcInputHash": "ef30a810f52e8546dd2d48092c96ad7a",
  "bytecode": "0x608060405234801561001057600080fd5b50614dc8806100206000396000f3fe608060405234801561001057600080fd5b50600436106102895760003560e01c806377954ac21161015c578063b7b424e8116100ce578063e0507fac11610087578063e0507fac1461061d578063e985e9c514610630578063f242432a1461066c578063f3491f2b1461067f578063f4a1400214610694578063f5298aca146106a757610289565b8063b7b424e81461059c578063bd85b039146105af578063c8262c6c146105cf578063d2eb949b146105e4578063d547741f146105f7578063d81d0a151461060a57610289565b806391d148541161012057806391d14854146105345780639285a1e11461054757806398f192e31461055a578063a217fddf1461056e578063a22cb46514610576578063a4ed80511461058957610289565b806377954ac2146104dd5780637f9678b2146104f057806380583be714610510578063814d05f01461051857806381d792ef1461052b57610289565b80632f2ff15d116102005780634e1273f4116101b95780634e1273f41461044657806358b37b9b14610466578063590b07ec1461047957806366300d73146104a25780636b20c454146104b557806372c32860146104c857610289565b80632f2ff15d14610396578063313ce567146103a95780633627fda8146103c957806336568abe146103dc57806338841782146103ef57806348ab4f4b1461040457610289565b80631503063311610252578063150306331461031f578063156e29f6146103275780631b2121aa1461033a578063248a9ca31461034d5780632578f786146103705780632eb2c2d61461038357610289565b8062fdd58e1461028e57806301ffc9a7146102b457806302b171e2146102d757806302fe5305146102ea5780630e89341c146102ff575b600080fd5b6102a161029c3660046140fa565b6106ba565b6040519081526020015b60405180910390f35b6102c76102c23660046142d0565b610753565b60405190151581526020016102ab565b6102a16102e536600461433b565b610766565b6102fd6102f8366004614308565b61077d565b005b61031261030d366004614296565b61083e565b6040516102ab9190614682565b6103126108d2565b6102fd610335366004614123565b610961565b6102fd610348366004614308565b6109b7565b6102a161035b366004614296565b60009081526097602052604090206001015490565b6102fd61037e36600461425e565b6109f8565b6102fd610391366004613e07565b610a4b565b6102fd6103a43660046142ae565b610af4565b610131546103b79060ff1681565b60405160ff90911681526020016102ab565b6102fd6103d73660046142ae565b610b21565b6102fd6103ea3660046142ae565b610b2c565b6102a1600080516020614d5383398151915281565b61042e610412366004614296565b61012d602052600090815260409020546001600160a01b031681565b6040516001600160a01b0390911681526020016102ab565b610459610454366004614155565b610bb6565b6040516102ab919061464a565b61042e610474366004614296565b610d17565b61042e610487366004614296565b60fb602052600090815260409020546001600160a01b031681565b6102a16104b036600461433b565b610d22565b6102fd6104c3366004613f4f565b610d81565b6102a1600080516020614d7383398151915281565b6104596104eb36600461421f565b610e25565b6102a16104fe366004613dbb565b60fd6020526000908152604090205481565b610312610f02565b6102fd61052636600461433b565b610f10565b6102a160fc5481565b6102c76105423660046142ae565b610f51565b6102fd610555366004613eac565b610f7c565b61012e5461042e906001600160a01b031681565b6102a1600081565b6102fd610584366004613fcc565b611005565b6102fd610597366004613dbb565b611119565b6102fd6105aa366004614376565b611158565b6102a16105bd366004614296565b600090815260c9602052604090205490565b6102a1600080516020614d3383398151915281565b6102fd6105f2366004614308565b611199565b6102fd6106053660046142ae565b6111da565b6102fd610618366004613f4f565b611202565b6102fd61062b366004614002565b6112b4565b6102c761063e366004613dd5565b6001600160a01b03918216600090815260666020908152604080832093909416825291909152205460ff1690565b6102fd61067a366004613eed565b611370565b61012e546102c790600160a01b900460ff1681565b6102a16106a236600461433b565b611409565b6102fd6106b5366004614123565b6114bb565b60006001600160a01b03831661072b5760405162461bcd60e51b815260206004820152602b60248201527f455243313135353a2062616c616e636520717565727920666f7220746865207a60448201526a65726f206164647265737360a81b60648201526084015b60405180910390fd5b5060009081526065602090815260408083206001600160a01b03949094168352929052205490565b600061075e826114fc565b90505b919050565b6000610773848484611521565b90505b9392505050565b610797600080516020614d5383398151915261054261158e565b6107fb5760405162461bcd60e51b815260206004820152602f60248201527f45524331313535426173653a206d7573742068617665206d657461646174612060448201526e726f6c6520746f207365742055524960881b6064820152608401610722565b61083a82828080601f01602080910402602001604051908101604052809392919081815260200183838082843760009201919091525061159392505050565b5050565b60606067805461084d90614b8e565b80601f016020809104026020016040519081016040528092919081815260200182805461087990614b8e565b80156108c65780601f1061089b576101008083540402835291602001916108c6565b820191906000526020600020905b8154815290600101906020018083116108a957829003601f168201915b50505050509050919050565b61012f80546108e090614b8e565b80601f016020809104026020016040519081016040528092919081815260200182805461090c90614b8e565b80156109595780601f1061092e57610100808354040283529160200191610959565b820191906000526020600020905b81548152906001019060200180831161093c57829003601f168201915b505050505081565b61097b600080516020614d7383398151915261054261158e565b6109975760405162461bcd60e51b8152600401610722906147b6565b6109b2838383604051806020016040528060008152506115a6565b505050565b6109cf600080516020614d5383398151915233610f51565b6109eb5760405162461bcd60e51b815260040161072290614a01565b6109b261012f8383613b15565b610a10600080516020614d5383398151915233610f51565b610a2c5760405162461bcd60e51b815260040161072290614a01565b61012e8054911515600160a01b0260ff60a01b19909216919091179055565b610a5361158e565b6001600160a01b0316856001600160a01b03161480610a795750610a798561063e61158e565b610ae05760405162461bcd60e51b815260206004820152603260248201527f455243313135353a207472616e736665722063616c6c6572206973206e6f74206044820152711bdddb995c881b9bdc88185c1c1c9bdd995960721b6064820152608401610722565b610aed8585858585611689565b5050505050565b600082815260976020526040902060010154610b1781610b1261158e565b6118a8565b6109b2838361190c565b61083a828233611993565b610b3461158e565b6001600160a01b0316816001600160a01b031614610bac5760405162461bcd60e51b815260206004820152602f60248201527f416363657373436f6e74726f6c3a2063616e206f6e6c792072656e6f756e636560448201526e103937b632b9903337b91039b2b63360891b6064820152608401610722565b61083a8282611a86565b60608151835114610c1b5760405162461bcd60e51b815260206004820152602960248201527f455243313135353a206163636f756e747320616e6420696473206c656e677468604482015268040dad2e6dac2e8c6d60bb1b6064820152608401610722565b600083516001600160401b03811115610c4457634e487b7160e01b600052604160045260246000fd5b604051908082528060200260200182016040528015610c6d578160200160208202803683370190505b50905060005b8451811015610d0f57610cd4858281518110610c9f57634e487b7160e01b600052603260045260246000fd5b6020026020010151858381518110610cc757634e487b7160e01b600052603260045260246000fd5b60200260200101516106ba565b828281518110610cf457634e487b7160e01b600052603260045260246000fd5b6020908102919091010152610d0881614bf5565b9050610c73565b509392505050565b600061075e82611b0b565b6001600160a01b038216600090815260fd602052604081205480610d4a576000915050610776565b600090815260fb6020908152604080832087845260030182528083206001600160a01b038616845290915290205490509392505050565b610d9b600080516020614d7383398151915261054261158e565b610db75760405162461bcd60e51b815260040161072290614927565b610aed8585858080602002602001604051908101604052809392919081815260200183836020028082843760009201919091525050604080516020808902828101820190935288825290935088925087918291850190849080828437600092019190915250611c4492505050565b6060816001600160401b03811115610e4d57634e487b7160e01b600052604160045260246000fd5b604051908082528060200260200182016040528015610e76578160200160208202803683370190505b50905060005b82811015610efb5760c96000858584818110610ea857634e487b7160e01b600052603260045260246000fd5b90506020020135815260200190815260200160002054828281518110610ede57634e487b7160e01b600052603260045260246000fd5b602090810291909101015280610ef381614bf5565b915050610e7c565b5092915050565b61013080546108e090614b8e565b610f2a600080516020614d3383398151915261054261158e565b610f465760405162461bcd60e51b81526004016107229061476c565b6109b2838383611993565b60009182526097602090815260408084206001600160a01b0393909316845291905290205460ff1690565b600082815261012d60205260409020546001600160a01b03163314610fe35760405162461bcd60e51b815260206004820181905260248201527f5772617070656445524331313535546f6b656e3a206e6f7420777261707065726044820152606401610722565b610fff8484848460405180602001604052806000815250611e05565b50505050565b816001600160a01b031661101761158e565b6001600160a01b031614156110805760405162461bcd60e51b815260206004820152602960248201527f455243313135353a2073657474696e6720617070726f76616c20737461747573604482015268103337b91039b2b63360b91b6064820152608401610722565b806066600061108d61158e565b6001600160a01b03908116825260208083019390935260409182016000908120918716808252919093529120805460ff1916921515929092179091556110d161158e565b6001600160a01b03167f17307eab39ab6107e8899845ad3d59bd9653f200f220920489ca2b5937696c318360405161110d911515815260200190565b60405180910390a35050565b611133600080516020614d3383398151915261054261158e565b61114f5760405162461bcd60e51b81526004016107229061476c565b61083a81611f3a565b611172600080516020614d3383398151915261054261158e565b61118e5760405162461bcd60e51b81526004016107229061476c565b6109b2838383612009565b6111b1600080516020614d5383398151915233610f51565b6111cd5760405162461bcd60e51b815260040161072290614a01565b6109b26101308383613b15565b6000828152609760205260409020600101546111f881610b1261158e565b6109b28383611a86565b61121c600080516020614d7383398151915261054261158e565b6112385760405162461bcd60e51b8152600401610722906147b6565b610aed858585808060200260200160405190810160405280939291908181526020018383602002808284376000920191909152505060408051602080890282810182019093528882529093508892508791829185019084908082843760009201829052506040805160208101909152908152925061211d915050565b600054610100900460ff16806112cd575060005460ff16155b6112e95760405162461bcd60e51b81526004016107229061484c565b600054610100900460ff1615801561130b576000805461ffff19166101011790555b6113518b8b8b8b8b808060200260200160405190810160405280939291908181526020018383602002808284376000920191909152508d92508c91508b90508a8a61229f565b8015611363576000805461ff00191690555b5050505050505050505050565b61137861158e565b6001600160a01b0316856001600160a01b0316148061139e575061139e8561063e61158e565b6113fc5760405162461bcd60e51b815260206004820152602960248201527f455243313135353a2063616c6c6572206973206e6f74206f776e6572206e6f7260448201526808185c1c1c9bdd995960ba1b6064820152608401610722565b610aed8585858585611e05565b6001600160a01b038216600090815260fd602052604081205480611431576000915050610776565b600081815260fb602090815260408083208884526002810183528184206001600160a01b038816855290925290912054600160801b906114a790611498611478888b6106ba565b60008b81526001870160205260409020546114939190614ad6565b612373565b6114a29190614a69565b6123dd565b6114b19190614ac2565b9695505050505050565b6114d5600080516020614d7383398151915261054261158e565b6114f15760405162461bcd60e51b815260040161072290614927565b6109b283838361242f565b60006001600160e01b03198216637965db0b60e01b148061075e575061075e82612547565b6001600160a01b038216600090815260fd602052604081205480611549576000915050610776565b600081815260fb602090815260408083208884526003810183528184206001600160a01b038816855290925290912054611584878787611409565b6114b19190614b34565b335b90565b805161083a906067906020840190613b95565b6001600160a01b0384166115cc5760405162461bcd60e51b8152600401610722906149c0565b60006115d661158e565b90506115f7816000876115e888612597565b6115f188612597565b876125f0565b60008481526065602090815260408083206001600160a01b038916845290915281208054859290611629908490614aaa565b909155505060408051858152602081018590526001600160a01b0380881692600092918516917fc3d58168c5ae7397731d063d5bbf3d657854427343f4c083240f7aacaa2d0f62910160405180910390a4610aed816000878787876125fe565b81518351146116aa5760405162461bcd60e51b815260040161072290614978565b6001600160a01b0384166116d05760405162461bcd60e51b815260040161072290614807565b60006116da61158e565b90506116ea8187878787876125f0565b60005b845181101561183a57600085828151811061171857634e487b7160e01b600052603260045260246000fd5b60200260200101519050600085838151811061174457634e487b7160e01b600052603260045260246000fd5b60209081029190910181015160008481526065835260408082206001600160a01b038e1683529093529190912054909150818110156117955760405162461bcd60e51b8152600401610722906148dd565b61179f8282614b34565b6065600085815260200190815260200160002060008c6001600160a01b03166001600160a01b0316815260200190815260200160002081905550816065600085815260200190815260200160002060008b6001600160a01b03166001600160a01b03168152602001908152602001600020600082825461181f9190614aaa565b925050819055505050508061183390614bf5565b90506116ed565b50846001600160a01b0316866001600160a01b0316826001600160a01b03167f4a39dc06d4c0dbc64b70af90fd698a233a518aa5d07e595d983b8c0526c8f7fb878760405161188a92919061465d565b60405180910390a46118a0818787878787612782565b505050505050565b6118b28282610f51565b61083a576118ca816001600160a01b0316601461284c565b6118d583602061284c565b6040516020016118e69291906144ee565b60408051601f198184030181529082905262461bcd60e51b825261072291600401614682565b6119168282610f51565b61083a5760008281526097602090815260408083206001600160a01b03851684529091529020805460ff1916600117905561194f61158e565b6001600160a01b0316816001600160a01b0316837f2f8788117e7eff1d82e926ec794901d17c78024a50270940304540a733656f0d60405160405180910390a45050565b60006119a0848484611521565b90508015610fff576001600160a01b038316600090815260fd6020526040902054806119de5760405162461bcd60e51b8152600401610722906146dd565b600081815260fb602090815260408083208884526003810183528184206001600160a01b03881685529092528220805491928592611a1d908490614aaa565b92505081905550846001600160a01b0316846001600160a01b0316877f56f5c15e9cca112839303eda856edf8986e092fc839520408e38e9e662b8d27e86604051611a6a91815260200190565b60405180910390a46118a06001600160a01b0386168585612a2d565b611a908282610f51565b1561083a5760008281526097602090815260408083206001600160a01b03851684529091529020805460ff19169055611ac761158e565b6001600160a01b0316816001600160a01b0316837ff6391f5c32d9c69d2a47ea670b442974b53935d1edc7fd64eb21e047a839171b60405160405180910390a45050565b600081815261012d60205260409020546001600160a01b0316806107615761012e54600090611b42906001600160a01b0316612a90565b90506000611b4f84612b28565b9050600061012f82604051602001611b68929190614448565b6040516020818303038152906040529050600061013083604051602001611b90929190614448565b60408051601f19818403018152908290526101315463be88368d60e01b83529092506001600160a01b0386169163be88368d91611bdd9130918b918891889160ff909116906004016145fb565b600060405180830381600087803b158015611bf757600080fd5b505af1158015611c0b573d6000803e3d6000fd5b5050506000968752505061012d6020525050604090922080546001600160a01b0319166001600160a01b03939093169290921790915590565b6001600160a01b038316611c6a5760405162461bcd60e51b81526004016107229061489a565b8051825114611c8b5760405162461bcd60e51b815260040161072290614978565b6000611c9561158e565b9050611cb5818560008686604051806020016040528060008152506125f0565b60005b8351811015611da6576000848281518110611ce357634e487b7160e01b600052603260045260246000fd5b602002602001015190506000848381518110611d0f57634e487b7160e01b600052603260045260246000fd5b60209081029190910181015160008481526065835260408082206001600160a01b038c168352909352919091205490915081811015611d605760405162461bcd60e51b815260040161072290614728565b611d6a8282614b34565b60009384526065602090815260408086206001600160a01b038c1687529091529093209290925550819050611d9e81614bf5565b915050611cb8565b5060006001600160a01b0316846001600160a01b0316826001600160a01b03167f4a39dc06d4c0dbc64b70af90fd698a233a518aa5d07e595d983b8c0526c8f7fb8686604051611df792919061465d565b60405180910390a450505050565b6001600160a01b038416611e2b5760405162461bcd60e51b815260040161072290614807565b6000611e3561158e565b9050611e468187876115e888612597565b60008481526065602090815260408083206001600160a01b038a16845290915290205483811015611e895760405162461bcd60e51b8152600401610722906148dd565b611e938482614b34565b60008681526065602090815260408083206001600160a01b038c81168552925280832093909355881681529081208054869290611ed1908490614aaa565b909155505060408051868152602081018690526001600160a01b03808916928a821692918616917fc3d58168c5ae7397731d063d5bbf3d657854427343f4c083240f7aacaa2d0f62910160405180910390a4611f318288888888886125fe565b50505050505050565b6001600160a01b038116600090815260fd602052604081205415611fb15760405162461bcd60e51b815260206004820152602860248201527f455243313135354469766964656e64546f6b656e3a20616c726561647920726560448201526719da5cdd195c995960c21b6064820152608401610722565b60fc8054906000611fc183614bf5565b909155505060fc54600081815260fb6020908152604080832080546001600160a01b039097166001600160a01b03199097168717905594825260fd9052929092208290555090565b600083815260c960205260409020548061202257600080fd5b6000821161202f57600080fd5b6001600160a01b038316600090815260fd6020526040902054806120655760405162461bcd60e51b8152600401610722906146dd565b600081815260fb6020526040902082612082600160801b86614ad6565b61208c9190614ac2565b6000878152600183016020526040812080549091906120ac908490614aaa565b909155506120c790506001600160a01b038616333087612c4a565b846001600160a01b0316336001600160a01b0316877f8e19c486d7cf157228582812303b4763c49b90104252be0a955a3efb25f46ada8760405161210d91815260200190565b60405180910390a4505050505050565b6001600160a01b0384166121435760405162461bcd60e51b8152600401610722906149c0565b81518351146121645760405162461bcd60e51b815260040161072290614978565b600061216e61158e565b905061217f816000878787876125f0565b60005b8451811015612237578381815181106121ab57634e487b7160e01b600052603260045260246000fd5b6020026020010151606560008784815181106121d757634e487b7160e01b600052603260045260246000fd5b602002602001015181526020019081526020016000206000886001600160a01b03166001600160a01b03168152602001908152602001600020600082825461221f9190614aaa565b9091555081905061222f81614bf5565b915050612182565b50846001600160a01b031660006001600160a01b0316826001600160a01b03167f4a39dc06d4c0dbc64b70af90fd698a233a518aa5d07e595d983b8c0526c8f7fb878760405161228892919061465d565b60405180910390a4610aed81600087878787612782565b600054610100900460ff16806122b8575060005460ff16155b6122d45760405162461bcd60e51b81526004016107229061484c565b600054610100900460ff161580156122f6576000805461ffff19166101011790555b6123368a8a8a8080601f016020809104026020016040519081016040528093929190818152602001838380828437600092019190915250612c8292505050565b61233f87612d01565b61234c8686868686612e54565b6123558a612f26565b8015612367576000805461ff00191690555b50505050505050505050565b6000600160ff1b82106123d95760405162461bcd60e51b815260206004820152602860248201527f53616665436173743a2076616c756520646f65736e27742066697420696e2061604482015267371034b73a191a9b60c11b6064820152608401610722565b5090565b6000808212156123d95760405162461bcd60e51b815260206004820181905260248201527f53616665436173743a2076616c7565206d75737420626520706f7369746976656044820152606401610722565b6001600160a01b0383166124555760405162461bcd60e51b81526004016107229061489a565b600061245f61158e565b905061248f8185600061247187612597565b61247a87612597565b604051806020016040528060008152506125f0565b60008381526065602090815260408083206001600160a01b0388168452909152902054828110156124d25760405162461bcd60e51b815260040161072290614728565b6124dc8382614b34565b60008581526065602090815260408083206001600160a01b038a811680865291845282852095909555815189815292830188905292938616917fc3d58168c5ae7397731d063d5bbf3d657854427343f4c083240f7aacaa2d0f62910160405180910390a45050505050565b60006001600160e01b03198216636cdb3d1360e11b148061257857506001600160e01b031982166303a24d0760e21b145b8061075e57506301ffc9a760e01b6001600160e01b031983161461075e565b604080516001808252818301909252606091600091906020808301908036833701905050905082816000815181106125df57634e487b7160e01b600052603260045260246000fd5b602090810291909101015292915050565b6118a0868686868686612fc2565b6001600160a01b0384163b15158015612622575061262086868686868661315e565b155b156118a05760405163f23a6e6160e01b81526001600160a01b0385169063f23a6e619061265b90899089908890889088906004016145c1565b602060405180830381600087803b15801561267557600080fd5b505af19250505080156126a5575060408051601f3d908101601f191682019092526126a2918101906142ec565b60015b612752576126b1614c66565b806308c379a014156126eb57506126c6614c7d565b806126d157506126ed565b8060405162461bcd60e51b81526004016107229190614682565b505b60405162461bcd60e51b815260206004820152603460248201527f455243313135353a207472616e7366657220746f206e6f6e20455243313135356044820152732932b1b2b4bb32b91034b6b83632b6b2b73a32b960611b6064820152608401610722565b6001600160e01b0319811663f23a6e6160e01b14611f315760405162461bcd60e51b815260040161072290614695565b6001600160a01b0384163b156118a05760405163bc197c8160e01b81526001600160a01b0385169063bc197c81906127c69089908990889088908890600401614563565b602060405180830381600087803b1580156127e057600080fd5b505af1925050508015612810575060408051601f3d908101601f1916820190925261280d918101906142ec565b60015b61281c576126b1614c66565b6001600160e01b0319811663bc197c8160e01b14611f315760405162461bcd60e51b815260040161072290614695565b6060600061285b836002614ad6565b612866906002614aaa565b6001600160401b0381111561288b57634e487b7160e01b600052604160045260246000fd5b6040519080825280601f01601f1916602001820160405280156128b5576020820181803683370190505b509050600360fc1b816000815181106128de57634e487b7160e01b600052603260045260246000fd5b60200101906001600160f81b031916908160001a905350600f60fb1b8160018151811061291b57634e487b7160e01b600052603260045260246000fd5b60200101906001600160f81b031916908160001a905350600061293f846002614ad6565b61294a906001614aaa565b90505b60018111156129de576f181899199a1a9b1b9c1cb0b131b232b360811b85600f166010811061298c57634e487b7160e01b600052603260045260246000fd5b1a60f81b8282815181106129b057634e487b7160e01b600052603260045260246000fd5b60200101906001600160f81b031916908160001a90535060049490941c936129d781614b77565b905061294d565b5083156107765760405162461bcd60e51b815260206004820181905260248201527f537472696e67733a20686578206c656e67746820696e73756666696369656e746044820152606401610722565b6040516001600160a01b0383166024820152604481018290526109b290849063a9059cbb60e01b906064015b60408051601f198184030181529190526020810180516001600160e01b03166001600160e01b031990931692909217909152613179565b6000604051733d602d80600a3d3981f3363d3d373d3d3d363d7360601b81528260601b60148201526e5af43d82803e903d91602b57fd5bf360881b60288201526037816000f09150506001600160a01b0381166107615760405162461bcd60e51b8152602060048201526016602482015275115490cc4c4d8dce8818dc99585d194819985a5b195960521b6044820152606401610722565b606081612b4d57506040805180820190915260018152600360fc1b6020820152610761565b8160005b8115612b775780612b6181614bf5565b9150612b709050600a83614ac2565b9150612b51565b6000816001600160401b03811115612b9f57634e487b7160e01b600052604160045260246000fd5b6040519080825280601f01601f191660200182016040528015612bc9576020820181803683370190505b5090505b8415612c4257612bde600183614b34565b9150612beb600a86614c10565b612bf6906030614aaa565b60f81b818381518110612c1957634e487b7160e01b600052603260045260246000fd5b60200101906001600160f81b031916908160001a905350612c3b600a86614ac2565b9450612bcd565b949350505050565b6040516001600160a01b0380851660248301528316604482015260648101829052610fff9085906323b872dd60e01b90608401612a59565b600054610100900460ff1680612c9b575060005460ff16155b612cb75760405162461bcd60e51b81526004016107229061484c565b600054610100900460ff16158015612cd9576000805461ffff19166101011790555b612ce28261324b565b612ceb836132bb565b80156109b2576000805461ff0019169055505050565b600054610100900460ff1680612d1a575060005460ff16155b612d365760405162461bcd60e51b81526004016107229061484c565b600054610100900460ff16158015612d58576000805461ffff19166101011790555b815160fc5560005b8251811015612e3e57828181518110612d8957634e487b7160e01b600052603260045260246000fd5b602002602001015160fb6000836001612da29190614aaa565b8152602081019190915260400160002080546001600160a01b0319166001600160a01b0392909216919091179055612ddb816001614aaa565b60fd6000858481518110612dff57634e487b7160e01b600052603260045260246000fd5b60200260200101516001600160a01b03166001600160a01b03168152602001908152602001600020819055508080612e3690614bf5565b915050612d60565b50801561083a576000805461ff00191690555050565b600054610100900460ff1680612e6d575060005460ff16155b612e895760405162461bcd60e51b81526004016107229061484c565b600054610100900460ff16158015612eab576000805461ffff19166101011790555b61012e8054861515600160a01b026001600160a81b03199091166001600160a01b038916171790558351612ee79061012f906020870190613b95565b508251612efc90610130906020860190613b95565b50610131805460ff191660ff841617905580156118a0576000805461ff0019169055505050505050565b600054610100900460ff1680612f3f575060005460ff16155b612f5b5760405162461bcd60e51b81526004016107229061484c565b600054610100900460ff16158015612f7d576000805461ffff19166101011790555b612f95600080516020614d3383398151915283613372565b612fad600080516020614d338339815191528061337c565b801561083a576000805461ff00191690555050565b612fd08686868686866133d0565b6001600160a01b0385166130425761012e54600160a01b900460ff16156130425760005b83518110156130405761302d84828151811061302057634e487b7160e01b600052603260045260246000fd5b6020026020010151611b0b565b508061303881614bf5565b915050612ff4565b505b60005b8351811015611f3157600061012d600086848151811061307557634e487b7160e01b600052603260045260246000fd5b6020908102919091018101518252810191909152604001600020546001600160a01b03169050801561314b576000819050806001600160a01b031663a6d49dca89898887815181106130d757634e487b7160e01b600052603260045260246000fd5b60209081029190910101516040516001600160e01b031960e086901b1681526001600160a01b0393841660048201529290911660248301526044820152606401600060405180830381600087803b15801561313157600080fd5b505af1158015613145573d6000803e3d6000fd5b50505050505b508061315681614bf5565b915050613045565b600061316e878787878787613765565b979650505050505050565b60006131ce826040518060400160405280602081526020017f5361666545524332303a206c6f772d6c6576656c2063616c6c206661696c6564815250856001600160a01b03166137a39092919063ffffffff16565b8051909150156109b257808060200190518101906131ec919061427a565b6109b25760405162461bcd60e51b815260206004820152602a60248201527f5361666545524332303a204552433230206f7065726174696f6e20646964206e6044820152691bdd081cdd58d8d9595960b21b6064820152608401610722565b600054610100900460ff1680613264575060005460ff16155b6132805760405162461bcd60e51b81526004016107229061484c565b600054610100900460ff161580156132a2576000805461ffff19166101011790555b6132aa6137b2565b6132b26137b2565b612fad8261381e565b600054610100900460ff16806132d4575060005460ff16155b6132f05760405162461bcd60e51b81526004016107229061484c565b600054610100900460ff16158015613312576000805461ffff19166101011790555b61332a600080516020614d5383398151915283613372565b613342600080516020614d7383398151915283613372565b61335a600080516020614d538339815191528061337c565b612fad600080516020614d738339815191528061337c565b61083a828261190c565b600082815260976020526040902060010154819060405184907fbd79b86ffe0ab8e8776151514217cd7cacd52c909f66475c3af44e129f0b00ff90600090a460009182526097602052604090912060010155565b6133de86868686868661387e565b6001600160a01b0385166134f85760005b83518110156134f257600084828151811061341a57634e487b7160e01b600052603260045260246000fd5b60200260200101519050600084838151811061344657634e487b7160e01b600052603260045260246000fd5b602002602001015190506000600190505b60fc5481116134dc57600081815260fb60209081526040808320868452600181019092529091205461348e90611493908590614ad6565b600085815260028301602090815260408083206001600160a01b038e168452909152812080549091906134c2908490614af5565b909155508291506134d4905081614bf5565b915050613457565b50505080806134ea90614bf5565b9150506133ef565b506118a0565b6001600160a01b03841661360c5760005b83518110156134f257600084828151811061353457634e487b7160e01b600052603260045260246000fd5b60200260200101519050600084838151811061356057634e487b7160e01b600052603260045260246000fd5b602002602001015190506000600190505b60fc5481116135f657600081815260fb6020908152604080832086845260018101909252909120546135a890611493908590614ad6565b600085815260028301602090815260408083206001600160a01b038f168452909152812080549091906135dc908490614a69565b909155508291506135ee905081614bf5565b915050613571565b505050808061360490614bf5565b915050613509565b60005b8351811015611f3157600084828151811061363a57634e487b7160e01b600052603260045260246000fd5b60200260200101519050600084838151811061366657634e487b7160e01b600052603260045260246000fd5b602002602001015190506000600190505b60fc54811161374f57600081815260fb60209081526040808320868452600181019092528220549091906136b090611493908690614ad6565b90508082600201600087815260200190815260200160002060008d6001600160a01b03166001600160a01b0316815260200190815260200160002060008282546136fa9190614a69565b9091555050600085815260028301602090815260408083206001600160a01b038e16845290915281208054839290613733908490614af5565b925050819055505050808061374790614bf5565b915050613677565b505050808061375d90614bf5565b91505061360f565b600083815261012d60205260408120546001600160a01b03168015613799576001600160a01b0388811691161490506114b1565b60009150506114b1565b606061077384846000856139c4565b600054610100900460ff16806137cb575060005460ff16155b6137e75760405162461bcd60e51b81526004016107229061484c565b600054610100900460ff16158015613809576000805461ffff19166101011790555b801561381b576000805461ff00191690555b50565b600054610100900460ff1680613837575060005460ff16155b6138535760405162461bcd60e51b81526004016107229061484c565b600054610100900460ff16158015613875576000805461ffff19166101011790555b612fad82611593565b6001600160a01b0385166139215760005b83518110156134f2578281815181106138b857634e487b7160e01b600052603260045260246000fd5b602002602001015160c960008684815181106138e457634e487b7160e01b600052603260045260246000fd5b6020026020010151815260200190815260200160002060008282546139099190614aaa565b9091555081905061391981614bf5565b91505061388f565b6001600160a01b0384166118a05760005b8351811015611f315782818151811061395b57634e487b7160e01b600052603260045260246000fd5b602002602001015160c9600086848151811061398757634e487b7160e01b600052603260045260246000fd5b6020026020010151815260200190815260200160002060008282546139ac9190614b34565b909155508190506139bc81614bf5565b915050613932565b606082471015613a255760405162461bcd60e51b815260206004820152602660248201527f416464726573733a20696e73756666696369656e742062616c616e636520666f6044820152651c8818d85b1b60d21b6064820152608401610722565b843b613a735760405162461bcd60e51b815260206004820152601d60248201527f416464726573733a2063616c6c20746f206e6f6e2d636f6e74726163740000006044820152606401610722565b600080866001600160a01b03168587604051613a8f919061442c565b60006040518083038185875af1925050503d8060008114613acc576040519150601f19603f3d011682016040523d82523d6000602084013e613ad1565b606091505b509150915061316e82828660608315613aeb575081610776565b825115613afb5782518084602001fd5b8160405162461bcd60e51b81526004016107229190614682565b828054613b2190614b8e565b90600052602060002090601f016020900481019282613b435760008555613b89565b82601f10613b5c5782800160ff19823516178555613b89565b82800160010185558215613b89579182015b82811115613b89578235825591602001919060010190613b6e565b506123d9929150613c09565b828054613ba190614b8e565b90600052602060002090601f016020900481019282613bc35760008555613b89565b82601f10613bdc57805160ff1916838001178555613b89565b82800160010185558215613b89579182015b82811115613b89578251825591602001919060010190613bee565b5b808211156123d95760008155600101613c0a565b80356001600160a01b038116811461076157600080fd5b60008083601f840112613c46578182fd5b5081356001600160401b03811115613c5c578182fd5b6020830191508360208260051b8501011115613c7757600080fd5b9250929050565b600082601f830112613c8e578081fd5b81356020613c9b82614a46565b604051613ca88282614bc9565b8381528281019150858301600585901b87018401881015613cc7578586fd5b855b85811015613ce557813584529284019290840190600101613cc9565b5090979650505050505050565b803561076181614d0e565b600082601f830112613d0d578081fd5b81356001600160401b03811115613d2657613d26614c50565b604051613d3d601f8301601f191660200182614bc9565b818152846020838601011115613d51578283fd5b816020850160208301379081016020019190915292915050565b60008083601f840112613d7c578182fd5b5081356001600160401b03811115613d92578182fd5b602083019150836020828501011115613c7757600080fd5b803560ff8116811461076157600080fd5b600060208284031215613dcc578081fd5b61077682613c1e565b60008060408385031215613de7578081fd5b613df083613c1e565b9150613dfe60208401613c1e565b90509250929050565b600080600080600060a08688031215613e1e578081fd5b613e2786613c1e565b9450613e3560208701613c1e565b935060408601356001600160401b0380821115613e50578283fd5b613e5c89838a01613c7e565b94506060880135915080821115613e71578283fd5b613e7d89838a01613c7e565b93506080880135915080821115613e92578283fd5b50613e9f88828901613cfd565b9150509295509295909350565b60008060008060808587031215613ec1578384fd5b613eca85613c1e565b9350613ed860208601613c1e565b93969395505050506040820135916060013590565b600080600080600060a08688031215613f04578081fd5b613f0d86613c1e565b9450613f1b60208701613c1e565b9350604086013592506060860135915060808601356001600160401b03811115613f43578182fd5b613e9f88828901613cfd565b600080600080600060608688031215613f66578283fd5b613f6f86613c1e565b945060208601356001600160401b0380821115613f8a578485fd5b613f9689838a01613c35565b90965094506040880135915080821115613fae578283fd5b50613fbb88828901613c35565b969995985093965092949392505050565b60008060408385031215613fde578182fd5b613fe783613c1e565b91506020830135613ff781614d0e565b809150509250929050565b6000806000806000806000806000806101008b8d031215614021578788fd5b61402a8b613c1e565b995060208b01356001600160401b038082111561404557898afd5b6140518e838f01613d6b565b909b50995060408d0135915080821115614069578687fd5b6140758e838f01613c35565b909950975087915061408960608e01613c1e565b965061409760808e01613cf2565b955060a08d01359150808211156140ac578485fd5b6140b88e838f01613cfd565b945060c08d01359150808211156140cd578384fd5b506140da8d828e01613cfd565b9250506140e960e08c01613daa565b90509295989b9194979a5092959850565b6000806040838503121561410c578182fd5b61411583613c1e565b946020939093013593505050565b600080600060608486031215614137578081fd5b61414084613c1e565b95602085013595506040909401359392505050565b60008060408385031215614167578182fd5b82356001600160401b038082111561417d578384fd5b818501915085601f830112614190578384fd5b8135602061419d82614a46565b6040516141aa8282614bc9565b8381528281019150858301600585901b870184018b10156141c9578889fd5b8896505b848710156141f2576141de81613c1e565b8352600196909601959183019183016141cd565b5096505086013592505080821115614208578283fd5b5061421585828601613c7e565b9150509250929050565b60008060208385031215614231578182fd5b82356001600160401b03811115614246578283fd5b61425285828601613c35565b90969095509350505050565b60006020828403121561426f578081fd5b813561077681614d0e565b60006020828403121561428b578081fd5b815161077681614d0e565b6000602082840312156142a7578081fd5b5035919050565b600080604083850312156142c0578182fd5b82359150613dfe60208401613c1e565b6000602082840312156142e1578081fd5b813561077681614d1c565b6000602082840312156142fd578081fd5b815161077681614d1c565b6000806020838503121561431a578182fd5b82356001600160401b0381111561432f578283fd5b61425285828601613d6b565b60008060006060848603121561434f578081fd5b8335925061435f60208501613c1e565b915061436d60408501613c1e565b90509250925092565b60008060006060848603121561438a578081fd5b8335925061439a60208501613c1e565b9150604084013590509250925092565b6000815180845260208085019450808401835b838110156143d9578151875295820195908201906001016143bd565b509495945050505050565b600081518084526143fc816020860160208601614b4b565b601f01601f19169290920160200192915050565b60008151614422818560208601614b4b565b9290920192915050565b6000825161443e818460208701614b4b565b9190910192915050565b600080845482600182811c91508083168061446457607f831692505b602080841082141561448457634e487b7160e01b87526022600452602487fd5b81801561449857600181146144a9576144d5565b60ff198616895284890196506144d5565b60008b815260209020885b868110156144cd5781548b8201529085019083016144b4565b505084890196505b5050505050506144e58185614410565b95945050505050565b60007f416363657373436f6e74726f6c3a206163636f756e742000000000000000000082528351614526816017850160208801614b4b565b7001034b99036b4b9b9b4b733903937b6329607d1b6017918401918201528351614557816028840160208801614b4b565b01602801949350505050565b6001600160a01b0386811682528516602082015260a06040820181905260009061458f908301866143aa565b82810360608401526145a181866143aa565b905082810360808401526145b581856143e4565b98975050505050505050565b6001600160a01b03868116825285166020820152604081018490526060810183905260a06080820181905260009061316e908301846143e4565b600060018060a01b038716825285602083015260a0604083015261462260a08301866143e4565b828103606084015261463481866143e4565b91505060ff831660808301529695505050505050565b60006020825261077660208301846143aa565b60006040825261467060408301856143aa565b82810360208401526144e581856143aa565b60006020825261077660208301846143e4565b60208082526028908201527f455243313135353a204552433131353552656365697665722072656a656374656040820152676420746f6b656e7360c01b606082015260800190565b6020808252602b908201527f455243313135354469766964656e64546f6b656e3a20696e76616c696420646960408201526a3b34b232b7322a37b5b2b760a91b606082015260800190565b60208082526024908201527f455243313135353a206275726e20616d6f756e7420657863656564732062616c604082015263616e636560e01b606082015260800190565b6020808252602a908201527f46756e64696e674d756c7469746f6b656e3a206d7573742068617665206469766040820152696964656e6420726f6c6560b01b606082015260800190565b60208082526031908201527f45524331313535426173653a206d7573742068617665206d696e7465722d62756040820152701c9b995c881c9bdb19481d1bc81b5a5b9d607a1b606082015260800190565b60208082526025908201527f455243313135353a207472616e7366657220746f20746865207a65726f206164604082015264647265737360d81b606082015260800190565b6020808252602e908201527f496e697469616c697a61626c653a20636f6e747261637420697320616c72656160408201526d191e481a5b9a5d1a585b1a5e995960921b606082015260800190565b60208082526023908201527f455243313135353a206275726e2066726f6d20746865207a65726f206164647260408201526265737360e81b606082015260800190565b6020808252602a908201527f455243313135353a20696e73756666696369656e742062616c616e636520666f60408201526939103a3930b739b332b960b11b606082015260800190565b60208082526031908201527f45524331313535426173653a206d7573742068617665206d696e7465722d6275604082015270393732b9103937b632903a3790313ab93760791b606082015260800190565b60208082526028908201527f455243313135353a2069647320616e6420616d6f756e7473206c656e677468206040820152670dad2e6dac2e8c6d60c31b606082015260800190565b60208082526021908201527f455243313135353a206d696e7420746f20746865207a65726f206164647265736040820152607360f81b606082015260800190565b60208082526025908201527f5772617070656445524331313535546f6b656e3a206e6f206d6574616461746160408201526420726f6c6560d81b606082015260800190565b60006001600160401b03821115614a5f57614a5f614c50565b5060051b60200190565b600080821280156001600160ff1b0384900385131615614a8b57614a8b614c24565b600160ff1b8390038412811615614aa457614aa4614c24565b50500190565b60008219821115614abd57614abd614c24565b500190565b600082614ad157614ad1614c3a565b500490565b6000816000190483118215151615614af057614af0614c24565b500290565b60008083128015600160ff1b850184121615614b1357614b13614c24565b6001600160ff1b0384018313811615614b2e57614b2e614c24565b50500390565b600082821015614b4657614b46614c24565b500390565b60005b83811015614b66578181015183820152602001614b4e565b83811115610fff5750506000910152565b600081614b8657614b86614c24565b506000190190565b600181811c90821680614ba257607f821691505b60208210811415614bc357634e487b7160e01b600052602260045260246000fd5b50919050565b601f8201601f191681016001600160401b0381118282101715614bee57614bee614c50565b6040525050565b6000600019821415614c0957614c09614c24565b5060010190565b600082614c1f57614c1f614c3a565b500690565b634e487b7160e01b600052601160045260246000fd5b634e487b7160e01b600052601260045260246000fd5b634e487b7160e01b600052604160045260246000fd5b600060033d111561159057600481823e5160e01c90565b600060443d1015614c8d57611590565b6040516003193d81016004833e81513d6001600160401b038160248401118184111715614cbe575050505050611590565b8285019150815181811115614cd857505050505050611590565b843d8701016020828501011115614cf457505050505050611590565b614d0360208286010187614bc9565b509094505050505090565b801515811461381b57600080fd5b6001600160e01b03198116811461381b57600080fdfe1306abaae01ce00b9f91c50a35fbeecbc60f12b86cc685e2cf1f6baae86d17936bd6b5318a46e5fff572d5e4258a20774aab40cc35ac7680654b9081fcc82f80cfd53186d792f1ec9d0679afc2dc3ffc86fc31fe1e0f342b838eb6c3eade62b3a264697066735822122029005fe7506d2a0cf06785e9306e73d30379a349972526b9a5f7b5add291d87464736f6c63430008030033",
  "devdoc": {
    "kind": "dev",
    "methods": {
      "accumulativeDividendOf(uint256,address,address)": {
        "details": "accumulativeDividendOf(_owner) = _withdrawableDividendOf(_owner) + withdrawnDividendOf(_owner) = (magnifiedDividendPerShare * balanceOf(_owner) + magnifiedDividendCorrections[_owner]) / magnitude",
        "params": {
          "_owner": "The address of a token holder.",
          "dividendToken": "The token the dividend is in",
          "tokenID": "The token's ID."
        },
        "returns": {
          "_0": "The amount of dividend in wei that `_owner` has earned in total."
        }
      },
      "balanceOf(address,uint256)": {
        "details": "See {IERC1155-balanceOf}. Requirements: - `account` cannot be the zero address."
      },
      "balanceOfBatch(address[],uint256[])": {
        "details": "See {IERC1155-balanceOfBatch}. Requirements: - `accounts` and `ids` must have the same length."
      },
      "deployWrapper(uint256)": {
        "details": "If a wrapper already exists for this tokenID, does nothing and returns the address of the existing wrapper.",
        "params": {
          "tokenID": "The ID of the token to wrap"
        },
        "returns": {
          "wrapperAddress": "The address of the wrapper"
        }
      },
      "dividendOf(uint256,address,address)": {
        "params": {
          "_owner": "The address of a token holder.",
          "dividendToken": "The token the dividend is in",
          "tokenID": "The token's ID."
        },
        "returns": {
          "_0": "The amount of dividend in wei that `_owner` can withdraw."
        }
      },
      "getRoleAdmin(bytes32)": {
        "details": "Returns the admin role that controls `role`. See {grantRole} and {revokeRole}. To change a role's admin, use {_setRoleAdmin}."
      },
      "grantRole(bytes32,address)": {
        "details": "Grants `role` to `account`. If `account` had not been already granted `role`, emits a {RoleGranted} event. Requirements: - the caller must have ``role``'s admin role."
      },
      "hasRole(bytes32,address)": {
        "details": "Returns `true` if `account` has been granted `role`."
      },
      "isApprovedForAll(address,address)": {
        "details": "See {IERC1155-isApprovedForAll}."
      },
      "renounceRole(bytes32,address)": {
        "details": "Revokes `role` from the calling account. Roles are often managed via {grantRole} and {revokeRole}: this function's purpose is to provide a mechanism for accounts to lose their privileges if they are compromised (such as when a trusted device is misplaced). If the calling account had been granted `role`, emits a {RoleRevoked} event. Requirements: - the caller must be `account`."
      },
      "revokeRole(bytes32,address)": {
        "details": "Revokes `role` from `account`. If `account` had been granted `role`, emits a {RoleRevoked} event. Requirements: - the caller must have ``role``'s admin role."
      },
      "safeBatchTransferFrom(address,address,uint256[],uint256[],bytes)": {
        "details": "See {IERC1155-safeBatchTransferFrom}."
      },
      "safeTransferFrom(address,address,uint256,uint256,bytes)": {
        "details": "See {IERC1155-safeTransferFrom}."
      },
      "setApprovalForAll(address,bool)": {
        "details": "See {IERC1155-setApprovalForAll}."
      },
      "uri(uint256)": {
        "details": "See {IERC1155MetadataURI-uri}. This implementation returns the same URI for *all* token types. It relies on the token type ID substitution mechanism https://eips.ethereum.org/EIPS/eip-1155#metadata[defined in the EIP]. Clients calling this function must replace the `\\{id\\}` substring with the actual token type ID."
      },
      "withdrawnDividendOf(uint256,address,address)": {
        "params": {
          "_owner": "The address of a token holder.",
          "dividendToken": "The token the dividend is in",
          "tokenID": "The token's ID."
        },
        "returns": {
          "_0": "The amount of dividend in wei that `_owner` has withdrawn."
        }
      },
      "wrapperTransfer(address,address,uint256,uint256)": {
        "details": "Only callable by a wrapper deployed by this contract.",
        "params": {
          "amount": "The amount to transfer",
          "from": "Source of transfer",
          "to": "Target of transfer",
          "tokenID": "The ERC-1155 token ID of the wrapper"
        }
      }
    },
    "version": 1
  },
  "userdoc": {
    "kind": "user",
    "methods": {
      "accumulativeDividendOf(uint256,address,address)": {
        "notice": "View the amount of dividend in wei that an address has earned in total."
      },
      "deployWrapper(uint256)": {
        "notice": "Deploys an ERC20Wrapper contract for the ERC-1155 tokens with ID `tokenID`."
      },
      "dividendOf(uint256,address,address)": {
        "notice": "View the amount of dividend in wei that an address can withdraw."
      },
      "dividendTokenDataList(uint256)": {
        "notice": "The list of tokens that can be distributed to token holders as dividend. 1-indexed."
      },
      "dividendTokenToDataID(address)": {
        "notice": "The dividend token address to its key in {dividendTokenDataList}"
      },
      "setDeployWrapperOnMint(bool)": {
        "notice": "Param setters (need metadata role)"
      },
      "withdrawnDividendOf(uint256,address,address)": {
        "notice": "View the amount of dividend in wei that an address has withdrawn."
      },
      "wrapperTransfer(address,address,uint256,uint256)": {
        "notice": "Called by an ERC20Wrapper contract to handle a transfer call."
      }
    },
    "version": 1
  },
  "storageLayout": {
    "storage": [
      {
        "astId": 612,
        "contract": "contracts/tokens/FundingMultitoken.sol:FundingMultitoken",
        "label": "_initialized",
        "offset": 0,
        "slot": "0",
        "type": "t_bool"
      },
      {
        "astId": 615,
        "contract": "contracts/tokens/FundingMultitoken.sol:FundingMultitoken",
        "label": "_initializing",
        "offset": 1,
        "slot": "0",
        "type": "t_bool"
      },
      {
        "astId": 3064,
        "contract": "contracts/tokens/FundingMultitoken.sol:FundingMultitoken",
        "label": "__gap",
        "offset": 0,
        "slot": "1",
        "type": "t_array(t_uint256)50_storage"
      },
      {
        "astId": 3453,
        "contract": "contracts/tokens/FundingMultitoken.sol:FundingMultitoken",
        "label": "__gap",
        "offset": 0,
        "slot": "51",
        "type": "t_array(t_uint256)50_storage"
      },
      {
        "astId": 12193,
        "contract": "contracts/tokens/FundingMultitoken.sol:FundingMultitoken",
        "label": "_balances",
        "offset": 0,
        "slot": "101",
        "type": "t_mapping(t_uint256,t_mapping(t_address,t_uint256))"
      },
      {
        "astId": 12199,
        "contract": "contracts/tokens/FundingMultitoken.sol:FundingMultitoken",
        "label": "_operatorApprovals",
        "offset": 0,
        "slot": "102",
        "type": "t_mapping(t_address,t_mapping(t_address,t_bool))"
      },
      {
        "astId": 12201,
        "contract": "contracts/tokens/FundingMultitoken.sol:FundingMultitoken",
        "label": "_uri",
        "offset": 0,
        "slot": "103",
        "type": "t_string_storage"
      },
      {
        "astId": 13302,
        "contract": "contracts/tokens/FundingMultitoken.sol:FundingMultitoken",
        "label": "__gap",
        "offset": 0,
        "slot": "104",
        "type": "t_array(t_uint256)47_storage"
      },
      {
        "astId": 86,
        "contract": "contracts/tokens/FundingMultitoken.sol:FundingMultitoken",
        "label": "_roles",
        "offset": 0,
        "slot": "151",
        "type": "t_mapping(t_bytes32,t_struct(RoleData)81_storage)"
      },
      {
        "astId": 394,
        "contract": "contracts/tokens/FundingMultitoken.sol:FundingMultitoken",
        "label": "__gap",
        "offset": 0,
        "slot": "152",
        "type": "t_array(t_uint256)49_storage"
      },
      {
        "astId": 11060,
        "contract": "contracts/tokens/FundingMultitoken.sol:FundingMultitoken",
        "label": "_totalSupply",
        "offset": 0,
        "slot": "201",
        "type": "t_mapping(t_uint256,t_uint256)"
      },
      {
        "astId": 11398,
        "contract": "contracts/tokens/FundingMultitoken.sol:FundingMultitoken",
        "label": "__gap",
        "offset": 0,
        "slot": "202",
        "type": "t_array(t_uint256)49_storage"
      },
      {
        "astId": 11452,
        "contract": "contracts/tokens/FundingMultitoken.sol:FundingMultitoken",
        "label": "dividendTokenDataList",
        "offset": 0,
        "slot": "251",
        "type": "t_mapping(t_uint256,t_struct(DividendTokenData)11441_storage)"
      },
      {
        "astId": 11454,
        "contract": "contracts/tokens/FundingMultitoken.sol:FundingMultitoken",
        "label": "dividendTokenDataListLength",
        "offset": 0,
        "slot": "252",
        "type": "t_uint256"
      },
      {
        "astId": 11459,
        "contract": "contracts/tokens/FundingMultitoken.sol:FundingMultitoken",
        "label": "dividendTokenToDataID",
        "offset": 0,
        "slot": "253",
        "type": "t_mapping(t_address,t_uint256)"
      },
      {
        "astId": 12155,
        "contract": "contracts/tokens/FundingMultitoken.sol:FundingMultitoken",
        "label": "__gap",
        "offset": 0,
        "slot": "254",
        "type": "t_array(t_uint256)47_storage"
      },
      {
        "astId": 14129,
        "contract": "contracts/tokens/FundingMultitoken.sol:FundingMultitoken",
        "label": "tokenIDToWrapper",
        "offset": 0,
        "slot": "301",
        "type": "t_mapping(t_uint256,t_address)"
      },
      {
        "astId": 14131,
        "contract": "contracts/tokens/FundingMultitoken.sol:FundingMultitoken",
        "label": "wrapperTemplate",
        "offset": 0,
        "slot": "302",
        "type": "t_address"
      },
      {
        "astId": 14133,
        "contract": "contracts/tokens/FundingMultitoken.sol:FundingMultitoken",
        "label": "deployWrapperOnMint",
        "offset": 20,
        "slot": "302",
        "type": "t_bool"
      },
      {
        "astId": 14135,
        "contract": "contracts/tokens/FundingMultitoken.sol:FundingMultitoken",
        "label": "baseName",
        "offset": 0,
        "slot": "303",
        "type": "t_string_storage"
      },
      {
        "astId": 14137,
        "contract": "contracts/tokens/FundingMultitoken.sol:FundingMultitoken",
        "label": "baseSymbol",
        "offset": 0,
        "slot": "304",
        "type": "t_string_storage"
      },
      {
        "astId": 14139,
        "contract": "contracts/tokens/FundingMultitoken.sol:FundingMultitoken",
        "label": "decimals",
        "offset": 0,
        "slot": "305",
        "type": "t_uint8"
      },
      {
        "astId": 14547,
        "contract": "contracts/tokens/FundingMultitoken.sol:FundingMultitoken",
        "label": "__gap",
        "offset": 0,
        "slot": "306",
        "type": "t_array(t_uint256)44_storage"
      },
      {
        "astId": 22613,
        "contract": "contracts/tokens/FundingMultitoken.sol:FundingMultitoken",
        "label": "__gap",
        "offset": 0,
        "slot": "350",
        "type": "t_array(t_uint256)50_storage"
      }
    ],
    "types": {
      "t_address": {
        "encoding": "inplace",
        "label": "address",
        "numberOfBytes": "20"
      },
      "t_array(t_uint256)44_storage": {
        "base": "t_uint256",
        "encoding": "inplace",
        "label": "uint256[44]",
        "numberOfBytes": "1408"
      },
      "t_array(t_uint256)47_storage": {
        "base": "t_uint256",
        "encoding": "inplace",
        "label": "uint256[47]",
        "numberOfBytes": "1504"
      },
      "t_array(t_uint256)49_storage": {
        "base": "t_uint256",
        "encoding": "inplace",
        "label": "uint256[49]",
        "numberOfBytes": "1568"
      },
      "t_array(t_uint256)50_storage": {
        "base": "t_uint256",
        "encoding": "inplace",
        "label": "uint256[50]",
        "numberOfBytes": "1600"
      },
      "t_bool": {
        "encoding": "inplace",
        "label": "bool",
        "numberOfBytes": "1"
      },
      "t_bytes32": {
        "encoding": "inplace",
        "label": "bytes32",
        "numberOfBytes": "32"
      },
      "t_int256": {
        "encoding": "inplace",
        "label": "int256",
        "numberOfBytes": "32"
      },
      "t_mapping(t_address,t_bool)": {
        "encoding": "mapping",
        "key": "t_address",
        "label": "mapping(address => bool)",
        "numberOfBytes": "32",
        "value": "t_bool"
      },
      "t_mapping(t_address,t_int256)": {
        "encoding": "mapping",
        "key": "t_address",
        "label": "mapping(address => int256)",
        "numberOfBytes": "32",
        "value": "t_int256"
      },
      "t_mapping(t_address,t_mapping(t_address,t_bool))": {
        "encoding": "mapping",
        "key": "t_address",
        "label": "mapping(address => mapping(address => bool))",
        "numberOfBytes": "32",
        "value": "t_mapping(t_address,t_bool)"
      },
      "t_mapping(t_address,t_uint256)": {
        "encoding": "mapping",
        "key": "t_address",
        "label": "mapping(address => uint256)",
        "numberOfBytes": "32",
        "value": "t_uint256"
      },
      "t_mapping(t_bytes32,t_struct(RoleData)81_storage)": {
        "encoding": "mapping",
        "key": "t_bytes32",
        "label": "mapping(bytes32 => struct AccessControlUpgradeable.RoleData)",
        "numberOfBytes": "32",
        "value": "t_struct(RoleData)81_storage"
      },
      "t_mapping(t_uint256,t_address)": {
        "encoding": "mapping",
        "key": "t_uint256",
        "label": "mapping(uint256 => address)",
        "numberOfBytes": "32",
        "value": "t_address"
      },
      "t_mapping(t_uint256,t_mapping(t_address,t_int256))": {
        "encoding": "mapping",
        "key": "t_uint256",
        "label": "mapping(uint256 => mapping(address => int256))",
        "numberOfBytes": "32",
        "value": "t_mapping(t_address,t_int256)"
      },
      "t_mapping(t_uint256,t_mapping(t_address,t_uint256))": {
        "encoding": "mapping",
        "key": "t_uint256",
        "label": "mapping(uint256 => mapping(address => uint256))",
        "numberOfBytes": "32",
        "value": "t_mapping(t_address,t_uint256)"
      },
      "t_mapping(t_uint256,t_struct(DividendTokenData)11441_storage)": {
        "encoding": "mapping",
        "key": "t_uint256",
        "label": "mapping(uint256 => struct ERC1155DividendToken.DividendTokenData)",
        "numberOfBytes": "32",
        "value": "t_struct(DividendTokenData)11441_storage"
      },
      "t_mapping(t_uint256,t_uint256)": {
        "encoding": "mapping",
        "key": "t_uint256",
        "label": "mapping(uint256 => uint256)",
        "numberOfBytes": "32",
        "value": "t_uint256"
      },
      "t_string_storage": {
        "encoding": "bytes",
        "label": "string",
        "numberOfBytes": "32"
      },
      "t_struct(DividendTokenData)11441_storage": {
        "encoding": "inplace",
        "label": "struct ERC1155DividendToken.DividendTokenData",
        "members": [
          {
            "astId": 11424,
            "contract": "contracts/tokens/FundingMultitoken.sol:FundingMultitoken",
            "label": "dividendToken",
            "offset": 0,
            "slot": "0",
            "type": "t_address"
          },
          {
            "astId": 11428,
            "contract": "contracts/tokens/FundingMultitoken.sol:FundingMultitoken",
            "label": "magnifiedDividendPerShare",
            "offset": 0,
            "slot": "1",
            "type": "t_mapping(t_uint256,t_uint256)"
          },
          {
            "astId": 11434,
            "contract": "contracts/tokens/FundingMultitoken.sol:FundingMultitoken",
            "label": "magnifiedDividendCorrections",
            "offset": 0,
            "slot": "2",
            "type": "t_mapping(t_uint256,t_mapping(t_address,t_int256))"
          },
          {
            "astId": 11440,
            "contract": "contracts/tokens/FundingMultitoken.sol:FundingMultitoken",
            "label": "withdrawnDividends",
            "offset": 0,
            "slot": "3",
            "type": "t_mapping(t_uint256,t_mapping(t_address,t_uint256))"
          }
        ],
        "numberOfBytes": "128"
      },
      "t_struct(RoleData)81_storage": {
        "encoding": "inplace",
        "label": "struct AccessControlUpgradeable.RoleData",
        "members": [
          {
            "astId": 78,
            "contract": "contracts/tokens/FundingMultitoken.sol:FundingMultitoken",
            "label": "members",
            "offset": 0,
            "slot": "0",
            "type": "t_mapping(t_address,t_bool)"
          },
          {
            "astId": 80,
            "contract": "contracts/tokens/FundingMultitoken.sol:FundingMultitoken",
            "label": "adminRole",
            "offset": 0,
            "slot": "1",
            "type": "t_bytes32"
          }
        ],
        "numberOfBytes": "64"
      },
      "t_uint256": {
        "encoding": "inplace",
        "label": "uint256",
        "numberOfBytes": "32"
      },
      "t_uint8": {
        "encoding": "inplace",
        "label": "uint8",
        "numberOfBytes": "1"
      }
    }
  }
}