{
  "address": "0xD092dedB3a012B13f139c78D63e29190c9D6A9Ec",
  "abi": [
    {
      "inputs": [
        {
          "internalType": "uint256",
          "name": "_multiplierIntercept",
          "type": "uint256"
        },
        {
          "internalType": "uint256",
          "name": "_multiplierSlope",
          "type": "uint256"
        }
      ],
      "stateMutability": "nonpayable",
      "type": "constructor"
    },
    {
      "inputs": [],
      "name": "PRECISION",
      "outputs": [
        {
          "internalType": "uint256",
          "name": "",
          "type": "uint256"
        }
      ],
      "stateMutability": "view",
      "type": "function"
    },
    {
      "inputs": [
        {
          "internalType": "uint256",
          "name": "depositAmount",
          "type": "uint256"
        },
        {
          "internalType": "uint256",
          "name": "depositPeriodInSeconds",
          "type": "uint256"
        },
        {
          "internalType": "uint256",
          "name": "moneyMarketInterestRatePerSecond",
          "type": "uint256"
        },
        {
          "internalType": "bool",
          "name": "",
          "type": "bool"
        },
        {
          "internalType": "uint256",
          "name": "",
          "type": "uint256"
        }
      ],
      "name": "calculateInterestAmount",
      "outputs": [
        {
          "internalType": "uint256",
          "name": "interestAmount",
          "type": "uint256"
        }
      ],
      "stateMutability": "view",
      "type": "function"
    },
    {
      "inputs": [
        {
          "internalType": "uint256",
          "name": "depositPeriodInSeconds",
          "type": "uint256"
        }
      ],
      "name": "getIRMultiplier",
      "outputs": [
        {
          "internalType": "uint256",
          "name": "",
          "type": "uint256"
        }
      ],
      "stateMutability": "view",
      "type": "function"
    },
    {
      "inputs": [],
      "name": "multiplierIntercept",
      "outputs": [
        {
          "internalType": "uint256",
          "name": "",
          "type": "uint256"
        }
      ],
      "stateMutability": "view",
      "type": "function"
    },
    {
      "inputs": [],
      "name": "multiplierSlope",
      "outputs": [
        {
          "internalType": "uint256",
          "name": "",
          "type": "uint256"
        }
      ],
      "stateMutability": "view",
      "type": "function"
    }
  ],
  "transactionHash": "0xbb3e784876450df41d38242af42f2843e662bff6998ea561c0b1c63009daf6c2",
  "args": [
    "500000000000000000",
    "7922184626"
  ],
  "solcInputHash": "e60ae8ce476666259c0e591d71d287b8",
  "bytecode": "0x608060405234801561001057600080fd5b506040516102dd3803806102dd83398101604081905261002f9161003d565b600091909155600155610060565b6000806040838503121561004f578182fd5b505080516020909101519092909150565b61026e8061006f6000396000f3fe608060405234801561001057600080fd5b50600436106100575760003560e01c806371755d991461005c578063aaf5eb6814610081578063bce606cc14610090578063ca7082b614610099578063d09be34e146100a2575b600080fd5b61006f61006a366004610168565b6100b5565b60405190815260200160405180910390f35b61006f670de0b6b3a764000081565b61006f60005481565b61006f60015481565b61006f6100b0366004610180565b6100f2565b600080600154836100c691906101ec565b905060005481106100db5760009150506100ed565b806000546100e9919061020b565b9150505b919050565b6000670de0b6b3a76400008561012461010a886100b5565b61011e8881670de0b6b3a76400008d6101ec565b90610142565b61012e91906101ec565b61013891906101cc565b9695505050505050565b6000670de0b6b3a764000061015783856101ec565b61016191906101cc565b9392505050565b600060208284031215610179578081fd5b5035919050565b600080600080600060a08688031215610197578081fd5b853594506020860135935060408601359250606086013580151581146101bb578182fd5b949793965091946080013592915050565b6000826101e757634e487b7160e01b81526012600452602481fd5b500490565b600081600019048311821515161561020657610206610222565b500290565b60008282101561021d5761021d610222565b500390565b634e487b7160e01b600052601160045260246000fdfea264697066735822122087582eb86925e3d7adc25560c82add3612d7f66d03cdc53aa399c21ad81d1c2664736f6c63430008030033",
  "devdoc": {
    "kind": "dev",
    "methods": {},
    "version": 1
  },
  "userdoc": {
    "kind": "user",
    "methods": {},
    "version": 1
  },
  "storageLayout": {
    "storage": [
      {
        "astId": 16116,
        "contract": "contracts/models/interest/LinearDecayInterestModel.sol:LinearDecayInterestModel",
        "label": "multiplierIntercept",
        "offset": 0,
        "slot": "0",
        "type": "t_uint256"
      },
      {
        "astId": 16118,
        "contract": "contracts/models/interest/LinearDecayInterestModel.sol:LinearDecayInterestModel",
        "label": "multiplierSlope",
        "offset": 0,
        "slot": "1",
        "type": "t_uint256"
      }
    ],
    "types": {
      "t_uint256": {
        "encoding": "inplace",
        "label": "uint256",
        "numberOfBytes": "32"
      }
    }
  }
}