{
  "address": "0x33eB5925409b3a40bF6D854Bf982E9B8e5740bCe",
  "abi": [
    {
      "inputs": [
        {
          "internalType": "address",
          "name": "",
          "type": "address"
        },
        {
          "internalType": "uint256",
          "name": "",
          "type": "uint256"
        },
        {
          "internalType": "uint256",
          "name": "",
          "type": "uint256"
        },
        {
          "internalType": "uint256",
          "name": "",
          "type": "uint256"
        }
      ],
      "name": "mintDepositorReward",
      "outputs": [
        {
          "internalType": "uint256",
          "name": "",
          "type": "uint256"
        }
      ],
      "stateMutability": "pure",
      "type": "function"
    },
    {
      "inputs": [
        {
          "internalType": "address",
          "name": "",
          "type": "address"
        },
        {
          "internalType": "uint256",
          "name": "",
          "type": "uint256"
        },
        {
          "internalType": "uint256",
          "name": "",
          "type": "uint256"
        },
        {
          "internalType": "uint256",
          "name": "",
          "type": "uint256"
        },
        {
          "internalType": "uint256",
          "name": "",
          "type": "uint256"
        },
        {
          "internalType": "bool",
          "name": "",
          "type": "bool"
        }
      ],
      "name": "mintFunderReward",
      "outputs": [
        {
          "internalType": "uint256",
          "name": "",
          "type": "uint256"
        }
      ],
      "stateMutability": "pure",
      "type": "function"
    },
    {
      "inputs": [
        {
          "internalType": "address",
          "name": "",
          "type": "address"
        },
        {
          "internalType": "uint256",
          "name": "",
          "type": "uint256"
        },
        {
          "internalType": "bool",
          "name": "",
          "type": "bool"
        }
      ],
      "name": "takeBackDepositorReward",
      "outputs": [
        {
          "internalType": "uint256",
          "name": "",
          "type": "uint256"
        }
      ],
      "stateMutability": "pure",
      "type": "function"
    }
  ],
  "transactionHash": "0x5a5b294bdd0fbbb56dcf8931e1eb26780eec3981c68d19ab4ec180b816a2924d",
  "args": [],
  "solcInputHash": "974ab6b6a172ad8b5fa0da26915d674e",
  "bytecode": "0x608060405234801561001057600080fd5b506101cd806100206000396000f3fe608060405234801561001057600080fd5b50600436106100415760003560e01c806326d702111461004657806365c5ea9414610072578063b698bc8614610089575b600080fd5b610060610054366004610140565b60009695505050505050565b60405190815260200160405180910390f35b6100606100803660046100cd565b60009392505050565b610060610097366004610108565b6000949350505050565b80356001600160a01b03811681146100b857600080fd5b919050565b803580151581146100b857600080fd5b6000806000606084860312156100e1578283fd5b6100ea846100a1565b9250602084013591506100ff604085016100bd565b90509250925092565b6000806000806080858703121561011d578081fd5b610126856100a1565b966020860135965060408601359560600135945092505050565b60008060008060008060c08789031215610158578182fd5b610161876100a1565b95506020870135945060408701359350606087013592506080870135915061018b60a088016100bd565b9050929550929550929556fea264697066735822122049dcfea0b94641d5ad8ca35783d2d5494532ba524bf2658e5844cc8062a1236664736f6c63430008030033",
  "devdoc": {
    "kind": "dev",
    "methods": {},
    "title": "Dummy MPHMinter that doesn't mint anything. For legacy support.",
    "version": 1
  },
  "userdoc": {
    "kind": "user",
    "methods": {},
    "version": 1
  },
  "storageLayout": {
    "storage": [],
    "types": null
  }
}