{
  "address": "0xfdB60fF449a73a02681667625819d1F4FC247641",
  "abi": [
    {
      "anonymous": false,
      "inputs": [
        {
          "indexed": true,
          "internalType": "address",
          "name": "sender",
          "type": "address"
        },
        {
          "indexed": true,
          "internalType": "string",
          "name": "paramName",
          "type": "string"
        },
        {
          "indexed": false,
          "internalType": "address",
          "name": "newValue",
          "type": "address"
        }
      ],
      "name": "ESetParamAddress",
      "type": "event"
    },
    {
      "anonymous": false,
      "inputs": [
        {
          "indexed": true,
          "internalType": "address",
          "name": "sender",
          "type": "address"
        },
        {
          "indexed": true,
          "internalType": "address",
          "name": "to",
          "type": "address"
        },
        {
          "indexed": false,
          "internalType": "uint256",
          "name": "depositorReward",
          "type": "uint256"
        }
      ],
      "name": "MintDepositorReward",
      "type": "event"
    },
    {
      "anonymous": false,
      "inputs": [
        {
          "indexed": true,
          "internalType": "address",
          "name": "sender",
          "type": "address"
        },
        {
          "indexed": true,
          "internalType": "address",
          "name": "to",
          "type": "address"
        },
        {
          "indexed": false,
          "internalType": "uint256",
          "name": "funderReward",
          "type": "uint256"
        }
      ],
      "name": "MintFunderReward",
      "type": "event"
    },
    {
      "anonymous": false,
      "inputs": [
        {
          "indexed": true,
          "internalType": "bytes32",
          "name": "role",
          "type": "bytes32"
        },
        {
          "indexed": true,
          "internalType": "bytes32",
          "name": "previousAdminRole",
          "type": "bytes32"
        },
        {
          "indexed": true,
          "internalType": "bytes32",
          "name": "newAdminRole",
          "type": "bytes32"
        }
      ],
      "name": "RoleAdminChanged",
      "type": "event"
    },
    {
      "anonymous": false,
      "inputs": [
        {
          "indexed": true,
          "internalType": "bytes32",
          "name": "role",
          "type": "bytes32"
        },
        {
          "indexed": true,
          "internalType": "address",
          "name": "account",
          "type": "address"
        },
        {
          "indexed": true,
          "internalType": "address",
          "name": "sender",
          "type": "address"
        }
      ],
      "name": "RoleGranted",
      "type": "event"
    },
    {
      "anonymous": false,
      "inputs": [
        {
          "indexed": true,
          "internalType": "bytes32",
          "name": "role",
          "type": "bytes32"
        },
        {
          "indexed": true,
          "internalType": "address",
          "name": "account",
          "type": "address"
        },
        {
          "indexed": true,
          "internalType": "address",
          "name": "sender",
          "type": "address"
        }
      ],
      "name": "RoleRevoked",
      "type": "event"
    },
    {
      "anonymous": false,
      "inputs": [
        {
          "indexed": true,
          "internalType": "address",
          "name": "sender",
          "type": "address"
        },
        {
          "indexed": true,
          "internalType": "address",
          "name": "from",
          "type": "address"
        },
        {
          "indexed": false,
          "internalType": "uint256",
          "name": "takeBackAmount",
          "type": "uint256"
        }
      ],
      "name": "TakeBackDepositorReward",
      "type": "event"
    },
    {
      "inputs": [],
      "name": "DEFAULT_ADMIN_ROLE",
      "outputs": [
        {
          "internalType": "bytes32",
          "name": "",
          "type": "bytes32"
        }
      ],
      "stateMutability": "view",
      "type": "function"
    },
    {
      "inputs": [],
      "name": "WHITELISTED_POOL_ROLE",
      "outputs": [
        {
          "internalType": "bytes32",
          "name": "",
          "type": "bytes32"
        }
      ],
      "stateMutability": "view",
      "type": "function"
    },
    {
      "inputs": [],
      "name": "WHITELISTER_ROLE",
      "outputs": [
        {
          "internalType": "bytes32",
          "name": "",
          "type": "bytes32"
        }
      ],
      "stateMutability": "view",
      "type": "function"
    },
    {
      "inputs": [
        {
          "internalType": "address",
          "name": "account",
          "type": "address"
        },
        {
          "internalType": "uint64",
          "name": "depositID",
          "type": "uint64"
        }
      ],
      "name": "createVestForDeposit",
      "outputs": [],
      "stateMutability": "nonpayable",
      "type": "function"
    },
    {
      "inputs": [],
      "name": "devWallet",
      "outputs": [
        {
          "internalType": "address",
          "name": "",
          "type": "address"
        }
      ],
      "stateMutability": "view",
      "type": "function"
    },
    {
      "inputs": [
        {
          "internalType": "uint64",
          "name": "fundingID",
          "type": "uint64"
        },
        {
          "internalType": "uint256",
          "name": "interestAmount",
          "type": "uint256"
        }
      ],
      "name": "distributeFundingRewards",
      "outputs": [],
      "stateMutability": "nonpayable",
      "type": "function"
    },
    {
      "inputs": [
        {
          "internalType": "bytes32",
          "name": "role",
          "type": "bytes32"
        }
      ],
      "name": "getRoleAdmin",
      "outputs": [
        {
          "internalType": "bytes32",
          "name": "",
          "type": "bytes32"
        }
      ],
      "stateMutability": "view",
      "type": "function"
    },
    {
      "inputs": [],
      "name": "govTreasury",
      "outputs": [
        {
          "internalType": "address",
          "name": "",
          "type": "address"
        }
      ],
      "stateMutability": "view",
      "type": "function"
    },
    {
      "inputs": [
        {
          "internalType": "bytes32",
          "name": "role",
          "type": "bytes32"
        },
        {
          "internalType": "address",
          "name": "account",
          "type": "address"
        }
      ],
      "name": "grantRole",
      "outputs": [],
      "stateMutability": "nonpayable",
      "type": "function"
    },
    {
      "inputs": [
        {
          "internalType": "bytes32",
          "name": "role",
          "type": "bytes32"
        },
        {
          "internalType": "address",
          "name": "account",
          "type": "address"
        }
      ],
      "name": "hasRole",
      "outputs": [
        {
          "internalType": "bool",
          "name": "",
          "type": "bool"
        }
      ],
      "stateMutability": "view",
      "type": "function"
    },
    {
      "inputs": [
        {
          "internalType": "address",
          "name": "_mph",
          "type": "address"
        },
        {
          "internalType": "address",
          "name": "_govTreasury",
          "type": "address"
        },
        {
          "internalType": "address",
          "name": "_devWallet",
          "type": "address"
        },
        {
          "internalType": "address",
          "name": "_issuanceModel",
          "type": "address"
        },
        {
          "internalType": "address",
          "name": "_vesting",
          "type": "address"
        },
        {
          "internalType": "address",
          "name": "_vesting02",
          "type": "address"
        }
      ],
      "name": "initialize",
      "outputs": [],
      "stateMutability": "nonpayable",
      "type": "function"
    },
    {
      "inputs": [],
      "name": "issuanceModel",
      "outputs": [
        {
          "internalType": "contract IMPHIssuanceModel",
          "name": "",
          "type": "address"
        }
      ],
      "stateMutability": "view",
      "type": "function"
    },
    {
      "inputs": [
        {
          "internalType": "address",
          "name": "to",
          "type": "address"
        },
        {
          "internalType": "uint256",
          "name": "depositAmount",
          "type": "uint256"
        },
        {
          "internalType": "uint256",
          "name": "depositPeriodInSeconds",
          "type": "uint256"
        },
        {
          "internalType": "uint256",
          "name": "interestAmount",
          "type": "uint256"
        }
      ],
      "name": "mintDepositorReward",
      "outputs": [
        {
          "internalType": "uint256",
          "name": "",
          "type": "uint256"
        }
      ],
      "stateMutability": "nonpayable",
      "type": "function"
    },
    {
      "inputs": [
        {
          "internalType": "address",
          "name": "to",
          "type": "address"
        },
        {
          "internalType": "uint256",
          "name": "depositAmount",
          "type": "uint256"
        },
        {
          "internalType": "uint256",
          "name": "fundingCreationTimestamp",
          "type": "uint256"
        },
        {
          "internalType": "uint64",
          "name": "maturationTimestamp",
          "type": "uint64"
        },
        {
          "internalType": "uint256",
          "name": "interestPayoutAmount",
          "type": "uint256"
        },
        {
          "internalType": "bool",
          "name": "early",
          "type": "bool"
        }
      ],
      "name": "mintFunderReward",
      "outputs": [
        {
          "internalType": "uint256",
          "name": "",
          "type": "uint256"
        }
      ],
      "stateMutability": "nonpayable",
      "type": "function"
    },
    {
      "inputs": [
        {
          "internalType": "address",
          "name": "account",
          "type": "address"
        },
        {
          "internalType": "uint256",
          "name": "amount",
          "type": "uint256"
        }
      ],
      "name": "mintVested",
      "outputs": [
        {
          "internalType": "uint256",
          "name": "mintedAmount",
          "type": "uint256"
        }
      ],
      "stateMutability": "nonpayable",
      "type": "function"
    },
    {
      "inputs": [],
      "name": "mph",
      "outputs": [
        {
          "internalType": "contract MPHToken",
          "name": "",
          "type": "address"
        }
      ],
      "stateMutability": "view",
      "type": "function"
    },
    {
      "inputs": [
        {
          "internalType": "bytes32",
          "name": "role",
          "type": "bytes32"
        },
        {
          "internalType": "address",
          "name": "account",
          "type": "address"
        }
      ],
      "name": "renounceRole",
      "outputs": [],
      "stateMutability": "nonpayable",
      "type": "function"
    },
    {
      "inputs": [
        {
          "internalType": "bytes32",
          "name": "role",
          "type": "bytes32"
        },
        {
          "internalType": "address",
          "name": "account",
          "type": "address"
        }
      ],
      "name": "revokeRole",
      "outputs": [],
      "stateMutability": "nonpayable",
      "type": "function"
    },
    {
      "inputs": [
        {
          "internalType": "address",
          "name": "newValue",
          "type": "address"
        }
      ],
      "name": "setDevWallet",
      "outputs": [],
      "stateMutability": "nonpayable",
      "type": "function"
    },
    {
      "inputs": [
        {
          "internalType": "address",
          "name": "newValue",
          "type": "address"
        }
      ],
      "name": "setGovTreasury",
      "outputs": [],
      "stateMutability": "nonpayable",
      "type": "function"
    },
    {
      "inputs": [
        {
          "internalType": "address",
          "name": "newValue",
          "type": "address"
        }
      ],
      "name": "setIssuanceModel",
      "outputs": [],
      "stateMutability": "nonpayable",
      "type": "function"
    },
    {
      "inputs": [
        {
          "internalType": "address",
          "name": "newValue",
          "type": "address"
        }
      ],
      "name": "setMPHTokenOwner",
      "outputs": [],
      "stateMutability": "nonpayable",
      "type": "function"
    },
    {
      "inputs": [],
      "name": "setMPHTokenOwnerToZero",
      "outputs": [],
      "stateMutability": "nonpayable",
      "type": "function"
    },
    {
      "inputs": [
        {
          "internalType": "address",
          "name": "newValue",
          "type": "address"
        }
      ],
      "name": "setVesting",
      "outputs": [],
      "stateMutability": "nonpayable",
      "type": "function"
    },
    {
      "inputs": [
        {
          "internalType": "address",
          "name": "newValue",
          "type": "address"
        }
      ],
      "name": "setVesting02",
      "outputs": [],
      "stateMutability": "nonpayable",
      "type": "function"
    },
    {
      "inputs": [
        {
          "internalType": "bytes4",
          "name": "interfaceId",
          "type": "bytes4"
        }
      ],
      "name": "supportsInterface",
      "outputs": [
        {
          "internalType": "bool",
          "name": "",
          "type": "bool"
        }
      ],
      "stateMutability": "view",
      "type": "function"
    },
    {
      "inputs": [
        {
          "internalType": "address",
          "name": "from",
          "type": "address"
        },
        {
          "internalType": "uint256",
          "name": "mintMPHAmount",
          "type": "uint256"
        },
        {
          "internalType": "bool",
          "name": "early",
          "type": "bool"
        }
      ],
      "name": "takeBackDepositorReward",
      "outputs": [
        {
          "internalType": "uint256",
          "name": "",
          "type": "uint256"
        }
      ],
      "stateMutability": "nonpayable",
      "type": "function"
    },
    {
      "inputs": [
        {
          "internalType": "uint64",
          "name": "depositID",
          "type": "uint64"
        },
        {
          "internalType": "uint256",
          "name": "currentDepositAmount",
          "type": "uint256"
        },
        {
          "internalType": "uint256",
          "name": "depositAmount",
          "type": "uint256"
        }
      ],
      "name": "updateVestForDeposit",
      "outputs": [],
      "stateMutability": "nonpayable",
      "type": "function"
    },
    {
      "inputs": [],
      "name": "vesting",
      "outputs": [
        {
          "internalType": "contract Vesting",
          "name": "",
          "type": "address"
        }
      ],
      "stateMutability": "view",
      "type": "function"
    },
    {
      "inputs": [],
      "name": "vesting02",
      "outputs": [
        {
          "internalType": "contract Vesting02",
          "name": "",
          "type": "address"
        }
      ],
      "stateMutability": "view",
      "type": "function"
    }
  ],
  "transactionHash": "0x9297bfc6d3f501b87d3380bfd754654770308fe043831048dc61bec8488e9d71",
  "args": [],
  "solcInputHash": "e60ae8ce476666259c0e591d71d287b8",
  "bytecode": "0x608060405234801561001057600080fd5b50612ca7806100206000396000f3fe608060405234801561001057600080fd5b50600436106101da5760003560e01c806365f5275a1161010457806391d14854116100a2578063b698bc8611610071578063b698bc861461041a578063cc2a9a5b1461042d578063d547741f14610440578063ff12673a14610453576101da565b806391d14854146103d957806393320226146103ec578063a217fddf146103ff578063abd1ebda14610407576101da565b8063780e2190116100de578063780e21901461038d57806388a42f22146103a05780638c65a588146103b35780638ea5220f146103c6576101da565b806365f5275a146103545780636f6ff3bc14610367578063747942141461037a576101da565b80632cba80501161017c5780634898328e1161014b5780634898328e146102fd578063570618e1146103125780635ba4106a1461033957806365c5ea9414610341576101da565b80632cba8050146102b15780632f2ff15d146102c457806336568abe146102d757806344c63eec146102ea576101da565b80631f53ac02116101b85780631f53ac021461022f57806320205e0a146102425780632304aa6114610255578063248a9ca314610280576101da565b806301ffc9a7146101df57806305f3c6ad146102075780631a3ee6b11461021c575b600080fd5b6101f26101ed366004612903565b610466565b60405190151581526020015b60405180910390f35b61021a6102153660046126bc565b61049d565b005b61021a61022a366004612873565b610555565b61021a61023d3660046126bc565b610698565b61021a6102503660046126bc565b6106ff565b609754610268906001600160a01b031681565b6040516001600160a01b0390911681526020016101fe565b6102a361028e3660046128c7565b60009081526065602052604090206001015490565b6040519081526020016101fe565b61021a6102bf3660046126bc565b610767565b61021a6102d23660046128df565b6107d3565b61021a6102e53660046128df565b6107fe565b609b54610268906001600160a01b031681565b6102a3600080516020612c5283398151915281565b6102a37f8619cecd8b9e095ab43867f5b69d492180450fe862e6b50bfbfb24b75dd84c8a81565b61021a61087c565b6102a361034f3660046127a0565b610950565b60c954610268906001600160a01b031681565b61021a6103753660046126bc565b610d17565b6102a3610388366004612775565b610d7d565b609a54610268906001600160a01b031681565b61021a6103ae3660046129a9565b610efe565b61021a6103c13660046126bc565b61102a565b609954610268906001600160a01b031681565b6101f26103e73660046128df565b6110db565b61021a6103fa36600461298c565b611106565b6102a3600081565b6102a361041536600461281b565b611449565b6102a36104283660046127e1565b611a30565b61021a61043b3660046126f4565b611eee565b61021a61044e3660046128df565b611f6e565b609854610268906001600160a01b031681565b60006001600160e01b03198216637965db0b60e01b148061049757506301ffc9a760e01b6001600160e01b03198316145b92915050565b60006104aa81335b611f94565b6001600160a01b0382166104d95760405162461bcd60e51b81526004016104d090612ad5565b60405180910390fd5b609880546001600160a01b0319166001600160a01b0384161790556040516a676f76547265617375727960a81b8152600b015b6040519081900381206001600160a01b03841682529033907f64b03eb8356730cffd396927eec0e9b1e0599498960e022df3dae35791c17cf59060200160405180910390a35050565b600080516020612c5283398151915261056e81336104a5565b60c954609a5460405163a4a6b0c360e01b815233600482018190526001600160a01b0393841693638185772193889388929091169063a4a6b0c39060240160206040518083038186803b1580156105c457600080fd5b505afa1580156105d8573d6000803e3d6000fd5b505050506040513d601f19601f820116820180604052508101906105fc919061292b565b6040516001600160e01b031960e087901b1681526001600160a01b03948516600482015293909216602484015267ffffffffffffffff1660448301526064820152608401602060405180830381600087803b15801561065a57600080fd5b505af115801561066e573d6000803e3d6000fd5b505050506040513d601f19601f820116820180604052508101906106929190612970565b50505050565b60006106a481336104a5565b6001600160a01b0382166106ca5760405162461bcd60e51b81526004016104d090612ad5565b609980546001600160a01b0319166001600160a01b0384161790556040516819195d95d85b1b195d60ba1b815260090161050c565b600061070b81336104a5565b6001600160a01b0382163b6107325760405162461bcd60e51b81526004016104d090612a9e565b60c980546001600160a01b0319166001600160a01b038416179055604051683b32b9ba34b733981960b91b815260090161050c565b600061077381336104a5565b6001600160a01b0382163b61079a5760405162461bcd60e51b81526004016104d090612a9e565b609a80546001600160a01b0319166001600160a01b0384161790556040516c1a5cdcdd585b98d9535bd9195b609a1b8152600d0161050c565b6000828152606560205260409020600101546107ef81336104a5565b6107f98383611ff8565b505050565b6001600160a01b038116331461086e5760405162461bcd60e51b815260206004820152602f60248201527f416363657373436f6e74726f6c3a2063616e206f6e6c792072656e6f756e636560448201526e103937b632b9903337b91039b2b63360891b60648201526084016104d0565b610878828261207e565b5050565b600061088881336104a5565b609760009054906101000a90046001600160a01b03166001600160a01b031663715018a66040518163ffffffff1660e01b8152600401600060405180830381600087803b1580156108d857600080fd5b505af11580156108ec573d6000803e3d6000fd5b50505050604051610910906c36b8342a37b5b2b727bbb732b960991b8152600d0190565b604051908190038120600082529033907f64b03eb8356730cffd396927eec0e9b1e0599498960e022df3dae35791c17cf59060200160405180910390a350565b6000600080516020612c5283398151915261096b81336104a5565b609a54604051630243810560e61b8152600481018690528415156024820152600091829182916001600160a01b0316906390e041409060440160606040518083038186803b1580156109bc57600080fd5b505afa1580156109d0573d6000803e3d6000fd5b505050506040513d601f19601f820116820180604052508101906109f49190612943565b925092509250826000148015610a08575081155b8015610a12575080155b15610a235760009450505050610d0f565b610a2d8183612b51565b831015610a965760405162461bcd60e51b815260206004820152603160248201527f4d50484d696e7465723a2074616b654261636b416d6f756e74203c2064657652604482015270195dd85c99080ac819dbdd94995dd85c99607a1b60648201526084016104d0565b8215610b2a576097546040516323b872dd60e01b81526001600160a01b038a8116600483015230602483015260448201869052909116906323b872dd90606401602060405180830381600087803b158015610af057600080fd5b505af1158015610b04573d6000803e3d6000fd5b505050506040513d601f19601f82011682018060405250810190610b2891906128ab565b505b8115610bba5760975460995460405163a9059cbb60e01b81526001600160a01b039283169263a9059cbb92610b66929116908690600401612a52565b602060405180830381600087803b158015610b8057600080fd5b505af1158015610b94573d6000803e3d6000fd5b505050506040513d601f19601f82011682018060405250810190610bb891906128ab565b505b8015610c4a5760975460985460405163a9059cbb60e01b81526001600160a01b039283169263a9059cbb92610bf6929116908590600401612a52565b602060405180830381600087803b158015610c1057600080fd5b505af1158015610c24573d6000803e3d6000fd5b505050506040513d601f19601f82011682018060405250810190610c4891906128ab565b505b600081610c578486612ba8565b610c619190612ba8565b90508015610cc857609754604051630852cd8d60e31b8152600481018390526001600160a01b03909116906342966c6890602401600060405180830381600087803b158015610caf57600080fd5b505af1158015610cc3573d6000803e3d6000fd5b505050505b6040518481526001600160a01b038a169033907f2a4031f1dba0999413c3353ef734f98a377ecca64ba5fb8ad571363a468719849060200160405180910390a35091935050505b509392505050565b6000610d2381336104a5565b6001600160a01b0382163b610d4a5760405162461bcd60e51b81526004016104d090612a9e565b609b80546001600160a01b0319166001600160a01b0384161790556040516676657374696e6760c81b815260070161050c565b60c9546000906001600160a01b03163314610dda5760405162461bcd60e51b815260206004820152601860248201527f4d50484d696e7465723a206e6f742076657374696e673032000000000000000060448201526064016104d0565b60975460408051638da5cb5b60e01b8152905130926001600160a01b031691638da5cb5b916004808301926020929190829003018186803b158015610e1e57600080fd5b505afa158015610e32573d6000803e3d6000fd5b505050506040513d601f19601f82011682018060405250810190610e5691906126d8565b6001600160a01b031614610e6c57506000610497565b8115610ef857609754604051631212e5cf60e21b81526001600160a01b039091169063484b973c90610ea49086908690600401612a52565b602060405180830381600087803b158015610ebe57600080fd5b505af1158015610ed2573d6000803e3d6000fd5b505050506040513d601f19601f82011682018060405250810190610ef691906128ab565b505b50919050565b600080516020612c52833981519152610f1781336104a5565b60c954609a5460405163a4a6b0c360e01b815233600482018190526001600160a01b0393841693634b0f59da93919289928992899291169063a4a6b0c39060240160206040518083038186803b158015610f7057600080fd5b505afa158015610f84573d6000803e3d6000fd5b505050506040513d601f19601f82011682018060405250810190610fa8919061292b565b6040516001600160e01b031960e088901b1681526001600160a01b03909516600486015267ffffffffffffffff909316602485015260448401919091526064830152608482015260a401600060405180830381600087803b15801561100c57600080fd5b505af1158015611020573d6000803e3d6000fd5b5050505050505050565b600061103681336104a5565b6001600160a01b03821661105c5760405162461bcd60e51b81526004016104d090612ad5565b60975460405163f2fde38b60e01b81526001600160a01b0384811660048301529091169063f2fde38b90602401600060405180830381600087803b1580156110a357600080fd5b505af11580156110b7573d6000803e3d6000fd5b5050505060405161050c906c36b8342a37b5b2b727bbb732b960991b8152600d0190565b60009182526065602090815260408084206001600160a01b0393909316845291905290205460ff1690565b600080516020612c5283398151915261111f81336104a5565b8115806111af575060975460408051638da5cb5b60e01b8152905130926001600160a01b031691638da5cb5b916004808301926020929190829003018186803b15801561116b57600080fd5b505afa15801561117f573d6000803e3d6000fd5b505050506040513d601f19601f820116820180604052508101906111a391906126d8565b6001600160a01b031614155b156111b9576107f9565b609a54604051628b3fe360e21b8152336004820152600091611241916001600160a01b039091169063022cff8c9060240160206040518083038186803b15801561120257600080fd5b505afa158015611216573d6000803e3d6000fd5b505050506040513d601f19601f8201168201806040525081019061123a919061292b565b84906120e5565b90508061124e57506107f9565b6000336001600160a01b0316635dc05d7f6040518163ffffffff1660e01b815260040160206040518083038186803b15801561128957600080fd5b505afa15801561129d573d6000803e3d6000fd5b505050506040513d601f19601f820116820180604052508101906112c191906126d8565b609754604051631212e5cf60e21b81529192506001600160a01b03169063484b973c906112f49030908690600401612a52565b602060405180830381600087803b15801561130e57600080fd5b505af1158015611322573d6000803e3d6000fd5b505050506040513d601f19601f8201168201806040525081019061134691906128ab565b50609754604051633950935160e01b81526001600160a01b03909116906339509351906113799084908690600401612a52565b602060405180830381600087803b15801561139357600080fd5b505af11580156113a7573d6000803e3d6000fd5b505050506040513d601f19601f820116820180604052508101906113cb91906128ab565b506097546040516316f6849d60e31b815267ffffffffffffffff871660048201526001600160a01b039182166024820152604481018490529082169063b7b424e890606401600060405180830381600087803b15801561142a57600080fd5b505af115801561143e573d6000803e3d6000fd5b505050505050505050565b6000600080516020612c5283398151915261146481336104a5565b60975460408051638da5cb5b60e01b8152905130926001600160a01b031691638da5cb5b916004808301926020929190829003018186803b1580156114a857600080fd5b505afa1580156114bc573d6000803e3d6000fd5b505050506040513d601f19601f820116820180604052508101906114e091906126d8565b6001600160a01b03161461153857604051600081526001600160a01b0389169033907f8470ffe62d01bbd3da3613a0ca568a59e55b5a5730b74902038057d76b17d85c9060200160405180910390a360009150611a25565b609a5460405163f422eb9160e01b8152336004820152602481018990526044810188905267ffffffffffffffff871660648201528415156084820152600091829182916001600160a01b03169063f422eb919060a40160606040518083038186803b1580156115a657600080fd5b505afa1580156115ba573d6000803e3d6000fd5b505050506040513d601f19601f820116820180604052508101906115de9190612943565b9250925092508260001480156115f2575081155b80156115fc575080155b1561160d5760009450505050611a25565b82156118bf57609754604051631212e5cf60e21b81526001600160a01b039091169063484b973c906116459030908790600401612a52565b602060405180830381600087803b15801561165f57600080fd5b505af1158015611673573d6000803e3d6000fd5b505050506040513d601f19601f8201168201806040525081019061169791906128ab565b50609a5460405163f3eaeb2f60e01b81523360048201526000916001600160a01b03169063f3eaeb2f9060240160206040518083038186803b1580156116dc57600080fd5b505afa1580156116f0573d6000803e3d6000fd5b505050506040513d601f19601f82011682018060405250810190611714919061292b565b9050806117a55760975460405163a9059cbb60e01b81526001600160a01b039091169063a9059cbb9061174d908f908890600401612a52565b602060405180830381600087803b15801561176757600080fd5b505af115801561177b573d6000803e3d6000fd5b505050506040513d601f19601f8201168201806040525081019061179f91906128ab565b506118bd565b609754609b54604051633950935160e01b81526001600160a01b03928316926339509351926117db929116908890600401612a52565b602060405180830381600087803b1580156117f557600080fd5b505af1158015611809573d6000803e3d6000fd5b505050506040513d601f19601f8201168201806040525081019061182d91906128ab565b50609b546040516302546de160e41b81526001600160a01b038e81166004830152602482018790526044820184905290911690632546de1090606401602060405180830381600087803b15801561188357600080fd5b505af1158015611897573d6000803e3d6000fd5b505050506040513d601f19601f820116820180604052508101906118bb919061292b565b505b505b811561194f57609754609954604051631212e5cf60e21b81526001600160a01b039283169263484b973c926118fb929116908690600401612a52565b602060405180830381600087803b15801561191557600080fd5b505af1158015611929573d6000803e3d6000fd5b505050506040513d601f19601f8201168201806040525081019061194d91906128ab565b505b80156119df57609754609854604051631212e5cf60e21b81526001600160a01b039283169263484b973c9261198b929116908590600401612a52565b602060405180830381600087803b1580156119a557600080fd5b505af11580156119b9573d6000803e3d6000fd5b505050506040513d601f19601f820116820180604052508101906119dd91906128ab565b505b6040518381526001600160a01b038c169033907f6814fdc7e44c7ca332752017eb98f9f3c76906682cbcb81cb9a712ad3c87dc719060200160405180910390a350909250505b509695505050505050565b6000600080516020612c52833981519152611a4b81336104a5565b60975460408051638da5cb5b60e01b8152905130926001600160a01b031691638da5cb5b916004808301926020929190829003018186803b158015611a8f57600080fd5b505afa158015611aa3573d6000803e3d6000fd5b505050506040513d601f19601f82011682018060405250810190611ac791906126d8565b6001600160a01b031614611b1f57604051600081526001600160a01b0387169033907f8470ffe62d01bbd3da3613a0ca568a59e55b5a5730b74902038057d76b17d85c9060200160405180910390a360009150611ee5565b609a5460405163d2a974db60e01b81523360048201526024810187905260448101869052600091829182916001600160a01b03169063d2a974db9060640160606040518083038186803b158015611b7557600080fd5b505afa158015611b89573d6000803e3d6000fd5b505050506040513d601f19601f82011682018060405250810190611bad9190612943565b925092509250826000148015611bc1575081155b8015611bcb575080155b15611bdc5760009450505050611ee5565b8215611d7f57609754604051631212e5cf60e21b81526001600160a01b039091169063484b973c90611c149030908790600401612a52565b602060405180830381600087803b158015611c2e57600080fd5b505af1158015611c42573d6000803e3d6000fd5b505050506040513d601f19601f82011682018060405250810190611c6691906128ab565b50609754609b54604051633950935160e01b81526001600160a01b0392831692633950935192611c9d929116908790600401612a52565b602060405180830381600087803b158015611cb757600080fd5b505af1158015611ccb573d6000803e3d6000fd5b505050506040513d601f19601f82011682018060405250810190611cef91906128ab565b50609b546040516302546de160e41b81526001600160a01b038b8116600483015260248201869052604482018a905290911690632546de1090606401602060405180830381600087803b158015611d4557600080fd5b505af1158015611d59573d6000803e3d6000fd5b505050506040513d601f19601f82011682018060405250810190611d7d919061292b565b505b8115611e0f57609754609954604051631212e5cf60e21b81526001600160a01b039283169263484b973c92611dbb929116908690600401612a52565b602060405180830381600087803b158015611dd557600080fd5b505af1158015611de9573d6000803e3d6000fd5b505050506040513d601f19601f82011682018060405250810190611e0d91906128ab565b505b8015611e9f57609754609854604051631212e5cf60e21b81526001600160a01b039283169263484b973c92611e4b929116908590600401612a52565b602060405180830381600087803b158015611e6557600080fd5b505af1158015611e79573d6000803e3d6000fd5b505050506040513d601f19601f82011682018060405250810190611e9d91906128ab565b505b6040518381526001600160a01b038a169033907f8470ffe62d01bbd3da3613a0ca568a59e55b5a5730b74902038057d76b17d85c9060200160405180910390a350909250505b50949350505050565b600054610100900460ff1680611f07575060005460ff16155b611f235760405162461bcd60e51b81526004016104d090612b03565b600054610100900460ff16158015611f45576000805461ffff19166101011790555b611f5387878787878761210b565b8015611f65576000805461ff00191690555b50505050505050565b600082815260656020526040902060010154611f8a81336104a5565b6107f9838361207e565b611f9e82826110db565b61087857611fb6816001600160a01b03166014612178565b611fc1836020612178565b604051602001611fd29291906129dd565b60408051601f198184030181529082905262461bcd60e51b82526104d091600401612a6b565b61200282826110db565b6108785760008281526065602090815260408083206001600160a01b03851684529091529020805460ff1916600117905561203a3390565b6001600160a01b0316816001600160a01b0316837f2f8788117e7eff1d82e926ec794901d17c78024a50270940304540a733656f0d60405160405180910390a45050565b61208882826110db565b156108785760008281526065602090815260408083206001600160a01b0385168085529252808320805460ff1916905551339285917ff6391f5c32d9c69d2a47ea670b442974b53935d1edc7fd64eb21e047a839171b9190a45050565b6000670de0b6b3a76400006120fa8385612b89565b6121049190612b69565b9392505050565b600054610100900460ff1680612124575060005460ff16155b6121405760405162461bcd60e51b81526004016104d090612b03565b600054610100900460ff16158015612162576000805461ffff19166101011790555b61216f878787878761235a565b611f53826123e0565b60606000612187836002612b89565b612192906002612b51565b67ffffffffffffffff8111156121b857634e487b7160e01b600052604160045260246000fd5b6040519080825280601f01601f1916602001820160405280156121e2576020820181803683370190505b509050600360fc1b8160008151811061220b57634e487b7160e01b600052603260045260246000fd5b60200101906001600160f81b031916908160001a905350600f60fb1b8160018151811061224857634e487b7160e01b600052603260045260246000fd5b60200101906001600160f81b031916908160001a905350600061226c846002612b89565b612277906001612b51565b90505b600181111561230b576f181899199a1a9b1b9c1cb0b131b232b360811b85600f16601081106122b957634e487b7160e01b600052603260045260246000fd5b1a60f81b8282815181106122dd57634e487b7160e01b600052603260045260246000fd5b60200101906001600160f81b031916908160001a90535060049490941c9361230481612beb565b905061227a565b5083156121045760405162461bcd60e51b815260206004820181905260248201527f537472696e67733a20686578206c656e67746820696e73756666696369656e7460448201526064016104d0565b600054610100900460ff1680612373575060005460ff16155b61238f5760405162461bcd60e51b81526004016104d090612b03565b600054610100900460ff161580156123b1576000805461ffff19166101011790555b6123b9612467565b6123c686868686866124eb565b80156123d8576000805461ff00191690555b505050505050565b600054610100900460ff16806123f9575060005460ff16155b6124155760405162461bcd60e51b81526004016104d090612b03565b600054610100900460ff16158015612437576000805461ffff19166101011790555b60c980546001600160a01b0319166001600160a01b0384161790558015610878576000805461ff00191690555050565b600054610100900460ff1680612480575060005460ff16155b61249c5760405162461bcd60e51b81526004016104d090612b03565b600054610100900460ff161580156124be576000805461ffff19166101011790555b6124c66125f4565b6124ce6125f4565b6124d66125f4565b80156124e8576000805461ff00191690555b50565b600054610100900460ff1680612504575060005460ff16155b6125205760405162461bcd60e51b81526004016104d090612b03565b600054610100900460ff16158015612542576000805461ffff19166101011790555b61254d60003361265e565b612585600080516020612c528339815191527f8619cecd8b9e095ab43867f5b69d492180450fe862e6b50bfbfb24b75dd84c8a612668565b609780546001600160a01b03199081166001600160a01b0389811691909117909255609880548216888416179055609980548216878416179055609a80548216868416179055609b805490911691841691909117905580156123d8576000805461ff0019169055505050505050565b600054610100900460ff168061260d575060005460ff16155b6126295760405162461bcd60e51b81526004016104d090612b03565b600054610100900460ff161580156124d6576000805461ffff191661010117905580156124e8576000805461ff001916905550565b6108788282611ff8565b600082815260656020526040902060010154819060405184907fbd79b86ffe0ab8e8776151514217cd7cacd52c909f66475c3af44e129f0b00ff90600090a460009182526065602052604090912060010155565b6000602082840312156126cd578081fd5b813561210481612c18565b6000602082840312156126e9578081fd5b815161210481612c18565b60008060008060008060c0878903121561270c578182fd5b863561271781612c18565b9550602087013561272781612c18565b9450604087013561273781612c18565b9350606087013561274781612c18565b9250608087013561275781612c18565b915060a087013561276781612c18565b809150509295509295509295565b60008060408385031215612787578182fd5b823561279281612c18565b946020939093013593505050565b6000806000606084860312156127b4578283fd5b83356127bf81612c18565b92506020840135915060408401356127d681612c2d565b809150509250925092565b600080600080608085870312156127f6578384fd5b843561280181612c18565b966020860135965060408601359560600135945092505050565b60008060008060008060c08789031215612833578182fd5b863561283e81612c18565b95506020870135945060408701359350606087013561285c81612c3b565b92506080870135915060a087013561276781612c2d565b60008060408385031215612885578182fd5b823561289081612c18565b915060208301356128a081612c3b565b809150509250929050565b6000602082840312156128bc578081fd5b815161210481612c2d565b6000602082840312156128d8578081fd5b5035919050565b600080604083850312156128f1578081fd5b8235915060208301356128a081612c18565b600060208284031215612914578081fd5b81356001600160e01b031981168114612104578182fd5b60006020828403121561293c578081fd5b5051919050565b600080600060608486031215612957578081fd5b8351925060208401519150604084015190509250925092565b600060208284031215612981578081fd5b815161210481612c3b565b6000806040838503121561299e578182fd5b823561279281612c3b565b6000806000606084860312156129bd578081fd5b83356129c881612c3b565b95602085013595506040909401359392505050565b60007f416363657373436f6e74726f6c3a206163636f756e742000000000000000000082528351612a15816017850160208801612bbf565b7001034b99036b4b9b9b4b733903937b6329607d1b6017918401918201528351612a46816028840160208801612bbf565b01602801949350505050565b6001600160a01b03929092168252602082015260400190565b6000602082528251806020840152612a8a816040850160208701612bbf565b601f01601f19169190910160400192915050565b60208082526017908201527f4d50484d696e7465723a206e6f7420636f6e7472616374000000000000000000604082015260600190565b6020808252601490820152734d50484d696e7465723a2030206164647265737360601b604082015260600190565b6020808252602e908201527f496e697469616c697a61626c653a20636f6e747261637420697320616c72656160408201526d191e481a5b9a5d1a585b1a5e995960921b606082015260800190565b60008219821115612b6457612b64612c02565b500190565b600082612b8457634e487b7160e01b81526012600452602481fd5b500490565b6000816000190483118215151615612ba357612ba3612c02565b500290565b600082821015612bba57612bba612c02565b500390565b60005b83811015612bda578181015183820152602001612bc2565b838111156106925750506000910152565b600081612bfa57612bfa612c02565b506000190190565b634e487b7160e01b600052601160045260246000fd5b6001600160a01b03811681146124e857600080fd5b80151581146124e857600080fd5b67ffffffffffffffff811681146124e857600080fdfe01929b51ccb866359f22f5a3ce5c78c9fc36c4de9719e0e678f9a41b4e88b733a2646970667358221220e729d3f6f714735593b0b959cc7d860e3f7d3728ff70f4e31010dede4cb1a1d564736f6c63430008030033",
  "devdoc": {
    "kind": "dev",
    "methods": {
      "getRoleAdmin(bytes32)": {
        "details": "Returns the admin role that controls `role`. See {grantRole} and {revokeRole}. To change a role's admin, use {_setRoleAdmin}."
      },
      "grantRole(bytes32,address)": {
        "details": "Grants `role` to `account`. If `account` had not been already granted `role`, emits a {RoleGranted} event. Requirements: - the caller must have ``role``'s admin role."
      },
      "hasRole(bytes32,address)": {
        "details": "Returns `true` if `account` has been granted `role`."
      },
      "mintDepositorReward(address,uint256,uint256,uint256)": {
        "params": {
          "depositAmount": "The deposit amount in the pool's stablecoins",
          "depositPeriodInSeconds": "The deposit's lock period in seconds",
          "interestAmount": "The deposit's fixed-rate interest amount in the pool's stablecoins",
          "to": "The depositor"
        },
        "returns": {
          "_0": "depositorReward The MPH amount to mint to the depositor"
        }
      },
      "mintFunderReward(address,uint256,uint256,uint64,uint256,bool)": {
        "params": {
          "depositAmount": "The deposit amount in the pool's stablecoins",
          "early": "True if the deposit is withdrawn early, false if the deposit is mature",
          "fundingCreationTimestamp": "The timestamp of the funding's creation, in seconds",
          "interestPayoutAmount": "The interest payout amount to the funder, in the pool's stablecoins. Includes the interest from other funded deposits.",
          "maturationTimestamp": "The maturation timestamp of the deposit, in seconds",
          "to": "The funder"
        },
        "returns": {
          "_0": "funderReward The MPH amount to mint to the funder"
        }
      },
      "renounceRole(bytes32,address)": {
        "details": "Revokes `role` from the calling account. Roles are often managed via {grantRole} and {revokeRole}: this function's purpose is to provide a mechanism for accounts to lose their privileges if they are compromised (such as when a trusted device is misplaced). If the calling account had been granted `role`, emits a {RoleRevoked} event. Requirements: - the caller must be `account`."
      },
      "revokeRole(bytes32,address)": {
        "details": "Revokes `role` from `account`. If `account` had been granted `role`, emits a {RoleRevoked} event. Requirements: - the caller must have ``role``'s admin role."
      },
      "supportsInterface(bytes4)": {
        "details": "See {IERC165-supportsInterface}."
      },
      "takeBackDepositorReward(address,uint256,bool)": {
        "params": {
          "early": "True if the deposit is withdrawn early, false if the deposit is mature",
          "from": "The depositor",
          "mintMPHAmount": "The MPH amount originally minted to the depositor as reward"
        },
        "returns": {
          "_0": "takeBackAmount The MPH amount to take back from the depositor"
        }
      }
    },
    "version": 1
  },
  "userdoc": {
    "kind": "user",
    "methods": {
      "createVestForDeposit(address,uint64)": {
        "notice": "v3 functions"
      },
      "mintDepositorReward(address,uint256,uint256,uint256)": {
        "notice": "Mints the MPH reward to a depositor upon deposit."
      },
      "mintFunderReward(address,uint256,uint256,uint64,uint256,bool)": {
        "notice": "Mints the MPH reward to a deficit funder upon withdrawal of an underlying deposit."
      },
      "mph()": {
        "notice": "External contracts"
      },
      "setGovTreasury(address)": {
        "notice": "Param setters"
      },
      "setVesting02(address)": {
        "notice": "Param setters"
      },
      "takeBackDepositorReward(address,uint256,bool)": {
        "notice": "Takes back MPH from depositor upon withdrawal. If takeBackAmount > devReward + govReward, the extra MPH should be burnt."
      }
    },
    "version": 1
  },
  "storageLayout": {
    "storage": [
      {
        "astId": 612,
        "contract": "contracts/rewards/MPHMinter.sol:MPHMinter",
        "label": "_initialized",
        "offset": 0,
        "slot": "0",
        "type": "t_bool"
      },
      {
        "astId": 615,
        "contract": "contracts/rewards/MPHMinter.sol:MPHMinter",
        "label": "_initializing",
        "offset": 1,
        "slot": "0",
        "type": "t_bool"
      },
      {
        "astId": 3064,
        "contract": "contracts/rewards/MPHMinter.sol:MPHMinter",
        "label": "__gap",
        "offset": 0,
        "slot": "1",
        "type": "t_array(t_uint256)50_storage"
      },
      {
        "astId": 3453,
        "contract": "contracts/rewards/MPHMinter.sol:MPHMinter",
        "label": "__gap",
        "offset": 0,
        "slot": "51",
        "type": "t_array(t_uint256)50_storage"
      },
      {
        "astId": 86,
        "contract": "contracts/rewards/MPHMinter.sol:MPHMinter",
        "label": "_roles",
        "offset": 0,
        "slot": "101",
        "type": "t_mapping(t_bytes32,t_struct(RoleData)81_storage)"
      },
      {
        "astId": 394,
        "contract": "contracts/rewards/MPHMinter.sol:MPHMinter",
        "label": "__gap",
        "offset": 0,
        "slot": "102",
        "type": "t_array(t_uint256)49_storage"
      },
      {
        "astId": 19440,
        "contract": "contracts/rewards/MPHMinter.sol:MPHMinter",
        "label": "mph",
        "offset": 0,
        "slot": "151",
        "type": "t_contract(MPHToken)20170"
      },
      {
        "astId": 19442,
        "contract": "contracts/rewards/MPHMinter.sol:MPHMinter",
        "label": "govTreasury",
        "offset": 0,
        "slot": "152",
        "type": "t_address"
      },
      {
        "astId": 19444,
        "contract": "contracts/rewards/MPHMinter.sol:MPHMinter",
        "label": "devWallet",
        "offset": 0,
        "slot": "153",
        "type": "t_address"
      },
      {
        "astId": 19447,
        "contract": "contracts/rewards/MPHMinter.sol:MPHMinter",
        "label": "issuanceModel",
        "offset": 0,
        "slot": "154",
        "type": "t_contract(IMPHIssuanceModel)16339"
      },
      {
        "astId": 19450,
        "contract": "contracts/rewards/MPHMinter.sol:MPHMinter",
        "label": "vesting",
        "offset": 0,
        "slot": "155",
        "type": "t_contract(Vesting)20396"
      },
      {
        "astId": 20118,
        "contract": "contracts/rewards/MPHMinter.sol:MPHMinter",
        "label": "__gap",
        "offset": 0,
        "slot": "156",
        "type": "t_array(t_uint256)45_storage"
      },
      {
        "astId": 19084,
        "contract": "contracts/rewards/MPHMinter.sol:MPHMinter",
        "label": "vesting02",
        "offset": 0,
        "slot": "201",
        "type": "t_contract(Vesting02)21037"
      },
      {
        "astId": 19374,
        "contract": "contracts/rewards/MPHMinter.sol:MPHMinter",
        "label": "__gap",
        "offset": 0,
        "slot": "202",
        "type": "t_array(t_uint256)49_storage"
      }
    ],
    "types": {
      "t_address": {
        "encoding": "inplace",
        "label": "address",
        "numberOfBytes": "20"
      },
      "t_array(t_uint256)45_storage": {
        "base": "t_uint256",
        "encoding": "inplace",
        "label": "uint256[45]",
        "numberOfBytes": "1440"
      },
      "t_array(t_uint256)49_storage": {
        "base": "t_uint256",
        "encoding": "inplace",
        "label": "uint256[49]",
        "numberOfBytes": "1568"
      },
      "t_array(t_uint256)50_storage": {
        "base": "t_uint256",
        "encoding": "inplace",
        "label": "uint256[50]",
        "numberOfBytes": "1600"
      },
      "t_bool": {
        "encoding": "inplace",
        "label": "bool",
        "numberOfBytes": "1"
      },
      "t_bytes32": {
        "encoding": "inplace",
        "label": "bytes32",
        "numberOfBytes": "32"
      },
      "t_contract(IMPHIssuanceModel)16339": {
        "encoding": "inplace",
        "label": "contract IMPHIssuanceModel",
        "numberOfBytes": "20"
      },
      "t_contract(MPHToken)20170": {
        "encoding": "inplace",
        "label": "contract MPHToken",
        "numberOfBytes": "20"
      },
      "t_contract(Vesting)20396": {
        "encoding": "inplace",
        "label": "contract Vesting",
        "numberOfBytes": "20"
      },
      "t_contract(Vesting02)21037": {
        "encoding": "inplace",
        "label": "contract Vesting02",
        "numberOfBytes": "20"
      },
      "t_mapping(t_address,t_bool)": {
        "encoding": "mapping",
        "key": "t_address",
        "label": "mapping(address => bool)",
        "numberOfBytes": "32",
        "value": "t_bool"
      },
      "t_mapping(t_bytes32,t_struct(RoleData)81_storage)": {
        "encoding": "mapping",
        "key": "t_bytes32",
        "label": "mapping(bytes32 => struct AccessControlUpgradeable.RoleData)",
        "numberOfBytes": "32",
        "value": "t_struct(RoleData)81_storage"
      },
      "t_struct(RoleData)81_storage": {
        "encoding": "inplace",
        "label": "struct AccessControlUpgradeable.RoleData",
        "members": [
          {
            "astId": 78,
            "contract": "contracts/rewards/MPHMinter.sol:MPHMinter",
            "label": "members",
            "offset": 0,
            "slot": "0",
            "type": "t_mapping(t_address,t_bool)"
          },
          {
            "astId": 80,
            "contract": "contracts/rewards/MPHMinter.sol:MPHMinter",
            "label": "adminRole",
            "offset": 0,
            "slot": "1",
            "type": "t_bytes32"
          }
        ],
        "numberOfBytes": "64"
      },
      "t_uint256": {
        "encoding": "inplace",
        "label": "uint256",
        "numberOfBytes": "32"
      }
    }
  }
}