{
  "address": "0x54f686f5AD65C55E45c4D6B35de623142a0d3069",
  "abi": [
    {
      "anonymous": false,
      "inputs": [
        {
          "indexed": true,
          "internalType": "address",
          "name": "owner",
          "type": "address"
        },
        {
          "indexed": true,
          "internalType": "address",
          "name": "approved",
          "type": "address"
        },
        {
          "indexed": true,
          "internalType": "uint256",
          "name": "tokenId",
          "type": "uint256"
        }
      ],
      "name": "Approval",
      "type": "event"
    },
    {
      "anonymous": false,
      "inputs": [
        {
          "indexed": true,
          "internalType": "address",
          "name": "owner",
          "type": "address"
        },
        {
          "indexed": true,
          "internalType": "address",
          "name": "operator",
          "type": "address"
        },
        {
          "indexed": false,
          "internalType": "bool",
          "name": "approved",
          "type": "bool"
        }
      ],
      "name": "ApprovalForAll",
      "type": "event"
    },
    {
      "anonymous": false,
      "inputs": [
        {
          "indexed": true,
          "internalType": "address",
          "name": "previousOwner",
          "type": "address"
        },
        {
          "indexed": true,
          "internalType": "address",
          "name": "newOwner",
          "type": "address"
        }
      ],
      "name": "OwnershipTransferred",
      "type": "event"
    },
    {
      "anonymous": false,
      "inputs": [
        {
          "indexed": true,
          "internalType": "address",
          "name": "from",
          "type": "address"
        },
        {
          "indexed": true,
          "internalType": "address",
          "name": "to",
          "type": "address"
        },
        {
          "indexed": true,
          "internalType": "uint256",
          "name": "tokenId",
          "type": "uint256"
        }
      ],
      "name": "Transfer",
      "type": "event"
    },
    {
      "inputs": [
        {
          "internalType": "address",
          "name": "to",
          "type": "address"
        },
        {
          "internalType": "uint256",
          "name": "tokenId",
          "type": "uint256"
        }
      ],
      "name": "approve",
      "outputs": [],
      "stateMutability": "nonpayable",
      "type": "function"
    },
    {
      "inputs": [
        {
          "internalType": "address",
          "name": "owner",
          "type": "address"
        }
      ],
      "name": "balanceOf",
      "outputs": [
        {
          "internalType": "uint256",
          "name": "",
          "type": "uint256"
        }
      ],
      "stateMutability": "view",
      "type": "function"
    },
    {
      "inputs": [
        {
          "internalType": "uint256",
          "name": "tokenId",
          "type": "uint256"
        }
      ],
      "name": "burn",
      "outputs": [],
      "stateMutability": "nonpayable",
      "type": "function"
    },
    {
      "inputs": [],
      "name": "contractURI",
      "outputs": [
        {
          "internalType": "string",
          "name": "",
          "type": "string"
        }
      ],
      "stateMutability": "view",
      "type": "function"
    },
    {
      "inputs": [
        {
          "internalType": "uint256",
          "name": "tokenId",
          "type": "uint256"
        }
      ],
      "name": "getApproved",
      "outputs": [
        {
          "internalType": "address",
          "name": "",
          "type": "address"
        }
      ],
      "stateMutability": "view",
      "type": "function"
    },
    {
      "inputs": [
        {
          "internalType": "string",
          "name": "tokenName",
          "type": "string"
        },
        {
          "internalType": "string",
          "name": "tokenSymbol",
          "type": "string"
        }
      ],
      "name": "initialize",
      "outputs": [],
      "stateMutability": "nonpayable",
      "type": "function"
    },
    {
      "inputs": [
        {
          "internalType": "address",
          "name": "owner",
          "type": "address"
        },
        {
          "internalType": "address",
          "name": "operator",
          "type": "address"
        }
      ],
      "name": "isApprovedForAll",
      "outputs": [
        {
          "internalType": "bool",
          "name": "",
          "type": "bool"
        }
      ],
      "stateMutability": "view",
      "type": "function"
    },
    {
      "inputs": [
        {
          "internalType": "address",
          "name": "to",
          "type": "address"
        },
        {
          "internalType": "uint256",
          "name": "tokenId",
          "type": "uint256"
        }
      ],
      "name": "mint",
      "outputs": [],
      "stateMutability": "nonpayable",
      "type": "function"
    },
    {
      "inputs": [],
      "name": "name",
      "outputs": [
        {
          "internalType": "string",
          "name": "",
          "type": "string"
        }
      ],
      "stateMutability": "view",
      "type": "function"
    },
    {
      "inputs": [],
      "name": "owner",
      "outputs": [
        {
          "internalType": "address",
          "name": "",
          "type": "address"
        }
      ],
      "stateMutability": "view",
      "type": "function"
    },
    {
      "inputs": [
        {
          "internalType": "uint256",
          "name": "tokenId",
          "type": "uint256"
        }
      ],
      "name": "ownerOf",
      "outputs": [
        {
          "internalType": "address",
          "name": "",
          "type": "address"
        }
      ],
      "stateMutability": "view",
      "type": "function"
    },
    {
      "inputs": [],
      "name": "renounceOwnership",
      "outputs": [],
      "stateMutability": "nonpayable",
      "type": "function"
    },
    {
      "inputs": [
        {
          "internalType": "address",
          "name": "from",
          "type": "address"
        },
        {
          "internalType": "address",
          "name": "to",
          "type": "address"
        },
        {
          "internalType": "uint256",
          "name": "tokenId",
          "type": "uint256"
        }
      ],
      "name": "safeTransferFrom",
      "outputs": [],
      "stateMutability": "nonpayable",
      "type": "function"
    },
    {
      "inputs": [
        {
          "internalType": "address",
          "name": "from",
          "type": "address"
        },
        {
          "internalType": "address",
          "name": "to",
          "type": "address"
        },
        {
          "internalType": "uint256",
          "name": "tokenId",
          "type": "uint256"
        },
        {
          "internalType": "bytes",
          "name": "_data",
          "type": "bytes"
        }
      ],
      "name": "safeTransferFrom",
      "outputs": [],
      "stateMutability": "nonpayable",
      "type": "function"
    },
    {
      "inputs": [
        {
          "internalType": "address",
          "name": "operator",
          "type": "address"
        },
        {
          "internalType": "bool",
          "name": "approved",
          "type": "bool"
        }
      ],
      "name": "setApprovalForAll",
      "outputs": [],
      "stateMutability": "nonpayable",
      "type": "function"
    },
    {
      "inputs": [
        {
          "internalType": "string",
          "name": "newURI",
          "type": "string"
        }
      ],
      "name": "setBaseURI",
      "outputs": [],
      "stateMutability": "nonpayable",
      "type": "function"
    },
    {
      "inputs": [
        {
          "internalType": "string",
          "name": "newURI",
          "type": "string"
        }
      ],
      "name": "setContractURI",
      "outputs": [],
      "stateMutability": "nonpayable",
      "type": "function"
    },
    {
      "inputs": [
        {
          "internalType": "uint256",
          "name": "tokenId",
          "type": "uint256"
        },
        {
          "internalType": "string",
          "name": "newURI",
          "type": "string"
        }
      ],
      "name": "setTokenURI",
      "outputs": [],
      "stateMutability": "nonpayable",
      "type": "function"
    },
    {
      "inputs": [
        {
          "internalType": "bytes4",
          "name": "interfaceId",
          "type": "bytes4"
        }
      ],
      "name": "supportsInterface",
      "outputs": [
        {
          "internalType": "bool",
          "name": "",
          "type": "bool"
        }
      ],
      "stateMutability": "view",
      "type": "function"
    },
    {
      "inputs": [],
      "name": "symbol",
      "outputs": [
        {
          "internalType": "string",
          "name": "",
          "type": "string"
        }
      ],
      "stateMutability": "view",
      "type": "function"
    },
    {
      "inputs": [
        {
          "internalType": "uint256",
          "name": "tokenId",
          "type": "uint256"
        }
      ],
      "name": "tokenURI",
      "outputs": [
        {
          "internalType": "string",
          "name": "",
          "type": "string"
        }
      ],
      "stateMutability": "view",
      "type": "function"
    },
    {
      "inputs": [
        {
          "internalType": "address",
          "name": "from",
          "type": "address"
        },
        {
          "internalType": "address",
          "name": "to",
          "type": "address"
        },
        {
          "internalType": "uint256",
          "name": "tokenId",
          "type": "uint256"
        }
      ],
      "name": "transferFrom",
      "outputs": [],
      "stateMutability": "nonpayable",
      "type": "function"
    },
    {
      "inputs": [
        {
          "internalType": "address",
          "name": "newOwner",
          "type": "address"
        }
      ],
      "name": "transferOwnership",
      "outputs": [],
      "stateMutability": "nonpayable",
      "type": "function"
    }
  ],
  "transactionHash": "0x77c43412a9628a09904fa72a39254c77a2ddacc2b76f29d9c4d86e88e69e6372",
  "args": [],
  "solcInputHash": "ef30a810f52e8546dd2d48092c96ad7a",
  "bytecode": "0x608060405234801561001057600080fd5b50612125806100206000396000f3fe608060405234801561001057600080fd5b506004361061014d5760003560e01c80636352211e116100c3578063a22cb4651161007c578063a22cb465146102bc578063b88d4fde146102cf578063c87b56dd146102e2578063e8a3d485146102f5578063e985e9c5146102fd578063f2fde38b146103395761014d565b80636352211e1461025457806370a0823114610267578063715018a6146102885780638da5cb5b14610290578063938e3d7b146102a157806395d89b41146102b45761014d565b806323b872dd1161011557806323b872dd146101e257806340c10f19146101f557806342842e0e1461020857806342966c681461021b5780634cd88b761461022e57806355f804b3146102415761014d565b806301ffc9a71461015257806306fdde031461017a578063081812fc1461018f578063095ea7b3146101ba578063162094c4146101cf575b600080fd5b610165610160366004611caa565b61034c565b60405190151581526020015b60405180910390f35b6101826103a0565b6040516101719190611e85565b6101a261019d366004611d8b565b610432565b6040516001600160a01b039091168152602001610171565b6101cd6101c8366004611c81565b6104bf565b005b6101cd6101dd366004611da3565b6105d5565b6101cd6101f0366004611b37565b61066c565b6101cd610203366004611c81565b61069d565b6101cd610216366004611b37565b6106d5565b6101cd610229366004611d8b565b6106f0565b6101cd61023c366004611d22565b610726565b6101cd61024f366004611ce2565b610811565b6101a2610262366004611d8b565b610847565b61027a610275366004611aeb565b6108be565b604051908152602001610171565b6101cd610945565b60c9546001600160a01b03166101a2565b6101cd6102af366004611ce2565b6109b9565b6101826109ef565b6101cd6102ca366004611c47565b6109fe565b6101cd6102dd366004611b72565b610ad0565b6101826102f0366004611d8b565b610b08565b610182610c73565b61016561030b366004611b05565b6001600160a01b039182166000908152606a6020908152604080832093909416825291909152205460ff1690565b6101cd610347366004611aeb565b610c82565b60006001600160e01b031982166380ac58cd60e01b148061037d57506001600160e01b03198216635b5e139f60e01b145b8061039857506301ffc9a760e01b6001600160e01b03198316145b90505b919050565b6060606580546103af9061202d565b80601f01602080910402602001604051908101604052809291908181526020018280546103db9061202d565b80156104285780601f106103fd57610100808354040283529160200191610428565b820191906000526020600020905b81548152906001019060200180831161040b57829003601f168201915b5050505050905090565b600061043d82610d6d565b6104a35760405162461bcd60e51b815260206004820152602c60248201527f4552433732313a20617070726f76656420717565727920666f72206e6f6e657860448201526b34b9ba32b73a103a37b5b2b760a11b60648201526084015b60405180910390fd5b506000908152606960205260409020546001600160a01b031690565b60006104ca82610847565b9050806001600160a01b0316836001600160a01b031614156105385760405162461bcd60e51b815260206004820152602160248201527f4552433732313a20617070726f76616c20746f2063757272656e74206f776e656044820152603960f91b606482015260840161049a565b336001600160a01b03821614806105545750610554813361030b565b6105c65760405162461bcd60e51b815260206004820152603860248201527f4552433732313a20617070726f76652063616c6c6572206973206e6f74206f7760448201527f6e6572206e6f7220617070726f76656420666f7220616c6c0000000000000000606482015260840161049a565b6105d08383610d8a565b505050565b336105df84610847565b6001600160a01b03161461062c5760405162461bcd60e51b815260206004820152601460248201527327232a1d103737ba103a37b5b2b71037bbb732b960611b604482015260640161049a565b6105d08383838080601f016020809104026020016040519081016040528093929190818152602001838380828437600092019190915250610df892505050565b6106763382610e83565b6106925760405162461bcd60e51b815260040161049a90611f6d565b6105d0838383610f69565b60c9546001600160a01b031633146106c75760405162461bcd60e51b815260040161049a90611f38565b6106d18282611109565b5050565b6105d083838360405180602001604052806000815250610ad0565b60c9546001600160a01b0316331461071a5760405162461bcd60e51b815260040161049a90611f38565b61072381611123565b50565b600054610100900460ff168061073f575060005460ff16155b61075b5760405162461bcd60e51b815260040161049a90611eea565b600054610100900460ff1615801561077d576000805461ffff19166101011790555b610785611163565b6107f885858080601f01602080910402602001604051908101604052809392919081815260200183838082843760009201919091525050604080516020601f890181900481028201810190925287815292508791508690819084018382808284376000920191909152506111de92505050565b801561080a576000805461ff00191690555b5050505050565b60c9546001600160a01b0316331461083b5760405162461bcd60e51b815260040161049a90611f38565b6105d060fc8383611948565b6000818152606760205260408120546001600160a01b0316806103985760405162461bcd60e51b815260206004820152602960248201527f4552433732313a206f776e657220717565727920666f72206e6f6e657869737460448201526832b73a103a37b5b2b760b91b606482015260840161049a565b60006001600160a01b0382166109295760405162461bcd60e51b815260206004820152602a60248201527f4552433732313a2062616c616e636520717565727920666f7220746865207a65604482015269726f206164647265737360b01b606482015260840161049a565b506001600160a01b031660009081526068602052604090205490565b60c9546001600160a01b0316331461096f5760405162461bcd60e51b815260040161049a90611f38565b60c9546040516000916001600160a01b0316907f8be0079c531659141344cd1fd0a4f28419497f9722a3daafe3b4186f6b6457e0908390a360c980546001600160a01b0319169055565b60c9546001600160a01b031633146109e35760405162461bcd60e51b815260040161049a90611f38565b6105d060fb8383611948565b6060606680546103af9061202d565b6001600160a01b038216331415610a575760405162461bcd60e51b815260206004820152601960248201527f4552433732313a20617070726f766520746f2063616c6c657200000000000000604482015260640161049a565b336000818152606a602090815260408083206001600160a01b0387168085529252909120805460ff1916841515179055906001600160a01b03167f17307eab39ab6107e8899845ad3d59bd9653f200f220920489ca2b5937696c3183604051610ac4911515815260200190565b60405180910390a35050565b610ada3383610e83565b610af65760405162461bcd60e51b815260040161049a90611f6d565b610b0284848484611265565b50505050565b6060610b1382610d6d565b610b795760405162461bcd60e51b815260206004820152603160248201527f45524337323155524953746f726167653a2055524920717565727920666f72206044820152703737b732bc34b9ba32b73a103a37b5b2b760791b606482015260840161049a565b60008281526097602052604081208054610b929061202d565b80601f0160208091040260200160405190810160405280929190818152602001828054610bbe9061202d565b8015610c0b5780601f10610be057610100808354040283529160200191610c0b565b820191906000526020600020905b815481529060010190602001808311610bee57829003601f168201915b505050505090506000610c1c611298565b9050805160001415610c305750905061039b565b815115610c62578082604051602001610c4a929190611e19565b6040516020818303038152906040529250505061039b565b610c6b846112a7565b949350505050565b606060fb80546103af9061202d565b60c9546001600160a01b03163314610cac5760405162461bcd60e51b815260040161049a90611f38565b6001600160a01b038116610d115760405162461bcd60e51b815260206004820152602660248201527f4f776e61626c653a206e6577206f776e657220697320746865207a65726f206160448201526564647265737360d01b606482015260840161049a565b60c9546040516001600160a01b038084169216907f8be0079c531659141344cd1fd0a4f28419497f9722a3daafe3b4186f6b6457e090600090a360c980546001600160a01b0319166001600160a01b0392909216919091179055565b6000908152606760205260409020546001600160a01b0316151590565b600081815260696020526040902080546001600160a01b0319166001600160a01b0384169081179091558190610dbf82610847565b6001600160a01b03167f8c5be1e5ebec7d5bd14f71427d1e84f3dd0314c0f7b2291e5b200ac8c7c3b92560405160405180910390a45050565b610e0182610d6d565b610e645760405162461bcd60e51b815260206004820152602e60248201527f45524337323155524953746f726167653a2055524920736574206f66206e6f6e60448201526d32bc34b9ba32b73a103a37b5b2b760911b606482015260840161049a565b600082815260976020908152604090912082516105d0928401906119cc565b6000610e8e82610d6d565b610eef5760405162461bcd60e51b815260206004820152602c60248201527f4552433732313a206f70657261746f7220717565727920666f72206e6f6e657860448201526b34b9ba32b73a103a37b5b2b760a11b606482015260840161049a565b6000610efa83610847565b9050806001600160a01b0316846001600160a01b03161480610f355750836001600160a01b0316610f2a84610432565b6001600160a01b0316145b80610c6b57506001600160a01b038082166000908152606a602090815260408083209388168352929052205460ff16610c6b565b826001600160a01b0316610f7c82610847565b6001600160a01b031614610fe45760405162461bcd60e51b815260206004820152602960248201527f4552433732313a207472616e73666572206f6620746f6b656e2074686174206960448201526839903737ba1037bbb760b91b606482015260840161049a565b6001600160a01b0382166110465760405162461bcd60e51b8152602060048201526024808201527f4552433732313a207472616e7366657220746f20746865207a65726f206164646044820152637265737360e01b606482015260840161049a565b611051600082610d8a565b6001600160a01b038316600090815260686020526040812080546001929061107a908490611fea565b90915550506001600160a01b03821660009081526068602052604081208054600192906110a8908490611fbe565b909155505060008181526067602052604080822080546001600160a01b0319166001600160a01b0386811691821790925591518493918716917fddf252ad1be2c89b69c2b068fc378daa952ba7f163c4a11628f55a4df523b3ef91a4505050565b6106d1828260405180602001604052806000815250611372565b61112c816113a5565b600081815260976020526040902080546111459061202d565b15905061072357600081815260976020526040812061072391611a40565b600054610100900460ff168061117c575060005460ff16155b6111985760405162461bcd60e51b815260040161049a90611eea565b600054610100900460ff161580156111ba576000805461ffff19166101011790555b6111c2611440565b6111ca6114aa565b8015610723576000805461ff001916905550565b600054610100900460ff16806111f7575060005460ff16155b6112135760405162461bcd60e51b815260040161049a90611eea565b600054610100900460ff16158015611235576000805461ffff19166101011790555b61123d611440565b611245611440565b61124f8383611558565b80156105d0576000805461ff0019169055505050565b611270848484610f69565b61127c848484846115ed565b610b025760405162461bcd60e51b815260040161049a90611e98565b606060fc80546103af9061202d565b60606112b282610d6d565b6113165760405162461bcd60e51b815260206004820152602f60248201527f4552433732314d657461646174613a2055524920717565727920666f72206e6f60448201526e3732bc34b9ba32b73a103a37b5b2b760891b606482015260840161049a565b6000611320611298565b90506000815111611340576040518060200160405280600081525061136b565b8061134a846116fa565b60405160200161135b929190611e19565b6040516020818303038152906040525b9392505050565b61137c8383611815565b61138960008484846115ed565b6105d05760405162461bcd60e51b815260040161049a90611e98565b60006113b082610847565b90506113bd600083610d8a565b6001600160a01b03811660009081526068602052604081208054600192906113e6908490611fea565b909155505060008281526067602052604080822080546001600160a01b0319169055518391906001600160a01b038416907fddf252ad1be2c89b69c2b068fc378daa952ba7f163c4a11628f55a4df523b3ef908390a45050565b600054610100900460ff1680611459575060005460ff16155b6114755760405162461bcd60e51b815260040161049a90611eea565b600054610100900460ff161580156111ca576000805461ffff19166101011790558015610723576000805461ff001916905550565b600054610100900460ff16806114c3575060005460ff16155b6114df5760405162461bcd60e51b815260040161049a90611eea565b600054610100900460ff16158015611501576000805461ffff19166101011790555b60c980546001600160a01b0319163390811790915560405181906000907f8be0079c531659141344cd1fd0a4f28419497f9722a3daafe3b4186f6b6457e0908290a3508015610723576000805461ff001916905550565b600054610100900460ff1680611571575060005460ff16155b61158d5760405162461bcd60e51b815260040161049a90611eea565b600054610100900460ff161580156115af576000805461ffff19166101011790555b82516115c29060659060208601906119cc565b5081516115d69060669060208501906119cc565b5080156105d0576000805461ff0019169055505050565b60006001600160a01b0384163b156116ef57604051630a85bd0160e11b81526001600160a01b0385169063150b7a0290611631903390899088908890600401611e48565b602060405180830381600087803b15801561164b57600080fd5b505af192505050801561167b575060408051601f3d908101601f1916820190925261167891810190611cc6565b60015b6116d5573d8080156116a9576040519150601f19603f3d011682016040523d82523d6000602084013e6116ae565b606091505b5080516116cd5760405162461bcd60e51b815260040161049a90611e98565b805181602001fd5b6001600160e01b031916630a85bd0160e11b149050610c6b565b506001949350505050565b60608161171f57506040805180820190915260018152600360fc1b602082015261039b565b8160005b8115611749578061173381612068565b91506117429050600a83611fd6565b9150611723565b60008167ffffffffffffffff81111561177257634e487b7160e01b600052604160045260246000fd5b6040519080825280601f01601f19166020018201604052801561179c576020820181803683370190505b5090505b8415610c6b576117b1600183611fea565b91506117be600a86612083565b6117c9906030611fbe565b60f81b8183815181106117ec57634e487b7160e01b600052603260045260246000fd5b60200101906001600160f81b031916908160001a90535061180e600a86611fd6565b94506117a0565b6001600160a01b03821661186b5760405162461bcd60e51b815260206004820181905260248201527f4552433732313a206d696e7420746f20746865207a65726f2061646472657373604482015260640161049a565b61187481610d6d565b156118c15760405162461bcd60e51b815260206004820152601c60248201527f4552433732313a20746f6b656e20616c7265616479206d696e74656400000000604482015260640161049a565b6001600160a01b03821660009081526068602052604081208054600192906118ea908490611fbe565b909155505060008181526067602052604080822080546001600160a01b0319166001600160a01b03861690811790915590518392907fddf252ad1be2c89b69c2b068fc378daa952ba7f163c4a11628f55a4df523b3ef908290a45050565b8280546119549061202d565b90600052602060002090601f01602090048101928261197657600085556119bc565b82601f1061198f5782800160ff198235161785556119bc565b828001600101855582156119bc579182015b828111156119bc5782358255916020019190600101906119a1565b506119c8929150611a78565b5090565b8280546119d89061202d565b90600052602060002090601f0160209004810192826119fa57600085556119bc565b82601f10611a1357805160ff19168380011785556119bc565b828001600101855582156119bc579182015b828111156119bc578251825591602001919060010190611a25565b508054611a4c9061202d565b6000825580601f10611a5e5750610723565b601f01602090049060005260206000209081019061072391905b5b808211156119c85760008155600101611a79565b80356001600160a01b038116811461039b57600080fd5b60008083601f840112611ab5578182fd5b50813567ffffffffffffffff811115611acc578182fd5b602083019150836020828501011115611ae457600080fd5b9250929050565b600060208284031215611afc578081fd5b61136b82611a8d565b60008060408385031215611b17578081fd5b611b2083611a8d565b9150611b2e60208401611a8d565b90509250929050565b600080600060608486031215611b4b578081fd5b611b5484611a8d565b9250611b6260208501611a8d565b9150604084013590509250925092565b60008060008060808587031215611b87578081fd5b611b9085611a8d565b9350611b9e60208601611a8d565b925060408501359150606085013567ffffffffffffffff80821115611bc1578283fd5b818701915087601f830112611bd4578283fd5b813581811115611be657611be66120c3565b604051601f8201601f19908116603f01168101908382118183101715611c0e57611c0e6120c3565b816040528281528a6020848701011115611c26578586fd5b82602086016020830137918201602001949094529598949750929550505050565b60008060408385031215611c59578182fd5b611c6283611a8d565b915060208301358015158114611c76578182fd5b809150509250929050565b60008060408385031215611c93578182fd5b611c9c83611a8d565b946020939093013593505050565b600060208284031215611cbb578081fd5b813561136b816120d9565b600060208284031215611cd7578081fd5b815161136b816120d9565b60008060208385031215611cf4578182fd5b823567ffffffffffffffff811115611d0a578283fd5b611d1685828601611aa4565b90969095509350505050565b60008060008060408587031215611d37578384fd5b843567ffffffffffffffff80821115611d4e578586fd5b611d5a88838901611aa4565b90965094506020870135915080821115611d72578384fd5b50611d7f87828801611aa4565b95989497509550505050565b600060208284031215611d9c578081fd5b5035919050565b600080600060408486031215611db7578283fd5b83359250602084013567ffffffffffffffff811115611dd4578283fd5b611de086828701611aa4565b9497909650939450505050565b60008151808452611e05816020860160208601612001565b601f01601f19169290920160200192915050565b60008351611e2b818460208801612001565b835190830190611e3f818360208801612001565b01949350505050565b6001600160a01b0385811682528416602082015260408101839052608060608201819052600090611e7b90830184611ded565b9695505050505050565b60006020825261136b6020830184611ded565b60208082526032908201527f4552433732313a207472616e7366657220746f206e6f6e20455243373231526560408201527131b2b4bb32b91034b6b83632b6b2b73a32b960711b606082015260800190565b6020808252602e908201527f496e697469616c697a61626c653a20636f6e747261637420697320616c72656160408201526d191e481a5b9a5d1a585b1a5e995960921b606082015260800190565b6020808252818101527f4f776e61626c653a2063616c6c6572206973206e6f7420746865206f776e6572604082015260600190565b60208082526031908201527f4552433732313a207472616e736665722063616c6c6572206973206e6f74206f6040820152701ddb995c881b9bdc88185c1c1c9bdd9959607a1b606082015260800190565b60008219821115611fd157611fd1612097565b500190565b600082611fe557611fe56120ad565b500490565b600082821015611ffc57611ffc612097565b500390565b60005b8381101561201c578181015183820152602001612004565b83811115610b025750506000910152565b600181811c9082168061204157607f821691505b6020821081141561206257634e487b7160e01b600052602260045260246000fd5b50919050565b600060001982141561207c5761207c612097565b5060010190565b600082612092576120926120ad565b500690565b634e487b7160e01b600052601160045260246000fd5b634e487b7160e01b600052601260045260246000fd5b634e487b7160e01b600052604160045260246000fd5b6001600160e01b03198116811461072357600080fdfea2646970667358221220d3e6b8417647067fc62baae688f7be8bb312d3df25717a71d548c4dd9085255364736f6c63430008030033",
  "devdoc": {
    "kind": "dev",
    "methods": {
      "approve(address,uint256)": {
        "details": "See {IERC721-approve}."
      },
      "balanceOf(address)": {
        "details": "See {IERC721-balanceOf}."
      },
      "getApproved(uint256)": {
        "details": "See {IERC721-getApproved}."
      },
      "isApprovedForAll(address,address)": {
        "details": "See {IERC721-isApprovedForAll}."
      },
      "name()": {
        "details": "See {IERC721Metadata-name}."
      },
      "owner()": {
        "details": "Returns the address of the current owner."
      },
      "ownerOf(uint256)": {
        "details": "See {IERC721-ownerOf}."
      },
      "renounceOwnership()": {
        "details": "Leaves the contract without owner. It will not be possible to call `onlyOwner` functions anymore. Can only be called by the current owner. NOTE: Renouncing ownership will leave the contract without an owner, thereby removing any functionality that is only available to the owner."
      },
      "safeTransferFrom(address,address,uint256)": {
        "details": "See {IERC721-safeTransferFrom}."
      },
      "safeTransferFrom(address,address,uint256,bytes)": {
        "details": "See {IERC721-safeTransferFrom}."
      },
      "setApprovalForAll(address,bool)": {
        "details": "See {IERC721-setApprovalForAll}."
      },
      "supportsInterface(bytes4)": {
        "details": "See {IERC165-supportsInterface}."
      },
      "symbol()": {
        "details": "See {IERC721Metadata-symbol}."
      },
      "tokenURI(uint256)": {
        "details": "See {IERC721Metadata-tokenURI}."
      },
      "transferFrom(address,address,uint256)": {
        "details": "See {IERC721-transferFrom}."
      },
      "transferOwnership(address)": {
        "details": "Transfers ownership of the contract to a new account (`newOwner`). Can only be called by the current owner."
      }
    },
    "version": 1
  },
  "userdoc": {
    "kind": "user",
    "methods": {},
    "version": 1
  },
  "storageLayout": {
    "storage": [
      {
        "astId": 612,
        "contract": "contracts/tokens/NFT.sol:NFT",
        "label": "_initialized",
        "offset": 0,
        "slot": "0",
        "type": "t_bool"
      },
      {
        "astId": 615,
        "contract": "contracts/tokens/NFT.sol:NFT",
        "label": "_initializing",
        "offset": 1,
        "slot": "0",
        "type": "t_bool"
      },
      {
        "astId": 3064,
        "contract": "contracts/tokens/NFT.sol:NFT",
        "label": "__gap",
        "offset": 0,
        "slot": "1",
        "type": "t_array(t_uint256)50_storage"
      },
      {
        "astId": 3453,
        "contract": "contracts/tokens/NFT.sol:NFT",
        "label": "__gap",
        "offset": 0,
        "slot": "51",
        "type": "t_array(t_uint256)50_storage"
      },
      {
        "astId": 1640,
        "contract": "contracts/tokens/NFT.sol:NFT",
        "label": "_name",
        "offset": 0,
        "slot": "101",
        "type": "t_string_storage"
      },
      {
        "astId": 1642,
        "contract": "contracts/tokens/NFT.sol:NFT",
        "label": "_symbol",
        "offset": 0,
        "slot": "102",
        "type": "t_string_storage"
      },
      {
        "astId": 1646,
        "contract": "contracts/tokens/NFT.sol:NFT",
        "label": "_owners",
        "offset": 0,
        "slot": "103",
        "type": "t_mapping(t_uint256,t_address)"
      },
      {
        "astId": 1650,
        "contract": "contracts/tokens/NFT.sol:NFT",
        "label": "_balances",
        "offset": 0,
        "slot": "104",
        "type": "t_mapping(t_address,t_uint256)"
      },
      {
        "astId": 1654,
        "contract": "contracts/tokens/NFT.sol:NFT",
        "label": "_tokenApprovals",
        "offset": 0,
        "slot": "105",
        "type": "t_mapping(t_uint256,t_address)"
      },
      {
        "astId": 1660,
        "contract": "contracts/tokens/NFT.sol:NFT",
        "label": "_operatorApprovals",
        "offset": 0,
        "slot": "106",
        "type": "t_mapping(t_address,t_mapping(t_address,t_bool))"
      },
      {
        "astId": 2458,
        "contract": "contracts/tokens/NFT.sol:NFT",
        "label": "__gap",
        "offset": 0,
        "slot": "107",
        "type": "t_array(t_uint256)44_storage"
      },
      {
        "astId": 2630,
        "contract": "contracts/tokens/NFT.sol:NFT",
        "label": "_tokenURIs",
        "offset": 0,
        "slot": "151",
        "type": "t_mapping(t_uint256,t_string_storage)"
      },
      {
        "astId": 2748,
        "contract": "contracts/tokens/NFT.sol:NFT",
        "label": "__gap",
        "offset": 0,
        "slot": "152",
        "type": "t_array(t_uint256)49_storage"
      },
      {
        "astId": 406,
        "contract": "contracts/tokens/NFT.sol:NFT",
        "label": "_owner",
        "offset": 0,
        "slot": "201",
        "type": "t_address"
      },
      {
        "astId": 525,
        "contract": "contracts/tokens/NFT.sol:NFT",
        "label": "__gap",
        "offset": 0,
        "slot": "202",
        "type": "t_array(t_uint256)49_storage"
      },
      {
        "astId": 22626,
        "contract": "contracts/tokens/NFT.sol:NFT",
        "label": "_contractURI",
        "offset": 0,
        "slot": "251",
        "type": "t_string_storage"
      },
      {
        "astId": 22628,
        "contract": "contracts/tokens/NFT.sol:NFT",
        "label": "__baseURI",
        "offset": 0,
        "slot": "252",
        "type": "t_string_storage"
      },
      {
        "astId": 22741,
        "contract": "contracts/tokens/NFT.sol:NFT",
        "label": "__gap",
        "offset": 0,
        "slot": "253",
        "type": "t_array(t_uint256)48_storage"
      }
    ],
    "types": {
      "t_address": {
        "encoding": "inplace",
        "label": "address",
        "numberOfBytes": "20"
      },
      "t_array(t_uint256)44_storage": {
        "base": "t_uint256",
        "encoding": "inplace",
        "label": "uint256[44]",
        "numberOfBytes": "1408"
      },
      "t_array(t_uint256)48_storage": {
        "base": "t_uint256",
        "encoding": "inplace",
        "label": "uint256[48]",
        "numberOfBytes": "1536"
      },
      "t_array(t_uint256)49_storage": {
        "base": "t_uint256",
        "encoding": "inplace",
        "label": "uint256[49]",
        "numberOfBytes": "1568"
      },
      "t_array(t_uint256)50_storage": {
        "base": "t_uint256",
        "encoding": "inplace",
        "label": "uint256[50]",
        "numberOfBytes": "1600"
      },
      "t_bool": {
        "encoding": "inplace",
        "label": "bool",
        "numberOfBytes": "1"
      },
      "t_mapping(t_address,t_bool)": {
        "encoding": "mapping",
        "key": "t_address",
        "label": "mapping(address => bool)",
        "numberOfBytes": "32",
        "value": "t_bool"
      },
      "t_mapping(t_address,t_mapping(t_address,t_bool))": {
        "encoding": "mapping",
        "key": "t_address",
        "label": "mapping(address => mapping(address => bool))",
        "numberOfBytes": "32",
        "value": "t_mapping(t_address,t_bool)"
      },
      "t_mapping(t_address,t_uint256)": {
        "encoding": "mapping",
        "key": "t_address",
        "label": "mapping(address => uint256)",
        "numberOfBytes": "32",
        "value": "t_uint256"
      },
      "t_mapping(t_uint256,t_address)": {
        "encoding": "mapping",
        "key": "t_uint256",
        "label": "mapping(uint256 => address)",
        "numberOfBytes": "32",
        "value": "t_address"
      },
      "t_mapping(t_uint256,t_string_storage)": {
        "encoding": "mapping",
        "key": "t_uint256",
        "label": "mapping(uint256 => string)",
        "numberOfBytes": "32",
        "value": "t_string_storage"
      },
      "t_string_storage": {
        "encoding": "bytes",
        "label": "string",
        "numberOfBytes": "32"
      },
      "t_uint256": {
        "encoding": "inplace",
        "label": "uint256",
        "numberOfBytes": "32"
      }
    }
  }
}