{
  "address": "0x93a733B0Fe654b9e01B1a0Dddb2ba9E889a49155",
  "abi": [
    {
      "inputs": [
        {
          "internalType": "address payable",
          "name": "_beneficiary",
          "type": "address"
        },
        {
          "internalType": "uint256",
          "name": "_interestFee",
          "type": "uint256"
        },
        {
          "internalType": "uint256",
          "name": "_earlyWithdrawFee",
          "type": "uint256"
        }
      ],
      "stateMutability": "nonpayable",
      "type": "constructor"
    },
    {
      "anonymous": false,
      "inputs": [
        {
          "indexed": true,
          "internalType": "address",
          "name": "pool",
          "type": "address"
        },
        {
          "indexed": true,
          "internalType": "uint64",
          "name": "depositID",
          "type": "uint64"
        },
        {
          "indexed": false,
          "internalType": "uint256",
          "name": "newFee",
          "type": "uint256"
        }
      ],
      "name": "OverrideEarlyWithdrawFeeForDeposit",
      "type": "event"
    },
    {
      "anonymous": false,
      "inputs": [
        {
          "indexed": true,
          "internalType": "address",
          "name": "pool",
          "type": "address"
        },
        {
          "indexed": false,
          "internalType": "uint256",
          "name": "newFee",
          "type": "uint256"
        }
      ],
      "name": "OverrideEarlyWithdrawFeeForPool",
      "type": "event"
    },
    {
      "anonymous": false,
      "inputs": [
        {
          "indexed": true,
          "internalType": "address",
          "name": "pool",
          "type": "address"
        },
        {
          "indexed": false,
          "internalType": "uint256",
          "name": "newFee",
          "type": "uint256"
        }
      ],
      "name": "OverrideInterestFeeForPool",
      "type": "event"
    },
    {
      "anonymous": false,
      "inputs": [
        {
          "indexed": true,
          "internalType": "address",
          "name": "previousOwner",
          "type": "address"
        },
        {
          "indexed": true,
          "internalType": "address",
          "name": "newOwner",
          "type": "address"
        }
      ],
      "name": "OwnershipTransferred",
      "type": "event"
    },
    {
      "anonymous": false,
      "inputs": [
        {
          "indexed": false,
          "internalType": "address",
          "name": "newBeneficiary",
          "type": "address"
        }
      ],
      "name": "SetBeneficiary",
      "type": "event"
    },
    {
      "anonymous": false,
      "inputs": [
        {
          "indexed": false,
          "internalType": "uint256",
          "name": "newValue",
          "type": "uint256"
        }
      ],
      "name": "SetEarlyWithdrawFee",
      "type": "event"
    },
    {
      "anonymous": false,
      "inputs": [
        {
          "indexed": false,
          "internalType": "uint256",
          "name": "newValue",
          "type": "uint256"
        }
      ],
      "name": "SetInterestFee",
      "type": "event"
    },
    {
      "inputs": [],
      "name": "beneficiary",
      "outputs": [
        {
          "internalType": "address payable",
          "name": "",
          "type": "address"
        }
      ],
      "stateMutability": "view",
      "type": "function"
    },
    {
      "inputs": [],
      "name": "earlyWithdrawFee",
      "outputs": [
        {
          "internalType": "uint256",
          "name": "",
          "type": "uint256"
        }
      ],
      "stateMutability": "view",
      "type": "function"
    },
    {
      "inputs": [
        {
          "internalType": "address",
          "name": "",
          "type": "address"
        },
        {
          "internalType": "uint64",
          "name": "",
          "type": "uint64"
        }
      ],
      "name": "earlyWithdrawFeeOverrideForDeposit",
      "outputs": [
        {
          "internalType": "bool",
          "name": "isOverridden",
          "type": "bool"
        },
        {
          "internalType": "uint256",
          "name": "fee",
          "type": "uint256"
        }
      ],
      "stateMutability": "view",
      "type": "function"
    },
    {
      "inputs": [
        {
          "internalType": "address",
          "name": "",
          "type": "address"
        }
      ],
      "name": "earlyWithdrawFeeOverrideForPool",
      "outputs": [
        {
          "internalType": "bool",
          "name": "isOverridden",
          "type": "bool"
        },
        {
          "internalType": "uint256",
          "name": "fee",
          "type": "uint256"
        }
      ],
      "stateMutability": "view",
      "type": "function"
    },
    {
      "inputs": [
        {
          "internalType": "address",
          "name": "pool",
          "type": "address"
        },
        {
          "internalType": "uint64",
          "name": "depositID",
          "type": "uint64"
        },
        {
          "internalType": "uint256",
          "name": "withdrawnDepositAmount",
          "type": "uint256"
        }
      ],
      "name": "getEarlyWithdrawFeeAmount",
      "outputs": [
        {
          "internalType": "uint256",
          "name": "feeAmount",
          "type": "uint256"
        }
      ],
      "stateMutability": "view",
      "type": "function"
    },
    {
      "inputs": [
        {
          "internalType": "address",
          "name": "pool",
          "type": "address"
        },
        {
          "internalType": "uint256",
          "name": "interestAmount",
          "type": "uint256"
        }
      ],
      "name": "getInterestFeeAmount",
      "outputs": [
        {
          "internalType": "uint256",
          "name": "feeAmount",
          "type": "uint256"
        }
      ],
      "stateMutability": "view",
      "type": "function"
    },
    {
      "inputs": [],
      "name": "interestFee",
      "outputs": [
        {
          "internalType": "uint256",
          "name": "",
          "type": "uint256"
        }
      ],
      "stateMutability": "view",
      "type": "function"
    },
    {
      "inputs": [
        {
          "internalType": "address",
          "name": "",
          "type": "address"
        }
      ],
      "name": "interestFeeOverrideForPool",
      "outputs": [
        {
          "internalType": "bool",
          "name": "isOverridden",
          "type": "bool"
        },
        {
          "internalType": "uint256",
          "name": "fee",
          "type": "uint256"
        }
      ],
      "stateMutability": "view",
      "type": "function"
    },
    {
      "inputs": [
        {
          "internalType": "address",
          "name": "pool",
          "type": "address"
        },
        {
          "internalType": "uint64",
          "name": "depositID",
          "type": "uint64"
        },
        {
          "internalType": "uint256",
          "name": "newFee",
          "type": "uint256"
        }
      ],
      "name": "overrideEarlyWithdrawFeeForDeposit",
      "outputs": [],
      "stateMutability": "nonpayable",
      "type": "function"
    },
    {
      "inputs": [
        {
          "internalType": "address",
          "name": "pool",
          "type": "address"
        },
        {
          "internalType": "uint256",
          "name": "newFee",
          "type": "uint256"
        }
      ],
      "name": "overrideEarlyWithdrawFeeForPool",
      "outputs": [],
      "stateMutability": "nonpayable",
      "type": "function"
    },
    {
      "inputs": [
        {
          "internalType": "address",
          "name": "pool",
          "type": "address"
        },
        {
          "internalType": "uint256",
          "name": "newFee",
          "type": "uint256"
        }
      ],
      "name": "overrideInterestFeeForPool",
      "outputs": [],
      "stateMutability": "nonpayable",
      "type": "function"
    },
    {
      "inputs": [],
      "name": "owner",
      "outputs": [
        {
          "internalType": "address",
          "name": "",
          "type": "address"
        }
      ],
      "stateMutability": "view",
      "type": "function"
    },
    {
      "inputs": [],
      "name": "renounceOwnership",
      "outputs": [],
      "stateMutability": "nonpayable",
      "type": "function"
    },
    {
      "inputs": [
        {
          "internalType": "address payable",
          "name": "newValue",
          "type": "address"
        }
      ],
      "name": "setBeneficiary",
      "outputs": [],
      "stateMutability": "nonpayable",
      "type": "function"
    },
    {
      "inputs": [
        {
          "internalType": "uint256",
          "name": "newValue",
          "type": "uint256"
        }
      ],
      "name": "setEarlyWithdrawFee",
      "outputs": [],
      "stateMutability": "nonpayable",
      "type": "function"
    },
    {
      "inputs": [
        {
          "internalType": "uint256",
          "name": "newValue",
          "type": "uint256"
        }
      ],
      "name": "setInterestFee",
      "outputs": [],
      "stateMutability": "nonpayable",
      "type": "function"
    },
    {
      "inputs": [
        {
          "internalType": "address",
          "name": "newOwner",
          "type": "address"
        }
      ],
      "name": "transferOwnership",
      "outputs": [],
      "stateMutability": "nonpayable",
      "type": "function"
    }
  ],
  "transactionHash": "0x2c8b20ae58864df7f6efe6d567854810d12fe68879293a905c850f9a6db8a02b",
  "args": [
    "0x61c684F103acB76fA98dBC70957DffaAebFd4f3e",
    "200000000000000000",
    "5000000000000000"
  ],
  "solcInputHash": "e60ae8ce476666259c0e591d71d287b8",
  "bytecode": "0x608060405234801561001057600080fd5b50604051610d3a380380610d3a83398101604081905261002f91610129565b600080546001600160a01b031916339081178255604051909182917f8be0079c531659141344cd1fd0a4f28419497f9722a3daafe3b4186f6b6457e0908290a3506001600160a01b0383161580159061009057506706f05b59d3b200008211155b80156100a3575066b1a2bc2ec500008111155b6100fd5760405162461bcd60e51b815260206004820152602160248201527f50657263656e746167654665654d6f64656c3a20696e76616c696420696e70756044820152601d60fa1b606482015260840160405180910390fd5b600180546001600160a01b0319166001600160a01b03949094169390931790925560055560065561016a565b60008060006060848603121561013d578283fd5b83516001600160a01b0381168114610153578384fd5b602085015160409095015190969495509392505050565b610bc1806101796000396000f3fe608060405234801561001057600080fd5b506004361061010b5760003560e01c80638da5cb5b116100a2578063b621631311610071578063b621631314610256578063c22982f414610283578063cf27fa5914610296578063f2fde38b146102a9578063f61b3912146102bc5761010b565b80638da5cb5b14610206578063a75df49814610217578063a80a788214610220578063ad803292146102295761010b565b80635b56d6f5116100de5780635b56d6f5146101b757806362e90179146101ca578063715018a6146101dd57806376dffb8f146101e55761010b565b80631c31f710146101105780632f6b1de31461012557806334a144db1461017957806338af3eed1461018c575b600080fd5b61012361011e3660046109e5565b6102cf565b005b61015d610133366004610a33565b60046020908152600092835260408084209091529082529020805460019091015460ff9091169082565b6040805192151583526020830191909152015b60405180910390f35b610123610187366004610a67565b6103ad565b60015461019f906001600160a01b031681565b6040516001600160a01b039091168152602001610170565b6101236101c5366004610aa4565b61048b565b6101236101d8366004610a08565b610512565b6101236105d7565b6101f86101f3366004610a67565b61064b565b604051908152602001610170565b6000546001600160a01b031661019f565b6101f860055481565b6101f860065481565b61015d6102373660046109e5565b6003602052600090815260409020805460019091015460ff9091169082565b61015d6102643660046109e5565b6002602052600090815260409020805460019091015460ff9091169082565b610123610291366004610aa4565b610723565b6101f86102a4366004610a08565b6107a9565b6101236102b73660046109e5565b610821565b6101236102ca366004610a08565b61090b565b6000546001600160a01b031633146103025760405162461bcd60e51b81526004016102f990610af3565b60405180910390fd5b6001600160a01b0381166103585760405162461bcd60e51b815260206004820152601d60248201527f50657263656e746167654665654d6f64656c3a2030206164647265737300000060448201526064016102f9565b600180546001600160a01b0319166001600160a01b0383169081179091556040519081527f1008eccd86b7b0367a8fd91dc07c1796d0501cd3288389270be997f9cc24665b906020015b60405180910390a150565b6000546001600160a01b031633146103d75760405162461bcd60e51b81526004016102f990610af3565b6006548111156103f95760405162461bcd60e51b81526004016102f990610abc565b604080518082018252600180825260208083018581526001600160a01b03881660008181526004845286812067ffffffffffffffff8a16808352908552908790209551865460ff1916901515178655915194909301939093559251848152919290917f45bcfde99274157b8e396d5f9597cda3f7c2f22b57194968825f8fc0b3d3dc65910160405180910390a3505050565b6000546001600160a01b031633146104b55760405162461bcd60e51b81526004016102f990610af3565b6706f05b59d3b200008111156104dd5760405162461bcd60e51b81526004016102f990610abc565b60058190556040518181527f6ff80bf8e81736c9b9fef5e5c4392cba6b7eafde318448abbc0b23a0225b7c73906020016103a2565b6000546001600160a01b0316331461053c5760405162461bcd60e51b81526004016102f990610af3565b60065481111561055e5760405162461bcd60e51b81526004016102f990610abc565b604080518082018252600180825260208083018581526001600160a01b0387166000818152600384528690209451855460ff19169015151785559051939092019290925591518381527ff1fdf70a45a4286b9950b95c18fb99d2c0c5cc199d5bb1af0165e10060507cb791015b60405180910390a25050565b6000546001600160a01b031633146106015760405162461bcd60e51b81526004016102f990610af3565b600080546040516001600160a01b03909116907f8be0079c531659141344cd1fd0a4f28419497f9722a3daafe3b4186f6b6457e0908390a3600080546001600160a01b0319169055565b6001600160a01b038316600090815260046020908152604080832067ffffffffffffffff8616845282528083208151808301909252805460ff1615801583526001909101549282019290925282916106a957806020015191506106fc565b6001600160a01b0386166000908152600360209081526040918290208251808401909352805460ff161580158452600190910154918301919091526106f457806020015192506106fa565b60065492505b505b670de0b6b3a764000061070f8386610b48565b6107199190610b28565b9695505050505050565b6000546001600160a01b0316331461074d5760405162461bcd60e51b81526004016102f990610af3565b66b1a2bc2ec500008111156107745760405162461bcd60e51b81526004016102f990610abc565b60068190556040518181527fc656c564d59c68541966d62384d3182216f20674906b7f419623109a1f21a563906020016103a2565b6001600160a01b03821660009081526002602090815260408083208151808301909252805460ff1615801583526001909101549282019290925282916107f557806020015191506107fb565b60055491505b670de0b6b3a764000061080e8386610b48565b6108189190610b28565b95945050505050565b6000546001600160a01b0316331461084b5760405162461bcd60e51b81526004016102f990610af3565b6001600160a01b0381166108b05760405162461bcd60e51b815260206004820152602660248201527f4f776e61626c653a206e6577206f776e657220697320746865207a65726f206160448201526564647265737360d01b60648201526084016102f9565b600080546040516001600160a01b03808516939216917f8be0079c531659141344cd1fd0a4f28419497f9722a3daafe3b4186f6b6457e091a3600080546001600160a01b0319166001600160a01b0392909216919091179055565b6000546001600160a01b031633146109355760405162461bcd60e51b81526004016102f990610af3565b6005548111156109575760405162461bcd60e51b81526004016102f990610abc565b604080518082018252600180825260208083018581526001600160a01b0387166000818152600284528690209451855460ff19169015151785559051939092019290925591518381527f0fee88fe186b7ac05130d4f3b8203701b32ed67db58c3105692e85fdd7486f0b91016105cb565b803567ffffffffffffffff811681146109e057600080fd5b919050565b6000602082840312156109f6578081fd5b8135610a0181610b73565b9392505050565b60008060408385031215610a1a578081fd5b8235610a2581610b73565b946020939093013593505050565b60008060408385031215610a45578182fd5b8235610a5081610b73565b9150610a5e602084016109c8565b90509250929050565b600080600060608486031215610a7b578081fd5b8335610a8681610b73565b9250610a94602085016109c8565b9150604084013590509250925092565b600060208284031215610ab5578081fd5b5035919050565b6020808252601b908201527f50657263656e746167654665654d6f64656c3a20746f6f206269670000000000604082015260600190565b6020808252818101527f4f776e61626c653a2063616c6c6572206973206e6f7420746865206f776e6572604082015260600190565b600082610b4357634e487b7160e01b81526012600452602481fd5b500490565b6000816000190483118215151615610b6e57634e487b7160e01b81526011600452602481fd5b500290565b6001600160a01b0381168114610b8857600080fd5b5056fea26469706673582212205c4bbcce8f770074f53624bc609a37f014a717ee152d3c9452e61fb95108692f64736f6c63430008030033",
  "devdoc": {
    "kind": "dev",
    "methods": {
      "owner()": {
        "details": "Returns the address of the current owner."
      },
      "renounceOwnership()": {
        "details": "Leaves the contract without owner. It will not be possible to call `onlyOwner` functions anymore. Can only be called by the current owner. NOTE: Renouncing ownership will leave the contract without an owner, thereby removing any functionality that is only available to the owner."
      },
      "transferOwnership(address)": {
        "details": "Transfers ownership of the contract to a new account (`newOwner`). Can only be called by the current owner."
      }
    },
    "version": 1
  },
  "userdoc": {
    "kind": "user",
    "methods": {},
    "version": 1
  },
  "storageLayout": {
    "storage": [
      {
        "astId": 4228,
        "contract": "contracts/models/fee/PercentageFeeModel.sol:PercentageFeeModel",
        "label": "_owner",
        "offset": 0,
        "slot": "0",
        "type": "t_address"
      },
      {
        "astId": 15483,
        "contract": "contracts/models/fee/PercentageFeeModel.sol:PercentageFeeModel",
        "label": "beneficiary",
        "offset": 0,
        "slot": "1",
        "type": "t_address_payable"
      },
      {
        "astId": 15488,
        "contract": "contracts/models/fee/PercentageFeeModel.sol:PercentageFeeModel",
        "label": "interestFeeOverrideForPool",
        "offset": 0,
        "slot": "2",
        "type": "t_mapping(t_address,t_struct(FeeOverride)15480_storage)"
      },
      {
        "astId": 15493,
        "contract": "contracts/models/fee/PercentageFeeModel.sol:PercentageFeeModel",
        "label": "earlyWithdrawFeeOverrideForPool",
        "offset": 0,
        "slot": "3",
        "type": "t_mapping(t_address,t_struct(FeeOverride)15480_storage)"
      },
      {
        "astId": 15500,
        "contract": "contracts/models/fee/PercentageFeeModel.sol:PercentageFeeModel",
        "label": "earlyWithdrawFeeOverrideForDeposit",
        "offset": 0,
        "slot": "4",
        "type": "t_mapping(t_address,t_mapping(t_uint64,t_struct(FeeOverride)15480_storage))"
      },
      {
        "astId": 15502,
        "contract": "contracts/models/fee/PercentageFeeModel.sol:PercentageFeeModel",
        "label": "interestFee",
        "offset": 0,
        "slot": "5",
        "type": "t_uint256"
      },
      {
        "astId": 15504,
        "contract": "contracts/models/fee/PercentageFeeModel.sol:PercentageFeeModel",
        "label": "earlyWithdrawFee",
        "offset": 0,
        "slot": "6",
        "type": "t_uint256"
      }
    ],
    "types": {
      "t_address": {
        "encoding": "inplace",
        "label": "address",
        "numberOfBytes": "20"
      },
      "t_address_payable": {
        "encoding": "inplace",
        "label": "address payable",
        "numberOfBytes": "20"
      },
      "t_bool": {
        "encoding": "inplace",
        "label": "bool",
        "numberOfBytes": "1"
      },
      "t_mapping(t_address,t_mapping(t_uint64,t_struct(FeeOverride)15480_storage))": {
        "encoding": "mapping",
        "key": "t_address",
        "label": "mapping(address => mapping(uint64 => struct PercentageFeeModel.FeeOverride))",
        "numberOfBytes": "32",
        "value": "t_mapping(t_uint64,t_struct(FeeOverride)15480_storage)"
      },
      "t_mapping(t_address,t_struct(FeeOverride)15480_storage)": {
        "encoding": "mapping",
        "key": "t_address",
        "label": "mapping(address => struct PercentageFeeModel.FeeOverride)",
        "numberOfBytes": "32",
        "value": "t_struct(FeeOverride)15480_storage"
      },
      "t_mapping(t_uint64,t_struct(FeeOverride)15480_storage)": {
        "encoding": "mapping",
        "key": "t_uint64",
        "label": "mapping(uint64 => struct PercentageFeeModel.FeeOverride)",
        "numberOfBytes": "32",
        "value": "t_struct(FeeOverride)15480_storage"
      },
      "t_struct(FeeOverride)15480_storage": {
        "encoding": "inplace",
        "label": "struct PercentageFeeModel.FeeOverride",
        "members": [
          {
            "astId": 15477,
            "contract": "contracts/models/fee/PercentageFeeModel.sol:PercentageFeeModel",
            "label": "isOverridden",
            "offset": 0,
            "slot": "0",
            "type": "t_bool"
          },
          {
            "astId": 15479,
            "contract": "contracts/models/fee/PercentageFeeModel.sol:PercentageFeeModel",
            "label": "fee",
            "offset": 0,
            "slot": "1",
            "type": "t_uint256"
          }
        ],
        "numberOfBytes": "64"
      },
      "t_uint256": {
        "encoding": "inplace",
        "label": "uint256",
        "numberOfBytes": "32"
      },
      "t_uint64": {
        "encoding": "inplace",
        "label": "uint64",
        "numberOfBytes": "8"
      }
    }
  }
}