{
  "address": "0x0011C197d272C86F7A5847BFf291Ec6201EACB72",
  "abi": [
    {
      "anonymous": false,
      "inputs": [
        {
          "indexed": true,
          "internalType": "address",
          "name": "owner",
          "type": "address"
        },
        {
          "indexed": true,
          "internalType": "address",
          "name": "approved",
          "type": "address"
        },
        {
          "indexed": true,
          "internalType": "uint256",
          "name": "tokenId",
          "type": "uint256"
        }
      ],
      "name": "Approval",
      "type": "event"
    },
    {
      "anonymous": false,
      "inputs": [
        {
          "indexed": true,
          "internalType": "address",
          "name": "owner",
          "type": "address"
        },
        {
          "indexed": true,
          "internalType": "address",
          "name": "operator",
          "type": "address"
        },
        {
          "indexed": false,
          "internalType": "bool",
          "name": "approved",
          "type": "bool"
        }
      ],
      "name": "ApprovalForAll",
      "type": "event"
    },
    {
      "anonymous": false,
      "inputs": [
        {
          "indexed": true,
          "internalType": "uint64",
          "name": "vestID",
          "type": "uint64"
        },
        {
          "indexed": false,
          "internalType": "uint256",
          "name": "vestAmountPerStablecoinPerSecond",
          "type": "uint256"
        }
      ],
      "name": "EBoost",
      "type": "event"
    },
    {
      "anonymous": false,
      "inputs": [
        {
          "indexed": true,
          "internalType": "address",
          "name": "to",
          "type": "address"
        },
        {
          "indexed": true,
          "internalType": "address",
          "name": "pool",
          "type": "address"
        },
        {
          "indexed": false,
          "internalType": "uint64",
          "name": "depositID",
          "type": "uint64"
        },
        {
          "indexed": false,
          "internalType": "uint64",
          "name": "vestID",
          "type": "uint64"
        },
        {
          "indexed": false,
          "internalType": "uint256",
          "name": "vestAmountPerStablecoinPerSecond",
          "type": "uint256"
        }
      ],
      "name": "ECreateVest",
      "type": "event"
    },
    {
      "anonymous": false,
      "inputs": [
        {
          "indexed": false,
          "internalType": "address",
          "name": "newValue",
          "type": "address"
        }
      ],
      "name": "ESetMPHMinter",
      "type": "event"
    },
    {
      "anonymous": false,
      "inputs": [
        {
          "indexed": true,
          "internalType": "uint64",
          "name": "vestID",
          "type": "uint64"
        },
        {
          "indexed": false,
          "internalType": "address",
          "name": "poolAddress",
          "type": "address"
        },
        {
          "indexed": false,
          "internalType": "uint64",
          "name": "depositID",
          "type": "uint64"
        },
        {
          "indexed": false,
          "internalType": "uint256",
          "name": "currentDepositAmount",
          "type": "uint256"
        },
        {
          "indexed": false,
          "internalType": "uint256",
          "name": "depositAmount",
          "type": "uint256"
        },
        {
          "indexed": false,
          "internalType": "uint256",
          "name": "vestAmountPerStablecoinPerSecond",
          "type": "uint256"
        }
      ],
      "name": "EUpdateVest",
      "type": "event"
    },
    {
      "anonymous": false,
      "inputs": [
        {
          "indexed": true,
          "internalType": "address",
          "name": "sender",
          "type": "address"
        },
        {
          "indexed": true,
          "internalType": "uint64",
          "name": "vestID",
          "type": "uint64"
        },
        {
          "indexed": false,
          "internalType": "uint256",
          "name": "withdrawnAmount",
          "type": "uint256"
        }
      ],
      "name": "EWithdraw",
      "type": "event"
    },
    {
      "anonymous": false,
      "inputs": [
        {
          "indexed": true,
          "internalType": "address",
          "name": "previousOwner",
          "type": "address"
        },
        {
          "indexed": true,
          "internalType": "address",
          "name": "newOwner",
          "type": "address"
        }
      ],
      "name": "OwnershipTransferred",
      "type": "event"
    },
    {
      "anonymous": false,
      "inputs": [
        {
          "indexed": true,
          "internalType": "address",
          "name": "from",
          "type": "address"
        },
        {
          "indexed": true,
          "internalType": "address",
          "name": "to",
          "type": "address"
        },
        {
          "indexed": true,
          "internalType": "uint256",
          "name": "tokenId",
          "type": "uint256"
        }
      ],
      "name": "Transfer",
      "type": "event"
    },
    {
      "inputs": [
        {
          "internalType": "address",
          "name": "to",
          "type": "address"
        },
        {
          "internalType": "uint256",
          "name": "tokenId",
          "type": "uint256"
        }
      ],
      "name": "approve",
      "outputs": [],
      "stateMutability": "nonpayable",
      "type": "function"
    },
    {
      "inputs": [
        {
          "internalType": "address",
          "name": "owner",
          "type": "address"
        }
      ],
      "name": "balanceOf",
      "outputs": [
        {
          "internalType": "uint256",
          "name": "",
          "type": "uint256"
        }
      ],
      "stateMutability": "view",
      "type": "function"
    },
    {
      "inputs": [
        {
          "internalType": "uint64",
          "name": "vestID",
          "type": "uint64"
        },
        {
          "internalType": "uint256",
          "name": "vestAmountPerStablecoinPerSecond",
          "type": "uint256"
        }
      ],
      "name": "boost",
      "outputs": [],
      "stateMutability": "nonpayable",
      "type": "function"
    },
    {
      "inputs": [],
      "name": "contractURI",
      "outputs": [
        {
          "internalType": "string",
          "name": "",
          "type": "string"
        }
      ],
      "stateMutability": "view",
      "type": "function"
    },
    {
      "inputs": [
        {
          "internalType": "address",
          "name": "to",
          "type": "address"
        },
        {
          "internalType": "address",
          "name": "pool",
          "type": "address"
        },
        {
          "internalType": "uint64",
          "name": "depositID",
          "type": "uint64"
        },
        {
          "internalType": "uint256",
          "name": "vestAmountPerStablecoinPerSecond",
          "type": "uint256"
        }
      ],
      "name": "createVestForDeposit",
      "outputs": [
        {
          "internalType": "uint64",
          "name": "vestID",
          "type": "uint64"
        }
      ],
      "stateMutability": "nonpayable",
      "type": "function"
    },
    {
      "inputs": [
        {
          "internalType": "address",
          "name": "",
          "type": "address"
        },
        {
          "internalType": "uint64",
          "name": "",
          "type": "uint64"
        }
      ],
      "name": "depositIDToVestID",
      "outputs": [
        {
          "internalType": "uint64",
          "name": "",
          "type": "uint64"
        }
      ],
      "stateMutability": "view",
      "type": "function"
    },
    {
      "inputs": [
        {
          "internalType": "uint256",
          "name": "tokenId",
          "type": "uint256"
        }
      ],
      "name": "getApproved",
      "outputs": [
        {
          "internalType": "address",
          "name": "",
          "type": "address"
        }
      ],
      "stateMutability": "view",
      "type": "function"
    },
    {
      "inputs": [
        {
          "internalType": "uint64",
          "name": "vestID",
          "type": "uint64"
        }
      ],
      "name": "getVest",
      "outputs": [
        {
          "components": [
            {
              "internalType": "address",
              "name": "pool",
              "type": "address"
            },
            {
              "internalType": "uint64",
              "name": "depositID",
              "type": "uint64"
            },
            {
              "internalType": "uint64",
              "name": "lastUpdateTimestamp",
              "type": "uint64"
            },
            {
              "internalType": "uint256",
              "name": "accumulatedAmount",
              "type": "uint256"
            },
            {
              "internalType": "uint256",
              "name": "withdrawnAmount",
              "type": "uint256"
            },
            {
              "internalType": "uint256",
              "name": "vestAmountPerStablecoinPerSecond",
              "type": "uint256"
            }
          ],
          "internalType": "struct Vesting02.Vest",
          "name": "",
          "type": "tuple"
        }
      ],
      "stateMutability": "view",
      "type": "function"
    },
    {
      "inputs": [
        {
          "internalType": "uint64",
          "name": "vestID",
          "type": "uint64"
        }
      ],
      "name": "getVestWithdrawableAmount",
      "outputs": [
        {
          "internalType": "uint256",
          "name": "",
          "type": "uint256"
        }
      ],
      "stateMutability": "view",
      "type": "function"
    },
    {
      "inputs": [
        {
          "internalType": "address",
          "name": "_token",
          "type": "address"
        },
        {
          "internalType": "string",
          "name": "tokenName",
          "type": "string"
        },
        {
          "internalType": "string",
          "name": "tokenSymbol",
          "type": "string"
        }
      ],
      "name": "initialize",
      "outputs": [],
      "stateMutability": "nonpayable",
      "type": "function"
    },
    {
      "inputs": [
        {
          "internalType": "address",
          "name": "owner",
          "type": "address"
        },
        {
          "internalType": "address",
          "name": "operator",
          "type": "address"
        }
      ],
      "name": "isApprovedForAll",
      "outputs": [
        {
          "internalType": "bool",
          "name": "",
          "type": "bool"
        }
      ],
      "stateMutability": "view",
      "type": "function"
    },
    {
      "inputs": [],
      "name": "mphMinter",
      "outputs": [
        {
          "internalType": "contract MPHMinter",
          "name": "",
          "type": "address"
        }
      ],
      "stateMutability": "view",
      "type": "function"
    },
    {
      "inputs": [],
      "name": "name",
      "outputs": [
        {
          "internalType": "string",
          "name": "",
          "type": "string"
        }
      ],
      "stateMutability": "view",
      "type": "function"
    },
    {
      "inputs": [],
      "name": "numVests",
      "outputs": [
        {
          "internalType": "uint256",
          "name": "",
          "type": "uint256"
        }
      ],
      "stateMutability": "view",
      "type": "function"
    },
    {
      "inputs": [],
      "name": "owner",
      "outputs": [
        {
          "internalType": "address",
          "name": "",
          "type": "address"
        }
      ],
      "stateMutability": "view",
      "type": "function"
    },
    {
      "inputs": [
        {
          "internalType": "uint256",
          "name": "tokenId",
          "type": "uint256"
        }
      ],
      "name": "ownerOf",
      "outputs": [
        {
          "internalType": "address",
          "name": "",
          "type": "address"
        }
      ],
      "stateMutability": "view",
      "type": "function"
    },
    {
      "inputs": [],
      "name": "renounceOwnership",
      "outputs": [],
      "stateMutability": "nonpayable",
      "type": "function"
    },
    {
      "inputs": [
        {
          "internalType": "address",
          "name": "from",
          "type": "address"
        },
        {
          "internalType": "address",
          "name": "to",
          "type": "address"
        },
        {
          "internalType": "uint256",
          "name": "tokenId",
          "type": "uint256"
        }
      ],
      "name": "safeTransferFrom",
      "outputs": [],
      "stateMutability": "nonpayable",
      "type": "function"
    },
    {
      "inputs": [
        {
          "internalType": "address",
          "name": "from",
          "type": "address"
        },
        {
          "internalType": "address",
          "name": "to",
          "type": "address"
        },
        {
          "internalType": "uint256",
          "name": "tokenId",
          "type": "uint256"
        },
        {
          "internalType": "bytes",
          "name": "_data",
          "type": "bytes"
        }
      ],
      "name": "safeTransferFrom",
      "outputs": [],
      "stateMutability": "nonpayable",
      "type": "function"
    },
    {
      "inputs": [
        {
          "internalType": "address",
          "name": "operator",
          "type": "address"
        },
        {
          "internalType": "bool",
          "name": "approved",
          "type": "bool"
        }
      ],
      "name": "setApprovalForAll",
      "outputs": [],
      "stateMutability": "nonpayable",
      "type": "function"
    },
    {
      "inputs": [
        {
          "internalType": "string",
          "name": "newURI",
          "type": "string"
        }
      ],
      "name": "setBaseURI",
      "outputs": [],
      "stateMutability": "nonpayable",
      "type": "function"
    },
    {
      "inputs": [
        {
          "internalType": "string",
          "name": "newURI",
          "type": "string"
        }
      ],
      "name": "setContractURI",
      "outputs": [],
      "stateMutability": "nonpayable",
      "type": "function"
    },
    {
      "inputs": [
        {
          "internalType": "address",
          "name": "newValue",
          "type": "address"
        }
      ],
      "name": "setMPHMinter",
      "outputs": [],
      "stateMutability": "nonpayable",
      "type": "function"
    },
    {
      "inputs": [
        {
          "internalType": "uint256",
          "name": "tokenId",
          "type": "uint256"
        },
        {
          "internalType": "string",
          "name": "newURI",
          "type": "string"
        }
      ],
      "name": "setTokenURI",
      "outputs": [],
      "stateMutability": "nonpayable",
      "type": "function"
    },
    {
      "inputs": [
        {
          "internalType": "bytes4",
          "name": "interfaceId",
          "type": "bytes4"
        }
      ],
      "name": "supportsInterface",
      "outputs": [
        {
          "internalType": "bool",
          "name": "",
          "type": "bool"
        }
      ],
      "stateMutability": "view",
      "type": "function"
    },
    {
      "inputs": [],
      "name": "symbol",
      "outputs": [
        {
          "internalType": "string",
          "name": "",
          "type": "string"
        }
      ],
      "stateMutability": "view",
      "type": "function"
    },
    {
      "inputs": [],
      "name": "token",
      "outputs": [
        {
          "internalType": "contract IERC20",
          "name": "",
          "type": "address"
        }
      ],
      "stateMutability": "view",
      "type": "function"
    },
    {
      "inputs": [
        {
          "internalType": "uint256",
          "name": "tokenId",
          "type": "uint256"
        }
      ],
      "name": "tokenURI",
      "outputs": [
        {
          "internalType": "string",
          "name": "",
          "type": "string"
        }
      ],
      "stateMutability": "view",
      "type": "function"
    },
    {
      "inputs": [
        {
          "internalType": "address",
          "name": "from",
          "type": "address"
        },
        {
          "internalType": "address",
          "name": "to",
          "type": "address"
        },
        {
          "internalType": "uint256",
          "name": "tokenId",
          "type": "uint256"
        }
      ],
      "name": "transferFrom",
      "outputs": [],
      "stateMutability": "nonpayable",
      "type": "function"
    },
    {
      "inputs": [
        {
          "internalType": "address",
          "name": "newOwner",
          "type": "address"
        }
      ],
      "name": "transferOwnership",
      "outputs": [],
      "stateMutability": "nonpayable",
      "type": "function"
    },
    {
      "inputs": [
        {
          "internalType": "address",
          "name": "poolAddress",
          "type": "address"
        },
        {
          "internalType": "uint64",
          "name": "depositID",
          "type": "uint64"
        },
        {
          "internalType": "uint256",
          "name": "currentDepositAmount",
          "type": "uint256"
        },
        {
          "internalType": "uint256",
          "name": "depositAmount",
          "type": "uint256"
        },
        {
          "internalType": "uint256",
          "name": "vestAmountPerStablecoinPerSecond",
          "type": "uint256"
        }
      ],
      "name": "updateVestForDeposit",
      "outputs": [],
      "stateMutability": "nonpayable",
      "type": "function"
    },
    {
      "inputs": [
        {
          "internalType": "uint256",
          "name": "",
          "type": "uint256"
        }
      ],
      "name": "vestList",
      "outputs": [
        {
          "internalType": "address",
          "name": "pool",
          "type": "address"
        },
        {
          "internalType": "uint64",
          "name": "depositID",
          "type": "uint64"
        },
        {
          "internalType": "uint64",
          "name": "lastUpdateTimestamp",
          "type": "uint64"
        },
        {
          "internalType": "uint256",
          "name": "accumulatedAmount",
          "type": "uint256"
        },
        {
          "internalType": "uint256",
          "name": "withdrawnAmount",
          "type": "uint256"
        },
        {
          "internalType": "uint256",
          "name": "vestAmountPerStablecoinPerSecond",
          "type": "uint256"
        }
      ],
      "stateMutability": "view",
      "type": "function"
    },
    {
      "inputs": [
        {
          "internalType": "uint64",
          "name": "vestID",
          "type": "uint64"
        }
      ],
      "name": "withdraw",
      "outputs": [
        {
          "internalType": "uint256",
          "name": "withdrawnAmount",
          "type": "uint256"
        }
      ],
      "stateMutability": "nonpayable",
      "type": "function"
    }
  ],
  "transactionHash": "0x45580c5019a31026ebff554f3b1d2af5130eb6609faca25cf5153e73ebed9c9f",
  "args": [],
  "solcInputHash": "fbe95786a37438a01254e8361288bd45",
  "bytecode": "0x608060405234801561001057600080fd5b50612f49806100206000396000f3fe608060405234801561001057600080fd5b50600436106101fb5760003560e01c806370a082311161011a578063a22cb465116100ad578063c87b56dd1161007c578063c87b56dd14610507578063e8a3d4851461051a578063e985e9c514610522578063f2fde38b1461055e578063fc0c546a14610571576101fb565b8063a22cb465146104bb578063a832806b146104ce578063b88d4fde146104e1578063c64e2540146104f4576101fb565b80638da5cb5b116100e95780638da5cb5b1461047c578063906571471461048d578063938e3d7b146104a057806395d89b41146104b3576101fb565b806370a082311461043b578063715018a61461044e578063750f0acc146104565780638185772114610469576101fb565b8063324d4255116101925780636352211e116101615780636352211e1461039257806366f64eec146103a55780636e24af11146103b75780636f5d250414610428576101fb565b8063324d42551461030257806342842e0e146103595780634b0f59da1461036c57806355f804b31461037f576101fb565b8063095ea7b3116101ce578063095ea7b31461027d57806309a3104414610290578063162094c4146102dc57806323b872dd146102ef576101fb565b806301f2249b1461020057806301ffc9a71461021557806306fdde031461023d578063081812fc14610252575b600080fd5b61021361020e3660046126e2565b610584565b005b6102286102233660046129c5565b610658565b60405190151581526020015b60405180910390f35b6102456106ac565b6040516102349190612bf0565b610265610260366004612aa6565b61073e565b6040516001600160a01b039091168152602001610234565b61021361028b366004612923565b6107c6565b6102c461029e36600461294c565b60fc6020908152600092835260408084209091529082529020546001600160401b031681565b6040516001600160401b039091168152602001610234565b6102136102ea366004612ad6565b6108dc565b6102136102fd36600461272e565b61097c565b610315610310366004612aa6565b6109ad565b604080516001600160a01b039790971687526001600160401b03958616602088015293909416928501929092526060840152608083015260a082015260c001610234565b61021361036736600461272e565b610a0d565b61021361037a366004612977565b610a28565b61021361038d3660046129fd565b610c9d565b6102656103a0366004612aa6565b610cd4565b60fb545b604051908152602001610234565b6103ca6103c5366004612b1f565b610d4b565b6040805182516001600160a01b031681526020808401516001600160401b0390811691830191909152838301511691810191909152606080830151908201526080808301519082015260a0918201519181019190915260c001610234565b6103a9610436366004612b1f565b610de7565b6103a96104493660046126e2565b610df2565b610213610e79565b6103a9610464366004612b1f565b610eed565b6102c4610477366004612820565b611058565b60c9546001600160a01b0316610265565b61021361049b3660046128a6565b611302565b6102136104ae3660046129fd565b611409565b61024561143f565b6102136104c936600461286c565b61144e565b60fd54610265906001600160a01b031681565b6102136104ef366004612769565b611520565b610213610502366004612b3b565b611558565b610245610515366004612aa6565b6115d2565b61024561173d565b6102286105303660046126fc565b6001600160a01b039182166000908152606a6020908152604080832093909416825291909152205460ff1690565b61021361056c3660046126e2565b61174c565b60fe54610265906001600160a01b031681565b60c9546001600160a01b031633146105b75760405162461bcd60e51b81526004016105ae90612cd0565b60405180910390fd5b6001600160a01b0381166106045760405162461bcd60e51b815260206004820152601460248201527356657374696e6730323a2030206164647265737360601b60448201526064016105ae565b60fd80546001600160a01b0319166001600160a01b0383169081179091556040519081527f41357c0f22ad78e2136e55921a8fa193f42b176952f98506b1798df4a28a787f9060200160405180910390a150565b60006001600160e01b031982166380ac58cd60e01b148061068957506001600160e01b03198216635b5e139f60e01b145b806106a457506301ffc9a760e01b6001600160e01b03198316145b90505b919050565b6060606580546106bb90612e3c565b80601f01602080910402602001604051908101604052809291908181526020018280546106e790612e3c565b80156107345780601f1061070957610100808354040283529160200191610734565b820191906000526020600020905b81548152906001019060200180831161071757829003601f168201915b5050505050905090565b600061074982611837565b6107aa5760405162461bcd60e51b815260206004820152602c60248201527f4552433732313a20617070726f76656420717565727920666f72206e6f6e657860448201526b34b9ba32b73a103a37b5b2b760a11b60648201526084016105ae565b506000908152606960205260409020546001600160a01b031690565b60006107d182610cd4565b9050806001600160a01b0316836001600160a01b0316141561083f5760405162461bcd60e51b815260206004820152602160248201527f4552433732313a20617070726f76616c20746f2063757272656e74206f776e656044820152603960f91b60648201526084016105ae565b336001600160a01b038216148061085b575061085b8133610530565b6108cd5760405162461bcd60e51b815260206004820152603860248201527f4552433732313a20617070726f76652063616c6c6572206973206e6f74206f7760448201527f6e6572206e6f7220617070726f76656420666f7220616c6c000000000000000060648201526084016105ae565b6108d78383611854565b505050565b336108e684610cd4565b6001600160a01b03161461093c5760405162461bcd60e51b815260206004820152601a60248201527f56657374696e6730323a206e6f7420746f6b656e206f776e657200000000000060448201526064016105ae565b6108d78383838080601f0160208091040260200160405190810160405280939291908181526020018383808284376000920191909152506118c292505050565b610986338261194d565b6109a25760405162461bcd60e51b81526004016105ae90612d05565b6108d7838383611a33565b60fb81815481106109bd57600080fd5b6000918252602090912060059091020180546001820154600283015460038401546004909401546001600160a01b0384169550600160a01b9093046001600160401b039081169492169290919086565b6108d783838360405180602001604052806000815250611520565b60fd546001600160a01b03163314610a7a5760405162461bcd60e51b81526020600482015260156024820152742b32b9ba34b73398191d103737ba1036b4b73a32b960591b60448201526064016105ae565b6001600160a01b038516600090815260fc602090815260408083206001600160401b03808916855292528220541690610ab282611bd3565b805460405163572cd35960e11b8152600160a01b9091046001600160401b0316600482015290915087906000906001600160a01b0383169063ae59a6b29060240160c06040518083038186803b158015610b0b57600080fd5b505afa158015610b1f573d6000803e3d6000fd5b505050506040513d601f19601f82011682018060405250810190610b439190612a3c565b90506000610b5e4283608001516001600160401b0316611c1e565b60048501546001860154919250610b9291610b82906001600160401b031684612dd1565b610b8c908b612db2565b90611c36565b846002016000828254610ba59190612d86565b90915550506001600160401b03421115610bd15760405162461bcd60e51b81526004016105ae90612ca3565b60018401805467ffffffffffffffff1916426001600160401b0316179055610bf98789612d86565b610c038888612db2565b898660040154610c139190612db2565b610c1d9190612d86565b610c279190612d9e565b6004850155604080516001600160a01b038c1681526001600160401b038b811660208301529181018a90526060810189905260808101889052908616907f835b1e7911538b7d1d6d467ff84af9b699c7a9432ba848eae1e41d7fb551a1319060a00160405180910390a250505050505050505050565b60c9546001600160a01b03163314610cc75760405162461bcd60e51b81526004016105ae90612cd0565b6108d76101008383612578565b6000818152606760205260408120546001600160a01b0316806106a45760405162461bcd60e51b815260206004820152602960248201527f4552433732313a206f776e657220717565727920666f72206e6f6e657869737460448201526832b73a103a37b5b2b760b91b60648201526084016105ae565b6040805160c081018252600080825260208201819052918101829052606081018290526080810182905260a0810191909152610d8682611bd3565b6040805160c08101825282546001600160a01b0381168252600160a01b90046001600160401b03908116602083015260018401541691810191909152600282015460608201526003820154608082015260049091015460a082015292915050565b60006106a482611c55565b60006001600160a01b038216610e5d5760405162461bcd60e51b815260206004820152602a60248201527f4552433732313a2062616c616e636520717565727920666f7220746865207a65604482015269726f206164647265737360b01b60648201526084016105ae565b506001600160a01b031660009081526068602052604090205490565b60c9546001600160a01b03163314610ea35760405162461bcd60e51b81526004016105ae90612cd0565b60c9546040516000916001600160a01b0316907f8be0079c531659141344cd1fd0a4f28419497f9722a3daafe3b4186f6b6457e0908390a360c980546001600160a01b0319169055565b600033610f026001600160401b038416610cd4565b6001600160a01b031614610f4f5760405162461bcd60e51b81526020600482015260146024820152732b32b9ba34b73398191d103737ba1037bbb732b960611b60448201526064016105ae565b610f5882611c55565b905080610f67575060006106a7565b6000610f7283611bd3565b905081816003016000828254610f889190612d86565b909155505060fd54604051631d1e508560e21b8152336004820152602481018490526001600160a01b0390911690637479421490604401602060405180830381600087803b158015610fd957600080fd5b505af1158015610fed573d6000803e3d6000fd5b505050506040513d601f19601f820116820180604052508101906110119190612abe565b506040518281526001600160401b0384169033907f4a75429c7f26c0ae1bb7fc13f974e6c991033159dd1c5b1589711146e4b4d6a59060200160405180910390a350919050565b60fd546000906001600160a01b031633146110ad5760405162461bcd60e51b81526020600482015260156024820152742b32b9ba34b73398191d103737ba1036b4b73a32b960591b60448201526064016105ae565b6001600160401b034211156110d45760405162461bcd60e51b81526004016105ae90612ca3565b6040805160c0810182526001600160a01b0380871682526001600160401b03808716602084019081524282169484019485526000606085018181526080860182815260a087018a815260fb805460018101825594819052975160059094027f3e7257b7272bb46d49cd6019b04ddee20da7c0cb13f7c1ec3391291b2ccebabc8101805496518816600160a01b026001600160e01b031990971695909816949094179490941790955595517f3e7257b7272bb46d49cd6019b04ddee20da7c0cb13f7c1ec3391291b2ccebabd8201805491851667ffffffffffffffff1990921691909117905594517f3e7257b7272bb46d49cd6019b04ddee20da7c0cb13f7c1ec3391291b2ccebabe86015591517f3e7257b7272bb46d49cd6019b04ddee20da7c0cb13f7c1ec3391291b2ccebabf85015590517f3e7257b7272bb46d49cd6019b04ddee20da7c0cb13f7c1ec3391291b2ccebac09093019290925554111561124e5760405162461bcd60e51b81526004016105ae90612ca3565b5060fb546001600160a01b038416600090815260fc602090815260408083206001600160401b0387811685529252909120805467ffffffffffffffff1916918316918217905561129f908690611dfb565b604080516001600160401b038086168252831660208201529081018390526001600160a01b0380861691908716907ff9134cc715a48a342d8c1d732084af37db31480b1cc4253b836524661fa4a4bb9060600160405180910390a3949350505050565b600054610100900460ff168061131b575060005460ff16155b6113375760405162461bcd60e51b81526004016105ae90612c55565b600054610100900460ff16158015611359576000805461ffff19166101011790555b611361611e19565b6113d485858080601f01602080910402602001604051908101604052809392919081815260200183838082843760009201919091525050604080516020601f89018190048102820181019092528781529250879150869081908401838280828437600092019190915250611e9592505050565b60fe80546001600160a01b0319166001600160a01b0388161790558015611401576000805461ff00191690555b505050505050565b60c9546001600160a01b031633146114335760405162461bcd60e51b81526004016105ae90612cd0565b6108d760ff8383612578565b6060606680546106bb90612e3c565b6001600160a01b0382163314156114a75760405162461bcd60e51b815260206004820152601960248201527f4552433732313a20617070726f766520746f2063616c6c65720000000000000060448201526064016105ae565b336000818152606a602090815260408083206001600160a01b0387168085529252909120805460ff1916841515179055906001600160a01b03167f17307eab39ab6107e8899845ad3d59bd9653f200f220920489ca2b5937696c3183604051611514911515815260200190565b60405180910390a35050565b61152a338361194d565b6115465760405162461bcd60e51b81526004016105ae90612d05565b61155284848484611f1c565b50505050565b60c9546001600160a01b031633146115825760405162461bcd60e51b81526004016105ae90612cd0565b8061158c83611bd3565b600401556040518181526001600160401b038316907f560647f077942a4f7e7b08ed7311a936ac1fe3f815efb17339f17662127ded239060200160405180910390a25050565b60606115dd82611837565b6116435760405162461bcd60e51b815260206004820152603160248201527f45524337323155524953746f726167653a2055524920717565727920666f72206044820152703737b732bc34b9ba32b73a103a37b5b2b760791b60648201526084016105ae565b6000828152609760205260408120805461165c90612e3c565b80601f016020809104026020016040519081016040528092919081815260200182805461168890612e3c565b80156116d55780601f106116aa576101008083540402835291602001916116d5565b820191906000526020600020905b8154815290600101906020018083116116b857829003601f168201915b5050505050905060006116e6611f4f565b90508051600014156116fa575090506106a7565b81511561172c578082604051602001611714929190612b84565b604051602081830303815290604052925050506106a7565b61173584611f5f565b949350505050565b606060ff80546106bb90612e3c565b60c9546001600160a01b031633146117765760405162461bcd60e51b81526004016105ae90612cd0565b6001600160a01b0381166117db5760405162461bcd60e51b815260206004820152602660248201527f4f776e61626c653a206e6577206f776e657220697320746865207a65726f206160448201526564647265737360d01b60648201526084016105ae565b60c9546040516001600160a01b038084169216907f8be0079c531659141344cd1fd0a4f28419497f9722a3daafe3b4186f6b6457e090600090a360c980546001600160a01b0319166001600160a01b0392909216919091179055565b6000908152606760205260409020546001600160a01b0316151590565b600081815260696020526040902080546001600160a01b0319166001600160a01b038416908117909155819061188982610cd4565b6001600160a01b03167f8c5be1e5ebec7d5bd14f71427d1e84f3dd0314c0f7b2291e5b200ac8c7c3b92560405160405180910390a45050565b6118cb82611837565b61192e5760405162461bcd60e51b815260206004820152602e60248201527f45524337323155524953746f726167653a2055524920736574206f66206e6f6e60448201526d32bc34b9ba32b73a103a37b5b2b760911b60648201526084016105ae565b600082815260976020908152604090912082516108d7928401906125fc565b600061195882611837565b6119b95760405162461bcd60e51b815260206004820152602c60248201527f4552433732313a206f70657261746f7220717565727920666f72206e6f6e657860448201526b34b9ba32b73a103a37b5b2b760a11b60648201526084016105ae565b60006119c483610cd4565b9050806001600160a01b0316846001600160a01b031614806119ff5750836001600160a01b03166119f48461073e565b6001600160a01b0316145b8061173557506001600160a01b038082166000908152606a602090815260408083209388168352929052205460ff16611735565b826001600160a01b0316611a4682610cd4565b6001600160a01b031614611aae5760405162461bcd60e51b815260206004820152602960248201527f4552433732313a207472616e73666572206f6620746f6b656e2074686174206960448201526839903737ba1037bbb760b91b60648201526084016105ae565b6001600160a01b038216611b105760405162461bcd60e51b8152602060048201526024808201527f4552433732313a207472616e7366657220746f20746865207a65726f206164646044820152637265737360e01b60648201526084016105ae565b611b1b600082611854565b6001600160a01b0383166000908152606860205260408120805460019290611b44908490612dd1565b90915550506001600160a01b0382166000908152606860205260408120805460019290611b72908490612d86565b909155505060008181526067602052604080822080546001600160a01b0319166001600160a01b0386811691821790925591518493918716917fddf252ad1be2c89b69c2b068fc378daa952ba7f163c4a11628f55a4df523b3ef91a4505050565b600060fb611be2600184612de8565b6001600160401b031681548110611c0957634e487b7160e01b600052603260045260246000fd5b90600052602060002090600502019050919050565b6000818310611c2d5781611c2f565b825b9392505050565b6000670de0b6b3a7640000611c4b8385612db2565b611c2f9190612d9e565b600080611c6183611bd3565b6040805160c08101825282546001600160a01b0381168083526001600160401b03600160a01b909204821660208401819052600186015490921683850152600285015460608401526003850154608084015260049485015460a0840152925163572cd35960e11b815293840152925090600090829063ae59a6b29060240160c06040518083038186803b158015611cf757600080fd5b505afa158015611d0b573d6000803e3d6000fd5b505050506040513d601f19601f82011682018060405250810190611d2f9190612a3c565b90506000611d4a4283608001516001600160401b0316611c1e565b905083604001516001600160401b0316811015611d805783608001518460600151611d759190612dd1565b9450505050506106a7565b6000611da58360200151670de0b6b3a7640000611d9d9190612d86565b845190612029565b90508460800151611dd78660a0015187604001516001600160401b031685611dcd9190612dd1565b610b8c9085612db2565b8660600151611de69190612d86565b611df09190612dd1565b979650505050505050565b611e1582826040518060200160405280600081525061203e565b5050565b600054610100900460ff1680611e32575060005460ff16155b611e4e5760405162461bcd60e51b81526004016105ae90612c55565b600054610100900460ff16158015611e70576000805461ffff19166101011790555b611e78612071565b611e806120db565b8015611e92576000805461ff00191690555b50565b600054610100900460ff1680611eae575060005460ff16155b611eca5760405162461bcd60e51b81526004016105ae90612c55565b600054610100900460ff16158015611eec576000805461ffff19166101011790555b611ef4612071565b611efc612071565b611f068383612189565b80156108d7576000805461ff0019169055505050565b611f27848484611a33565b611f338484848461221e565b6115525760405162461bcd60e51b81526004016105ae90612c03565b606061010080546106bb90612e3c565b6060611f6a82611837565b611fce5760405162461bcd60e51b815260206004820152602f60248201527f4552433732314d657461646174613a2055524920717565727920666f72206e6f60448201526e3732bc34b9ba32b73a103a37b5b2b760891b60648201526084016105ae565b6000611fd8611f4f565b90506000815111611ff85760405180602001604052806000815250611c2f565b806120028461232b565b604051602001612013929190612b84565b6040516020818303038152906040529392505050565b600081611c4b670de0b6b3a764000085612db2565b6120488383612445565b612055600084848461221e565b6108d75760405162461bcd60e51b81526004016105ae90612c03565b600054610100900460ff168061208a575060005460ff16155b6120a65760405162461bcd60e51b81526004016105ae90612c55565b600054610100900460ff16158015611e80576000805461ffff19166101011790558015611e92576000805461ff001916905550565b600054610100900460ff16806120f4575060005460ff16155b6121105760405162461bcd60e51b81526004016105ae90612c55565b600054610100900460ff16158015612132576000805461ffff19166101011790555b60c980546001600160a01b0319163390811790915560405181906000907f8be0079c531659141344cd1fd0a4f28419497f9722a3daafe3b4186f6b6457e0908290a3508015611e92576000805461ff001916905550565b600054610100900460ff16806121a2575060005460ff16155b6121be5760405162461bcd60e51b81526004016105ae90612c55565b600054610100900460ff161580156121e0576000805461ffff19166101011790555b82516121f39060659060208601906125fc565b5081516122079060669060208501906125fc565b5080156108d7576000805461ff0019169055505050565b60006001600160a01b0384163b1561232057604051630a85bd0160e11b81526001600160a01b0385169063150b7a0290612262903390899088908890600401612bb3565b602060405180830381600087803b15801561227c57600080fd5b505af19250505080156122ac575060408051601f3d908101601f191682019092526122a9918101906129e1565b60015b612306573d8080156122da576040519150601f19603f3d011682016040523d82523d6000602084013e6122df565b606091505b5080516122fe5760405162461bcd60e51b81526004016105ae90612c03565b805181602001fd5b6001600160e01b031916630a85bd0160e11b149050611735565b506001949350505050565b60608161235057506040805180820190915260018152600360fc1b60208201526106a7565b8160005b811561237a578061236481612e77565b91506123739050600a83612d9e565b9150612354565b6000816001600160401b038111156123a257634e487b7160e01b600052604160045260246000fd5b6040519080825280601f01601f1916602001820160405280156123cc576020820181803683370190505b5090505b8415611735576123e1600183612dd1565b91506123ee600a86612e92565b6123f9906030612d86565b60f81b81838151811061241c57634e487b7160e01b600052603260045260246000fd5b60200101906001600160f81b031916908160001a90535061243e600a86612d9e565b94506123d0565b6001600160a01b03821661249b5760405162461bcd60e51b815260206004820181905260248201527f4552433732313a206d696e7420746f20746865207a65726f206164647265737360448201526064016105ae565b6124a481611837565b156124f15760405162461bcd60e51b815260206004820152601c60248201527f4552433732313a20746f6b656e20616c7265616479206d696e7465640000000060448201526064016105ae565b6001600160a01b038216600090815260686020526040812080546001929061251a908490612d86565b909155505060008181526067602052604080822080546001600160a01b0319166001600160a01b03861690811790915590518392907fddf252ad1be2c89b69c2b068fc378daa952ba7f163c4a11628f55a4df523b3ef908290a45050565b82805461258490612e3c565b90600052602060002090601f0160209004810192826125a657600085556125ec565b82601f106125bf5782800160ff198235161785556125ec565b828001600101855582156125ec579182015b828111156125ec5782358255916020019190600101906125d1565b506125f8929150612670565b5090565b82805461260890612e3c565b90600052602060002090601f01602090048101928261262a57600085556125ec565b82601f1061264357805160ff19168380011785556125ec565b828001600101855582156125ec579182015b828111156125ec578251825591602001919060010190612655565b5b808211156125f85760008155600101612671565b80356001600160a01b03811681146106a757600080fd5b60008083601f8401126126ad578182fd5b5081356001600160401b038111156126c3578182fd5b6020830191508360208285010111156126db57600080fd5b9250929050565b6000602082840312156126f3578081fd5b611c2f82612685565b6000806040838503121561270e578081fd5b61271783612685565b915061272560208401612685565b90509250929050565b600080600060608486031215612742578081fd5b61274b84612685565b925061275960208501612685565b9150604084013590509250925092565b6000806000806080858703121561277e578081fd5b61278785612685565b93506020612796818701612685565b93506040860135925060608601356001600160401b03808211156127b8578384fd5b818801915088601f8301126127cb578384fd5b8135818111156127dd576127dd612ed2565b6127ef601f8201601f19168501612d56565b91508082528984828501011115612804578485fd5b8084840185840137810190920192909252939692955090935050565b60008060008060808587031215612835578384fd5b61283e85612685565b935061284c60208601612685565b9250604085013561285c81612efe565b9396929550929360600135925050565b6000806040838503121561287e578182fd5b61288783612685565b91506020830135801515811461289b578182fd5b809150509250929050565b6000806000806000606086880312156128bd578081fd5b6128c686612685565b945060208601356001600160401b03808211156128e1578283fd5b6128ed89838a0161269c565b90965094506040880135915080821115612905578283fd5b506129128882890161269c565b969995985093965092949392505050565b60008060408385031215612935578182fd5b61293e83612685565b946020939093013593505050565b6000806040838503121561295e578182fd5b61296783612685565b9150602083013561289b81612efe565b600080600080600060a0868803121561298e578283fd5b61299786612685565b945060208601356129a781612efe565b94979496505050506040830135926060810135926080909101359150565b6000602082840312156129d6578081fd5b8135611c2f81612ee8565b6000602082840312156129f2578081fd5b8151611c2f81612ee8565b60008060208385031215612a0f578182fd5b82356001600160401b03811115612a24578283fd5b612a308582860161269c565b90969095509350505050565b600060c08284031215612a4d578081fd5b612a5760c0612d56565b825181526020830151602082015260408301516040820152606083015160608201526080830151612a8781612efe565b608082015260a0830151612a9a81612efe565b60a08201529392505050565b600060208284031215612ab7578081fd5b5035919050565b600060208284031215612acf578081fd5b5051919050565b600080600060408486031215612aea578081fd5b8335925060208401356001600160401b03811115612b06578182fd5b612b128682870161269c565b9497909650939450505050565b600060208284031215612b30578081fd5b8135611c2f81612efe565b60008060408385031215612b4d578182fd5b823561293e81612efe565b60008151808452612b70816020860160208601612e10565b601f01601f19169290920160200192915050565b60008351612b96818460208801612e10565b835190830190612baa818360208801612e10565b01949350505050565b6001600160a01b0385811682528416602082015260408101839052608060608201819052600090612be690830184612b58565b9695505050505050565b600060208252611c2f6020830184612b58565b60208082526032908201527f4552433732313a207472616e7366657220746f206e6f6e20455243373231526560408201527131b2b4bb32b91034b6b83632b6b2b73a32b960711b606082015260800190565b6020808252602e908201527f496e697469616c697a61626c653a20636f6e747261637420697320616c72656160408201526d191e481a5b9a5d1a585b1a5e995960921b606082015260800190565b60208082526013908201527256657374696e6730323a204f564552464c4f5760681b604082015260600190565b6020808252818101527f4f776e61626c653a2063616c6c6572206973206e6f7420746865206f776e6572604082015260600190565b60208082526031908201527f4552433732313a207472616e736665722063616c6c6572206973206e6f74206f6040820152701ddb995c881b9bdc88185c1c1c9bdd9959607a1b606082015260800190565b604051601f8201601f191681016001600160401b0381118282101715612d7e57612d7e612ed2565b604052919050565b60008219821115612d9957612d99612ea6565b500190565b600082612dad57612dad612ebc565b500490565b6000816000190483118215151615612dcc57612dcc612ea6565b500290565b600082821015612de357612de3612ea6565b500390565b60006001600160401b0383811690831681811015612e0857612e08612ea6565b039392505050565b60005b83811015612e2b578181015183820152602001612e13565b838111156115525750506000910152565b600181811c90821680612e5057607f821691505b60208210811415612e7157634e487b7160e01b600052602260045260246000fd5b50919050565b6000600019821415612e8b57612e8b612ea6565b5060010190565b600082612ea157612ea1612ebc565b500690565b634e487b7160e01b600052601160045260246000fd5b634e487b7160e01b600052601260045260246000fd5b634e487b7160e01b600052604160045260246000fd5b6001600160e01b031981168114611e9257600080fd5b6001600160401b0381168114611e9257600080fdfea2646970667358221220e2aa22ac123aaabedb60b60ab1ca0b7d03b600f9db107b05a85dfba3c0b24ff964736f6c63430008030033",
  "devdoc": {
    "kind": "dev",
    "methods": {
      "approve(address,uint256)": {
        "details": "See {IERC721-approve}."
      },
      "balanceOf(address)": {
        "details": "See {IERC721-balanceOf}."
      },
      "getApproved(uint256)": {
        "details": "See {IERC721-getApproved}."
      },
      "isApprovedForAll(address,address)": {
        "details": "See {IERC721-isApprovedForAll}."
      },
      "name()": {
        "details": "See {IERC721Metadata-name}."
      },
      "owner()": {
        "details": "Returns the address of the current owner."
      },
      "ownerOf(uint256)": {
        "details": "See {IERC721-ownerOf}."
      },
      "renounceOwnership()": {
        "details": "Leaves the contract without owner. It will not be possible to call `onlyOwner` functions anymore. Can only be called by the current owner. NOTE: Renouncing ownership will leave the contract without an owner, thereby removing any functionality that is only available to the owner."
      },
      "safeTransferFrom(address,address,uint256)": {
        "details": "See {IERC721-safeTransferFrom}."
      },
      "safeTransferFrom(address,address,uint256,bytes)": {
        "details": "See {IERC721-safeTransferFrom}."
      },
      "setApprovalForAll(address,bool)": {
        "details": "See {IERC721-setApprovalForAll}."
      },
      "supportsInterface(bytes4)": {
        "details": "See {IERC165-supportsInterface}."
      },
      "symbol()": {
        "details": "See {IERC721Metadata-symbol}."
      },
      "tokenURI(uint256)": {
        "details": "See {IERC721Metadata-tokenURI}."
      },
      "transferFrom(address,address,uint256)": {
        "details": "See {IERC721-transferFrom}."
      },
      "transferOwnership(address)": {
        "details": "Transfers ownership of the contract to a new account (`newOwner`). Can only be called by the current owner."
      }
    },
    "version": 1
  },
  "userdoc": {
    "kind": "user",
    "methods": {
      "contractURI()": {
        "notice": "NFT metadata"
      },
      "createVestForDeposit(address,address,uint64,uint256)": {
        "notice": "MPHMinter only functions"
      },
      "getVestWithdrawableAmount(uint64)": {
        "notice": "Public getter functions"
      },
      "setBaseURI(string)": {
        "notice": "Owner functions"
      },
      "withdraw(uint64)": {
        "notice": "Public action functions"
      }
    },
    "version": 1
  },
  "storageLayout": {
    "storage": [
      {
        "astId": 612,
        "contract": "contracts/rewards/Vesting02.sol:Vesting02",
        "label": "_initialized",
        "offset": 0,
        "slot": "0",
        "type": "t_bool"
      },
      {
        "astId": 615,
        "contract": "contracts/rewards/Vesting02.sol:Vesting02",
        "label": "_initializing",
        "offset": 1,
        "slot": "0",
        "type": "t_bool"
      },
      {
        "astId": 3064,
        "contract": "contracts/rewards/Vesting02.sol:Vesting02",
        "label": "__gap",
        "offset": 0,
        "slot": "1",
        "type": "t_array(t_uint256)50_storage"
      },
      {
        "astId": 3453,
        "contract": "contracts/rewards/Vesting02.sol:Vesting02",
        "label": "__gap",
        "offset": 0,
        "slot": "51",
        "type": "t_array(t_uint256)50_storage"
      },
      {
        "astId": 1640,
        "contract": "contracts/rewards/Vesting02.sol:Vesting02",
        "label": "_name",
        "offset": 0,
        "slot": "101",
        "type": "t_string_storage"
      },
      {
        "astId": 1642,
        "contract": "contracts/rewards/Vesting02.sol:Vesting02",
        "label": "_symbol",
        "offset": 0,
        "slot": "102",
        "type": "t_string_storage"
      },
      {
        "astId": 1646,
        "contract": "contracts/rewards/Vesting02.sol:Vesting02",
        "label": "_owners",
        "offset": 0,
        "slot": "103",
        "type": "t_mapping(t_uint256,t_address)"
      },
      {
        "astId": 1650,
        "contract": "contracts/rewards/Vesting02.sol:Vesting02",
        "label": "_balances",
        "offset": 0,
        "slot": "104",
        "type": "t_mapping(t_address,t_uint256)"
      },
      {
        "astId": 1654,
        "contract": "contracts/rewards/Vesting02.sol:Vesting02",
        "label": "_tokenApprovals",
        "offset": 0,
        "slot": "105",
        "type": "t_mapping(t_uint256,t_address)"
      },
      {
        "astId": 1660,
        "contract": "contracts/rewards/Vesting02.sol:Vesting02",
        "label": "_operatorApprovals",
        "offset": 0,
        "slot": "106",
        "type": "t_mapping(t_address,t_mapping(t_address,t_bool))"
      },
      {
        "astId": 2458,
        "contract": "contracts/rewards/Vesting02.sol:Vesting02",
        "label": "__gap",
        "offset": 0,
        "slot": "107",
        "type": "t_array(t_uint256)44_storage"
      },
      {
        "astId": 2630,
        "contract": "contracts/rewards/Vesting02.sol:Vesting02",
        "label": "_tokenURIs",
        "offset": 0,
        "slot": "151",
        "type": "t_mapping(t_uint256,t_string_storage)"
      },
      {
        "astId": 2748,
        "contract": "contracts/rewards/Vesting02.sol:Vesting02",
        "label": "__gap",
        "offset": 0,
        "slot": "152",
        "type": "t_array(t_uint256)49_storage"
      },
      {
        "astId": 406,
        "contract": "contracts/rewards/Vesting02.sol:Vesting02",
        "label": "_owner",
        "offset": 0,
        "slot": "201",
        "type": "t_address"
      },
      {
        "astId": 525,
        "contract": "contracts/rewards/Vesting02.sol:Vesting02",
        "label": "__gap",
        "offset": 0,
        "slot": "202",
        "type": "t_array(t_uint256)49_storage"
      },
      {
        "astId": 20535,
        "contract": "contracts/rewards/Vesting02.sol:Vesting02",
        "label": "vestList",
        "offset": 0,
        "slot": "251",
        "type": "t_array(t_struct(Vest)20531_storage)dyn_storage"
      },
      {
        "astId": 20541,
        "contract": "contracts/rewards/Vesting02.sol:Vesting02",
        "label": "depositIDToVestID",
        "offset": 0,
        "slot": "252",
        "type": "t_mapping(t_address,t_mapping(t_uint64,t_uint64))"
      },
      {
        "astId": 20544,
        "contract": "contracts/rewards/Vesting02.sol:Vesting02",
        "label": "mphMinter",
        "offset": 0,
        "slot": "253",
        "type": "t_contract(MPHMinter)20433"
      },
      {
        "astId": 20547,
        "contract": "contracts/rewards/Vesting02.sol:Vesting02",
        "label": "token",
        "offset": 0,
        "slot": "254",
        "type": "t_contract(IERC20)5070"
      },
      {
        "astId": 20549,
        "contract": "contracts/rewards/Vesting02.sol:Vesting02",
        "label": "_contractURI",
        "offset": 0,
        "slot": "255",
        "type": "t_string_storage"
      },
      {
        "astId": 20551,
        "contract": "contracts/rewards/Vesting02.sol:Vesting02",
        "label": "__baseURI",
        "offset": 0,
        "slot": "256",
        "type": "t_string_storage"
      },
      {
        "astId": 21174,
        "contract": "contracts/rewards/Vesting02.sol:Vesting02",
        "label": "__gap",
        "offset": 0,
        "slot": "257",
        "type": "t_array(t_uint256)44_storage"
      }
    ],
    "types": {
      "t_address": {
        "encoding": "inplace",
        "label": "address",
        "numberOfBytes": "20"
      },
      "t_array(t_struct(Vest)20531_storage)dyn_storage": {
        "base": "t_struct(Vest)20531_storage",
        "encoding": "dynamic_array",
        "label": "struct Vesting02.Vest[]",
        "numberOfBytes": "32"
      },
      "t_array(t_uint256)44_storage": {
        "base": "t_uint256",
        "encoding": "inplace",
        "label": "uint256[44]",
        "numberOfBytes": "1408"
      },
      "t_array(t_uint256)49_storage": {
        "base": "t_uint256",
        "encoding": "inplace",
        "label": "uint256[49]",
        "numberOfBytes": "1568"
      },
      "t_array(t_uint256)50_storage": {
        "base": "t_uint256",
        "encoding": "inplace",
        "label": "uint256[50]",
        "numberOfBytes": "1600"
      },
      "t_bool": {
        "encoding": "inplace",
        "label": "bool",
        "numberOfBytes": "1"
      },
      "t_contract(IERC20)5070": {
        "encoding": "inplace",
        "label": "contract IERC20",
        "numberOfBytes": "20"
      },
      "t_contract(MPHMinter)20433": {
        "encoding": "inplace",
        "label": "contract MPHMinter",
        "numberOfBytes": "20"
      },
      "t_mapping(t_address,t_bool)": {
        "encoding": "mapping",
        "key": "t_address",
        "label": "mapping(address => bool)",
        "numberOfBytes": "32",
        "value": "t_bool"
      },
      "t_mapping(t_address,t_mapping(t_address,t_bool))": {
        "encoding": "mapping",
        "key": "t_address",
        "label": "mapping(address => mapping(address => bool))",
        "numberOfBytes": "32",
        "value": "t_mapping(t_address,t_bool)"
      },
      "t_mapping(t_address,t_mapping(t_uint64,t_uint64))": {
        "encoding": "mapping",
        "key": "t_address",
        "label": "mapping(address => mapping(uint64 => uint64))",
        "numberOfBytes": "32",
        "value": "t_mapping(t_uint64,t_uint64)"
      },
      "t_mapping(t_address,t_uint256)": {
        "encoding": "mapping",
        "key": "t_address",
        "label": "mapping(address => uint256)",
        "numberOfBytes": "32",
        "value": "t_uint256"
      },
      "t_mapping(t_uint256,t_address)": {
        "encoding": "mapping",
        "key": "t_uint256",
        "label": "mapping(uint256 => address)",
        "numberOfBytes": "32",
        "value": "t_address"
      },
      "t_mapping(t_uint256,t_string_storage)": {
        "encoding": "mapping",
        "key": "t_uint256",
        "label": "mapping(uint256 => string)",
        "numberOfBytes": "32",
        "value": "t_string_storage"
      },
      "t_mapping(t_uint64,t_uint64)": {
        "encoding": "mapping",
        "key": "t_uint64",
        "label": "mapping(uint64 => uint64)",
        "numberOfBytes": "32",
        "value": "t_uint64"
      },
      "t_string_storage": {
        "encoding": "bytes",
        "label": "string",
        "numberOfBytes": "32"
      },
      "t_struct(Vest)20531_storage": {
        "encoding": "inplace",
        "label": "struct Vesting02.Vest",
        "members": [
          {
            "astId": 20520,
            "contract": "contracts/rewards/Vesting02.sol:Vesting02",
            "label": "pool",
            "offset": 0,
            "slot": "0",
            "type": "t_address"
          },
          {
            "astId": 20522,
            "contract": "contracts/rewards/Vesting02.sol:Vesting02",
            "label": "depositID",
            "offset": 20,
            "slot": "0",
            "type": "t_uint64"
          },
          {
            "astId": 20524,
            "contract": "contracts/rewards/Vesting02.sol:Vesting02",
            "label": "lastUpdateTimestamp",
            "offset": 0,
            "slot": "1",
            "type": "t_uint64"
          },
          {
            "astId": 20526,
            "contract": "contracts/rewards/Vesting02.sol:Vesting02",
            "label": "accumulatedAmount",
            "offset": 0,
            "slot": "2",
            "type": "t_uint256"
          },
          {
            "astId": 20528,
            "contract": "contracts/rewards/Vesting02.sol:Vesting02",
            "label": "withdrawnAmount",
            "offset": 0,
            "slot": "3",
            "type": "t_uint256"
          },
          {
            "astId": 20530,
            "contract": "contracts/rewards/Vesting02.sol:Vesting02",
            "label": "vestAmountPerStablecoinPerSecond",
            "offset": 0,
            "slot": "4",
            "type": "t_uint256"
          }
        ],
        "numberOfBytes": "160"
      },
      "t_uint256": {
        "encoding": "inplace",
        "label": "uint256",
        "numberOfBytes": "32"
      },
      "t_uint64": {
        "encoding": "inplace",
        "label": "uint64",
        "numberOfBytes": "8"
      }
    }
  }
}