{
  "address": "0xcebe752CCeCcEa161c42e01136aE0F299d3fc07f",
  "abi": [
    {
      "anonymous": false,
      "inputs": [
        {
          "indexed": true,
          "internalType": "address",
          "name": "owner",
          "type": "address"
        },
        {
          "indexed": true,
          "internalType": "address",
          "name": "approved",
          "type": "address"
        },
        {
          "indexed": true,
          "internalType": "uint256",
          "name": "tokenId",
          "type": "uint256"
        }
      ],
      "name": "Approval",
      "type": "event"
    },
    {
      "anonymous": false,
      "inputs": [
        {
          "indexed": true,
          "internalType": "address",
          "name": "owner",
          "type": "address"
        },
        {
          "indexed": true,
          "internalType": "address",
          "name": "operator",
          "type": "address"
        },
        {
          "indexed": false,
          "internalType": "bool",
          "name": "approved",
          "type": "bool"
        }
      ],
      "name": "ApprovalForAll",
      "type": "event"
    },
    {
      "anonymous": false,
      "inputs": [
        {
          "indexed": true,
          "internalType": "uint64",
          "name": "vestID",
          "type": "uint64"
        },
        {
          "indexed": false,
          "internalType": "uint256",
          "name": "vestAmountPerStablecoinPerSecond",
          "type": "uint256"
        }
      ],
      "name": "EBoost",
      "type": "event"
    },
    {
      "anonymous": false,
      "inputs": [
        {
          "indexed": true,
          "internalType": "address",
          "name": "to",
          "type": "address"
        },
        {
          "indexed": true,
          "internalType": "address",
          "name": "pool",
          "type": "address"
        },
        {
          "indexed": false,
          "internalType": "uint64",
          "name": "depositID",
          "type": "uint64"
        },
        {
          "indexed": false,
          "internalType": "uint64",
          "name": "vestID",
          "type": "uint64"
        },
        {
          "indexed": false,
          "internalType": "uint256",
          "name": "vestAmountPerStablecoinPerSecond",
          "type": "uint256"
        }
      ],
      "name": "ECreateVest",
      "type": "event"
    },
    {
      "anonymous": false,
      "inputs": [
        {
          "indexed": false,
          "internalType": "address",
          "name": "newValue",
          "type": "address"
        }
      ],
      "name": "ESetMPHMinter",
      "type": "event"
    },
    {
      "anonymous": false,
      "inputs": [
        {
          "indexed": true,
          "internalType": "uint64",
          "name": "vestID",
          "type": "uint64"
        }
      ],
      "name": "EUpdateVest",
      "type": "event"
    },
    {
      "anonymous": false,
      "inputs": [
        {
          "indexed": true,
          "internalType": "address",
          "name": "sender",
          "type": "address"
        },
        {
          "indexed": true,
          "internalType": "uint64",
          "name": "vestID",
          "type": "uint64"
        },
        {
          "indexed": false,
          "internalType": "uint256",
          "name": "withdrawnAmount",
          "type": "uint256"
        }
      ],
      "name": "EWithdraw",
      "type": "event"
    },
    {
      "anonymous": false,
      "inputs": [
        {
          "indexed": true,
          "internalType": "address",
          "name": "previousOwner",
          "type": "address"
        },
        {
          "indexed": true,
          "internalType": "address",
          "name": "newOwner",
          "type": "address"
        }
      ],
      "name": "OwnershipTransferred",
      "type": "event"
    },
    {
      "anonymous": false,
      "inputs": [
        {
          "indexed": true,
          "internalType": "address",
          "name": "from",
          "type": "address"
        },
        {
          "indexed": true,
          "internalType": "address",
          "name": "to",
          "type": "address"
        },
        {
          "indexed": true,
          "internalType": "uint256",
          "name": "tokenId",
          "type": "uint256"
        }
      ],
      "name": "Transfer",
      "type": "event"
    },
    {
      "inputs": [
        {
          "internalType": "address",
          "name": "to",
          "type": "address"
        },
        {
          "internalType": "uint256",
          "name": "tokenId",
          "type": "uint256"
        }
      ],
      "name": "approve",
      "outputs": [],
      "stateMutability": "nonpayable",
      "type": "function"
    },
    {
      "inputs": [
        {
          "internalType": "address",
          "name": "owner",
          "type": "address"
        }
      ],
      "name": "balanceOf",
      "outputs": [
        {
          "internalType": "uint256",
          "name": "",
          "type": "uint256"
        }
      ],
      "stateMutability": "view",
      "type": "function"
    },
    {
      "inputs": [
        {
          "internalType": "uint64",
          "name": "vestID",
          "type": "uint64"
        },
        {
          "internalType": "uint256",
          "name": "vestAmountPerStablecoinPerSecond",
          "type": "uint256"
        }
      ],
      "name": "boost",
      "outputs": [],
      "stateMutability": "nonpayable",
      "type": "function"
    },
    {
      "inputs": [],
      "name": "contractURI",
      "outputs": [
        {
          "internalType": "string",
          "name": "",
          "type": "string"
        }
      ],
      "stateMutability": "view",
      "type": "function"
    },
    {
      "inputs": [
        {
          "internalType": "address",
          "name": "to",
          "type": "address"
        },
        {
          "internalType": "address",
          "name": "pool",
          "type": "address"
        },
        {
          "internalType": "uint64",
          "name": "depositID",
          "type": "uint64"
        },
        {
          "internalType": "uint256",
          "name": "vestAmountPerStablecoinPerSecond",
          "type": "uint256"
        }
      ],
      "name": "createVestForDeposit",
      "outputs": [
        {
          "internalType": "uint64",
          "name": "vestID",
          "type": "uint64"
        }
      ],
      "stateMutability": "nonpayable",
      "type": "function"
    },
    {
      "inputs": [
        {
          "internalType": "address",
          "name": "",
          "type": "address"
        },
        {
          "internalType": "uint64",
          "name": "",
          "type": "uint64"
        }
      ],
      "name": "depositIDToVestID",
      "outputs": [
        {
          "internalType": "uint64",
          "name": "",
          "type": "uint64"
        }
      ],
      "stateMutability": "view",
      "type": "function"
    },
    {
      "inputs": [
        {
          "internalType": "uint256",
          "name": "tokenId",
          "type": "uint256"
        }
      ],
      "name": "getApproved",
      "outputs": [
        {
          "internalType": "address",
          "name": "",
          "type": "address"
        }
      ],
      "stateMutability": "view",
      "type": "function"
    },
    {
      "inputs": [
        {
          "internalType": "uint64",
          "name": "vestID",
          "type": "uint64"
        }
      ],
      "name": "getVest",
      "outputs": [
        {
          "components": [
            {
              "internalType": "address",
              "name": "pool",
              "type": "address"
            },
            {
              "internalType": "uint64",
              "name": "depositID",
              "type": "uint64"
            },
            {
              "internalType": "uint64",
              "name": "lastUpdateTimestamp",
              "type": "uint64"
            },
            {
              "internalType": "uint256",
              "name": "accumulatedAmount",
              "type": "uint256"
            },
            {
              "internalType": "uint256",
              "name": "withdrawnAmount",
              "type": "uint256"
            },
            {
              "internalType": "uint256",
              "name": "vestAmountPerStablecoinPerSecond",
              "type": "uint256"
            }
          ],
          "internalType": "struct Vesting02.Vest",
          "name": "",
          "type": "tuple"
        }
      ],
      "stateMutability": "view",
      "type": "function"
    },
    {
      "inputs": [
        {
          "internalType": "uint64",
          "name": "vestID",
          "type": "uint64"
        }
      ],
      "name": "getVestWithdrawableAmount",
      "outputs": [
        {
          "internalType": "uint256",
          "name": "",
          "type": "uint256"
        }
      ],
      "stateMutability": "view",
      "type": "function"
    },
    {
      "inputs": [
        {
          "internalType": "address",
          "name": "_token",
          "type": "address"
        },
        {
          "internalType": "string",
          "name": "tokenName",
          "type": "string"
        },
        {
          "internalType": "string",
          "name": "tokenSymbol",
          "type": "string"
        }
      ],
      "name": "initialize",
      "outputs": [],
      "stateMutability": "nonpayable",
      "type": "function"
    },
    {
      "inputs": [
        {
          "internalType": "address",
          "name": "owner",
          "type": "address"
        },
        {
          "internalType": "address",
          "name": "operator",
          "type": "address"
        }
      ],
      "name": "isApprovedForAll",
      "outputs": [
        {
          "internalType": "bool",
          "name": "",
          "type": "bool"
        }
      ],
      "stateMutability": "view",
      "type": "function"
    },
    {
      "inputs": [],
      "name": "mphMinter",
      "outputs": [
        {
          "internalType": "contract MPHMinter",
          "name": "",
          "type": "address"
        }
      ],
      "stateMutability": "view",
      "type": "function"
    },
    {
      "inputs": [],
      "name": "name",
      "outputs": [
        {
          "internalType": "string",
          "name": "",
          "type": "string"
        }
      ],
      "stateMutability": "view",
      "type": "function"
    },
    {
      "inputs": [],
      "name": "numVests",
      "outputs": [
        {
          "internalType": "uint256",
          "name": "",
          "type": "uint256"
        }
      ],
      "stateMutability": "view",
      "type": "function"
    },
    {
      "inputs": [],
      "name": "owner",
      "outputs": [
        {
          "internalType": "address",
          "name": "",
          "type": "address"
        }
      ],
      "stateMutability": "view",
      "type": "function"
    },
    {
      "inputs": [
        {
          "internalType": "uint256",
          "name": "tokenId",
          "type": "uint256"
        }
      ],
      "name": "ownerOf",
      "outputs": [
        {
          "internalType": "address",
          "name": "",
          "type": "address"
        }
      ],
      "stateMutability": "view",
      "type": "function"
    },
    {
      "inputs": [],
      "name": "renounceOwnership",
      "outputs": [],
      "stateMutability": "nonpayable",
      "type": "function"
    },
    {
      "inputs": [
        {
          "internalType": "address",
          "name": "from",
          "type": "address"
        },
        {
          "internalType": "address",
          "name": "to",
          "type": "address"
        },
        {
          "internalType": "uint256",
          "name": "tokenId",
          "type": "uint256"
        }
      ],
      "name": "safeTransferFrom",
      "outputs": [],
      "stateMutability": "nonpayable",
      "type": "function"
    },
    {
      "inputs": [
        {
          "internalType": "address",
          "name": "from",
          "type": "address"
        },
        {
          "internalType": "address",
          "name": "to",
          "type": "address"
        },
        {
          "internalType": "uint256",
          "name": "tokenId",
          "type": "uint256"
        },
        {
          "internalType": "bytes",
          "name": "_data",
          "type": "bytes"
        }
      ],
      "name": "safeTransferFrom",
      "outputs": [],
      "stateMutability": "nonpayable",
      "type": "function"
    },
    {
      "inputs": [
        {
          "internalType": "address",
          "name": "operator",
          "type": "address"
        },
        {
          "internalType": "bool",
          "name": "approved",
          "type": "bool"
        }
      ],
      "name": "setApprovalForAll",
      "outputs": [],
      "stateMutability": "nonpayable",
      "type": "function"
    },
    {
      "inputs": [
        {
          "internalType": "string",
          "name": "newURI",
          "type": "string"
        }
      ],
      "name": "setBaseURI",
      "outputs": [],
      "stateMutability": "nonpayable",
      "type": "function"
    },
    {
      "inputs": [
        {
          "internalType": "string",
          "name": "newURI",
          "type": "string"
        }
      ],
      "name": "setContractURI",
      "outputs": [],
      "stateMutability": "nonpayable",
      "type": "function"
    },
    {
      "inputs": [
        {
          "internalType": "address",
          "name": "newValue",
          "type": "address"
        }
      ],
      "name": "setMPHMinter",
      "outputs": [],
      "stateMutability": "nonpayable",
      "type": "function"
    },
    {
      "inputs": [
        {
          "internalType": "uint256",
          "name": "tokenId",
          "type": "uint256"
        },
        {
          "internalType": "string",
          "name": "newURI",
          "type": "string"
        }
      ],
      "name": "setTokenURI",
      "outputs": [],
      "stateMutability": "nonpayable",
      "type": "function"
    },
    {
      "inputs": [
        {
          "internalType": "bytes4",
          "name": "interfaceId",
          "type": "bytes4"
        }
      ],
      "name": "supportsInterface",
      "outputs": [
        {
          "internalType": "bool",
          "name": "",
          "type": "bool"
        }
      ],
      "stateMutability": "view",
      "type": "function"
    },
    {
      "inputs": [],
      "name": "symbol",
      "outputs": [
        {
          "internalType": "string",
          "name": "",
          "type": "string"
        }
      ],
      "stateMutability": "view",
      "type": "function"
    },
    {
      "inputs": [],
      "name": "token",
      "outputs": [
        {
          "internalType": "contract IERC20",
          "name": "",
          "type": "address"
        }
      ],
      "stateMutability": "view",
      "type": "function"
    },
    {
      "inputs": [
        {
          "internalType": "uint256",
          "name": "tokenId",
          "type": "uint256"
        }
      ],
      "name": "tokenURI",
      "outputs": [
        {
          "internalType": "string",
          "name": "",
          "type": "string"
        }
      ],
      "stateMutability": "view",
      "type": "function"
    },
    {
      "inputs": [
        {
          "internalType": "address",
          "name": "from",
          "type": "address"
        },
        {
          "internalType": "address",
          "name": "to",
          "type": "address"
        },
        {
          "internalType": "uint256",
          "name": "tokenId",
          "type": "uint256"
        }
      ],
      "name": "transferFrom",
      "outputs": [],
      "stateMutability": "nonpayable",
      "type": "function"
    },
    {
      "inputs": [
        {
          "internalType": "address",
          "name": "newOwner",
          "type": "address"
        }
      ],
      "name": "transferOwnership",
      "outputs": [],
      "stateMutability": "nonpayable",
      "type": "function"
    },
    {
      "inputs": [
        {
          "internalType": "address",
          "name": "pool",
          "type": "address"
        },
        {
          "internalType": "uint64",
          "name": "depositID",
          "type": "uint64"
        },
        {
          "internalType": "uint256",
          "name": "currentDepositAmount",
          "type": "uint256"
        },
        {
          "internalType": "uint256",
          "name": "depositAmount",
          "type": "uint256"
        },
        {
          "internalType": "uint256",
          "name": "vestAmountPerStablecoinPerSecond",
          "type": "uint256"
        }
      ],
      "name": "updateVestForDeposit",
      "outputs": [],
      "stateMutability": "nonpayable",
      "type": "function"
    },
    {
      "inputs": [
        {
          "internalType": "uint256",
          "name": "",
          "type": "uint256"
        }
      ],
      "name": "vestList",
      "outputs": [
        {
          "internalType": "address",
          "name": "pool",
          "type": "address"
        },
        {
          "internalType": "uint64",
          "name": "depositID",
          "type": "uint64"
        },
        {
          "internalType": "uint64",
          "name": "lastUpdateTimestamp",
          "type": "uint64"
        },
        {
          "internalType": "uint256",
          "name": "accumulatedAmount",
          "type": "uint256"
        },
        {
          "internalType": "uint256",
          "name": "withdrawnAmount",
          "type": "uint256"
        },
        {
          "internalType": "uint256",
          "name": "vestAmountPerStablecoinPerSecond",
          "type": "uint256"
        }
      ],
      "stateMutability": "view",
      "type": "function"
    },
    {
      "inputs": [
        {
          "internalType": "uint64",
          "name": "vestID",
          "type": "uint64"
        }
      ],
      "name": "withdraw",
      "outputs": [
        {
          "internalType": "uint256",
          "name": "withdrawnAmount",
          "type": "uint256"
        }
      ],
      "stateMutability": "nonpayable",
      "type": "function"
    }
  ],
  "transactionHash": "0x7087adf678d78d3651ddf4e5f58f3fa8ae518d96564aff5c0d4433092dfdb1b6",
  "args": [],
  "solcInputHash": "e60ae8ce476666259c0e591d71d287b8",
  "bytecode": "0x608060405234801561001057600080fd5b50612e57806100206000396000f3fe608060405234801561001057600080fd5b50600436106101fb5760003560e01c806370a082311161011a578063a22cb465116100ad578063c87b56dd1161007c578063c87b56dd14610507578063e8a3d4851461051a578063e985e9c514610522578063f2fde38b1461055e578063fc0c546a14610571576101fb565b8063a22cb465146104bb578063a832806b146104ce578063b88d4fde146104e1578063c64e2540146104f4576101fb565b80638da5cb5b116100e95780638da5cb5b1461047c578063906571471461048d578063938e3d7b146104a057806395d89b41146104b3576101fb565b806370a082311461043b578063715018a61461044e578063750f0acc146104565780638185772114610469576101fb565b8063324d4255116101925780636352211e116101615780636352211e1461039257806366f64eec146103a55780636e24af11146103b75780636f5d250414610428576101fb565b8063324d42551461030257806342842e0e146103595780634b0f59da1461036c57806355f804b31461037f576101fb565b8063095ea7b3116101ce578063095ea7b31461027d57806309a3104414610290578063162094c4146102dc57806323b872dd146102ef576101fb565b806301f2249b1461020057806301ffc9a71461021557806306fdde031461023d578063081812fc14610252575b600080fd5b61021361020e36600461261d565b610584565b005b610228610223366004612900565b610658565b60405190151581526020015b60405180910390f35b6102456106ac565b6040516102349190612b2b565b6102656102603660046129e1565b61073e565b6040516001600160a01b039091168152602001610234565b61021361028b36600461285e565b6107c6565b6102c461029e366004612887565b60fc6020908152600092835260408084209091529082529020546001600160401b031681565b6040516001600160401b039091168152602001610234565b6102136102ea366004612a11565b6108dc565b6102136102fd366004612669565b61097c565b6103156103103660046129e1565b6109ad565b604080516001600160a01b039790971687526001600160401b03958616602088015293909416928501929092526060840152608083015260a082015260c001610234565b610213610367366004612669565b610a0d565b61021361037a3660046128b2565b610a28565b61021361038d366004612938565b610c43565b6102656103a03660046129e1565b610c7a565b60fb545b604051908152602001610234565b6103ca6103c5366004612a5a565b610cf1565b6040805182516001600160a01b031681526020808401516001600160401b0390811691830191909152838301511691810191909152606080830151908201526080808301519082015260a0918201519181019190915260c001610234565b6103a9610436366004612a5a565b610d8d565b6103a961044936600461261d565b610d98565b610213610e1f565b6103a9610464366004612a5a565b610e93565b6102c461047736600461275b565b610ffe565b60c9546001600160a01b0316610265565b61021361049b3660046127e1565b61123d565b6102136104ae366004612938565b611344565b61024561137a565b6102136104c93660046127a7565b611389565b60fd54610265906001600160a01b031681565b6102136104ef3660046126a4565b61145b565b610213610502366004612a76565b611493565b6102456105153660046129e1565b61150d565b610245611678565b610228610530366004612637565b6001600160a01b039182166000908152606a6020908152604080832093909416825291909152205460ff1690565b61021361056c36600461261d565b611687565b60fe54610265906001600160a01b031681565b60c9546001600160a01b031633146105b75760405162461bcd60e51b81526004016105ae90612bde565b60405180910390fd5b6001600160a01b0381166106045760405162461bcd60e51b815260206004820152601460248201527356657374696e6730323a2030206164647265737360601b60448201526064016105ae565b60fd80546001600160a01b0319166001600160a01b0383169081179091556040519081527f41357c0f22ad78e2136e55921a8fa193f42b176952f98506b1798df4a28a787f9060200160405180910390a150565b60006001600160e01b031982166380ac58cd60e01b148061068957506001600160e01b03198216635b5e139f60e01b145b806106a457506301ffc9a760e01b6001600160e01b03198316145b90505b919050565b6060606580546106bb90612d4a565b80601f01602080910402602001604051908101604052809291908181526020018280546106e790612d4a565b80156107345780601f1061070957610100808354040283529160200191610734565b820191906000526020600020905b81548152906001019060200180831161071757829003601f168201915b5050505050905090565b600061074982611772565b6107aa5760405162461bcd60e51b815260206004820152602c60248201527f4552433732313a20617070726f76656420717565727920666f72206e6f6e657860448201526b34b9ba32b73a103a37b5b2b760a11b60648201526084016105ae565b506000908152606960205260409020546001600160a01b031690565b60006107d182610c7a565b9050806001600160a01b0316836001600160a01b0316141561083f5760405162461bcd60e51b815260206004820152602160248201527f4552433732313a20617070726f76616c20746f2063757272656e74206f776e656044820152603960f91b60648201526084016105ae565b336001600160a01b038216148061085b575061085b8133610530565b6108cd5760405162461bcd60e51b815260206004820152603860248201527f4552433732313a20617070726f76652063616c6c6572206973206e6f74206f7760448201527f6e6572206e6f7220617070726f76656420666f7220616c6c000000000000000060648201526084016105ae565b6108d7838361178f565b505050565b336108e684610c7a565b6001600160a01b03161461093c5760405162461bcd60e51b815260206004820152601a60248201527f56657374696e6730323a206e6f7420746f6b656e206f776e657200000000000060448201526064016105ae565b6108d78383838080601f0160208091040260200160405190810160405280939291908181526020018383808284376000920191909152506117fd92505050565b6109863382611888565b6109a25760405162461bcd60e51b81526004016105ae90612c13565b6108d783838361196e565b60fb81815481106109bd57600080fd5b6000918252602090912060059091020180546001820154600283015460038401546004909401546001600160a01b0384169550600160a01b9093046001600160401b039081169492169290919086565b6108d78383836040518060200160405280600081525061145b565b60fd546001600160a01b03163314610a7a5760405162461bcd60e51b81526020600482015260156024820152742b32b9ba34b73398191d103737ba1036b4b73a32b960591b60448201526064016105ae565b6001600160a01b038516600090815260fc602090815260408083206001600160401b03808916855292528220541690610ab282611b0e565b805460405163572cd35960e11b8152600160a01b82046001600160401b031660048201529192506001600160a01b031690600090829063ae59a6b29060240160c06040518083038186803b158015610b0957600080fd5b505afa158015610b1d573d6000803e3d6000fd5b505050506040513d601f19601f82011682018060405250810190610b419190612977565b90506000610b5c4283608001516001600160401b0316611b59565b60048501546001860154919250610b9091610b80906001600160401b031684612cdf565b610b8a908b612cc0565b90611b71565b846002016000828254610ba39190612c94565b909155505060018401805467ffffffffffffffff1916426001600160401b0316179055610bd08789612c94565b610bda8888612cc0565b898660040154610bea9190612cc0565b610bf49190612c94565b610bfe9190612cac565b60048501556040516001600160401b038616907f8a9076aa1a3ae1e9847b31c40026b59ee273c0336c9a479934ed9dda6912e1d290600090a250505050505050505050565b60c9546001600160a01b03163314610c6d5760405162461bcd60e51b81526004016105ae90612bde565b6108d761010083836124b3565b6000818152606760205260408120546001600160a01b0316806106a45760405162461bcd60e51b815260206004820152602960248201527f4552433732313a206f776e657220717565727920666f72206e6f6e657869737460448201526832b73a103a37b5b2b760b91b60648201526084016105ae565b6040805160c081018252600080825260208201819052918101829052606081018290526080810182905260a0810191909152610d2c82611b0e565b6040805160c08101825282546001600160a01b0381168252600160a01b90046001600160401b03908116602083015260018401541691810191909152600282015460608201526003820154608082015260049091015460a082015292915050565b60006106a482611b90565b60006001600160a01b038216610e035760405162461bcd60e51b815260206004820152602a60248201527f4552433732313a2062616c616e636520717565727920666f7220746865207a65604482015269726f206164647265737360b01b60648201526084016105ae565b506001600160a01b031660009081526068602052604090205490565b60c9546001600160a01b03163314610e495760405162461bcd60e51b81526004016105ae90612bde565b60c9546040516000916001600160a01b0316907f8be0079c531659141344cd1fd0a4f28419497f9722a3daafe3b4186f6b6457e0908390a360c980546001600160a01b0319169055565b600033610ea86001600160401b038416610c7a565b6001600160a01b031614610ef55760405162461bcd60e51b81526020600482015260146024820152732b32b9ba34b73398191d103737ba1037bbb732b960611b60448201526064016105ae565b610efe82611b90565b905080610f0d575060006106a7565b6000610f1883611b0e565b905081816003016000828254610f2e9190612c94565b909155505060fd54604051631d1e508560e21b8152336004820152602481018490526001600160a01b0390911690637479421490604401602060405180830381600087803b158015610f7f57600080fd5b505af1158015610f93573d6000803e3d6000fd5b505050506040513d601f19601f82011682018060405250810190610fb791906129f9565b506040518281526001600160401b0384169033907f4a75429c7f26c0ae1bb7fc13f974e6c991033159dd1c5b1589711146e4b4d6a59060200160405180910390a350919050565b60fd546000906001600160a01b031633146110535760405162461bcd60e51b81526020600482015260156024820152742b32b9ba34b73398191d103737ba1036b4b73a32b960591b60448201526064016105ae565b506040805160c0810182526001600160a01b038086168083526001600160401b03808716602080860182815242841687890190815260006060890181815260808a0182815260a08b018d815260fb80546001810182558186529c516005909d027f3e7257b7272bb46d49cd6019b04ddee20da7c0cb13f7c1ec3391291b2ccebabc8101805498518c16600160a01b026001600160e01b03199099169e909d169d909d1796909617909a5592517f3e7257b7272bb46d49cd6019b04ddee20da7c0cb13f7c1ec3391291b2ccebabd8b01805491891667ffffffffffffffff1992831617905590517f3e7257b7272bb46d49cd6019b04ddee20da7c0cb13f7c1ec3391291b2ccebabe8b015591517f3e7257b7272bb46d49cd6019b04ddee20da7c0cb13f7c1ec3391291b2ccebabf8a015596517f3e7257b7272bb46d49cd6019b04ddee20da7c0cb13f7c1ec3391291b2ccebac0909801979097555493855260fc815286852091855252939091208054938216939092168317909155906111da908690611d36565b604080516001600160401b038086168252831660208201529081018390526001600160a01b0380861691908716907ff9134cc715a48a342d8c1d732084af37db31480b1cc4253b836524661fa4a4bb9060600160405180910390a3949350505050565b600054610100900460ff1680611256575060005460ff16155b6112725760405162461bcd60e51b81526004016105ae90612b90565b600054610100900460ff16158015611294576000805461ffff19166101011790555b61129c611d54565b61130f85858080601f01602080910402602001604051908101604052809392919081815260200183838082843760009201919091525050604080516020601f89018190048102820181019092528781529250879150869081908401838280828437600092019190915250611dd092505050565b60fe80546001600160a01b0319166001600160a01b038816179055801561133c576000805461ff00191690555b505050505050565b60c9546001600160a01b0316331461136e5760405162461bcd60e51b81526004016105ae90612bde565b6108d760ff83836124b3565b6060606680546106bb90612d4a565b6001600160a01b0382163314156113e25760405162461bcd60e51b815260206004820152601960248201527f4552433732313a20617070726f766520746f2063616c6c65720000000000000060448201526064016105ae565b336000818152606a602090815260408083206001600160a01b0387168085529252909120805460ff1916841515179055906001600160a01b03167f17307eab39ab6107e8899845ad3d59bd9653f200f220920489ca2b5937696c318360405161144f911515815260200190565b60405180910390a35050565b6114653383611888565b6114815760405162461bcd60e51b81526004016105ae90612c13565b61148d84848484611e57565b50505050565b60c9546001600160a01b031633146114bd5760405162461bcd60e51b81526004016105ae90612bde565b806114c783611b0e565b600401556040518181526001600160401b038316907f560647f077942a4f7e7b08ed7311a936ac1fe3f815efb17339f17662127ded239060200160405180910390a25050565b606061151882611772565b61157e5760405162461bcd60e51b815260206004820152603160248201527f45524337323155524953746f726167653a2055524920717565727920666f72206044820152703737b732bc34b9ba32b73a103a37b5b2b760791b60648201526084016105ae565b6000828152609760205260408120805461159790612d4a565b80601f01602080910402602001604051908101604052809291908181526020018280546115c390612d4a565b80156116105780601f106115e557610100808354040283529160200191611610565b820191906000526020600020905b8154815290600101906020018083116115f357829003601f168201915b505050505090506000611621611e8a565b9050805160001415611635575090506106a7565b81511561166757808260405160200161164f929190612abf565b604051602081830303815290604052925050506106a7565b61167084611e9a565b949350505050565b606060ff80546106bb90612d4a565b60c9546001600160a01b031633146116b15760405162461bcd60e51b81526004016105ae90612bde565b6001600160a01b0381166117165760405162461bcd60e51b815260206004820152602660248201527f4f776e61626c653a206e6577206f776e657220697320746865207a65726f206160448201526564647265737360d01b60648201526084016105ae565b60c9546040516001600160a01b038084169216907f8be0079c531659141344cd1fd0a4f28419497f9722a3daafe3b4186f6b6457e090600090a360c980546001600160a01b0319166001600160a01b0392909216919091179055565b6000908152606760205260409020546001600160a01b0316151590565b600081815260696020526040902080546001600160a01b0319166001600160a01b03841690811790915581906117c482610c7a565b6001600160a01b03167f8c5be1e5ebec7d5bd14f71427d1e84f3dd0314c0f7b2291e5b200ac8c7c3b92560405160405180910390a45050565b61180682611772565b6118695760405162461bcd60e51b815260206004820152602e60248201527f45524337323155524953746f726167653a2055524920736574206f66206e6f6e60448201526d32bc34b9ba32b73a103a37b5b2b760911b60648201526084016105ae565b600082815260976020908152604090912082516108d792840190612537565b600061189382611772565b6118f45760405162461bcd60e51b815260206004820152602c60248201527f4552433732313a206f70657261746f7220717565727920666f72206e6f6e657860448201526b34b9ba32b73a103a37b5b2b760a11b60648201526084016105ae565b60006118ff83610c7a565b9050806001600160a01b0316846001600160a01b0316148061193a5750836001600160a01b031661192f8461073e565b6001600160a01b0316145b8061167057506001600160a01b038082166000908152606a602090815260408083209388168352929052205460ff16611670565b826001600160a01b031661198182610c7a565b6001600160a01b0316146119e95760405162461bcd60e51b815260206004820152602960248201527f4552433732313a207472616e73666572206f6620746f6b656e2074686174206960448201526839903737ba1037bbb760b91b60648201526084016105ae565b6001600160a01b038216611a4b5760405162461bcd60e51b8152602060048201526024808201527f4552433732313a207472616e7366657220746f20746865207a65726f206164646044820152637265737360e01b60648201526084016105ae565b611a5660008261178f565b6001600160a01b0383166000908152606860205260408120805460019290611a7f908490612cdf565b90915550506001600160a01b0382166000908152606860205260408120805460019290611aad908490612c94565b909155505060008181526067602052604080822080546001600160a01b0319166001600160a01b0386811691821790925591518493918716917fddf252ad1be2c89b69c2b068fc378daa952ba7f163c4a11628f55a4df523b3ef91a4505050565b600060fb611b1d600184612cf6565b6001600160401b031681548110611b4457634e487b7160e01b600052603260045260246000fd5b90600052602060002090600502019050919050565b6000818310611b685781611b6a565b825b9392505050565b6000670de0b6b3a7640000611b868385612cc0565b611b6a9190612cac565b600080611b9c83611b0e565b6040805160c08101825282546001600160a01b0381168083526001600160401b03600160a01b909204821660208401819052600186015490921683850152600285015460608401526003850154608084015260049485015460a0840152925163572cd35960e11b815293840152925090600090829063ae59a6b29060240160c06040518083038186803b158015611c3257600080fd5b505afa158015611c46573d6000803e3d6000fd5b505050506040513d601f19601f82011682018060405250810190611c6a9190612977565b90506000611c854283608001516001600160401b0316611b59565b905083604001516001600160401b0316811015611cbb5783608001518460600151611cb09190612cdf565b9450505050506106a7565b6000611ce08360200151670de0b6b3a7640000611cd89190612c94565b845190611f64565b90508460800151611d128660a0015187604001516001600160401b031685611d089190612cdf565b610b8a9085612cc0565b8660600151611d219190612c94565b611d2b9190612cdf565b979650505050505050565b611d50828260405180602001604052806000815250611f79565b5050565b600054610100900460ff1680611d6d575060005460ff16155b611d895760405162461bcd60e51b81526004016105ae90612b90565b600054610100900460ff16158015611dab576000805461ffff19166101011790555b611db3611fac565b611dbb612016565b8015611dcd576000805461ff00191690555b50565b600054610100900460ff1680611de9575060005460ff16155b611e055760405162461bcd60e51b81526004016105ae90612b90565b600054610100900460ff16158015611e27576000805461ffff19166101011790555b611e2f611fac565b611e37611fac565b611e4183836120c4565b80156108d7576000805461ff0019169055505050565b611e6284848461196e565b611e6e84848484612159565b61148d5760405162461bcd60e51b81526004016105ae90612b3e565b606061010080546106bb90612d4a565b6060611ea582611772565b611f095760405162461bcd60e51b815260206004820152602f60248201527f4552433732314d657461646174613a2055524920717565727920666f72206e6f60448201526e3732bc34b9ba32b73a103a37b5b2b760891b60648201526084016105ae565b6000611f13611e8a565b90506000815111611f335760405180602001604052806000815250611b6a565b80611f3d84612266565b604051602001611f4e929190612abf565b6040516020818303038152906040529392505050565b600081611b86670de0b6b3a764000085612cc0565b611f838383612380565b611f906000848484612159565b6108d75760405162461bcd60e51b81526004016105ae90612b3e565b600054610100900460ff1680611fc5575060005460ff16155b611fe15760405162461bcd60e51b81526004016105ae90612b90565b600054610100900460ff16158015611dbb576000805461ffff19166101011790558015611dcd576000805461ff001916905550565b600054610100900460ff168061202f575060005460ff16155b61204b5760405162461bcd60e51b81526004016105ae90612b90565b600054610100900460ff1615801561206d576000805461ffff19166101011790555b60c980546001600160a01b0319163390811790915560405181906000907f8be0079c531659141344cd1fd0a4f28419497f9722a3daafe3b4186f6b6457e0908290a3508015611dcd576000805461ff001916905550565b600054610100900460ff16806120dd575060005460ff16155b6120f95760405162461bcd60e51b81526004016105ae90612b90565b600054610100900460ff1615801561211b576000805461ffff19166101011790555b825161212e906065906020860190612537565b508151612142906066906020850190612537565b5080156108d7576000805461ff0019169055505050565b60006001600160a01b0384163b1561225b57604051630a85bd0160e11b81526001600160a01b0385169063150b7a029061219d903390899088908890600401612aee565b602060405180830381600087803b1580156121b757600080fd5b505af19250505080156121e7575060408051601f3d908101601f191682019092526121e49181019061291c565b60015b612241573d808015612215576040519150601f19603f3d011682016040523d82523d6000602084013e61221a565b606091505b5080516122395760405162461bcd60e51b81526004016105ae90612b3e565b805181602001fd5b6001600160e01b031916630a85bd0160e11b149050611670565b506001949350505050565b60608161228b57506040805180820190915260018152600360fc1b60208201526106a7565b8160005b81156122b5578061229f81612d85565b91506122ae9050600a83612cac565b915061228f565b6000816001600160401b038111156122dd57634e487b7160e01b600052604160045260246000fd5b6040519080825280601f01601f191660200182016040528015612307576020820181803683370190505b5090505b84156116705761231c600183612cdf565b9150612329600a86612da0565b612334906030612c94565b60f81b81838151811061235757634e487b7160e01b600052603260045260246000fd5b60200101906001600160f81b031916908160001a905350612379600a86612cac565b945061230b565b6001600160a01b0382166123d65760405162461bcd60e51b815260206004820181905260248201527f4552433732313a206d696e7420746f20746865207a65726f206164647265737360448201526064016105ae565b6123df81611772565b1561242c5760405162461bcd60e51b815260206004820152601c60248201527f4552433732313a20746f6b656e20616c7265616479206d696e7465640000000060448201526064016105ae565b6001600160a01b0382166000908152606860205260408120805460019290612455908490612c94565b909155505060008181526067602052604080822080546001600160a01b0319166001600160a01b03861690811790915590518392907fddf252ad1be2c89b69c2b068fc378daa952ba7f163c4a11628f55a4df523b3ef908290a45050565b8280546124bf90612d4a565b90600052602060002090601f0160209004810192826124e15760008555612527565b82601f106124fa5782800160ff19823516178555612527565b82800160010185558215612527579182015b8281111561252757823582559160200191906001019061250c565b506125339291506125ab565b5090565b82805461254390612d4a565b90600052602060002090601f0160209004810192826125655760008555612527565b82601f1061257e57805160ff1916838001178555612527565b82800160010185558215612527579182015b82811115612527578251825591602001919060010190612590565b5b8082111561253357600081556001016125ac565b80356001600160a01b03811681146106a757600080fd5b60008083601f8401126125e8578182fd5b5081356001600160401b038111156125fe578182fd5b60208301915083602082850101111561261657600080fd5b9250929050565b60006020828403121561262e578081fd5b611b6a826125c0565b60008060408385031215612649578081fd5b612652836125c0565b9150612660602084016125c0565b90509250929050565b60008060006060848603121561267d578081fd5b612686846125c0565b9250612694602085016125c0565b9150604084013590509250925092565b600080600080608085870312156126b9578081fd5b6126c2856125c0565b935060206126d18187016125c0565b93506040860135925060608601356001600160401b03808211156126f3578384fd5b818801915088601f830112612706578384fd5b81358181111561271857612718612de0565b61272a601f8201601f19168501612c64565b9150808252898482850101111561273f578485fd5b8084840185840137810190920192909252939692955090935050565b60008060008060808587031215612770578384fd5b612779856125c0565b9350612787602086016125c0565b9250604085013561279781612e0c565b9396929550929360600135925050565b600080604083850312156127b9578182fd5b6127c2836125c0565b9150602083013580151581146127d6578182fd5b809150509250929050565b6000806000806000606086880312156127f8578081fd5b612801866125c0565b945060208601356001600160401b038082111561281c578283fd5b61282889838a016125d7565b90965094506040880135915080821115612840578283fd5b5061284d888289016125d7565b969995985093965092949392505050565b60008060408385031215612870578182fd5b612879836125c0565b946020939093013593505050565b60008060408385031215612899578182fd5b6128a2836125c0565b915060208301356127d681612e0c565b600080600080600060a086880312156128c9578283fd5b6128d2866125c0565b945060208601356128e281612e0c565b94979496505050506040830135926060810135926080909101359150565b600060208284031215612911578081fd5b8135611b6a81612df6565b60006020828403121561292d578081fd5b8151611b6a81612df6565b6000806020838503121561294a578182fd5b82356001600160401b0381111561295f578283fd5b61296b858286016125d7565b90969095509350505050565b600060c08284031215612988578081fd5b61299260c0612c64565b8251815260208301516020820152604083015160408201526060830151606082015260808301516129c281612e0c565b608082015260a08301516129d581612e0c565b60a08201529392505050565b6000602082840312156129f2578081fd5b5035919050565b600060208284031215612a0a578081fd5b5051919050565b600080600060408486031215612a25578081fd5b8335925060208401356001600160401b03811115612a41578182fd5b612a4d868287016125d7565b9497909650939450505050565b600060208284031215612a6b578081fd5b8135611b6a81612e0c565b60008060408385031215612a88578182fd5b823561287981612e0c565b60008151808452612aab816020860160208601612d1e565b601f01601f19169290920160200192915050565b60008351612ad1818460208801612d1e565b835190830190612ae5818360208801612d1e565b01949350505050565b6001600160a01b0385811682528416602082015260408101839052608060608201819052600090612b2190830184612a93565b9695505050505050565b600060208252611b6a6020830184612a93565b60208082526032908201527f4552433732313a207472616e7366657220746f206e6f6e20455243373231526560408201527131b2b4bb32b91034b6b83632b6b2b73a32b960711b606082015260800190565b6020808252602e908201527f496e697469616c697a61626c653a20636f6e747261637420697320616c72656160408201526d191e481a5b9a5d1a585b1a5e995960921b606082015260800190565b6020808252818101527f4f776e61626c653a2063616c6c6572206973206e6f7420746865206f776e6572604082015260600190565b60208082526031908201527f4552433732313a207472616e736665722063616c6c6572206973206e6f74206f6040820152701ddb995c881b9bdc88185c1c1c9bdd9959607a1b606082015260800190565b604051601f8201601f191681016001600160401b0381118282101715612c8c57612c8c612de0565b604052919050565b60008219821115612ca757612ca7612db4565b500190565b600082612cbb57612cbb612dca565b500490565b6000816000190483118215151615612cda57612cda612db4565b500290565b600082821015612cf157612cf1612db4565b500390565b60006001600160401b0383811690831681811015612d1657612d16612db4565b039392505050565b60005b83811015612d39578181015183820152602001612d21565b8381111561148d5750506000910152565b600181811c90821680612d5e57607f821691505b60208210811415612d7f57634e487b7160e01b600052602260045260246000fd5b50919050565b6000600019821415612d9957612d99612db4565b5060010190565b600082612daf57612daf612dca565b500690565b634e487b7160e01b600052601160045260246000fd5b634e487b7160e01b600052601260045260246000fd5b634e487b7160e01b600052604160045260246000fd5b6001600160e01b031981168114611dcd57600080fd5b6001600160401b0381168114611dcd57600080fdfea264697066735822122061a4e9c1acc554bb977ddafbd460307ffef9574632d975a7b2ce261c5ed2a28664736f6c63430008030033",
  "devdoc": {
    "kind": "dev",
    "methods": {
      "approve(address,uint256)": {
        "details": "See {IERC721-approve}."
      },
      "balanceOf(address)": {
        "details": "See {IERC721-balanceOf}."
      },
      "getApproved(uint256)": {
        "details": "See {IERC721-getApproved}."
      },
      "isApprovedForAll(address,address)": {
        "details": "See {IERC721-isApprovedForAll}."
      },
      "name()": {
        "details": "See {IERC721Metadata-name}."
      },
      "owner()": {
        "details": "Returns the address of the current owner."
      },
      "ownerOf(uint256)": {
        "details": "See {IERC721-ownerOf}."
      },
      "renounceOwnership()": {
        "details": "Leaves the contract without owner. It will not be possible to call `onlyOwner` functions anymore. Can only be called by the current owner. NOTE: Renouncing ownership will leave the contract without an owner, thereby removing any functionality that is only available to the owner."
      },
      "safeTransferFrom(address,address,uint256)": {
        "details": "See {IERC721-safeTransferFrom}."
      },
      "safeTransferFrom(address,address,uint256,bytes)": {
        "details": "See {IERC721-safeTransferFrom}."
      },
      "setApprovalForAll(address,bool)": {
        "details": "See {IERC721-setApprovalForAll}."
      },
      "supportsInterface(bytes4)": {
        "details": "See {IERC165-supportsInterface}."
      },
      "symbol()": {
        "details": "See {IERC721Metadata-symbol}."
      },
      "tokenURI(uint256)": {
        "details": "See {IERC721Metadata-tokenURI}."
      },
      "transferFrom(address,address,uint256)": {
        "details": "See {IERC721-transferFrom}."
      },
      "transferOwnership(address)": {
        "details": "Transfers ownership of the contract to a new account (`newOwner`). Can only be called by the current owner."
      }
    },
    "version": 1
  },
  "userdoc": {
    "kind": "user",
    "methods": {
      "contractURI()": {
        "notice": "NFT metadata"
      },
      "createVestForDeposit(address,address,uint64,uint256)": {
        "notice": "MPHMinter only functions"
      },
      "getVestWithdrawableAmount(uint64)": {
        "notice": "Public getter functions"
      },
      "setBaseURI(string)": {
        "notice": "Owner functions"
      },
      "withdraw(uint64)": {
        "notice": "Public action functions"
      }
    },
    "version": 1
  },
  "storageLayout": {
    "storage": [
      {
        "astId": 612,
        "contract": "contracts/rewards/Vesting02.sol:Vesting02",
        "label": "_initialized",
        "offset": 0,
        "slot": "0",
        "type": "t_bool"
      },
      {
        "astId": 615,
        "contract": "contracts/rewards/Vesting02.sol:Vesting02",
        "label": "_initializing",
        "offset": 1,
        "slot": "0",
        "type": "t_bool"
      },
      {
        "astId": 3064,
        "contract": "contracts/rewards/Vesting02.sol:Vesting02",
        "label": "__gap",
        "offset": 0,
        "slot": "1",
        "type": "t_array(t_uint256)50_storage"
      },
      {
        "astId": 3453,
        "contract": "contracts/rewards/Vesting02.sol:Vesting02",
        "label": "__gap",
        "offset": 0,
        "slot": "51",
        "type": "t_array(t_uint256)50_storage"
      },
      {
        "astId": 1640,
        "contract": "contracts/rewards/Vesting02.sol:Vesting02",
        "label": "_name",
        "offset": 0,
        "slot": "101",
        "type": "t_string_storage"
      },
      {
        "astId": 1642,
        "contract": "contracts/rewards/Vesting02.sol:Vesting02",
        "label": "_symbol",
        "offset": 0,
        "slot": "102",
        "type": "t_string_storage"
      },
      {
        "astId": 1646,
        "contract": "contracts/rewards/Vesting02.sol:Vesting02",
        "label": "_owners",
        "offset": 0,
        "slot": "103",
        "type": "t_mapping(t_uint256,t_address)"
      },
      {
        "astId": 1650,
        "contract": "contracts/rewards/Vesting02.sol:Vesting02",
        "label": "_balances",
        "offset": 0,
        "slot": "104",
        "type": "t_mapping(t_address,t_uint256)"
      },
      {
        "astId": 1654,
        "contract": "contracts/rewards/Vesting02.sol:Vesting02",
        "label": "_tokenApprovals",
        "offset": 0,
        "slot": "105",
        "type": "t_mapping(t_uint256,t_address)"
      },
      {
        "astId": 1660,
        "contract": "contracts/rewards/Vesting02.sol:Vesting02",
        "label": "_operatorApprovals",
        "offset": 0,
        "slot": "106",
        "type": "t_mapping(t_address,t_mapping(t_address,t_bool))"
      },
      {
        "astId": 2458,
        "contract": "contracts/rewards/Vesting02.sol:Vesting02",
        "label": "__gap",
        "offset": 0,
        "slot": "107",
        "type": "t_array(t_uint256)44_storage"
      },
      {
        "astId": 2630,
        "contract": "contracts/rewards/Vesting02.sol:Vesting02",
        "label": "_tokenURIs",
        "offset": 0,
        "slot": "151",
        "type": "t_mapping(t_uint256,t_string_storage)"
      },
      {
        "astId": 2748,
        "contract": "contracts/rewards/Vesting02.sol:Vesting02",
        "label": "__gap",
        "offset": 0,
        "slot": "152",
        "type": "t_array(t_uint256)49_storage"
      },
      {
        "astId": 406,
        "contract": "contracts/rewards/Vesting02.sol:Vesting02",
        "label": "_owner",
        "offset": 0,
        "slot": "201",
        "type": "t_address"
      },
      {
        "astId": 525,
        "contract": "contracts/rewards/Vesting02.sol:Vesting02",
        "label": "__gap",
        "offset": 0,
        "slot": "202",
        "type": "t_array(t_uint256)49_storage"
      },
      {
        "astId": 20447,
        "contract": "contracts/rewards/Vesting02.sol:Vesting02",
        "label": "vestList",
        "offset": 0,
        "slot": "251",
        "type": "t_array(t_struct(Vest)20443_storage)dyn_storage"
      },
      {
        "astId": 20453,
        "contract": "contracts/rewards/Vesting02.sol:Vesting02",
        "label": "depositIDToVestID",
        "offset": 0,
        "slot": "252",
        "type": "t_mapping(t_address,t_mapping(t_uint64,t_uint64))"
      },
      {
        "astId": 20456,
        "contract": "contracts/rewards/Vesting02.sol:Vesting02",
        "label": "mphMinter",
        "offset": 0,
        "slot": "253",
        "type": "t_contract(MPHMinter)19375"
      },
      {
        "astId": 20459,
        "contract": "contracts/rewards/Vesting02.sol:Vesting02",
        "label": "token",
        "offset": 0,
        "slot": "254",
        "type": "t_contract(IERC20)5070"
      },
      {
        "astId": 20461,
        "contract": "contracts/rewards/Vesting02.sol:Vesting02",
        "label": "_contractURI",
        "offset": 0,
        "slot": "255",
        "type": "t_string_storage"
      },
      {
        "astId": 20463,
        "contract": "contracts/rewards/Vesting02.sol:Vesting02",
        "label": "__baseURI",
        "offset": 0,
        "slot": "256",
        "type": "t_string_storage"
      },
      {
        "astId": 21036,
        "contract": "contracts/rewards/Vesting02.sol:Vesting02",
        "label": "__gap",
        "offset": 0,
        "slot": "257",
        "type": "t_array(t_uint256)44_storage"
      }
    ],
    "types": {
      "t_address": {
        "encoding": "inplace",
        "label": "address",
        "numberOfBytes": "20"
      },
      "t_array(t_struct(Vest)20443_storage)dyn_storage": {
        "base": "t_struct(Vest)20443_storage",
        "encoding": "dynamic_array",
        "label": "struct Vesting02.Vest[]",
        "numberOfBytes": "32"
      },
      "t_array(t_uint256)44_storage": {
        "base": "t_uint256",
        "encoding": "inplace",
        "label": "uint256[44]",
        "numberOfBytes": "1408"
      },
      "t_array(t_uint256)49_storage": {
        "base": "t_uint256",
        "encoding": "inplace",
        "label": "uint256[49]",
        "numberOfBytes": "1568"
      },
      "t_array(t_uint256)50_storage": {
        "base": "t_uint256",
        "encoding": "inplace",
        "label": "uint256[50]",
        "numberOfBytes": "1600"
      },
      "t_bool": {
        "encoding": "inplace",
        "label": "bool",
        "numberOfBytes": "1"
      },
      "t_contract(IERC20)5070": {
        "encoding": "inplace",
        "label": "contract IERC20",
        "numberOfBytes": "20"
      },
      "t_contract(MPHMinter)19375": {
        "encoding": "inplace",
        "label": "contract MPHMinter",
        "numberOfBytes": "20"
      },
      "t_mapping(t_address,t_bool)": {
        "encoding": "mapping",
        "key": "t_address",
        "label": "mapping(address => bool)",
        "numberOfBytes": "32",
        "value": "t_bool"
      },
      "t_mapping(t_address,t_mapping(t_address,t_bool))": {
        "encoding": "mapping",
        "key": "t_address",
        "label": "mapping(address => mapping(address => bool))",
        "numberOfBytes": "32",
        "value": "t_mapping(t_address,t_bool)"
      },
      "t_mapping(t_address,t_mapping(t_uint64,t_uint64))": {
        "encoding": "mapping",
        "key": "t_address",
        "label": "mapping(address => mapping(uint64 => uint64))",
        "numberOfBytes": "32",
        "value": "t_mapping(t_uint64,t_uint64)"
      },
      "t_mapping(t_address,t_uint256)": {
        "encoding": "mapping",
        "key": "t_address",
        "label": "mapping(address => uint256)",
        "numberOfBytes": "32",
        "value": "t_uint256"
      },
      "t_mapping(t_uint256,t_address)": {
        "encoding": "mapping",
        "key": "t_uint256",
        "label": "mapping(uint256 => address)",
        "numberOfBytes": "32",
        "value": "t_address"
      },
      "t_mapping(t_uint256,t_string_storage)": {
        "encoding": "mapping",
        "key": "t_uint256",
        "label": "mapping(uint256 => string)",
        "numberOfBytes": "32",
        "value": "t_string_storage"
      },
      "t_mapping(t_uint64,t_uint64)": {
        "encoding": "mapping",
        "key": "t_uint64",
        "label": "mapping(uint64 => uint64)",
        "numberOfBytes": "32",
        "value": "t_uint64"
      },
      "t_string_storage": {
        "encoding": "bytes",
        "label": "string",
        "numberOfBytes": "32"
      },
      "t_struct(Vest)20443_storage": {
        "encoding": "inplace",
        "label": "struct Vesting02.Vest",
        "members": [
          {
            "astId": 20432,
            "contract": "contracts/rewards/Vesting02.sol:Vesting02",
            "label": "pool",
            "offset": 0,
            "slot": "0",
            "type": "t_address"
          },
          {
            "astId": 20434,
            "contract": "contracts/rewards/Vesting02.sol:Vesting02",
            "label": "depositID",
            "offset": 20,
            "slot": "0",
            "type": "t_uint64"
          },
          {
            "astId": 20436,
            "contract": "contracts/rewards/Vesting02.sol:Vesting02",
            "label": "lastUpdateTimestamp",
            "offset": 0,
            "slot": "1",
            "type": "t_uint64"
          },
          {
            "astId": 20438,
            "contract": "contracts/rewards/Vesting02.sol:Vesting02",
            "label": "accumulatedAmount",
            "offset": 0,
            "slot": "2",
            "type": "t_uint256"
          },
          {
            "astId": 20440,
            "contract": "contracts/rewards/Vesting02.sol:Vesting02",
            "label": "withdrawnAmount",
            "offset": 0,
            "slot": "3",
            "type": "t_uint256"
          },
          {
            "astId": 20442,
            "contract": "contracts/rewards/Vesting02.sol:Vesting02",
            "label": "vestAmountPerStablecoinPerSecond",
            "offset": 0,
            "slot": "4",
            "type": "t_uint256"
          }
        ],
        "numberOfBytes": "160"
      },
      "t_uint256": {
        "encoding": "inplace",
        "label": "uint256",
        "numberOfBytes": "32"
      },
      "t_uint64": {
        "encoding": "inplace",
        "label": "uint64",
        "numberOfBytes": "8"
      }
    }
  }
}