{
  "address": "0x2863B075FF7C3B9A139052d5b736303362944A2E",
  "abi": [
    {
      "anonymous": false,
      "inputs": [
        {
          "indexed": true,
          "internalType": "address",
          "name": "owner",
          "type": "address"
        },
        {
          "indexed": true,
          "internalType": "address",
          "name": "spender",
          "type": "address"
        },
        {
          "indexed": false,
          "internalType": "uint256",
          "name": "value",
          "type": "uint256"
        }
      ],
      "name": "Approval",
      "type": "event"
    },
    {
      "anonymous": false,
      "inputs": [
        {
          "indexed": true,
          "internalType": "bytes32",
          "name": "role",
          "type": "bytes32"
        },
        {
          "indexed": true,
          "internalType": "bytes32",
          "name": "previousAdminRole",
          "type": "bytes32"
        },
        {
          "indexed": true,
          "internalType": "bytes32",
          "name": "newAdminRole",
          "type": "bytes32"
        }
      ],
      "name": "RoleAdminChanged",
      "type": "event"
    },
    {
      "anonymous": false,
      "inputs": [
        {
          "indexed": true,
          "internalType": "bytes32",
          "name": "role",
          "type": "bytes32"
        },
        {
          "indexed": true,
          "internalType": "address",
          "name": "account",
          "type": "address"
        },
        {
          "indexed": true,
          "internalType": "address",
          "name": "sender",
          "type": "address"
        }
      ],
      "name": "RoleGranted",
      "type": "event"
    },
    {
      "anonymous": false,
      "inputs": [
        {
          "indexed": true,
          "internalType": "bytes32",
          "name": "role",
          "type": "bytes32"
        },
        {
          "indexed": true,
          "internalType": "address",
          "name": "account",
          "type": "address"
        },
        {
          "indexed": true,
          "internalType": "address",
          "name": "sender",
          "type": "address"
        }
      ],
      "name": "RoleRevoked",
      "type": "event"
    },
    {
      "anonymous": false,
      "inputs": [
        {
          "indexed": true,
          "internalType": "address",
          "name": "from",
          "type": "address"
        },
        {
          "indexed": true,
          "internalType": "address",
          "name": "to",
          "type": "address"
        },
        {
          "indexed": false,
          "internalType": "uint256",
          "name": "value",
          "type": "uint256"
        }
      ],
      "name": "Transfer",
      "type": "event"
    },
    {
      "inputs": [],
      "name": "DEFAULT_ADMIN_ROLE",
      "outputs": [
        {
          "internalType": "bytes32",
          "name": "",
          "type": "bytes32"
        }
      ],
      "stateMutability": "view",
      "type": "function"
    },
    {
      "inputs": [],
      "name": "DISTRIBUTOR_ROLE",
      "outputs": [
        {
          "internalType": "bytes32",
          "name": "",
          "type": "bytes32"
        }
      ],
      "stateMutability": "view",
      "type": "function"
    },
    {
      "inputs": [],
      "name": "MIN_AMOUNT",
      "outputs": [
        {
          "internalType": "uint256",
          "name": "",
          "type": "uint256"
        }
      ],
      "stateMutability": "view",
      "type": "function"
    },
    {
      "inputs": [
        {
          "internalType": "address",
          "name": "owner",
          "type": "address"
        },
        {
          "internalType": "address",
          "name": "spender",
          "type": "address"
        }
      ],
      "name": "allowance",
      "outputs": [
        {
          "internalType": "uint256",
          "name": "",
          "type": "uint256"
        }
      ],
      "stateMutability": "view",
      "type": "function"
    },
    {
      "inputs": [
        {
          "internalType": "address",
          "name": "spender",
          "type": "address"
        },
        {
          "internalType": "uint256",
          "name": "amount",
          "type": "uint256"
        }
      ],
      "name": "approve",
      "outputs": [
        {
          "internalType": "bool",
          "name": "",
          "type": "bool"
        }
      ],
      "stateMutability": "nonpayable",
      "type": "function"
    },
    {
      "inputs": [
        {
          "internalType": "address",
          "name": "account",
          "type": "address"
        }
      ],
      "name": "balanceOf",
      "outputs": [
        {
          "internalType": "uint256",
          "name": "",
          "type": "uint256"
        }
      ],
      "stateMutability": "view",
      "type": "function"
    },
    {
      "inputs": [],
      "name": "currentUnlockEndTimestamp",
      "outputs": [
        {
          "internalType": "uint256",
          "name": "",
          "type": "uint256"
        }
      ],
      "stateMutability": "view",
      "type": "function"
    },
    {
      "inputs": [],
      "name": "decimals",
      "outputs": [
        {
          "internalType": "uint8",
          "name": "",
          "type": "uint8"
        }
      ],
      "stateMutability": "view",
      "type": "function"
    },
    {
      "inputs": [
        {
          "internalType": "address",
          "name": "spender",
          "type": "address"
        },
        {
          "internalType": "uint256",
          "name": "subtractedValue",
          "type": "uint256"
        }
      ],
      "name": "decreaseAllowance",
      "outputs": [
        {
          "internalType": "bool",
          "name": "",
          "type": "bool"
        }
      ],
      "stateMutability": "nonpayable",
      "type": "function"
    },
    {
      "inputs": [
        {
          "internalType": "uint256",
          "name": "_mphAmount",
          "type": "uint256"
        }
      ],
      "name": "deposit",
      "outputs": [
        {
          "internalType": "uint256",
          "name": "shareAmount",
          "type": "uint256"
        }
      ],
      "stateMutability": "nonpayable",
      "type": "function"
    },
    {
      "inputs": [
        {
          "internalType": "uint256",
          "name": "rewardAmount",
          "type": "uint256"
        }
      ],
      "name": "distributeReward",
      "outputs": [],
      "stateMutability": "nonpayable",
      "type": "function"
    },
    {
      "inputs": [],
      "name": "getPricePerFullShare",
      "outputs": [
        {
          "internalType": "uint256",
          "name": "",
          "type": "uint256"
        }
      ],
      "stateMutability": "view",
      "type": "function"
    },
    {
      "inputs": [
        {
          "internalType": "bytes32",
          "name": "role",
          "type": "bytes32"
        }
      ],
      "name": "getRoleAdmin",
      "outputs": [
        {
          "internalType": "bytes32",
          "name": "",
          "type": "bytes32"
        }
      ],
      "stateMutability": "view",
      "type": "function"
    },
    {
      "inputs": [
        {
          "internalType": "bytes32",
          "name": "role",
          "type": "bytes32"
        },
        {
          "internalType": "address",
          "name": "account",
          "type": "address"
        }
      ],
      "name": "grantRole",
      "outputs": [],
      "stateMutability": "nonpayable",
      "type": "function"
    },
    {
      "inputs": [
        {
          "internalType": "bytes32",
          "name": "role",
          "type": "bytes32"
        },
        {
          "internalType": "address",
          "name": "account",
          "type": "address"
        }
      ],
      "name": "hasRole",
      "outputs": [
        {
          "internalType": "bool",
          "name": "",
          "type": "bool"
        }
      ],
      "stateMutability": "view",
      "type": "function"
    },
    {
      "inputs": [
        {
          "internalType": "address",
          "name": "spender",
          "type": "address"
        },
        {
          "internalType": "uint256",
          "name": "addedValue",
          "type": "uint256"
        }
      ],
      "name": "increaseAllowance",
      "outputs": [
        {
          "internalType": "bool",
          "name": "",
          "type": "bool"
        }
      ],
      "stateMutability": "nonpayable",
      "type": "function"
    },
    {
      "inputs": [
        {
          "internalType": "address",
          "name": "_mph",
          "type": "address"
        },
        {
          "internalType": "uint256",
          "name": "_rewardUnlockPeriod",
          "type": "uint256"
        },
        {
          "internalType": "address",
          "name": "_distributor",
          "type": "address"
        }
      ],
      "name": "initialize",
      "outputs": [],
      "stateMutability": "nonpayable",
      "type": "function"
    },
    {
      "inputs": [],
      "name": "lastRewardAmount",
      "outputs": [
        {
          "internalType": "uint256",
          "name": "",
          "type": "uint256"
        }
      ],
      "stateMutability": "view",
      "type": "function"
    },
    {
      "inputs": [],
      "name": "lastRewardTimestamp",
      "outputs": [
        {
          "internalType": "uint256",
          "name": "",
          "type": "uint256"
        }
      ],
      "stateMutability": "view",
      "type": "function"
    },
    {
      "inputs": [],
      "name": "mph",
      "outputs": [
        {
          "internalType": "contract ERC20",
          "name": "",
          "type": "address"
        }
      ],
      "stateMutability": "view",
      "type": "function"
    },
    {
      "inputs": [],
      "name": "name",
      "outputs": [
        {
          "internalType": "string",
          "name": "",
          "type": "string"
        }
      ],
      "stateMutability": "view",
      "type": "function"
    },
    {
      "inputs": [
        {
          "internalType": "bytes32",
          "name": "role",
          "type": "bytes32"
        },
        {
          "internalType": "address",
          "name": "account",
          "type": "address"
        }
      ],
      "name": "renounceRole",
      "outputs": [],
      "stateMutability": "nonpayable",
      "type": "function"
    },
    {
      "inputs": [
        {
          "internalType": "bytes32",
          "name": "role",
          "type": "bytes32"
        },
        {
          "internalType": "address",
          "name": "account",
          "type": "address"
        }
      ],
      "name": "revokeRole",
      "outputs": [],
      "stateMutability": "nonpayable",
      "type": "function"
    },
    {
      "inputs": [],
      "name": "rewardUnlockPeriod",
      "outputs": [
        {
          "internalType": "uint256",
          "name": "",
          "type": "uint256"
        }
      ],
      "stateMutability": "view",
      "type": "function"
    },
    {
      "inputs": [
        {
          "internalType": "uint256",
          "name": "newValue",
          "type": "uint256"
        }
      ],
      "name": "setRewardUnlockPeriod",
      "outputs": [],
      "stateMutability": "nonpayable",
      "type": "function"
    },
    {
      "inputs": [
        {
          "internalType": "bytes4",
          "name": "interfaceId",
          "type": "bytes4"
        }
      ],
      "name": "supportsInterface",
      "outputs": [
        {
          "internalType": "bool",
          "name": "",
          "type": "bool"
        }
      ],
      "stateMutability": "view",
      "type": "function"
    },
    {
      "inputs": [],
      "name": "symbol",
      "outputs": [
        {
          "internalType": "string",
          "name": "",
          "type": "string"
        }
      ],
      "stateMutability": "view",
      "type": "function"
    },
    {
      "inputs": [],
      "name": "totalSupply",
      "outputs": [
        {
          "internalType": "uint256",
          "name": "",
          "type": "uint256"
        }
      ],
      "stateMutability": "view",
      "type": "function"
    },
    {
      "inputs": [
        {
          "internalType": "address",
          "name": "recipient",
          "type": "address"
        },
        {
          "internalType": "uint256",
          "name": "amount",
          "type": "uint256"
        }
      ],
      "name": "transfer",
      "outputs": [
        {
          "internalType": "bool",
          "name": "",
          "type": "bool"
        }
      ],
      "stateMutability": "nonpayable",
      "type": "function"
    },
    {
      "inputs": [
        {
          "internalType": "address",
          "name": "sender",
          "type": "address"
        },
        {
          "internalType": "address",
          "name": "recipient",
          "type": "address"
        },
        {
          "internalType": "uint256",
          "name": "amount",
          "type": "uint256"
        }
      ],
      "name": "transferFrom",
      "outputs": [
        {
          "internalType": "bool",
          "name": "",
          "type": "bool"
        }
      ],
      "stateMutability": "nonpayable",
      "type": "function"
    },
    {
      "inputs": [
        {
          "internalType": "uint256",
          "name": "_shareAmount",
          "type": "uint256"
        }
      ],
      "name": "withdraw",
      "outputs": [
        {
          "internalType": "uint256",
          "name": "mphAmount",
          "type": "uint256"
        }
      ],
      "stateMutability": "nonpayable",
      "type": "function"
    }
  ],
  "transactionHash": "0x584b44c8eb06708f9edecad0828fcd77add289ebf892d86abc737cb3b2c62251",
  "args": [],
  "solcInputHash": "ef30a810f52e8546dd2d48092c96ad7a",
  "bytecode": "0x608060405234801561001057600080fd5b50612025806100206000396000f3fe608060405234801561001057600080fd5b50600436106101e55760003560e01c806377c7b8fc1161010f578063bafedcaa116100a2578063dd62ed3e11610071578063dd62ed3e146103fe578063ddbcb5fa14610437578063f0bd87cc14610442578063f8077fae14610457576101e5565b8063bafedcaa146103bc578063c350a1b5146103c5578063d547741f146103d8578063db88fee2146103eb576101e5565b8063a217fddf116100de578063a217fddf1461037b578063a457c2d714610383578063a9059cbb14610396578063b6b55f25146103a9576101e5565b806377c7b8fc1461034557806391d148541461034d578063940a4e451461036057806395d89b4114610373576101e5565b80632e1a7d4d11610187578063395093511161015657806339509351146102f75780635c53b7c91461030a57806370a0823114610313578063722c2fff1461033c576101e5565b80632e1a7d4d146102ad5780632f2ff15d146102c0578063313ce567146102d557806336568abe146102e4576101e5565b806318160ddd116101c357806318160ddd1461023a5780632304aa611461024c57806323b872dd14610277578063248a9ca31461028a576101e5565b806301ffc9a7146101ea57806306fdde0314610212578063095ea7b314610227575b600080fd5b6101fd6101f8366004611d9d565b610460565b60405190151581526020015b60405180910390f35b61021a610499565b6040516102099190611e52565b6101fd610235366004611cdf565b61052c565b6035545b604051908152602001610209565b60c95461025f906001600160a01b031681565b6040516001600160a01b039091168152602001610209565b6101fd610285366004611ca4565b610542565b61023e610298366004611d63565b60009081526097602052604090206001015490565b61023e6102bb366004611d63565b6105f8565b6102d36102ce366004611d7b565b610603565b005b60405160128152602001610209565b6102d36102f2366004611d7b565b61062f565b6101fd610305366004611cdf565b6106ad565b61023e60ca5481565b61023e610321366004611c58565b6001600160a01b031660009081526033602052604090205490565b61023e60cb5481565b61023e6106e4565b6101fd61035b366004611d7b565b610812565b6102d361036e366004611d63565b61083d565b61021a610849565b61023e600081565b6101fd610391366004611cdf565b610858565b6101fd6103a4366004611cdf565b6108f3565b61023e6103b7366004611d63565b610900565b61023e60cd5481565b6102d36103d3366004611d08565b61090b565b6102d36103e6366004611d7b565b610985565b6102d36103f9366004611d63565b6109ab565b61023e61040c366004611c72565b6001600160a01b03918216600090815260346020908152604080832093909416825291909152205490565b61023e633b9aca0081565b61023e600080516020611fd083398151915281565b61023e60cc5481565b60006001600160e01b03198216637965db0b60e01b148061049157506301ffc9a760e01b6001600160e01b03198316145b90505b919050565b6060603680546104a890611f84565b80601f01602080910402602001604051908101604052809291908181526020018280546104d490611f84565b80156105215780601f106104f657610100808354040283529160200191610521565b820191906000526020600020905b81548152906001019060200180831161050457829003601f168201915b505050505090505b90565b6000610539338484610a4f565b50600192915050565b600061054f848484610b74565b6001600160a01b0384166000908152603460209081526040808320338452909152902054828110156105d95760405162461bcd60e51b815260206004820152602860248201527f45524332303a207472616e7366657220616d6f756e74206578636565647320616044820152676c6c6f77616e636560c01b60648201526084015b60405180910390fd5b6105ed85336105e88685611f2a565b610a4f565b506001949350505050565b600061049182610d4c565b60008281526097602052604090206001015461062081335b610e51565b61062a8383610eb5565b505050565b6001600160a01b038116331461069f5760405162461bcd60e51b815260206004820152602f60248201527f416363657373436f6e74726f6c3a2063616e206f6e6c792072656e6f756e636560448201526e103937b632b9903337b91039b2b63360891b60648201526084016105d0565b6106a98282610f3b565b5050565b3360008181526034602090815260408083206001600160a01b038716845290915281205490916105399185906105e8908690611ed3565b6000806106f060355490565b60c9546040516370a0823160e01b81523060048201529192506000916001600160a01b03909116906370a082319060240160206040518083038186803b15801561073957600080fd5b505afa15801561074d573d6000803e3d6000fd5b505050506040513d601f19601f820116820180604052508101906107719190611dc5565b905081158061077e575080155b1561079557670de0b6b3a764000092505050610529565b60cd5460cb548115806107a85750804210155b156107c2576107b78385610fa2565b945050505050610529565b60cc5460006107d18284611f2a565b6107db4285611f2a565b6107e59086611f0b565b6107ef9190611eeb565b9050610805866107ff8388611f2a565b90610fa2565b9650505050505050610529565b60009182526097602090815260408084206001600160a01b0393909316845291905290205460ff1690565b61084681610fc8565b50565b6060603780546104a890611f84565b3360009081526034602090815260408083206001600160a01b0386168452909152812054828110156108da5760405162461bcd60e51b815260206004820152602560248201527f45524332303a2064656372656173656420616c6c6f77616e63652062656c6f77604482015264207a65726f60d81b60648201526084016105d0565b6108e933856105e88685611f2a565b5060019392505050565b6000610539338484610b74565b600061049182611220565b600054610100900460ff1680610924575060005460ff16155b6109405760405162461bcd60e51b81526004016105d090611e85565b600054610100900460ff16158015610962576000805461ffff19166101011790555b61096d8484846112bb565b801561097f576000805461ff00191690555b50505050565b6000828152609760205260409020600101546109a1813361061b565b61062a8383610f3b565b6109b6600033610812565b6109f45760405162461bcd60e51b815260206004820152600f60248201526e3c26a8241d103737ba1030b236b4b760891b60448201526064016105d0565b600081118015610a0857506301e133808111155b610a4a5760405162461bcd60e51b8152602060048201526013602482015272784d50483a20696e76616c69642076616c756560681b60448201526064016105d0565b60ca55565b6001600160a01b038316610ab15760405162461bcd60e51b8152602060048201526024808201527f45524332303a20617070726f76652066726f6d20746865207a65726f206164646044820152637265737360e01b60648201526084016105d0565b6001600160a01b038216610b125760405162461bcd60e51b815260206004820152602260248201527f45524332303a20617070726f766520746f20746865207a65726f206164647265604482015261737360f01b60648201526084016105d0565b6001600160a01b0383811660008181526034602090815260408083209487168084529482529182902085905590518481527f8c5be1e5ebec7d5bd14f71427d1e84f3dd0314c0f7b2291e5b200ac8c7c3b92591015b60405180910390a3505050565b6001600160a01b038316610bd85760405162461bcd60e51b815260206004820152602560248201527f45524332303a207472616e736665722066726f6d20746865207a65726f206164604482015264647265737360d81b60648201526084016105d0565b6001600160a01b038216610c3a5760405162461bcd60e51b815260206004820152602360248201527f45524332303a207472616e7366657220746f20746865207a65726f206164647260448201526265737360e81b60648201526084016105d0565b6001600160a01b03831660009081526033602052604090205481811015610cb25760405162461bcd60e51b815260206004820152602660248201527f45524332303a207472616e7366657220616d6f756e7420657863656564732062604482015265616c616e636560d01b60648201526084016105d0565b610cbc8282611f2a565b6001600160a01b038086166000908152603360205260408082209390935590851681529081208054849290610cf2908490611ed3565b92505081905550826001600160a01b0316846001600160a01b03167fddf252ad1be2c89b69c2b068fc378daa952ba7f163c4a11628f55a4df523b3ef84604051610d3e91815260200190565b60405180910390a350505050565b6000610d5c633b9aca0083611ed3565b60355410158015610d6d5750600082115b610da85760405162461bcd60e51b815260206004820152600c60248201526b1e1354120e88185b5bdd5b9d60a21b60448201526064016105d0565b610dba610db36106e4565b839061136d565b9050610dc63383611382565b60c95460405163a9059cbb60e01b8152336004820152602481018390526001600160a01b039091169063a9059cbb906044015b602060405180830381600087803b158015610e1357600080fd5b505af1158015610e27573d6000803e3d6000fd5b505050506040513d601f19601f82011682018060405250810190610e4b9190611d43565b50919050565b610e5b8282610812565b6106a957610e73816001600160a01b031660146114d1565b610e7e8360206114d1565b604051602001610e8f929190611ddd565b60408051601f198184030181529082905262461bcd60e51b82526105d091600401611e52565b610ebf8282610812565b6106a95760008281526097602090815260408083206001600160a01b03851684529091529020805460ff19166001179055610ef73390565b6001600160a01b0316816001600160a01b0316837f2f8788117e7eff1d82e926ec794901d17c78024a50270940304540a733656f0d60405160405180910390a45050565b610f458282610812565b156106a95760008281526097602090815260408083206001600160a01b0385168085529252808320805460ff1916905551339285917ff6391f5c32d9c69d2a47ea670b442974b53935d1edc7fd64eb21e047a839171b9190a45050565b600081610fb7670de0b6b3a764000085611f0b565b610fc19190611eeb565b9392505050565b633b9aca00610fd660355490565b10156110135760405162461bcd60e51b815260206004820152600c60248201526b784d50483a20737570706c7960a01b60448201526064016105d0565b633b9aca008110156110565760405162461bcd60e51b815260206004820152600c60248201526b1e1354120e881c995dd85c9960a21b60448201526064016105d0565b61106a670de0b6b3a7640000600019611eeb565b81106110c45760405162461bcd60e51b815260206004820152602360248201527f784d50483a207265776172647320746f6f206c617267652c20776f756c64206c6044820152626f636b60e81b60648201526084016105d0565b6110dc600080516020611fd083398151915233610812565b6111205760405162461bcd60e51b81526020600482015260156024820152743c26a8241d103737ba103234b9ba3934b13aba37b960591b60448201526064016105d0565b60c9546040516323b872dd60e01b8152336004820152306024820152604481018390526001600160a01b03909116906323b872dd90606401602060405180830381600087803b15801561117257600080fd5b505af1158015611186573d6000803e3d6000fd5b505050506040513d601f19601f820116820180604052508101906111aa9190611d43565b5060cb5442106111d25760ca546111c19042611ed3565b60cb554260cc5560cd819055610846565b600060cc5460cb546111e49190611f2a565b4260cb546111f29190611f2a565b60cd546111ff9190611f0b565b6112099190611eeb565b4260cc5590506112198183611ed3565b60cd555050565b60008082116112605760405162461bcd60e51b815260206004820152600c60248201526b1e1354120e88185b5bdd5b9d60a21b60448201526064016105d0565b61127261126b6106e4565b8390610fa2565b905061127e33826116b3565b60c9546040516323b872dd60e01b8152336004820152306024820152604481018490526001600160a01b03909116906323b872dd90606401610df9565b600054610100900460ff16806112d4575060005460ff16155b6112f05760405162461bcd60e51b81526004016105d090611e85565b600054610100900460ff16158015611312576000805461ffff19166101011790555b61135a6040518060400160405280600a8152602001690a6e8c2d6cac8409aa0960b31b815250604051806040016040528060048152602001630f09aa0960e31b815250611792565b611362611811565b61096d848484611894565b6000670de0b6b3a7640000610fb78385611f0b565b6001600160a01b0382166113e25760405162461bcd60e51b815260206004820152602160248201527f45524332303a206275726e2066726f6d20746865207a65726f206164647265736044820152607360f81b60648201526084016105d0565b6001600160a01b038216600090815260336020526040902054818110156114565760405162461bcd60e51b815260206004820152602260248201527f45524332303a206275726e20616d6f756e7420657863656564732062616c616e604482015261636560f01b60648201526084016105d0565b6114608282611f2a565b6001600160a01b0384166000908152603360205260408120919091556035805484929061148e908490611f2a565b90915550506040518281526000906001600160a01b038516907fddf252ad1be2c89b69c2b068fc378daa952ba7f163c4a11628f55a4df523b3ef90602001610b67565b606060006114e0836002611f0b565b6114eb906002611ed3565b67ffffffffffffffff81111561151157634e487b7160e01b600052604160045260246000fd5b6040519080825280601f01601f19166020018201604052801561153b576020820181803683370190505b509050600360fc1b8160008151811061156457634e487b7160e01b600052603260045260246000fd5b60200101906001600160f81b031916908160001a905350600f60fb1b816001815181106115a157634e487b7160e01b600052603260045260246000fd5b60200101906001600160f81b031916908160001a90535060006115c5846002611f0b565b6115d0906001611ed3565b90505b6001811115611664576f181899199a1a9b1b9c1cb0b131b232b360811b85600f166010811061161257634e487b7160e01b600052603260045260246000fd5b1a60f81b82828151811061163657634e487b7160e01b600052603260045260246000fd5b60200101906001600160f81b031916908160001a90535060049490941c9361165d81611f6d565b90506115d3565b508315610fc15760405162461bcd60e51b815260206004820181905260248201527f537472696e67733a20686578206c656e67746820696e73756666696369656e7460448201526064016105d0565b6001600160a01b0382166117095760405162461bcd60e51b815260206004820152601f60248201527f45524332303a206d696e7420746f20746865207a65726f20616464726573730060448201526064016105d0565b806035600082825461171b9190611ed3565b90915550506001600160a01b03821660009081526033602052604081208054839290611748908490611ed3565b90915550506040518181526001600160a01b038316906000907fddf252ad1be2c89b69c2b068fc378daa952ba7f163c4a11628f55a4df523b3ef9060200160405180910390a35050565b600054610100900460ff16806117ab575060005460ff16155b6117c75760405162461bcd60e51b81526004016105d090611e85565b600054610100900460ff161580156117e9576000805461ffff19166101011790555b6117f1611a4b565b6117fb8383611ab5565b801561062a576000805461ff0019169055505050565b600054610100900460ff168061182a575060005460ff16155b6118465760405162461bcd60e51b81526004016105d090611e85565b600054610100900460ff16158015611868576000805461ffff19166101011790555b611870611a4b565b611878611a4b565b611880611a4b565b8015610846576000805461ff001916905550565b600054610100900460ff16806118ad575060005460ff16155b6118c95760405162461bcd60e51b81526004016105d090611e85565b600054610100900460ff161580156118eb576000805461ffff19166101011790555b6001600160a01b0384161580159061190b57506001600160a01b03821615155b6119495760405162461bcd60e51b815260206004820152600f60248201526e784d50483a2030206164647265737360881b60448201526064016105d0565b60008311801561195d57506301e133808311155b6119b35760405162461bcd60e51b815260206004820152602160248201527f784d50483a20696e76616c6964205f726577617264556e6c6f636b506572696f6044820152601960fa1b60648201526084016105d0565b6119be600033611b4a565b6119d6600080516020611fd083398151915233611b4a565b6119ee600080516020611fd083398151915283611b4a565b611a06600080516020611fd083398151915280611b54565b60c980546001600160a01b0319166001600160a01b03861617905560ca839055611a33633b9aca00611220565b50801561097f576000805461ff001916905550505050565b600054610100900460ff1680611a64575060005460ff16155b611a805760405162461bcd60e51b81526004016105d090611e85565b600054610100900460ff16158015611880576000805461ffff19166101011790558015610846576000805461ff001916905550565b600054610100900460ff1680611ace575060005460ff16155b611aea5760405162461bcd60e51b81526004016105d090611e85565b600054610100900460ff16158015611b0c576000805461ffff19166101011790555b8251611b1f906036906020860190611ba8565b508151611b33906037906020850190611ba8565b50801561062a576000805461ff0019169055505050565b6106a98282610eb5565b600082815260976020526040902060010154819060405184907fbd79b86ffe0ab8e8776151514217cd7cacd52c909f66475c3af44e129f0b00ff90600090a460009182526097602052604090912060010155565b828054611bb490611f84565b90600052602060002090601f016020900481019282611bd65760008555611c1c565b82601f10611bef57805160ff1916838001178555611c1c565b82800160010185558215611c1c579182015b82811115611c1c578251825591602001919060010190611c01565b50611c28929150611c2c565b5090565b5b80821115611c285760008155600101611c2d565b80356001600160a01b038116811461049457600080fd5b600060208284031215611c69578081fd5b610fc182611c41565b60008060408385031215611c84578081fd5b611c8d83611c41565b9150611c9b60208401611c41565b90509250929050565b600080600060608486031215611cb8578081fd5b611cc184611c41565b9250611ccf60208501611c41565b9150604084013590509250925092565b60008060408385031215611cf1578182fd5b611cfa83611c41565b946020939093013593505050565b600080600060608486031215611d1c578283fd5b611d2584611c41565b925060208401359150611d3a60408501611c41565b90509250925092565b600060208284031215611d54578081fd5b81518015158114610fc1578182fd5b600060208284031215611d74578081fd5b5035919050565b60008060408385031215611d8d578182fd5b82359150611c9b60208401611c41565b600060208284031215611dae578081fd5b81356001600160e01b031981168114610fc1578182fd5b600060208284031215611dd6578081fd5b5051919050565b60007f416363657373436f6e74726f6c3a206163636f756e742000000000000000000082528351611e15816017850160208801611f41565b7001034b99036b4b9b9b4b733903937b6329607d1b6017918401918201528351611e46816028840160208801611f41565b01602801949350505050565b6000602082528251806020840152611e71816040850160208701611f41565b601f01601f19169190910160400192915050565b6020808252602e908201527f496e697469616c697a61626c653a20636f6e747261637420697320616c72656160408201526d191e481a5b9a5d1a585b1a5e995960921b606082015260800190565b60008219821115611ee657611ee6611fb9565b500190565b600082611f0657634e487b7160e01b81526012600452602481fd5b500490565b6000816000190483118215151615611f2557611f25611fb9565b500290565b600082821015611f3c57611f3c611fb9565b500390565b60005b83811015611f5c578181015183820152602001611f44565b8381111561097f5750506000910152565b600081611f7c57611f7c611fb9565b506000190190565b600181811c90821680611f9857607f821691505b60208210811415610e4b57634e487b7160e01b600052602260045260246000fd5b634e487b7160e01b600052601160045260246000fdfefbd454f36a7e1a388bd6fc3ab10d434aa4578f811acbbcf33afb1c697486313ca2646970667358221220066c72eecb1ef613016f1d9db3caf94f387a9a5f9cf577651405c4c61373698e64736f6c63430008030033",
  "devdoc": {
    "author": "Zefram Lou",
    "kind": "dev",
    "methods": {
      "allowance(address,address)": {
        "details": "See {IERC20-allowance}."
      },
      "approve(address,uint256)": {
        "details": "See {IERC20-approve}. Requirements: - `spender` cannot be the zero address."
      },
      "balanceOf(address)": {
        "details": "See {IERC20-balanceOf}."
      },
      "decimals()": {
        "details": "Returns the number of decimals used to get its user representation. For example, if `decimals` equals `2`, a balance of `505` tokens should be displayed to a user as `5,05` (`505 / 10 ** 2`). Tokens usually opt for a value of 18, imitating the relationship between Ether and Wei. This is the value {ERC20} uses, unless this function is overridden; NOTE: This information is only used for _display_ purposes: it in no way affects any of the arithmetic of the contract, including {IERC20-balanceOf} and {IERC20-transfer}."
      },
      "decreaseAllowance(address,uint256)": {
        "details": "Atomically decreases the allowance granted to `spender` by the caller. This is an alternative to {approve} that can be used as a mitigation for problems described in {IERC20-approve}. Emits an {Approval} event indicating the updated allowance. Requirements: - `spender` cannot be the zero address. - `spender` must have allowance for the caller of at least `subtractedValue`."
      },
      "deposit(uint256)": {
        "details": "The amount can't be 0",
        "params": {
          "_mphAmount": "The amount of MPH to deposit"
        },
        "returns": {
          "shareAmount": "The amount of xMPH minted"
        }
      },
      "distributeReward(uint256)": {
        "details": "When not in a distribution period, start a new one with rewardUnlockPeriod seconds. When in a distribution period, add rewards to current period"
      },
      "getPricePerFullShare()": {
        "details": "Initialized to be PRECISION (representing 1 MPH = 1 xMPH)",
        "returns": {
          "_0": "The amount of MPH that can be withdrawn by burning 1 xMPH"
        }
      },
      "getRoleAdmin(bytes32)": {
        "details": "Returns the admin role that controls `role`. See {grantRole} and {revokeRole}. To change a role's admin, use {_setRoleAdmin}."
      },
      "grantRole(bytes32,address)": {
        "details": "Grants `role` to `account`. If `account` had not been already granted `role`, emits a {RoleGranted} event. Requirements: - the caller must have ``role``'s admin role."
      },
      "hasRole(bytes32,address)": {
        "details": "Returns `true` if `account` has been granted `role`."
      },
      "increaseAllowance(address,uint256)": {
        "details": "Atomically increases the allowance granted to `spender` by the caller. This is an alternative to {approve} that can be used as a mitigation for problems described in {IERC20-approve}. Emits an {Approval} event indicating the updated allowance. Requirements: - `spender` cannot be the zero address."
      },
      "initialize(address,uint256,address)": {
        "params": {
          "_distributor": "The account that will call distributeReward()",
          "_mph": "The MPH token",
          "_rewardUnlockPeriod": "The length of each reward distribution period, in seconds"
        }
      },
      "name()": {
        "details": "Returns the name of the token."
      },
      "renounceRole(bytes32,address)": {
        "details": "Revokes `role` from the calling account. Roles are often managed via {grantRole} and {revokeRole}: this function's purpose is to provide a mechanism for accounts to lose their privileges if they are compromised (such as when a trusted device is misplaced). If the calling account had been granted `role`, emits a {RoleRevoked} event. Requirements: - the caller must be `account`."
      },
      "revokeRole(bytes32,address)": {
        "details": "Revokes `role` from `account`. If `account` had been granted `role`, emits a {RoleRevoked} event. Requirements: - the caller must have ``role``'s admin role."
      },
      "supportsInterface(bytes4)": {
        "details": "See {IERC165-supportsInterface}."
      },
      "symbol()": {
        "details": "Returns the symbol of the token, usually a shorter version of the name."
      },
      "totalSupply()": {
        "details": "See {IERC20-totalSupply}."
      },
      "transfer(address,uint256)": {
        "details": "See {IERC20-transfer}. Requirements: - `recipient` cannot be the zero address. - the caller must have a balance of at least `amount`."
      },
      "transferFrom(address,address,uint256)": {
        "details": "See {IERC20-transferFrom}. Emits an {Approval} event indicating the updated allowance. This is not required by the EIP. See the note at the beginning of {ERC20}. Requirements: - `sender` and `recipient` cannot be the zero address. - `sender` must have a balance of at least `amount`. - the caller must have allowance for ``sender``'s tokens of at least `amount`."
      },
      "withdraw(uint256)": {
        "details": "The amount can't be 0",
        "params": {
          "_shareAmount": "The amount of xMPH to burn"
        },
        "returns": {
          "mphAmount": "The amount of MPH withdrawn"
        }
      }
    },
    "title": "Staked MPH",
    "version": 1
  },
  "userdoc": {
    "kind": "user",
    "methods": {
      "deposit(uint256)": {
        "notice": "Deposit MPH to get xMPH"
      },
      "distributeReward(uint256)": {
        "notice": "Distributes MPH rewards to xMPH holders"
      },
      "getPricePerFullShare()": {
        "notice": "Compute the amount of MPH that can be withdrawn by burning 1 xMPH. Increases linearly during a reward distribution period."
      },
      "withdraw(uint256)": {
        "notice": "Withdraw MPH using xMPH"
      }
    },
    "notice": "The MPH staking contract",
    "version": 1
  },
  "storageLayout": {
    "storage": [
      {
        "astId": 612,
        "contract": "contracts/rewards/xMPH.sol:xMPH",
        "label": "_initialized",
        "offset": 0,
        "slot": "0",
        "type": "t_bool"
      },
      {
        "astId": 615,
        "contract": "contracts/rewards/xMPH.sol:xMPH",
        "label": "_initializing",
        "offset": 1,
        "slot": "0",
        "type": "t_bool"
      },
      {
        "astId": 3064,
        "contract": "contracts/rewards/xMPH.sol:xMPH",
        "label": "__gap",
        "offset": 0,
        "slot": "1",
        "type": "t_array(t_uint256)50_storage"
      },
      {
        "astId": 907,
        "contract": "contracts/rewards/xMPH.sol:xMPH",
        "label": "_balances",
        "offset": 0,
        "slot": "51",
        "type": "t_mapping(t_address,t_uint256)"
      },
      {
        "astId": 913,
        "contract": "contracts/rewards/xMPH.sol:xMPH",
        "label": "_allowances",
        "offset": 0,
        "slot": "52",
        "type": "t_mapping(t_address,t_mapping(t_address,t_uint256))"
      },
      {
        "astId": 915,
        "contract": "contracts/rewards/xMPH.sol:xMPH",
        "label": "_totalSupply",
        "offset": 0,
        "slot": "53",
        "type": "t_uint256"
      },
      {
        "astId": 917,
        "contract": "contracts/rewards/xMPH.sol:xMPH",
        "label": "_name",
        "offset": 0,
        "slot": "54",
        "type": "t_string_storage"
      },
      {
        "astId": 919,
        "contract": "contracts/rewards/xMPH.sol:xMPH",
        "label": "_symbol",
        "offset": 0,
        "slot": "55",
        "type": "t_string_storage"
      },
      {
        "astId": 1421,
        "contract": "contracts/rewards/xMPH.sol:xMPH",
        "label": "__gap",
        "offset": 0,
        "slot": "56",
        "type": "t_array(t_uint256)45_storage"
      },
      {
        "astId": 3453,
        "contract": "contracts/rewards/xMPH.sol:xMPH",
        "label": "__gap",
        "offset": 0,
        "slot": "101",
        "type": "t_array(t_uint256)50_storage"
      },
      {
        "astId": 86,
        "contract": "contracts/rewards/xMPH.sol:xMPH",
        "label": "_roles",
        "offset": 0,
        "slot": "151",
        "type": "t_mapping(t_bytes32,t_struct(RoleData)81_storage)"
      },
      {
        "astId": 394,
        "contract": "contracts/rewards/xMPH.sol:xMPH",
        "label": "__gap",
        "offset": 0,
        "slot": "152",
        "type": "t_array(t_uint256)49_storage"
      },
      {
        "astId": 21869,
        "contract": "contracts/rewards/xMPH.sol:xMPH",
        "label": "mph",
        "offset": 0,
        "slot": "201",
        "type": "t_contract(ERC20)4992"
      },
      {
        "astId": 21871,
        "contract": "contracts/rewards/xMPH.sol:xMPH",
        "label": "rewardUnlockPeriod",
        "offset": 0,
        "slot": "202",
        "type": "t_uint256"
      },
      {
        "astId": 21873,
        "contract": "contracts/rewards/xMPH.sol:xMPH",
        "label": "currentUnlockEndTimestamp",
        "offset": 0,
        "slot": "203",
        "type": "t_uint256"
      },
      {
        "astId": 21875,
        "contract": "contracts/rewards/xMPH.sol:xMPH",
        "label": "lastRewardTimestamp",
        "offset": 0,
        "slot": "204",
        "type": "t_uint256"
      },
      {
        "astId": 21877,
        "contract": "contracts/rewards/xMPH.sol:xMPH",
        "label": "lastRewardAmount",
        "offset": 0,
        "slot": "205",
        "type": "t_uint256"
      },
      {
        "astId": 22347,
        "contract": "contracts/rewards/xMPH.sol:xMPH",
        "label": "__gap",
        "offset": 0,
        "slot": "206",
        "type": "t_array(t_uint256)45_storage"
      }
    ],
    "types": {
      "t_address": {
        "encoding": "inplace",
        "label": "address",
        "numberOfBytes": "20"
      },
      "t_array(t_uint256)45_storage": {
        "base": "t_uint256",
        "encoding": "inplace",
        "label": "uint256[45]",
        "numberOfBytes": "1440"
      },
      "t_array(t_uint256)49_storage": {
        "base": "t_uint256",
        "encoding": "inplace",
        "label": "uint256[49]",
        "numberOfBytes": "1568"
      },
      "t_array(t_uint256)50_storage": {
        "base": "t_uint256",
        "encoding": "inplace",
        "label": "uint256[50]",
        "numberOfBytes": "1600"
      },
      "t_bool": {
        "encoding": "inplace",
        "label": "bool",
        "numberOfBytes": "1"
      },
      "t_bytes32": {
        "encoding": "inplace",
        "label": "bytes32",
        "numberOfBytes": "32"
      },
      "t_contract(ERC20)4992": {
        "encoding": "inplace",
        "label": "contract ERC20",
        "numberOfBytes": "20"
      },
      "t_mapping(t_address,t_bool)": {
        "encoding": "mapping",
        "key": "t_address",
        "label": "mapping(address => bool)",
        "numberOfBytes": "32",
        "value": "t_bool"
      },
      "t_mapping(t_address,t_mapping(t_address,t_uint256))": {
        "encoding": "mapping",
        "key": "t_address",
        "label": "mapping(address => mapping(address => uint256))",
        "numberOfBytes": "32",
        "value": "t_mapping(t_address,t_uint256)"
      },
      "t_mapping(t_address,t_uint256)": {
        "encoding": "mapping",
        "key": "t_address",
        "label": "mapping(address => uint256)",
        "numberOfBytes": "32",
        "value": "t_uint256"
      },
      "t_mapping(t_bytes32,t_struct(RoleData)81_storage)": {
        "encoding": "mapping",
        "key": "t_bytes32",
        "label": "mapping(bytes32 => struct AccessControlUpgradeable.RoleData)",
        "numberOfBytes": "32",
        "value": "t_struct(RoleData)81_storage"
      },
      "t_string_storage": {
        "encoding": "bytes",
        "label": "string",
        "numberOfBytes": "32"
      },
      "t_struct(RoleData)81_storage": {
        "encoding": "inplace",
        "label": "struct AccessControlUpgradeable.RoleData",
        "members": [
          {
            "astId": 78,
            "contract": "contracts/rewards/xMPH.sol:xMPH",
            "label": "members",
            "offset": 0,
            "slot": "0",
            "type": "t_mapping(t_address,t_bool)"
          },
          {
            "astId": 80,
            "contract": "contracts/rewards/xMPH.sol:xMPH",
            "label": "adminRole",
            "offset": 0,
            "slot": "1",
            "type": "t_bytes32"
          }
        ],
        "numberOfBytes": "64"
      },
      "t_uint256": {
        "encoding": "inplace",
        "label": "uint256",
        "numberOfBytes": "32"
      }
    }
  }
}