{
  "address": "0xb7f8C1e0198316313e73506CDCdab7cF151B975B",
  "abi": [
    {
      "anonymous": false,
      "inputs": [
        {
          "indexed": true,
          "internalType": "address",
          "name": "owner",
          "type": "address"
        },
        {
          "indexed": true,
          "internalType": "address",
          "name": "spender",
          "type": "address"
        },
        {
          "indexed": false,
          "internalType": "uint256",
          "name": "value",
          "type": "uint256"
        }
      ],
      "name": "Approval",
      "type": "event"
    },
    {
      "anonymous": false,
      "inputs": [
        {
          "indexed": true,
          "internalType": "bytes32",
          "name": "role",
          "type": "bytes32"
        },
        {
          "indexed": true,
          "internalType": "bytes32",
          "name": "previousAdminRole",
          "type": "bytes32"
        },
        {
          "indexed": true,
          "internalType": "bytes32",
          "name": "newAdminRole",
          "type": "bytes32"
        }
      ],
      "name": "RoleAdminChanged",
      "type": "event"
    },
    {
      "anonymous": false,
      "inputs": [
        {
          "indexed": true,
          "internalType": "bytes32",
          "name": "role",
          "type": "bytes32"
        },
        {
          "indexed": true,
          "internalType": "address",
          "name": "account",
          "type": "address"
        },
        {
          "indexed": true,
          "internalType": "address",
          "name": "sender",
          "type": "address"
        }
      ],
      "name": "RoleGranted",
      "type": "event"
    },
    {
      "anonymous": false,
      "inputs": [
        {
          "indexed": true,
          "internalType": "bytes32",
          "name": "role",
          "type": "bytes32"
        },
        {
          "indexed": true,
          "internalType": "address",
          "name": "account",
          "type": "address"
        },
        {
          "indexed": true,
          "internalType": "address",
          "name": "sender",
          "type": "address"
        }
      ],
      "name": "RoleRevoked",
      "type": "event"
    },
    {
      "anonymous": false,
      "inputs": [
        {
          "indexed": true,
          "internalType": "address",
          "name": "from",
          "type": "address"
        },
        {
          "indexed": true,
          "internalType": "address",
          "name": "to",
          "type": "address"
        },
        {
          "indexed": false,
          "internalType": "uint256",
          "name": "value",
          "type": "uint256"
        }
      ],
      "name": "Transfer",
      "type": "event"
    },
    {
      "inputs": [],
      "name": "DEFAULT_ADMIN_ROLE",
      "outputs": [
        {
          "internalType": "bytes32",
          "name": "",
          "type": "bytes32"
        }
      ],
      "stateMutability": "view",
      "type": "function"
    },
    {
      "inputs": [],
      "name": "DISTRIBUTOR_ROLE",
      "outputs": [
        {
          "internalType": "bytes32",
          "name": "",
          "type": "bytes32"
        }
      ],
      "stateMutability": "view",
      "type": "function"
    },
    {
      "inputs": [
        {
          "internalType": "address",
          "name": "owner",
          "type": "address"
        },
        {
          "internalType": "address",
          "name": "spender",
          "type": "address"
        }
      ],
      "name": "allowance",
      "outputs": [
        {
          "internalType": "uint256",
          "name": "",
          "type": "uint256"
        }
      ],
      "stateMutability": "view",
      "type": "function"
    },
    {
      "inputs": [
        {
          "internalType": "address",
          "name": "spender",
          "type": "address"
        },
        {
          "internalType": "uint256",
          "name": "amount",
          "type": "uint256"
        }
      ],
      "name": "approve",
      "outputs": [
        {
          "internalType": "bool",
          "name": "",
          "type": "bool"
        }
      ],
      "stateMutability": "nonpayable",
      "type": "function"
    },
    {
      "inputs": [
        {
          "internalType": "address",
          "name": "account",
          "type": "address"
        }
      ],
      "name": "balanceOf",
      "outputs": [
        {
          "internalType": "uint256",
          "name": "",
          "type": "uint256"
        }
      ],
      "stateMutability": "view",
      "type": "function"
    },
    {
      "inputs": [],
      "name": "currentUnlockEndTimestamp",
      "outputs": [
        {
          "internalType": "uint256",
          "name": "",
          "type": "uint256"
        }
      ],
      "stateMutability": "view",
      "type": "function"
    },
    {
      "inputs": [],
      "name": "decimals",
      "outputs": [
        {
          "internalType": "uint8",
          "name": "",
          "type": "uint8"
        }
      ],
      "stateMutability": "view",
      "type": "function"
    },
    {
      "inputs": [
        {
          "internalType": "address",
          "name": "spender",
          "type": "address"
        },
        {
          "internalType": "uint256",
          "name": "subtractedValue",
          "type": "uint256"
        }
      ],
      "name": "decreaseAllowance",
      "outputs": [
        {
          "internalType": "bool",
          "name": "",
          "type": "bool"
        }
      ],
      "stateMutability": "nonpayable",
      "type": "function"
    },
    {
      "inputs": [
        {
          "internalType": "uint256",
          "name": "_mphAmount",
          "type": "uint256"
        }
      ],
      "name": "deposit",
      "outputs": [
        {
          "internalType": "uint256",
          "name": "shareAmount",
          "type": "uint256"
        }
      ],
      "stateMutability": "nonpayable",
      "type": "function"
    },
    {
      "inputs": [
        {
          "internalType": "uint256",
          "name": "rewardAmount",
          "type": "uint256"
        }
      ],
      "name": "distributeReward",
      "outputs": [],
      "stateMutability": "nonpayable",
      "type": "function"
    },
    {
      "inputs": [],
      "name": "getPricePerFullShare",
      "outputs": [
        {
          "internalType": "uint256",
          "name": "",
          "type": "uint256"
        }
      ],
      "stateMutability": "view",
      "type": "function"
    },
    {
      "inputs": [
        {
          "internalType": "bytes32",
          "name": "role",
          "type": "bytes32"
        }
      ],
      "name": "getRoleAdmin",
      "outputs": [
        {
          "internalType": "bytes32",
          "name": "",
          "type": "bytes32"
        }
      ],
      "stateMutability": "view",
      "type": "function"
    },
    {
      "inputs": [
        {
          "internalType": "bytes32",
          "name": "role",
          "type": "bytes32"
        },
        {
          "internalType": "address",
          "name": "account",
          "type": "address"
        }
      ],
      "name": "grantRole",
      "outputs": [],
      "stateMutability": "nonpayable",
      "type": "function"
    },
    {
      "inputs": [
        {
          "internalType": "bytes32",
          "name": "role",
          "type": "bytes32"
        },
        {
          "internalType": "address",
          "name": "account",
          "type": "address"
        }
      ],
      "name": "hasRole",
      "outputs": [
        {
          "internalType": "bool",
          "name": "",
          "type": "bool"
        }
      ],
      "stateMutability": "view",
      "type": "function"
    },
    {
      "inputs": [
        {
          "internalType": "address",
          "name": "spender",
          "type": "address"
        },
        {
          "internalType": "uint256",
          "name": "addedValue",
          "type": "uint256"
        }
      ],
      "name": "increaseAllowance",
      "outputs": [
        {
          "internalType": "bool",
          "name": "",
          "type": "bool"
        }
      ],
      "stateMutability": "nonpayable",
      "type": "function"
    },
    {
      "inputs": [
        {
          "internalType": "contract ERC20Upgradeable",
          "name": "_mph",
          "type": "address"
        },
        {
          "internalType": "uint256",
          "name": "_rewardUnlockPeriod",
          "type": "uint256"
        },
        {
          "internalType": "address",
          "name": "_distributor",
          "type": "address"
        }
      ],
      "name": "initialize",
      "outputs": [],
      "stateMutability": "nonpayable",
      "type": "function"
    },
    {
      "inputs": [],
      "name": "lastRewardAmount",
      "outputs": [
        {
          "internalType": "uint256",
          "name": "",
          "type": "uint256"
        }
      ],
      "stateMutability": "view",
      "type": "function"
    },
    {
      "inputs": [],
      "name": "lastRewardTimestamp",
      "outputs": [
        {
          "internalType": "uint256",
          "name": "",
          "type": "uint256"
        }
      ],
      "stateMutability": "view",
      "type": "function"
    },
    {
      "inputs": [],
      "name": "mph",
      "outputs": [
        {
          "internalType": "contract ERC20Upgradeable",
          "name": "",
          "type": "address"
        }
      ],
      "stateMutability": "view",
      "type": "function"
    },
    {
      "inputs": [],
      "name": "name",
      "outputs": [
        {
          "internalType": "string",
          "name": "",
          "type": "string"
        }
      ],
      "stateMutability": "view",
      "type": "function"
    },
    {
      "inputs": [
        {
          "internalType": "bytes32",
          "name": "role",
          "type": "bytes32"
        },
        {
          "internalType": "address",
          "name": "account",
          "type": "address"
        }
      ],
      "name": "renounceRole",
      "outputs": [],
      "stateMutability": "nonpayable",
      "type": "function"
    },
    {
      "inputs": [
        {
          "internalType": "bytes32",
          "name": "role",
          "type": "bytes32"
        },
        {
          "internalType": "address",
          "name": "account",
          "type": "address"
        }
      ],
      "name": "revokeRole",
      "outputs": [],
      "stateMutability": "nonpayable",
      "type": "function"
    },
    {
      "inputs": [],
      "name": "rewardUnlockPeriod",
      "outputs": [
        {
          "internalType": "uint256",
          "name": "",
          "type": "uint256"
        }
      ],
      "stateMutability": "view",
      "type": "function"
    },
    {
      "inputs": [
        {
          "internalType": "uint256",
          "name": "newValue",
          "type": "uint256"
        }
      ],
      "name": "setRewardUnlockPeriod",
      "outputs": [],
      "stateMutability": "nonpayable",
      "type": "function"
    },
    {
      "inputs": [
        {
          "internalType": "bytes4",
          "name": "interfaceId",
          "type": "bytes4"
        }
      ],
      "name": "supportsInterface",
      "outputs": [
        {
          "internalType": "bool",
          "name": "",
          "type": "bool"
        }
      ],
      "stateMutability": "view",
      "type": "function"
    },
    {
      "inputs": [],
      "name": "symbol",
      "outputs": [
        {
          "internalType": "string",
          "name": "",
          "type": "string"
        }
      ],
      "stateMutability": "view",
      "type": "function"
    },
    {
      "inputs": [],
      "name": "totalSupply",
      "outputs": [
        {
          "internalType": "uint256",
          "name": "",
          "type": "uint256"
        }
      ],
      "stateMutability": "view",
      "type": "function"
    },
    {
      "inputs": [
        {
          "internalType": "address",
          "name": "recipient",
          "type": "address"
        },
        {
          "internalType": "uint256",
          "name": "amount",
          "type": "uint256"
        }
      ],
      "name": "transfer",
      "outputs": [
        {
          "internalType": "bool",
          "name": "",
          "type": "bool"
        }
      ],
      "stateMutability": "nonpayable",
      "type": "function"
    },
    {
      "inputs": [
        {
          "internalType": "address",
          "name": "sender",
          "type": "address"
        },
        {
          "internalType": "address",
          "name": "recipient",
          "type": "address"
        },
        {
          "internalType": "uint256",
          "name": "amount",
          "type": "uint256"
        }
      ],
      "name": "transferFrom",
      "outputs": [
        {
          "internalType": "bool",
          "name": "",
          "type": "bool"
        }
      ],
      "stateMutability": "nonpayable",
      "type": "function"
    },
    {
      "inputs": [
        {
          "internalType": "uint256",
          "name": "_shareAmount",
          "type": "uint256"
        }
      ],
      "name": "withdraw",
      "outputs": [
        {
          "internalType": "uint256",
          "name": "mphAmount",
          "type": "uint256"
        }
      ],
      "stateMutability": "nonpayable",
      "type": "function"
    }
  ],
  "transactionHash": "0x0fbb3a37a2566b14f8e3e7246a3f04e483b557da4b046a1ab07c514da64e6563",
  "args": [],
  "solcInputHash": "e60ae8ce476666259c0e591d71d287b8",
  "bytecode": "0x608060405234801561001057600080fd5b50611eb6806100206000396000f3fe608060405234801561001057600080fd5b50600436106101da5760003560e01c806377c7b8fc11610104578063b6b55f25116100a2578063db88fee211610071578063db88fee2146103e0578063dd62ed3e146103f3578063f0bd87cc1461042c578063f8077fae14610441576101da565b8063b6b55f251461039e578063bafedcaa146103b1578063c350a1b5146103ba578063d547741f146103cd576101da565b806395d89b41116100de57806395d89b4114610368578063a217fddf14610370578063a457c2d714610378578063a9059cbb1461038b576101da565b806377c7b8fc1461033a57806391d1485414610342578063940a4e4514610355576101da565b80632e1a7d4d1161017c578063395093511161014b57806339509351146102ec5780635c53b7c9146102ff57806370a0823114610308578063722c2fff14610331576101da565b80632e1a7d4d146102a25780632f2ff15d146102b5578063313ce567146102ca57806336568abe146102d9576101da565b806318160ddd116101b857806318160ddd1461022f5780632304aa611461024157806323b872dd1461026c578063248a9ca31461027f576101da565b806301ffc9a7146101df57806306fdde0314610207578063095ea7b31461021c575b600080fd5b6101f26101ed366004611bd8565b61044a565b60405190151581526020015b60405180910390f35b61020f610481565b6040516101fe9190611cce565b6101f261022a366004611b51565b610514565b6035545b6040519081526020016101fe565b60c954610254906001600160a01b031681565b6040516001600160a01b0390911681526020016101fe565b6101f261027a366004611b11565b61052a565b61023361028d366004611b9c565b60009081526097602052604090206001015490565b6102336102b0366004611b9c565b6105e0565b6102c86102c3366004611bb4565b6106cb565b005b604051601281526020016101fe565b6102c86102e7366004611bb4565b6106f7565b6101f26102fa366004611b51565b610775565b61023360ca5481565b610233610316366004611abd565b6001600160a01b031660009081526033602052604090205490565b61023360cb5481565b6102336107ac565b6101f2610350366004611bb4565b6108da565b6102c8610363366004611b9c565b610905565b61020f610b14565b610233600081565b6101f2610386366004611b51565b610b23565b6101f2610399366004611b51565b610bbe565b6102336103ac366004611b9c565b610bcb565b61023360cd5481565b6102c86103c8366004611c00565b610c68565b6102c86103db366004611bb4565b610e62565b6102c86103ee366004611b9c565b610e88565b610233610401366004611ad9565b6001600160a01b03918216600090815260346020908152604080832093909416825291909152205490565b610233600080516020611e6183398151915281565b61023360cc5481565b60006001600160e01b03198216637965db0b60e01b148061047b57506301ffc9a760e01b6001600160e01b03198316145b92915050565b60606036805461049090611e00565b80601f01602080910402602001604051908101604052809291908181526020018280546104bc90611e00565b80156105095780601f106104de57610100808354040283529160200191610509565b820191906000526020600020905b8154815290600101906020018083116104ec57829003601f168201915b505050505090505b90565b6000610521338484610f2c565b50600192915050565b6000610537848484611051565b6001600160a01b0384166000908152603460209081526040808320338452909152902054828110156105c15760405162461bcd60e51b815260206004820152602860248201527f45524332303a207472616e7366657220616d6f756e74206578636565647320616044820152676c6c6f77616e636560c01b60648201526084015b60405180910390fd5b6105d585336105d08685611da6565b610f2c565b506001949350505050565b60008082116106225760405162461bcd60e51b815260206004820152600e60248201526d1e1354120e880c08185b5bdd5b9d60921b60448201526064016105b8565b61063461062d6107ac565b8390611229565b9050610640338361124f565b60c95460405163a9059cbb60e01b8152336004820152602481018390526001600160a01b039091169063a9059cbb906044015b602060405180830381600087803b15801561068d57600080fd5b505af11580156106a1573d6000803e3d6000fd5b505050506040513d601f19601f820116820180604052508101906106c59190611b7c565b50919050565b6000828152609760205260409020600101546106e881335b61139e565b6106f28383611402565b505050565b6001600160a01b03811633146107675760405162461bcd60e51b815260206004820152602f60248201527f416363657373436f6e74726f6c3a2063616e206f6e6c792072656e6f756e636560448201526e103937b632b9903337b91039b2b63360891b60648201526084016105b8565b6107718282611488565b5050565b3360008181526034602090815260408083206001600160a01b038716845290915281205490916105219185906105d0908690611d4f565b6000806107b860355490565b60c9546040516370a0823160e01b81523060048201529192506000916001600160a01b03909116906370a082319060240160206040518083038186803b15801561080157600080fd5b505afa158015610815573d6000803e3d6000fd5b505050506040513d601f19601f820116820180604052508101906108399190611c41565b9050811580610846575080155b1561085d57670de0b6b3a764000092505050610511565b60cd5460cb548115806108705750804210155b1561088a5761087f83856114ef565b945050505050610511565b60cc5460006108998284611da6565b6108a34285611da6565b6108ad9086611d87565b6108b79190611d67565b90506108cd866108c78388611da6565b906114ef565b9650505050505050610511565b60009182526097602090815260408084206001600160a01b0393909316845291905290205460ff1690565b600081116109495760405162461bcd60e51b81526020600482015260116024820152700784d50483a20726577617264203d3d203607c1b60448201526064016105b8565b61095d670de0b6b3a7640000600019611d67565b81106109b75760405162461bcd60e51b815260206004820152602360248201527f784d50483a207265776172647320746f6f206c617267652c20776f756c64206c6044820152626f636b60e81b60648201526084016105b8565b6109cf600080516020611e61833981519152336108da565b610a135760405162461bcd60e51b81526020600482015260156024820152743c26a8241d103737ba103234b9ba3934b13aba37b960591b60448201526064016105b8565b60c9546040516323b872dd60e01b8152336004820152306024820152604481018390526001600160a01b03909116906323b872dd90606401602060405180830381600087803b158015610a6557600080fd5b505af1158015610a79573d6000803e3d6000fd5b505050506040513d601f19601f82011682018060405250810190610a9d9190611b7c565b5060cb544210610ac55760ca54610ab49042611d4f565b60cb554260cc5560cd819055610b11565b600060cc5460cb54610ad79190611da6565b4260cb54610ae59190611da6565b60cd54610af29190611d87565b610afc9190611d67565b4260cc559050610b0c8183611d4f565b60cd55505b50565b60606037805461049090611e00565b3360009081526034602090815260408083206001600160a01b038616845290915281205482811015610ba55760405162461bcd60e51b815260206004820152602560248201527f45524332303a2064656372656173656420616c6c6f77616e63652062656c6f77604482015264207a65726f60d81b60648201526084016105b8565b610bb433856105d08685611da6565b5060019392505050565b6000610521338484611051565b6000808211610c0d5760405162461bcd60e51b815260206004820152600e60248201526d1e1354120e880c08185b5bdd5b9d60921b60448201526064016105b8565b610c1f610c186107ac565b83906114ef565b9050610c2b3382611504565b60c9546040516323b872dd60e01b8152336004820152306024820152604481018490526001600160a01b03909116906323b872dd90606401610673565b600054610100900460ff1680610c81575060005460ff16155b610c9d5760405162461bcd60e51b81526004016105b890611d01565b600054610100900460ff16158015610cbf576000805461ffff19166101011790555b610d076040518060400160405280600a8152602001690a6e8c2d6cac8409aa0960b31b815250604051806040016040528060048152602001630f09aa0960e31b8152506115e3565b610d0f611662565b6001600160a01b03841615801590610d2f57506001600160a01b03821615155b610d6d5760405162461bcd60e51b815260206004820152600f60248201526e784d50483a2030206164647265737360881b60448201526064016105b8565b600083118015610d8157506301e133808311155b610dd75760405162461bcd60e51b815260206004820152602160248201527f784d50483a20696e76616c6964205f726577617264556e6c6f636b506572696f6044820152601960fa1b60648201526084016105b8565b610de26000336116e5565b610dfa600080516020611e61833981519152336116e5565b610e12600080516020611e61833981519152836116e5565b610e2a600080516020611e61833981519152806116ef565b60c980546001600160a01b0319166001600160a01b03861617905560ca8390558015610e5c576000805461ff00191690555b50505050565b600082815260976020526040902060010154610e7e81336106e3565b6106f28383611488565b610e936000336108da565b610ed15760405162461bcd60e51b815260206004820152600f60248201526e3c26a8241d103737ba1030b236b4b760891b60448201526064016105b8565b600081118015610ee557506301e133808111155b610f275760405162461bcd60e51b8152602060048201526013602482015272784d50483a20696e76616c69642076616c756560681b60448201526064016105b8565b60ca55565b6001600160a01b038316610f8e5760405162461bcd60e51b8152602060048201526024808201527f45524332303a20617070726f76652066726f6d20746865207a65726f206164646044820152637265737360e01b60648201526084016105b8565b6001600160a01b038216610fef5760405162461bcd60e51b815260206004820152602260248201527f45524332303a20617070726f766520746f20746865207a65726f206164647265604482015261737360f01b60648201526084016105b8565b6001600160a01b0383811660008181526034602090815260408083209487168084529482529182902085905590518481527f8c5be1e5ebec7d5bd14f71427d1e84f3dd0314c0f7b2291e5b200ac8c7c3b92591015b60405180910390a3505050565b6001600160a01b0383166110b55760405162461bcd60e51b815260206004820152602560248201527f45524332303a207472616e736665722066726f6d20746865207a65726f206164604482015264647265737360d81b60648201526084016105b8565b6001600160a01b0382166111175760405162461bcd60e51b815260206004820152602360248201527f45524332303a207472616e7366657220746f20746865207a65726f206164647260448201526265737360e81b60648201526084016105b8565b6001600160a01b0383166000908152603360205260409020548181101561118f5760405162461bcd60e51b815260206004820152602660248201527f45524332303a207472616e7366657220616d6f756e7420657863656564732062604482015265616c616e636560d01b60648201526084016105b8565b6111998282611da6565b6001600160a01b0380861660009081526033602052604080822093909355908516815290812080548492906111cf908490611d4f565b92505081905550826001600160a01b0316846001600160a01b03167fddf252ad1be2c89b69c2b068fc378daa952ba7f163c4a11628f55a4df523b3ef8460405161121b91815260200190565b60405180910390a350505050565b6000670de0b6b3a764000061123e8385611d87565b6112489190611d67565b9392505050565b6001600160a01b0382166112af5760405162461bcd60e51b815260206004820152602160248201527f45524332303a206275726e2066726f6d20746865207a65726f206164647265736044820152607360f81b60648201526084016105b8565b6001600160a01b038216600090815260336020526040902054818110156113235760405162461bcd60e51b815260206004820152602260248201527f45524332303a206275726e20616d6f756e7420657863656564732062616c616e604482015261636560f01b60648201526084016105b8565b61132d8282611da6565b6001600160a01b0384166000908152603360205260408120919091556035805484929061135b908490611da6565b90915550506040518281526000906001600160a01b038516907fddf252ad1be2c89b69c2b068fc378daa952ba7f163c4a11628f55a4df523b3ef90602001611044565b6113a882826108da565b610771576113c0816001600160a01b03166014611743565b6113cb836020611743565b6040516020016113dc929190611c59565b60408051601f198184030181529082905262461bcd60e51b82526105b891600401611cce565b61140c82826108da565b6107715760008281526097602090815260408083206001600160a01b03851684529091529020805460ff191660011790556114443390565b6001600160a01b0316816001600160a01b0316837f2f8788117e7eff1d82e926ec794901d17c78024a50270940304540a733656f0d60405160405180910390a45050565b61149282826108da565b156107715760008281526097602090815260408083206001600160a01b0385168085529252808320805460ff1916905551339285917ff6391f5c32d9c69d2a47ea670b442974b53935d1edc7fd64eb21e047a839171b9190a45050565b60008161123e670de0b6b3a764000085611d87565b6001600160a01b03821661155a5760405162461bcd60e51b815260206004820152601f60248201527f45524332303a206d696e7420746f20746865207a65726f20616464726573730060448201526064016105b8565b806035600082825461156c9190611d4f565b90915550506001600160a01b03821660009081526033602052604081208054839290611599908490611d4f565b90915550506040518181526001600160a01b038316906000907fddf252ad1be2c89b69c2b068fc378daa952ba7f163c4a11628f55a4df523b3ef9060200160405180910390a35050565b600054610100900460ff16806115fc575060005460ff16155b6116185760405162461bcd60e51b81526004016105b890611d01565b600054610100900460ff1615801561163a576000805461ffff19166101011790555b611642611925565b61164c838361198f565b80156106f2576000805461ff0019169055505050565b600054610100900460ff168061167b575060005460ff16155b6116975760405162461bcd60e51b81526004016105b890611d01565b600054610100900460ff161580156116b9576000805461ffff19166101011790555b6116c1611925565b6116c9611925565b6116d1611925565b8015610b11576000805461ff001916905550565b6107718282611402565b600082815260976020526040902060010154819060405184907fbd79b86ffe0ab8e8776151514217cd7cacd52c909f66475c3af44e129f0b00ff90600090a460009182526097602052604090912060010155565b60606000611752836002611d87565b61175d906002611d4f565b67ffffffffffffffff81111561178357634e487b7160e01b600052604160045260246000fd5b6040519080825280601f01601f1916602001820160405280156117ad576020820181803683370190505b509050600360fc1b816000815181106117d657634e487b7160e01b600052603260045260246000fd5b60200101906001600160f81b031916908160001a905350600f60fb1b8160018151811061181357634e487b7160e01b600052603260045260246000fd5b60200101906001600160f81b031916908160001a9053506000611837846002611d87565b611842906001611d4f565b90505b60018111156118d6576f181899199a1a9b1b9c1cb0b131b232b360811b85600f166010811061188457634e487b7160e01b600052603260045260246000fd5b1a60f81b8282815181106118a857634e487b7160e01b600052603260045260246000fd5b60200101906001600160f81b031916908160001a90535060049490941c936118cf81611de9565b9050611845565b5083156112485760405162461bcd60e51b815260206004820181905260248201527f537472696e67733a20686578206c656e67746820696e73756666696369656e7460448201526064016105b8565b600054610100900460ff168061193e575060005460ff16155b61195a5760405162461bcd60e51b81526004016105b890611d01565b600054610100900460ff161580156116d1576000805461ffff19166101011790558015610b11576000805461ff001916905550565b600054610100900460ff16806119a8575060005460ff16155b6119c45760405162461bcd60e51b81526004016105b890611d01565b600054610100900460ff161580156119e6576000805461ffff19166101011790555b82516119f9906036906020860190611a24565b508151611a0d906037906020850190611a24565b5080156106f2576000805461ff0019169055505050565b828054611a3090611e00565b90600052602060002090601f016020900481019282611a525760008555611a98565b82601f10611a6b57805160ff1916838001178555611a98565b82800160010185558215611a98579182015b82811115611a98578251825591602001919060010190611a7d565b50611aa4929150611aa8565b5090565b5b80821115611aa45760008155600101611aa9565b600060208284031215611ace578081fd5b813561124881611e4b565b60008060408385031215611aeb578081fd5b8235611af681611e4b565b91506020830135611b0681611e4b565b809150509250929050565b600080600060608486031215611b25578081fd5b8335611b3081611e4b565b92506020840135611b4081611e4b565b929592945050506040919091013590565b60008060408385031215611b63578182fd5b8235611b6e81611e4b565b946020939093013593505050565b600060208284031215611b8d578081fd5b81518015158114611248578182fd5b600060208284031215611bad578081fd5b5035919050565b60008060408385031215611bc6578182fd5b823591506020830135611b0681611e4b565b600060208284031215611be9578081fd5b81356001600160e01b031981168114611248578182fd5b600080600060608486031215611c14578283fd5b8335611c1f81611e4b565b9250602084013591506040840135611c3681611e4b565b809150509250925092565b600060208284031215611c52578081fd5b5051919050565b60007f416363657373436f6e74726f6c3a206163636f756e742000000000000000000082528351611c91816017850160208801611dbd565b7001034b99036b4b9b9b4b733903937b6329607d1b6017918401918201528351611cc2816028840160208801611dbd565b01602801949350505050565b6000602082528251806020840152611ced816040850160208701611dbd565b601f01601f19169190910160400192915050565b6020808252602e908201527f496e697469616c697a61626c653a20636f6e747261637420697320616c72656160408201526d191e481a5b9a5d1a585b1a5e995960921b606082015260800190565b60008219821115611d6257611d62611e35565b500190565b600082611d8257634e487b7160e01b81526012600452602481fd5b500490565b6000816000190483118215151615611da157611da1611e35565b500290565b600082821015611db857611db8611e35565b500390565b60005b83811015611dd8578181015183820152602001611dc0565b83811115610e5c5750506000910152565b600081611df857611df8611e35565b506000190190565b600181811c90821680611e1457607f821691505b602082108114156106c557634e487b7160e01b600052602260045260246000fd5b634e487b7160e01b600052601160045260246000fd5b6001600160a01b0381168114610b1157600080fdfefbd454f36a7e1a388bd6fc3ab10d434aa4578f811acbbcf33afb1c697486313ca264697066735822122011f0a7e90f932b8e1a686fdad14bd10e79f13ac4ec162672487f08e0163b177264736f6c63430008030033",
  "devdoc": {
    "author": "Zefram Lou",
    "kind": "dev",
    "methods": {
      "allowance(address,address)": {
        "details": "See {IERC20-allowance}."
      },
      "approve(address,uint256)": {
        "details": "See {IERC20-approve}. Requirements: - `spender` cannot be the zero address."
      },
      "balanceOf(address)": {
        "details": "See {IERC20-balanceOf}."
      },
      "decimals()": {
        "details": "Returns the number of decimals used to get its user representation. For example, if `decimals` equals `2`, a balance of `505` tokens should be displayed to a user as `5,05` (`505 / 10 ** 2`). Tokens usually opt for a value of 18, imitating the relationship between Ether and Wei. This is the value {ERC20} uses, unless this function is overridden; NOTE: This information is only used for _display_ purposes: it in no way affects any of the arithmetic of the contract, including {IERC20-balanceOf} and {IERC20-transfer}."
      },
      "decreaseAllowance(address,uint256)": {
        "details": "Atomically decreases the allowance granted to `spender` by the caller. This is an alternative to {approve} that can be used as a mitigation for problems described in {IERC20-approve}. Emits an {Approval} event indicating the updated allowance. Requirements: - `spender` cannot be the zero address. - `spender` must have allowance for the caller of at least `subtractedValue`."
      },
      "deposit(uint256)": {
        "details": "The amount can't be 0",
        "params": {
          "_mphAmount": "The amount of MPH to deposit"
        },
        "returns": {
          "shareAmount": "The amount of xMPH minted"
        }
      },
      "distributeReward(uint256)": {
        "details": "When not in a distribution period, start a new one with rewardUnlockPeriod seconds. When in a distribution period, add rewards to current period"
      },
      "getPricePerFullShare()": {
        "details": "Initialized to be PRECISION (representing 1 MPH = 1 xMPH)",
        "returns": {
          "_0": "The amount of MPH that can be withdrawn by burning 1 xMPH"
        }
      },
      "getRoleAdmin(bytes32)": {
        "details": "Returns the admin role that controls `role`. See {grantRole} and {revokeRole}. To change a role's admin, use {_setRoleAdmin}."
      },
      "grantRole(bytes32,address)": {
        "details": "Grants `role` to `account`. If `account` had not been already granted `role`, emits a {RoleGranted} event. Requirements: - the caller must have ``role``'s admin role."
      },
      "hasRole(bytes32,address)": {
        "details": "Returns `true` if `account` has been granted `role`."
      },
      "increaseAllowance(address,uint256)": {
        "details": "Atomically increases the allowance granted to `spender` by the caller. This is an alternative to {approve} that can be used as a mitigation for problems described in {IERC20-approve}. Emits an {Approval} event indicating the updated allowance. Requirements: - `spender` cannot be the zero address."
      },
      "initialize(address,uint256,address)": {
        "params": {
          "_distributor": "The account that will call distributeReward()",
          "_mph": "The MPH token",
          "_rewardUnlockPeriod": "The length of each reward distribution period, in seconds"
        }
      },
      "name()": {
        "details": "Returns the name of the token."
      },
      "renounceRole(bytes32,address)": {
        "details": "Revokes `role` from the calling account. Roles are often managed via {grantRole} and {revokeRole}: this function's purpose is to provide a mechanism for accounts to lose their privileges if they are compromised (such as when a trusted device is misplaced). If the calling account had been granted `role`, emits a {RoleRevoked} event. Requirements: - the caller must be `account`."
      },
      "revokeRole(bytes32,address)": {
        "details": "Revokes `role` from `account`. If `account` had been granted `role`, emits a {RoleRevoked} event. Requirements: - the caller must have ``role``'s admin role."
      },
      "supportsInterface(bytes4)": {
        "details": "See {IERC165-supportsInterface}."
      },
      "symbol()": {
        "details": "Returns the symbol of the token, usually a shorter version of the name."
      },
      "totalSupply()": {
        "details": "See {IERC20-totalSupply}."
      },
      "transfer(address,uint256)": {
        "details": "See {IERC20-transfer}. Requirements: - `recipient` cannot be the zero address. - the caller must have a balance of at least `amount`."
      },
      "transferFrom(address,address,uint256)": {
        "details": "See {IERC20-transferFrom}. Emits an {Approval} event indicating the updated allowance. This is not required by the EIP. See the note at the beginning of {ERC20}. Requirements: - `sender` and `recipient` cannot be the zero address. - `sender` must have a balance of at least `amount`. - the caller must have allowance for ``sender``'s tokens of at least `amount`."
      },
      "withdraw(uint256)": {
        "details": "The amount can't be 0",
        "params": {
          "_shareAmount": "The amount of xMPH to burn"
        },
        "returns": {
          "mphAmount": "The amount of MPH withdrawn"
        }
      }
    },
    "title": "Staked MPH",
    "version": 1
  },
  "userdoc": {
    "kind": "user",
    "methods": {
      "deposit(uint256)": {
        "notice": "Deposit MPH to get xMPH"
      },
      "distributeReward(uint256)": {
        "notice": "Distributes MPH rewards to xMPH holders"
      },
      "getPricePerFullShare()": {
        "notice": "Compute the amount of MPH that can be withdrawn by burning 1 xMPH. Increases linearly during a reward distribution period."
      },
      "withdraw(uint256)": {
        "notice": "Withdraw MPH using xMPH"
      }
    },
    "notice": "The MPH staking contract",
    "version": 1
  },
  "storageLayout": {
    "storage": [
      {
        "astId": 612,
        "contract": "contracts/rewards/xMPH.sol:xMPH",
        "label": "_initialized",
        "offset": 0,
        "slot": "0",
        "type": "t_bool"
      },
      {
        "astId": 615,
        "contract": "contracts/rewards/xMPH.sol:xMPH",
        "label": "_initializing",
        "offset": 1,
        "slot": "0",
        "type": "t_bool"
      },
      {
        "astId": 3064,
        "contract": "contracts/rewards/xMPH.sol:xMPH",
        "label": "__gap",
        "offset": 0,
        "slot": "1",
        "type": "t_array(t_uint256)50_storage"
      },
      {
        "astId": 907,
        "contract": "contracts/rewards/xMPH.sol:xMPH",
        "label": "_balances",
        "offset": 0,
        "slot": "51",
        "type": "t_mapping(t_address,t_uint256)"
      },
      {
        "astId": 913,
        "contract": "contracts/rewards/xMPH.sol:xMPH",
        "label": "_allowances",
        "offset": 0,
        "slot": "52",
        "type": "t_mapping(t_address,t_mapping(t_address,t_uint256))"
      },
      {
        "astId": 915,
        "contract": "contracts/rewards/xMPH.sol:xMPH",
        "label": "_totalSupply",
        "offset": 0,
        "slot": "53",
        "type": "t_uint256"
      },
      {
        "astId": 917,
        "contract": "contracts/rewards/xMPH.sol:xMPH",
        "label": "_name",
        "offset": 0,
        "slot": "54",
        "type": "t_string_storage"
      },
      {
        "astId": 919,
        "contract": "contracts/rewards/xMPH.sol:xMPH",
        "label": "_symbol",
        "offset": 0,
        "slot": "55",
        "type": "t_string_storage"
      },
      {
        "astId": 1421,
        "contract": "contracts/rewards/xMPH.sol:xMPH",
        "label": "__gap",
        "offset": 0,
        "slot": "56",
        "type": "t_array(t_uint256)45_storage"
      },
      {
        "astId": 3453,
        "contract": "contracts/rewards/xMPH.sol:xMPH",
        "label": "__gap",
        "offset": 0,
        "slot": "101",
        "type": "t_array(t_uint256)50_storage"
      },
      {
        "astId": 86,
        "contract": "contracts/rewards/xMPH.sol:xMPH",
        "label": "_roles",
        "offset": 0,
        "slot": "151",
        "type": "t_mapping(t_bytes32,t_struct(RoleData)81_storage)"
      },
      {
        "astId": 394,
        "contract": "contracts/rewards/xMPH.sol:xMPH",
        "label": "__gap",
        "offset": 0,
        "slot": "152",
        "type": "t_array(t_uint256)49_storage"
      },
      {
        "astId": 21739,
        "contract": "contracts/rewards/xMPH.sol:xMPH",
        "label": "mph",
        "offset": 0,
        "slot": "201",
        "type": "t_contract(ERC20Upgradeable)1422"
      },
      {
        "astId": 21741,
        "contract": "contracts/rewards/xMPH.sol:xMPH",
        "label": "rewardUnlockPeriod",
        "offset": 0,
        "slot": "202",
        "type": "t_uint256"
      },
      {
        "astId": 21743,
        "contract": "contracts/rewards/xMPH.sol:xMPH",
        "label": "currentUnlockEndTimestamp",
        "offset": 0,
        "slot": "203",
        "type": "t_uint256"
      },
      {
        "astId": 21745,
        "contract": "contracts/rewards/xMPH.sol:xMPH",
        "label": "lastRewardTimestamp",
        "offset": 0,
        "slot": "204",
        "type": "t_uint256"
      },
      {
        "astId": 21747,
        "contract": "contracts/rewards/xMPH.sol:xMPH",
        "label": "lastRewardAmount",
        "offset": 0,
        "slot": "205",
        "type": "t_uint256"
      },
      {
        "astId": 22127,
        "contract": "contracts/rewards/xMPH.sol:xMPH",
        "label": "__gap",
        "offset": 0,
        "slot": "206",
        "type": "t_array(t_uint256)45_storage"
      }
    ],
    "types": {
      "t_address": {
        "encoding": "inplace",
        "label": "address",
        "numberOfBytes": "20"
      },
      "t_array(t_uint256)45_storage": {
        "base": "t_uint256",
        "encoding": "inplace",
        "label": "uint256[45]",
        "numberOfBytes": "1440"
      },
      "t_array(t_uint256)49_storage": {
        "base": "t_uint256",
        "encoding": "inplace",
        "label": "uint256[49]",
        "numberOfBytes": "1568"
      },
      "t_array(t_uint256)50_storage": {
        "base": "t_uint256",
        "encoding": "inplace",
        "label": "uint256[50]",
        "numberOfBytes": "1600"
      },
      "t_bool": {
        "encoding": "inplace",
        "label": "bool",
        "numberOfBytes": "1"
      },
      "t_bytes32": {
        "encoding": "inplace",
        "label": "bytes32",
        "numberOfBytes": "32"
      },
      "t_contract(ERC20Upgradeable)1422": {
        "encoding": "inplace",
        "label": "contract ERC20Upgradeable",
        "numberOfBytes": "20"
      },
      "t_mapping(t_address,t_bool)": {
        "encoding": "mapping",
        "key": "t_address",
        "label": "mapping(address => bool)",
        "numberOfBytes": "32",
        "value": "t_bool"
      },
      "t_mapping(t_address,t_mapping(t_address,t_uint256))": {
        "encoding": "mapping",
        "key": "t_address",
        "label": "mapping(address => mapping(address => uint256))",
        "numberOfBytes": "32",
        "value": "t_mapping(t_address,t_uint256)"
      },
      "t_mapping(t_address,t_uint256)": {
        "encoding": "mapping",
        "key": "t_address",
        "label": "mapping(address => uint256)",
        "numberOfBytes": "32",
        "value": "t_uint256"
      },
      "t_mapping(t_bytes32,t_struct(RoleData)81_storage)": {
        "encoding": "mapping",
        "key": "t_bytes32",
        "label": "mapping(bytes32 => struct AccessControlUpgradeable.RoleData)",
        "numberOfBytes": "32",
        "value": "t_struct(RoleData)81_storage"
      },
      "t_string_storage": {
        "encoding": "bytes",
        "label": "string",
        "numberOfBytes": "32"
      },
      "t_struct(RoleData)81_storage": {
        "encoding": "inplace",
        "label": "struct AccessControlUpgradeable.RoleData",
        "members": [
          {
            "astId": 78,
            "contract": "contracts/rewards/xMPH.sol:xMPH",
            "label": "members",
            "offset": 0,
            "slot": "0",
            "type": "t_mapping(t_address,t_bool)"
          },
          {
            "astId": 80,
            "contract": "contracts/rewards/xMPH.sol:xMPH",
            "label": "adminRole",
            "offset": 0,
            "slot": "1",
            "type": "t_bytes32"
          }
        ],
        "numberOfBytes": "64"
      },
      "t_uint256": {
        "encoding": "inplace",
        "label": "uint256",
        "numberOfBytes": "32"
      }
    }
  }
}