{
  "address": "0xdEa40a9C85140414eEB9c8B9E1d4B6BDbe9a5134",
  "abi": [
    {
      "anonymous": false,
      "inputs": [
        {
          "indexed": true,
          "internalType": "bytes32",
          "name": "role",
          "type": "bytes32"
        },
        {
          "indexed": true,
          "internalType": "bytes32",
          "name": "previousAdminRole",
          "type": "bytes32"
        },
        {
          "indexed": true,
          "internalType": "bytes32",
          "name": "newAdminRole",
          "type": "bytes32"
        }
      ],
      "name": "RoleAdminChanged",
      "type": "event"
    },
    {
      "anonymous": false,
      "inputs": [
        {
          "indexed": true,
          "internalType": "bytes32",
          "name": "role",
          "type": "bytes32"
        },
        {
          "indexed": true,
          "internalType": "address",
          "name": "account",
          "type": "address"
        },
        {
          "indexed": true,
          "internalType": "address",
          "name": "sender",
          "type": "address"
        }
      ],
      "name": "RoleGranted",
      "type": "event"
    },
    {
      "anonymous": false,
      "inputs": [
        {
          "indexed": true,
          "internalType": "bytes32",
          "name": "role",
          "type": "bytes32"
        },
        {
          "indexed": true,
          "internalType": "address",
          "name": "account",
          "type": "address"
        },
        {
          "indexed": true,
          "internalType": "address",
          "name": "sender",
          "type": "address"
        }
      ],
      "name": "RoleRevoked",
      "type": "event"
    },
    {
      "inputs": [],
      "name": "DEFAULT_ADMIN_ROLE",
      "outputs": [
        {
          "internalType": "bytes32",
          "name": "",
          "type": "bytes32"
        }
      ],
      "stateMutability": "view",
      "type": "function"
    },
    {
      "inputs": [
        {
          "internalType": "address",
          "name": "lpTokenAddress",
          "type": "address"
        },
        {
          "internalType": "address",
          "name": "curvePoolAddress",
          "type": "address"
        },
        {
          "internalType": "uint256[2]",
          "name": "minAmounts",
          "type": "uint256[2]"
        }
      ],
      "name": "curveWithdraw2",
      "outputs": [],
      "stateMutability": "nonpayable",
      "type": "function"
    },
    {
      "inputs": [
        {
          "internalType": "address",
          "name": "lpTokenAddress",
          "type": "address"
        },
        {
          "internalType": "address",
          "name": "curvePoolAddress",
          "type": "address"
        },
        {
          "internalType": "uint256[3]",
          "name": "minAmounts",
          "type": "uint256[3]"
        }
      ],
      "name": "curveWithdraw3",
      "outputs": [],
      "stateMutability": "nonpayable",
      "type": "function"
    },
    {
      "inputs": [
        {
          "internalType": "address",
          "name": "lpTokenAddress",
          "type": "address"
        },
        {
          "internalType": "address",
          "name": "curvePoolAddress",
          "type": "address"
        },
        {
          "internalType": "uint256[4]",
          "name": "minAmounts",
          "type": "uint256[4]"
        }
      ],
      "name": "curveWithdraw4",
      "outputs": [],
      "stateMutability": "nonpayable",
      "type": "function"
    },
    {
      "inputs": [
        {
          "internalType": "address",
          "name": "lpTokenAddress",
          "type": "address"
        },
        {
          "internalType": "address",
          "name": "curvePoolAddress",
          "type": "address"
        },
        {
          "internalType": "uint256[5]",
          "name": "minAmounts",
          "type": "uint256[5]"
        }
      ],
      "name": "curveWithdraw5",
      "outputs": [],
      "stateMutability": "nonpayable",
      "type": "function"
    },
    {
      "inputs": [
        {
          "internalType": "address",
          "name": "lpTokenAddress",
          "type": "address"
        },
        {
          "internalType": "address",
          "name": "curvePoolAddress",
          "type": "address"
        },
        {
          "internalType": "int128",
          "name": "coinIndex",
          "type": "int128"
        },
        {
          "internalType": "uint256",
          "name": "minAmount",
          "type": "uint256"
        }
      ],
      "name": "curveWithdrawOneCoin",
      "outputs": [],
      "stateMutability": "nonpayable",
      "type": "function"
    },
    {
      "inputs": [
        {
          "internalType": "address",
          "name": "tokenAddress",
          "type": "address"
        },
        {
          "internalType": "uint256",
          "name": "returnAmount",
          "type": "uint256"
        },
        {
          "internalType": "uint256[]",
          "name": "distribution",
          "type": "uint256[]"
        }
      ],
      "name": "dump",
      "outputs": [],
      "stateMutability": "nonpayable",
      "type": "function"
    },
    {
      "inputs": [
        {
          "internalType": "address",
          "name": "tokenAddress",
          "type": "address"
        },
        {
          "internalType": "uint256",
          "name": "parts",
          "type": "uint256"
        }
      ],
      "name": "getDumpParams",
      "outputs": [
        {
          "internalType": "uint256",
          "name": "returnAmount",
          "type": "uint256"
        },
        {
          "internalType": "uint256[]",
          "name": "distribution",
          "type": "uint256[]"
        }
      ],
      "stateMutability": "view",
      "type": "function"
    },
    {
      "inputs": [
        {
          "internalType": "bytes32",
          "name": "role",
          "type": "bytes32"
        }
      ],
      "name": "getRoleAdmin",
      "outputs": [
        {
          "internalType": "bytes32",
          "name": "",
          "type": "bytes32"
        }
      ],
      "stateMutability": "view",
      "type": "function"
    },
    {
      "inputs": [
        {
          "internalType": "bytes32",
          "name": "role",
          "type": "bytes32"
        },
        {
          "internalType": "address",
          "name": "account",
          "type": "address"
        }
      ],
      "name": "grantRole",
      "outputs": [],
      "stateMutability": "nonpayable",
      "type": "function"
    },
    {
      "inputs": [
        {
          "internalType": "bytes32",
          "name": "role",
          "type": "bytes32"
        },
        {
          "internalType": "address",
          "name": "account",
          "type": "address"
        }
      ],
      "name": "hasRole",
      "outputs": [
        {
          "internalType": "bool",
          "name": "",
          "type": "bool"
        }
      ],
      "stateMutability": "view",
      "type": "function"
    },
    {
      "inputs": [
        {
          "internalType": "address",
          "name": "_oneSplit",
          "type": "address"
        },
        {
          "internalType": "address",
          "name": "_xMPHToken",
          "type": "address"
        }
      ],
      "name": "initialize",
      "outputs": [],
      "stateMutability": "nonpayable",
      "type": "function"
    },
    {
      "inputs": [],
      "name": "notify",
      "outputs": [],
      "stateMutability": "nonpayable",
      "type": "function"
    },
    {
      "inputs": [],
      "name": "oneSplit",
      "outputs": [
        {
          "internalType": "contract OneSplitAudit",
          "name": "",
          "type": "address"
        }
      ],
      "stateMutability": "view",
      "type": "function"
    },
    {
      "inputs": [
        {
          "internalType": "bytes32",
          "name": "role",
          "type": "bytes32"
        },
        {
          "internalType": "address",
          "name": "account",
          "type": "address"
        }
      ],
      "name": "renounceRole",
      "outputs": [],
      "stateMutability": "nonpayable",
      "type": "function"
    },
    {
      "inputs": [
        {
          "internalType": "bytes32",
          "name": "role",
          "type": "bytes32"
        },
        {
          "internalType": "address",
          "name": "account",
          "type": "address"
        }
      ],
      "name": "revokeRole",
      "outputs": [],
      "stateMutability": "nonpayable",
      "type": "function"
    },
    {
      "inputs": [],
      "name": "rewardToken",
      "outputs": [
        {
          "internalType": "contract IERC20",
          "name": "",
          "type": "address"
        }
      ],
      "stateMutability": "view",
      "type": "function"
    },
    {
      "inputs": [
        {
          "internalType": "bytes4",
          "name": "interfaceId",
          "type": "bytes4"
        }
      ],
      "name": "supportsInterface",
      "outputs": [
        {
          "internalType": "bool",
          "name": "",
          "type": "bool"
        }
      ],
      "stateMutability": "view",
      "type": "function"
    },
    {
      "inputs": [],
      "name": "xMPHToken",
      "outputs": [
        {
          "internalType": "contract xMPH",
          "name": "",
          "type": "address"
        }
      ],
      "stateMutability": "view",
      "type": "function"
    },
    {
      "inputs": [
        {
          "internalType": "address",
          "name": "yTokenAddress",
          "type": "address"
        }
      ],
      "name": "yearnWithdraw",
      "outputs": [],
      "stateMutability": "nonpayable",
      "type": "function"
    }
  ],
  "transactionHash": "0x6766bc3464fa5c1d07479c4b087f7f5d3694f5527202b01ed4c8b16b8a8a4365",
  "args": [],
  "solcInputHash": "99cd8bc056a60544b951a7935e875d35",
  "bytecode": "0x608060405234801561001057600080fd5b50611fd5806100206000396000f3fe608060405234801561001057600080fd5b506004361061012c5760003560e01c80636e0d0b99116100ad578063d193769411610071578063d193769414610293578063d547741f146102a6578063d7180cc8146102b9578063ee599f36146102cc578063f7c618c1146102df57600080fd5b80636e0d0b991461024a578063899f58981461025d57806391d1485414610265578063a217fddf14610278578063b31a4bfa1461028057600080fd5b806341b8d1ba116100f457806341b8d1ba146101c557806343ee21f0146101e65780634590179214610211578063485cc95514610224578063572913b81461023757600080fd5b806301ffc9a7146101315780631a83301f14610159578063248a9ca31461016e5780632f2ff15d1461019f57806336568abe146101b2575b600080fd5b61014461013f366004611b53565b6102f2565b60405190151581526020015b60405180910390f35b61016c610167366004611a70565b610329565b005b61019161017c366004611b17565b60009081526065602052604090206001015490565b604051908152602001610150565b61016c6101ad366004611b2f565b6105d4565b61016c6101c0366004611b2f565b6105ff565b6101d86101d3366004611a45565b61067d565b604051610150929190611e97565b6097546101f9906001600160a01b031681565b6040516001600160a01b039091168152602001610150565b6098546101f9906001600160a01b031681565b61016c6102323660046118aa565b6107ad565b61016c61024536600461192f565b610824565b61016c61025836600461188e565b610934565b61016c610a39565b610144610273366004611b2f565b610b5d565b610191600081565b61016c61028e3660046119ef565b610b88565b61016c6102a13660046119af565b610ca4565b61016c6102b4366004611b2f565b610d7a565b61016c6102c73660046118e2565b610da0565b61016c6102da36600461196f565b610e76565b6099546101f9906001600160a01b031681565b60006001600160e01b03198216637965db0b60e01b148061032357506301ffc9a760e01b6001600160e01b03198316145b92915050565b610334600033610b5d565b6103595760405162461bcd60e51b815260040161035090611daa565b60405180910390fd5b6040516370a0823160e01b815230600482015284906000906001600160a01b038316906370a082319060240160206040518083038186803b15801561039d57600080fd5b505afa1580156103b1573d6000803e3d6000fd5b505050506040513d601f19601f820116820180604052508101906103d59190611b97565b6097549091506103f2906001600160a01b03848116911683610f4c565b6099546040516370a0823160e01b81523060048201526000916001600160a01b0316906370a082319060240160206040518083038186803b15801561043657600080fd5b505afa15801561044a573d6000803e3d6000fd5b505050506040513d601f19601f8201168201806040525081019061046e9190611b97565b609754609954604051637153a8af60e11b81529293506001600160a01b039182169263e2a7515e926104b2928c9291169087908c908c908c90600090600401611d0c565b600060405180830381600087803b1580156104cc57600080fd5b505af11580156104e0573d6000803e3d6000fd5b50506099546040516370a0823160e01b8152306004820152600093506001600160a01b0390911691506370a082319060240160206040518083038186803b15801561052a57600080fd5b505afa15801561053e573d6000803e3d6000fd5b505050506040513d601f19601f820116820180604052508101906105629190611b97565b90508181116105ca5760405162461bcd60e51b815260206004820152602e60248201527f4f6e6553706c697444756d7065723a207265636569766564526577617264546f60448201526d06b656e416d6f756e74203d3d20360941b6064820152608401610350565b5050505050505050565b6000828152606560205260409020600101546105f08133611077565b6105fa83836110db565b505050565b6001600160a01b038116331461066f5760405162461bcd60e51b815260206004820152602f60248201527f416363657373436f6e74726f6c3a2063616e206f6e6c792072656e6f756e636560448201526e103937b632b9903337b91039b2b63360891b6064820152608401610350565b6106798282611161565b5050565b6040516370a0823160e01b8152306004820152600090606090849083906001600160a01b038316906370a082319060240160206040518083038186803b1580156106c657600080fd5b505afa1580156106da573d6000803e3d6000fd5b505050506040513d601f19601f820116820180604052508101906106fe9190611b97565b60975460995460405163085e2c5b60e01b81526001600160a01b038a811660048301529182166024820152604481018490526064810189905260006084820152929350169063085e2c5b9060a40160006040518083038186803b15801561076457600080fd5b505afa158015610778573d6000803e3d6000fd5b505050506040513d6000823e601f3d908101601f191682016040526107a09190810190611baf565b9097909650945050505050565b600054610100900460ff16806107c6575060005460ff16155b6107e25760405162461bcd60e51b815260040161035090611de1565b600054610100900460ff16158015610804576000805461ffff19166101011790555b61080e83836111c8565b80156105fa576000805461ff0019169055505050565b61082f600033610b5d565b61084b5760405162461bcd60e51b815260040161035090611daa565b6040516370a0823160e01b815230600482015283906000906001600160a01b038316906370a082319060240160206040518083038186803b15801561088f57600080fd5b505afa1580156108a3573d6000803e3d6000fd5b505050506040513d601f19601f820116820180604052508101906108c79190611b97565b60405163ecb586a560e01b815290915084906001600160a01b0382169063ecb586a5906108fa9085908890600401611e49565b600060405180830381600087803b15801561091457600080fd5b505af1158015610928573d6000803e3d6000fd5b50505050505050505050565b61093f600033610b5d565b61095b5760405162461bcd60e51b815260040161035090611daa565b6040516370a0823160e01b815230600482015281906000906001600160a01b038316906370a082319060240160206040518083038186803b15801561099f57600080fd5b505afa1580156109b3573d6000803e3d6000fd5b505050506040513d601f19601f820116820180604052508101906109d79190611b97565b604051632e1a7d4d60e01b8152600481018290529091506001600160a01b03831690632e1a7d4d90602401600060405180830381600087803b158015610a1c57600080fd5b505af1158015610a30573d6000803e3d6000fd5b50505050505050565b610a44600033610b5d565b610a605760405162461bcd60e51b815260040161035090611daa565b6099546040516370a0823160e01b81523060048201526000916001600160a01b0316906370a082319060240160206040518083038186803b158015610aa457600080fd5b505afa158015610ab8573d6000803e3d6000fd5b505050506040513d601f19601f82011682018060405250810190610adc9190611b97565b609854609954919250610afc916001600160a01b03908116911683610f4c565b60985460405163940a4e4560e01b8152600481018390526001600160a01b039091169063940a4e4590602401600060405180830381600087803b158015610b4257600080fd5b505af1158015610b56573d6000803e3d6000fd5b5050505050565b60009182526065602090815260408084206001600160a01b0393909316845291905290205460ff1690565b610b93600033610b5d565b610baf5760405162461bcd60e51b815260040161035090611daa565b6040516370a0823160e01b815230600482015284906000906001600160a01b038316906370a082319060240160206040518083038186803b158015610bf357600080fd5b505afa158015610c07573d6000803e3d6000fd5b505050506040513d601f19601f82011682018060405250810190610c2b9190611b97565b604051630d2680e960e11b815260048101829052600f86900b60248201526044810185905290915085906001600160a01b03821690631a4d01d290606401600060405180830381600087803b158015610c8357600080fd5b505af1158015610c97573d6000803e3d6000fd5b5050505050505050505050565b610caf600033610b5d565b610ccb5760405162461bcd60e51b815260040161035090611daa565b6040516370a0823160e01b815230600482015283906000906001600160a01b038316906370a082319060240160206040518083038186803b158015610d0f57600080fd5b505afa158015610d23573d6000803e3d6000fd5b505050506040513d601f19601f82011682018060405250810190610d479190611b97565b6040516371dffae760e11b815290915084906001600160a01b0382169063e3bff5ce906108fa9085908890600401611e7d565b600082815260656020526040902060010154610d968133611077565b6105fa8383611161565b610dab600033610b5d565b610dc75760405162461bcd60e51b815260040161035090611daa565b6040516370a0823160e01b815230600482015283906000906001600160a01b038316906370a082319060240160206040518083038186803b158015610e0b57600080fd5b505afa158015610e1f573d6000803e3d6000fd5b505050506040513d601f19601f82011682018060405250810190610e439190611b97565b6040516316cd8e2760e21b815290915084906001600160a01b03821690635b36389c906108fa9085908890600401611e2f565b610e81600033610b5d565b610e9d5760405162461bcd60e51b815260040161035090611daa565b6040516370a0823160e01b815230600482015283906000906001600160a01b038316906370a082319060240160206040518083038186803b158015610ee157600080fd5b505afa158015610ef5573d6000803e3d6000fd5b505050506040513d601f19601f82011682018060405250810190610f199190611b97565b604051637d49d87560e01b815290915084906001600160a01b03821690637d49d875906108fa9085908890600401611e63565b604051636eb1769f60e11b81523060048201526001600160a01b0383811660248301526000919085169063dd62ed3e9060440160206040518083038186803b158015610f9757600080fd5b505afa158015610fab573d6000803e3d6000fd5b505050506040513d601f19601f82011682018060405250810190610fcf9190611b97565b9050801561103a576040516001600160a01b03841660248201526000604482015261103a90859063095ea7b360e01b906064015b60408051601f198184030181529190526020810180516001600160e01b03166001600160e01b0319909316929092179091526112f9565b6110718463095ea7b360e01b856110518686611ee4565b6040516001600160a01b0390921660248301526044820152606401611003565b50505050565b6110818282610b5d565b61067957611099816001600160a01b031660146113cb565b6110a48360206113cb565b6040516020016110b5929190611c97565b60408051601f198184030181529082905262461bcd60e51b825261035091600401611d77565b6110e58282610b5d565b6106795760008281526065602090815260408083206001600160a01b03851684529091529020805460ff1916600117905561111d3390565b6001600160a01b0316816001600160a01b0316837f2f8788117e7eff1d82e926ec794901d17c78024a50270940304540a733656f0d60405160405180910390a45050565b61116b8282610b5d565b156106795760008281526065602090815260408083206001600160a01b0385168085529252808320805460ff1916905551339285917ff6391f5c32d9c69d2a47ea670b442974b53935d1edc7fd64eb21e047a839171b9190a45050565b600054610100900460ff16806111e1575060005460ff16155b6111fd5760405162461bcd60e51b815260040161035090611de1565b600054610100900460ff1615801561121f576000805461ffff19166101011790555b6112276115b4565b609780546001600160a01b038086166001600160a01b03199283161790925560988054928516929091168217905560408051632304aa6160e01b81529051632304aa6191600480820192602092909190829003018186803b15801561128b57600080fd5b505afa15801561129f573d6000803e3d6000fd5b505050506040513d601f19601f820116820180604052508101906112c39190611b7b565b609980546001600160a01b0319166001600160a01b039290921691909117905580156105fa576000805461ff0019169055505050565b600061134e826040518060400160405280602081526020017f5361666545524332303a206c6f772d6c6576656c2063616c6c206661696c6564815250856001600160a01b03166116339092919063ffffffff16565b8051909150156105fa578080602001905181019061136c9190611af7565b6105fa5760405162461bcd60e51b815260206004820152602a60248201527f5361666545524332303a204552433230206f7065726174696f6e20646964206e6044820152691bdd081cdd58d8d9595960b21b6064820152608401610350565b606060006113da836002611efc565b6113e5906002611ee4565b67ffffffffffffffff81111561140b57634e487b7160e01b600052604160045260246000fd5b6040519080825280601f01601f191660200182016040528015611435576020820181803683370190505b509050600360fc1b8160008151811061145e57634e487b7160e01b600052603260045260246000fd5b60200101906001600160f81b031916908160001a905350600f60fb1b8160018151811061149b57634e487b7160e01b600052603260045260246000fd5b60200101906001600160f81b031916908160001a90535060006114bf846002611efc565b6114ca906001611ee4565b90505b600181111561155e576f181899199a1a9b1b9c1cb0b131b232b360811b85600f166010811061150c57634e487b7160e01b600052603260045260246000fd5b1a60f81b82828151811061153057634e487b7160e01b600052603260045260246000fd5b60200101906001600160f81b031916908160001a90535060049490941c9361155781611f47565b90506114cd565b5083156115ad5760405162461bcd60e51b815260206004820181905260248201527f537472696e67733a20686578206c656e67746820696e73756666696369656e746044820152606401610350565b9392505050565b600054610100900460ff16806115cd575060005460ff16155b6115e95760405162461bcd60e51b815260040161035090611de1565b600054610100900460ff1615801561160b576000805461ffff19166101011790555b61161361164a565b61161e6000336116b9565b8015611630576000805461ff00191690555b50565b606061164284846000856116c3565b949350505050565b600054610100900460ff1680611663575060005460ff16155b61167f5760405162461bcd60e51b815260040161035090611de1565b600054610100900460ff161580156116a1576000805461ffff19166101011790555b6116a96117eb565b6116b16117eb565b61161e6117eb565b61067982826110db565b6060824710156117245760405162461bcd60e51b815260206004820152602660248201527f416464726573733a20696e73756666696369656e742062616c616e636520666f6044820152651c8818d85b1b60d21b6064820152608401610350565b843b6117725760405162461bcd60e51b815260206004820152601d60248201527f416464726573733a2063616c6c20746f206e6f6e2d636f6e74726163740000006044820152606401610350565b600080866001600160a01b0316858760405161178e9190611c7b565b60006040518083038185875af1925050503d80600081146117cb576040519150601f19603f3d011682016040523d82523d6000602084013e6117d0565b606091505b50915091506117e0828286611855565b979650505050505050565b600054610100900460ff1680611804575060005460ff16155b6118205760405162461bcd60e51b815260040161035090611de1565b600054610100900460ff1615801561161e576000805461ffff19166101011790558015611630576000805461ff001916905550565b606083156118645750816115ad565b8251156118745782518084602001fd5b8160405162461bcd60e51b81526004016103509190611d77565b60006020828403121561189f578081fd5b81356115ad81611f8a565b600080604083850312156118bc578081fd5b82356118c781611f8a565b915060208301356118d781611f8a565b809150509250929050565b6000806000608084860312156118f6578081fd5b833561190181611f8a565b9250602084013561191181611f8a565b915060808401851015611922578081fd5b6040840190509250925092565b600080600060a08486031215611943578283fd5b833561194e81611f8a565b9250602084013561195e81611f8a565b915060a08401851015611922578081fd5b600080600060c08486031215611983578283fd5b833561198e81611f8a565b9250602084013561199e81611f8a565b915060c08401851015611922578081fd5b600080600060e084860312156119c3578283fd5b83356119ce81611f8a565b925060208401356119de81611f8a565b915060e08401851015611922578081fd5b60008060008060808587031215611a04578081fd5b8435611a0f81611f8a565b93506020850135611a1f81611f8a565b92506040850135600f81900b8114611a35578182fd5b9396929550929360600135925050565b60008060408385031215611a57578182fd5b8235611a6281611f8a565b946020939093013593505050565b60008060008060608587031215611a85578081fd5b8435611a9081611f8a565b935060208501359250604085013567ffffffffffffffff80821115611ab3578283fd5b818701915087601f830112611ac6578283fd5b813581811115611ad4578384fd5b8860208260051b8501011115611ae8578384fd5b95989497505060200194505050565b600060208284031215611b08578081fd5b815180151581146115ad578182fd5b600060208284031215611b28578081fd5b5035919050565b60008060408385031215611b41578182fd5b8235915060208301356118d781611f8a565b600060208284031215611b64578081fd5b81356001600160e01b0319811681146115ad578182fd5b600060208284031215611b8c578081fd5b81516115ad81611f8a565b600060208284031215611ba8578081fd5b5051919050565b60008060408385031215611bc1578182fd5b8251915060208084015167ffffffffffffffff80821115611be0578384fd5b818601915086601f830112611bf3578384fd5b815181811115611c0557611c05611f74565b8060051b604051601f19603f83011681018181108582111715611c2a57611c2a611f74565b604052828152858101935084860182860187018b1015611c48578788fd5b8795505b83861015611c6a578051855260019590950194938601938601611c4c565b508096505050505050509250929050565b60008251611c8d818460208701611f1b565b9190910192915050565b7f416363657373436f6e74726f6c3a206163636f756e7420000000000000000000815260008351611ccf816017850160208801611f1b565b7001034b99036b4b9b9b4b733903937b6329607d1b6017918401918201528351611d00816028840160208801611f1b565b01602801949350505050565b6001600160a01b03888116825287166020820152604081018690526060810185905260c060808201819052810183905260006001600160fb1b03841115611d51578081fd5b8360051b808660e0850137820160e00190815260a0909101919091529695505050505050565b6020815260008251806020840152611d96816040850160208701611f1b565b601f01601f19169190910160400192915050565b6020808252601a908201527f41646d696e436f6e74726f6c6c65643a206e6f742061646d696e000000000000604082015260600190565b6020808252602e908201527f496e697469616c697a61626c653a20636f6e747261637420697320616c72656160408201526d191e481a5b9a5d1a585b1a5e995960921b606082015260800190565b828152606081016040836020840137600081529392505050565b828152608081016060836020840137600081529392505050565b82815260a081016080836020840137600081529392505050565b82815260c0810160a0836020840137600081529392505050565b60006040820184835260206040818501528185518084526060860191508287019350845b81811015611ed757845183529383019391830191600101611ebb565b5090979650505050505050565b60008219821115611ef757611ef7611f5e565b500190565b6000816000190483118215151615611f1657611f16611f5e565b500290565b60005b83811015611f36578181015183820152602001611f1e565b838111156110715750506000910152565b600081611f5657611f56611f5e565b506000190190565b634e487b7160e01b600052601160045260246000fd5b634e487b7160e01b600052604160045260246000fd5b6001600160a01b038116811461163057600080fdfea26469706673582212209abb6668aa40fc37e4921d491bd3f572c417bc163d671cd1ab7826b036f9ec6964736f6c63430008040033",
  "devdoc": {
    "kind": "dev",
    "methods": {
      "getRoleAdmin(bytes32)": {
        "details": "Returns the admin role that controls `role`. See {grantRole} and {revokeRole}. To change a role's admin, use {_setRoleAdmin}."
      },
      "grantRole(bytes32,address)": {
        "details": "Grants `role` to `account`. If `account` had not been already granted `role`, emits a {RoleGranted} event. Requirements: - the caller must have ``role``'s admin role."
      },
      "hasRole(bytes32,address)": {
        "details": "Returns `true` if `account` has been granted `role`."
      },
      "renounceRole(bytes32,address)": {
        "details": "Revokes `role` from the calling account. Roles are often managed via {grantRole} and {revokeRole}: this function's purpose is to provide a mechanism for accounts to lose their privileges if they are compromised (such as when a trusted device is misplaced). If the calling account had been granted `role`, emits a {RoleRevoked} event. Requirements: - the caller must be `account`."
      },
      "revokeRole(bytes32,address)": {
        "details": "Revokes `role` from `account`. If `account` had been granted `role`, emits a {RoleRevoked} event. Requirements: - the caller must have ``role``'s admin role."
      },
      "supportsInterface(bytes4)": {
        "details": "See {IERC165-supportsInterface}."
      }
    },
    "version": 1
  },
  "userdoc": {
    "kind": "user",
    "methods": {},
    "version": 1
  },
  "storageLayout": {
    "storage": [
      {
        "astId": 612,
        "contract": "contracts/rewards/dumpers/Dumper.sol:Dumper",
        "label": "_initialized",
        "offset": 0,
        "slot": "0",
        "type": "t_bool"
      },
      {
        "astId": 615,
        "contract": "contracts/rewards/dumpers/Dumper.sol:Dumper",
        "label": "_initializing",
        "offset": 1,
        "slot": "0",
        "type": "t_bool"
      },
      {
        "astId": 3064,
        "contract": "contracts/rewards/dumpers/Dumper.sol:Dumper",
        "label": "__gap",
        "offset": 0,
        "slot": "1",
        "type": "t_array(t_uint256)50_storage"
      },
      {
        "astId": 3453,
        "contract": "contracts/rewards/dumpers/Dumper.sol:Dumper",
        "label": "__gap",
        "offset": 0,
        "slot": "51",
        "type": "t_array(t_uint256)50_storage"
      },
      {
        "astId": 86,
        "contract": "contracts/rewards/dumpers/Dumper.sol:Dumper",
        "label": "_roles",
        "offset": 0,
        "slot": "101",
        "type": "t_mapping(t_bytes32,t_struct(RoleData)81_storage)"
      },
      {
        "astId": 394,
        "contract": "contracts/rewards/dumpers/Dumper.sol:Dumper",
        "label": "__gap",
        "offset": 0,
        "slot": "102",
        "type": "t_array(t_uint256)49_storage"
      },
      {
        "astId": 22667,
        "contract": "contracts/rewards/dumpers/Dumper.sol:Dumper",
        "label": "oneSplit",
        "offset": 0,
        "slot": "151",
        "type": "t_contract(OneSplitAudit)22991"
      },
      {
        "astId": 22670,
        "contract": "contracts/rewards/dumpers/Dumper.sol:Dumper",
        "label": "xMPHToken",
        "offset": 0,
        "slot": "152",
        "type": "t_contract(xMPH)23826"
      },
      {
        "astId": 22673,
        "contract": "contracts/rewards/dumpers/Dumper.sol:Dumper",
        "label": "rewardToken",
        "offset": 0,
        "slot": "153",
        "type": "t_contract(IERC20)4702"
      }
    ],
    "types": {
      "t_address": {
        "encoding": "inplace",
        "label": "address",
        "numberOfBytes": "20"
      },
      "t_array(t_uint256)49_storage": {
        "base": "t_uint256",
        "encoding": "inplace",
        "label": "uint256[49]",
        "numberOfBytes": "1568"
      },
      "t_array(t_uint256)50_storage": {
        "base": "t_uint256",
        "encoding": "inplace",
        "label": "uint256[50]",
        "numberOfBytes": "1600"
      },
      "t_bool": {
        "encoding": "inplace",
        "label": "bool",
        "numberOfBytes": "1"
      },
      "t_bytes32": {
        "encoding": "inplace",
        "label": "bytes32",
        "numberOfBytes": "32"
      },
      "t_contract(IERC20)4702": {
        "encoding": "inplace",
        "label": "contract IERC20",
        "numberOfBytes": "20"
      },
      "t_contract(OneSplitAudit)22991": {
        "encoding": "inplace",
        "label": "contract OneSplitAudit",
        "numberOfBytes": "20"
      },
      "t_contract(xMPH)23826": {
        "encoding": "inplace",
        "label": "contract xMPH",
        "numberOfBytes": "20"
      },
      "t_mapping(t_address,t_bool)": {
        "encoding": "mapping",
        "key": "t_address",
        "label": "mapping(address => bool)",
        "numberOfBytes": "32",
        "value": "t_bool"
      },
      "t_mapping(t_bytes32,t_struct(RoleData)81_storage)": {
        "encoding": "mapping",
        "key": "t_bytes32",
        "label": "mapping(bytes32 => struct AccessControlUpgradeable.RoleData)",
        "numberOfBytes": "32",
        "value": "t_struct(RoleData)81_storage"
      },
      "t_struct(RoleData)81_storage": {
        "encoding": "inplace",
        "label": "struct AccessControlUpgradeable.RoleData",
        "members": [
          {
            "astId": 78,
            "contract": "contracts/rewards/dumpers/Dumper.sol:Dumper",
            "label": "members",
            "offset": 0,
            "slot": "0",
            "type": "t_mapping(t_address,t_bool)"
          },
          {
            "astId": 80,
            "contract": "contracts/rewards/dumpers/Dumper.sol:Dumper",
            "label": "adminRole",
            "offset": 0,
            "slot": "1",
            "type": "t_bytes32"
          }
        ],
        "numberOfBytes": "64"
      },
      "t_uint256": {
        "encoding": "inplace",
        "label": "uint256",
        "numberOfBytes": "32"
      }
    }
  }
}