{
  "address": "0x7fFBE828B056E9f5Eb31496AB8B20F2609C5bc0E",
  "abi": [
    {
      "inputs": [
        {
          "internalType": "address",
          "name": "controller_",
          "type": "address"
        }
      ],
      "stateMutability": "nonpayable",
      "type": "constructor"
    },
    {
      "inputs": [],
      "name": "Forwarder__NotController",
      "type": "error"
    },
    {
      "inputs": [],
      "name": "controller",
      "outputs": [
        {
          "internalType": "address",
          "name": "",
          "type": "address"
        }
      ],
      "stateMutability": "view",
      "type": "function"
    },
    {
      "inputs": [
        {
          "internalType": "address",
          "name": "token",
          "type": "address"
        },
        {
          "internalType": "uint256",
          "name": "amount",
          "type": "uint256"
        }
      ],
      "name": "pullTokens",
      "outputs": [],
      "stateMutability": "nonpayable",
      "type": "function"
    }
  ],
  "transactionHash": "0x6f042377830a99b1ff7042153df943448aa467eeab56399a96a19b2053bc757f",
  "args": [
    "0xA907C7c3D13248F08A3fb52BeB6D1C079507Eb4B"
  ],
  "numDeployments": 1,
  "solcInputHash": "33a045f6b17935967eb45dd47b08c42d",
  "bytecode": "0x60a060405234801561001057600080fd5b5060405161056238038061056283398101604081905261002f91610044565b60601b6001600160601b031916608052610072565b600060208284031215610055578081fd5b81516001600160a01b038116811461006b578182fd5b9392505050565b60805160601c6104c761009b60003960008181605501528181609e015260eb01526104c76000f3fe608060405234801561001057600080fd5b50600436106100365760003560e01c8063eada79cc1461003b578063f77c479114610050575b600080fd5b61004e6100493660046103bc565b610093565b005b6100777f000000000000000000000000000000000000000000000000000000000000000081565b6040516001600160a01b03909116815260200160405180910390f35b336001600160a01b037f000000000000000000000000000000000000000000000000000000000000000016146100dc57604051638e3b816960e01b815260040160405180910390fd5b6101106001600160a01b0383167f000000000000000000000000000000000000000000000000000000000000000083610114565b5050565b604080516001600160a01b038416602482015260448082018490528251808303909101815260649091019091526020810180516001600160e01b031663a9059cbb60e01b17905261016690849061016b565b505050565b60006101c0826040518060400160405280602081526020017f5361666545524332303a206c6f772d6c6576656c2063616c6c206661696c6564815250856001600160a01b03166102429092919063ffffffff16565b80519091501561016657808060200190518101906101de91906103f2565b6101665760405162461bcd60e51b815260206004820152602a60248201527f5361666545524332303a204552433230206f7065726174696f6e20646964206e6044820152691bdd081cdd58d8d9595960b21b60648201526084015b60405180910390fd5b6060610251848460008561025b565b90505b9392505050565b6060824710156102bc5760405162461bcd60e51b815260206004820152602660248201527f416464726573733a20696e73756666696369656e742062616c616e636520666f6044820152651c8818d85b1b60d21b6064820152608401610239565b843b61030a5760405162461bcd60e51b815260206004820152601d60248201527f416464726573733a2063616c6c20746f206e6f6e2d636f6e74726163740000006044820152606401610239565b600080866001600160a01b031685876040516103269190610412565b60006040518083038185875af1925050503d8060008114610363576040519150601f19603f3d011682016040523d82523d6000602084013e610368565b606091505b5091509150610378828286610383565b979650505050505050565b60608315610392575081610254565b8251156103a25782518084602001fd5b8160405162461bcd60e51b8152600401610239919061042e565b600080604083850312156103ce578182fd5b82356001600160a01b03811681146103e4578283fd5b946020939093013593505050565b600060208284031215610403578081fd5b81518015158114610254578182fd5b60008251610424818460208701610461565b9190910192915050565b602081526000825180602084015261044d816040850160208701610461565b601f01601f19169190910160400192915050565b60005b8381101561047c578181015183820152602001610464565b8381111561048b576000848401525b5050505056fea26469706673582212203a3ffe0cd7eaf59a08a4615f29d067e74b3f93a4bc84a3bbd86913ff2f53779264736f6c63430008040033",
  "devdoc": {
    "author": "zefram.eth",
    "kind": "dev",
    "methods": {},
    "title": "Forwarder",
    "version": 1
  },
  "userdoc": {
    "kind": "user",
    "methods": {},
    "notice": "Allows its controller to pull any ERC20 token from it",
    "version": 1
  },
  "storageLayout": {
    "storage": [],
    "types": null
  }
}