{
  "address": "0xf71D76E27d4B6f7bAD01bbc322B6b5a77F715161",
  "abi": [
    {
      "inputs": [
        {
          "internalType": "uint256",
          "name": "prod1",
          "type": "uint256"
        }
      ],
      "name": "PRBMath__MulDivFixedPointOverflow",
      "type": "error"
    },
    {
      "anonymous": false,
      "inputs": [
        {
          "indexed": true,
          "internalType": "address",
          "name": "sender",
          "type": "address"
        },
        {
          "indexed": true,
          "internalType": "string",
          "name": "paramName",
          "type": "string"
        },
        {
          "indexed": false,
          "internalType": "address",
          "name": "newValue",
          "type": "address"
        }
      ],
      "name": "ESetParamAddress",
      "type": "event"
    },
    {
      "anonymous": false,
      "inputs": [
        {
          "indexed": true,
          "internalType": "address",
          "name": "sender",
          "type": "address"
        },
        {
          "indexed": true,
          "internalType": "string",
          "name": "paramName",
          "type": "string"
        },
        {
          "indexed": false,
          "internalType": "address",
          "name": "pool",
          "type": "address"
        },
        {
          "indexed": false,
          "internalType": "uint256",
          "name": "newValue",
          "type": "uint256"
        }
      ],
      "name": "ESetParamUint",
      "type": "event"
    },
    {
      "anonymous": false,
      "inputs": [
        {
          "indexed": true,
          "internalType": "address",
          "name": "sender",
          "type": "address"
        },
        {
          "indexed": true,
          "internalType": "address",
          "name": "to",
          "type": "address"
        },
        {
          "indexed": false,
          "internalType": "uint256",
          "name": "depositorReward",
          "type": "uint256"
        }
      ],
      "name": "MintDepositorReward",
      "type": "event"
    },
    {
      "anonymous": false,
      "inputs": [
        {
          "indexed": true,
          "internalType": "address",
          "name": "sender",
          "type": "address"
        },
        {
          "indexed": true,
          "internalType": "address",
          "name": "to",
          "type": "address"
        },
        {
          "indexed": false,
          "internalType": "uint256",
          "name": "funderReward",
          "type": "uint256"
        }
      ],
      "name": "MintFunderReward",
      "type": "event"
    },
    {
      "anonymous": false,
      "inputs": [
        {
          "indexed": true,
          "internalType": "bytes32",
          "name": "role",
          "type": "bytes32"
        },
        {
          "indexed": true,
          "internalType": "bytes32",
          "name": "previousAdminRole",
          "type": "bytes32"
        },
        {
          "indexed": true,
          "internalType": "bytes32",
          "name": "newAdminRole",
          "type": "bytes32"
        }
      ],
      "name": "RoleAdminChanged",
      "type": "event"
    },
    {
      "anonymous": false,
      "inputs": [
        {
          "indexed": true,
          "internalType": "bytes32",
          "name": "role",
          "type": "bytes32"
        },
        {
          "indexed": true,
          "internalType": "address",
          "name": "account",
          "type": "address"
        },
        {
          "indexed": true,
          "internalType": "address",
          "name": "sender",
          "type": "address"
        }
      ],
      "name": "RoleGranted",
      "type": "event"
    },
    {
      "anonymous": false,
      "inputs": [
        {
          "indexed": true,
          "internalType": "bytes32",
          "name": "role",
          "type": "bytes32"
        },
        {
          "indexed": true,
          "internalType": "address",
          "name": "account",
          "type": "address"
        },
        {
          "indexed": true,
          "internalType": "address",
          "name": "sender",
          "type": "address"
        }
      ],
      "name": "RoleRevoked",
      "type": "event"
    },
    {
      "inputs": [],
      "name": "DEFAULT_ADMIN_ROLE",
      "outputs": [
        {
          "internalType": "bytes32",
          "name": "",
          "type": "bytes32"
        }
      ],
      "stateMutability": "view",
      "type": "function"
    },
    {
      "inputs": [],
      "name": "LEGACY_MINTER_ROLE",
      "outputs": [
        {
          "internalType": "bytes32",
          "name": "",
          "type": "bytes32"
        }
      ],
      "stateMutability": "view",
      "type": "function"
    },
    {
      "inputs": [],
      "name": "WHITELISTED_POOL_ROLE",
      "outputs": [
        {
          "internalType": "bytes32",
          "name": "",
          "type": "bytes32"
        }
      ],
      "stateMutability": "view",
      "type": "function"
    },
    {
      "inputs": [],
      "name": "WHITELISTER_ROLE",
      "outputs": [
        {
          "internalType": "bytes32",
          "name": "",
          "type": "bytes32"
        }
      ],
      "stateMutability": "view",
      "type": "function"
    },
    {
      "inputs": [
        {
          "internalType": "address",
          "name": "account",
          "type": "address"
        },
        {
          "internalType": "uint64",
          "name": "depositID",
          "type": "uint64"
        }
      ],
      "name": "createVestForDeposit",
      "outputs": [],
      "stateMutability": "nonpayable",
      "type": "function"
    },
    {
      "inputs": [],
      "name": "devRewardMultiplier",
      "outputs": [
        {
          "internalType": "uint256",
          "name": "",
          "type": "uint256"
        }
      ],
      "stateMutability": "view",
      "type": "function"
    },
    {
      "inputs": [],
      "name": "devWallet",
      "outputs": [
        {
          "internalType": "address",
          "name": "",
          "type": "address"
        }
      ],
      "stateMutability": "view",
      "type": "function"
    },
    {
      "inputs": [
        {
          "internalType": "uint64",
          "name": "fundingID",
          "type": "uint64"
        },
        {
          "internalType": "uint256",
          "name": "interestAmount",
          "type": "uint256"
        }
      ],
      "name": "distributeFundingRewards",
      "outputs": [],
      "stateMutability": "nonpayable",
      "type": "function"
    },
    {
      "inputs": [
        {
          "internalType": "bytes32",
          "name": "role",
          "type": "bytes32"
        }
      ],
      "name": "getRoleAdmin",
      "outputs": [
        {
          "internalType": "bytes32",
          "name": "",
          "type": "bytes32"
        }
      ],
      "stateMutability": "view",
      "type": "function"
    },
    {
      "inputs": [],
      "name": "govRewardMultiplier",
      "outputs": [
        {
          "internalType": "uint256",
          "name": "",
          "type": "uint256"
        }
      ],
      "stateMutability": "view",
      "type": "function"
    },
    {
      "inputs": [],
      "name": "govTreasury",
      "outputs": [
        {
          "internalType": "address",
          "name": "",
          "type": "address"
        }
      ],
      "stateMutability": "view",
      "type": "function"
    },
    {
      "inputs": [
        {
          "internalType": "bytes32",
          "name": "role",
          "type": "bytes32"
        },
        {
          "internalType": "address",
          "name": "account",
          "type": "address"
        }
      ],
      "name": "grantRole",
      "outputs": [],
      "stateMutability": "nonpayable",
      "type": "function"
    },
    {
      "inputs": [
        {
          "internalType": "bytes32",
          "name": "role",
          "type": "bytes32"
        },
        {
          "internalType": "address",
          "name": "account",
          "type": "address"
        }
      ],
      "name": "hasRole",
      "outputs": [
        {
          "internalType": "bool",
          "name": "",
          "type": "bool"
        }
      ],
      "stateMutability": "view",
      "type": "function"
    },
    {
      "inputs": [
        {
          "internalType": "address",
          "name": "_mph",
          "type": "address"
        },
        {
          "internalType": "address",
          "name": "_govTreasury",
          "type": "address"
        },
        {
          "internalType": "address",
          "name": "_devWallet",
          "type": "address"
        },
        {
          "internalType": "address",
          "name": "_vesting02",
          "type": "address"
        },
        {
          "internalType": "uint256",
          "name": "_devRewardMultiplier",
          "type": "uint256"
        },
        {
          "internalType": "uint256",
          "name": "_govRewardMultiplier",
          "type": "uint256"
        }
      ],
      "name": "initialize",
      "outputs": [],
      "stateMutability": "nonpayable",
      "type": "function"
    },
    {
      "inputs": [
        {
          "internalType": "address",
          "name": "pool",
          "type": "address"
        },
        {
          "internalType": "address",
          "name": "to",
          "type": "address"
        },
        {
          "internalType": "uint256",
          "name": "depositAmount",
          "type": "uint256"
        },
        {
          "internalType": "uint256",
          "name": "fundingCreationTimestamp",
          "type": "uint256"
        },
        {
          "internalType": "uint256",
          "name": "maturationTimestamp",
          "type": "uint256"
        },
        {
          "internalType": "uint256",
          "name": "",
          "type": "uint256"
        },
        {
          "internalType": "bool",
          "name": "early",
          "type": "bool"
        }
      ],
      "name": "legacyMintFunderReward",
      "outputs": [
        {
          "internalType": "uint256",
          "name": "",
          "type": "uint256"
        }
      ],
      "stateMutability": "nonpayable",
      "type": "function"
    },
    {
      "inputs": [
        {
          "internalType": "address",
          "name": "account",
          "type": "address"
        },
        {
          "internalType": "uint256",
          "name": "amount",
          "type": "uint256"
        }
      ],
      "name": "mintVested",
      "outputs": [
        {
          "internalType": "uint256",
          "name": "mintedAmount",
          "type": "uint256"
        }
      ],
      "stateMutability": "nonpayable",
      "type": "function"
    },
    {
      "inputs": [],
      "name": "mph",
      "outputs": [
        {
          "internalType": "contract MPHToken",
          "name": "",
          "type": "address"
        }
      ],
      "stateMutability": "view",
      "type": "function"
    },
    {
      "inputs": [
        {
          "internalType": "address",
          "name": "",
          "type": "address"
        }
      ],
      "name": "poolDepositorRewardMintMultiplier",
      "outputs": [
        {
          "internalType": "uint256",
          "name": "",
          "type": "uint256"
        }
      ],
      "stateMutability": "view",
      "type": "function"
    },
    {
      "inputs": [
        {
          "internalType": "address",
          "name": "",
          "type": "address"
        }
      ],
      "name": "poolFunderRewardMultiplier",
      "outputs": [
        {
          "internalType": "uint256",
          "name": "",
          "type": "uint256"
        }
      ],
      "stateMutability": "view",
      "type": "function"
    },
    {
      "inputs": [
        {
          "internalType": "bytes32",
          "name": "role",
          "type": "bytes32"
        },
        {
          "internalType": "address",
          "name": "account",
          "type": "address"
        }
      ],
      "name": "renounceRole",
      "outputs": [],
      "stateMutability": "nonpayable",
      "type": "function"
    },
    {
      "inputs": [
        {
          "internalType": "bytes32",
          "name": "role",
          "type": "bytes32"
        },
        {
          "internalType": "address",
          "name": "account",
          "type": "address"
        }
      ],
      "name": "revokeRole",
      "outputs": [],
      "stateMutability": "nonpayable",
      "type": "function"
    },
    {
      "inputs": [
        {
          "internalType": "uint256",
          "name": "newMultiplier",
          "type": "uint256"
        }
      ],
      "name": "setDevRewardMultiplier",
      "outputs": [],
      "stateMutability": "nonpayable",
      "type": "function"
    },
    {
      "inputs": [
        {
          "internalType": "address",
          "name": "newValue",
          "type": "address"
        }
      ],
      "name": "setDevWallet",
      "outputs": [],
      "stateMutability": "nonpayable",
      "type": "function"
    },
    {
      "inputs": [
        {
          "internalType": "uint256",
          "name": "newMultiplier",
          "type": "uint256"
        }
      ],
      "name": "setGovRewardMultiplier",
      "outputs": [],
      "stateMutability": "nonpayable",
      "type": "function"
    },
    {
      "inputs": [
        {
          "internalType": "address",
          "name": "newValue",
          "type": "address"
        }
      ],
      "name": "setGovTreasury",
      "outputs": [],
      "stateMutability": "nonpayable",
      "type": "function"
    },
    {
      "inputs": [
        {
          "internalType": "address",
          "name": "newValue",
          "type": "address"
        }
      ],
      "name": "setMPHTokenOwner",
      "outputs": [],
      "stateMutability": "nonpayable",
      "type": "function"
    },
    {
      "inputs": [],
      "name": "setMPHTokenOwnerToZero",
      "outputs": [],
      "stateMutability": "nonpayable",
      "type": "function"
    },
    {
      "inputs": [
        {
          "internalType": "address",
          "name": "pool",
          "type": "address"
        },
        {
          "internalType": "uint256",
          "name": "newMultiplier",
          "type": "uint256"
        }
      ],
      "name": "setPoolDepositorRewardMintMultiplier",
      "outputs": [],
      "stateMutability": "nonpayable",
      "type": "function"
    },
    {
      "inputs": [
        {
          "internalType": "address",
          "name": "pool",
          "type": "address"
        },
        {
          "internalType": "uint256",
          "name": "newMultiplier",
          "type": "uint256"
        }
      ],
      "name": "setPoolFunderRewardMultiplier",
      "outputs": [],
      "stateMutability": "nonpayable",
      "type": "function"
    },
    {
      "inputs": [
        {
          "internalType": "address",
          "name": "newValue",
          "type": "address"
        }
      ],
      "name": "setVesting02",
      "outputs": [],
      "stateMutability": "nonpayable",
      "type": "function"
    },
    {
      "inputs": [
        {
          "internalType": "bytes4",
          "name": "interfaceId",
          "type": "bytes4"
        }
      ],
      "name": "supportsInterface",
      "outputs": [
        {
          "internalType": "bool",
          "name": "",
          "type": "bool"
        }
      ],
      "stateMutability": "view",
      "type": "function"
    },
    {
      "inputs": [
        {
          "internalType": "uint64",
          "name": "depositID",
          "type": "uint64"
        },
        {
          "internalType": "uint256",
          "name": "currentDepositAmount",
          "type": "uint256"
        },
        {
          "internalType": "uint256",
          "name": "depositAmount",
          "type": "uint256"
        }
      ],
      "name": "updateVestForDeposit",
      "outputs": [],
      "stateMutability": "nonpayable",
      "type": "function"
    },
    {
      "inputs": [],
      "name": "vesting02",
      "outputs": [
        {
          "internalType": "contract Vesting02",
          "name": "",
          "type": "address"
        }
      ],
      "stateMutability": "view",
      "type": "function"
    }
  ],
  "transactionHash": "0xc54c4df27f9b3d86e69713ddc7cf034e1308389bd6b8057a972a40c696ee9573",
  "args": [],
  "solcInputHash": "99cd8bc056a60544b951a7935e875d35",
  "bytecode": "0x608060405234801561001057600080fd5b50612458806100206000396000f3fe608060405234801561001057600080fd5b50600436106101fb5760003560e01c806365f5275a1161011a578063a217fddf116100ad578063d7c41c791161007c578063d7c41c7914610485578063db4ae18c14610498578063dce7d034146104ab578063e296651e146104be578063ff12673a146104c757600080fd5b8063a217fddf14610437578063a4a6b0c31461043f578063c2cdb7881461045f578063d547741f1461047257600080fd5b80638c65a588116100e95780638c65a588146103eb5780638ea5220f146103fe57806391d1485414610411578063933202261461042457600080fd5b806365f5275a1461039f57806374794214146103b25780637675d490146103c557806388a42f22146103d857600080fd5b80632304aa61116101925780634898328e116101615780634898328e14610334578063570618e114610349578063597edeac146103705780635ba4106a1461039757600080fd5b80632304aa61146102c0578063248a9ca3146102eb5780632f2ff15d1461030e57806336568abe1461032157600080fd5b80631425d49f116101ce5780631425d49f1461027e5780631a3ee6b1146102875780631f53ac021461029a57806320205e0a146102ad57600080fd5b806301ffc9a714610200578063022cff8c1461022857806305f3c6ad14610256578063141f64dc1461026b575b600080fd5b61021361020e366004612150565b6104da565b60405190151581526020015b60405180910390f35b610248610236366004611f7f565b60986020526000908152604090205481565b60405190815260200161021f565b610269610264366004611f7f565b610511565b005b610248610279366004612024565b6105c9565b61024860995481565b6102696102953660046120c0565b610931565b6102696102a8366004611f7f565b6109ff565b6102696102bb366004611f7f565b610a66565b609b546102d3906001600160a01b031681565b6040516001600160a01b03909116815260200161021f565b6102486102f9366004612114565b60009081526065602052604090206001015490565b61026961031c36600461212c565b610afe565b61026961032f36600461212c565b610b29565b61024860008051602061240383398151915281565b6102487f8619cecd8b9e095ab43867f5b69d492180450fe862e6b50bfbfb24b75dd84c8a81565b6102487fb6de926b215ddcf7694f74b03c5f26abafd73fe49a804fdcb75e1d41a2eee06b81565b610269610ba7565b609e546102d3906001600160a01b031681565b6102486103c0366004612095565b610c7b565b6102696103d3366004612095565b610f51565b6102696103e63660046121b1565b611049565b6102696103f9366004611f7f565b6110fb565b609d546102d3906001600160a01b031681565b61021361041f36600461212c565b6111ac565b610269610432366004612194565b6111d7565b610248600081565b61024861044d366004611f7f565b60976020526000908152604090205481565b61026961046d366004612114565b6115ff565b61026961048036600461212c565b6116cc565b610269610493366004611fb7565b6116f2565b6102696104a6366004612095565b611771565b6102696104b9366004612114565b611829565b610248609a5481565b609c546102d3906001600160a01b031681565b60006001600160e01b03198216637965db0b60e01b148061050b57506301ffc9a760e01b6001600160e01b03198316145b92915050565b600061051d81336118b6565b6001600160a01b03821661054c5760405162461bcd60e51b8152600401610543906122a6565b60405180910390fd5b609c80546001600160a01b0319166001600160a01b0384161790556040516a676f76547265617375727960a81b8152600b015b6040519081900381206001600160a01b03841682529033907f64b03eb8356730cffd396927eec0e9b1e0599498960e022df3dae35791c17cf5906020015b60405180910390a35050565b60007fb6de926b215ddcf7694f74b03c5f26abafd73fe49a804fdcb75e1d41a2eee06b6105f681336118b6565b61060e6000805160206124038339815191528a6111ac565b6106505760405162461bcd60e51b8152602060048201526013602482015272135412135a5b9d195c8e881b9bdd081c1bdbdb606a1b6044820152606401610543565b609b5460408051638da5cb5b60e01b8152905130926001600160a01b031691638da5cb5b916004808301926020929190829003018186803b15801561069457600080fd5b505afa1580156106a8573d6000803e3d6000fd5b505050506040513d601f19601f820116820180604052508101906106cc9190611f9b565b6001600160a01b0316146106e35760009150610925565b600080600085610767578888116106fb576000610732565b6001600160a01b038c16600090815260986020526040902054610728906107228b8b612359565b9061191a565b610732908b61233a565b92506107496099548461191a90919063ffffffff16565b9150610760609a548461191a90919063ffffffff16565b9050610773565b60009450505050610925565b82156107ff57609b54604051631212e5cf60e21b81526001600160a01b039091169063484b973c906107ab908e90879060040161225a565b602060405180830381600087803b1580156107c557600080fd5b505af11580156107d9573d6000803e3d6000fd5b505050506040513d601f19601f820116820180604052508101906107fd91906120f8565b505b811561088f57609b54609d54604051631212e5cf60e21b81526001600160a01b039283169263484b973c9261083b92911690869060040161225a565b602060405180830381600087803b15801561085557600080fd5b505af1158015610869573d6000803e3d6000fd5b505050506040513d601f19601f8201168201806040525081019061088d91906120f8565b505b801561091f57609b54609c54604051631212e5cf60e21b81526001600160a01b039283169263484b973c926108cb92911690859060040161225a565b602060405180830381600087803b1580156108e557600080fd5b505af11580156108f9573d6000803e3d6000fd5b505050506040513d601f19601f8201168201806040525081019061091d91906120f8565b505b50909250505b50979650505050505050565b60008051602061240383398151915261094a81336118b6565b609e543360008181526097602052604090819020549051638185772160e01b81526001600160a01b038781166004830152602482019390935267ffffffffffffffff861660448201526064810191909152911690638185772190608401602060405180830381600087803b1580156109c157600080fd5b505af11580156109d5573d6000803e3d6000fd5b505050506040513d601f19601f820116820180604052508101906109f99190612178565b50505050565b6000610a0b81336118b6565b6001600160a01b038216610a315760405162461bcd60e51b8152600401610543906122a6565b609d80546001600160a01b0319166001600160a01b0384161790556040516819195d95d85b1b195d60ba1b815260090161057f565b6000610a7281336118b6565b6001600160a01b0382163b610ac95760405162461bcd60e51b815260206004820152601760248201527f4d50484d696e7465723a206e6f7420636f6e74726163740000000000000000006044820152606401610543565b609e80546001600160a01b0319166001600160a01b038416179055604051683b32b9ba34b733981960b91b815260090161057f565b600082815260656020526040902060010154610b1a81336118b6565b610b24838361192d565b505050565b6001600160a01b0381163314610b995760405162461bcd60e51b815260206004820152602f60248201527f416363657373436f6e74726f6c3a2063616e206f6e6c792072656e6f756e636560448201526e103937b632b9903337b91039b2b63360891b6064820152608401610543565b610ba382826119b3565b5050565b6000610bb381336118b6565b609b60009054906101000a90046001600160a01b03166001600160a01b031663715018a66040518163ffffffff1660e01b8152600401600060405180830381600087803b158015610c0357600080fd5b505af1158015610c17573d6000803e3d6000fd5b50505050604051610c3b906c36b8342a37b5b2b727bbb732b960991b8152600d0190565b604051908190038120600082529033907f64b03eb8356730cffd396927eec0e9b1e0599498960e022df3dae35791c17cf59060200160405180910390a350565b609e546000906001600160a01b03163314610cd85760405162461bcd60e51b815260206004820152601860248201527f4d50484d696e7465723a206e6f742076657374696e67303200000000000000006044820152606401610543565b609b5460408051638da5cb5b60e01b8152905130926001600160a01b031691638da5cb5b916004808301926020929190829003018186803b158015610d1c57600080fd5b505afa158015610d30573d6000803e3d6000fd5b505050506040513d601f19601f82011682018060405250810190610d549190611f9b565b6001600160a01b031614610d6a5750600061050b565b8115610df657609b54604051631212e5cf60e21b81526001600160a01b039091169063484b973c90610da2908690869060040161225a565b602060405180830381600087803b158015610dbc57600080fd5b505af1158015610dd0573d6000803e3d6000fd5b505050506040513d601f19601f82011682018060405250810190610df491906120f8565b505b6000610e0d6099548461191a90919063ffffffff16565b90508015610e9f57609b54609d54604051631212e5cf60e21b81526001600160a01b039283169263484b973c92610e4b92911690859060040161225a565b602060405180830381600087803b158015610e6557600080fd5b505af1158015610e79573d6000803e3d6000fd5b505050506040513d601f19601f82011682018060405250810190610e9d91906120f8565b505b6000610eb6609a548561191a90919063ffffffff16565b90508015610f4857609b54609c54604051631212e5cf60e21b81526001600160a01b039283169263484b973c92610ef492911690859060040161225a565b602060405180830381600087803b158015610f0e57600080fd5b505af1158015610f22573d6000803e3d6000fd5b505050506040513d601f19601f82011682018060405250810190610f4691906120f8565b505b50919392505050565b6000610f5d81336118b6565b6001600160a01b0383163b610fb45760405162461bcd60e51b815260206004820152601c60248201527f4d50484d696e7465723a20706f6f6c206e6f7420636f6e7472616374000000006044820152606401610543565b6001600160a01b03831660009081526098602052604090819020839055517f706f6f6c46756e6465725265776172644d756c7469706c6965720000000000008152601a015b6040518091039020336001600160a01b03167fd67ee305223ec33d9a5765a1fb6ca68e970700f8ecbd44f2064ae02166143172858560405161103c92919061225a565b60405180910390a3505050565b60008051602061240383398151915261106281336118b6565b609e543360008181526097602052604090819020549051632587aced60e11b8152600481019290925267ffffffffffffffff87166024830152604482018690526064820185905260848201526001600160a01b0390911690634b0f59da9060a401600060405180830381600087803b1580156110dd57600080fd5b505af11580156110f1573d6000803e3d6000fd5b5050505050505050565b600061110781336118b6565b6001600160a01b03821661112d5760405162461bcd60e51b8152600401610543906122a6565b609b5460405163f2fde38b60e01b81526001600160a01b0384811660048301529091169063f2fde38b90602401600060405180830381600087803b15801561117457600080fd5b505af1158015611188573d6000803e3d6000fd5b5050505060405161057f906c36b8342a37b5b2b727bbb732b960991b8152600d0190565b60009182526065602090815260408084206001600160a01b0393909316845291905290205460ff1690565b6000805160206124038339815191526111f081336118b6565b8115806112805750609b5460408051638da5cb5b60e01b8152905130926001600160a01b031691638da5cb5b916004808301926020929190829003018186803b15801561123c57600080fd5b505afa158015611250573d6000803e3d6000fd5b505050506040513d601f19601f820116820180604052508101906112749190611f9b565b6001600160a01b031614155b1561128a57505050565b336000908152609860205260408120546112a590849061191a565b9050806112b25750505050565b6000336001600160a01b0316635dc05d7f6040518163ffffffff1660e01b815260040160206040518083038186803b1580156112ed57600080fd5b505afa158015611301573d6000803e3d6000fd5b505050506040513d601f19601f820116820180604052508101906113259190611f9b565b609b54604051631212e5cf60e21b81529192506001600160a01b03169063484b973c90611358903090869060040161225a565b602060405180830381600087803b15801561137257600080fd5b505af1158015611386573d6000803e3d6000fd5b505050506040513d601f19601f820116820180604052508101906113aa91906120f8565b50609b54604051633950935160e01b81526001600160a01b03909116906339509351906113dd908490869060040161225a565b602060405180830381600087803b1580156113f757600080fd5b505af115801561140b573d6000803e3d6000fd5b505050506040513d601f19601f8201168201806040525081019061142f91906120f8565b50609b546040516316f6849d60e31b815267ffffffffffffffff871660048201526001600160a01b039182166024820152604481018490529082169063b7b424e890606401600060405180830381600087803b15801561148e57600080fd5b505af11580156114a2573d6000803e3d6000fd5b5050505060006114bd6099548461191a90919063ffffffff16565b9050801561154f57609b54609d54604051631212e5cf60e21b81526001600160a01b039283169263484b973c926114fb92911690859060040161225a565b602060405180830381600087803b15801561151557600080fd5b505af1158015611529573d6000803e3d6000fd5b505050506040513d601f19601f8201168201806040525081019061154d91906120f8565b505b6000611566609a548561191a90919063ffffffff16565b905080156115f657609b54609c54604051631212e5cf60e21b81526001600160a01b039283169263484b973c926115a492911690859060040161225a565b602060405180830381600087803b1580156115be57600080fd5b505af11580156115d2573d6000803e3d6000fd5b505050506040513d601f19601f820116820180604052508101906110f191906120f8565b50505050505050565b600061160b81336118b6565b670de0b6b3a76400008211156116635760405162461bcd60e51b815260206004820152601d60248201527f4d50484d696e7465723a20696e76616c6964206d756c7469706c6965720000006044820152606401610543565b609a8290556040517233b7bb2932bbb0b93226bab63a34b83634b2b960691b81526013015b6040518091039020336001600160a01b03167fd67ee305223ec33d9a5765a1fb6ca68e970700f8ecbd44f2064ae021661431726000856040516105bd92919061225a565b6000828152606560205260409020600101546116e881336118b6565b610b2483836119b3565b600054610100900460ff168061170b575060005460ff16155b6117275760405162461bcd60e51b8152600401610543906122d4565b600054610100900460ff16158015611749576000805461ffff19166101011790555b611757878787878787611a1a565b80156115f6576000805461ff001916905550505050505050565b600061177d81336118b6565b6001600160a01b0383163b6117d45760405162461bcd60e51b815260206004820152601c60248201527f4d50484d696e7465723a20706f6f6c206e6f7420636f6e7472616374000000006044820152606401610543565b6001600160a01b0383166000908152609760205260409081902083905551610ff9907f706f6f6c4465706f7369746f725265776172644d696e744d756c7469706c69658152603960f91b602082015260210190565b600061183581336118b6565b670de0b6b3a764000082111561188d5760405162461bcd60e51b815260206004820152601d60248201527f4d50484d696e7465723a20696e76616c6964206d756c7469706c6965720000006044820152606401610543565b6099829055604051723232bb2932bbb0b93226bab63a34b83634b2b960691b8152601301611688565b6118c082826111ac565b610ba3576118d8816001600160a01b03166014611a87565b6118e3836020611a87565b6040516020016118f49291906121e5565b60408051601f198184030181529082905262461bcd60e51b825261054391600401612273565b60006119268383611c69565b9392505050565b61193782826111ac565b610ba35760008281526065602090815260408083206001600160a01b03851684529091529020805460ff1916600117905561196f3390565b6001600160a01b0316816001600160a01b0316837f2f8788117e7eff1d82e926ec794901d17c78024a50270940304540a733656f0d60405160405180910390a45050565b6119bd82826111ac565b15610ba35760008281526065602090815260408083206001600160a01b0385168085529252808320805460ff1916905551339285917ff6391f5c32d9c69d2a47ea670b442974b53935d1edc7fd64eb21e047a839171b9190a45050565b600054610100900460ff1680611a33575060005460ff16155b611a4f5760405162461bcd60e51b8152600401610543906122d4565b600054610100900460ff16158015611a71576000805461ffff19166101011790555b611a79611d2b565b611757878787878787611daf565b60606000611a9683600261233a565b611aa1906002612322565b67ffffffffffffffff811115611ac757634e487b7160e01b600052604160045260246000fd5b6040519080825280601f01601f191660200182016040528015611af1576020820181803683370190505b509050600360fc1b81600081518110611b1a57634e487b7160e01b600052603260045260246000fd5b60200101906001600160f81b031916908160001a905350600f60fb1b81600181518110611b5757634e487b7160e01b600052603260045260246000fd5b60200101906001600160f81b031916908160001a9053506000611b7b84600261233a565b611b86906001612322565b90505b6001811115611c1a576f181899199a1a9b1b9c1cb0b131b232b360811b85600f1660108110611bc857634e487b7160e01b600052603260045260246000fd5b1a60f81b828281518110611bec57634e487b7160e01b600052603260045260246000fd5b60200101906001600160f81b031916908160001a90535060049490941c93611c138161239c565b9050611b89565b5083156119265760405162461bcd60e51b815260206004820181905260248201527f537472696e67733a20686578206c656e67746820696e73756666696369656e746044820152606401610543565b60008080600019848609848602925082811083820303915050670de0b6b3a76400008110611cad5760405163698d9a0160e11b815260048101829052602401610543565b600080670de0b6b3a76400008688099150506706f05b59d3b1ffff811182611ce75780670de0b6b3a764000085040194505050505061050b565b620400008285030493909111909103600160ee1b02919091177faccb18165bd6fe31ae1cf318dc5b51eee0e1ba569b88cd74c1773b91fac106690201905092915050565b600054610100900460ff1680611d44575060005460ff16155b611d605760405162461bcd60e51b8152600401610543906122d4565b600054610100900460ff16158015611d82576000805461ffff19166101011790555b611d8a611eb7565b611d92611eb7565b611d9a611eb7565b8015611dac576000805461ff00191690555b50565b600054610100900460ff1680611dc8575060005460ff16155b611de45760405162461bcd60e51b8152600401610543906122d4565b600054610100900460ff16158015611e06576000805461ffff19166101011790555b611e11600033611f21565b611e496000805160206124038339815191527f8619cecd8b9e095ab43867f5b69d492180450fe862e6b50bfbfb24b75dd84c8a611f2b565b609b80546001600160a01b03808a166001600160a01b031992831617909255609c8054898416908316179055609d8054888416908316179055609e8054928716929091169190911790556099839055609a82905580156115f6576000805461ff001916905550505050505050565b600054610100900460ff1680611ed0575060005460ff16155b611eec5760405162461bcd60e51b8152600401610543906122d4565b600054610100900460ff16158015611d9a576000805461ffff19166101011790558015611dac576000805461ff001916905550565b610ba3828261192d565b600082815260656020526040902060010154819060405184907fbd79b86ffe0ab8e8776151514217cd7cacd52c909f66475c3af44e129f0b00ff90600090a460009182526065602052604090912060010155565b600060208284031215611f90578081fd5b8135611926816123c9565b600060208284031215611fac578081fd5b8151611926816123c9565b60008060008060008060c08789031215611fcf578182fd5b8635611fda816123c9565b95506020870135611fea816123c9565b94506040870135611ffa816123c9565b9350606087013561200a816123c9565b9598949750929560808101359460a0909101359350915050565b600080600080600080600060e0888a03121561203e578081fd5b8735612049816123c9565b96506020880135612059816123c9565b955060408801359450606088013593506080880135925060a0880135915060c0880135612085816123de565b8091505092959891949750929550565b600080604083850312156120a7578182fd5b82356120b2816123c9565b946020939093013593505050565b600080604083850312156120d2578182fd5b82356120dd816123c9565b915060208301356120ed816123ec565b809150509250929050565b600060208284031215612109578081fd5b8151611926816123de565b600060208284031215612125578081fd5b5035919050565b6000806040838503121561213e578182fd5b8235915060208301356120ed816123c9565b600060208284031215612161578081fd5b81356001600160e01b031981168114611926578182fd5b600060208284031215612189578081fd5b8151611926816123ec565b600080604083850312156121a6578182fd5b82356120b2816123ec565b6000806000606084860312156121c5578081fd5b83356121d0816123ec565b95602085013595506040909401359392505050565b7f416363657373436f6e74726f6c3a206163636f756e742000000000000000000081526000835161221d816017850160208801612370565b7001034b99036b4b9b9b4b733903937b6329607d1b601791840191820152835161224e816028840160208801612370565b01602801949350505050565b6001600160a01b03929092168252602082015260400190565b6020815260008251806020840152612292816040850160208701612370565b601f01601f19169190910160400192915050565b6020808252601490820152734d50484d696e7465723a2030206164647265737360601b604082015260600190565b6020808252602e908201527f496e697469616c697a61626c653a20636f6e747261637420697320616c72656160408201526d191e481a5b9a5d1a585b1a5e995960921b606082015260800190565b60008219821115612335576123356123b3565b500190565b6000816000190483118215151615612354576123546123b3565b500290565b60008282101561236b5761236b6123b3565b500390565b60005b8381101561238b578181015183820152602001612373565b838111156109f95750506000910152565b6000816123ab576123ab6123b3565b506000190190565b634e487b7160e01b600052601160045260246000fd5b6001600160a01b0381168114611dac57600080fd5b8015158114611dac57600080fd5b67ffffffffffffffff81168114611dac57600080fdfe01929b51ccb866359f22f5a3ce5c78c9fc36c4de9719e0e678f9a41b4e88b733a2646970667358221220535735f3a3b88a86664afbaebab464137b5864eb6af01ab1956654f9d82fd78364736f6c63430008040033",
  "devdoc": {
    "kind": "dev",
    "methods": {
      "getRoleAdmin(bytes32)": {
        "details": "Returns the admin role that controls `role`. See {grantRole} and {revokeRole}. To change a role's admin, use {_setRoleAdmin}."
      },
      "grantRole(bytes32,address)": {
        "details": "Grants `role` to `account`. If `account` had not been already granted `role`, emits a {RoleGranted} event. Requirements: - the caller must have ``role``'s admin role."
      },
      "hasRole(bytes32,address)": {
        "details": "Returns `true` if `account` has been granted `role`."
      },
      "legacyMintFunderReward(address,address,uint256,uint256,uint256,uint256,bool)": {
        "details": "Used for supporting the v2 MPHMinterLegacy"
      },
      "renounceRole(bytes32,address)": {
        "details": "Revokes `role` from the calling account. Roles are often managed via {grantRole} and {revokeRole}: this function's purpose is to provide a mechanism for accounts to lose their privileges if they are compromised (such as when a trusted device is misplaced). If the calling account had been granted `role`, emits a {RoleRevoked} event. Requirements: - the caller must be `account`."
      },
      "revokeRole(bytes32,address)": {
        "details": "Revokes `role` from `account`. If `account` had been granted `role`, emits a {RoleRevoked} event. Requirements: - the caller must have ``role``'s admin role."
      },
      "supportsInterface(bytes4)": {
        "details": "See {IERC165-supportsInterface}."
      }
    },
    "version": 1
  },
  "userdoc": {
    "errors": {
      "PRBMath__MulDivFixedPointOverflow(uint256)": [
        {
          "notice": "Emitted when the result overflows uint256."
        }
      ]
    },
    "kind": "user",
    "methods": {
      "devRewardMultiplier()": {
        "notice": "Multiplier used for calculating dev reward"
      },
      "govRewardMultiplier()": {
        "notice": "Multiplier used for calculating gov reward"
      },
      "mph()": {
        "notice": "External contracts"
      },
      "poolDepositorRewardMintMultiplier(address)": {
        "notice": "The multiplier applied when minting MPH for a pool's depositor reward. Unit is MPH-wei per depositToken-wei per second. (wei here is the smallest decimal place) Scaled by 10^18. NOTE: The depositToken's decimals matter!"
      },
      "poolFunderRewardMultiplier(address)": {
        "notice": "The multiplier applied when minting MPH for a pool's funder reward. Unit is MPH-wei per depositToken-wei. (wei here is the smallest decimal place) Scaled by 10^18. NOTE: The depositToken's decimals matter!"
      },
      "setPoolDepositorRewardMintMultiplier(address,uint256)": {
        "notice": "Param setters"
      }
    },
    "version": 1
  },
  "storageLayout": {
    "storage": [
      {
        "astId": 612,
        "contract": "contracts/rewards/MPHMinter.sol:MPHMinter",
        "label": "_initialized",
        "offset": 0,
        "slot": "0",
        "type": "t_bool"
      },
      {
        "astId": 615,
        "contract": "contracts/rewards/MPHMinter.sol:MPHMinter",
        "label": "_initializing",
        "offset": 1,
        "slot": "0",
        "type": "t_bool"
      },
      {
        "astId": 3064,
        "contract": "contracts/rewards/MPHMinter.sol:MPHMinter",
        "label": "__gap",
        "offset": 0,
        "slot": "1",
        "type": "t_array(t_uint256)50_storage"
      },
      {
        "astId": 3453,
        "contract": "contracts/rewards/MPHMinter.sol:MPHMinter",
        "label": "__gap",
        "offset": 0,
        "slot": "51",
        "type": "t_array(t_uint256)50_storage"
      },
      {
        "astId": 86,
        "contract": "contracts/rewards/MPHMinter.sol:MPHMinter",
        "label": "_roles",
        "offset": 0,
        "slot": "101",
        "type": "t_mapping(t_bytes32,t_struct(RoleData)81_storage)"
      },
      {
        "astId": 394,
        "contract": "contracts/rewards/MPHMinter.sol:MPHMinter",
        "label": "__gap",
        "offset": 0,
        "slot": "102",
        "type": "t_array(t_uint256)49_storage"
      },
      {
        "astId": 20956,
        "contract": "contracts/rewards/MPHMinter.sol:MPHMinter",
        "label": "poolDepositorRewardMintMultiplier",
        "offset": 0,
        "slot": "151",
        "type": "t_mapping(t_address,t_uint256)"
      },
      {
        "astId": 20961,
        "contract": "contracts/rewards/MPHMinter.sol:MPHMinter",
        "label": "poolFunderRewardMultiplier",
        "offset": 0,
        "slot": "152",
        "type": "t_mapping(t_address,t_uint256)"
      },
      {
        "astId": 20964,
        "contract": "contracts/rewards/MPHMinter.sol:MPHMinter",
        "label": "devRewardMultiplier",
        "offset": 0,
        "slot": "153",
        "type": "t_uint256"
      },
      {
        "astId": 20967,
        "contract": "contracts/rewards/MPHMinter.sol:MPHMinter",
        "label": "govRewardMultiplier",
        "offset": 0,
        "slot": "154",
        "type": "t_uint256"
      },
      {
        "astId": 20971,
        "contract": "contracts/rewards/MPHMinter.sol:MPHMinter",
        "label": "mph",
        "offset": 0,
        "slot": "155",
        "type": "t_contract(MPHToken)21887"
      },
      {
        "astId": 20973,
        "contract": "contracts/rewards/MPHMinter.sol:MPHMinter",
        "label": "govTreasury",
        "offset": 0,
        "slot": "156",
        "type": "t_address"
      },
      {
        "astId": 20975,
        "contract": "contracts/rewards/MPHMinter.sol:MPHMinter",
        "label": "devWallet",
        "offset": 0,
        "slot": "157",
        "type": "t_address"
      },
      {
        "astId": 20978,
        "contract": "contracts/rewards/MPHMinter.sol:MPHMinter",
        "label": "vesting02",
        "offset": 0,
        "slot": "158",
        "type": "t_contract(Vesting02)22616"
      },
      {
        "astId": 21754,
        "contract": "contracts/rewards/MPHMinter.sol:MPHMinter",
        "label": "__gap",
        "offset": 0,
        "slot": "159",
        "type": "t_array(t_uint256)42_storage"
      }
    ],
    "types": {
      "t_address": {
        "encoding": "inplace",
        "label": "address",
        "numberOfBytes": "20"
      },
      "t_array(t_uint256)42_storage": {
        "base": "t_uint256",
        "encoding": "inplace",
        "label": "uint256[42]",
        "numberOfBytes": "1344"
      },
      "t_array(t_uint256)49_storage": {
        "base": "t_uint256",
        "encoding": "inplace",
        "label": "uint256[49]",
        "numberOfBytes": "1568"
      },
      "t_array(t_uint256)50_storage": {
        "base": "t_uint256",
        "encoding": "inplace",
        "label": "uint256[50]",
        "numberOfBytes": "1600"
      },
      "t_bool": {
        "encoding": "inplace",
        "label": "bool",
        "numberOfBytes": "1"
      },
      "t_bytes32": {
        "encoding": "inplace",
        "label": "bytes32",
        "numberOfBytes": "32"
      },
      "t_contract(MPHToken)21887": {
        "encoding": "inplace",
        "label": "contract MPHToken",
        "numberOfBytes": "20"
      },
      "t_contract(Vesting02)22616": {
        "encoding": "inplace",
        "label": "contract Vesting02",
        "numberOfBytes": "20"
      },
      "t_mapping(t_address,t_bool)": {
        "encoding": "mapping",
        "key": "t_address",
        "label": "mapping(address => bool)",
        "numberOfBytes": "32",
        "value": "t_bool"
      },
      "t_mapping(t_address,t_uint256)": {
        "encoding": "mapping",
        "key": "t_address",
        "label": "mapping(address => uint256)",
        "numberOfBytes": "32",
        "value": "t_uint256"
      },
      "t_mapping(t_bytes32,t_struct(RoleData)81_storage)": {
        "encoding": "mapping",
        "key": "t_bytes32",
        "label": "mapping(bytes32 => struct AccessControlUpgradeable.RoleData)",
        "numberOfBytes": "32",
        "value": "t_struct(RoleData)81_storage"
      },
      "t_struct(RoleData)81_storage": {
        "encoding": "inplace",
        "label": "struct AccessControlUpgradeable.RoleData",
        "members": [
          {
            "astId": 78,
            "contract": "contracts/rewards/MPHMinter.sol:MPHMinter",
            "label": "members",
            "offset": 0,
            "slot": "0",
            "type": "t_mapping(t_address,t_bool)"
          },
          {
            "astId": 80,
            "contract": "contracts/rewards/MPHMinter.sol:MPHMinter",
            "label": "adminRole",
            "offset": 0,
            "slot": "1",
            "type": "t_bytes32"
          }
        ],
        "numberOfBytes": "64"
      },
      "t_uint256": {
        "encoding": "inplace",
        "label": "uint256",
        "numberOfBytes": "32"
      }
    }
  }
}