{
  "address": "0xEEd19eE47C820543d43C68Fa793620428C5B284a",
  "abi": [
    {
      "inputs": [
        {
          "internalType": "contract Forwarder",
          "name": "forwarderTemplate_",
          "type": "address"
        }
      ],
      "stateMutability": "nonpayable",
      "type": "constructor"
    },
    {
      "inputs": [
        {
          "internalType": "uint256",
          "name": "prod1",
          "type": "uint256"
        }
      ],
      "name": "PRBMath__MulDivFixedPointOverflow",
      "type": "error"
    },
    {
      "inputs": [
        {
          "internalType": "uint256",
          "name": "prod1",
          "type": "uint256"
        },
        {
          "internalType": "uint256",
          "name": "denominator",
          "type": "uint256"
        }
      ],
      "name": "PRBMath__MulDivOverflow",
      "type": "error"
    },
    {
      "inputs": [],
      "name": "Vesting03__AmountTooLarge",
      "type": "error"
    },
    {
      "inputs": [],
      "name": "Vesting03__ForwarderNotDeployed",
      "type": "error"
    },
    {
      "inputs": [],
      "name": "Vesting03__NotMinter",
      "type": "error"
    },
    {
      "inputs": [],
      "name": "Vesting03__NotRewardDistributor",
      "type": "error"
    },
    {
      "inputs": [],
      "name": "Vesting03__NotVestOwner",
      "type": "error"
    },
    {
      "inputs": [],
      "name": "Vesting03__Overflow",
      "type": "error"
    },
    {
      "anonymous": false,
      "inputs": [
        {
          "indexed": true,
          "internalType": "address",
          "name": "owner",
          "type": "address"
        },
        {
          "indexed": true,
          "internalType": "address",
          "name": "approved",
          "type": "address"
        },
        {
          "indexed": true,
          "internalType": "uint256",
          "name": "tokenId",
          "type": "uint256"
        }
      ],
      "name": "Approval",
      "type": "event"
    },
    {
      "anonymous": false,
      "inputs": [
        {
          "indexed": true,
          "internalType": "address",
          "name": "owner",
          "type": "address"
        },
        {
          "indexed": true,
          "internalType": "address",
          "name": "operator",
          "type": "address"
        },
        {
          "indexed": false,
          "internalType": "bool",
          "name": "approved",
          "type": "bool"
        }
      ],
      "name": "ApprovalForAll",
      "type": "event"
    },
    {
      "anonymous": false,
      "inputs": [
        {
          "indexed": true,
          "internalType": "uint64",
          "name": "vestID",
          "type": "uint64"
        },
        {
          "indexed": false,
          "internalType": "uint256",
          "name": "vestAmountPerStablecoinPerSecond",
          "type": "uint256"
        }
      ],
      "name": "EBoost",
      "type": "event"
    },
    {
      "anonymous": false,
      "inputs": [
        {
          "indexed": true,
          "internalType": "address",
          "name": "to",
          "type": "address"
        },
        {
          "indexed": true,
          "internalType": "address",
          "name": "pool",
          "type": "address"
        },
        {
          "indexed": false,
          "internalType": "uint64",
          "name": "depositID",
          "type": "uint64"
        },
        {
          "indexed": false,
          "internalType": "uint64",
          "name": "vestID",
          "type": "uint64"
        },
        {
          "indexed": false,
          "internalType": "uint256",
          "name": "vestAmountPerStablecoinPerSecond",
          "type": "uint256"
        }
      ],
      "name": "ECreateVest",
      "type": "event"
    },
    {
      "anonymous": false,
      "inputs": [
        {
          "indexed": false,
          "internalType": "address",
          "name": "newValue",
          "type": "address"
        }
      ],
      "name": "ESetMPHMinter",
      "type": "event"
    },
    {
      "anonymous": false,
      "inputs": [
        {
          "indexed": true,
          "internalType": "uint64",
          "name": "vestID",
          "type": "uint64"
        },
        {
          "indexed": false,
          "internalType": "address",
          "name": "poolAddress",
          "type": "address"
        },
        {
          "indexed": false,
          "internalType": "uint64",
          "name": "depositID",
          "type": "uint64"
        },
        {
          "indexed": false,
          "internalType": "uint256",
          "name": "currentDepositAmount",
          "type": "uint256"
        },
        {
          "indexed": false,
          "internalType": "uint256",
          "name": "depositAmount",
          "type": "uint256"
        },
        {
          "indexed": false,
          "internalType": "uint256",
          "name": "vestAmountPerStablecoinPerSecond",
          "type": "uint256"
        }
      ],
      "name": "EUpdateVest",
      "type": "event"
    },
    {
      "anonymous": false,
      "inputs": [
        {
          "indexed": true,
          "internalType": "address",
          "name": "sender",
          "type": "address"
        },
        {
          "indexed": true,
          "internalType": "uint64",
          "name": "vestID",
          "type": "uint64"
        },
        {
          "indexed": false,
          "internalType": "uint256",
          "name": "withdrawnAmount",
          "type": "uint256"
        }
      ],
      "name": "EWithdraw",
      "type": "event"
    },
    {
      "anonymous": false,
      "inputs": [
        {
          "indexed": true,
          "internalType": "address",
          "name": "previousOwner",
          "type": "address"
        },
        {
          "indexed": true,
          "internalType": "address",
          "name": "newOwner",
          "type": "address"
        }
      ],
      "name": "OwnershipTransferred",
      "type": "event"
    },
    {
      "anonymous": false,
      "inputs": [
        {
          "indexed": true,
          "internalType": "address",
          "name": "pool",
          "type": "address"
        },
        {
          "indexed": false,
          "internalType": "uint256",
          "name": "reward",
          "type": "uint256"
        }
      ],
      "name": "RewardAdded",
      "type": "event"
    },
    {
      "anonymous": false,
      "inputs": [
        {
          "indexed": true,
          "internalType": "uint64",
          "name": "vestID",
          "type": "uint64"
        },
        {
          "indexed": false,
          "internalType": "uint256",
          "name": "reward",
          "type": "uint256"
        }
      ],
      "name": "RewardPaid",
      "type": "event"
    },
    {
      "anonymous": false,
      "inputs": [
        {
          "indexed": true,
          "internalType": "address",
          "name": "account",
          "type": "address"
        },
        {
          "indexed": false,
          "internalType": "bool",
          "name": "isDistributor",
          "type": "bool"
        }
      ],
      "name": "SetRewardDistributor",
      "type": "event"
    },
    {
      "anonymous": false,
      "inputs": [
        {
          "indexed": true,
          "internalType": "uint64",
          "name": "vestID",
          "type": "uint64"
        },
        {
          "indexed": false,
          "internalType": "uint256",
          "name": "amount",
          "type": "uint256"
        }
      ],
      "name": "Staked",
      "type": "event"
    },
    {
      "anonymous": false,
      "inputs": [
        {
          "indexed": true,
          "internalType": "address",
          "name": "from",
          "type": "address"
        },
        {
          "indexed": true,
          "internalType": "address",
          "name": "to",
          "type": "address"
        },
        {
          "indexed": true,
          "internalType": "uint256",
          "name": "tokenId",
          "type": "uint256"
        }
      ],
      "name": "Transfer",
      "type": "event"
    },
    {
      "anonymous": false,
      "inputs": [
        {
          "indexed": false,
          "internalType": "uint64",
          "name": "newDuration",
          "type": "uint64"
        }
      ],
      "name": "UpdateDuration",
      "type": "event"
    },
    {
      "anonymous": false,
      "inputs": [
        {
          "indexed": true,
          "internalType": "uint64",
          "name": "vestID",
          "type": "uint64"
        },
        {
          "indexed": false,
          "internalType": "uint256",
          "name": "amount",
          "type": "uint256"
        }
      ],
      "name": "Withdrawn",
      "type": "event"
    },
    {
      "inputs": [],
      "name": "DURATION",
      "outputs": [
        {
          "internalType": "uint64",
          "name": "",
          "type": "uint64"
        }
      ],
      "stateMutability": "view",
      "type": "function"
    },
    {
      "inputs": [
        {
          "internalType": "address",
          "name": "to",
          "type": "address"
        },
        {
          "internalType": "uint256",
          "name": "tokenId",
          "type": "uint256"
        }
      ],
      "name": "approve",
      "outputs": [],
      "stateMutability": "nonpayable",
      "type": "function"
    },
    {
      "inputs": [
        {
          "internalType": "address",
          "name": "owner",
          "type": "address"
        }
      ],
      "name": "balanceOf",
      "outputs": [
        {
          "internalType": "uint256",
          "name": "",
          "type": "uint256"
        }
      ],
      "stateMutability": "view",
      "type": "function"
    },
    {
      "inputs": [
        {
          "internalType": "uint64",
          "name": "vestID",
          "type": "uint64"
        },
        {
          "internalType": "uint256",
          "name": "vestAmountPerStablecoinPerSecond",
          "type": "uint256"
        }
      ],
      "name": "boost",
      "outputs": [],
      "stateMutability": "nonpayable",
      "type": "function"
    },
    {
      "inputs": [],
      "name": "claimOwnership",
      "outputs": [],
      "stateMutability": "nonpayable",
      "type": "function"
    },
    {
      "inputs": [],
      "name": "contractURI",
      "outputs": [
        {
          "internalType": "string",
          "name": "",
          "type": "string"
        }
      ],
      "stateMutability": "view",
      "type": "function"
    },
    {
      "inputs": [
        {
          "internalType": "address",
          "name": "to",
          "type": "address"
        },
        {
          "internalType": "address",
          "name": "pool",
          "type": "address"
        },
        {
          "internalType": "uint64",
          "name": "depositID",
          "type": "uint64"
        },
        {
          "internalType": "uint256",
          "name": "",
          "type": "uint256"
        }
      ],
      "name": "createVestForDeposit",
      "outputs": [
        {
          "internalType": "uint64",
          "name": "vestID",
          "type": "uint64"
        }
      ],
      "stateMutability": "nonpayable",
      "type": "function"
    },
    {
      "inputs": [
        {
          "internalType": "address",
          "name": "pool",
          "type": "address"
        }
      ],
      "name": "deployForwarderOfPool",
      "outputs": [],
      "stateMutability": "nonpayable",
      "type": "function"
    },
    {
      "inputs": [
        {
          "internalType": "address",
          "name": "",
          "type": "address"
        },
        {
          "internalType": "uint64",
          "name": "",
          "type": "uint64"
        }
      ],
      "name": "depositIDToVestID",
      "outputs": [
        {
          "internalType": "uint64",
          "name": "",
          "type": "uint64"
        }
      ],
      "stateMutability": "view",
      "type": "function"
    },
    {
      "inputs": [
        {
          "internalType": "address",
          "name": "pool",
          "type": "address"
        }
      ],
      "name": "forwarderOfPool",
      "outputs": [
        {
          "internalType": "contract Forwarder",
          "name": "",
          "type": "address"
        }
      ],
      "stateMutability": "view",
      "type": "function"
    },
    {
      "inputs": [],
      "name": "forwarderTemplate",
      "outputs": [
        {
          "internalType": "contract Forwarder",
          "name": "",
          "type": "address"
        }
      ],
      "stateMutability": "view",
      "type": "function"
    },
    {
      "inputs": [
        {
          "internalType": "uint256",
          "name": "tokenId",
          "type": "uint256"
        }
      ],
      "name": "getApproved",
      "outputs": [
        {
          "internalType": "address",
          "name": "",
          "type": "address"
        }
      ],
      "stateMutability": "view",
      "type": "function"
    },
    {
      "inputs": [
        {
          "internalType": "uint64",
          "name": "vestID",
          "type": "uint64"
        }
      ],
      "name": "getVest",
      "outputs": [
        {
          "components": [
            {
              "internalType": "address",
              "name": "pool",
              "type": "address"
            },
            {
              "internalType": "uint64",
              "name": "depositID",
              "type": "uint64"
            },
            {
              "internalType": "uint64",
              "name": "lastUpdateTimestamp",
              "type": "uint64"
            },
            {
              "internalType": "uint256",
              "name": "accumulatedAmount",
              "type": "uint256"
            },
            {
              "internalType": "uint256",
              "name": "withdrawnAmount",
              "type": "uint256"
            },
            {
              "internalType": "uint256",
              "name": "vestAmountPerStablecoinPerSecond",
              "type": "uint256"
            }
          ],
          "internalType": "struct Vesting02.Vest",
          "name": "",
          "type": "tuple"
        }
      ],
      "stateMutability": "view",
      "type": "function"
    },
    {
      "inputs": [
        {
          "internalType": "uint64",
          "name": "vestID",
          "type": "uint64"
        }
      ],
      "name": "getVestWithdrawableAmount",
      "outputs": [
        {
          "internalType": "uint256",
          "name": "",
          "type": "uint256"
        }
      ],
      "stateMutability": "view",
      "type": "function"
    },
    {
      "inputs": [
        {
          "internalType": "address",
          "name": "_token",
          "type": "address"
        },
        {
          "internalType": "string",
          "name": "tokenName",
          "type": "string"
        },
        {
          "internalType": "string",
          "name": "tokenSymbol",
          "type": "string"
        }
      ],
      "name": "initialize",
      "outputs": [],
      "stateMutability": "nonpayable",
      "type": "function"
    },
    {
      "inputs": [
        {
          "internalType": "address",
          "name": "owner",
          "type": "address"
        },
        {
          "internalType": "address",
          "name": "operator",
          "type": "address"
        }
      ],
      "name": "isApprovedForAll",
      "outputs": [
        {
          "internalType": "bool",
          "name": "",
          "type": "bool"
        }
      ],
      "stateMutability": "view",
      "type": "function"
    },
    {
      "inputs": [
        {
          "internalType": "address",
          "name": "",
          "type": "address"
        }
      ],
      "name": "isRewardDistributor",
      "outputs": [
        {
          "internalType": "bool",
          "name": "",
          "type": "bool"
        }
      ],
      "stateMutability": "view",
      "type": "function"
    },
    {
      "inputs": [
        {
          "internalType": "address",
          "name": "pool",
          "type": "address"
        }
      ],
      "name": "lastTimeRewardApplicable",
      "outputs": [
        {
          "internalType": "uint64",
          "name": "",
          "type": "uint64"
        }
      ],
      "stateMutability": "view",
      "type": "function"
    },
    {
      "inputs": [],
      "name": "mphMinter",
      "outputs": [
        {
          "internalType": "contract MPHMinter",
          "name": "",
          "type": "address"
        }
      ],
      "stateMutability": "view",
      "type": "function"
    },
    {
      "inputs": [
        {
          "internalType": "uint64[]",
          "name": "vestIDList",
          "type": "uint64[]"
        }
      ],
      "name": "multiWithdraw",
      "outputs": [],
      "stateMutability": "nonpayable",
      "type": "function"
    },
    {
      "inputs": [],
      "name": "name",
      "outputs": [
        {
          "internalType": "string",
          "name": "",
          "type": "string"
        }
      ],
      "stateMutability": "view",
      "type": "function"
    },
    {
      "inputs": [
        {
          "internalType": "address",
          "name": "pool",
          "type": "address"
        },
        {
          "internalType": "uint256",
          "name": "reward",
          "type": "uint256"
        }
      ],
      "name": "notifyRewardAmount",
      "outputs": [],
      "stateMutability": "nonpayable",
      "type": "function"
    },
    {
      "inputs": [],
      "name": "numVests",
      "outputs": [
        {
          "internalType": "uint256",
          "name": "",
          "type": "uint256"
        }
      ],
      "stateMutability": "view",
      "type": "function"
    },
    {
      "inputs": [],
      "name": "owner",
      "outputs": [
        {
          "internalType": "address",
          "name": "",
          "type": "address"
        }
      ],
      "stateMutability": "view",
      "type": "function"
    },
    {
      "inputs": [
        {
          "internalType": "uint256",
          "name": "tokenId",
          "type": "uint256"
        }
      ],
      "name": "ownerOf",
      "outputs": [
        {
          "internalType": "address",
          "name": "",
          "type": "address"
        }
      ],
      "stateMutability": "view",
      "type": "function"
    },
    {
      "inputs": [],
      "name": "pendingOwner",
      "outputs": [
        {
          "internalType": "address",
          "name": "",
          "type": "address"
        }
      ],
      "stateMutability": "view",
      "type": "function"
    },
    {
      "inputs": [
        {
          "internalType": "address",
          "name": "",
          "type": "address"
        }
      ],
      "name": "periodInfo",
      "outputs": [
        {
          "internalType": "uint64",
          "name": "lastUpdateTime",
          "type": "uint64"
        },
        {
          "internalType": "uint64",
          "name": "periodFinish",
          "type": "uint64"
        }
      ],
      "stateMutability": "view",
      "type": "function"
    },
    {
      "inputs": [
        {
          "internalType": "address",
          "name": "pool",
          "type": "address"
        }
      ],
      "name": "rewardPerToken",
      "outputs": [
        {
          "internalType": "uint256",
          "name": "",
          "type": "uint256"
        }
      ],
      "stateMutability": "view",
      "type": "function"
    },
    {
      "inputs": [
        {
          "internalType": "address",
          "name": "",
          "type": "address"
        }
      ],
      "name": "rewardPerTokenStored",
      "outputs": [
        {
          "internalType": "uint256",
          "name": "",
          "type": "uint256"
        }
      ],
      "stateMutability": "view",
      "type": "function"
    },
    {
      "inputs": [
        {
          "internalType": "address",
          "name": "",
          "type": "address"
        }
      ],
      "name": "rewardRate",
      "outputs": [
        {
          "internalType": "uint256",
          "name": "",
          "type": "uint256"
        }
      ],
      "stateMutability": "view",
      "type": "function"
    },
    {
      "inputs": [
        {
          "internalType": "uint64",
          "name": "",
          "type": "uint64"
        }
      ],
      "name": "rewards",
      "outputs": [
        {
          "internalType": "uint256",
          "name": "",
          "type": "uint256"
        }
      ],
      "stateMutability": "view",
      "type": "function"
    },
    {
      "inputs": [
        {
          "internalType": "address",
          "name": "from",
          "type": "address"
        },
        {
          "internalType": "address",
          "name": "to",
          "type": "address"
        },
        {
          "internalType": "uint256",
          "name": "tokenId",
          "type": "uint256"
        }
      ],
      "name": "safeTransferFrom",
      "outputs": [],
      "stateMutability": "nonpayable",
      "type": "function"
    },
    {
      "inputs": [
        {
          "internalType": "address",
          "name": "from",
          "type": "address"
        },
        {
          "internalType": "address",
          "name": "to",
          "type": "address"
        },
        {
          "internalType": "uint256",
          "name": "tokenId",
          "type": "uint256"
        },
        {
          "internalType": "bytes",
          "name": "_data",
          "type": "bytes"
        }
      ],
      "name": "safeTransferFrom",
      "outputs": [],
      "stateMutability": "nonpayable",
      "type": "function"
    },
    {
      "inputs": [
        {
          "internalType": "address",
          "name": "operator",
          "type": "address"
        },
        {
          "internalType": "bool",
          "name": "approved",
          "type": "bool"
        }
      ],
      "name": "setApprovalForAll",
      "outputs": [],
      "stateMutability": "nonpayable",
      "type": "function"
    },
    {
      "inputs": [
        {
          "internalType": "string",
          "name": "newURI",
          "type": "string"
        }
      ],
      "name": "setBaseURI",
      "outputs": [],
      "stateMutability": "nonpayable",
      "type": "function"
    },
    {
      "inputs": [
        {
          "internalType": "string",
          "name": "newURI",
          "type": "string"
        }
      ],
      "name": "setContractURI",
      "outputs": [],
      "stateMutability": "nonpayable",
      "type": "function"
    },
    {
      "inputs": [
        {
          "internalType": "address",
          "name": "newValue",
          "type": "address"
        }
      ],
      "name": "setMPHMinter",
      "outputs": [],
      "stateMutability": "nonpayable",
      "type": "function"
    },
    {
      "inputs": [
        {
          "internalType": "address",
          "name": "rewardDistributor",
          "type": "address"
        },
        {
          "internalType": "bool",
          "name": "isRewardDistributor_",
          "type": "bool"
        }
      ],
      "name": "setRewardDistributor",
      "outputs": [],
      "stateMutability": "nonpayable",
      "type": "function"
    },
    {
      "inputs": [
        {
          "internalType": "uint256",
          "name": "tokenId",
          "type": "uint256"
        },
        {
          "internalType": "string",
          "name": "newURI",
          "type": "string"
        }
      ],
      "name": "setTokenURI",
      "outputs": [],
      "stateMutability": "nonpayable",
      "type": "function"
    },
    {
      "inputs": [
        {
          "internalType": "bytes4",
          "name": "interfaceId",
          "type": "bytes4"
        }
      ],
      "name": "supportsInterface",
      "outputs": [
        {
          "internalType": "bool",
          "name": "",
          "type": "bool"
        }
      ],
      "stateMutability": "view",
      "type": "function"
    },
    {
      "inputs": [],
      "name": "symbol",
      "outputs": [
        {
          "internalType": "string",
          "name": "",
          "type": "string"
        }
      ],
      "stateMutability": "view",
      "type": "function"
    },
    {
      "inputs": [],
      "name": "token",
      "outputs": [
        {
          "internalType": "contract IERC20",
          "name": "",
          "type": "address"
        }
      ],
      "stateMutability": "view",
      "type": "function"
    },
    {
      "inputs": [
        {
          "internalType": "uint256",
          "name": "tokenId",
          "type": "uint256"
        }
      ],
      "name": "tokenURI",
      "outputs": [
        {
          "internalType": "string",
          "name": "",
          "type": "string"
        }
      ],
      "stateMutability": "view",
      "type": "function"
    },
    {
      "inputs": [
        {
          "internalType": "address",
          "name": "",
          "type": "address"
        }
      ],
      "name": "totalDepositStored",
      "outputs": [
        {
          "internalType": "uint256",
          "name": "",
          "type": "uint256"
        }
      ],
      "stateMutability": "view",
      "type": "function"
    },
    {
      "inputs": [
        {
          "internalType": "address",
          "name": "",
          "type": "address"
        }
      ],
      "name": "totalSupply",
      "outputs": [
        {
          "internalType": "uint256",
          "name": "",
          "type": "uint256"
        }
      ],
      "stateMutability": "view",
      "type": "function"
    },
    {
      "inputs": [
        {
          "internalType": "address",
          "name": "from",
          "type": "address"
        },
        {
          "internalType": "address",
          "name": "to",
          "type": "address"
        },
        {
          "internalType": "uint256",
          "name": "tokenId",
          "type": "uint256"
        }
      ],
      "name": "transferFrom",
      "outputs": [],
      "stateMutability": "nonpayable",
      "type": "function"
    },
    {
      "inputs": [
        {
          "internalType": "address",
          "name": "newOwner",
          "type": "address"
        },
        {
          "internalType": "bool",
          "name": "direct",
          "type": "bool"
        },
        {
          "internalType": "bool",
          "name": "renounce",
          "type": "bool"
        }
      ],
      "name": "transferOwnership",
      "outputs": [],
      "stateMutability": "nonpayable",
      "type": "function"
    },
    {
      "inputs": [
        {
          "internalType": "uint64",
          "name": "duration_",
          "type": "uint64"
        }
      ],
      "name": "updateDuration",
      "outputs": [],
      "stateMutability": "nonpayable",
      "type": "function"
    },
    {
      "inputs": [
        {
          "internalType": "address",
          "name": "pool",
          "type": "address"
        },
        {
          "internalType": "uint64",
          "name": "depositID",
          "type": "uint64"
        },
        {
          "internalType": "uint256",
          "name": "currentDepositAmount",
          "type": "uint256"
        },
        {
          "internalType": "uint256",
          "name": "depositAmount",
          "type": "uint256"
        },
        {
          "internalType": "uint256",
          "name": "vestAmountPerStablecoinPerSecond",
          "type": "uint256"
        }
      ],
      "name": "updateVestForDeposit",
      "outputs": [],
      "stateMutability": "nonpayable",
      "type": "function"
    },
    {
      "inputs": [
        {
          "internalType": "uint256",
          "name": "",
          "type": "uint256"
        }
      ],
      "name": "vestList",
      "outputs": [
        {
          "internalType": "address",
          "name": "pool",
          "type": "address"
        },
        {
          "internalType": "uint64",
          "name": "depositID",
          "type": "uint64"
        },
        {
          "internalType": "uint64",
          "name": "lastUpdateTimestamp",
          "type": "uint64"
        },
        {
          "internalType": "uint256",
          "name": "accumulatedAmount",
          "type": "uint256"
        },
        {
          "internalType": "uint256",
          "name": "withdrawnAmount",
          "type": "uint256"
        },
        {
          "internalType": "uint256",
          "name": "vestAmountPerStablecoinPerSecond",
          "type": "uint256"
        }
      ],
      "stateMutability": "view",
      "type": "function"
    },
    {
      "inputs": [
        {
          "internalType": "uint64",
          "name": "",
          "type": "uint64"
        }
      ],
      "name": "vestRewardPerTokenPaid",
      "outputs": [
        {
          "internalType": "uint256",
          "name": "",
          "type": "uint256"
        }
      ],
      "stateMutability": "view",
      "type": "function"
    },
    {
      "inputs": [
        {
          "internalType": "uint64",
          "name": "vestID",
          "type": "uint64"
        }
      ],
      "name": "withdraw",
      "outputs": [
        {
          "internalType": "uint256",
          "name": "withdrawnAmount",
          "type": "uint256"
        }
      ],
      "stateMutability": "nonpayable",
      "type": "function"
    }
  ],
  "transactionHash": "0xd888f9667b71c6be7ac222172ec39b12be86a9d488f2dd2f20479b1208bd8197",
  "args": [
    "0x7fFBE828B056E9f5Eb31496AB8B20F2609C5bc0E"
  ],
  "numDeployments": 2,
  "solcInputHash": "d1b6781393fb1998dafaded5d4c3d60a",
  "bytecode": "0x60a06040523480156200001157600080fd5b50604051620047673803806200476783398101604081905262000034916200004a565b60601b6001600160601b0319166080526200007a565b6000602082840312156200005c578081fd5b81516001600160a01b038116811462000073578182fd5b9392505050565b60805160601c6146c0620000a760003960008181610405015281816114bd0152611bf901526146c06000f3fe608060405234801561001057600080fd5b506004361061030c5760003560e01c806372d7abdc1161019d578063a832806b116100e9578063e30c3978116100a2578063e985e9c51161007c578063e985e9c514610836578063f122977714610849578063fc0c546a1461085c578063fc9b5c611461086f57600080fd5b8063e30c3978146107fc578063e4dc2aa41461080d578063e8a3d4851461082e57600080fd5b8063a832806b1461078a578063b66503cf1461079d578063b88d4fde146107b0578063c64e2540146107c3578063c87b56dd146107d6578063cc5129c2146107e957600080fd5b806385ce4e1611610156578063938e3d7b11610130578063938e3d7b1461073c57806395d89b411461074f5780639ce43f9014610757578063a22cb4651461077757600080fd5b806385ce4e16146107055780638da5cb5b14610718578063906571471461072957600080fd5b806372d7abdc14610636578063750f0acc1461065757806380e59f8d1461066a57806381529c861461067d578063818577211461069e57806382978e3e146106b157600080fd5b806323b872dd1161025c5780635d017b8e1161021557806366f64eec116101ef57806366f64eec146105975780636e24af111461059f5780636f5d25041461061057806370a082311461062357600080fd5b80635d017b8e1461055e5780636352211e14610571578063638634ee1461058457600080fd5b806323b872dd146104b3578063324d4255146104c657806342842e0e1461051d5780634b0f59da146105305780634e71e0c81461054357806355f804b31461054b57600080fd5b806309a31044116102c9578063162094c4116102a3578063162094c41461043a57806316ed85251461044d5780631be0528914610471578063221ca18c1461048557600080fd5b806309a31044146103b45780630ddb4d591461040057806313ba4b7f1461042757600080fd5b806301f2249b1461031157806301ffc9a71461032657806306fdde031461034e578063078dfbe714610363578063081812fc14610376578063095ea7b3146103a1575b600080fd5b61032461031f366004613d11565b610890565b005b61033961033436600461411d565b610965565b60405190151581526020015b60405180910390f35b6103566109b7565b6040516103459190614377565b610324610371366004613edd565b610a49565b610389610384366004614237565b610b58565b6040516001600160a01b039091168152602001610345565b6103246103af366004613fa6565b610be0565b6103e86103c2366004613fd1565b60cc6020908152600092835260408084209091529082529020546001600160401b031681565b6040516001600160401b039091168152602001610345565b6103897f000000000000000000000000000000000000000000000000000000000000000081565b61032461043536600461404e565b610cf1565b610324610448366004614267565b610d44565b61033961045b366004613d11565b6101046020526000908152604090205460ff1681565b610105546103e8906001600160401b031681565b6104a5610493366004613d11565b60fe6020526000908152604090205481565b604051908152602001610345565b6103246104c1366004613d65565b610de4565b6104d96104d4366004614237565b610e15565b604080516001600160a01b039790971687526001600160401b03958616602088015293909416928501929092526060840152608083015260a082015260c001610345565b61032461052b366004613d65565b610e75565b61032461053e366004613ffe565b610e90565b6103246113c2565b610324610559366004614171565b611480565b61038961056c366004613d11565b6114b6565b61038961057f366004614237565b6114f5565b6103e8610592366004613d11565b61156c565b60cb546104a5565b6105b26105ad3660046142b0565b6115ab565b6040805182516001600160a01b031681526020808401516001600160401b0390811691830191909152838301511691810191909152606080830151908201526080808301519082015260a0918201519181019190915260c001610345565b6104a561061e3660046142b0565b611647565b6104a5610631366004613d11565b611652565b6104a5610644366004613d11565b6101036020526000908152604090205481565b6104a56106653660046142b0565b6116d9565b610324610678366004613eb0565b6116e4565b6104a561068b3660046142b0565b6101006020526000908152604090205481565b6103e86106ac366004613e60565b61176f565b6106e56106bf366004613d11565b60fd602052600090815260409020546001600160401b0380821691600160401b90041682565b604080516001600160401b03938416815292909116602083015201610345565b610324610713366004613d11565b611bf4565b60c9546001600160a01b0316610389565b610324610737366004613f27565b611c3a565b61032461074a366004614171565b611d41565b610356611d77565b6104a5610765366004613d11565b60ff6020526000908152604090205481565b610324610785366004613eb0565b611d86565b60cd54610389906001600160a01b031681565b6103246107ab366004613fa6565b611e4b565b6103246107be366004613da5565b6121f0565b6103246107d13660046142cc565b612228565b6103566107e4366004614237565b61229b565b6103246107f73660046142b0565b612405565b60ca546001600160a01b0316610389565b6104a561081b366004613d11565b6101026020526000908152604090205481565b61035661247f565b610339610844366004613d2d565b61248e565b6104a5610857366004613d11565b6124bc565b60ce54610389906001600160a01b031681565b6104a561087d3660046142b0565b6101016020526000908152604090205481565b60c9546001600160a01b031633146108c35760405162461bcd60e51b81526004016108ba9061442a565b60405180910390fd5b6001600160a01b0381166109105760405162461bcd60e51b815260206004820152601460248201527356657374696e6730323a2030206164647265737360601b60448201526064016108ba565b60cd80546001600160a01b0319166001600160a01b0383169081179091556040519081527f41357c0f22ad78e2136e55921a8fa193f42b176952f98506b1798df4a28a787f906020015b60405180910390a150565b60006001600160e01b031982166380ac58cd60e01b148061099657506001600160e01b03198216635b5e139f60e01b145b806109b157506301ffc9a760e01b6001600160e01b03198316145b92915050565b6060606580546109c690614596565b80601f01602080910402602001604051908101604052809291908181526020018280546109f290614596565b8015610a3f5780601f10610a1457610100808354040283529160200191610a3f565b820191906000526020600020905b815481529060010190602001808311610a2257829003601f168201915b5050505050905090565b60c9546001600160a01b03163314610a735760405162461bcd60e51b81526004016108ba9061442a565b8115610b37576001600160a01b038316151580610a8d5750805b610ad15760405162461bcd60e51b81526020600482015260156024820152744f776e61626c653a207a65726f206164647265737360581b60448201526064016108ba565b60c9546040516001600160a01b038086169216907f8be0079c531659141344cd1fd0a4f28419497f9722a3daafe3b4186f6b6457e090600090a360c980546001600160a01b0385166001600160a01b03199182161790915560ca80549091169055505050565b60ca80546001600160a01b0319166001600160a01b0385161790555b505050565b6000610b6382612567565b610bc45760405162461bcd60e51b815260206004820152602c60248201527f4552433732313a20617070726f76656420717565727920666f72206e6f6e657860448201526b34b9ba32b73a103a37b5b2b760a11b60648201526084016108ba565b506000908152606960205260409020546001600160a01b031690565b6000610beb826114f5565b9050806001600160a01b0316836001600160a01b03161415610c595760405162461bcd60e51b815260206004820152602160248201527f4552433732313a20617070726f76616c20746f2063757272656e74206f776e656044820152603960f91b60648201526084016108ba565b336001600160a01b0382161480610c755750610c75813361248e565b610ce75760405162461bcd60e51b815260206004820152603860248201527f4552433732313a20617070726f76652063616c6c6572206973206e6f74206f7760448201527f6e6572206e6f7220617070726f76656420666f7220616c6c000000000000000060648201526084016108ba565b610b538383612584565b60005b8151811015610d4057610d2d828281518110610d2057634e487b7160e01b600052603260045260246000fd5b60200260200101516125f2565b5080610d38816145cb565b915050610cf4565b5050565b33610d4e846114f5565b6001600160a01b031614610da45760405162461bcd60e51b815260206004820152601a60248201527f56657374696e6730323a206e6f7420746f6b656e206f776e657200000000000060448201526064016108ba565b610b538383838080601f01602080910402602001604051908101604052809392919081815260200183838082843760009201919091525061296f92505050565b610dee33826129fa565b610e0a5760405162461bcd60e51b81526004016108ba9061445f565b610b53838383612abc565b60cb8181548110610e2557600080fd5b6000918252602090912060059091020180546001820154600283015460038401546004909401546001600160a01b0384169550600160a01b9093046001600160401b039081169492169290919086565b610b53838383604051806020016040528060008152506121f0565b60cd546001600160a01b03163314610ebb576040516305ceab7b60e41b815260040160405180910390fd5b6001600160a01b038516600090815260cc602090815260408083206001600160401b0380891685529252909120541680610ef557506113bb565b6000610f0082612c5c565b60018101549091506001600160401b0316611189576001600160a01b0387166000908152610102602052604081205490610f398961156c565b90506000610f778a84846001600160401b031660fe60008f6001600160a01b03166001600160a01b0316815260200190815260200160002054612ca7565b905060008a6001600160a01b031663f6153ccd6040518163ffffffff1660e01b815260040160206040518083038186803b158015610fb457600080fd5b505afa158015610fc8573d6000803e3d6000fd5b505050506040513d601f19601f82011682018060405250810190610fec919061424f565b6001600160a01b038c166000908152610103602090815260408083205460ff835281842087905560fd8352818420805467ffffffffffffffff19166001600160401b038a8116919091179091558b168452610101909252909120549192509061105a9088908c908690612d44565b6001600160401b0388166000908152610101602090815260408083209390935561010081528282208690556001600160a01b038f168252610103905220829055881561110a576110aa89866144e0565b6001600160a01b038d166000908152610102602090815260409182902092909255518a81526001600160401b038916917fb6bdffcefd6dcd1a9700a68a443ae4c494cdf3d6ecf0c448ac23d5fe352e3a1c910160405180910390a261117f565b6000611116838361452b565b9050611122818761452b565b6001600160a01b038e166000908152610102602090815260409182902092909255518281526001600160401b038a16917f155cdbc7a546fdf4ec862fe12afcee7d25312b73fd89521902fcbd8f15ffcd65910160405180910390a2505b50505050506113b8565b805460405163572cd35960e11b8152600160a01b9091046001600160401b0316600482015287906000906001600160a01b0383169063ae59a6b29060240160c06040518083038186803b1580156111df57600080fd5b505afa1580156111f3573d6000803e3d6000fd5b505050506040513d601f19601f8201168201806040525081019061121791906141b0565b9050600081608001516001600160401b031642106112425781608001516001600160401b0316611244565b425b60018501549091506001600160401b0316811115611312576004840154600185015461128e919061127e906001600160401b03168461452b565b611288908b61450c565b90612d9e565b8460020160008282546112a191906144e0565b90915550506001600160401b034211156112f35760405162461bcd60e51b815260206004820152601360248201527256657374696e6730323a204f564552464c4f5760681b60448201526064016108ba565b60018401805467ffffffffffffffff1916426001600160401b03161790555b61131c87896144e0565b611326888861450c565b898660040154611336919061450c565b61134091906144e0565b61134a91906144f8565b6004850155604080516001600160a01b038c1681526001600160401b038b811660208301529181018a90526060810189905260808101889052908616907f835b1e7911538b7d1d6d467ff84af9b699c7a9432ba848eae1e41d7fb551a1319060a00160405180910390a25050505b50505b5050505050565b60ca546001600160a01b031633811461141d5760405162461bcd60e51b815260206004820181905260248201527f4f776e61626c653a2063616c6c657220213d2070656e64696e67206f776e657260448201526064016108ba565b60c9546040516001600160a01b038084169216907f8be0079c531659141344cd1fd0a4f28419497f9722a3daafe3b4186f6b6457e090600090a360c980546001600160a01b039092166001600160a01b031992831617905560ca80549091169055565b60c9546001600160a01b031633146114aa5760405162461bcd60e51b81526004016108ba9061442a565b610b5360d08383613bbe565b60006109b17f0000000000000000000000000000000000000000000000000000000000000000606084901b6bffffffffffffffffffffffff1916612daa565b6000818152606760205260408120546001600160a01b0316806109b15760405162461bcd60e51b815260206004820152602960248201527f4552433732313a206f776e657220717565727920666f72206e6f6e657869737460448201526832b73a103a37b5b2b760b91b60648201526084016108ba565b6001600160a01b038116600090815260fd6020526040812054600160401b90046001600160401b03164281116115a257806115a4565b425b9392505050565b6040805160c081018252600080825260208201819052918101829052606081018290526080810182905260a08101919091526115e682612c5c565b6040805160c08101825282546001600160a01b03811682526001600160401b03600160a01b9091048116602083015260018401541691810191909152600282015460608201526003820154608082015260049091015460a082015292915050565b60006109b182612e10565b60006001600160a01b0382166116bd5760405162461bcd60e51b815260206004820152602a60248201527f4552433732313a2062616c616e636520717565727920666f7220746865207a65604482015269726f206164647265737360b01b60648201526084016108ba565b506001600160a01b031660009081526068602052604090205490565b60006109b1826125f2565b60c9546001600160a01b0316331461170e5760405162461bcd60e51b81526004016108ba9061442a565b6001600160a01b03821660008181526101046020908152604091829020805460ff191685151590811790915591519182527fcece3f472dcaa8402d4888d6cbea687da6695a6938e4063ddcf78bc8f137d65691015b60405180910390a25050565b60cd546000906001600160a01b0316331461179d576040516305ceab7b60e41b815260040160405180910390fd5b6001600160a01b03841660009081526101026020526040812054906117c18661156c565b905060006117ff8784846001600160401b031660fe60008c6001600160a01b03166001600160a01b0316815260200190815260200160002054612ca7565b60405163572cd35960e11b81526001600160401b03881660048201529091506000906001600160a01b0389169063ae59a6b29060240160c06040518083038186803b15801561184d57600080fd5b505afa158015611861573d6000803e3d6000fd5b505050506040513d601f19601f8201168201806040525081019061188591906141b0565b905060006118b78260000151670de0b6b3a76400008460200151670de0b6b3a76400006118b291906144e0565b612f91565b90506000896001600160a01b031663f6153ccd6040518163ffffffff1660e01b815260040160206040518083038186803b1580156118f457600080fd5b505afa158015611908573d6000803e3d6000fd5b505050506040513d601f19601f8201168201806040525081019061192c919061424f565b90506001600160401b0342111561195657604051633491cde360e01b815260040160405180910390fd5b6040805160c0810182526001600160a01b03808d1682526001600160401b03808d16602084019081526000948401858152606085018681526080860187815260a0870188815260cb805460018101825599819052975160059099027fa7ce836d032b2bf62b7e2097a8e0a6d8aeb35405ad15271e96d3b0188a1d06fb8101805496518816600160a01b026001600160e01b03199097169a909816999099179490941790955590517fa7ce836d032b2bf62b7e2097a8e0a6d8aeb35405ad15271e96d3b0188a1d06fc8701805491851667ffffffffffffffff19909216919091179055517fa7ce836d032b2bf62b7e2097a8e0a6d8aeb35405ad15271e96d3b0188a1d06fd86015591517fa7ce836d032b2bf62b7e2097a8e0a6d8aeb35405ad15271e96d3b0188a1d06fe85015590517fa7ce836d032b2bf62b7e2097a8e0a6d8aeb35405ad15271e96d3b0188a1d06ff909301929092555490811115611acf57604051633491cde360e01b815260040160405180910390fd5b6001600160a01b038b16600090815260cc602090815260408083206001600160401b038e811685529252909120805467ffffffffffffffff191691831691821790559097508790611b21908d9061303f565b6001600160a01b038b16600081815260ff6020908152604080832089905560fd8252808320805467ffffffffffffffff19166001600160401b038c8116919091179091558c1683526101008252808320899055928252610103905220829055611b8a83886144e0565b6001600160a01b038c166000908152610102602090815260409182902092909255518481526001600160401b038a16917fb6bdffcefd6dcd1a9700a68a443ae4c494cdf3d6ecf0c448ac23d5fe352e3a1c910160405180910390a250505050505050949350505050565b610d407f00000000000000000000000000000000000000000000000000000000000000006001600160a01b03166bffffffffffffffffffffffff19606084901b16613059565b600054610100900460ff1680611c53575060005460ff16155b611c6f5760405162461bcd60e51b81526004016108ba906143dc565b600054610100900460ff16158015611c91576000805461ffff19166101011790555b611c996130f9565b611d0c85858080601f01602080910402602001604051908101604052809392919081815260200183838082843760009201919091525050604080516020601f8901819004810282018101909252878152925087915086908190840183828082843760009201919091525061313b92505050565b60ce80546001600160a01b0319166001600160a01b0388161790558015611d39576000805461ff00191690555b505050505050565b60c9546001600160a01b03163314611d6b5760405162461bcd60e51b81526004016108ba9061442a565b610b5360cf8383613bbe565b6060606680546109c690614596565b6001600160a01b038216331415611ddf5760405162461bcd60e51b815260206004820152601960248201527f4552433732313a20617070726f766520746f2063616c6c65720000000000000060448201526064016108ba565b336000818152606a602090815260408083206001600160a01b03871680855290835292819020805460ff191686151590811790915590519081529192917f17307eab39ab6107e8899845ad3d59bd9653f200f220920489ca2b5937696c31910160405180910390a35050565b80611e54575050565b336000908152610104602052604090205460ff16611e855760405163e1baa14f60e01b815260040160405180910390fd5b6001600160a01b038216600090815260fe602090815260408083205460fd9092528220549091600160401b9091046001600160401b031690428211611eca5781611ecc565b425b610105546001600160a01b038716600090815261010260205260409020549192506001600160401b0390811691611f0891889190851687612ca7565b6001600160a01b038716600090815260ff60205260408120919091556001600160401b0384164210611f4e57611f476001600160401b038316876144f8565b9050611f96565b6000611f63426001600160401b03871661452b565b90506000611f71878361450c565b90506001600160401b038416611f87828a6144e0565b611f9191906144f8565b925050505b6001600160401b038216611fb4670de0b6b3a76400006000196144f8565b611fbe91906144f8565b8110611fdd576040516318370ce360e31b815260040160405180910390fd5b6001600160a01b038716600090815260fe602090815260409182902083905581518083019092526001600160401b0342818116845291830191612022918616906144e0565b6001600160401b039081169091526001600160a01b038916600090815260fd6020908152604082208451815495909201518416600160401b026fffffffffffffffffffffffffffffffff199095169190931617929092179055612084886114b6565b90506001600160a01b0381163b6120ae57604051632f7388c960e01b815260040160405180910390fd5b806001600160a01b031663eada79cc60cd60009054906101000a90046001600160a01b03166001600160a01b0316632304aa616040518163ffffffff1660e01b815260040160206040518083038186803b15801561210b57600080fd5b505afa15801561211f573d6000803e3d6000fd5b505050506040513d601f19601f820116820180604052508101906121439190614155565b6040516001600160e01b031960e084901b1681526001600160a01b039091166004820152602481018a9052604401600060405180830381600087803b15801561218b57600080fd5b505af115801561219f573d6000803e3d6000fd5b50505050876001600160a01b03167fac24935fd910bc682b5ccb1a07b718cadf8cf2f6d1404c4f3ddc3662dae40e29886040516121de91815260200190565b60405180910390a25050505050505050565b6121fa33836129fa565b6122165760405162461bcd60e51b81526004016108ba9061445f565b612222848484846131c2565b50505050565b60c9546001600160a01b031633146122525760405162461bcd60e51b81526004016108ba9061442a565b8061225c83612c5c565b600401556040518181526001600160401b038316907f560647f077942a4f7e7b08ed7311a936ac1fe3f815efb17339f17662127ded2390602001611763565b60606122a682612567565b61230c5760405162461bcd60e51b815260206004820152603160248201527f45524337323155524953746f726167653a2055524920717565727920666f72206044820152703737b732bc34b9ba32b73a103a37b5b2b760791b60648201526084016108ba565b6000828152609760205260408120805461232590614596565b80601f016020809104026020016040519081016040528092919081815260200182805461235190614596565b801561239e5780601f106123735761010080835404028352916020019161239e565b820191906000526020600020905b81548152906001019060200180831161238157829003601f168201915b5050505050905060006123af6131f5565b90508051600014156123c2575092915050565b8151156123f45780826040516020016123dc929190614315565b60405160208183030381529060405292505050919050565b6123fd84613204565b949350505050565b60c9546001600160a01b0316331461242f5760405162461bcd60e51b81526004016108ba9061442a565b610105805467ffffffffffffffff19166001600160401b0383169081179091556040519081527f5a3ae1cebe94b650b700a4a29c93bf77ad4642e8c5f09bd917faf1eb3bd97dbd9060200161095a565b606060cf80546109c690614596565b6001600160a01b039182166000908152606a6020908152604080832093909416825291909152205460ff1690565b60006109b182836001600160a01b031663f6153ccd6040518163ffffffff1660e01b815260040160206040518083038186803b1580156124fb57600080fd5b505afa15801561250f573d6000803e3d6000fd5b505050506040513d601f19601f82011682018060405250810190612533919061424f565b61253c8561156c565b6001600160a01b038616600090815260fe60205260409020546001600160401b039190911690612ca7565b6000908152606760205260409020546001600160a01b0316151590565b600081815260696020526040902080546001600160a01b0319166001600160a01b03841690811790915581906125b9826114f5565b6001600160a01b03167f8c5be1e5ebec7d5bd14f71427d1e84f3dd0314c0f7b2291e5b200ac8c7c3b92560405160405180910390a45050565b6000806125fe83612c5c565b60018101549091506001600160401b031661296057336126266001600160401b0385166114f5565b6001600160a01b03161461264d57604051630a73097d60e41b815260040160405180910390fd5b80546001600160a01b03811690600160a01b90046001600160401b031660006126758361156c565b6001600160a01b0384166000908152610102602090815260408083205460fe90925282205492935090916126b59186916001600160401b03861690612ca7565b60405163572cd35960e11b81526001600160401b03851660048201529091506000906001600160a01b0386169063ae59a6b29060240160c06040518083038186803b15801561270357600080fd5b505afa158015612717573d6000803e3d6000fd5b505050506040513d601f19601f8201168201806040525081019061273b91906141b0565b905060006127688260000151670de0b6b3a76400008460200151670de0b6b3a76400006118b291906144e0565b905061279c89828561010160008e6001600160401b03166001600160401b0316815260200190815260200160002054612d44565b6001600160a01b038716600090815260ff6020908152604080832087905560fd8252808320805467ffffffffffffffff19166001600160401b038a8116919091179091558d168352610100909152902084905597508715612955576001600160401b0389166000908152610101602090815260408083209290925560cd548251632304aa6160e01b815292516001600160a01b0390911692632304aa61926004808301939192829003018186803b15801561285657600080fd5b505afa15801561286a573d6000803e3d6000fd5b505050506040513d601f19601f8201168201806040525081019061288e9190614155565b60405163a9059cbb60e01b8152336004820152602481018a90526001600160a01b03919091169063a9059cbb90604401602060405180830381600087803b1580156128d857600080fd5b505af11580156128ec573d6000803e3d6000fd5b505050506040513d601f19601f820116820180604052508101906129109190614101565b50886001600160401b03167fa6c775e38b61cb5d18f1184b6c65b38f49cc92a5aa3b30c139e0d39be98f77638960405161294c91815260200190565b60405180910390a25b505050505050612969565b6115a4836132ce565b50919050565b61297882612567565b6129db5760405162461bcd60e51b815260206004820152602e60248201527f45524337323155524953746f726167653a2055524920736574206f66206e6f6e60448201526d32bc34b9ba32b73a103a37b5b2b760911b60648201526084016108ba565b60008281526097602090815260409091208251610b5392840190613c42565b6000612a0582612567565b612a665760405162461bcd60e51b815260206004820152602c60248201527f4552433732313a206f70657261746f7220717565727920666f72206e6f6e657860448201526b34b9ba32b73a103a37b5b2b760a11b60648201526084016108ba565b6000612a71836114f5565b9050806001600160a01b0316846001600160a01b03161480612aac5750836001600160a01b0316612aa184610b58565b6001600160a01b0316145b806123fd57506123fd818561248e565b826001600160a01b0316612acf826114f5565b6001600160a01b031614612b375760405162461bcd60e51b815260206004820152602960248201527f4552433732313a207472616e73666572206f6620746f6b656e2074686174206960448201526839903737ba1037bbb760b91b60648201526084016108ba565b6001600160a01b038216612b995760405162461bcd60e51b8152602060048201526024808201527f4552433732313a207472616e7366657220746f20746865207a65726f206164646044820152637265737360e01b60648201526084016108ba565b612ba4600082612584565b6001600160a01b0383166000908152606860205260408120805460019290612bcd90849061452b565b90915550506001600160a01b0382166000908152606860205260408120805460019290612bfb9084906144e0565b909155505060008181526067602052604080822080546001600160a01b0319166001600160a01b0386811691821790925591518493918716917fddf252ad1be2c89b69c2b068fc378daa952ba7f163c4a11628f55a4df523b3ef91a4505050565b600060cb612c6b600184614542565b6001600160401b031681548110612c9257634e487b7160e01b600052603260045260246000fd5b90600052602060002090600502019050919050565b600083612ccd57506001600160a01b038416600090815260ff60205260409020546123fd565b6001600160a01b038516600090815260fd6020526040902054612d1890670de0b6b3a764000090612d07906001600160401b03168661452b565b612d11919061450c565b8386612f91565b6001600160a01b038616600090815260ff6020526040902054612d3b91906144e0565b95945050505050565b6001600160401b0384166000908152610100602052604081205480612d6d5760009150506123fd565b82612d8a86612d7c848861452b565b670de0b6b3a7640000612f91565b612d9491906144e0565b9695505050505050565b60006115a48383613439565b60006115a4838330604051733d602d80600a3d3981f3363d3d373d3d3d363d7360601b8152606093841b60148201526f5af43d82803e903d91602b57fd5bf3ff60801b6028820152921b6038830152604c8201526037808220606c830152605591012090565b600080612e1c83612c5c565b805460018201549192506001600160a01b038116916001600160401b03600160a01b90920482169116612f88576000612e548361156c565b6001600160a01b0384166000908152610102602090815260408083205460fe9092528220549293509091612e949186916001600160401b03861690612ca7565b60405163572cd35960e11b81526001600160401b03851660048201529091506000906001600160a01b0386169063ae59a6b29060240160c06040518083038186803b158015612ee257600080fd5b505afa158015612ef6573d6000803e3d6000fd5b505050506040513d601f19601f82011682018060405250810190612f1a91906141b0565b90506000612f478260000151670de0b6b3a76400008460200151670de0b6b3a76400006118b291906144e0565b9050612f7b89828561010160008e6001600160401b03166001600160401b0316815260200190815260200160002054612d44565b9998505050505050505050565b612d3b856134fb565b600080806000198587098587029250828110838203039150508060001415612fcb5760008411612fc057600080fd5b5082900490506115a4565b808411612fd757600080fd5b600084868809600260036001881981018916988990049182028318808302840302808302840302808302840302808302840302808302840302918202909203026000889003889004909101858311909403939093029303949094049190911702949350505050565b610d40828260405180602001604052806000815250613696565b6000604051733d602d80600a3d3981f3363d3d373d3d3d363d7360601b81528360601b60148201526e5af43d82803e903d91602b57fd5bf360881b6028820152826037826000f59150506001600160a01b0381166109b15760405162461bcd60e51b815260206004820152601760248201527f455243313136373a2063726561746532206661696c656400000000000000000060448201526064016108ba565b60c980546001600160a01b031916339081179091556040516000907f8be0079c531659141344cd1fd0a4f28419497f9722a3daafe3b4186f6b6457e0908290a3565b600054610100900460ff1680613154575060005460ff16155b6131705760405162461bcd60e51b81526004016108ba906143dc565b600054610100900460ff16158015613192576000805461ffff19166101011790555b61319a6136c9565b6131a26136c9565b6131ac8383613735565b8015610b53576000805461ff0019169055505050565b6131cd848484612abc565b6131d9848484846137ca565b6122225760405162461bcd60e51b81526004016108ba9061438a565b606060d080546109c690614596565b606061320f82612567565b6132735760405162461bcd60e51b815260206004820152602f60248201527f4552433732314d657461646174613a2055524920717565727920666f72206e6f60448201526e3732bc34b9ba32b73a103a37b5b2b760891b60648201526084016108ba565b600061327d6131f5565b9050600081511161329d57604051806020016040528060008152506115a4565b806132a7846138d4565b6040516020016132b8929190614315565b6040516020818303038152906040529392505050565b6000336132e36001600160401b0384166114f5565b6001600160a01b0316146133305760405162461bcd60e51b81526020600482015260146024820152732b32b9ba34b73398191d103737ba1037bbb732b960611b60448201526064016108ba565b61333982612e10565b90508061334857506000919050565b600061335383612c5c565b90508181600301600082825461336991906144e0565b909155505060cd54604051631d1e508560e21b8152336004820152602481018490526001600160a01b0390911690637479421490604401602060405180830381600087803b1580156133ba57600080fd5b505af11580156133ce573d6000803e3d6000fd5b505050506040513d601f19601f820116820180604052508101906133f2919061424f565b506040518281526001600160401b0384169033907f4a75429c7f26c0ae1bb7fc13f974e6c991033159dd1c5b1589711146e4b4d6a59060200160405180910390a350919050565b60008080600019848609848602925082811083820303915050670de0b6b3a7640000811061347d5760405163698d9a0160e11b8152600481018290526024016108ba565b600080670de0b6b3a76400008688099150506706f05b59d3b1ffff8111826134b75780670de0b6b3a76400008504019450505050506109b1565b620400008285030493909111909103600160ee1b02919091177faccb18165bd6fe31ae1cf318dc5b51eee0e1ba569b88cd74c1773b91fac106690201905092915050565b60008061350783612c5c565b6040805160c08101825282546001600160a01b0381168083526001600160401b03600160a01b909204821660208401819052600186015490921683850152600285015460608401526003850154608084015260049485015460a0840152925163572cd35960e11b815293840152925090600090829063ae59a6b29060240160c06040518083038186803b15801561359d57600080fd5b505afa1580156135b1573d6000803e3d6000fd5b505050506040513d601f19601f820116820180604052508101906135d591906141b0565b905060006135f04283608001516001600160401b03166139ed565b905083604001516001600160401b031681101561361b5783608001518460600151612d94919061452b565b60006136408360200151670de0b6b3a764000061363891906144e0565b845190613a03565b905084608001516136728660a0015187604001516001600160401b031685613668919061452b565b611288908561450c565b866060015161368191906144e0565b61368b919061452b565b979650505050505050565b6136a08383613a18565b6136ad60008484846137ca565b610b535760405162461bcd60e51b81526004016108ba9061438a565b600054610100900460ff16806136e2575060005460ff16155b6136fe5760405162461bcd60e51b81526004016108ba906143dc565b600054610100900460ff16158015613720576000805461ffff19166101011790555b8015613732576000805461ff00191690555b50565b600054610100900460ff168061374e575060005460ff16155b61376a5760405162461bcd60e51b81526004016108ba906143dc565b600054610100900460ff1615801561378c576000805461ffff19166101011790555b825161379f906065906020860190613c42565b5081516137b3906066906020850190613c42565b508015610b53576000805461ff0019169055505050565b60006001600160a01b0384163b156138cc57604051630a85bd0160e11b81526001600160a01b0385169063150b7a029061380e903390899088908890600401614344565b602060405180830381600087803b15801561382857600080fd5b505af1925050508015613858575060408051601f3d908101601f1916820190925261385591810190614139565b60015b6138b2573d808015613886576040519150601f19603f3d011682016040523d82523d6000602084013e61388b565b606091505b5080516138aa5760405162461bcd60e51b81526004016108ba9061438a565b805181602001fd5b6001600160e01b031916630a85bd0160e11b1490506123fd565b5060016123fd565b6060816138f85750506040805180820190915260018152600360fc1b602082015290565b8160005b8115613922578061390c816145cb565b915061391b9050600a836144f8565b91506138fc565b6000816001600160401b0381111561394a57634e487b7160e01b600052604160045260246000fd5b6040519080825280601f01601f191660200182016040528015613974576020820181803683370190505b5090505b84156123fd5761398960018361452b565b9150613996600a866145e6565b6139a19060306144e0565b60f81b8183815181106139c457634e487b7160e01b600052603260045260246000fd5b60200101906001600160f81b031916908160001a9053506139e6600a866144f8565b9450613978565b60008183106139fc57816115a4565b5090919050565b60006115a483670de0b6b3a764000084613b4b565b6001600160a01b038216613a6e5760405162461bcd60e51b815260206004820181905260248201527f4552433732313a206d696e7420746f20746865207a65726f206164647265737360448201526064016108ba565b613a7781612567565b15613ac45760405162461bcd60e51b815260206004820152601c60248201527f4552433732313a20746f6b656e20616c7265616479206d696e7465640000000060448201526064016108ba565b6001600160a01b0382166000908152606860205260408120805460019290613aed9084906144e0565b909155505060008181526067602052604080822080546001600160a01b0319166001600160a01b03861690811790915590518392907fddf252ad1be2c89b69c2b068fc378daa952ba7f163c4a11628f55a4df523b3ef908290a45050565b600080806000198587098587029250828110838203039150508060001415613b9457838281613b8a57634e487b7160e01b600052601260045260246000fd5b04925050506115a4565b838110612fd757604051631dcf306360e21b815260048101829052602481018590526044016108ba565b828054613bca90614596565b90600052602060002090601f016020900481019282613bec5760008555613c32565b82601f10613c055782800160ff19823516178555613c32565b82800160010185558215613c32579182015b82811115613c32578235825591602001919060010190613c17565b50613c3e929150613cb6565b5090565b828054613c4e90614596565b90600052602060002090601f016020900481019282613c705760008555613c32565b82601f10613c8957805160ff1916838001178555613c32565b82800160010185558215613c32579182015b82811115613c32578251825591602001919060010190613c9b565b5b80821115613c3e5760008155600101613cb7565b60008083601f840112613cdc578182fd5b5081356001600160401b03811115613cf2578182fd5b602083019150836020828501011115613d0a57600080fd5b9250929050565b600060208284031215613d22578081fd5b81356115a48161463c565b60008060408385031215613d3f578081fd5b8235613d4a8161463c565b91506020830135613d5a8161463c565b809150509250929050565b600080600060608486031215613d79578081fd5b8335613d848161463c565b92506020840135613d948161463c565b929592945050506040919091013590565b60008060008060808587031215613dba578081fd5b8435613dc58161463c565b9350602085810135613dd68161463c565b93506040860135925060608601356001600160401b0380821115613df8578384fd5b818801915088601f830112613e0b578384fd5b813581811115613e1d57613e1d614626565b613e2f601f8201601f191685016144b0565b91508082528984828501011115613e44578485fd5b8084840185840137810190920192909252939692955090935050565b60008060008060808587031215613e75578384fd5b8435613e808161463c565b93506020850135613e908161463c565b92506040850135613ea081614675565b9396929550929360600135925050565b60008060408385031215613ec2578182fd5b8235613ecd8161463c565b91506020830135613d5a81614651565b600080600060608486031215613ef1578283fd5b8335613efc8161463c565b92506020840135613f0c81614651565b91506040840135613f1c81614651565b809150509250925092565b600080600080600060608688031215613f3e578283fd5b8535613f498161463c565b945060208601356001600160401b0380821115613f64578485fd5b613f7089838a01613ccb565b90965094506040880135915080821115613f88578283fd5b50613f9588828901613ccb565b969995985093965092949392505050565b60008060408385031215613fb8578182fd5b8235613fc38161463c565b946020939093013593505050565b60008060408385031215613fe3578182fd5b8235613fee8161463c565b91506020830135613d5a81614675565b600080600080600060a08688031215614015578283fd5b85356140208161463c565b9450602086013561403081614675565b94979496505050506040830135926060810135926080909101359150565b60006020808385031215614060578182fd5b82356001600160401b0380821115614076578384fd5b818501915085601f830112614089578384fd5b81358181111561409b5761409b614626565b8060051b91506140ac8483016144b0565b8181528481019084860184860187018a10156140c6578788fd5b8795505b838610156140f457803594506140df85614675565b848352600195909501949186019186016140ca565b5098975050505050505050565b600060208284031215614112578081fd5b81516115a481614651565b60006020828403121561412e578081fd5b81356115a48161465f565b60006020828403121561414a578081fd5b81516115a48161465f565b600060208284031215614166578081fd5b81516115a48161463c565b60008060208385031215614183578182fd5b82356001600160401b03811115614198578283fd5b6141a485828601613ccb565b90969095509350505050565b600060c082840312156141c1578081fd5b60405160c081018181106001600160401b03821117156141e3576141e3614626565b806040525082518152602083015160208201526040830151604082015260608301516060820152608083015161421881614675565b608082015260a083015161422b81614675565b60a08201529392505050565b600060208284031215614248578081fd5b5035919050565b600060208284031215614260578081fd5b5051919050565b60008060006040848603121561427b578081fd5b8335925060208401356001600160401b03811115614297578182fd5b6142a386828701613ccb565b9497909650939450505050565b6000602082840312156142c1578081fd5b81356115a481614675565b600080604083850312156142de578182fd5b8235613fc381614675565b6000815180845261430181602086016020860161456a565b601f01601f19169290920160200192915050565b6000835161432781846020880161456a565b83519083019061433b81836020880161456a565b01949350505050565b6001600160a01b0385811682528416602082015260408101839052608060608201819052600090612d94908301846142e9565b6020815260006115a460208301846142e9565b60208082526032908201527f4552433732313a207472616e7366657220746f206e6f6e20455243373231526560408201527131b2b4bb32b91034b6b83632b6b2b73a32b960711b606082015260800190565b6020808252602e908201527f496e697469616c697a61626c653a20636f6e747261637420697320616c72656160408201526d191e481a5b9a5d1a585b1a5e995960921b606082015260800190565b6020808252818101527f4f776e61626c653a2063616c6c6572206973206e6f7420746865206f776e6572604082015260600190565b60208082526031908201527f4552433732313a207472616e736665722063616c6c6572206973206e6f74206f6040820152701ddb995c881b9bdc88185c1c1c9bdd9959607a1b606082015260800190565b604051601f8201601f191681016001600160401b03811182821017156144d8576144d8614626565b604052919050565b600082198211156144f3576144f36145fa565b500190565b60008261450757614507614610565b500490565b6000816000190483118215151615614526576145266145fa565b500290565b60008282101561453d5761453d6145fa565b500390565b60006001600160401b0383811690831681811015614562576145626145fa565b039392505050565b60005b8381101561458557818101518382015260200161456d565b838111156122225750506000910152565b600181811c908216806145aa57607f821691505b6020821081141561296957634e487b7160e01b600052602260045260246000fd5b60006000198214156145df576145df6145fa565b5060010190565b6000826145f5576145f5614610565b500690565b634e487b7160e01b600052601160045260246000fd5b634e487b7160e01b600052601260045260246000fd5b634e487b7160e01b600052604160045260246000fd5b6001600160a01b038116811461373257600080fd5b801515811461373257600080fd5b6001600160e01b03198116811461373257600080fd5b6001600160401b038116811461373257600080fdfea264697066735822122092bf64de3a3df5cad3e1f1bd6620da47bfa1e5a664ba08ee67f731cf65dd3aab64736f6c63430008040033",
  "devdoc": {
    "author": "zefram.eth",
    "kind": "dev",
    "methods": {
      "approve(address,uint256)": {
        "details": "See {IERC721-approve}."
      },
      "balanceOf(address)": {
        "details": "See {IERC721-balanceOf}."
      },
      "getApproved(uint256)": {
        "details": "See {IERC721-getApproved}."
      },
      "isApprovedForAll(address,address)": {
        "details": "See {IERC721-isApprovedForAll}."
      },
      "name()": {
        "details": "See {IERC721Metadata-name}."
      },
      "notifyRewardAmount(address,uint256)": {
        "details": "If the reward amount will cause an overflow when computing rewardPerToken, then this function will revert.",
        "params": {
          "pool": "The pool to distribute reward tokens to",
          "reward": "The amount of reward tokens to use in the new reward period."
        }
      },
      "ownerOf(uint256)": {
        "details": "See {IERC721-ownerOf}."
      },
      "safeTransferFrom(address,address,uint256)": {
        "details": "See {IERC721-safeTransferFrom}."
      },
      "safeTransferFrom(address,address,uint256,bytes)": {
        "details": "See {IERC721-safeTransferFrom}."
      },
      "setApprovalForAll(address,bool)": {
        "details": "See {IERC721-setApprovalForAll}."
      },
      "setRewardDistributor(address,bool)": {
        "params": {
          "isRewardDistributor_": "True to add the account, false to remove the account",
          "rewardDistributor": "The account to add/remove"
        }
      },
      "supportsInterface(bytes4)": {
        "details": "See {IERC165-supportsInterface}."
      },
      "symbol()": {
        "details": "See {IERC721Metadata-symbol}."
      },
      "tokenURI(uint256)": {
        "details": "See {IERC721Metadata-tokenURI}."
      },
      "transferFrom(address,address,uint256)": {
        "details": "See {IERC721-transferFrom}."
      },
      "transferOwnership(address,bool,bool)": {
        "params": {
          "direct": "True if `newOwner` should be set immediately. False if `newOwner` needs to use `claimOwnership`.",
          "newOwner": "Address of the new owner.",
          "renounce": "Allows the `newOwner` to be `address(0)` if `direct` and `renounce` is True. Has no effect otherwise."
        }
      }
    },
    "stateVariables": {
      "isRewardDistributor": {
        "details": "account => value"
      },
      "periodInfo": {
        "details": "pool => value"
      },
      "rewardPerTokenStored": {
        "details": "pool => value"
      },
      "rewardRate": {
        "details": "pool => value"
      },
      "rewards": {
        "details": "vestId => value"
      },
      "totalDepositStored": {
        "details": "pool => value"
      },
      "totalSupply": {
        "details": "pool => value"
      },
      "vestRewardPerTokenPaid": {
        "details": "vestId => value"
      }
    },
    "title": "Vesting03",
    "version": 1
  },
  "userdoc": {
    "errors": {
      "PRBMath__MulDivFixedPointOverflow(uint256)": [
        {
          "notice": "Emitted when the result overflows uint256."
        }
      ],
      "PRBMath__MulDivOverflow(uint256,uint256)": [
        {
          "notice": "Emitted when the result overflows uint256."
        }
      ],
      "Vesting03__Overflow()": [
        {
          "notice": "----------------------------------------------------------------------- Errors -----------------------------------------------------------------------"
        }
      ]
    },
    "events": {
      "RewardAdded(address,uint256)": {
        "notice": "----------------------------------------------------------------------- Events -----------------------------------------------------------------------"
      }
    },
    "kind": "user",
    "methods": {
      "DURATION()": {
        "notice": "The duration of each reward period, in seconds"
      },
      "claimOwnership()": {
        "notice": "Needs to be called by `pendingOwner` to claim ownership."
      },
      "constructor": {
        "notice": "----------------------------------------------------------------------- Constructor -----------------------------------------------------------------------"
      },
      "contractURI()": {
        "notice": "NFT metadata"
      },
      "createVestForDeposit(address,address,uint64,uint256)": {
        "notice": "----------------------------------------------------------------------- Vesting02 compatibility -----------------------------------------------------------------------"
      },
      "forwarderOfPool(address)": {
        "notice": "----------------------------------------------------------------------- Forwarder -----------------------------------------------------------------------"
      },
      "forwarderTemplate()": {
        "notice": "The Forwarder template for cloning Forwarders"
      },
      "getVestWithdrawableAmount(uint64)": {
        "notice": "Public getter functions"
      },
      "isRewardDistributor(address)": {
        "notice": "Tracks if an address can call notifyReward()"
      },
      "lastTimeRewardApplicable(address)": {
        "notice": "The latest time at which stakers are earning rewards."
      },
      "notifyRewardAmount(address,uint256)": {
        "notice": "Lets a reward distributor start a new reward period. The reward tokens must have already been transferred to this contract before calling this function. If it is called when a reward period is still active, a new reward period will begin from the time of calling this function, using the leftover rewards from the old reward period plus the newly sent rewards as the reward."
      },
      "periodInfo(address)": {
        "notice": "Info about the reward period of each pool"
      },
      "rewardPerToken(address)": {
        "notice": "The amount of reward tokens each staked token has earned so far"
      },
      "rewardPerTokenStored(address)": {
        "notice": "The last stored rewardPerToken value"
      },
      "rewardRate(address)": {
        "notice": "The per-second rate at which rewardPerToken increases"
      },
      "rewards(uint64)": {
        "notice": "The earned() value when a vest last staked/withdrew/withdrew rewards"
      },
      "setBaseURI(string)": {
        "notice": "Owner functions"
      },
      "setRewardDistributor(address,bool)": {
        "notice": "Lets the owner add/remove accounts from the list of reward distributors. Reward distributors can call notifyRewardAmount()"
      },
      "totalDepositStored(address)": {
        "notice": "The total deposit of each pool when a vest related to the pool was last updated"
      },
      "totalSupply(address)": {
        "notice": "The total virtual tokens staked in each pool"
      },
      "transferOwnership(address,bool,bool)": {
        "notice": "Transfers ownership to `newOwner`. Either directly or claimable by the new pending owner. Can only be invoked by the current `owner`."
      },
      "updateDuration(uint64)": {
        "notice": "----------------------------------------------------------------------- Owner functions -----------------------------------------------------------------------"
      },
      "vestRewardPerTokenPaid(uint64)": {
        "notice": "The rewardPerToken value when a vest last staked/withdrew/withdrew rewards"
      },
      "withdraw(uint64)": {
        "notice": "Public action functions"
      }
    },
    "notice": "Distributes MPH rewards to depositors over time based on a staking-pool like logic",
    "version": 1
  },
  "storageLayout": {
    "storage": [
      {
        "astId": 618,
        "contract": "contracts/rewards/Vesting03.sol:Vesting03",
        "label": "_initialized",
        "offset": 0,
        "slot": "0",
        "type": "t_bool"
      },
      {
        "astId": 621,
        "contract": "contracts/rewards/Vesting03.sol:Vesting03",
        "label": "_initializing",
        "offset": 1,
        "slot": "0",
        "type": "t_bool"
      },
      {
        "astId": 3221,
        "contract": "contracts/rewards/Vesting03.sol:Vesting03",
        "label": "__gap",
        "offset": 0,
        "slot": "1",
        "type": "t_array(t_uint256)50_storage"
      },
      {
        "astId": 3581,
        "contract": "contracts/rewards/Vesting03.sol:Vesting03",
        "label": "__gap",
        "offset": 0,
        "slot": "51",
        "type": "t_array(t_uint256)50_storage"
      },
      {
        "astId": 1799,
        "contract": "contracts/rewards/Vesting03.sol:Vesting03",
        "label": "_name",
        "offset": 0,
        "slot": "101",
        "type": "t_string_storage"
      },
      {
        "astId": 1801,
        "contract": "contracts/rewards/Vesting03.sol:Vesting03",
        "label": "_symbol",
        "offset": 0,
        "slot": "102",
        "type": "t_string_storage"
      },
      {
        "astId": 1805,
        "contract": "contracts/rewards/Vesting03.sol:Vesting03",
        "label": "_owners",
        "offset": 0,
        "slot": "103",
        "type": "t_mapping(t_uint256,t_address)"
      },
      {
        "astId": 1809,
        "contract": "contracts/rewards/Vesting03.sol:Vesting03",
        "label": "_balances",
        "offset": 0,
        "slot": "104",
        "type": "t_mapping(t_address,t_uint256)"
      },
      {
        "astId": 1813,
        "contract": "contracts/rewards/Vesting03.sol:Vesting03",
        "label": "_tokenApprovals",
        "offset": 0,
        "slot": "105",
        "type": "t_mapping(t_uint256,t_address)"
      },
      {
        "astId": 1819,
        "contract": "contracts/rewards/Vesting03.sol:Vesting03",
        "label": "_operatorApprovals",
        "offset": 0,
        "slot": "106",
        "type": "t_mapping(t_address,t_mapping(t_address,t_bool))"
      },
      {
        "astId": 2615,
        "contract": "contracts/rewards/Vesting03.sol:Vesting03",
        "label": "__gap",
        "offset": 0,
        "slot": "107",
        "type": "t_array(t_uint256)44_storage"
      },
      {
        "astId": 2787,
        "contract": "contracts/rewards/Vesting03.sol:Vesting03",
        "label": "_tokenURIs",
        "offset": 0,
        "slot": "151",
        "type": "t_mapping(t_uint256,t_string_storage)"
      },
      {
        "astId": 2905,
        "contract": "contracts/rewards/Vesting03.sol:Vesting03",
        "label": "__gap",
        "offset": 0,
        "slot": "152",
        "type": "t_array(t_uint256)49_storage"
      },
      {
        "astId": 13401,
        "contract": "contracts/rewards/Vesting03.sol:Vesting03",
        "label": "_owner",
        "offset": 0,
        "slot": "201",
        "type": "t_address"
      },
      {
        "astId": 13403,
        "contract": "contracts/rewards/Vesting03.sol:Vesting03",
        "label": "_pendingOwner",
        "offset": 0,
        "slot": "202",
        "type": "t_address"
      },
      {
        "astId": 27310,
        "contract": "contracts/rewards/Vesting03.sol:Vesting03",
        "label": "vestList",
        "offset": 0,
        "slot": "203",
        "type": "t_array(t_struct(Vest)27306_storage)dyn_storage"
      },
      {
        "astId": 27316,
        "contract": "contracts/rewards/Vesting03.sol:Vesting03",
        "label": "depositIDToVestID",
        "offset": 0,
        "slot": "204",
        "type": "t_mapping(t_address,t_mapping(t_uint64,t_uint64))"
      },
      {
        "astId": 27319,
        "contract": "contracts/rewards/Vesting03.sol:Vesting03",
        "label": "mphMinter",
        "offset": 0,
        "slot": "205",
        "type": "t_contract(MPHMinter)25249"
      },
      {
        "astId": 27322,
        "contract": "contracts/rewards/Vesting03.sol:Vesting03",
        "label": "token",
        "offset": 0,
        "slot": "206",
        "type": "t_contract(IERC20)5586"
      },
      {
        "astId": 27324,
        "contract": "contracts/rewards/Vesting03.sol:Vesting03",
        "label": "_contractURI",
        "offset": 0,
        "slot": "207",
        "type": "t_string_storage"
      },
      {
        "astId": 27326,
        "contract": "contracts/rewards/Vesting03.sol:Vesting03",
        "label": "__baseURI",
        "offset": 0,
        "slot": "208",
        "type": "t_string_storage"
      },
      {
        "astId": 27993,
        "contract": "contracts/rewards/Vesting03.sol:Vesting03",
        "label": "__gap",
        "offset": 0,
        "slot": "209",
        "type": "t_array(t_uint256)44_storage"
      },
      {
        "astId": 28831,
        "contract": "contracts/rewards/Vesting03.sol:Vesting03",
        "label": "periodInfo",
        "offset": 0,
        "slot": "253",
        "type": "t_mapping(t_address,t_struct(PeriodInfo)28825_storage)"
      },
      {
        "astId": 28836,
        "contract": "contracts/rewards/Vesting03.sol:Vesting03",
        "label": "rewardRate",
        "offset": 0,
        "slot": "254",
        "type": "t_mapping(t_address,t_uint256)"
      },
      {
        "astId": 28841,
        "contract": "contracts/rewards/Vesting03.sol:Vesting03",
        "label": "rewardPerTokenStored",
        "offset": 0,
        "slot": "255",
        "type": "t_mapping(t_address,t_uint256)"
      },
      {
        "astId": 28846,
        "contract": "contracts/rewards/Vesting03.sol:Vesting03",
        "label": "vestRewardPerTokenPaid",
        "offset": 0,
        "slot": "256",
        "type": "t_mapping(t_uint64,t_uint256)"
      },
      {
        "astId": 28851,
        "contract": "contracts/rewards/Vesting03.sol:Vesting03",
        "label": "rewards",
        "offset": 0,
        "slot": "257",
        "type": "t_mapping(t_uint64,t_uint256)"
      },
      {
        "astId": 28856,
        "contract": "contracts/rewards/Vesting03.sol:Vesting03",
        "label": "totalSupply",
        "offset": 0,
        "slot": "258",
        "type": "t_mapping(t_address,t_uint256)"
      },
      {
        "astId": 28861,
        "contract": "contracts/rewards/Vesting03.sol:Vesting03",
        "label": "totalDepositStored",
        "offset": 0,
        "slot": "259",
        "type": "t_mapping(t_address,t_uint256)"
      },
      {
        "astId": 28866,
        "contract": "contracts/rewards/Vesting03.sol:Vesting03",
        "label": "isRewardDistributor",
        "offset": 0,
        "slot": "260",
        "type": "t_mapping(t_address,t_bool)"
      },
      {
        "astId": 28869,
        "contract": "contracts/rewards/Vesting03.sol:Vesting03",
        "label": "DURATION",
        "offset": 0,
        "slot": "261",
        "type": "t_uint64"
      }
    ],
    "types": {
      "t_address": {
        "encoding": "inplace",
        "label": "address",
        "numberOfBytes": "20"
      },
      "t_array(t_struct(Vest)27306_storage)dyn_storage": {
        "base": "t_struct(Vest)27306_storage",
        "encoding": "dynamic_array",
        "label": "struct Vesting02.Vest[]",
        "numberOfBytes": "32"
      },
      "t_array(t_uint256)44_storage": {
        "base": "t_uint256",
        "encoding": "inplace",
        "label": "uint256[44]",
        "numberOfBytes": "1408"
      },
      "t_array(t_uint256)49_storage": {
        "base": "t_uint256",
        "encoding": "inplace",
        "label": "uint256[49]",
        "numberOfBytes": "1568"
      },
      "t_array(t_uint256)50_storage": {
        "base": "t_uint256",
        "encoding": "inplace",
        "label": "uint256[50]",
        "numberOfBytes": "1600"
      },
      "t_bool": {
        "encoding": "inplace",
        "label": "bool",
        "numberOfBytes": "1"
      },
      "t_contract(IERC20)5586": {
        "encoding": "inplace",
        "label": "contract IERC20",
        "numberOfBytes": "20"
      },
      "t_contract(MPHMinter)25249": {
        "encoding": "inplace",
        "label": "contract MPHMinter",
        "numberOfBytes": "20"
      },
      "t_mapping(t_address,t_bool)": {
        "encoding": "mapping",
        "key": "t_address",
        "label": "mapping(address => bool)",
        "numberOfBytes": "32",
        "value": "t_bool"
      },
      "t_mapping(t_address,t_mapping(t_address,t_bool))": {
        "encoding": "mapping",
        "key": "t_address",
        "label": "mapping(address => mapping(address => bool))",
        "numberOfBytes": "32",
        "value": "t_mapping(t_address,t_bool)"
      },
      "t_mapping(t_address,t_mapping(t_uint64,t_uint64))": {
        "encoding": "mapping",
        "key": "t_address",
        "label": "mapping(address => mapping(uint64 => uint64))",
        "numberOfBytes": "32",
        "value": "t_mapping(t_uint64,t_uint64)"
      },
      "t_mapping(t_address,t_struct(PeriodInfo)28825_storage)": {
        "encoding": "mapping",
        "key": "t_address",
        "label": "mapping(address => struct Vesting03.PeriodInfo)",
        "numberOfBytes": "32",
        "value": "t_struct(PeriodInfo)28825_storage"
      },
      "t_mapping(t_address,t_uint256)": {
        "encoding": "mapping",
        "key": "t_address",
        "label": "mapping(address => uint256)",
        "numberOfBytes": "32",
        "value": "t_uint256"
      },
      "t_mapping(t_uint256,t_address)": {
        "encoding": "mapping",
        "key": "t_uint256",
        "label": "mapping(uint256 => address)",
        "numberOfBytes": "32",
        "value": "t_address"
      },
      "t_mapping(t_uint256,t_string_storage)": {
        "encoding": "mapping",
        "key": "t_uint256",
        "label": "mapping(uint256 => string)",
        "numberOfBytes": "32",
        "value": "t_string_storage"
      },
      "t_mapping(t_uint64,t_uint256)": {
        "encoding": "mapping",
        "key": "t_uint64",
        "label": "mapping(uint64 => uint256)",
        "numberOfBytes": "32",
        "value": "t_uint256"
      },
      "t_mapping(t_uint64,t_uint64)": {
        "encoding": "mapping",
        "key": "t_uint64",
        "label": "mapping(uint64 => uint64)",
        "numberOfBytes": "32",
        "value": "t_uint64"
      },
      "t_string_storage": {
        "encoding": "bytes",
        "label": "string",
        "numberOfBytes": "32"
      },
      "t_struct(PeriodInfo)28825_storage": {
        "encoding": "inplace",
        "label": "struct Vesting03.PeriodInfo",
        "members": [
          {
            "astId": 28821,
            "contract": "contracts/rewards/Vesting03.sol:Vesting03",
            "label": "lastUpdateTime",
            "offset": 0,
            "slot": "0",
            "type": "t_uint64"
          },
          {
            "astId": 28824,
            "contract": "contracts/rewards/Vesting03.sol:Vesting03",
            "label": "periodFinish",
            "offset": 8,
            "slot": "0",
            "type": "t_uint64"
          }
        ],
        "numberOfBytes": "32"
      },
      "t_struct(Vest)27306_storage": {
        "encoding": "inplace",
        "label": "struct Vesting02.Vest",
        "members": [
          {
            "astId": 27295,
            "contract": "contracts/rewards/Vesting03.sol:Vesting03",
            "label": "pool",
            "offset": 0,
            "slot": "0",
            "type": "t_address"
          },
          {
            "astId": 27297,
            "contract": "contracts/rewards/Vesting03.sol:Vesting03",
            "label": "depositID",
            "offset": 20,
            "slot": "0",
            "type": "t_uint64"
          },
          {
            "astId": 27299,
            "contract": "contracts/rewards/Vesting03.sol:Vesting03",
            "label": "lastUpdateTimestamp",
            "offset": 0,
            "slot": "1",
            "type": "t_uint64"
          },
          {
            "astId": 27301,
            "contract": "contracts/rewards/Vesting03.sol:Vesting03",
            "label": "accumulatedAmount",
            "offset": 0,
            "slot": "2",
            "type": "t_uint256"
          },
          {
            "astId": 27303,
            "contract": "contracts/rewards/Vesting03.sol:Vesting03",
            "label": "withdrawnAmount",
            "offset": 0,
            "slot": "3",
            "type": "t_uint256"
          },
          {
            "astId": 27305,
            "contract": "contracts/rewards/Vesting03.sol:Vesting03",
            "label": "vestAmountPerStablecoinPerSecond",
            "offset": 0,
            "slot": "4",
            "type": "t_uint256"
          }
        ],
        "numberOfBytes": "160"
      },
      "t_uint256": {
        "encoding": "inplace",
        "label": "uint256",
        "numberOfBytes": "32"
      },
      "t_uint64": {
        "encoding": "inplace",
        "label": "uint64",
        "numberOfBytes": "8"
      }
    }
  }
}